{
	"contracts/task2/03 job3.sol": {
		"BeggingContract": {
			"abi": [
				{
					"inputs": [
						{
							"internalType": "uint256",
							"name": "_duration",
							"type": "uint256"
						}
					],
					"stateMutability": "nonpayable",
					"type": "constructor"
				},
				{
					"inputs": [
						{
							"internalType": "address",
							"name": "owner",
							"type": "address"
						}
					],
					"name": "OwnableInvalidOwner",
					"type": "error"
				},
				{
					"inputs": [
						{
							"internalType": "address",
							"name": "account",
							"type": "address"
						}
					],
					"name": "OwnableUnauthorizedAccount",
					"type": "error"
				},
				{
					"anonymous": false,
					"inputs": [
						{
							"indexed": true,
							"internalType": "address",
							"name": "addr",
							"type": "address"
						},
						{
							"indexed": true,
							"internalType": "uint256",
							"name": "amount",
							"type": "uint256"
						},
						{
							"indexed": false,
							"internalType": "uint256",
							"name": "operationTime",
							"type": "uint256"
						}
					],
					"name": "Donate",
					"type": "event"
				},
				{
					"anonymous": false,
					"inputs": [
						{
							"indexed": true,
							"internalType": "address",
							"name": "previousOwner",
							"type": "address"
						},
						{
							"indexed": true,
							"internalType": "address",
							"name": "newOwner",
							"type": "address"
						}
					],
					"name": "OwnershipTransferred",
					"type": "event"
				},
				{
					"anonymous": false,
					"inputs": [
						{
							"indexed": true,
							"internalType": "address",
							"name": "addr",
							"type": "address"
						},
						{
							"indexed": true,
							"internalType": "uint256",
							"name": "amount",
							"type": "uint256"
						},
						{
							"indexed": false,
							"internalType": "uint256",
							"name": "operationTime",
							"type": "uint256"
						}
					],
					"name": "Withdraw",
					"type": "event"
				},
				{
					"inputs": [],
					"name": "balance",
					"outputs": [
						{
							"internalType": "uint256",
							"name": "",
							"type": "uint256"
						}
					],
					"stateMutability": "view",
					"type": "function"
				},
				{
					"inputs": [
						{
							"internalType": "address",
							"name": "",
							"type": "address"
						}
					],
					"name": "contributions",
					"outputs": [
						{
							"internalType": "uint256",
							"name": "",
							"type": "uint256"
						}
					],
					"stateMutability": "view",
					"type": "function"
				},
				{
					"inputs": [],
					"name": "deadline",
					"outputs": [
						{
							"internalType": "uint256",
							"name": "",
							"type": "uint256"
						}
					],
					"stateMutability": "view",
					"type": "function"
				},
				{
					"inputs": [],
					"name": "donate",
					"outputs": [
						{
							"internalType": "bool",
							"name": "",
							"type": "bool"
						}
					],
					"stateMutability": "payable",
					"type": "function"
				},
				{
					"inputs": [
						{
							"internalType": "address",
							"name": "_addr",
							"type": "address"
						}
					],
					"name": "getDonation",
					"outputs": [
						{
							"internalType": "uint256",
							"name": "",
							"type": "uint256"
						}
					],
					"stateMutability": "view",
					"type": "function"
				},
				{
					"inputs": [],
					"name": "getTop3Donate",
					"outputs": [
						{
							"internalType": "address",
							"name": "top1",
							"type": "address"
						},
						{
							"internalType": "address",
							"name": "top2",
							"type": "address"
						},
						{
							"internalType": "address",
							"name": "top3",
							"type": "address"
						}
					],
					"stateMutability": "view",
					"type": "function"
				},
				{
					"inputs": [],
					"name": "owner",
					"outputs": [
						{
							"internalType": "address",
							"name": "",
							"type": "address"
						}
					],
					"stateMutability": "view",
					"type": "function"
				},
				{
					"inputs": [],
					"name": "renounceOwnership",
					"outputs": [],
					"stateMutability": "nonpayable",
					"type": "function"
				},
				{
					"inputs": [],
					"name": "totalFunded",
					"outputs": [
						{
							"internalType": "uint256",
							"name": "",
							"type": "uint256"
						}
					],
					"stateMutability": "view",
					"type": "function"
				},
				{
					"inputs": [
						{
							"internalType": "address",
							"name": "newOwner",
							"type": "address"
						}
					],
					"name": "transferOwnership",
					"outputs": [],
					"stateMutability": "nonpayable",
					"type": "function"
				},
				{
					"inputs": [
						{
							"internalType": "uint256",
							"name": "_amount",
							"type": "uint256"
						}
					],
					"name": "withdraw",
					"outputs": [
						{
							"internalType": "bool",
							"name": "",
							"type": "bool"
						}
					],
					"stateMutability": "payable",
					"type": "function"
				}
			],
			"devdoc": {
				"errors": {
					"OwnableInvalidOwner(address)": [
						{
							"details": "The owner is not a valid owner account. (eg. `address(0)`)"
						}
					],
					"OwnableUnauthorizedAccount(address)": [
						{
							"details": "The caller account is not authorized to perform an operation."
						}
					]
				},
				"kind": "dev",
				"methods": {
					"owner()": {
						"details": "Returns the address of the current owner."
					},
					"renounceOwnership()": {
						"details": "Leaves the contract without owner. It will not be possible to call `onlyOwner` functions. Can only be called by the current owner. NOTE: Renouncing ownership will leave the contract without an owner, thereby disabling any functionality that is only available to the owner."
					},
					"transferOwnership(address)": {
						"details": "Transfers ownership of the contract to a new account (`newOwner`). Can only be called by the current owner."
					}
				},
				"version": 1
			},
			"evm": {
				"assembly": "    /* \"contracts/task2/03 job3.sol\":117:3029  contract BeggingContract is Ownable {... */\n  mstore(0x40, 0x80)\n    /* \"contracts/task2/03 job3.sol\":766:887  constructor(uint256 _duration) Ownable(msg.sender) { ... */\n  callvalue\n  dup1\n  iszero\n  tag_1\n  jumpi\n  revert(0x00, 0x00)\ntag_1:\n  pop\n  mload(0x40)\n  sub(codesize, bytecodeSize)\n  dup1\n  bytecodeSize\n  dup4\n  codecopy\n  dup2\n  dup2\n  add\n  0x40\n  mstore\n  dup2\n  add\n  swap1\n  tag_2\n  swap2\n  swap1\n  tag_3\n  jump\t// in\ntag_2:\n    /* \"contracts/task2/03 job3.sol\":805:815  msg.sender */\n  caller\n    /* \"@openzeppelin/contracts/access/Ownable.sol\":1297:1298  0 */\n  0x00\n    /* \"@openzeppelin/contracts/access/Ownable.sol\":1273:1299  initialOwner == address(0) */\n  0xffffffffffffffffffffffffffffffffffffffff\n  and\n    /* \"@openzeppelin/contracts/access/Ownable.sol\":1273:1285  initialOwner */\n  dup2\n    /* \"@openzeppelin/contracts/access/Ownable.sol\":1273:1299  initialOwner == address(0) */\n  0xffffffffffffffffffffffffffffffffffffffff\n  and\n  sub\n    /* \"@openzeppelin/contracts/access/Ownable.sol\":1269:1364  if (initialOwner == address(0)) {... */\n  tag_7\n  jumpi\n    /* \"@openzeppelin/contracts/access/Ownable.sol\":1350:1351  0 */\n  0x00\n    /* \"@openzeppelin/contracts/access/Ownable.sol\":1322:1353  OwnableInvalidOwner(address(0)) */\n  mload(0x40)\n  0x1e4fbdf700000000000000000000000000000000000000000000000000000000\n  dup2\n  mstore\n  0x04\n  add\n  tag_8\n  swap2\n  swap1\n  tag_9\n  jump\t// in\ntag_8:\n  mload(0x40)\n  dup1\n  swap2\n  sub\n  swap1\n  revert\n    /* \"@openzeppelin/contracts/access/Ownable.sol\":1269:1364  if (initialOwner == address(0)) {... */\ntag_7:\n    /* \"@openzeppelin/contracts/access/Ownable.sol\":1373:1405  _transferOwnership(initialOwner) */\n  tag_10\n    /* \"@openzeppelin/contracts/access/Ownable.sol\":1392:1404  initialOwner */\n  dup2\n    /* \"@openzeppelin/contracts/access/Ownable.sol\":1373:1391  _transferOwnership */\n  shl(0x20, tag_11)\n    /* \"@openzeppelin/contracts/access/Ownable.sol\":1373:1405  _transferOwnership(initialOwner) */\n  0x20\n  shr\n  jump\t// in\ntag_10:\n    /* \"@openzeppelin/contracts/access/Ownable.sol\":1225:1412  constructor(address initialOwner) {... */\n  pop\n    /* \"contracts/task2/03 job3.sol\":871:877  1 days */\n  0x015180\n    /* \"contracts/task2/03 job3.sol\":859:868  _duration */\n  dup2\n    /* \"contracts/task2/03 job3.sol\":859:877  _duration * 1 days */\n  tag_13\n  swap2\n  swap1\n  tag_14\n  jump\t// in\ntag_13:\n    /* \"contracts/task2/03 job3.sol\":840:855  block.timestamp */\n  timestamp\n    /* \"contracts/task2/03 job3.sol\":840:878  block.timestamp + (_duration * 1 days) */\n  tag_15\n  swap2\n  swap1\n  tag_16\n  jump\t// in\ntag_15:\n    /* \"contracts/task2/03 job3.sol\":829:837  deadline */\n  0x05\n    /* \"contracts/task2/03 job3.sol\":829:878  deadline = block.timestamp + (_duration * 1 days) */\n  dup2\n  swap1\n  sstore\n  pop\n    /* \"contracts/task2/03 job3.sol\":766:887  constructor(uint256 _duration) Ownable(msg.sender) { ... */\n  pop\n    /* \"contracts/task2/03 job3.sol\":117:3029  contract BeggingContract is Ownable {... */\n  jump(tag_17)\n    /* \"@openzeppelin/contracts/access/Ownable.sol\":2912:3099  function _transferOwnership(address newOwner) internal virtual {... */\ntag_11:\n    /* \"@openzeppelin/contracts/access/Ownable.sol\":2985:3001  address oldOwner */\n  0x00\n    /* \"@openzeppelin/contracts/access/Ownable.sol\":3004:3010  _owner */\n  0x00\n  0x00\n  swap1\n  sload\n  swap1\n  0x0100\n  exp\n  swap1\n  div\n  0xffffffffffffffffffffffffffffffffffffffff\n  and\n    /* \"@openzeppelin/contracts/access/Ownable.sol\":2985:3010  address oldOwner = _owner */\n  swap1\n  pop\n    /* \"@openzeppelin/contracts/access/Ownable.sol\":3029:3037  newOwner */\n  dup2\n    /* \"@openzeppelin/contracts/access/Ownable.sol\":3020:3026  _owner */\n  0x00\n  0x00\n    /* \"@openzeppelin/contracts/access/Ownable.sol\":3020:3037  _owner = newOwner */\n  0x0100\n  exp\n  dup2\n  sload\n  dup2\n  0xffffffffffffffffffffffffffffffffffffffff\n  mul\n  not\n  and\n  swap1\n  dup4\n  0xffffffffffffffffffffffffffffffffffffffff\n  and\n  mul\n  or\n  swap1\n  sstore\n  pop\n    /* \"@openzeppelin/contracts/access/Ownable.sol\":3083:3091  newOwner */\n  dup2\n    /* \"@openzeppelin/contracts/access/Ownable.sol\":3052:3092  OwnershipTransferred(oldOwner, newOwner) */\n  0xffffffffffffffffffffffffffffffffffffffff\n  and\n    /* \"@openzeppelin/contracts/access/Ownable.sol\":3073:3081  oldOwner */\n  dup2\n    /* \"@openzeppelin/contracts/access/Ownable.sol\":3052:3092  OwnershipTransferred(oldOwner, newOwner) */\n  0xffffffffffffffffffffffffffffffffffffffff\n  and\n  0x8be0079c531659141344cd1fd0a4f28419497f9722a3daafe3b4186f6b6457e0\n  mload(0x40)\n  mload(0x40)\n  dup1\n  swap2\n  sub\n  swap1\n  log3\n    /* \"@openzeppelin/contracts/access/Ownable.sol\":2975:3099  {... */\n  pop\n    /* \"@openzeppelin/contracts/access/Ownable.sol\":2912:3099  function _transferOwnership(address newOwner) internal virtual {... */\n  pop\n  jump\t// out\n    /* \"#utility.yul\":88:205   */\ntag_20:\n    /* \"#utility.yul\":197:198   */\n  0x00\n    /* \"#utility.yul\":194:195   */\n  0x00\n    /* \"#utility.yul\":187:199   */\n  revert\n    /* \"#utility.yul\":334:411   */\ntag_22:\n    /* \"#utility.yul\":371:378   */\n  0x00\n    /* \"#utility.yul\":400:405   */\n  dup2\n    /* \"#utility.yul\":389:405   */\n  swap1\n  pop\n    /* \"#utility.yul\":334:411   */\n  swap2\n  swap1\n  pop\n  jump\t// out\n    /* \"#utility.yul\":417:539   */\ntag_23:\n    /* \"#utility.yul\":490:514   */\n  tag_35\n    /* \"#utility.yul\":508:513   */\n  dup2\n    /* \"#utility.yul\":490:514   */\n  tag_22\n  jump\t// in\ntag_35:\n    /* \"#utility.yul\":483:488   */\n  dup2\n    /* \"#utility.yul\":480:515   */\n  eq\n    /* \"#utility.yul\":470:533   */\n  tag_36\n  jumpi\n    /* \"#utility.yul\":529:530   */\n  0x00\n    /* \"#utility.yul\":526:527   */\n  0x00\n    /* \"#utility.yul\":519:531   */\n  revert\n    /* \"#utility.yul\":470:533   */\ntag_36:\n    /* \"#utility.yul\":417:539   */\n  pop\n  jump\t// out\n    /* \"#utility.yul\":545:688   */\ntag_24:\n    /* \"#utility.yul\":602:607   */\n  0x00\n    /* \"#utility.yul\":633:639   */\n  dup2\n    /* \"#utility.yul\":627:640   */\n  mload\n    /* \"#utility.yul\":618:640   */\n  swap1\n  pop\n    /* \"#utility.yul\":649:682   */\n  tag_38\n    /* \"#utility.yul\":676:681   */\n  dup2\n    /* \"#utility.yul\":649:682   */\n  tag_23\n  jump\t// in\ntag_38:\n    /* \"#utility.yul\":545:688   */\n  swap3\n  swap2\n  pop\n  pop\n  jump\t// out\n    /* \"#utility.yul\":694:1045   */\ntag_3:\n    /* \"#utility.yul\":764:770   */\n  0x00\n    /* \"#utility.yul\":813:815   */\n  0x20\n    /* \"#utility.yul\":801:810   */\n  dup3\n    /* \"#utility.yul\":792:799   */\n  dup5\n    /* \"#utility.yul\":788:811   */\n  sub\n    /* \"#utility.yul\":784:816   */\n  slt\n    /* \"#utility.yul\":781:900   */\n  iszero\n  tag_40\n  jumpi\n    /* \"#utility.yul\":819:898   */\n  tag_41\n  tag_20\n  jump\t// in\ntag_41:\n    /* \"#utility.yul\":781:900   */\ntag_40:\n    /* \"#utility.yul\":939:940   */\n  0x00\n    /* \"#utility.yul\":964:1028   */\n  tag_42\n    /* \"#utility.yul\":1020:1027   */\n  dup5\n    /* \"#utility.yul\":1011:1017   */\n  dup3\n    /* \"#utility.yul\":1000:1009   */\n  dup6\n    /* \"#utility.yul\":996:1018   */\n  add\n    /* \"#utility.yul\":964:1028   */\n  tag_24\n  jump\t// in\ntag_42:\n    /* \"#utility.yul\":954:1028   */\n  swap2\n  pop\n    /* \"#utility.yul\":910:1038   */\n  pop\n    /* \"#utility.yul\":694:1045   */\n  swap3\n  swap2\n  pop\n  pop\n  jump\t// out\n    /* \"#utility.yul\":1051:1177   */\ntag_25:\n    /* \"#utility.yul\":1088:1095   */\n  0x00\n    /* \"#utility.yul\":1128:1170   */\n  0xffffffffffffffffffffffffffffffffffffffff\n    /* \"#utility.yul\":1121:1126   */\n  dup3\n    /* \"#utility.yul\":1117:1171   */\n  and\n    /* \"#utility.yul\":1106:1171   */\n  swap1\n  pop\n    /* \"#utility.yul\":1051:1177   */\n  swap2\n  swap1\n  pop\n  jump\t// out\n    /* \"#utility.yul\":1183:1279   */\ntag_26:\n    /* \"#utility.yul\":1220:1227   */\n  0x00\n    /* \"#utility.yul\":1249:1273   */\n  tag_45\n    /* \"#utility.yul\":1267:1272   */\n  dup3\n    /* \"#utility.yul\":1249:1273   */\n  tag_25\n  jump\t// in\ntag_45:\n    /* \"#utility.yul\":1238:1273   */\n  swap1\n  pop\n    /* \"#utility.yul\":1183:1279   */\n  swap2\n  swap1\n  pop\n  jump\t// out\n    /* \"#utility.yul\":1285:1403   */\ntag_27:\n    /* \"#utility.yul\":1372:1396   */\n  tag_47\n    /* \"#utility.yul\":1390:1395   */\n  dup2\n    /* \"#utility.yul\":1372:1396   */\n  tag_26\n  jump\t// in\ntag_47:\n    /* \"#utility.yul\":1367:1370   */\n  dup3\n    /* \"#utility.yul\":1360:1397   */\n  mstore\n    /* \"#utility.yul\":1285:1403   */\n  pop\n  pop\n  jump\t// out\n    /* \"#utility.yul\":1409:1631   */\ntag_9:\n    /* \"#utility.yul\":1502:1506   */\n  0x00\n    /* \"#utility.yul\":1540:1542   */\n  0x20\n    /* \"#utility.yul\":1529:1538   */\n  dup3\n    /* \"#utility.yul\":1525:1543   */\n  add\n    /* \"#utility.yul\":1517:1543   */\n  swap1\n  pop\n    /* \"#utility.yul\":1553:1624   */\n  tag_49\n    /* \"#utility.yul\":1621:1622   */\n  0x00\n    /* \"#utility.yul\":1610:1619   */\n  dup4\n    /* \"#utility.yul\":1606:1623   */\n  add\n    /* \"#utility.yul\":1597:1603   */\n  dup5\n    /* \"#utility.yul\":1553:1624   */\n  tag_27\n  jump\t// in\ntag_49:\n    /* \"#utility.yul\":1409:1631   */\n  swap3\n  swap2\n  pop\n  pop\n  jump\t// out\n    /* \"#utility.yul\":1637:1817   */\ntag_28:\n    /* \"#utility.yul\":1685:1762   */\n  0x4e487b7100000000000000000000000000000000000000000000000000000000\n    /* \"#utility.yul\":1682:1683   */\n  0x00\n    /* \"#utility.yul\":1675:1763   */\n  mstore\n    /* \"#utility.yul\":1782:1786   */\n  0x11\n    /* \"#utility.yul\":1779:1780   */\n  0x04\n    /* \"#utility.yul\":1772:1787   */\n  mstore\n    /* \"#utility.yul\":1806:1810   */\n  0x24\n    /* \"#utility.yul\":1803:1804   */\n  0x00\n    /* \"#utility.yul\":1796:1811   */\n  revert\n    /* \"#utility.yul\":1823:2233   */\ntag_14:\n    /* \"#utility.yul\":1863:1870   */\n  0x00\n    /* \"#utility.yul\":1886:1906   */\n  tag_52\n    /* \"#utility.yul\":1904:1905   */\n  dup3\n    /* \"#utility.yul\":1886:1906   */\n  tag_22\n  jump\t// in\ntag_52:\n    /* \"#utility.yul\":1881:1906   */\n  swap2\n  pop\n    /* \"#utility.yul\":1920:1940   */\n  tag_53\n    /* \"#utility.yul\":1938:1939   */\n  dup4\n    /* \"#utility.yul\":1920:1940   */\n  tag_22\n  jump\t// in\ntag_53:\n    /* \"#utility.yul\":1915:1940   */\n  swap3\n  pop\n    /* \"#utility.yul\":1975:1976   */\n  dup3\n    /* \"#utility.yul\":1972:1973   */\n  dup3\n    /* \"#utility.yul\":1968:1977   */\n  mul\n    /* \"#utility.yul\":1997:2027   */\n  tag_54\n    /* \"#utility.yul\":2015:2026   */\n  dup2\n    /* \"#utility.yul\":1997:2027   */\n  tag_22\n  jump\t// in\ntag_54:\n    /* \"#utility.yul\":1986:2027   */\n  swap2\n  pop\n    /* \"#utility.yul\":2176:2177   */\n  dup3\n    /* \"#utility.yul\":2167:2174   */\n  dup3\n    /* \"#utility.yul\":2163:2178   */\n  div\n    /* \"#utility.yul\":2160:2161   */\n  dup5\n    /* \"#utility.yul\":2157:2179   */\n  eq\n    /* \"#utility.yul\":2137:2138   */\n  dup4\n    /* \"#utility.yul\":2130:2139   */\n  iszero\n    /* \"#utility.yul\":2110:2193   */\n  or\n    /* \"#utility.yul\":2087:2226   */\n  tag_55\n  jumpi\n    /* \"#utility.yul\":2206:2224   */\n  tag_56\n  tag_28\n  jump\t// in\ntag_56:\n    /* \"#utility.yul\":2087:2226   */\ntag_55:\n    /* \"#utility.yul\":1871:2233   */\n  pop\n    /* \"#utility.yul\":1823:2233   */\n  swap3\n  swap2\n  pop\n  pop\n  jump\t// out\n    /* \"#utility.yul\":2239:2430   */\ntag_16:\n    /* \"#utility.yul\":2279:2282   */\n  0x00\n    /* \"#utility.yul\":2298:2318   */\n  tag_58\n    /* \"#utility.yul\":2316:2317   */\n  dup3\n    /* \"#utility.yul\":2298:2318   */\n  tag_22\n  jump\t// in\ntag_58:\n    /* \"#utility.yul\":2293:2318   */\n  swap2\n  pop\n    /* \"#utility.yul\":2332:2352   */\n  tag_59\n    /* \"#utility.yul\":2350:2351   */\n  dup4\n    /* \"#utility.yul\":2332:2352   */\n  tag_22\n  jump\t// in\ntag_59:\n    /* \"#utility.yul\":2327:2352   */\n  swap3\n  pop\n    /* \"#utility.yul\":2375:2376   */\n  dup3\n    /* \"#utility.yul\":2372:2373   */\n  dup3\n    /* \"#utility.yul\":2368:2377   */\n  add\n    /* \"#utility.yul\":2361:2377   */\n  swap1\n  pop\n    /* \"#utility.yul\":2396:2399   */\n  dup1\n    /* \"#utility.yul\":2393:2394   */\n  dup3\n    /* \"#utility.yul\":2390:2400   */\n  gt\n    /* \"#utility.yul\":2387:2423   */\n  iszero\n  tag_60\n  jumpi\n    /* \"#utility.yul\":2403:2421   */\n  tag_61\n  tag_28\n  jump\t// in\ntag_61:\n    /* \"#utility.yul\":2387:2423   */\ntag_60:\n    /* \"#utility.yul\":2239:2430   */\n  swap3\n  swap2\n  pop\n  pop\n  jump\t// out\n    /* \"contracts/task2/03 job3.sol\":117:3029  contract BeggingContract is Ownable {... */\ntag_17:\n  dataSize(sub_0)\n  dup1\n  dataOffset(sub_0)\n  0x00\n  codecopy\n  0x00\n  return\nstop\n\nsub_0: assembly {\n        /* \"contracts/task2/03 job3.sol\":117:3029  contract BeggingContract is Ownable {... */\n      mstore(0x40, 0x80)\n      jumpi(tag_1, lt(calldatasize, 0x04))\n      shr(0xe0, calldataload(0x00))\n      dup1\n      0x715018a6\n      gt\n      tag_13\n      jumpi\n      dup1\n      0x715018a6\n      eq\n      tag_7\n      jumpi\n      dup1\n      0x8da5cb5b\n      eq\n      tag_8\n      jumpi\n      dup1\n      0xad044f49\n      eq\n      tag_9\n      jumpi\n      dup1\n      0xb69ef8a8\n      eq\n      tag_10\n      jumpi\n      dup1\n      0xed88c68e\n      eq\n      tag_11\n      jumpi\n      dup1\n      0xf2fde38b\n      eq\n      tag_12\n      jumpi\n      jump(tag_1)\n    tag_13:\n      dup1\n      0x29dcb0cf\n      eq\n      tag_2\n      jumpi\n      dup1\n      0x2e1a7d4d\n      eq\n      tag_3\n      jumpi\n      dup1\n      0x348853b8\n      eq\n      tag_4\n      jumpi\n      dup1\n      0x410a1d32\n      eq\n      tag_5\n      jumpi\n      dup1\n      0x42e94c90\n      eq\n      tag_6\n      jumpi\n    tag_1:\n      revert(0x00, 0x00)\n        /* \"contracts/task2/03 job3.sol\":355:378  uint256 public deadline */\n    tag_2:\n      callvalue\n      dup1\n      iszero\n      tag_14\n      jumpi\n      revert(0x00, 0x00)\n    tag_14:\n      pop\n      tag_15\n      tag_16\n      jump\t// in\n    tag_15:\n      mload(0x40)\n      tag_17\n      swap2\n      swap1\n      tag_18\n      jump\t// in\n    tag_17:\n      mload(0x40)\n      dup1\n      swap2\n      sub\n      swap1\n      return\n        /* \"contracts/task2/03 job3.sol\":1291:1602  function withdraw(uint256 _amount) public onlyOwner payable returns (bool)  {... */\n    tag_3:\n      tag_19\n      0x04\n      dup1\n      calldatasize\n      sub\n      dup2\n      add\n      swap1\n      tag_20\n      swap2\n      swap1\n      tag_21\n      jump\t// in\n    tag_20:\n      tag_22\n      jump\t// in\n    tag_19:\n      mload(0x40)\n      tag_23\n      swap2\n      swap1\n      tag_24\n      jump\t// in\n    tag_23:\n      mload(0x40)\n      dup1\n      swap2\n      sub\n      swap1\n      return\n        /* \"contracts/task2/03 job3.sol\":1770:3024  function getTop3Donate() public view returns (address top1, address top2, address top3){... */\n    tag_4:\n      callvalue\n      dup1\n      iszero\n      tag_25\n      jumpi\n      revert(0x00, 0x00)\n    tag_25:\n      pop\n      tag_26\n      tag_27\n      jump\t// in\n    tag_26:\n      mload(0x40)\n      tag_28\n      swap4\n      swap3\n      swap2\n      swap1\n      tag_29\n      jump\t// in\n    tag_28:\n      mload(0x40)\n      dup1\n      swap2\n      sub\n      swap1\n      return\n        /* \"contracts/task2/03 job3.sol\":1610:1731  function getDonation(address _addr) public view onlyOwner returns (uint256){... */\n    tag_5:\n      callvalue\n      dup1\n      iszero\n      tag_30\n      jumpi\n      revert(0x00, 0x00)\n    tag_30:\n      pop\n      tag_31\n      0x04\n      dup1\n      calldatasize\n      sub\n      dup2\n      add\n      swap1\n      tag_32\n      swap2\n      swap1\n      tag_33\n      jump\t// in\n    tag_32:\n      tag_34\n      jump\t// in\n    tag_31:\n      mload(0x40)\n      tag_35\n      swap2\n      swap1\n      tag_18\n      jump\t// in\n    tag_35:\n      mload(0x40)\n      dup1\n      swap2\n      sub\n      swap1\n      return\n        /* \"contracts/task2/03 job3.sol\":160:209  mapping (address => uint256) public contributions */\n    tag_6:\n      callvalue\n      dup1\n      iszero\n      tag_36\n      jumpi\n      revert(0x00, 0x00)\n    tag_36:\n      pop\n      tag_37\n      0x04\n      dup1\n      calldatasize\n      sub\n      dup2\n      add\n      swap1\n      tag_38\n      swap2\n      swap1\n      tag_33\n      jump\t// in\n    tag_38:\n      tag_39\n      jump\t// in\n    tag_37:\n      mload(0x40)\n      tag_40\n      swap2\n      swap1\n      tag_18\n      jump\t// in\n    tag_40:\n      mload(0x40)\n      dup1\n      swap2\n      sub\n      swap1\n      return\n        /* \"@openzeppelin/contracts/access/Ownable.sol\":2293:2394  function renounceOwnership() public virtual onlyOwner {... */\n    tag_7:\n      callvalue\n      dup1\n      iszero\n      tag_41\n      jumpi\n      revert(0x00, 0x00)\n    tag_41:\n      pop\n      tag_42\n      tag_43\n      jump\t// in\n    tag_42:\n      stop\n        /* \"@openzeppelin/contracts/access/Ownable.sol\":1638:1723  function owner() public view virtual returns (address) {... */\n    tag_8:\n      callvalue\n      dup1\n      iszero\n      tag_44\n      jumpi\n      revert(0x00, 0x00)\n    tag_44:\n      pop\n      tag_45\n      tag_46\n      jump\t// in\n    tag_45:\n      mload(0x40)\n      tag_47\n      swap2\n      swap1\n      tag_48\n      jump\t// in\n    tag_47:\n      mload(0x40)\n      dup1\n      swap2\n      sub\n      swap1\n      return\n        /* \"contracts/task2/03 job3.sol\":272:298  uint256 public totalFunded */\n    tag_9:\n      callvalue\n      dup1\n      iszero\n      tag_49\n      jumpi\n      revert(0x00, 0x00)\n    tag_49:\n      pop\n      tag_50\n      tag_51\n      jump\t// in\n    tag_50:\n      mload(0x40)\n      tag_52\n      swap2\n      swap1\n      tag_18\n      jump\t// in\n    tag_52:\n      mload(0x40)\n      dup1\n      swap2\n      sub\n      swap1\n      return\n        /* \"contracts/task2/03 job3.sol\":326:348  uint256 public balance */\n    tag_10:\n      callvalue\n      dup1\n      iszero\n      tag_53\n      jumpi\n      revert(0x00, 0x00)\n    tag_53:\n      pop\n      tag_54\n      tag_55\n      jump\t// in\n    tag_54:\n      mload(0x40)\n      tag_56\n      swap2\n      swap1\n      tag_18\n      jump\t// in\n    tag_56:\n      mload(0x40)\n      dup1\n      swap2\n      sub\n      swap1\n      return\n        /* \"contracts/task2/03 job3.sol\":895:1283  function donate() NoExpire() public payable returns (bool){... */\n    tag_11:\n      tag_57\n      tag_58\n      jump\t// in\n    tag_57:\n      mload(0x40)\n      tag_59\n      swap2\n      swap1\n      tag_24\n      jump\t// in\n    tag_59:\n      mload(0x40)\n      dup1\n      swap2\n      sub\n      swap1\n      return\n        /* \"@openzeppelin/contracts/access/Ownable.sol\":2543:2758  function transferOwnership(address newOwner) public virtual onlyOwner {... */\n    tag_12:\n      callvalue\n      dup1\n      iszero\n      tag_60\n      jumpi\n      revert(0x00, 0x00)\n    tag_60:\n      pop\n      tag_61\n      0x04\n      dup1\n      calldatasize\n      sub\n      dup2\n      add\n      swap1\n      tag_62\n      swap2\n      swap1\n      tag_33\n      jump\t// in\n    tag_62:\n      tag_63\n      jump\t// in\n    tag_61:\n      stop\n        /* \"contracts/task2/03 job3.sol\":355:378  uint256 public deadline */\n    tag_16:\n      sload(0x05)\n      dup2\n      jump\t// out\n        /* \"contracts/task2/03 job3.sol\":1291:1602  function withdraw(uint256 _amount) public onlyOwner payable returns (bool)  {... */\n    tag_22:\n        /* \"contracts/task2/03 job3.sol\":1360:1364  bool */\n      0x00\n        /* \"@openzeppelin/contracts/access/Ownable.sol\":1531:1544  _checkOwner() */\n      tag_65\n        /* \"@openzeppelin/contracts/access/Ownable.sol\":1531:1542  _checkOwner */\n      tag_66\n        /* \"@openzeppelin/contracts/access/Ownable.sol\":1531:1544  _checkOwner() */\n      jump\t// in\n    tag_65:\n        /* \"contracts/task2/03 job3.sol\":1397:1404  _amount */\n      dup2\n        /* \"contracts/task2/03 job3.sol\":1386:1393  balance */\n      sload(0x04)\n        /* \"contracts/task2/03 job3.sol\":1386:1404  balance >= _amount */\n      lt\n      iszero\n        /* \"contracts/task2/03 job3.sol\":1378:1429  require(balance >= _amount, \"Insufficient balance\") */\n      tag_68\n      jumpi\n      mload(0x40)\n      0x08c379a000000000000000000000000000000000000000000000000000000000\n      dup2\n      mstore\n      0x04\n      add\n      tag_69\n      swap1\n      tag_70\n      jump\t// in\n    tag_69:\n      mload(0x40)\n      dup1\n      swap2\n      sub\n      swap1\n      revert\n    tag_68:\n        /* \"contracts/task2/03 job3.sol\":1453:1460  _amount */\n      dup2\n        /* \"contracts/task2/03 job3.sol\":1442:1449  balance */\n      0x04\n      0x00\n        /* \"contracts/task2/03 job3.sol\":1442:1460  balance -= _amount */\n      dup3\n      dup3\n      sload\n      tag_71\n      swap2\n      swap1\n      tag_72\n      jump\t// in\n    tag_71:\n      swap3\n      pop\n      pop\n      dup2\n      swap1\n      sstore\n      pop\n        /* \"contracts/task2/03 job3.sol\":1479:1489  msg.sender */\n      caller\n        /* \"contracts/task2/03 job3.sol\":1471:1499  payable(msg.sender).transfer */\n      0xffffffffffffffffffffffffffffffffffffffff\n      and\n        /* \"contracts/task2/03 job3.sol\":1471:1508  payable(msg.sender).transfer(_amount) */\n      0x08fc\n        /* \"contracts/task2/03 job3.sol\":1500:1507  _amount */\n      dup4\n        /* \"contracts/task2/03 job3.sol\":1471:1508  payable(msg.sender).transfer(_amount) */\n      swap1\n      dup2\n      iszero\n      mul\n      swap1\n      mload(0x40)\n      0x00\n      mload(0x40)\n      dup1\n      dup4\n      sub\n      dup2\n      dup6\n      dup9\n      dup9\n      call\n      swap4\n      pop\n      pop\n      pop\n      pop\n      iszero\n      dup1\n      iszero\n      tag_74\n      jumpi\n      returndatacopy(0x00, 0x00, returndatasize)\n      revert(0x00, returndatasize)\n    tag_74:\n      pop\n        /* \"contracts/task2/03 job3.sol\":1547:1554  _amount */\n      dup2\n        /* \"contracts/task2/03 job3.sol\":1535:1545  msg.sender */\n      caller\n        /* \"contracts/task2/03 job3.sol\":1526:1572  Withdraw(msg.sender, _amount, block.timestamp) */\n      0xffffffffffffffffffffffffffffffffffffffff\n      and\n      0xf279e6a1f5e320cca91135676d9cb6e44ca8a08c0b88342bcdb1144f6511b568\n        /* \"contracts/task2/03 job3.sol\":1556:1571  block.timestamp */\n      timestamp\n        /* \"contracts/task2/03 job3.sol\":1526:1572  Withdraw(msg.sender, _amount, block.timestamp) */\n      mload(0x40)\n      tag_75\n      swap2\n      swap1\n      tag_18\n      jump\t// in\n    tag_75:\n      mload(0x40)\n      dup1\n      swap2\n      sub\n      swap1\n      log3\n        /* \"contracts/task2/03 job3.sol\":1590:1594  true */\n      0x01\n        /* \"contracts/task2/03 job3.sol\":1583:1594  return true */\n      swap1\n      pop\n        /* \"contracts/task2/03 job3.sol\":1291:1602  function withdraw(uint256 _amount) public onlyOwner payable returns (bool)  {... */\n      swap2\n      swap1\n      pop\n      jump\t// out\n        /* \"contracts/task2/03 job3.sol\":1770:3024  function getTop3Donate() public view returns (address top1, address top2, address top3){... */\n    tag_27:\n        /* \"contracts/task2/03 job3.sol\":1816:1828  address top1 */\n      0x00\n        /* \"contracts/task2/03 job3.sol\":1830:1842  address top2 */\n      0x00\n        /* \"contracts/task2/03 job3.sol\":1844:1856  address top3 */\n      0x00\n        /* \"contracts/task2/03 job3.sol\":1904:1905  0 */\n      0x00\n        /* \"contracts/task2/03 job3.sol\":1876:1894  contributionsArray */\n      0x02\n        /* \"contracts/task2/03 job3.sol\":1876:1901  contributionsArray.length */\n      dup1\n      sload\n      swap1\n      pop\n        /* \"contracts/task2/03 job3.sol\":1876:1905  contributionsArray.length > 0 */\n      gt\n        /* \"contracts/task2/03 job3.sol\":1868:1920  require(contributionsArray.length > 0, \"no donator\") */\n      tag_77\n      jumpi\n      mload(0x40)\n      0x08c379a000000000000000000000000000000000000000000000000000000000\n      dup2\n      mstore\n      0x04\n      add\n      tag_78\n      swap1\n      tag_79\n      jump\t// in\n    tag_78:\n      mload(0x40)\n      dup1\n      swap2\n      sub\n      swap1\n      revert\n    tag_77:\n        /* \"contracts/task2/03 job3.sol\":1991:2008  uint256 top1Value */\n      0x00\n        /* \"contracts/task2/03 job3.sol\":2011:2012  0 */\n      0x00\n        /* \"contracts/task2/03 job3.sol\":1991:2012  uint256 top1Value = 0 */\n      swap1\n      pop\n        /* \"contracts/task2/03 job3.sol\":2023:2040  uint256 top2Value */\n      0x00\n        /* \"contracts/task2/03 job3.sol\":2043:2044  0 */\n      0x00\n        /* \"contracts/task2/03 job3.sol\":2023:2044  uint256 top2Value = 0 */\n      swap1\n      pop\n        /* \"contracts/task2/03 job3.sol\":2055:2072  uint256 top3Value */\n      0x00\n        /* \"contracts/task2/03 job3.sol\":2075:2076  0 */\n      0x00\n        /* \"contracts/task2/03 job3.sol\":2055:2076  uint256 top3Value = 0 */\n      swap1\n      pop\n        /* \"contracts/task2/03 job3.sol\":2094:2103  uint256 i */\n      0x00\n        /* \"contracts/task2/03 job3.sol\":2106:2107  0 */\n      0x00\n        /* \"contracts/task2/03 job3.sol\":2094:2107  uint256 i = 0 */\n      swap1\n      pop\n        /* \"contracts/task2/03 job3.sol\":2089:2977  for (uint256 i = 0; i < contributionsArray.length;){... */\n    tag_80:\n        /* \"contracts/task2/03 job3.sol\":2113:2131  contributionsArray */\n      0x02\n        /* \"contracts/task2/03 job3.sol\":2113:2138  contributionsArray.length */\n      dup1\n      sload\n      swap1\n      pop\n        /* \"contracts/task2/03 job3.sol\":2109:2110  i */\n      dup2\n        /* \"contracts/task2/03 job3.sol\":2109:2138  i < contributionsArray.length */\n      lt\n        /* \"contracts/task2/03 job3.sol\":2089:2977  for (uint256 i = 0; i < contributionsArray.length;){... */\n      iszero\n      tag_81\n      jumpi\n        /* \"contracts/task2/03 job3.sol\":2155:2174  address currentAddr */\n      0x00\n        /* \"contracts/task2/03 job3.sol\":2177:2195  contributionsArray */\n      0x02\n        /* \"contracts/task2/03 job3.sol\":2196:2197  i */\n      dup3\n        /* \"contracts/task2/03 job3.sol\":2177:2198  contributionsArray[i] */\n      dup2\n      sload\n      dup2\n      lt\n      tag_83\n      jumpi\n      tag_84\n      tag_85\n      jump\t// in\n    tag_84:\n    tag_83:\n      swap1\n      0x00\n      mstore\n      keccak256(0x00, 0x20)\n      add\n      0x00\n      swap1\n      sload\n      swap1\n      0x0100\n      exp\n      swap1\n      div\n      0xffffffffffffffffffffffffffffffffffffffff\n      and\n        /* \"contracts/task2/03 job3.sol\":2155:2198  address currentAddr = contributionsArray[i] */\n      swap1\n      pop\n        /* \"contracts/task2/03 job3.sol\":2213:2233  uint256 currentValue */\n      0x00\n        /* \"contracts/task2/03 job3.sol\":2236:2249  contributions */\n      0x01\n        /* \"contracts/task2/03 job3.sol\":2236:2262  contributions[currentAddr] */\n      0x00\n        /* \"contracts/task2/03 job3.sol\":2250:2261  currentAddr */\n      dup4\n        /* \"contracts/task2/03 job3.sol\":2236:2262  contributions[currentAddr] */\n      0xffffffffffffffffffffffffffffffffffffffff\n      and\n      0xffffffffffffffffffffffffffffffffffffffff\n      and\n      dup2\n      mstore\n      0x20\n      add\n      swap1\n      dup2\n      mstore\n      0x20\n      add\n      0x00\n      keccak256\n      sload\n        /* \"contracts/task2/03 job3.sol\":2213:2262  uint256 currentValue = contributions[currentAddr] */\n      swap1\n      pop\n        /* \"contracts/task2/03 job3.sol\":2299:2308  top1Value */\n      dup6\n        /* \"contracts/task2/03 job3.sol\":2283:2295  currentValue */\n      dup2\n        /* \"contracts/task2/03 job3.sol\":2283:2308  currentValue >= top1Value */\n      lt\n        /* \"contracts/task2/03 job3.sol\":2279:2932  if (currentValue >= top1Value){... */\n      tag_87\n      jumpi\n        /* \"contracts/task2/03 job3.sol\":2335:2339  top2 */\n      dup8\n        /* \"contracts/task2/03 job3.sol\":2328:2339  top3 = top2 */\n      swap7\n      pop\n        /* \"contracts/task2/03 job3.sol\":2370:2379  top2Value */\n      dup5\n        /* \"contracts/task2/03 job3.sol\":2358:2379  top3Value = top2Value */\n      swap4\n      pop\n        /* \"contracts/task2/03 job3.sol\":2423:2427  top1 */\n      dup9\n        /* \"contracts/task2/03 job3.sol\":2416:2427  top2 = top1 */\n      swap8\n      pop\n        /* \"contracts/task2/03 job3.sol\":2458:2467  top1Value */\n      dup6\n        /* \"contracts/task2/03 job3.sol\":2446:2467  top2Value = top1Value */\n      swap5\n      pop\n        /* \"contracts/task2/03 job3.sol\":2511:2522  currentAddr */\n      dup2\n        /* \"contracts/task2/03 job3.sol\":2504:2522  top1 = currentAddr */\n      swap9\n      pop\n        /* \"contracts/task2/03 job3.sol\":2553:2565  currentValue */\n      dup1\n        /* \"contracts/task2/03 job3.sol\":2541:2565  top1Value = currentValue */\n      swap6\n      pop\n        /* \"contracts/task2/03 job3.sol\":2279:2932  if (currentValue >= top1Value){... */\n      jump(tag_88)\n    tag_87:\n        /* \"contracts/task2/03 job3.sol\":2607:2616  top2Value */\n      dup5\n        /* \"contracts/task2/03 job3.sol\":2591:2603  currentValue */\n      dup2\n        /* \"contracts/task2/03 job3.sol\":2591:2616  currentValue >= top2Value */\n      lt\n        /* \"contracts/task2/03 job3.sol\":2587:2932  if (currentValue >= top2Value){... */\n      tag_89\n      jumpi\n        /* \"contracts/task2/03 job3.sol\":2643:2647  top2 */\n      dup8\n        /* \"contracts/task2/03 job3.sol\":2636:2647  top3 = top2 */\n      swap7\n      pop\n        /* \"contracts/task2/03 job3.sol\":2678:2687  top2Value */\n      dup5\n        /* \"contracts/task2/03 job3.sol\":2666:2687  top3Value = top2Value */\n      swap4\n      pop\n        /* \"contracts/task2/03 job3.sol\":2731:2742  currentAddr */\n      dup2\n        /* \"contracts/task2/03 job3.sol\":2724:2742  top2 = currentAddr */\n      swap8\n      pop\n        /* \"contracts/task2/03 job3.sol\":2773:2785  currentValue */\n      dup1\n        /* \"contracts/task2/03 job3.sol\":2761:2785  top2Value = currentValue */\n      swap5\n      pop\n        /* \"contracts/task2/03 job3.sol\":2587:2932  if (currentValue >= top2Value){... */\n      jump(tag_90)\n    tag_89:\n        /* \"contracts/task2/03 job3.sol\":2826:2835  top3Value */\n      dup4\n        /* \"contracts/task2/03 job3.sol\":2811:2823  currentValue */\n      dup2\n        /* \"contracts/task2/03 job3.sol\":2811:2835  currentValue > top3Value */\n      gt\n        /* \"contracts/task2/03 job3.sol\":2807:2932  if (currentValue > top3Value){... */\n      iszero\n      tag_91\n      jumpi\n        /* \"contracts/task2/03 job3.sol\":2862:2873  currentAddr */\n      dup2\n        /* \"contracts/task2/03 job3.sol\":2855:2873  top3 = currentAddr */\n      swap7\n      pop\n        /* \"contracts/task2/03 job3.sol\":2904:2916  currentValue */\n      dup1\n        /* \"contracts/task2/03 job3.sol\":2892:2916  top3Value = currentValue */\n      swap4\n      pop\n        /* \"contracts/task2/03 job3.sol\":2807:2932  if (currentValue > top3Value){... */\n    tag_91:\n        /* \"contracts/task2/03 job3.sol\":2587:2932  if (currentValue >= top2Value){... */\n    tag_90:\n        /* \"contracts/task2/03 job3.sol\":2279:2932  if (currentValue >= top1Value){... */\n    tag_88:\n        /* \"contracts/task2/03 job3.sol\":2960:2963  i++ */\n      dup3\n      dup1\n      0x01\n      add\n      swap4\n      pop\n      pop\n        /* \"contracts/task2/03 job3.sol\":2140:2977  {... */\n      pop\n      pop\n        /* \"contracts/task2/03 job3.sol\":2089:2977  for (uint256 i = 0; i < contributionsArray.length;){... */\n      jump(tag_80)\n    tag_81:\n      pop\n        /* \"contracts/task2/03 job3.sol\":2991:3016  return (top1, top2, top3) */\n      pop\n      pop\n      pop\n        /* \"contracts/task2/03 job3.sol\":1770:3024  function getTop3Donate() public view returns (address top1, address top2, address top3){... */\n      swap1\n      swap2\n      swap3\n      jump\t// out\n        /* \"contracts/task2/03 job3.sol\":1610:1731  function getDonation(address _addr) public view onlyOwner returns (uint256){... */\n    tag_34:\n        /* \"contracts/task2/03 job3.sol\":1677:1684  uint256 */\n      0x00\n        /* \"@openzeppelin/contracts/access/Ownable.sol\":1531:1544  _checkOwner() */\n      tag_93\n        /* \"@openzeppelin/contracts/access/Ownable.sol\":1531:1542  _checkOwner */\n      tag_66\n        /* \"@openzeppelin/contracts/access/Ownable.sol\":1531:1544  _checkOwner() */\n      jump\t// in\n    tag_93:\n        /* \"contracts/task2/03 job3.sol\":1703:1716  contributions */\n      0x01\n        /* \"contracts/task2/03 job3.sol\":1703:1723  contributions[_addr] */\n      0x00\n        /* \"contracts/task2/03 job3.sol\":1717:1722  _addr */\n      dup4\n        /* \"contracts/task2/03 job3.sol\":1703:1723  contributions[_addr] */\n      0xffffffffffffffffffffffffffffffffffffffff\n      and\n      0xffffffffffffffffffffffffffffffffffffffff\n      and\n      dup2\n      mstore\n      0x20\n      add\n      swap1\n      dup2\n      mstore\n      0x20\n      add\n      0x00\n      keccak256\n      sload\n        /* \"contracts/task2/03 job3.sol\":1696:1723  return contributions[_addr] */\n      swap1\n      pop\n        /* \"contracts/task2/03 job3.sol\":1610:1731  function getDonation(address _addr) public view onlyOwner returns (uint256){... */\n      swap2\n      swap1\n      pop\n      jump\t// out\n        /* \"contracts/task2/03 job3.sol\":160:209  mapping (address => uint256) public contributions */\n    tag_39:\n      mstore(0x20, 0x01)\n      dup1\n      0x00\n      mstore\n      keccak256(0x00, 0x40)\n      0x00\n      swap2\n      pop\n      swap1\n      pop\n      sload\n      dup2\n      jump\t// out\n        /* \"@openzeppelin/contracts/access/Ownable.sol\":2293:2394  function renounceOwnership() public virtual onlyOwner {... */\n    tag_43:\n        /* \"@openzeppelin/contracts/access/Ownable.sol\":1531:1544  _checkOwner() */\n      tag_96\n        /* \"@openzeppelin/contracts/access/Ownable.sol\":1531:1542  _checkOwner */\n      tag_66\n        /* \"@openzeppelin/contracts/access/Ownable.sol\":1531:1544  _checkOwner() */\n      jump\t// in\n    tag_96:\n        /* \"@openzeppelin/contracts/access/Ownable.sol\":2357:2387  _transferOwnership(address(0)) */\n      tag_98\n        /* \"@openzeppelin/contracts/access/Ownable.sol\":2384:2385  0 */\n      0x00\n        /* \"@openzeppelin/contracts/access/Ownable.sol\":2357:2375  _transferOwnership */\n      tag_99\n        /* \"@openzeppelin/contracts/access/Ownable.sol\":2357:2387  _transferOwnership(address(0)) */\n      jump\t// in\n    tag_98:\n        /* \"@openzeppelin/contracts/access/Ownable.sol\":2293:2394  function renounceOwnership() public virtual onlyOwner {... */\n      jump\t// out\n        /* \"@openzeppelin/contracts/access/Ownable.sol\":1638:1723  function owner() public view virtual returns (address) {... */\n    tag_46:\n        /* \"@openzeppelin/contracts/access/Ownable.sol\":1684:1691  address */\n      0x00\n        /* \"@openzeppelin/contracts/access/Ownable.sol\":1710:1716  _owner */\n      0x00\n      0x00\n      swap1\n      sload\n      swap1\n      0x0100\n      exp\n      swap1\n      div\n      0xffffffffffffffffffffffffffffffffffffffff\n      and\n        /* \"@openzeppelin/contracts/access/Ownable.sol\":1703:1716  return _owner */\n      swap1\n      pop\n        /* \"@openzeppelin/contracts/access/Ownable.sol\":1638:1723  function owner() public view virtual returns (address) {... */\n      swap1\n      jump\t// out\n        /* \"contracts/task2/03 job3.sol\":272:298  uint256 public totalFunded */\n    tag_51:\n      sload(0x03)\n      dup2\n      jump\t// out\n        /* \"contracts/task2/03 job3.sol\":326:348  uint256 public balance */\n    tag_55:\n      sload(0x04)\n      dup2\n      jump\t// out\n        /* \"contracts/task2/03 job3.sol\":895:1283  function donate() NoExpire() public payable returns (bool){... */\n    tag_58:\n        /* \"contracts/task2/03 job3.sol\":948:952  bool */\n      0x00\n        /* \"contracts/task2/03 job3.sol\":688:703  block.timestamp */\n      timestamp\n        /* \"contracts/task2/03 job3.sol\":679:687  deadline */\n      sload(0x05)\n        /* \"contracts/task2/03 job3.sol\":679:703  deadline>block.timestamp */\n      gt\n        /* \"contracts/task2/03 job3.sol\":671:719  require(deadline>block.timestamp, \"Out of time\") */\n      tag_102\n      jumpi\n      mload(0x40)\n      0x08c379a000000000000000000000000000000000000000000000000000000000\n      dup2\n      mstore\n      0x04\n      add\n      tag_103\n      swap1\n      tag_104\n      jump\t// in\n    tag_103:\n      mload(0x40)\n      dup1\n      swap2\n      sub\n      swap1\n      revert\n    tag_102:\n        /* \"contracts/task2/03 job3.sol\":984:985  0 */\n      0x00\n        /* \"contracts/task2/03 job3.sol\":972:981  msg.value */\n      callvalue\n        /* \"contracts/task2/03 job3.sol\":972:985  msg.value > 0 */\n      gt\n        /* \"contracts/task2/03 job3.sol\":964:1003  require(msg.value > 0, \"Must send ETH\") */\n      tag_106\n      jumpi\n      mload(0x40)\n      0x08c379a000000000000000000000000000000000000000000000000000000000\n      dup2\n      mstore\n      0x04\n      add\n      tag_107\n      swap1\n      tag_108\n      jump\t// in\n    tag_107:\n      mload(0x40)\n      dup1\n      swap2\n      sub\n      swap1\n      revert\n    tag_106:\n        /* \"contracts/task2/03 job3.sol\":1016:1027  uint amount */\n      0x00\n        /* \"contracts/task2/03 job3.sol\":1030:1039  msg.value */\n      callvalue\n        /* \"contracts/task2/03 job3.sol\":1016:1039  uint amount = msg.value */\n      swap1\n      pop\n        /* \"contracts/task2/03 job3.sol\":1078:1084  amount */\n      dup1\n        /* \"contracts/task2/03 job3.sol\":1050:1063  contributions */\n      0x01\n        /* \"contracts/task2/03 job3.sol\":1050:1075  contributions[msg.sender] */\n      0x00\n        /* \"contracts/task2/03 job3.sol\":1064:1074  msg.sender */\n      caller\n        /* \"contracts/task2/03 job3.sol\":1050:1075  contributions[msg.sender] */\n      0xffffffffffffffffffffffffffffffffffffffff\n      and\n      0xffffffffffffffffffffffffffffffffffffffff\n      and\n      dup2\n      mstore\n      0x20\n      add\n      swap1\n      dup2\n      mstore\n      0x20\n      add\n      0x00\n      keccak256\n        /* \"contracts/task2/03 job3.sol\":1050:1084  contributions[msg.sender] = amount */\n      dup2\n      swap1\n      sstore\n      pop\n        /* \"contracts/task2/03 job3.sol\":1095:1113  contributionsArray */\n      0x02\n        /* \"contracts/task2/03 job3.sol\":1119:1129  msg.sender */\n      caller\n        /* \"contracts/task2/03 job3.sol\":1095:1130  contributionsArray.push(msg.sender) */\n      swap1\n      dup1\n      0x01\n      dup2\n      sload\n      add\n      dup1\n      dup3\n      sstore\n      dup1\n      swap2\n      pop\n      pop\n      0x01\n      swap1\n      sub\n      swap1\n      0x00\n      mstore\n      keccak256(0x00, 0x20)\n      add\n      0x00\n      swap1\n      swap2\n      swap1\n      swap2\n      swap1\n      swap2\n      0x0100\n      exp\n      dup2\n      sload\n      dup2\n      0xffffffffffffffffffffffffffffffffffffffff\n      mul\n      not\n      and\n      swap1\n      dup4\n      0xffffffffffffffffffffffffffffffffffffffff\n      and\n      mul\n      or\n      swap1\n      sstore\n      pop\n        /* \"contracts/task2/03 job3.sol\":1158:1164  amount */\n      dup1\n        /* \"contracts/task2/03 job3.sol\":1143:1154  totalFunded */\n      0x03\n      0x00\n        /* \"contracts/task2/03 job3.sol\":1143:1164  totalFunded += amount */\n      dup3\n      dup3\n      sload\n      tag_110\n      swap2\n      swap1\n      tag_111\n      jump\t// in\n    tag_110:\n      swap3\n      pop\n      pop\n      dup2\n      swap1\n      sstore\n      pop\n        /* \"contracts/task2/03 job3.sol\":1186:1192  amount */\n      dup1\n        /* \"contracts/task2/03 job3.sol\":1175:1182  balance */\n      0x04\n      0x00\n        /* \"contracts/task2/03 job3.sol\":1175:1192  balance += amount */\n      dup3\n      dup3\n      sload\n      tag_112\n      swap2\n      swap1\n      tag_111\n      jump\t// in\n    tag_112:\n      swap3\n      pop\n      pop\n      dup2\n      swap1\n      sstore\n      pop\n        /* \"contracts/task2/03 job3.sol\":1229:1235  amount */\n      dup1\n        /* \"contracts/task2/03 job3.sol\":1217:1227  msg.sender */\n      caller\n        /* \"contracts/task2/03 job3.sol\":1210:1253  Donate(msg.sender, amount, block.timestamp) */\n      0xffffffffffffffffffffffffffffffffffffffff\n      and\n      0x49bb2edd8608e46c3b9823ec2dabe8ddf219c00870a4a112ff60a1a70669f457\n        /* \"contracts/task2/03 job3.sol\":1237:1252  block.timestamp */\n      timestamp\n        /* \"contracts/task2/03 job3.sol\":1210:1253  Donate(msg.sender, amount, block.timestamp) */\n      mload(0x40)\n      tag_113\n      swap2\n      swap1\n      tag_18\n      jump\t// in\n    tag_113:\n      mload(0x40)\n      dup1\n      swap2\n      sub\n      swap1\n      log3\n        /* \"contracts/task2/03 job3.sol\":1271:1275  true */\n      0x01\n        /* \"contracts/task2/03 job3.sol\":1264:1275  return true */\n      swap2\n      pop\n      pop\n        /* \"contracts/task2/03 job3.sol\":895:1283  function donate() NoExpire() public payable returns (bool){... */\n      swap1\n      jump\t// out\n        /* \"@openzeppelin/contracts/access/Ownable.sol\":2543:2758  function transferOwnership(address newOwner) public virtual onlyOwner {... */\n    tag_63:\n        /* \"@openzeppelin/contracts/access/Ownable.sol\":1531:1544  _checkOwner() */\n      tag_115\n        /* \"@openzeppelin/contracts/access/Ownable.sol\":1531:1542  _checkOwner */\n      tag_66\n        /* \"@openzeppelin/contracts/access/Ownable.sol\":1531:1544  _checkOwner() */\n      jump\t// in\n    tag_115:\n        /* \"@openzeppelin/contracts/access/Ownable.sol\":2647:2648  0 */\n      0x00\n        /* \"@openzeppelin/contracts/access/Ownable.sol\":2627:2649  newOwner == address(0) */\n      0xffffffffffffffffffffffffffffffffffffffff\n      and\n        /* \"@openzeppelin/contracts/access/Ownable.sol\":2627:2635  newOwner */\n      dup2\n        /* \"@openzeppelin/contracts/access/Ownable.sol\":2627:2649  newOwner == address(0) */\n      0xffffffffffffffffffffffffffffffffffffffff\n      and\n      sub\n        /* \"@openzeppelin/contracts/access/Ownable.sol\":2623:2714  if (newOwner == address(0)) {... */\n      tag_117\n      jumpi\n        /* \"@openzeppelin/contracts/access/Ownable.sol\":2700:2701  0 */\n      0x00\n        /* \"@openzeppelin/contracts/access/Ownable.sol\":2672:2703  OwnableInvalidOwner(address(0)) */\n      mload(0x40)\n      0x1e4fbdf700000000000000000000000000000000000000000000000000000000\n      dup2\n      mstore\n      0x04\n      add\n      tag_118\n      swap2\n      swap1\n      tag_48\n      jump\t// in\n    tag_118:\n      mload(0x40)\n      dup1\n      swap2\n      sub\n      swap1\n      revert\n        /* \"@openzeppelin/contracts/access/Ownable.sol\":2623:2714  if (newOwner == address(0)) {... */\n    tag_117:\n        /* \"@openzeppelin/contracts/access/Ownable.sol\":2723:2751  _transferOwnership(newOwner) */\n      tag_119\n        /* \"@openzeppelin/contracts/access/Ownable.sol\":2742:2750  newOwner */\n      dup2\n        /* \"@openzeppelin/contracts/access/Ownable.sol\":2723:2741  _transferOwnership */\n      tag_99\n        /* \"@openzeppelin/contracts/access/Ownable.sol\":2723:2751  _transferOwnership(newOwner) */\n      jump\t// in\n    tag_119:\n        /* \"@openzeppelin/contracts/access/Ownable.sol\":2543:2758  function transferOwnership(address newOwner) public virtual onlyOwner {... */\n      pop\n      jump\t// out\n        /* \"@openzeppelin/contracts/access/Ownable.sol\":1796:1958  function _checkOwner() internal view virtual {... */\n    tag_66:\n        /* \"@openzeppelin/contracts/access/Ownable.sol\":1866:1878  _msgSender() */\n      tag_121\n        /* \"@openzeppelin/contracts/access/Ownable.sol\":1866:1876  _msgSender */\n      tag_122\n        /* \"@openzeppelin/contracts/access/Ownable.sol\":1866:1878  _msgSender() */\n      jump\t// in\n    tag_121:\n        /* \"@openzeppelin/contracts/access/Ownable.sol\":1855:1878  owner() != _msgSender() */\n      0xffffffffffffffffffffffffffffffffffffffff\n      and\n        /* \"@openzeppelin/contracts/access/Ownable.sol\":1855:1862  owner() */\n      tag_123\n        /* \"@openzeppelin/contracts/access/Ownable.sol\":1855:1860  owner */\n      tag_46\n        /* \"@openzeppelin/contracts/access/Ownable.sol\":1855:1862  owner() */\n      jump\t// in\n    tag_123:\n        /* \"@openzeppelin/contracts/access/Ownable.sol\":1855:1878  owner() != _msgSender() */\n      0xffffffffffffffffffffffffffffffffffffffff\n      and\n      eq\n        /* \"@openzeppelin/contracts/access/Ownable.sol\":1851:1952  if (owner() != _msgSender()) {... */\n      tag_124\n      jumpi\n        /* \"@openzeppelin/contracts/access/Ownable.sol\":1928:1940  _msgSender() */\n      tag_125\n        /* \"@openzeppelin/contracts/access/Ownable.sol\":1928:1938  _msgSender */\n      tag_122\n        /* \"@openzeppelin/contracts/access/Ownable.sol\":1928:1940  _msgSender() */\n      jump\t// in\n    tag_125:\n        /* \"@openzeppelin/contracts/access/Ownable.sol\":1901:1941  OwnableUnauthorizedAccount(_msgSender()) */\n      mload(0x40)\n      0x118cdaa700000000000000000000000000000000000000000000000000000000\n      dup2\n      mstore\n      0x04\n      add\n      tag_126\n      swap2\n      swap1\n      tag_48\n      jump\t// in\n    tag_126:\n      mload(0x40)\n      dup1\n      swap2\n      sub\n      swap1\n      revert\n        /* \"@openzeppelin/contracts/access/Ownable.sol\":1851:1952  if (owner() != _msgSender()) {... */\n    tag_124:\n        /* \"@openzeppelin/contracts/access/Ownable.sol\":1796:1958  function _checkOwner() internal view virtual {... */\n      jump\t// out\n        /* \"@openzeppelin/contracts/access/Ownable.sol\":2912:3099  function _transferOwnership(address newOwner) internal virtual {... */\n    tag_99:\n        /* \"@openzeppelin/contracts/access/Ownable.sol\":2985:3001  address oldOwner */\n      0x00\n        /* \"@openzeppelin/contracts/access/Ownable.sol\":3004:3010  _owner */\n      0x00\n      0x00\n      swap1\n      sload\n      swap1\n      0x0100\n      exp\n      swap1\n      div\n      0xffffffffffffffffffffffffffffffffffffffff\n      and\n        /* \"@openzeppelin/contracts/access/Ownable.sol\":2985:3010  address oldOwner = _owner */\n      swap1\n      pop\n        /* \"@openzeppelin/contracts/access/Ownable.sol\":3029:3037  newOwner */\n      dup2\n        /* \"@openzeppelin/contracts/access/Ownable.sol\":3020:3026  _owner */\n      0x00\n      0x00\n        /* \"@openzeppelin/contracts/access/Ownable.sol\":3020:3037  _owner = newOwner */\n      0x0100\n      exp\n      dup2\n      sload\n      dup2\n      0xffffffffffffffffffffffffffffffffffffffff\n      mul\n      not\n      and\n      swap1\n      dup4\n      0xffffffffffffffffffffffffffffffffffffffff\n      and\n      mul\n      or\n      swap1\n      sstore\n      pop\n        /* \"@openzeppelin/contracts/access/Ownable.sol\":3083:3091  newOwner */\n      dup2\n        /* \"@openzeppelin/contracts/access/Ownable.sol\":3052:3092  OwnershipTransferred(oldOwner, newOwner) */\n      0xffffffffffffffffffffffffffffffffffffffff\n      and\n        /* \"@openzeppelin/contracts/access/Ownable.sol\":3073:3081  oldOwner */\n      dup2\n        /* \"@openzeppelin/contracts/access/Ownable.sol\":3052:3092  OwnershipTransferred(oldOwner, newOwner) */\n      0xffffffffffffffffffffffffffffffffffffffff\n      and\n      0x8be0079c531659141344cd1fd0a4f28419497f9722a3daafe3b4186f6b6457e0\n      mload(0x40)\n      mload(0x40)\n      dup1\n      swap2\n      sub\n      swap1\n      log3\n        /* \"@openzeppelin/contracts/access/Ownable.sol\":2975:3099  {... */\n      pop\n        /* \"@openzeppelin/contracts/access/Ownable.sol\":2912:3099  function _transferOwnership(address newOwner) internal virtual {... */\n      pop\n      jump\t// out\n        /* \"@openzeppelin/contracts/utils/Context.sol\":656:752  function _msgSender() internal view virtual returns (address) {... */\n    tag_122:\n        /* \"@openzeppelin/contracts/utils/Context.sol\":709:716  address */\n      0x00\n        /* \"@openzeppelin/contracts/utils/Context.sol\":735:745  msg.sender */\n      caller\n        /* \"@openzeppelin/contracts/utils/Context.sol\":728:745  return msg.sender */\n      swap1\n      pop\n        /* \"@openzeppelin/contracts/utils/Context.sol\":656:752  function _msgSender() internal view virtual returns (address) {... */\n      swap1\n      jump\t// out\n        /* \"#utility.yul\":7:84   */\n    tag_129:\n        /* \"#utility.yul\":44:51   */\n      0x00\n        /* \"#utility.yul\":73:78   */\n      dup2\n        /* \"#utility.yul\":62:78   */\n      swap1\n      pop\n        /* \"#utility.yul\":7:84   */\n      swap2\n      swap1\n      pop\n      jump\t// out\n        /* \"#utility.yul\":90:208   */\n    tag_130:\n        /* \"#utility.yul\":177:201   */\n      tag_156\n        /* \"#utility.yul\":195:200   */\n      dup2\n        /* \"#utility.yul\":177:201   */\n      tag_129\n      jump\t// in\n    tag_156:\n        /* \"#utility.yul\":172:175   */\n      dup3\n        /* \"#utility.yul\":165:202   */\n      mstore\n        /* \"#utility.yul\":90:208   */\n      pop\n      pop\n      jump\t// out\n        /* \"#utility.yul\":214:436   */\n    tag_18:\n        /* \"#utility.yul\":307:311   */\n      0x00\n        /* \"#utility.yul\":345:347   */\n      0x20\n        /* \"#utility.yul\":334:343   */\n      dup3\n        /* \"#utility.yul\":330:348   */\n      add\n        /* \"#utility.yul\":322:348   */\n      swap1\n      pop\n        /* \"#utility.yul\":358:429   */\n      tag_158\n        /* \"#utility.yul\":426:427   */\n      0x00\n        /* \"#utility.yul\":415:424   */\n      dup4\n        /* \"#utility.yul\":411:428   */\n      add\n        /* \"#utility.yul\":402:408   */\n      dup5\n        /* \"#utility.yul\":358:429   */\n      tag_130\n      jump\t// in\n    tag_158:\n        /* \"#utility.yul\":214:436   */\n      swap3\n      swap2\n      pop\n      pop\n      jump\t// out\n        /* \"#utility.yul\":523:640   */\n    tag_132:\n        /* \"#utility.yul\":632:633   */\n      0x00\n        /* \"#utility.yul\":629:630   */\n      0x00\n        /* \"#utility.yul\":622:634   */\n      revert\n        /* \"#utility.yul\":769:891   */\n    tag_134:\n        /* \"#utility.yul\":842:866   */\n      tag_163\n        /* \"#utility.yul\":860:865   */\n      dup2\n        /* \"#utility.yul\":842:866   */\n      tag_129\n      jump\t// in\n    tag_163:\n        /* \"#utility.yul\":835:840   */\n      dup2\n        /* \"#utility.yul\":832:867   */\n      eq\n        /* \"#utility.yul\":822:885   */\n      tag_164\n      jumpi\n        /* \"#utility.yul\":881:882   */\n      0x00\n        /* \"#utility.yul\":878:879   */\n      0x00\n        /* \"#utility.yul\":871:883   */\n      revert\n        /* \"#utility.yul\":822:885   */\n    tag_164:\n        /* \"#utility.yul\":769:891   */\n      pop\n      jump\t// out\n        /* \"#utility.yul\":897:1036   */\n    tag_135:\n        /* \"#utility.yul\":943:948   */\n      0x00\n        /* \"#utility.yul\":981:987   */\n      dup2\n        /* \"#utility.yul\":968:988   */\n      calldataload\n        /* \"#utility.yul\":959:988   */\n      swap1\n      pop\n        /* \"#utility.yul\":997:1030   */\n      tag_166\n        /* \"#utility.yul\":1024:1029   */\n      dup2\n        /* \"#utility.yul\":997:1030   */\n      tag_134\n      jump\t// in\n    tag_166:\n        /* \"#utility.yul\":897:1036   */\n      swap3\n      swap2\n      pop\n      pop\n      jump\t// out\n        /* \"#utility.yul\":1042:1371   */\n    tag_21:\n        /* \"#utility.yul\":1101:1107   */\n      0x00\n        /* \"#utility.yul\":1150:1152   */\n      0x20\n        /* \"#utility.yul\":1138:1147   */\n      dup3\n        /* \"#utility.yul\":1129:1136   */\n      dup5\n        /* \"#utility.yul\":1125:1148   */\n      sub\n        /* \"#utility.yul\":1121:1153   */\n      slt\n        /* \"#utility.yul\":1118:1237   */\n      iszero\n      tag_168\n      jumpi\n        /* \"#utility.yul\":1156:1235   */\n      tag_169\n      tag_132\n      jump\t// in\n    tag_169:\n        /* \"#utility.yul\":1118:1237   */\n    tag_168:\n        /* \"#utility.yul\":1276:1277   */\n      0x00\n        /* \"#utility.yul\":1301:1354   */\n      tag_170\n        /* \"#utility.yul\":1346:1353   */\n      dup5\n        /* \"#utility.yul\":1337:1343   */\n      dup3\n        /* \"#utility.yul\":1326:1335   */\n      dup6\n        /* \"#utility.yul\":1322:1344   */\n      add\n        /* \"#utility.yul\":1301:1354   */\n      tag_135\n      jump\t// in\n    tag_170:\n        /* \"#utility.yul\":1291:1354   */\n      swap2\n      pop\n        /* \"#utility.yul\":1247:1364   */\n      pop\n        /* \"#utility.yul\":1042:1371   */\n      swap3\n      swap2\n      pop\n      pop\n      jump\t// out\n        /* \"#utility.yul\":1377:1467   */\n    tag_136:\n        /* \"#utility.yul\":1411:1418   */\n      0x00\n        /* \"#utility.yul\":1454:1459   */\n      dup2\n        /* \"#utility.yul\":1447:1460   */\n      iszero\n        /* \"#utility.yul\":1440:1461   */\n      iszero\n        /* \"#utility.yul\":1429:1461   */\n      swap1\n      pop\n        /* \"#utility.yul\":1377:1467   */\n      swap2\n      swap1\n      pop\n      jump\t// out\n        /* \"#utility.yul\":1473:1582   */\n    tag_137:\n        /* \"#utility.yul\":1554:1575   */\n      tag_173\n        /* \"#utility.yul\":1569:1574   */\n      dup2\n        /* \"#utility.yul\":1554:1575   */\n      tag_136\n      jump\t// in\n    tag_173:\n        /* \"#utility.yul\":1549:1552   */\n      dup3\n        /* \"#utility.yul\":1542:1576   */\n      mstore\n        /* \"#utility.yul\":1473:1582   */\n      pop\n      pop\n      jump\t// out\n        /* \"#utility.yul\":1588:1798   */\n    tag_24:\n        /* \"#utility.yul\":1675:1679   */\n      0x00\n        /* \"#utility.yul\":1713:1715   */\n      0x20\n        /* \"#utility.yul\":1702:1711   */\n      dup3\n        /* \"#utility.yul\":1698:1716   */\n      add\n        /* \"#utility.yul\":1690:1716   */\n      swap1\n      pop\n        /* \"#utility.yul\":1726:1791   */\n      tag_175\n        /* \"#utility.yul\":1788:1789   */\n      0x00\n        /* \"#utility.yul\":1777:1786   */\n      dup4\n        /* \"#utility.yul\":1773:1790   */\n      add\n        /* \"#utility.yul\":1764:1770   */\n      dup5\n        /* \"#utility.yul\":1726:1791   */\n      tag_137\n      jump\t// in\n    tag_175:\n        /* \"#utility.yul\":1588:1798   */\n      swap3\n      swap2\n      pop\n      pop\n      jump\t// out\n        /* \"#utility.yul\":1804:1930   */\n    tag_138:\n        /* \"#utility.yul\":1841:1848   */\n      0x00\n        /* \"#utility.yul\":1881:1923   */\n      0xffffffffffffffffffffffffffffffffffffffff\n        /* \"#utility.yul\":1874:1879   */\n      dup3\n        /* \"#utility.yul\":1870:1924   */\n      and\n        /* \"#utility.yul\":1859:1924   */\n      swap1\n      pop\n        /* \"#utility.yul\":1804:1930   */\n      swap2\n      swap1\n      pop\n      jump\t// out\n        /* \"#utility.yul\":1936:2032   */\n    tag_139:\n        /* \"#utility.yul\":1973:1980   */\n      0x00\n        /* \"#utility.yul\":2002:2026   */\n      tag_178\n        /* \"#utility.yul\":2020:2025   */\n      dup3\n        /* \"#utility.yul\":2002:2026   */\n      tag_138\n      jump\t// in\n    tag_178:\n        /* \"#utility.yul\":1991:2026   */\n      swap1\n      pop\n        /* \"#utility.yul\":1936:2032   */\n      swap2\n      swap1\n      pop\n      jump\t// out\n        /* \"#utility.yul\":2038:2156   */\n    tag_140:\n        /* \"#utility.yul\":2125:2149   */\n      tag_180\n        /* \"#utility.yul\":2143:2148   */\n      dup2\n        /* \"#utility.yul\":2125:2149   */\n      tag_139\n      jump\t// in\n    tag_180:\n        /* \"#utility.yul\":2120:2123   */\n      dup3\n        /* \"#utility.yul\":2113:2150   */\n      mstore\n        /* \"#utility.yul\":2038:2156   */\n      pop\n      pop\n      jump\t// out\n        /* \"#utility.yul\":2162:2604   */\n    tag_29:\n        /* \"#utility.yul\":2311:2315   */\n      0x00\n        /* \"#utility.yul\":2349:2351   */\n      0x60\n        /* \"#utility.yul\":2338:2347   */\n      dup3\n        /* \"#utility.yul\":2334:2352   */\n      add\n        /* \"#utility.yul\":2326:2352   */\n      swap1\n      pop\n        /* \"#utility.yul\":2362:2433   */\n      tag_182\n        /* \"#utility.yul\":2430:2431   */\n      0x00\n        /* \"#utility.yul\":2419:2428   */\n      dup4\n        /* \"#utility.yul\":2415:2432   */\n      add\n        /* \"#utility.yul\":2406:2412   */\n      dup7\n        /* \"#utility.yul\":2362:2433   */\n      tag_140\n      jump\t// in\n    tag_182:\n        /* \"#utility.yul\":2443:2515   */\n      tag_183\n        /* \"#utility.yul\":2511:2513   */\n      0x20\n        /* \"#utility.yul\":2500:2509   */\n      dup4\n        /* \"#utility.yul\":2496:2514   */\n      add\n        /* \"#utility.yul\":2487:2493   */\n      dup6\n        /* \"#utility.yul\":2443:2515   */\n      tag_140\n      jump\t// in\n    tag_183:\n        /* \"#utility.yul\":2525:2597   */\n      tag_184\n        /* \"#utility.yul\":2593:2595   */\n      0x40\n        /* \"#utility.yul\":2582:2591   */\n      dup4\n        /* \"#utility.yul\":2578:2596   */\n      add\n        /* \"#utility.yul\":2569:2575   */\n      dup5\n        /* \"#utility.yul\":2525:2597   */\n      tag_140\n      jump\t// in\n    tag_184:\n        /* \"#utility.yul\":2162:2604   */\n      swap5\n      swap4\n      pop\n      pop\n      pop\n      pop\n      jump\t// out\n        /* \"#utility.yul\":2610:2732   */\n    tag_141:\n        /* \"#utility.yul\":2683:2707   */\n      tag_186\n        /* \"#utility.yul\":2701:2706   */\n      dup2\n        /* \"#utility.yul\":2683:2707   */\n      tag_139\n      jump\t// in\n    tag_186:\n        /* \"#utility.yul\":2676:2681   */\n      dup2\n        /* \"#utility.yul\":2673:2708   */\n      eq\n        /* \"#utility.yul\":2663:2726   */\n      tag_187\n      jumpi\n        /* \"#utility.yul\":2722:2723   */\n      0x00\n        /* \"#utility.yul\":2719:2720   */\n      0x00\n        /* \"#utility.yul\":2712:2724   */\n      revert\n        /* \"#utility.yul\":2663:2726   */\n    tag_187:\n        /* \"#utility.yul\":2610:2732   */\n      pop\n      jump\t// out\n        /* \"#utility.yul\":2738:2877   */\n    tag_142:\n        /* \"#utility.yul\":2784:2789   */\n      0x00\n        /* \"#utility.yul\":2822:2828   */\n      dup2\n        /* \"#utility.yul\":2809:2829   */\n      calldataload\n        /* \"#utility.yul\":2800:2829   */\n      swap1\n      pop\n        /* \"#utility.yul\":2838:2871   */\n      tag_189\n        /* \"#utility.yul\":2865:2870   */\n      dup2\n        /* \"#utility.yul\":2838:2871   */\n      tag_141\n      jump\t// in\n    tag_189:\n        /* \"#utility.yul\":2738:2877   */\n      swap3\n      swap2\n      pop\n      pop\n      jump\t// out\n        /* \"#utility.yul\":2883:3212   */\n    tag_33:\n        /* \"#utility.yul\":2942:2948   */\n      0x00\n        /* \"#utility.yul\":2991:2993   */\n      0x20\n        /* \"#utility.yul\":2979:2988   */\n      dup3\n        /* \"#utility.yul\":2970:2977   */\n      dup5\n        /* \"#utility.yul\":2966:2989   */\n      sub\n        /* \"#utility.yul\":2962:2994   */\n      slt\n        /* \"#utility.yul\":2959:3078   */\n      iszero\n      tag_191\n      jumpi\n        /* \"#utility.yul\":2997:3076   */\n      tag_192\n      tag_132\n      jump\t// in\n    tag_192:\n        /* \"#utility.yul\":2959:3078   */\n    tag_191:\n        /* \"#utility.yul\":3117:3118   */\n      0x00\n        /* \"#utility.yul\":3142:3195   */\n      tag_193\n        /* \"#utility.yul\":3187:3194   */\n      dup5\n        /* \"#utility.yul\":3178:3184   */\n      dup3\n        /* \"#utility.yul\":3167:3176   */\n      dup6\n        /* \"#utility.yul\":3163:3185   */\n      add\n        /* \"#utility.yul\":3142:3195   */\n      tag_142\n      jump\t// in\n    tag_193:\n        /* \"#utility.yul\":3132:3195   */\n      swap2\n      pop\n        /* \"#utility.yul\":3088:3205   */\n      pop\n        /* \"#utility.yul\":2883:3212   */\n      swap3\n      swap2\n      pop\n      pop\n      jump\t// out\n        /* \"#utility.yul\":3218:3440   */\n    tag_48:\n        /* \"#utility.yul\":3311:3315   */\n      0x00\n        /* \"#utility.yul\":3349:3351   */\n      0x20\n        /* \"#utility.yul\":3338:3347   */\n      dup3\n        /* \"#utility.yul\":3334:3352   */\n      add\n        /* \"#utility.yul\":3326:3352   */\n      swap1\n      pop\n        /* \"#utility.yul\":3362:3433   */\n      tag_195\n        /* \"#utility.yul\":3430:3431   */\n      0x00\n        /* \"#utility.yul\":3419:3428   */\n      dup4\n        /* \"#utility.yul\":3415:3432   */\n      add\n        /* \"#utility.yul\":3406:3412   */\n      dup5\n        /* \"#utility.yul\":3362:3433   */\n      tag_140\n      jump\t// in\n    tag_195:\n        /* \"#utility.yul\":3218:3440   */\n      swap3\n      swap2\n      pop\n      pop\n      jump\t// out\n        /* \"#utility.yul\":3446:3615   */\n    tag_143:\n        /* \"#utility.yul\":3530:3541   */\n      0x00\n        /* \"#utility.yul\":3564:3570   */\n      dup3\n        /* \"#utility.yul\":3559:3562   */\n      dup3\n        /* \"#utility.yul\":3552:3571   */\n      mstore\n        /* \"#utility.yul\":3604:3608   */\n      0x20\n        /* \"#utility.yul\":3599:3602   */\n      dup3\n        /* \"#utility.yul\":3595:3609   */\n      add\n        /* \"#utility.yul\":3580:3609   */\n      swap1\n      pop\n        /* \"#utility.yul\":3446:3615   */\n      swap3\n      swap2\n      pop\n      pop\n      jump\t// out\n        /* \"#utility.yul\":3621:3791   */\n    tag_144:\n        /* \"#utility.yul\":3761:3783   */\n      0x496e73756666696369656e742062616c616e6365000000000000000000000000\n        /* \"#utility.yul\":3757:3758   */\n      0x00\n        /* \"#utility.yul\":3749:3755   */\n      dup3\n        /* \"#utility.yul\":3745:3759   */\n      add\n        /* \"#utility.yul\":3738:3784   */\n      mstore\n        /* \"#utility.yul\":3621:3791   */\n      pop\n      jump\t// out\n        /* \"#utility.yul\":3797:4163   */\n    tag_145:\n        /* \"#utility.yul\":3939:3942   */\n      0x00\n        /* \"#utility.yul\":3960:4027   */\n      tag_199\n        /* \"#utility.yul\":4024:4026   */\n      0x14\n        /* \"#utility.yul\":4019:4022   */\n      dup4\n        /* \"#utility.yul\":3960:4027   */\n      tag_143\n      jump\t// in\n    tag_199:\n        /* \"#utility.yul\":3953:4027   */\n      swap2\n      pop\n        /* \"#utility.yul\":4036:4129   */\n      tag_200\n        /* \"#utility.yul\":4125:4128   */\n      dup3\n        /* \"#utility.yul\":4036:4129   */\n      tag_144\n      jump\t// in\n    tag_200:\n        /* \"#utility.yul\":4154:4156   */\n      0x20\n        /* \"#utility.yul\":4149:4152   */\n      dup3\n        /* \"#utility.yul\":4145:4157   */\n      add\n        /* \"#utility.yul\":4138:4157   */\n      swap1\n      pop\n        /* \"#utility.yul\":3797:4163   */\n      swap2\n      swap1\n      pop\n      jump\t// out\n        /* \"#utility.yul\":4169:4588   */\n    tag_70:\n        /* \"#utility.yul\":4335:4339   */\n      0x00\n        /* \"#utility.yul\":4373:4375   */\n      0x20\n        /* \"#utility.yul\":4362:4371   */\n      dup3\n        /* \"#utility.yul\":4358:4376   */\n      add\n        /* \"#utility.yul\":4350:4376   */\n      swap1\n      pop\n        /* \"#utility.yul\":4422:4431   */\n      dup2\n        /* \"#utility.yul\":4416:4420   */\n      dup2\n        /* \"#utility.yul\":4412:4432   */\n      sub\n        /* \"#utility.yul\":4408:4409   */\n      0x00\n        /* \"#utility.yul\":4397:4406   */\n      dup4\n        /* \"#utility.yul\":4393:4410   */\n      add\n        /* \"#utility.yul\":4386:4433   */\n      mstore\n        /* \"#utility.yul\":4450:4581   */\n      tag_202\n        /* \"#utility.yul\":4576:4580   */\n      dup2\n        /* \"#utility.yul\":4450:4581   */\n      tag_145\n      jump\t// in\n    tag_202:\n        /* \"#utility.yul\":4442:4581   */\n      swap1\n      pop\n        /* \"#utility.yul\":4169:4588   */\n      swap2\n      swap1\n      pop\n      jump\t// out\n        /* \"#utility.yul\":4594:4774   */\n    tag_146:\n        /* \"#utility.yul\":4642:4719   */\n      0x4e487b7100000000000000000000000000000000000000000000000000000000\n        /* \"#utility.yul\":4639:4640   */\n      0x00\n        /* \"#utility.yul\":4632:4720   */\n      mstore\n        /* \"#utility.yul\":4739:4743   */\n      0x11\n        /* \"#utility.yul\":4736:4737   */\n      0x04\n        /* \"#utility.yul\":4729:4744   */\n      mstore\n        /* \"#utility.yul\":4763:4767   */\n      0x24\n        /* \"#utility.yul\":4760:4761   */\n      0x00\n        /* \"#utility.yul\":4753:4768   */\n      revert\n        /* \"#utility.yul\":4780:4974   */\n    tag_72:\n        /* \"#utility.yul\":4820:4824   */\n      0x00\n        /* \"#utility.yul\":4840:4860   */\n      tag_205\n        /* \"#utility.yul\":4858:4859   */\n      dup3\n        /* \"#utility.yul\":4840:4860   */\n      tag_129\n      jump\t// in\n    tag_205:\n        /* \"#utility.yul\":4835:4860   */\n      swap2\n      pop\n        /* \"#utility.yul\":4874:4894   */\n      tag_206\n        /* \"#utility.yul\":4892:4893   */\n      dup4\n        /* \"#utility.yul\":4874:4894   */\n      tag_129\n      jump\t// in\n    tag_206:\n        /* \"#utility.yul\":4869:4894   */\n      swap3\n      pop\n        /* \"#utility.yul\":4918:4919   */\n      dup3\n        /* \"#utility.yul\":4915:4916   */\n      dup3\n        /* \"#utility.yul\":4911:4920   */\n      sub\n        /* \"#utility.yul\":4903:4920   */\n      swap1\n      pop\n        /* \"#utility.yul\":4942:4943   */\n      dup2\n        /* \"#utility.yul\":4936:4940   */\n      dup2\n        /* \"#utility.yul\":4933:4944   */\n      gt\n        /* \"#utility.yul\":4930:4967   */\n      iszero\n      tag_207\n      jumpi\n        /* \"#utility.yul\":4947:4965   */\n      tag_208\n      tag_146\n      jump\t// in\n    tag_208:\n        /* \"#utility.yul\":4930:4967   */\n    tag_207:\n        /* \"#utility.yul\":4780:4974   */\n      swap3\n      swap2\n      pop\n      pop\n      jump\t// out\n        /* \"#utility.yul\":4980:5140   */\n    tag_147:\n        /* \"#utility.yul\":5120:5132   */\n      0x6e6f20646f6e61746f7200000000000000000000000000000000000000000000\n        /* \"#utility.yul\":5116:5117   */\n      0x00\n        /* \"#utility.yul\":5108:5114   */\n      dup3\n        /* \"#utility.yul\":5104:5118   */\n      add\n        /* \"#utility.yul\":5097:5133   */\n      mstore\n        /* \"#utility.yul\":4980:5140   */\n      pop\n      jump\t// out\n        /* \"#utility.yul\":5146:5512   */\n    tag_148:\n        /* \"#utility.yul\":5288:5291   */\n      0x00\n        /* \"#utility.yul\":5309:5376   */\n      tag_211\n        /* \"#utility.yul\":5373:5375   */\n      0x0a\n        /* \"#utility.yul\":5368:5371   */\n      dup4\n        /* \"#utility.yul\":5309:5376   */\n      tag_143\n      jump\t// in\n    tag_211:\n        /* \"#utility.yul\":5302:5376   */\n      swap2\n      pop\n        /* \"#utility.yul\":5385:5478   */\n      tag_212\n        /* \"#utility.yul\":5474:5477   */\n      dup3\n        /* \"#utility.yul\":5385:5478   */\n      tag_147\n      jump\t// in\n    tag_212:\n        /* \"#utility.yul\":5503:5505   */\n      0x20\n        /* \"#utility.yul\":5498:5501   */\n      dup3\n        /* \"#utility.yul\":5494:5506   */\n      add\n        /* \"#utility.yul\":5487:5506   */\n      swap1\n      pop\n        /* \"#utility.yul\":5146:5512   */\n      swap2\n      swap1\n      pop\n      jump\t// out\n        /* \"#utility.yul\":5518:5937   */\n    tag_79:\n        /* \"#utility.yul\":5684:5688   */\n      0x00\n        /* \"#utility.yul\":5722:5724   */\n      0x20\n        /* \"#utility.yul\":5711:5720   */\n      dup3\n        /* \"#utility.yul\":5707:5725   */\n      add\n        /* \"#utility.yul\":5699:5725   */\n      swap1\n      pop\n        /* \"#utility.yul\":5771:5780   */\n      dup2\n        /* \"#utility.yul\":5765:5769   */\n      dup2\n        /* \"#utility.yul\":5761:5781   */\n      sub\n        /* \"#utility.yul\":5757:5758   */\n      0x00\n        /* \"#utility.yul\":5746:5755   */\n      dup4\n        /* \"#utility.yul\":5742:5759   */\n      add\n        /* \"#utility.yul\":5735:5782   */\n      mstore\n        /* \"#utility.yul\":5799:5930   */\n      tag_214\n        /* \"#utility.yul\":5925:5929   */\n      dup2\n        /* \"#utility.yul\":5799:5930   */\n      tag_148\n      jump\t// in\n    tag_214:\n        /* \"#utility.yul\":5791:5930   */\n      swap1\n      pop\n        /* \"#utility.yul\":5518:5937   */\n      swap2\n      swap1\n      pop\n      jump\t// out\n        /* \"#utility.yul\":5943:6123   */\n    tag_85:\n        /* \"#utility.yul\":5991:6068   */\n      0x4e487b7100000000000000000000000000000000000000000000000000000000\n        /* \"#utility.yul\":5988:5989   */\n      0x00\n        /* \"#utility.yul\":5981:6069   */\n      mstore\n        /* \"#utility.yul\":6088:6092   */\n      0x32\n        /* \"#utility.yul\":6085:6086   */\n      0x04\n        /* \"#utility.yul\":6078:6093   */\n      mstore\n        /* \"#utility.yul\":6112:6116   */\n      0x24\n        /* \"#utility.yul\":6109:6110   */\n      0x00\n        /* \"#utility.yul\":6102:6117   */\n      revert\n        /* \"#utility.yul\":6129:6290   */\n    tag_149:\n        /* \"#utility.yul\":6269:6282   */\n      0x4f7574206f662074696d65000000000000000000000000000000000000000000\n        /* \"#utility.yul\":6265:6266   */\n      0x00\n        /* \"#utility.yul\":6257:6263   */\n      dup3\n        /* \"#utility.yul\":6253:6267   */\n      add\n        /* \"#utility.yul\":6246:6283   */\n      mstore\n        /* \"#utility.yul\":6129:6290   */\n      pop\n      jump\t// out\n        /* \"#utility.yul\":6296:6662   */\n    tag_150:\n        /* \"#utility.yul\":6438:6441   */\n      0x00\n        /* \"#utility.yul\":6459:6526   */\n      tag_218\n        /* \"#utility.yul\":6523:6525   */\n      0x0b\n        /* \"#utility.yul\":6518:6521   */\n      dup4\n        /* \"#utility.yul\":6459:6526   */\n      tag_143\n      jump\t// in\n    tag_218:\n        /* \"#utility.yul\":6452:6526   */\n      swap2\n      pop\n        /* \"#utility.yul\":6535:6628   */\n      tag_219\n        /* \"#utility.yul\":6624:6627   */\n      dup3\n        /* \"#utility.yul\":6535:6628   */\n      tag_149\n      jump\t// in\n    tag_219:\n        /* \"#utility.yul\":6653:6655   */\n      0x20\n        /* \"#utility.yul\":6648:6651   */\n      dup3\n        /* \"#utility.yul\":6644:6656   */\n      add\n        /* \"#utility.yul\":6637:6656   */\n      swap1\n      pop\n        /* \"#utility.yul\":6296:6662   */\n      swap2\n      swap1\n      pop\n      jump\t// out\n        /* \"#utility.yul\":6668:7087   */\n    tag_104:\n        /* \"#utility.yul\":6834:6838   */\n      0x00\n        /* \"#utility.yul\":6872:6874   */\n      0x20\n        /* \"#utility.yul\":6861:6870   */\n      dup3\n        /* \"#utility.yul\":6857:6875   */\n      add\n        /* \"#utility.yul\":6849:6875   */\n      swap1\n      pop\n        /* \"#utility.yul\":6921:6930   */\n      dup2\n        /* \"#utility.yul\":6915:6919   */\n      dup2\n        /* \"#utility.yul\":6911:6931   */\n      sub\n        /* \"#utility.yul\":6907:6908   */\n      0x00\n        /* \"#utility.yul\":6896:6905   */\n      dup4\n        /* \"#utility.yul\":6892:6909   */\n      add\n        /* \"#utility.yul\":6885:6932   */\n      mstore\n        /* \"#utility.yul\":6949:7080   */\n      tag_221\n        /* \"#utility.yul\":7075:7079   */\n      dup2\n        /* \"#utility.yul\":6949:7080   */\n      tag_150\n      jump\t// in\n    tag_221:\n        /* \"#utility.yul\":6941:7080   */\n      swap1\n      pop\n        /* \"#utility.yul\":6668:7087   */\n      swap2\n      swap1\n      pop\n      jump\t// out\n        /* \"#utility.yul\":7093:7256   */\n    tag_151:\n        /* \"#utility.yul\":7233:7248   */\n      0x4d7573742073656e642045544800000000000000000000000000000000000000\n        /* \"#utility.yul\":7229:7230   */\n      0x00\n        /* \"#utility.yul\":7221:7227   */\n      dup3\n        /* \"#utility.yul\":7217:7231   */\n      add\n        /* \"#utility.yul\":7210:7249   */\n      mstore\n        /* \"#utility.yul\":7093:7256   */\n      pop\n      jump\t// out\n        /* \"#utility.yul\":7262:7628   */\n    tag_152:\n        /* \"#utility.yul\":7404:7407   */\n      0x00\n        /* \"#utility.yul\":7425:7492   */\n      tag_224\n        /* \"#utility.yul\":7489:7491   */\n      0x0d\n        /* \"#utility.yul\":7484:7487   */\n      dup4\n        /* \"#utility.yul\":7425:7492   */\n      tag_143\n      jump\t// in\n    tag_224:\n        /* \"#utility.yul\":7418:7492   */\n      swap2\n      pop\n        /* \"#utility.yul\":7501:7594   */\n      tag_225\n        /* \"#utility.yul\":7590:7593   */\n      dup3\n        /* \"#utility.yul\":7501:7594   */\n      tag_151\n      jump\t// in\n    tag_225:\n        /* \"#utility.yul\":7619:7621   */\n      0x20\n        /* \"#utility.yul\":7614:7617   */\n      dup3\n        /* \"#utility.yul\":7610:7622   */\n      add\n        /* \"#utility.yul\":7603:7622   */\n      swap1\n      pop\n        /* \"#utility.yul\":7262:7628   */\n      swap2\n      swap1\n      pop\n      jump\t// out\n        /* \"#utility.yul\":7634:8053   */\n    tag_108:\n        /* \"#utility.yul\":7800:7804   */\n      0x00\n        /* \"#utility.yul\":7838:7840   */\n      0x20\n        /* \"#utility.yul\":7827:7836   */\n      dup3\n        /* \"#utility.yul\":7823:7841   */\n      add\n        /* \"#utility.yul\":7815:7841   */\n      swap1\n      pop\n        /* \"#utility.yul\":7887:7896   */\n      dup2\n        /* \"#utility.yul\":7881:7885   */\n      dup2\n        /* \"#utility.yul\":7877:7897   */\n      sub\n        /* \"#utility.yul\":7873:7874   */\n      0x00\n        /* \"#utility.yul\":7862:7871   */\n      dup4\n        /* \"#utility.yul\":7858:7875   */\n      add\n        /* \"#utility.yul\":7851:7898   */\n      mstore\n        /* \"#utility.yul\":7915:8046   */\n      tag_227\n        /* \"#utility.yul\":8041:8045   */\n      dup2\n        /* \"#utility.yul\":7915:8046   */\n      tag_152\n      jump\t// in\n    tag_227:\n        /* \"#utility.yul\":7907:8046   */\n      swap1\n      pop\n        /* \"#utility.yul\":7634:8053   */\n      swap2\n      swap1\n      pop\n      jump\t// out\n        /* \"#utility.yul\":8059:8250   */\n    tag_111:\n        /* \"#utility.yul\":8099:8102   */\n      0x00\n        /* \"#utility.yul\":8118:8138   */\n      tag_229\n        /* \"#utility.yul\":8136:8137   */\n      dup3\n        /* \"#utility.yul\":8118:8138   */\n      tag_129\n      jump\t// in\n    tag_229:\n        /* \"#utility.yul\":8113:8138   */\n      swap2\n      pop\n        /* \"#utility.yul\":8152:8172   */\n      tag_230\n        /* \"#utility.yul\":8170:8171   */\n      dup4\n        /* \"#utility.yul\":8152:8172   */\n      tag_129\n      jump\t// in\n    tag_230:\n        /* \"#utility.yul\":8147:8172   */\n      swap3\n      pop\n        /* \"#utility.yul\":8195:8196   */\n      dup3\n        /* \"#utility.yul\":8192:8193   */\n      dup3\n        /* \"#utility.yul\":8188:8197   */\n      add\n        /* \"#utility.yul\":8181:8197   */\n      swap1\n      pop\n        /* \"#utility.yul\":8216:8219   */\n      dup1\n        /* \"#utility.yul\":8213:8214   */\n      dup3\n        /* \"#utility.yul\":8210:8220   */\n      gt\n        /* \"#utility.yul\":8207:8243   */\n      iszero\n      tag_231\n      jumpi\n        /* \"#utility.yul\":8223:8241   */\n      tag_232\n      tag_146\n      jump\t// in\n    tag_232:\n        /* \"#utility.yul\":8207:8243   */\n    tag_231:\n        /* \"#utility.yul\":8059:8250   */\n      swap3\n      swap2\n      pop\n      pop\n      jump\t// out\n\n    auxdata: 0xa26469706673582212206839da98521158655832aac8cdd3257e2d3e3c5a2d4c57d4e7abf8f6889ecb6564736f6c634300081e0033\n}\n",
				"bytecode": {
					"linkReferences": {},
					"object": "608060405234801561000f575f5ffd5b5060405161103c38038061103c833981810160405281019061003191906101d0565b335f73ffffffffffffffffffffffffffffffffffffffff168173ffffffffffffffffffffffffffffffffffffffff16036100a2575f6040517f1e4fbdf7000000000000000000000000000000000000000000000000000000008152600401610099919061023a565b60405180910390fd5b6100b1816100d860201b60201c565b5062015180816100c19190610280565b426100cc91906102c1565b600581905550506102f4565b5f5f5f9054906101000a900473ffffffffffffffffffffffffffffffffffffffff169050815f5f6101000a81548173ffffffffffffffffffffffffffffffffffffffff021916908373ffffffffffffffffffffffffffffffffffffffff1602179055508173ffffffffffffffffffffffffffffffffffffffff168173ffffffffffffffffffffffffffffffffffffffff167f8be0079c531659141344cd1fd0a4f28419497f9722a3daafe3b4186f6b6457e060405160405180910390a35050565b5f5ffd5b5f819050919050565b6101af8161019d565b81146101b9575f5ffd5b50565b5f815190506101ca816101a6565b92915050565b5f602082840312156101e5576101e4610199565b5b5f6101f2848285016101bc565b91505092915050565b5f73ffffffffffffffffffffffffffffffffffffffff82169050919050565b5f610224826101fb565b9050919050565b6102348161021a565b82525050565b5f60208201905061024d5f83018461022b565b92915050565b7f4e487b71000000000000000000000000000000000000000000000000000000005f52601160045260245ffd5b5f61028a8261019d565b91506102958361019d565b92508282026102a38161019d565b915082820484148315176102ba576102b9610253565b5b5092915050565b5f6102cb8261019d565b91506102d68361019d565b92508282019050808211156102ee576102ed610253565b5b92915050565b610d3b806103015f395ff3fe60806040526004361061009b575f3560e01c8063715018a611610063578063715018a61461019d5780638da5cb5b146101b3578063ad044f49146101dd578063b69ef8a814610207578063ed88c68e14610231578063f2fde38b1461024f5761009b565b806329dcb0cf1461009f5780632e1a7d4d146100c9578063348853b8146100f9578063410a1d321461012557806342e94c9014610161575b5f5ffd5b3480156100aa575f5ffd5b506100b3610277565b6040516100c0919061090e565b60405180910390f35b6100e360048036038101906100de9190610955565b61027d565b6040516100f0919061099a565b60405180910390f35b348015610104575f5ffd5b5061010d61037f565b60405161011c939291906109f2565b60405180910390f35b348015610130575f5ffd5b5061014b60048036038101906101469190610a51565b6104c6565b604051610158919061090e565b60405180910390f35b34801561016c575f5ffd5b5061018760048036038101906101829190610a51565b610514565b604051610194919061090e565b60405180910390f35b3480156101a8575f5ffd5b506101b1610529565b005b3480156101be575f5ffd5b506101c761053c565b6040516101d49190610a7c565b60405180910390f35b3480156101e8575f5ffd5b506101f1610563565b6040516101fe919061090e565b60405180910390f35b348015610212575f5ffd5b5061021b610569565b604051610228919061090e565b60405180910390f35b61023961056f565b604051610246919061099a565b60405180910390f35b34801561025a575f5ffd5b5061027560048036038101906102709190610a51565b610723565b005b60055481565b5f6102866107a7565b8160045410156102cb576040517f08c379a00000000000000000000000000000000000000000000000000000000081526004016102c290610aef565b60405180910390fd5b8160045f8282546102dc9190610b3a565b925050819055503373ffffffffffffffffffffffffffffffffffffffff166108fc8390811502906040515f60405180830381858888f19350505050158015610326573d5f5f3e3d5ffd5b50813373ffffffffffffffffffffffffffffffffffffffff167ff279e6a1f5e320cca91135676d9cb6e44ca8a08c0b88342bcdb1144f6511b5684260405161036e919061090e565b60405180910390a360019050919050565b5f5f5f5f600280549050116103c9576040517f08c379a00000000000000000000000000000000000000000000000000000000081526004016103c090610bb7565b60405180910390fd5b5f5f90505f5f90505f5f90505f5f90505b6002805490508110156104bd575f600282815481106103fc576103fb610bd5565b5b905f5260205f20015f9054906101000a900473ffffffffffffffffffffffffffffffffffffffff1690505f60015f8373ffffffffffffffffffffffffffffffffffffffff1673ffffffffffffffffffffffffffffffffffffffff1681526020019081526020015f20549050858110610485578796508493508897508594508198508095506104ae565b84811061049d578796508493508197508094506104ad565b838111156104ac578196508093505b5b5b828060010193505050506103da565b50505050909192565b5f6104cf6107a7565b60015f8373ffffffffffffffffffffffffffffffffffffffff1673ffffffffffffffffffffffffffffffffffffffff1681526020019081526020015f20549050919050565b6001602052805f5260405f205f915090505481565b6105316107a7565b61053a5f61082e565b565b5f5f5f9054906101000a900473ffffffffffffffffffffffffffffffffffffffff16905090565b60035481565b60045481565b5f42600554116105b4576040517f08c379a00000000000000000000000000000000000000000000000000000000081526004016105ab90610c4c565b60405180910390fd5b5f34116105f6576040517f08c379a00000000000000000000000000000000000000000000000000000000081526004016105ed90610cb4565b60405180910390fd5b5f3490508060015f3373ffffffffffffffffffffffffffffffffffffffff1673ffffffffffffffffffffffffffffffffffffffff1681526020019081526020015f2081905550600233908060018154018082558091505060019003905f5260205f20015f9091909190916101000a81548173ffffffffffffffffffffffffffffffffffffffff021916908373ffffffffffffffffffffffffffffffffffffffff1602179055508060035f8282546106ad9190610cd2565b925050819055508060045f8282546106c59190610cd2565b92505081905550803373ffffffffffffffffffffffffffffffffffffffff167f49bb2edd8608e46c3b9823ec2dabe8ddf219c00870a4a112ff60a1a70669f45742604051610713919061090e565b60405180910390a3600191505090565b61072b6107a7565b5f73ffffffffffffffffffffffffffffffffffffffff168173ffffffffffffffffffffffffffffffffffffffff160361079b575f6040517f1e4fbdf70000000000000000000000000000000000000000000000000000000081526004016107929190610a7c565b60405180910390fd5b6107a48161082e565b50565b6107af6108ef565b73ffffffffffffffffffffffffffffffffffffffff166107cd61053c565b73ffffffffffffffffffffffffffffffffffffffff161461082c576107f06108ef565b6040517f118cdaa70000000000000000000000000000000000000000000000000000000081526004016108239190610a7c565b60405180910390fd5b565b5f5f5f9054906101000a900473ffffffffffffffffffffffffffffffffffffffff169050815f5f6101000a81548173ffffffffffffffffffffffffffffffffffffffff021916908373ffffffffffffffffffffffffffffffffffffffff1602179055508173ffffffffffffffffffffffffffffffffffffffff168173ffffffffffffffffffffffffffffffffffffffff167f8be0079c531659141344cd1fd0a4f28419497f9722a3daafe3b4186f6b6457e060405160405180910390a35050565b5f33905090565b5f819050919050565b610908816108f6565b82525050565b5f6020820190506109215f8301846108ff565b92915050565b5f5ffd5b610934816108f6565b811461093e575f5ffd5b50565b5f8135905061094f8161092b565b92915050565b5f6020828403121561096a57610969610927565b5b5f61097784828501610941565b91505092915050565b5f8115159050919050565b61099481610980565b82525050565b5f6020820190506109ad5f83018461098b565b92915050565b5f73ffffffffffffffffffffffffffffffffffffffff82169050919050565b5f6109dc826109b3565b9050919050565b6109ec816109d2565b82525050565b5f606082019050610a055f8301866109e3565b610a1260208301856109e3565b610a1f60408301846109e3565b949350505050565b610a30816109d2565b8114610a3a575f5ffd5b50565b5f81359050610a4b81610a27565b92915050565b5f60208284031215610a6657610a65610927565b5b5f610a7384828501610a3d565b91505092915050565b5f602082019050610a8f5f8301846109e3565b92915050565b5f82825260208201905092915050565b7f496e73756666696369656e742062616c616e63650000000000000000000000005f82015250565b5f610ad9601483610a95565b9150610ae482610aa5565b602082019050919050565b5f6020820190508181035f830152610b0681610acd565b9050919050565b7f4e487b71000000000000000000000000000000000000000000000000000000005f52601160045260245ffd5b5f610b44826108f6565b9150610b4f836108f6565b9250828203905081811115610b6757610b66610b0d565b5b92915050565b7f6e6f20646f6e61746f72000000000000000000000000000000000000000000005f82015250565b5f610ba1600a83610a95565b9150610bac82610b6d565b602082019050919050565b5f6020820190508181035f830152610bce81610b95565b9050919050565b7f4e487b71000000000000000000000000000000000000000000000000000000005f52603260045260245ffd5b7f4f7574206f662074696d650000000000000000000000000000000000000000005f82015250565b5f610c36600b83610a95565b9150610c4182610c02565b602082019050919050565b5f6020820190508181035f830152610c6381610c2a565b9050919050565b7f4d7573742073656e6420455448000000000000000000000000000000000000005f82015250565b5f610c9e600d83610a95565b9150610ca982610c6a565b602082019050919050565b5f6020820190508181035f830152610ccb81610c92565b9050919050565b5f610cdc826108f6565b9150610ce7836108f6565b9250828201905080821115610cff57610cfe610b0d565b5b9291505056fea26469706673582212206839da98521158655832aac8cdd3257e2d3e3c5a2d4c57d4e7abf8f6889ecb6564736f6c634300081e0033",
					"opcodes": "PUSH1 0x80 PUSH1 0x40 MSTORE CALLVALUE DUP1 ISZERO PUSH2 0xF JUMPI PUSH0 PUSH0 REVERT JUMPDEST POP PUSH1 0x40 MLOAD PUSH2 0x103C CODESIZE SUB DUP1 PUSH2 0x103C DUP4 CODECOPY DUP2 DUP2 ADD PUSH1 0x40 MSTORE DUP2 ADD SWAP1 PUSH2 0x31 SWAP2 SWAP1 PUSH2 0x1D0 JUMP JUMPDEST CALLER PUSH0 PUSH20 0xFFFFFFFFFFFFFFFFFFFFFFFFFFFFFFFFFFFFFFFF AND DUP2 PUSH20 0xFFFFFFFFFFFFFFFFFFFFFFFFFFFFFFFFFFFFFFFF AND SUB PUSH2 0xA2 JUMPI PUSH0 PUSH1 0x40 MLOAD PUSH32 0x1E4FBDF700000000000000000000000000000000000000000000000000000000 DUP2 MSTORE PUSH1 0x4 ADD PUSH2 0x99 SWAP2 SWAP1 PUSH2 0x23A JUMP JUMPDEST PUSH1 0x40 MLOAD DUP1 SWAP2 SUB SWAP1 REVERT JUMPDEST PUSH2 0xB1 DUP2 PUSH2 0xD8 PUSH1 0x20 SHL PUSH1 0x20 SHR JUMP JUMPDEST POP PUSH3 0x15180 DUP2 PUSH2 0xC1 SWAP2 SWAP1 PUSH2 0x280 JUMP JUMPDEST TIMESTAMP PUSH2 0xCC SWAP2 SWAP1 PUSH2 0x2C1 JUMP JUMPDEST PUSH1 0x5 DUP2 SWAP1 SSTORE POP POP PUSH2 0x2F4 JUMP JUMPDEST PUSH0 PUSH0 PUSH0 SWAP1 SLOAD SWAP1 PUSH2 0x100 EXP SWAP1 DIV PUSH20 0xFFFFFFFFFFFFFFFFFFFFFFFFFFFFFFFFFFFFFFFF AND SWAP1 POP DUP2 PUSH0 PUSH0 PUSH2 0x100 EXP DUP2 SLOAD DUP2 PUSH20 0xFFFFFFFFFFFFFFFFFFFFFFFFFFFFFFFFFFFFFFFF MUL NOT AND SWAP1 DUP4 PUSH20 0xFFFFFFFFFFFFFFFFFFFFFFFFFFFFFFFFFFFFFFFF AND MUL OR SWAP1 SSTORE POP DUP2 PUSH20 0xFFFFFFFFFFFFFFFFFFFFFFFFFFFFFFFFFFFFFFFF AND DUP2 PUSH20 0xFFFFFFFFFFFFFFFFFFFFFFFFFFFFFFFFFFFFFFFF AND PUSH32 0x8BE0079C531659141344CD1FD0A4F28419497F9722A3DAAFE3B4186F6B6457E0 PUSH1 0x40 MLOAD PUSH1 0x40 MLOAD DUP1 SWAP2 SUB SWAP1 LOG3 POP POP JUMP JUMPDEST PUSH0 PUSH0 REVERT JUMPDEST PUSH0 DUP2 SWAP1 POP SWAP2 SWAP1 POP JUMP JUMPDEST PUSH2 0x1AF DUP2 PUSH2 0x19D JUMP JUMPDEST DUP2 EQ PUSH2 0x1B9 JUMPI PUSH0 PUSH0 REVERT JUMPDEST POP JUMP JUMPDEST PUSH0 DUP2 MLOAD SWAP1 POP PUSH2 0x1CA DUP2 PUSH2 0x1A6 JUMP JUMPDEST SWAP3 SWAP2 POP POP JUMP JUMPDEST PUSH0 PUSH1 0x20 DUP3 DUP5 SUB SLT ISZERO PUSH2 0x1E5 JUMPI PUSH2 0x1E4 PUSH2 0x199 JUMP JUMPDEST JUMPDEST PUSH0 PUSH2 0x1F2 DUP5 DUP3 DUP6 ADD PUSH2 0x1BC JUMP JUMPDEST SWAP2 POP POP SWAP3 SWAP2 POP POP JUMP JUMPDEST PUSH0 PUSH20 0xFFFFFFFFFFFFFFFFFFFFFFFFFFFFFFFFFFFFFFFF DUP3 AND SWAP1 POP SWAP2 SWAP1 POP JUMP JUMPDEST PUSH0 PUSH2 0x224 DUP3 PUSH2 0x1FB JUMP JUMPDEST SWAP1 POP SWAP2 SWAP1 POP JUMP JUMPDEST PUSH2 0x234 DUP2 PUSH2 0x21A JUMP JUMPDEST DUP3 MSTORE POP POP JUMP JUMPDEST PUSH0 PUSH1 0x20 DUP3 ADD SWAP1 POP PUSH2 0x24D PUSH0 DUP4 ADD DUP5 PUSH2 0x22B JUMP JUMPDEST SWAP3 SWAP2 POP POP JUMP JUMPDEST PUSH32 0x4E487B7100000000000000000000000000000000000000000000000000000000 PUSH0 MSTORE PUSH1 0x11 PUSH1 0x4 MSTORE PUSH1 0x24 PUSH0 REVERT JUMPDEST PUSH0 PUSH2 0x28A DUP3 PUSH2 0x19D JUMP JUMPDEST SWAP2 POP PUSH2 0x295 DUP4 PUSH2 0x19D JUMP JUMPDEST SWAP3 POP DUP3 DUP3 MUL PUSH2 0x2A3 DUP2 PUSH2 0x19D JUMP JUMPDEST SWAP2 POP DUP3 DUP3 DIV DUP5 EQ DUP4 ISZERO OR PUSH2 0x2BA JUMPI PUSH2 0x2B9 PUSH2 0x253 JUMP JUMPDEST JUMPDEST POP SWAP3 SWAP2 POP POP JUMP JUMPDEST PUSH0 PUSH2 0x2CB DUP3 PUSH2 0x19D JUMP JUMPDEST SWAP2 POP PUSH2 0x2D6 DUP4 PUSH2 0x19D JUMP JUMPDEST SWAP3 POP DUP3 DUP3 ADD SWAP1 POP DUP1 DUP3 GT ISZERO PUSH2 0x2EE JUMPI PUSH2 0x2ED PUSH2 0x253 JUMP JUMPDEST JUMPDEST SWAP3 SWAP2 POP POP JUMP JUMPDEST PUSH2 0xD3B DUP1 PUSH2 0x301 PUSH0 CODECOPY PUSH0 RETURN INVALID PUSH1 0x80 PUSH1 0x40 MSTORE PUSH1 0x4 CALLDATASIZE LT PUSH2 0x9B JUMPI PUSH0 CALLDATALOAD PUSH1 0xE0 SHR DUP1 PUSH4 0x715018A6 GT PUSH2 0x63 JUMPI DUP1 PUSH4 0x715018A6 EQ PUSH2 0x19D JUMPI DUP1 PUSH4 0x8DA5CB5B EQ PUSH2 0x1B3 JUMPI DUP1 PUSH4 0xAD044F49 EQ PUSH2 0x1DD JUMPI DUP1 PUSH4 0xB69EF8A8 EQ PUSH2 0x207 JUMPI DUP1 PUSH4 0xED88C68E EQ PUSH2 0x231 JUMPI DUP1 PUSH4 0xF2FDE38B EQ PUSH2 0x24F JUMPI PUSH2 0x9B JUMP JUMPDEST DUP1 PUSH4 0x29DCB0CF EQ PUSH2 0x9F JUMPI DUP1 PUSH4 0x2E1A7D4D EQ PUSH2 0xC9 JUMPI DUP1 PUSH4 0x348853B8 EQ PUSH2 0xF9 JUMPI DUP1 PUSH4 0x410A1D32 EQ PUSH2 0x125 JUMPI DUP1 PUSH4 0x42E94C90 EQ PUSH2 0x161 JUMPI JUMPDEST PUSH0 PUSH0 REVERT JUMPDEST CALLVALUE DUP1 ISZERO PUSH2 0xAA JUMPI PUSH0 PUSH0 REVERT JUMPDEST POP PUSH2 0xB3 PUSH2 0x277 JUMP JUMPDEST PUSH1 0x40 MLOAD PUSH2 0xC0 SWAP2 SWAP1 PUSH2 0x90E JUMP JUMPDEST PUSH1 0x40 MLOAD DUP1 SWAP2 SUB SWAP1 RETURN JUMPDEST PUSH2 0xE3 PUSH1 0x4 DUP1 CALLDATASIZE SUB DUP2 ADD SWAP1 PUSH2 0xDE SWAP2 SWAP1 PUSH2 0x955 JUMP JUMPDEST PUSH2 0x27D JUMP JUMPDEST PUSH1 0x40 MLOAD PUSH2 0xF0 SWAP2 SWAP1 PUSH2 0x99A JUMP JUMPDEST PUSH1 0x40 MLOAD DUP1 SWAP2 SUB SWAP1 RETURN JUMPDEST CALLVALUE DUP1 ISZERO PUSH2 0x104 JUMPI PUSH0 PUSH0 REVERT JUMPDEST POP PUSH2 0x10D PUSH2 0x37F JUMP JUMPDEST PUSH1 0x40 MLOAD PUSH2 0x11C SWAP4 SWAP3 SWAP2 SWAP1 PUSH2 0x9F2 JUMP JUMPDEST PUSH1 0x40 MLOAD DUP1 SWAP2 SUB SWAP1 RETURN JUMPDEST CALLVALUE DUP1 ISZERO PUSH2 0x130 JUMPI PUSH0 PUSH0 REVERT JUMPDEST POP PUSH2 0x14B PUSH1 0x4 DUP1 CALLDATASIZE SUB DUP2 ADD SWAP1 PUSH2 0x146 SWAP2 SWAP1 PUSH2 0xA51 JUMP JUMPDEST PUSH2 0x4C6 JUMP JUMPDEST PUSH1 0x40 MLOAD PUSH2 0x158 SWAP2 SWAP1 PUSH2 0x90E JUMP JUMPDEST PUSH1 0x40 MLOAD DUP1 SWAP2 SUB SWAP1 RETURN JUMPDEST CALLVALUE DUP1 ISZERO PUSH2 0x16C JUMPI PUSH0 PUSH0 REVERT JUMPDEST POP PUSH2 0x187 PUSH1 0x4 DUP1 CALLDATASIZE SUB DUP2 ADD SWAP1 PUSH2 0x182 SWAP2 SWAP1 PUSH2 0xA51 JUMP JUMPDEST PUSH2 0x514 JUMP JUMPDEST PUSH1 0x40 MLOAD PUSH2 0x194 SWAP2 SWAP1 PUSH2 0x90E JUMP JUMPDEST PUSH1 0x40 MLOAD DUP1 SWAP2 SUB SWAP1 RETURN JUMPDEST CALLVALUE DUP1 ISZERO PUSH2 0x1A8 JUMPI PUSH0 PUSH0 REVERT JUMPDEST POP PUSH2 0x1B1 PUSH2 0x529 JUMP JUMPDEST STOP JUMPDEST CALLVALUE DUP1 ISZERO PUSH2 0x1BE JUMPI PUSH0 PUSH0 REVERT JUMPDEST POP PUSH2 0x1C7 PUSH2 0x53C JUMP JUMPDEST PUSH1 0x40 MLOAD PUSH2 0x1D4 SWAP2 SWAP1 PUSH2 0xA7C JUMP JUMPDEST PUSH1 0x40 MLOAD DUP1 SWAP2 SUB SWAP1 RETURN JUMPDEST CALLVALUE DUP1 ISZERO PUSH2 0x1E8 JUMPI PUSH0 PUSH0 REVERT JUMPDEST POP PUSH2 0x1F1 PUSH2 0x563 JUMP JUMPDEST PUSH1 0x40 MLOAD PUSH2 0x1FE SWAP2 SWAP1 PUSH2 0x90E JUMP JUMPDEST PUSH1 0x40 MLOAD DUP1 SWAP2 SUB SWAP1 RETURN JUMPDEST CALLVALUE DUP1 ISZERO PUSH2 0x212 JUMPI PUSH0 PUSH0 REVERT JUMPDEST POP PUSH2 0x21B PUSH2 0x569 JUMP JUMPDEST PUSH1 0x40 MLOAD PUSH2 0x228 SWAP2 SWAP1 PUSH2 0x90E JUMP JUMPDEST PUSH1 0x40 MLOAD DUP1 SWAP2 SUB SWAP1 RETURN JUMPDEST PUSH2 0x239 PUSH2 0x56F JUMP JUMPDEST PUSH1 0x40 MLOAD PUSH2 0x246 SWAP2 SWAP1 PUSH2 0x99A JUMP JUMPDEST PUSH1 0x40 MLOAD DUP1 SWAP2 SUB SWAP1 RETURN JUMPDEST CALLVALUE DUP1 ISZERO PUSH2 0x25A JUMPI PUSH0 PUSH0 REVERT JUMPDEST POP PUSH2 0x275 PUSH1 0x4 DUP1 CALLDATASIZE SUB DUP2 ADD SWAP1 PUSH2 0x270 SWAP2 SWAP1 PUSH2 0xA51 JUMP JUMPDEST PUSH2 0x723 JUMP JUMPDEST STOP JUMPDEST PUSH1 0x5 SLOAD DUP2 JUMP JUMPDEST PUSH0 PUSH2 0x286 PUSH2 0x7A7 JUMP JUMPDEST DUP2 PUSH1 0x4 SLOAD LT ISZERO PUSH2 0x2CB JUMPI PUSH1 0x40 MLOAD PUSH32 0x8C379A000000000000000000000000000000000000000000000000000000000 DUP2 MSTORE PUSH1 0x4 ADD PUSH2 0x2C2 SWAP1 PUSH2 0xAEF JUMP JUMPDEST PUSH1 0x40 MLOAD DUP1 SWAP2 SUB SWAP1 REVERT JUMPDEST DUP2 PUSH1 0x4 PUSH0 DUP3 DUP3 SLOAD PUSH2 0x2DC SWAP2 SWAP1 PUSH2 0xB3A JUMP JUMPDEST SWAP3 POP POP DUP2 SWAP1 SSTORE POP CALLER PUSH20 0xFFFFFFFFFFFFFFFFFFFFFFFFFFFFFFFFFFFFFFFF AND PUSH2 0x8FC DUP4 SWAP1 DUP2 ISZERO MUL SWAP1 PUSH1 0x40 MLOAD PUSH0 PUSH1 0x40 MLOAD DUP1 DUP4 SUB DUP2 DUP6 DUP9 DUP9 CALL SWAP4 POP POP POP POP ISZERO DUP1 ISZERO PUSH2 0x326 JUMPI RETURNDATASIZE PUSH0 PUSH0 RETURNDATACOPY RETURNDATASIZE PUSH0 REVERT JUMPDEST POP DUP2 CALLER PUSH20 0xFFFFFFFFFFFFFFFFFFFFFFFFFFFFFFFFFFFFFFFF AND PUSH32 0xF279E6A1F5E320CCA91135676D9CB6E44CA8A08C0B88342BCDB1144F6511B568 TIMESTAMP PUSH1 0x40 MLOAD PUSH2 0x36E SWAP2 SWAP1 PUSH2 0x90E JUMP JUMPDEST PUSH1 0x40 MLOAD DUP1 SWAP2 SUB SWAP1 LOG3 PUSH1 0x1 SWAP1 POP SWAP2 SWAP1 POP JUMP JUMPDEST PUSH0 PUSH0 PUSH0 PUSH0 PUSH1 0x2 DUP1 SLOAD SWAP1 POP GT PUSH2 0x3C9 JUMPI PUSH1 0x40 MLOAD PUSH32 0x8C379A000000000000000000000000000000000000000000000000000000000 DUP2 MSTORE PUSH1 0x4 ADD PUSH2 0x3C0 SWAP1 PUSH2 0xBB7 JUMP JUMPDEST PUSH1 0x40 MLOAD DUP1 SWAP2 SUB SWAP1 REVERT JUMPDEST PUSH0 PUSH0 SWAP1 POP PUSH0 PUSH0 SWAP1 POP PUSH0 PUSH0 SWAP1 POP PUSH0 PUSH0 SWAP1 POP JUMPDEST PUSH1 0x2 DUP1 SLOAD SWAP1 POP DUP2 LT ISZERO PUSH2 0x4BD JUMPI PUSH0 PUSH1 0x2 DUP3 DUP2 SLOAD DUP2 LT PUSH2 0x3FC JUMPI PUSH2 0x3FB PUSH2 0xBD5 JUMP JUMPDEST JUMPDEST SWAP1 PUSH0 MSTORE PUSH1 0x20 PUSH0 KECCAK256 ADD PUSH0 SWAP1 SLOAD SWAP1 PUSH2 0x100 EXP SWAP1 DIV PUSH20 0xFFFFFFFFFFFFFFFFFFFFFFFFFFFFFFFFFFFFFFFF AND SWAP1 POP PUSH0 PUSH1 0x1 PUSH0 DUP4 PUSH20 0xFFFFFFFFFFFFFFFFFFFFFFFFFFFFFFFFFFFFFFFF AND PUSH20 0xFFFFFFFFFFFFFFFFFFFFFFFFFFFFFFFFFFFFFFFF AND DUP2 MSTORE PUSH1 0x20 ADD SWAP1 DUP2 MSTORE PUSH1 0x20 ADD PUSH0 KECCAK256 SLOAD SWAP1 POP DUP6 DUP2 LT PUSH2 0x485 JUMPI DUP8 SWAP7 POP DUP5 SWAP4 POP DUP9 SWAP8 POP DUP6 SWAP5 POP DUP2 SWAP9 POP DUP1 SWAP6 POP PUSH2 0x4AE JUMP JUMPDEST DUP5 DUP2 LT PUSH2 0x49D JUMPI DUP8 SWAP7 POP DUP5 SWAP4 POP DUP2 SWAP8 POP DUP1 SWAP5 POP PUSH2 0x4AD JUMP JUMPDEST DUP4 DUP2 GT ISZERO PUSH2 0x4AC JUMPI DUP2 SWAP7 POP DUP1 SWAP4 POP JUMPDEST JUMPDEST JUMPDEST DUP3 DUP1 PUSH1 0x1 ADD SWAP4 POP POP POP POP PUSH2 0x3DA JUMP JUMPDEST POP POP POP POP SWAP1 SWAP2 SWAP3 JUMP JUMPDEST PUSH0 PUSH2 0x4CF PUSH2 0x7A7 JUMP JUMPDEST PUSH1 0x1 PUSH0 DUP4 PUSH20 0xFFFFFFFFFFFFFFFFFFFFFFFFFFFFFFFFFFFFFFFF AND PUSH20 0xFFFFFFFFFFFFFFFFFFFFFFFFFFFFFFFFFFFFFFFF AND DUP2 MSTORE PUSH1 0x20 ADD SWAP1 DUP2 MSTORE PUSH1 0x20 ADD PUSH0 KECCAK256 SLOAD SWAP1 POP SWAP2 SWAP1 POP JUMP JUMPDEST PUSH1 0x1 PUSH1 0x20 MSTORE DUP1 PUSH0 MSTORE PUSH1 0x40 PUSH0 KECCAK256 PUSH0 SWAP2 POP SWAP1 POP SLOAD DUP2 JUMP JUMPDEST PUSH2 0x531 PUSH2 0x7A7 JUMP JUMPDEST PUSH2 0x53A PUSH0 PUSH2 0x82E JUMP JUMPDEST JUMP JUMPDEST PUSH0 PUSH0 PUSH0 SWAP1 SLOAD SWAP1 PUSH2 0x100 EXP SWAP1 DIV PUSH20 0xFFFFFFFFFFFFFFFFFFFFFFFFFFFFFFFFFFFFFFFF AND SWAP1 POP SWAP1 JUMP JUMPDEST PUSH1 0x3 SLOAD DUP2 JUMP JUMPDEST PUSH1 0x4 SLOAD DUP2 JUMP JUMPDEST PUSH0 TIMESTAMP PUSH1 0x5 SLOAD GT PUSH2 0x5B4 JUMPI PUSH1 0x40 MLOAD PUSH32 0x8C379A000000000000000000000000000000000000000000000000000000000 DUP2 MSTORE PUSH1 0x4 ADD PUSH2 0x5AB SWAP1 PUSH2 0xC4C JUMP JUMPDEST PUSH1 0x40 MLOAD DUP1 SWAP2 SUB SWAP1 REVERT JUMPDEST PUSH0 CALLVALUE GT PUSH2 0x5F6 JUMPI PUSH1 0x40 MLOAD PUSH32 0x8C379A000000000000000000000000000000000000000000000000000000000 DUP2 MSTORE PUSH1 0x4 ADD PUSH2 0x5ED SWAP1 PUSH2 0xCB4 JUMP JUMPDEST PUSH1 0x40 MLOAD DUP1 SWAP2 SUB SWAP1 REVERT JUMPDEST PUSH0 CALLVALUE SWAP1 POP DUP1 PUSH1 0x1 PUSH0 CALLER PUSH20 0xFFFFFFFFFFFFFFFFFFFFFFFFFFFFFFFFFFFFFFFF AND PUSH20 0xFFFFFFFFFFFFFFFFFFFFFFFFFFFFFFFFFFFFFFFF AND DUP2 MSTORE PUSH1 0x20 ADD SWAP1 DUP2 MSTORE PUSH1 0x20 ADD PUSH0 KECCAK256 DUP2 SWAP1 SSTORE POP PUSH1 0x2 CALLER SWAP1 DUP1 PUSH1 0x1 DUP2 SLOAD ADD DUP1 DUP3 SSTORE DUP1 SWAP2 POP POP PUSH1 0x1 SWAP1 SUB SWAP1 PUSH0 MSTORE PUSH1 0x20 PUSH0 KECCAK256 ADD PUSH0 SWAP1 SWAP2 SWAP1 SWAP2 SWAP1 SWAP2 PUSH2 0x100 EXP DUP2 SLOAD DUP2 PUSH20 0xFFFFFFFFFFFFFFFFFFFFFFFFFFFFFFFFFFFFFFFF MUL NOT AND SWAP1 DUP4 PUSH20 0xFFFFFFFFFFFFFFFFFFFFFFFFFFFFFFFFFFFFFFFF AND MUL OR SWAP1 SSTORE POP DUP1 PUSH1 0x3 PUSH0 DUP3 DUP3 SLOAD PUSH2 0x6AD SWAP2 SWAP1 PUSH2 0xCD2 JUMP JUMPDEST SWAP3 POP POP DUP2 SWAP1 SSTORE POP DUP1 PUSH1 0x4 PUSH0 DUP3 DUP3 SLOAD PUSH2 0x6C5 SWAP2 SWAP1 PUSH2 0xCD2 JUMP JUMPDEST SWAP3 POP POP DUP2 SWAP1 SSTORE POP DUP1 CALLER PUSH20 0xFFFFFFFFFFFFFFFFFFFFFFFFFFFFFFFFFFFFFFFF AND PUSH32 0x49BB2EDD8608E46C3B9823EC2DABE8DDF219C00870A4A112FF60A1A70669F457 TIMESTAMP PUSH1 0x40 MLOAD PUSH2 0x713 SWAP2 SWAP1 PUSH2 0x90E JUMP JUMPDEST PUSH1 0x40 MLOAD DUP1 SWAP2 SUB SWAP1 LOG3 PUSH1 0x1 SWAP2 POP POP SWAP1 JUMP JUMPDEST PUSH2 0x72B PUSH2 0x7A7 JUMP JUMPDEST PUSH0 PUSH20 0xFFFFFFFFFFFFFFFFFFFFFFFFFFFFFFFFFFFFFFFF AND DUP2 PUSH20 0xFFFFFFFFFFFFFFFFFFFFFFFFFFFFFFFFFFFFFFFF AND SUB PUSH2 0x79B JUMPI PUSH0 PUSH1 0x40 MLOAD PUSH32 0x1E4FBDF700000000000000000000000000000000000000000000000000000000 DUP2 MSTORE PUSH1 0x4 ADD PUSH2 0x792 SWAP2 SWAP1 PUSH2 0xA7C JUMP JUMPDEST PUSH1 0x40 MLOAD DUP1 SWAP2 SUB SWAP1 REVERT JUMPDEST PUSH2 0x7A4 DUP2 PUSH2 0x82E JUMP JUMPDEST POP JUMP JUMPDEST PUSH2 0x7AF PUSH2 0x8EF JUMP JUMPDEST PUSH20 0xFFFFFFFFFFFFFFFFFFFFFFFFFFFFFFFFFFFFFFFF AND PUSH2 0x7CD PUSH2 0x53C JUMP JUMPDEST PUSH20 0xFFFFFFFFFFFFFFFFFFFFFFFFFFFFFFFFFFFFFFFF AND EQ PUSH2 0x82C JUMPI PUSH2 0x7F0 PUSH2 0x8EF JUMP JUMPDEST PUSH1 0x40 MLOAD PUSH32 0x118CDAA700000000000000000000000000000000000000000000000000000000 DUP2 MSTORE PUSH1 0x4 ADD PUSH2 0x823 SWAP2 SWAP1 PUSH2 0xA7C JUMP JUMPDEST PUSH1 0x40 MLOAD DUP1 SWAP2 SUB SWAP1 REVERT JUMPDEST JUMP JUMPDEST PUSH0 PUSH0 PUSH0 SWAP1 SLOAD SWAP1 PUSH2 0x100 EXP SWAP1 DIV PUSH20 0xFFFFFFFFFFFFFFFFFFFFFFFFFFFFFFFFFFFFFFFF AND SWAP1 POP DUP2 PUSH0 PUSH0 PUSH2 0x100 EXP DUP2 SLOAD DUP2 PUSH20 0xFFFFFFFFFFFFFFFFFFFFFFFFFFFFFFFFFFFFFFFF MUL NOT AND SWAP1 DUP4 PUSH20 0xFFFFFFFFFFFFFFFFFFFFFFFFFFFFFFFFFFFFFFFF AND MUL OR SWAP1 SSTORE POP DUP2 PUSH20 0xFFFFFFFFFFFFFFFFFFFFFFFFFFFFFFFFFFFFFFFF AND DUP2 PUSH20 0xFFFFFFFFFFFFFFFFFFFFFFFFFFFFFFFFFFFFFFFF AND PUSH32 0x8BE0079C531659141344CD1FD0A4F28419497F9722A3DAAFE3B4186F6B6457E0 PUSH1 0x40 MLOAD PUSH1 0x40 MLOAD DUP1 SWAP2 SUB SWAP1 LOG3 POP POP JUMP JUMPDEST PUSH0 CALLER SWAP1 POP SWAP1 JUMP JUMPDEST PUSH0 DUP2 SWAP1 POP SWAP2 SWAP1 POP JUMP JUMPDEST PUSH2 0x908 DUP2 PUSH2 0x8F6 JUMP JUMPDEST DUP3 MSTORE POP POP JUMP JUMPDEST PUSH0 PUSH1 0x20 DUP3 ADD SWAP1 POP PUSH2 0x921 PUSH0 DUP4 ADD DUP5 PUSH2 0x8FF JUMP JUMPDEST SWAP3 SWAP2 POP POP JUMP JUMPDEST PUSH0 PUSH0 REVERT JUMPDEST PUSH2 0x934 DUP2 PUSH2 0x8F6 JUMP JUMPDEST DUP2 EQ PUSH2 0x93E JUMPI PUSH0 PUSH0 REVERT JUMPDEST POP JUMP JUMPDEST PUSH0 DUP2 CALLDATALOAD SWAP1 POP PUSH2 0x94F DUP2 PUSH2 0x92B JUMP JUMPDEST SWAP3 SWAP2 POP POP JUMP JUMPDEST PUSH0 PUSH1 0x20 DUP3 DUP5 SUB SLT ISZERO PUSH2 0x96A JUMPI PUSH2 0x969 PUSH2 0x927 JUMP JUMPDEST JUMPDEST PUSH0 PUSH2 0x977 DUP5 DUP3 DUP6 ADD PUSH2 0x941 JUMP JUMPDEST SWAP2 POP POP SWAP3 SWAP2 POP POP JUMP JUMPDEST PUSH0 DUP2 ISZERO ISZERO SWAP1 POP SWAP2 SWAP1 POP JUMP JUMPDEST PUSH2 0x994 DUP2 PUSH2 0x980 JUMP JUMPDEST DUP3 MSTORE POP POP JUMP JUMPDEST PUSH0 PUSH1 0x20 DUP3 ADD SWAP1 POP PUSH2 0x9AD PUSH0 DUP4 ADD DUP5 PUSH2 0x98B JUMP JUMPDEST SWAP3 SWAP2 POP POP JUMP JUMPDEST PUSH0 PUSH20 0xFFFFFFFFFFFFFFFFFFFFFFFFFFFFFFFFFFFFFFFF DUP3 AND SWAP1 POP SWAP2 SWAP1 POP JUMP JUMPDEST PUSH0 PUSH2 0x9DC DUP3 PUSH2 0x9B3 JUMP JUMPDEST SWAP1 POP SWAP2 SWAP1 POP JUMP JUMPDEST PUSH2 0x9EC DUP2 PUSH2 0x9D2 JUMP JUMPDEST DUP3 MSTORE POP POP JUMP JUMPDEST PUSH0 PUSH1 0x60 DUP3 ADD SWAP1 POP PUSH2 0xA05 PUSH0 DUP4 ADD DUP7 PUSH2 0x9E3 JUMP JUMPDEST PUSH2 0xA12 PUSH1 0x20 DUP4 ADD DUP6 PUSH2 0x9E3 JUMP JUMPDEST PUSH2 0xA1F PUSH1 0x40 DUP4 ADD DUP5 PUSH2 0x9E3 JUMP JUMPDEST SWAP5 SWAP4 POP POP POP POP JUMP JUMPDEST PUSH2 0xA30 DUP2 PUSH2 0x9D2 JUMP JUMPDEST DUP2 EQ PUSH2 0xA3A JUMPI PUSH0 PUSH0 REVERT JUMPDEST POP JUMP JUMPDEST PUSH0 DUP2 CALLDATALOAD SWAP1 POP PUSH2 0xA4B DUP2 PUSH2 0xA27 JUMP JUMPDEST SWAP3 SWAP2 POP POP JUMP JUMPDEST PUSH0 PUSH1 0x20 DUP3 DUP5 SUB SLT ISZERO PUSH2 0xA66 JUMPI PUSH2 0xA65 PUSH2 0x927 JUMP JUMPDEST JUMPDEST PUSH0 PUSH2 0xA73 DUP5 DUP3 DUP6 ADD PUSH2 0xA3D JUMP JUMPDEST SWAP2 POP POP SWAP3 SWAP2 POP POP JUMP JUMPDEST PUSH0 PUSH1 0x20 DUP3 ADD SWAP1 POP PUSH2 0xA8F PUSH0 DUP4 ADD DUP5 PUSH2 0x9E3 JUMP JUMPDEST SWAP3 SWAP2 POP POP JUMP JUMPDEST PUSH0 DUP3 DUP3 MSTORE PUSH1 0x20 DUP3 ADD SWAP1 POP SWAP3 SWAP2 POP POP JUMP JUMPDEST PUSH32 0x496E73756666696369656E742062616C616E6365000000000000000000000000 PUSH0 DUP3 ADD MSTORE POP JUMP JUMPDEST PUSH0 PUSH2 0xAD9 PUSH1 0x14 DUP4 PUSH2 0xA95 JUMP JUMPDEST SWAP2 POP PUSH2 0xAE4 DUP3 PUSH2 0xAA5 JUMP JUMPDEST PUSH1 0x20 DUP3 ADD SWAP1 POP SWAP2 SWAP1 POP JUMP JUMPDEST PUSH0 PUSH1 0x20 DUP3 ADD SWAP1 POP DUP2 DUP2 SUB PUSH0 DUP4 ADD MSTORE PUSH2 0xB06 DUP2 PUSH2 0xACD JUMP JUMPDEST SWAP1 POP SWAP2 SWAP1 POP JUMP JUMPDEST PUSH32 0x4E487B7100000000000000000000000000000000000000000000000000000000 PUSH0 MSTORE PUSH1 0x11 PUSH1 0x4 MSTORE PUSH1 0x24 PUSH0 REVERT JUMPDEST PUSH0 PUSH2 0xB44 DUP3 PUSH2 0x8F6 JUMP JUMPDEST SWAP2 POP PUSH2 0xB4F DUP4 PUSH2 0x8F6 JUMP JUMPDEST SWAP3 POP DUP3 DUP3 SUB SWAP1 POP DUP2 DUP2 GT ISZERO PUSH2 0xB67 JUMPI PUSH2 0xB66 PUSH2 0xB0D JUMP JUMPDEST JUMPDEST SWAP3 SWAP2 POP POP JUMP JUMPDEST PUSH32 0x6E6F20646F6E61746F7200000000000000000000000000000000000000000000 PUSH0 DUP3 ADD MSTORE POP JUMP JUMPDEST PUSH0 PUSH2 0xBA1 PUSH1 0xA DUP4 PUSH2 0xA95 JUMP JUMPDEST SWAP2 POP PUSH2 0xBAC DUP3 PUSH2 0xB6D JUMP JUMPDEST PUSH1 0x20 DUP3 ADD SWAP1 POP SWAP2 SWAP1 POP JUMP JUMPDEST PUSH0 PUSH1 0x20 DUP3 ADD SWAP1 POP DUP2 DUP2 SUB PUSH0 DUP4 ADD MSTORE PUSH2 0xBCE DUP2 PUSH2 0xB95 JUMP JUMPDEST SWAP1 POP SWAP2 SWAP1 POP JUMP JUMPDEST PUSH32 0x4E487B7100000000000000000000000000000000000000000000000000000000 PUSH0 MSTORE PUSH1 0x32 PUSH1 0x4 MSTORE PUSH1 0x24 PUSH0 REVERT JUMPDEST PUSH32 0x4F7574206F662074696D65000000000000000000000000000000000000000000 PUSH0 DUP3 ADD MSTORE POP JUMP JUMPDEST PUSH0 PUSH2 0xC36 PUSH1 0xB DUP4 PUSH2 0xA95 JUMP JUMPDEST SWAP2 POP PUSH2 0xC41 DUP3 PUSH2 0xC02 JUMP JUMPDEST PUSH1 0x20 DUP3 ADD SWAP1 POP SWAP2 SWAP1 POP JUMP JUMPDEST PUSH0 PUSH1 0x20 DUP3 ADD SWAP1 POP DUP2 DUP2 SUB PUSH0 DUP4 ADD MSTORE PUSH2 0xC63 DUP2 PUSH2 0xC2A JUMP JUMPDEST SWAP1 POP SWAP2 SWAP1 POP JUMP JUMPDEST PUSH32 0x4D7573742073656E642045544800000000000000000000000000000000000000 PUSH0 DUP3 ADD MSTORE POP JUMP JUMPDEST PUSH0 PUSH2 0xC9E PUSH1 0xD DUP4 PUSH2 0xA95 JUMP JUMPDEST SWAP2 POP PUSH2 0xCA9 DUP3 PUSH2 0xC6A JUMP JUMPDEST PUSH1 0x20 DUP3 ADD SWAP1 POP SWAP2 SWAP1 POP JUMP JUMPDEST PUSH0 PUSH1 0x20 DUP3 ADD SWAP1 POP DUP2 DUP2 SUB PUSH0 DUP4 ADD MSTORE PUSH2 0xCCB DUP2 PUSH2 0xC92 JUMP JUMPDEST SWAP1 POP SWAP2 SWAP1 POP JUMP JUMPDEST PUSH0 PUSH2 0xCDC DUP3 PUSH2 0x8F6 JUMP JUMPDEST SWAP2 POP PUSH2 0xCE7 DUP4 PUSH2 0x8F6 JUMP JUMPDEST SWAP3 POP DUP3 DUP3 ADD SWAP1 POP DUP1 DUP3 GT ISZERO PUSH2 0xCFF JUMPI PUSH2 0xCFE PUSH2 0xB0D JUMP JUMPDEST JUMPDEST SWAP3 SWAP2 POP POP JUMP INVALID LOG2 PUSH5 0x6970667358 0x22 SLT KECCAK256 PUSH9 0x39DA98521158655832 0xAA 0xC8 0xCD 0xD3 0x25 PUSH31 0x2D3E3C5A2D4C57D4E7ABF8F6889ECB6564736F6C634300081E003300000000 "
				},
				"gasEstimates": {
					"creation": {
						"codeDepositCost": "677400",
						"executionCost": "infinite",
						"totalCost": "infinite"
					},
					"external": {
						"balance()": "2491",
						"contributions(address)": "2891",
						"deadline()": "2426",
						"donate()": "infinite",
						"getDonation(address)": "infinite",
						"getTop3Donate()": "infinite",
						"owner()": "2536",
						"renounceOwnership()": "infinite",
						"totalFunded()": "2469",
						"transferOwnership(address)": "infinite",
						"withdraw(uint256)": "infinite"
					}
				},
				"methodIdentifiers": {
					"balance()": "b69ef8a8",
					"contributions(address)": "42e94c90",
					"deadline()": "29dcb0cf",
					"donate()": "ed88c68e",
					"getDonation(address)": "410a1d32",
					"getTop3Donate()": "348853b8",
					"owner()": "8da5cb5b",
					"renounceOwnership()": "715018a6",
					"totalFunded()": "ad044f49",
					"transferOwnership(address)": "f2fde38b",
					"withdraw(uint256)": "2e1a7d4d"
				}
			},
			"storageLayout": {
				"storage": [
					{
						"astId": 8,
						"contract": "contracts/task2/03 job3.sol:BeggingContract",
						"label": "_owner",
						"offset": 0,
						"slot": "0",
						"type": "t_address"
					},
					{
						"astId": 186,
						"contract": "contracts/task2/03 job3.sol:BeggingContract",
						"label": "contributions",
						"offset": 0,
						"slot": "1",
						"type": "t_mapping(t_address,t_uint256)"
					},
					{
						"astId": 189,
						"contract": "contracts/task2/03 job3.sol:BeggingContract",
						"label": "contributionsArray",
						"offset": 0,
						"slot": "2",
						"type": "t_array(t_address)dyn_storage"
					},
					{
						"astId": 191,
						"contract": "contracts/task2/03 job3.sol:BeggingContract",
						"label": "totalFunded",
						"offset": 0,
						"slot": "3",
						"type": "t_uint256"
					},
					{
						"astId": 193,
						"contract": "contracts/task2/03 job3.sol:BeggingContract",
						"label": "balance",
						"offset": 0,
						"slot": "4",
						"type": "t_uint256"
					},
					{
						"astId": 195,
						"contract": "contracts/task2/03 job3.sol:BeggingContract",
						"label": "deadline",
						"offset": 0,
						"slot": "5",
						"type": "t_uint256"
					}
				],
				"types": {
					"t_address": {
						"encoding": "inplace",
						"label": "address",
						"numberOfBytes": "20"
					},
					"t_array(t_address)dyn_storage": {
						"base": "t_address",
						"encoding": "dynamic_array",
						"label": "address[]",
						"numberOfBytes": "32"
					},
					"t_mapping(t_address,t_uint256)": {
						"encoding": "mapping",
						"key": "t_address",
						"label": "mapping(address => uint256)",
						"numberOfBytes": "32",
						"value": "t_uint256"
					},
					"t_uint256": {
						"encoding": "inplace",
						"label": "uint256",
						"numberOfBytes": "32"
					}
				}
			},
			"userdoc": {
				"kind": "user",
				"methods": {},
				"version": 1
			}
		}
	}
}