{
	"contracts/task1/03 IntToRoman.sol": {
		"IntToRoman": {
			"abi": [
				{
					"inputs": [
						{
							"internalType": "uint256",
							"name": "_num",
							"type": "uint256"
						}
					],
					"name": "intToRoman",
					"outputs": [
						{
							"internalType": "string",
							"name": "",
							"type": "string"
						}
					],
					"stateMutability": "nonpayable",
					"type": "function"
				},
				{
					"inputs": [
						{
							"internalType": "uint256",
							"name": "",
							"type": "uint256"
						}
					],
					"name": "nums",
					"outputs": [
						{
							"internalType": "uint256",
							"name": "",
							"type": "uint256"
						}
					],
					"stateMutability": "view",
					"type": "function"
				},
				{
					"inputs": [
						{
							"internalType": "uint256",
							"name": "",
							"type": "uint256"
						}
					],
					"name": "valueLists",
					"outputs": [
						{
							"internalType": "string",
							"name": "",
							"type": "string"
						}
					],
					"stateMutability": "view",
					"type": "function"
				}
			],
			"devdoc": {
				"kind": "dev",
				"methods": {},
				"version": 1
			},
			"evm": {
				"assembly": "    /* \"contracts/task1/03 IntToRoman.sol\":60:2079  contract IntToRoman {... */\n  mstore(0x40, 0x80)\n    /* \"contracts/task1/03 IntToRoman.sol\":136:194  uint[] values = [1,4,5,9,10,40,50,90,100,400,500,900,1000] */\n  mload(0x40)\n  dup1\n  0x01a0\n  add\n  0x40\n  mstore\n  dup1\n    /* \"contracts/task1/03 IntToRoman.sol\":153:154  1 */\n  0x01\n    /* \"contracts/task1/03 IntToRoman.sol\":136:194  uint[] values = [1,4,5,9,10,40,50,90,100,400,500,900,1000] */\n  0xffff\n  and\n  dup2\n  mstore\n  0x20\n  add\n    /* \"contracts/task1/03 IntToRoman.sol\":155:156  4 */\n  0x04\n    /* \"contracts/task1/03 IntToRoman.sol\":136:194  uint[] values = [1,4,5,9,10,40,50,90,100,400,500,900,1000] */\n  0xffff\n  and\n  dup2\n  mstore\n  0x20\n  add\n    /* \"contracts/task1/03 IntToRoman.sol\":157:158  5 */\n  0x05\n    /* \"contracts/task1/03 IntToRoman.sol\":136:194  uint[] values = [1,4,5,9,10,40,50,90,100,400,500,900,1000] */\n  0xffff\n  and\n  dup2\n  mstore\n  0x20\n  add\n    /* \"contracts/task1/03 IntToRoman.sol\":159:160  9 */\n  0x09\n    /* \"contracts/task1/03 IntToRoman.sol\":136:194  uint[] values = [1,4,5,9,10,40,50,90,100,400,500,900,1000] */\n  0xffff\n  and\n  dup2\n  mstore\n  0x20\n  add\n    /* \"contracts/task1/03 IntToRoman.sol\":161:163  10 */\n  0x0a\n    /* \"contracts/task1/03 IntToRoman.sol\":136:194  uint[] values = [1,4,5,9,10,40,50,90,100,400,500,900,1000] */\n  0xffff\n  and\n  dup2\n  mstore\n  0x20\n  add\n    /* \"contracts/task1/03 IntToRoman.sol\":164:166  40 */\n  0x28\n    /* \"contracts/task1/03 IntToRoman.sol\":136:194  uint[] values = [1,4,5,9,10,40,50,90,100,400,500,900,1000] */\n  0xffff\n  and\n  dup2\n  mstore\n  0x20\n  add\n    /* \"contracts/task1/03 IntToRoman.sol\":167:169  50 */\n  0x32\n    /* \"contracts/task1/03 IntToRoman.sol\":136:194  uint[] values = [1,4,5,9,10,40,50,90,100,400,500,900,1000] */\n  0xffff\n  and\n  dup2\n  mstore\n  0x20\n  add\n    /* \"contracts/task1/03 IntToRoman.sol\":170:172  90 */\n  0x5a\n    /* \"contracts/task1/03 IntToRoman.sol\":136:194  uint[] values = [1,4,5,9,10,40,50,90,100,400,500,900,1000] */\n  0xffff\n  and\n  dup2\n  mstore\n  0x20\n  add\n    /* \"contracts/task1/03 IntToRoman.sol\":173:176  100 */\n  0x64\n    /* \"contracts/task1/03 IntToRoman.sol\":136:194  uint[] values = [1,4,5,9,10,40,50,90,100,400,500,900,1000] */\n  0xffff\n  and\n  dup2\n  mstore\n  0x20\n  add\n    /* \"contracts/task1/03 IntToRoman.sol\":177:180  400 */\n  0x0190\n    /* \"contracts/task1/03 IntToRoman.sol\":136:194  uint[] values = [1,4,5,9,10,40,50,90,100,400,500,900,1000] */\n  0xffff\n  and\n  dup2\n  mstore\n  0x20\n  add\n    /* \"contracts/task1/03 IntToRoman.sol\":181:184  500 */\n  0x01f4\n    /* \"contracts/task1/03 IntToRoman.sol\":136:194  uint[] values = [1,4,5,9,10,40,50,90,100,400,500,900,1000] */\n  0xffff\n  and\n  dup2\n  mstore\n  0x20\n  add\n    /* \"contracts/task1/03 IntToRoman.sol\":185:188  900 */\n  0x0384\n    /* \"contracts/task1/03 IntToRoman.sol\":136:194  uint[] values = [1,4,5,9,10,40,50,90,100,400,500,900,1000] */\n  0xffff\n  and\n  dup2\n  mstore\n  0x20\n  add\n    /* \"contracts/task1/03 IntToRoman.sol\":189:193  1000 */\n  0x03e8\n    /* \"contracts/task1/03 IntToRoman.sol\":136:194  uint[] values = [1,4,5,9,10,40,50,90,100,400,500,900,1000] */\n  0xffff\n  and\n  dup2\n  mstore\n  pop\n  0x01\n  swap1\n  0x0d\n  tag_1\n  swap3\n  swap2\n  swap1\n  tag_2\n  jump\t// in\ntag_1:\n  pop\n    /* \"contracts/task1/03 IntToRoman.sol\":60:2079  contract IntToRoman {... */\n  callvalue\n  dup1\n  iszero\n  tag_3\n  jumpi\n  revert(0x00, 0x00)\ntag_3:\n  pop\n  jump(tag_4)\ntag_2:\n  dup3\n  dup1\n  sload\n  dup3\n  dup3\n  sstore\n  swap1\n  0x00\n  mstore\n  keccak256(0x00, 0x20)\n  swap1\n  dup2\n  add\n  swap3\n  dup3\n  iszero\n  tag_5\n  jumpi\n  swap2\n  0x20\n  mul\n  dup3\n  add\ntag_6:\n  dup3\n  dup2\n  gt\n  iszero\n  tag_7\n  jumpi\n  dup3\n  mload\n  dup3\n  swap1\n  0xffff\n  and\n  swap1\n  sstore\n  swap2\n  0x20\n  add\n  swap2\n  swap1\n  0x01\n  add\n  swap1\n  jump(tag_6)\ntag_7:\ntag_5:\n  pop\n  swap1\n  pop\n  tag_8\n  swap2\n  swap1\n  tag_9\n  jump\t// in\ntag_8:\n  pop\n  swap1\n  jump\t// out\ntag_9:\ntag_10:\n  dup1\n  dup3\n  gt\n  iszero\n  tag_11\n  jumpi\n  0x00\n  dup2\n  0x00\n  swap1\n  sstore\n  pop\n  0x01\n  add\n  jump(tag_10)\ntag_11:\n  pop\n  swap1\n  jump\t// out\ntag_4:\n  dataSize(sub_0)\n  dup1\n  dataOffset(sub_0)\n  0x00\n  codecopy\n  0x00\n  return\nstop\n\nsub_0: assembly {\n        /* \"contracts/task1/03 IntToRoman.sol\":60:2079  contract IntToRoman {... */\n      mstore(0x40, 0x80)\n      callvalue\n      dup1\n      iszero\n      tag_1\n      jumpi\n      revert(0x00, 0x00)\n    tag_1:\n      pop\n      jumpi(tag_2, lt(calldatasize, 0x04))\n      shr(0xe0, calldataload(0x00))\n      dup1\n      0x0cbc513a\n      eq\n      tag_3\n      jumpi\n      dup1\n      0x6a745eda\n      eq\n      tag_4\n      jumpi\n      dup1\n      0xfd1ee54c\n      eq\n      tag_5\n      jumpi\n    tag_2:\n      revert(0x00, 0x00)\n        /* \"contracts/task1/03 IntToRoman.sol\":227:2076  function intToRoman(uint _num) public returns (string memory){... */\n    tag_3:\n      tag_6\n      0x04\n      dup1\n      calldatasize\n      sub\n      dup2\n      add\n      swap1\n      tag_7\n      swap2\n      swap1\n      tag_8\n      jump\t// in\n    tag_7:\n      tag_9\n      jump\t// in\n    tag_6:\n      mload(0x40)\n      tag_10\n      swap2\n      swap1\n      tag_11\n      jump\t// in\n    tag_10:\n      mload(0x40)\n      dup1\n      swap2\n      sub\n      swap1\n      return\n        /* \"contracts/task1/03 IntToRoman.sol\":87:129  mapping (uint => string) public valueLists */\n    tag_4:\n      tag_12\n      0x04\n      dup1\n      calldatasize\n      sub\n      dup2\n      add\n      swap1\n      tag_13\n      swap2\n      swap1\n      tag_8\n      jump\t// in\n    tag_13:\n      tag_14\n      jump\t// in\n    tag_12:\n      mload(0x40)\n      tag_15\n      swap2\n      swap1\n      tag_11\n      jump\t// in\n    tag_15:\n      mload(0x40)\n      dup1\n      swap2\n      sub\n      swap1\n      return\n        /* \"contracts/task1/03 IntToRoman.sol\":201:220  uint[] public  nums */\n    tag_5:\n      tag_16\n      0x04\n      dup1\n      calldatasize\n      sub\n      dup2\n      add\n      swap1\n      tag_17\n      swap2\n      swap1\n      tag_8\n      jump\t// in\n    tag_17:\n      tag_18\n      jump\t// in\n    tag_16:\n      mload(0x40)\n      tag_19\n      swap2\n      swap1\n      tag_20\n      jump\t// in\n    tag_19:\n      mload(0x40)\n      dup1\n      swap2\n      sub\n      swap1\n      return\n        /* \"contracts/task1/03 IntToRoman.sol\":227:2076  function intToRoman(uint _num) public returns (string memory){... */\n    tag_9:\n        /* \"contracts/task1/03 IntToRoman.sol\":274:287  string memory */\n      0x60\n        /* \"contracts/task1/03 IntToRoman.sol\":299:318  valueLists[1] = \"I\" */\n      mload(0x40)\n      dup1\n      0x40\n      add\n      0x40\n      mstore\n      dup1\n      0x01\n      dup2\n      mstore\n      0x20\n      add\n      0x4900000000000000000000000000000000000000000000000000000000000000\n      dup2\n      mstore\n      pop\n        /* \"contracts/task1/03 IntToRoman.sol\":299:309  valueLists */\n      0x00\n        /* \"contracts/task1/03 IntToRoman.sol\":299:312  valueLists[1] */\n      0x00\n        /* \"contracts/task1/03 IntToRoman.sol\":310:311  1 */\n      0x01\n        /* \"contracts/task1/03 IntToRoman.sol\":299:312  valueLists[1] */\n      dup2\n      mstore\n      0x20\n      add\n      swap1\n      dup2\n      mstore\n      0x20\n      add\n      0x00\n      keccak256\n        /* \"contracts/task1/03 IntToRoman.sol\":299:318  valueLists[1] = \"I\" */\n      swap1\n      dup2\n      tag_22\n      swap2\n      swap1\n      tag_23\n      jump\t// in\n    tag_22:\n      pop\n        /* \"contracts/task1/03 IntToRoman.sol\":329:349  valueLists[4] = \"IV\" */\n      mload(0x40)\n      dup1\n      0x40\n      add\n      0x40\n      mstore\n      dup1\n      0x02\n      dup2\n      mstore\n      0x20\n      add\n      0x4956000000000000000000000000000000000000000000000000000000000000\n      dup2\n      mstore\n      pop\n        /* \"contracts/task1/03 IntToRoman.sol\":329:339  valueLists */\n      0x00\n        /* \"contracts/task1/03 IntToRoman.sol\":329:342  valueLists[4] */\n      0x00\n        /* \"contracts/task1/03 IntToRoman.sol\":340:341  4 */\n      0x04\n        /* \"contracts/task1/03 IntToRoman.sol\":329:342  valueLists[4] */\n      dup2\n      mstore\n      0x20\n      add\n      swap1\n      dup2\n      mstore\n      0x20\n      add\n      0x00\n      keccak256\n        /* \"contracts/task1/03 IntToRoman.sol\":329:349  valueLists[4] = \"IV\" */\n      swap1\n      dup2\n      tag_24\n      swap2\n      swap1\n      tag_23\n      jump\t// in\n    tag_24:\n      pop\n        /* \"contracts/task1/03 IntToRoman.sol\":360:379  valueLists[5] = \"V\" */\n      mload(0x40)\n      dup1\n      0x40\n      add\n      0x40\n      mstore\n      dup1\n      0x01\n      dup2\n      mstore\n      0x20\n      add\n      0x5600000000000000000000000000000000000000000000000000000000000000\n      dup2\n      mstore\n      pop\n        /* \"contracts/task1/03 IntToRoman.sol\":360:370  valueLists */\n      0x00\n        /* \"contracts/task1/03 IntToRoman.sol\":360:373  valueLists[5] */\n      0x00\n        /* \"contracts/task1/03 IntToRoman.sol\":371:372  5 */\n      0x05\n        /* \"contracts/task1/03 IntToRoman.sol\":360:373  valueLists[5] */\n      dup2\n      mstore\n      0x20\n      add\n      swap1\n      dup2\n      mstore\n      0x20\n      add\n      0x00\n      keccak256\n        /* \"contracts/task1/03 IntToRoman.sol\":360:379  valueLists[5] = \"V\" */\n      swap1\n      dup2\n      tag_25\n      swap2\n      swap1\n      tag_23\n      jump\t// in\n    tag_25:\n      pop\n        /* \"contracts/task1/03 IntToRoman.sol\":390:410  valueLists[9] = \"IX\" */\n      mload(0x40)\n      dup1\n      0x40\n      add\n      0x40\n      mstore\n      dup1\n      0x02\n      dup2\n      mstore\n      0x20\n      add\n      0x4958000000000000000000000000000000000000000000000000000000000000\n      dup2\n      mstore\n      pop\n        /* \"contracts/task1/03 IntToRoman.sol\":390:400  valueLists */\n      0x00\n        /* \"contracts/task1/03 IntToRoman.sol\":390:403  valueLists[9] */\n      0x00\n        /* \"contracts/task1/03 IntToRoman.sol\":401:402  9 */\n      0x09\n        /* \"contracts/task1/03 IntToRoman.sol\":390:403  valueLists[9] */\n      dup2\n      mstore\n      0x20\n      add\n      swap1\n      dup2\n      mstore\n      0x20\n      add\n      0x00\n      keccak256\n        /* \"contracts/task1/03 IntToRoman.sol\":390:410  valueLists[9] = \"IX\" */\n      swap1\n      dup2\n      tag_26\n      swap2\n      swap1\n      tag_23\n      jump\t// in\n    tag_26:\n      pop\n        /* \"contracts/task1/03 IntToRoman.sol\":421:441  valueLists[10] = \"X\" */\n      mload(0x40)\n      dup1\n      0x40\n      add\n      0x40\n      mstore\n      dup1\n      0x01\n      dup2\n      mstore\n      0x20\n      add\n      0x5800000000000000000000000000000000000000000000000000000000000000\n      dup2\n      mstore\n      pop\n        /* \"contracts/task1/03 IntToRoman.sol\":421:431  valueLists */\n      0x00\n        /* \"contracts/task1/03 IntToRoman.sol\":421:435  valueLists[10] */\n      0x00\n        /* \"contracts/task1/03 IntToRoman.sol\":432:434  10 */\n      0x0a\n        /* \"contracts/task1/03 IntToRoman.sol\":421:435  valueLists[10] */\n      dup2\n      mstore\n      0x20\n      add\n      swap1\n      dup2\n      mstore\n      0x20\n      add\n      0x00\n      keccak256\n        /* \"contracts/task1/03 IntToRoman.sol\":421:441  valueLists[10] = \"X\" */\n      swap1\n      dup2\n      tag_27\n      swap2\n      swap1\n      tag_23\n      jump\t// in\n    tag_27:\n      pop\n        /* \"contracts/task1/03 IntToRoman.sol\":452:473  valueLists[40] = \"XL\" */\n      mload(0x40)\n      dup1\n      0x40\n      add\n      0x40\n      mstore\n      dup1\n      0x02\n      dup2\n      mstore\n      0x20\n      add\n      0x584c000000000000000000000000000000000000000000000000000000000000\n      dup2\n      mstore\n      pop\n        /* \"contracts/task1/03 IntToRoman.sol\":452:462  valueLists */\n      0x00\n        /* \"contracts/task1/03 IntToRoman.sol\":452:466  valueLists[40] */\n      0x00\n        /* \"contracts/task1/03 IntToRoman.sol\":463:465  40 */\n      0x28\n        /* \"contracts/task1/03 IntToRoman.sol\":452:466  valueLists[40] */\n      dup2\n      mstore\n      0x20\n      add\n      swap1\n      dup2\n      mstore\n      0x20\n      add\n      0x00\n      keccak256\n        /* \"contracts/task1/03 IntToRoman.sol\":452:473  valueLists[40] = \"XL\" */\n      swap1\n      dup2\n      tag_28\n      swap2\n      swap1\n      tag_23\n      jump\t// in\n    tag_28:\n      pop\n        /* \"contracts/task1/03 IntToRoman.sol\":484:504  valueLists[50] = \"L\" */\n      mload(0x40)\n      dup1\n      0x40\n      add\n      0x40\n      mstore\n      dup1\n      0x01\n      dup2\n      mstore\n      0x20\n      add\n      0x4c00000000000000000000000000000000000000000000000000000000000000\n      dup2\n      mstore\n      pop\n        /* \"contracts/task1/03 IntToRoman.sol\":484:494  valueLists */\n      0x00\n        /* \"contracts/task1/03 IntToRoman.sol\":484:498  valueLists[50] */\n      0x00\n        /* \"contracts/task1/03 IntToRoman.sol\":495:497  50 */\n      0x32\n        /* \"contracts/task1/03 IntToRoman.sol\":484:498  valueLists[50] */\n      dup2\n      mstore\n      0x20\n      add\n      swap1\n      dup2\n      mstore\n      0x20\n      add\n      0x00\n      keccak256\n        /* \"contracts/task1/03 IntToRoman.sol\":484:504  valueLists[50] = \"L\" */\n      swap1\n      dup2\n      tag_29\n      swap2\n      swap1\n      tag_23\n      jump\t// in\n    tag_29:\n      pop\n        /* \"contracts/task1/03 IntToRoman.sol\":515:536  valueLists[90] = \"XC\" */\n      mload(0x40)\n      dup1\n      0x40\n      add\n      0x40\n      mstore\n      dup1\n      0x02\n      dup2\n      mstore\n      0x20\n      add\n      0x5843000000000000000000000000000000000000000000000000000000000000\n      dup2\n      mstore\n      pop\n        /* \"contracts/task1/03 IntToRoman.sol\":515:525  valueLists */\n      0x00\n        /* \"contracts/task1/03 IntToRoman.sol\":515:529  valueLists[90] */\n      0x00\n        /* \"contracts/task1/03 IntToRoman.sol\":526:528  90 */\n      0x5a\n        /* \"contracts/task1/03 IntToRoman.sol\":515:529  valueLists[90] */\n      dup2\n      mstore\n      0x20\n      add\n      swap1\n      dup2\n      mstore\n      0x20\n      add\n      0x00\n      keccak256\n        /* \"contracts/task1/03 IntToRoman.sol\":515:536  valueLists[90] = \"XC\" */\n      swap1\n      dup2\n      tag_30\n      swap2\n      swap1\n      tag_23\n      jump\t// in\n    tag_30:\n      pop\n        /* \"contracts/task1/03 IntToRoman.sol\":547:568  valueLists[100] = \"C\" */\n      mload(0x40)\n      dup1\n      0x40\n      add\n      0x40\n      mstore\n      dup1\n      0x01\n      dup2\n      mstore\n      0x20\n      add\n      0x4300000000000000000000000000000000000000000000000000000000000000\n      dup2\n      mstore\n      pop\n        /* \"contracts/task1/03 IntToRoman.sol\":547:557  valueLists */\n      0x00\n        /* \"contracts/task1/03 IntToRoman.sol\":547:562  valueLists[100] */\n      0x00\n        /* \"contracts/task1/03 IntToRoman.sol\":558:561  100 */\n      0x64\n        /* \"contracts/task1/03 IntToRoman.sol\":547:562  valueLists[100] */\n      dup2\n      mstore\n      0x20\n      add\n      swap1\n      dup2\n      mstore\n      0x20\n      add\n      0x00\n      keccak256\n        /* \"contracts/task1/03 IntToRoman.sol\":547:568  valueLists[100] = \"C\" */\n      swap1\n      dup2\n      tag_31\n      swap2\n      swap1\n      tag_23\n      jump\t// in\n    tag_31:\n      pop\n        /* \"contracts/task1/03 IntToRoman.sol\":579:601  valueLists[400] = \"CD\" */\n      mload(0x40)\n      dup1\n      0x40\n      add\n      0x40\n      mstore\n      dup1\n      0x02\n      dup2\n      mstore\n      0x20\n      add\n      0x4344000000000000000000000000000000000000000000000000000000000000\n      dup2\n      mstore\n      pop\n        /* \"contracts/task1/03 IntToRoman.sol\":579:589  valueLists */\n      0x00\n        /* \"contracts/task1/03 IntToRoman.sol\":579:594  valueLists[400] */\n      0x00\n        /* \"contracts/task1/03 IntToRoman.sol\":590:593  400 */\n      0x0190\n        /* \"contracts/task1/03 IntToRoman.sol\":579:594  valueLists[400] */\n      dup2\n      mstore\n      0x20\n      add\n      swap1\n      dup2\n      mstore\n      0x20\n      add\n      0x00\n      keccak256\n        /* \"contracts/task1/03 IntToRoman.sol\":579:601  valueLists[400] = \"CD\" */\n      swap1\n      dup2\n      tag_32\n      swap2\n      swap1\n      tag_23\n      jump\t// in\n    tag_32:\n      pop\n        /* \"contracts/task1/03 IntToRoman.sol\":612:633  valueLists[500] = \"D\" */\n      mload(0x40)\n      dup1\n      0x40\n      add\n      0x40\n      mstore\n      dup1\n      0x01\n      dup2\n      mstore\n      0x20\n      add\n      0x4400000000000000000000000000000000000000000000000000000000000000\n      dup2\n      mstore\n      pop\n        /* \"contracts/task1/03 IntToRoman.sol\":612:622  valueLists */\n      0x00\n        /* \"contracts/task1/03 IntToRoman.sol\":612:627  valueLists[500] */\n      0x00\n        /* \"contracts/task1/03 IntToRoman.sol\":623:626  500 */\n      0x01f4\n        /* \"contracts/task1/03 IntToRoman.sol\":612:627  valueLists[500] */\n      dup2\n      mstore\n      0x20\n      add\n      swap1\n      dup2\n      mstore\n      0x20\n      add\n      0x00\n      keccak256\n        /* \"contracts/task1/03 IntToRoman.sol\":612:633  valueLists[500] = \"D\" */\n      swap1\n      dup2\n      tag_33\n      swap2\n      swap1\n      tag_23\n      jump\t// in\n    tag_33:\n      pop\n        /* \"contracts/task1/03 IntToRoman.sol\":644:666  valueLists[900] = \"CM\" */\n      mload(0x40)\n      dup1\n      0x40\n      add\n      0x40\n      mstore\n      dup1\n      0x02\n      dup2\n      mstore\n      0x20\n      add\n      0x434d000000000000000000000000000000000000000000000000000000000000\n      dup2\n      mstore\n      pop\n        /* \"contracts/task1/03 IntToRoman.sol\":644:654  valueLists */\n      0x00\n        /* \"contracts/task1/03 IntToRoman.sol\":644:659  valueLists[900] */\n      0x00\n        /* \"contracts/task1/03 IntToRoman.sol\":655:658  900 */\n      0x0384\n        /* \"contracts/task1/03 IntToRoman.sol\":644:659  valueLists[900] */\n      dup2\n      mstore\n      0x20\n      add\n      swap1\n      dup2\n      mstore\n      0x20\n      add\n      0x00\n      keccak256\n        /* \"contracts/task1/03 IntToRoman.sol\":644:666  valueLists[900] = \"CM\" */\n      swap1\n      dup2\n      tag_34\n      swap2\n      swap1\n      tag_23\n      jump\t// in\n    tag_34:\n      pop\n        /* \"contracts/task1/03 IntToRoman.sol\":677:699  valueLists[1000] = \"M\" */\n      mload(0x40)\n      dup1\n      0x40\n      add\n      0x40\n      mstore\n      dup1\n      0x01\n      dup2\n      mstore\n      0x20\n      add\n      0x4d00000000000000000000000000000000000000000000000000000000000000\n      dup2\n      mstore\n      pop\n        /* \"contracts/task1/03 IntToRoman.sol\":677:687  valueLists */\n      0x00\n        /* \"contracts/task1/03 IntToRoman.sol\":677:693  valueLists[1000] */\n      0x00\n        /* \"contracts/task1/03 IntToRoman.sol\":688:692  1000 */\n      0x03e8\n        /* \"contracts/task1/03 IntToRoman.sol\":677:693  valueLists[1000] */\n      dup2\n      mstore\n      0x20\n      add\n      swap1\n      dup2\n      mstore\n      0x20\n      add\n      0x00\n      keccak256\n        /* \"contracts/task1/03 IntToRoman.sol\":677:699  valueLists[1000] = \"M\" */\n      swap1\n      dup2\n      tag_35\n      swap2\n      swap1\n      tag_23\n      jump\t// in\n    tag_35:\n      pop\n        /* \"contracts/task1/03 IntToRoman.sol\":712:730  string memory str1 */\n      0x60\n        /* \"contracts/task1/03 IntToRoman.sol\":741:759  string memory str2 */\n      dup1\n        /* \"contracts/task1/03 IntToRoman.sol\":811:817  uint i */\n      0x00\n        /* \"contracts/task1/03 IntToRoman.sol\":820:822  10 */\n      0x0a\n        /* \"contracts/task1/03 IntToRoman.sol\":811:822  uint i = 10 */\n      swap1\n      pop\n        /* \"contracts/task1/03 IntToRoman.sol\":807:992  for(uint i = 10; _num != 0; i*=10){... */\n    tag_36:\n        /* \"contracts/task1/03 IntToRoman.sol\":832:833  0 */\n      0x00\n        /* \"contracts/task1/03 IntToRoman.sol\":824:828  _num */\n      dup6\n        /* \"contracts/task1/03 IntToRoman.sol\":824:833  _num != 0 */\n      eq\n        /* \"contracts/task1/03 IntToRoman.sol\":807:992  for(uint i = 10; _num != 0; i*=10){... */\n      tag_37\n      jumpi\n        /* \"contracts/task1/03 IntToRoman.sol\":869:870  0 */\n      0x00\n        /* \"contracts/task1/03 IntToRoman.sol\":864:865  i */\n      dup2\n        /* \"contracts/task1/03 IntToRoman.sol\":859:863  _num */\n      dup7\n        /* \"contracts/task1/03 IntToRoman.sol\":859:865  _num%i */\n      tag_39\n      swap2\n      swap1\n      tag_40\n      jump\t// in\n    tag_39:\n        /* \"contracts/task1/03 IntToRoman.sol\":859:870  _num%i == 0 */\n      sub\n        /* \"contracts/task1/03 IntToRoman.sol\":856:914  if(_num%i == 0){... */\n      iszero\n        /* \"contracts/task1/03 IntToRoman.sol\":890:898  continue */\n      tag_38\n        /* \"contracts/task1/03 IntToRoman.sol\":856:914  if(_num%i == 0){... */\n      jumpi\n        /* \"contracts/task1/03 IntToRoman.sol\":928:932  nums */\n      0x02\n        /* \"contracts/task1/03 IntToRoman.sol\":945:946  i */\n      dup2\n        /* \"contracts/task1/03 IntToRoman.sol\":938:942  _num */\n      dup7\n        /* \"contracts/task1/03 IntToRoman.sol\":938:946  _num % i */\n      tag_42\n      swap2\n      swap1\n      tag_40\n      jump\t// in\n    tag_42:\n        /* \"contracts/task1/03 IntToRoman.sol\":928:947  nums.push(_num % i) */\n      swap1\n      dup1\n      0x01\n      dup2\n      sload\n      add\n      dup1\n      dup3\n      sstore\n      dup1\n      swap2\n      pop\n      pop\n      0x01\n      swap1\n      sub\n      swap1\n      0x00\n      mstore\n      keccak256(0x00, 0x20)\n      add\n      0x00\n      swap1\n      swap2\n      swap1\n      swap2\n      swap1\n      swap2\n      pop\n      sstore\n        /* \"contracts/task1/03 IntToRoman.sol\":978:979  i */\n      dup1\n        /* \"contracts/task1/03 IntToRoman.sol\":971:975  _num */\n      dup6\n        /* \"contracts/task1/03 IntToRoman.sol\":971:979  _num % i */\n      tag_44\n      swap2\n      swap1\n      tag_40\n      jump\t// in\n    tag_44:\n        /* \"contracts/task1/03 IntToRoman.sol\":962:980  _num -= (_num % i) */\n      dup6\n      tag_45\n      swap2\n      swap1\n      tag_46\n      jump\t// in\n    tag_45:\n      swap5\n      pop\n        /* \"contracts/task1/03 IntToRoman.sol\":807:992  for(uint i = 10; _num != 0; i*=10){... */\n    tag_38:\n        /* \"contracts/task1/03 IntToRoman.sol\":838:840  10 */\n      0x0a\n        /* \"contracts/task1/03 IntToRoman.sol\":835:840  i*=10 */\n      dup2\n      tag_47\n      swap2\n      swap1\n      tag_48\n      jump\t// in\n    tag_47:\n      swap1\n      pop\n        /* \"contracts/task1/03 IntToRoman.sol\":807:992  for(uint i = 10; _num != 0; i*=10){... */\n      jump(tag_36)\n    tag_37:\n      pop\n        /* \"contracts/task1/03 IntToRoman.sol\":1048:1054  uint i */\n      0x00\n        /* \"contracts/task1/03 IntToRoman.sol\":1057:1058  0 */\n      0x00\n        /* \"contracts/task1/03 IntToRoman.sol\":1048:1058  uint i = 0 */\n      swap1\n      pop\n        /* \"contracts/task1/03 IntToRoman.sol\":1044:2025  for(uint i = 0; i < nums.length; i++){... */\n    tag_49:\n        /* \"contracts/task1/03 IntToRoman.sol\":1064:1068  nums */\n      0x02\n        /* \"contracts/task1/03 IntToRoman.sol\":1064:1075  nums.length */\n      dup1\n      sload\n      swap1\n      pop\n        /* \"contracts/task1/03 IntToRoman.sol\":1060:1061  i */\n      dup2\n        /* \"contracts/task1/03 IntToRoman.sol\":1060:1075  i < nums.length */\n      lt\n        /* \"contracts/task1/03 IntToRoman.sol\":1044:2025  for(uint i = 0; i < nums.length; i++){... */\n      iszero\n      tag_50\n      jumpi\n        /* \"contracts/task1/03 IntToRoman.sol\":1156:1162  uint j */\n      0x00\n        /* \"contracts/task1/03 IntToRoman.sol\":1165:1166  0 */\n      0x00\n        /* \"contracts/task1/03 IntToRoman.sol\":1156:1166  uint j = 0 */\n      swap1\n      pop\n        /* \"contracts/task1/03 IntToRoman.sol\":1152:1943  for(uint j = 0; j < values.length; ){... */\n    tag_52:\n        /* \"contracts/task1/03 IntToRoman.sol\":1172:1178  values */\n      0x01\n        /* \"contracts/task1/03 IntToRoman.sol\":1172:1185  values.length */\n      dup1\n      sload\n      swap1\n      pop\n        /* \"contracts/task1/03 IntToRoman.sol\":1168:1169  j */\n      dup2\n        /* \"contracts/task1/03 IntToRoman.sol\":1168:1185  j < values.length */\n      lt\n        /* \"contracts/task1/03 IntToRoman.sol\":1152:1943  for(uint j = 0; j < values.length; ){... */\n      iszero\n      tag_53\n      jumpi\n        /* \"contracts/task1/03 IntToRoman.sol\":1222:1228  values */\n      0x01\n        /* \"contracts/task1/03 IntToRoman.sol\":1229:1230  j */\n      dup2\n        /* \"contracts/task1/03 IntToRoman.sol\":1222:1231  values[j] */\n      dup2\n      sload\n      dup2\n      lt\n      tag_55\n      jumpi\n      tag_56\n      tag_57\n      jump\t// in\n    tag_56:\n    tag_55:\n      swap1\n      0x00\n      mstore\n      keccak256(0x00, 0x20)\n      add\n      sload\n        /* \"contracts/task1/03 IntToRoman.sol\":1211:1215  nums */\n      0x02\n        /* \"contracts/task1/03 IntToRoman.sol\":1216:1217  i */\n      dup4\n        /* \"contracts/task1/03 IntToRoman.sol\":1211:1218  nums[i] */\n      dup2\n      sload\n      dup2\n      lt\n      tag_59\n      jumpi\n      tag_60\n      tag_57\n      jump\t// in\n    tag_60:\n    tag_59:\n      swap1\n      0x00\n      mstore\n      keccak256(0x00, 0x20)\n      add\n      sload\n        /* \"contracts/task1/03 IntToRoman.sol\":1211:1231  nums[i] == values[j] */\n      sub\n        /* \"contracts/task1/03 IntToRoman.sol\":1207:1354  if (nums[i] == values[j]){... */\n      tag_62\n      jumpi\n        /* \"contracts/task1/03 IntToRoman.sol\":1276:1280  str1 */\n      dup4\n        /* \"contracts/task1/03 IntToRoman.sol\":1284:1294  valueLists */\n      0x00\n        /* \"contracts/task1/03 IntToRoman.sol\":1284:1305  valueLists[values[j]] */\n      0x00\n        /* \"contracts/task1/03 IntToRoman.sol\":1295:1301  values */\n      0x01\n        /* \"contracts/task1/03 IntToRoman.sol\":1302:1303  j */\n      dup5\n        /* \"contracts/task1/03 IntToRoman.sol\":1295:1304  values[j] */\n      dup2\n      sload\n      dup2\n      lt\n      tag_63\n      jumpi\n      tag_64\n      tag_57\n      jump\t// in\n    tag_64:\n    tag_63:\n      swap1\n      0x00\n      mstore\n      keccak256(0x00, 0x20)\n      add\n      sload\n        /* \"contracts/task1/03 IntToRoman.sol\":1284:1305  valueLists[values[j]] */\n      dup2\n      mstore\n      0x20\n      add\n      swap1\n      dup2\n      mstore\n      0x20\n      add\n      0x00\n      keccak256\n        /* \"contracts/task1/03 IntToRoman.sol\":1262:1306  string.concat(str1,\"\",valueLists[values[j]]) */\n      add(0x20, mload(0x40))\n      tag_66\n      swap3\n      swap2\n      swap1\n      tag_67\n      jump\t// in\n    tag_66:\n      mload(0x40)\n      0x20\n      dup2\n      dup4\n      sub\n      sub\n      dup2\n      mstore\n      swap1\n      0x40\n      mstore\n        /* \"contracts/task1/03 IntToRoman.sol\":1255:1306  str1 = string.concat(str1,\"\",valueLists[values[j]]) */\n      swap4\n      pop\n        /* \"contracts/task1/03 IntToRoman.sol\":1329:1334  break */\n      jump(tag_53)\n        /* \"contracts/task1/03 IntToRoman.sol\":1207:1354  if (nums[i] == values[j]){... */\n    tag_62:\n        /* \"contracts/task1/03 IntToRoman.sol\":1388:1394  values */\n      0x01\n        /* \"contracts/task1/03 IntToRoman.sol\":1395:1396  j */\n      dup2\n        /* \"contracts/task1/03 IntToRoman.sol\":1388:1397  values[j] */\n      dup2\n      sload\n      dup2\n      lt\n      tag_68\n      jumpi\n      tag_69\n      tag_57\n      jump\t// in\n    tag_69:\n    tag_68:\n      swap1\n      0x00\n      mstore\n      keccak256(0x00, 0x20)\n      add\n      sload\n        /* \"contracts/task1/03 IntToRoman.sol\":1378:1382  nums */\n      0x02\n        /* \"contracts/task1/03 IntToRoman.sol\":1383:1384  i */\n      dup4\n        /* \"contracts/task1/03 IntToRoman.sol\":1378:1385  nums[i] */\n      dup2\n      sload\n      dup2\n      lt\n      tag_71\n      jumpi\n      tag_72\n      tag_57\n      jump\t// in\n    tag_72:\n    tag_71:\n      swap1\n      0x00\n      mstore\n      keccak256(0x00, 0x20)\n      add\n      sload\n        /* \"contracts/task1/03 IntToRoman.sol\":1378:1397  nums[i] < values[j] */\n      lt\n        /* \"contracts/task1/03 IntToRoman.sol\":1374:1599  if (nums[i] < values[j]){... */\n      iszero\n      tag_74\n      jumpi\n        /* \"contracts/task1/03 IntToRoman.sol\":1432:1438  values */\n      0x01\n        /* \"contracts/task1/03 IntToRoman.sol\":1441:1442  1 */\n      dup1\n        /* \"contracts/task1/03 IntToRoman.sol\":1439:1440  j */\n      dup3\n        /* \"contracts/task1/03 IntToRoman.sol\":1439:1442  j-1 */\n      tag_75\n      swap2\n      swap1\n      tag_46\n      jump\t// in\n    tag_75:\n        /* \"contracts/task1/03 IntToRoman.sol\":1432:1443  values[j-1] */\n      dup2\n      sload\n      dup2\n      lt\n      tag_76\n      jumpi\n      tag_77\n      tag_57\n      jump\t// in\n    tag_77:\n    tag_76:\n      swap1\n      0x00\n      mstore\n      keccak256(0x00, 0x20)\n      add\n      sload\n        /* \"contracts/task1/03 IntToRoman.sol\":1421:1425  nums */\n      0x02\n        /* \"contracts/task1/03 IntToRoman.sol\":1426:1427  i */\n      dup4\n        /* \"contracts/task1/03 IntToRoman.sol\":1421:1428  nums[i] */\n      dup2\n      sload\n      dup2\n      lt\n      tag_79\n      jumpi\n      tag_80\n      tag_57\n      jump\t// in\n    tag_80:\n    tag_79:\n      swap1\n      0x00\n      mstore\n      keccak256(0x00, 0x20)\n      add\n      0x00\n        /* \"contracts/task1/03 IntToRoman.sol\":1421:1443  nums[i] -= values[j-1] */\n      dup3\n      dup3\n      sload\n      tag_82\n      swap2\n      swap1\n      tag_46\n      jump\t// in\n    tag_82:\n      swap3\n      pop\n      pop\n      dup2\n      swap1\n      sstore\n      pop\n        /* \"contracts/task1/03 IntToRoman.sol\":1487:1491  str1 */\n      dup4\n        /* \"contracts/task1/03 IntToRoman.sol\":1495:1505  valueLists */\n      0x00\n        /* \"contracts/task1/03 IntToRoman.sol\":1495:1518  valueLists[values[j-1]] */\n      0x00\n        /* \"contracts/task1/03 IntToRoman.sol\":1506:1512  values */\n      0x01\n        /* \"contracts/task1/03 IntToRoman.sol\":1515:1516  1 */\n      dup1\n        /* \"contracts/task1/03 IntToRoman.sol\":1513:1514  j */\n      dup6\n        /* \"contracts/task1/03 IntToRoman.sol\":1513:1516  j-1 */\n      tag_83\n      swap2\n      swap1\n      tag_46\n      jump\t// in\n    tag_83:\n        /* \"contracts/task1/03 IntToRoman.sol\":1506:1517  values[j-1] */\n      dup2\n      sload\n      dup2\n      lt\n      tag_84\n      jumpi\n      tag_85\n      tag_57\n      jump\t// in\n    tag_85:\n    tag_84:\n      swap1\n      0x00\n      mstore\n      keccak256(0x00, 0x20)\n      add\n      sload\n        /* \"contracts/task1/03 IntToRoman.sol\":1495:1518  valueLists[values[j-1]] */\n      dup2\n      mstore\n      0x20\n      add\n      swap1\n      dup2\n      mstore\n      0x20\n      add\n      0x00\n      keccak256\n        /* \"contracts/task1/03 IntToRoman.sol\":1473:1519  string.concat(str1,\"\",valueLists[values[j-1]]) */\n      add(0x20, mload(0x40))\n      tag_87\n      swap3\n      swap2\n      swap1\n      tag_67\n      jump\t// in\n    tag_87:\n      mload(0x40)\n      0x20\n      dup2\n      dup4\n      sub\n      sub\n      dup2\n      mstore\n      swap1\n      0x40\n      mstore\n        /* \"contracts/task1/03 IntToRoman.sol\":1466:1519  str1 = string.concat(str1,\"\",valueLists[values[j-1]]) */\n      swap4\n      pop\n        /* \"contracts/task1/03 IntToRoman.sol\":1546:1547  0 */\n      0x00\n        /* \"contracts/task1/03 IntToRoman.sol\":1542:1547  j = 0 */\n      swap1\n      pop\n        /* \"contracts/task1/03 IntToRoman.sol\":1570:1578  continue */\n      jump(tag_54)\n        /* \"contracts/task1/03 IntToRoman.sol\":1374:1599  if (nums[i] < values[j]){... */\n    tag_74:\n        /* \"contracts/task1/03 IntToRoman.sol\":1642:1643  1 */\n      0x01\n        /* \"contracts/task1/03 IntToRoman.sol\":1628:1634  values */\n      dup1\n        /* \"contracts/task1/03 IntToRoman.sol\":1628:1641  values.length */\n      dup1\n      sload\n      swap1\n      pop\n        /* \"contracts/task1/03 IntToRoman.sol\":1628:1643  values.length-1 */\n      tag_88\n      swap2\n      swap1\n      tag_46\n      jump\t// in\n    tag_88:\n        /* \"contracts/task1/03 IntToRoman.sol\":1623:1624  j */\n      dup2\n        /* \"contracts/task1/03 IntToRoman.sol\":1623:1643  j == values.length-1 */\n      sub\n        /* \"contracts/task1/03 IntToRoman.sol\":1619:1813  if (j == values.length-1){... */\n      tag_89\n      jumpi\n        /* \"contracts/task1/03 IntToRoman.sol\":1678:1684  values */\n      0x01\n        /* \"contracts/task1/03 IntToRoman.sol\":1685:1686  j */\n      dup2\n        /* \"contracts/task1/03 IntToRoman.sol\":1678:1687  values[j] */\n      dup2\n      sload\n      dup2\n      lt\n      tag_90\n      jumpi\n      tag_91\n      tag_57\n      jump\t// in\n    tag_91:\n    tag_90:\n      swap1\n      0x00\n      mstore\n      keccak256(0x00, 0x20)\n      add\n      sload\n        /* \"contracts/task1/03 IntToRoman.sol\":1667:1671  nums */\n      0x02\n        /* \"contracts/task1/03 IntToRoman.sol\":1672:1673  i */\n      dup4\n        /* \"contracts/task1/03 IntToRoman.sol\":1667:1674  nums[i] */\n      dup2\n      sload\n      dup2\n      lt\n      tag_93\n      jumpi\n      tag_94\n      tag_57\n      jump\t// in\n    tag_94:\n    tag_93:\n      swap1\n      0x00\n      mstore\n      keccak256(0x00, 0x20)\n      add\n      0x00\n        /* \"contracts/task1/03 IntToRoman.sol\":1667:1687  nums[i] -= values[j] */\n      dup3\n      dup3\n      sload\n      tag_96\n      swap2\n      swap1\n      tag_46\n      jump\t// in\n    tag_96:\n      swap3\n      pop\n      pop\n      dup2\n      swap1\n      sstore\n      pop\n        /* \"contracts/task1/03 IntToRoman.sol\":1731:1735  str1 */\n      dup4\n        /* \"contracts/task1/03 IntToRoman.sol\":1739:1749  valueLists */\n      0x00\n        /* \"contracts/task1/03 IntToRoman.sol\":1739:1760  valueLists[values[j]] */\n      0x00\n        /* \"contracts/task1/03 IntToRoman.sol\":1750:1756  values */\n      0x01\n        /* \"contracts/task1/03 IntToRoman.sol\":1757:1758  j */\n      dup5\n        /* \"contracts/task1/03 IntToRoman.sol\":1750:1759  values[j] */\n      dup2\n      sload\n      dup2\n      lt\n      tag_97\n      jumpi\n      tag_98\n      tag_57\n      jump\t// in\n    tag_98:\n    tag_97:\n      swap1\n      0x00\n      mstore\n      keccak256(0x00, 0x20)\n      add\n      sload\n        /* \"contracts/task1/03 IntToRoman.sol\":1739:1760  valueLists[values[j]] */\n      dup2\n      mstore\n      0x20\n      add\n      swap1\n      dup2\n      mstore\n      0x20\n      add\n      0x00\n      keccak256\n        /* \"contracts/task1/03 IntToRoman.sol\":1717:1761  string.concat(str1,\"\",valueLists[values[j]]) */\n      add(0x20, mload(0x40))\n      tag_100\n      swap3\n      swap2\n      swap1\n      tag_67\n      jump\t// in\n    tag_100:\n      mload(0x40)\n      0x20\n      dup2\n      dup4\n      sub\n      sub\n      dup2\n      mstore\n      swap1\n      0x40\n      mstore\n        /* \"contracts/task1/03 IntToRoman.sol\":1710:1761  str1 = string.concat(str1,\"\",valueLists[values[j]]) */\n      swap4\n      pop\n        /* \"contracts/task1/03 IntToRoman.sol\":1784:1792  continue */\n      jump(tag_54)\n        /* \"contracts/task1/03 IntToRoman.sol\":1619:1813  if (j == values.length-1){... */\n    tag_89:\n        /* \"contracts/task1/03 IntToRoman.sol\":1845:1851  values */\n      0x01\n        /* \"contracts/task1/03 IntToRoman.sol\":1852:1853  j */\n      dup2\n        /* \"contracts/task1/03 IntToRoman.sol\":1845:1854  values[j] */\n      dup2\n      sload\n      dup2\n      lt\n      tag_101\n      jumpi\n      tag_102\n      tag_57\n      jump\t// in\n    tag_102:\n    tag_101:\n      swap1\n      0x00\n      mstore\n      keccak256(0x00, 0x20)\n      add\n      sload\n        /* \"contracts/task1/03 IntToRoman.sol\":1835:1839  nums */\n      0x02\n        /* \"contracts/task1/03 IntToRoman.sol\":1840:1841  i */\n      dup4\n        /* \"contracts/task1/03 IntToRoman.sol\":1835:1842  nums[i] */\n      dup2\n      sload\n      dup2\n      lt\n      tag_104\n      jumpi\n      tag_105\n      tag_57\n      jump\t// in\n    tag_105:\n    tag_104:\n      swap1\n      0x00\n      mstore\n      keccak256(0x00, 0x20)\n      add\n      sload\n        /* \"contracts/task1/03 IntToRoman.sol\":1835:1854  nums[i] > values[j] */\n      gt\n        /* \"contracts/task1/03 IntToRoman.sol\":1835:1879  nums[i] > values[j] && j < (values.length-1) */\n      dup1\n      iszero\n      tag_107\n      jumpi\n      pop\n        /* \"contracts/task1/03 IntToRoman.sol\":1877:1878  1 */\n      0x01\n        /* \"contracts/task1/03 IntToRoman.sol\":1863:1869  values */\n      dup1\n        /* \"contracts/task1/03 IntToRoman.sol\":1863:1876  values.length */\n      dup1\n      sload\n      swap1\n      pop\n        /* \"contracts/task1/03 IntToRoman.sol\":1863:1878  values.length-1 */\n      tag_108\n      swap2\n      swap1\n      tag_46\n      jump\t// in\n    tag_108:\n        /* \"contracts/task1/03 IntToRoman.sol\":1858:1859  j */\n      dup2\n        /* \"contracts/task1/03 IntToRoman.sol\":1858:1879  j < (values.length-1) */\n      lt\n        /* \"contracts/task1/03 IntToRoman.sol\":1835:1879  nums[i] > values[j] && j < (values.length-1) */\n    tag_107:\n        /* \"contracts/task1/03 IntToRoman.sol\":1831:1926  if (nums[i] > values[j] && j < (values.length-1)){... */\n      iszero\n      tag_109\n      jumpi\n        /* \"contracts/task1/03 IntToRoman.sol\":1903:1906  j++ */\n      dup1\n      dup1\n      tag_110\n      swap1\n      tag_111\n      jump\t// in\n    tag_110:\n      swap2\n      pop\n      pop\n        /* \"contracts/task1/03 IntToRoman.sol\":1831:1926  if (nums[i] > values[j] && j < (values.length-1)){... */\n    tag_109:\n        /* \"contracts/task1/03 IntToRoman.sol\":1152:1943  for(uint j = 0; j < values.length; ){... */\n    tag_54:\n      jump(tag_52)\n    tag_53:\n      pop\n        /* \"contracts/task1/03 IntToRoman.sol\":1978:1982  str1 */\n      dup3\n        /* \"contracts/task1/03 IntToRoman.sol\":1984:1988  str2 */\n      dup3\n        /* \"contracts/task1/03 IntToRoman.sol\":1964:1989  string.concat(str1, str2) */\n      add(0x20, mload(0x40))\n      tag_112\n      swap3\n      swap2\n      swap1\n      tag_113\n      jump\t// in\n    tag_112:\n      mload(0x40)\n      0x20\n      dup2\n      dup4\n      sub\n      sub\n      dup2\n      mstore\n      swap1\n      0x40\n      mstore\n        /* \"contracts/task1/03 IntToRoman.sol\":1957:1989  str2 = string.concat(str1, str2) */\n      swap2\n      pop\n        /* \"contracts/task1/03 IntToRoman.sol\":2004:2013  str1 = \"\" */\n      mload(0x40)\n      dup1\n      0x20\n      add\n      0x40\n      mstore\n      dup1\n      0x00\n      dup2\n      mstore\n      pop\n      swap3\n      pop\n        /* \"contracts/task1/03 IntToRoman.sol\":1077:1080  i++ */\n      dup1\n      dup1\n      0x01\n      add\n      swap2\n      pop\n      pop\n        /* \"contracts/task1/03 IntToRoman.sol\":1044:2025  for(uint i = 0; i < nums.length; i++){... */\n      jump(tag_49)\n    tag_50:\n      pop\n        /* \"contracts/task1/03 IntToRoman.sol\":2042:2046  nums */\n      0x02\n      0x00\n        /* \"contracts/task1/03 IntToRoman.sol\":2035:2046  delete nums */\n      tag_114\n      swap2\n      swap1\n      tag_115\n      jump\t// in\n    tag_114:\n        /* \"contracts/task1/03 IntToRoman.sol\":2064:2068  str2 */\n      dup1\n        /* \"contracts/task1/03 IntToRoman.sol\":2057:2068  return str2 */\n      swap3\n      pop\n      pop\n      pop\n        /* \"contracts/task1/03 IntToRoman.sol\":227:2076  function intToRoman(uint _num) public returns (string memory){... */\n      swap2\n      swap1\n      pop\n      jump\t// out\n        /* \"contracts/task1/03 IntToRoman.sol\":87:129  mapping (uint => string) public valueLists */\n    tag_14:\n      mstore(0x20, 0x00)\n      dup1\n      0x00\n      mstore\n      keccak256(0x00, 0x40)\n      0x00\n      swap2\n      pop\n      swap1\n      pop\n      dup1\n      sload\n      tag_116\n      swap1\n      tag_117\n      jump\t// in\n    tag_116:\n      dup1\n      0x1f\n      add\n      0x20\n      dup1\n      swap2\n      div\n      mul\n      0x20\n      add\n      mload(0x40)\n      swap1\n      dup2\n      add\n      0x40\n      mstore\n      dup1\n      swap3\n      swap2\n      swap1\n      dup2\n      dup2\n      mstore\n      0x20\n      add\n      dup3\n      dup1\n      sload\n      tag_118\n      swap1\n      tag_117\n      jump\t// in\n    tag_118:\n      dup1\n      iszero\n      tag_119\n      jumpi\n      dup1\n      0x1f\n      lt\n      tag_120\n      jumpi\n      0x0100\n      dup1\n      dup4\n      sload\n      div\n      mul\n      dup4\n      mstore\n      swap2\n      0x20\n      add\n      swap2\n      jump(tag_119)\n    tag_120:\n      dup3\n      add\n      swap2\n      swap1\n      0x00\n      mstore\n      keccak256(0x00, 0x20)\n      swap1\n    tag_121:\n      dup2\n      sload\n      dup2\n      mstore\n      swap1\n      0x01\n      add\n      swap1\n      0x20\n      add\n      dup1\n      dup4\n      gt\n      tag_121\n      jumpi\n      dup3\n      swap1\n      sub\n      0x1f\n      and\n      dup3\n      add\n      swap2\n    tag_119:\n      pop\n      pop\n      pop\n      pop\n      pop\n      dup2\n      jump\t// out\n        /* \"contracts/task1/03 IntToRoman.sol\":201:220  uint[] public  nums */\n    tag_18:\n      0x02\n      dup2\n      dup2\n      sload\n      dup2\n      lt\n      tag_122\n      jumpi\n      0x00\n      dup1\n      revert\n    tag_122:\n      swap1\n      0x00\n      mstore\n      keccak256(0x00, 0x20)\n      add\n      0x00\n      swap2\n      pop\n      swap1\n      pop\n      sload\n      dup2\n      jump\t// out\n    tag_115:\n      pop\n      dup1\n      sload\n      0x00\n      dup3\n      sstore\n      swap1\n      0x00\n      mstore\n      keccak256(0x00, 0x20)\n      swap1\n      dup2\n      add\n      swap1\n      tag_125\n      swap2\n      swap1\n      tag_126\n      jump\t// in\n    tag_125:\n      pop\n      jump\t// out\n    tag_126:\n    tag_127:\n      dup1\n      dup3\n      gt\n      iszero\n      tag_128\n      jumpi\n      0x00\n      dup2\n      0x00\n      swap1\n      sstore\n      pop\n      0x01\n      add\n      jump(tag_127)\n    tag_128:\n      pop\n      swap1\n      jump\t// out\n        /* \"#utility.yul\":88:205   */\n    tag_130:\n        /* \"#utility.yul\":197:198   */\n      0x00\n        /* \"#utility.yul\":194:195   */\n      0x00\n        /* \"#utility.yul\":187:199   */\n      revert\n        /* \"#utility.yul\":334:411   */\n    tag_132:\n        /* \"#utility.yul\":371:378   */\n      0x00\n        /* \"#utility.yul\":400:405   */\n      dup2\n        /* \"#utility.yul\":389:405   */\n      swap1\n      pop\n        /* \"#utility.yul\":334:411   */\n      swap2\n      swap1\n      pop\n      jump\t// out\n        /* \"#utility.yul\":417:539   */\n    tag_133:\n        /* \"#utility.yul\":490:514   */\n      tag_171\n        /* \"#utility.yul\":508:513   */\n      dup2\n        /* \"#utility.yul\":490:514   */\n      tag_132\n      jump\t// in\n    tag_171:\n        /* \"#utility.yul\":483:488   */\n      dup2\n        /* \"#utility.yul\":480:515   */\n      eq\n        /* \"#utility.yul\":470:533   */\n      tag_172\n      jumpi\n        /* \"#utility.yul\":529:530   */\n      0x00\n        /* \"#utility.yul\":526:527   */\n      0x00\n        /* \"#utility.yul\":519:531   */\n      revert\n        /* \"#utility.yul\":470:533   */\n    tag_172:\n        /* \"#utility.yul\":417:539   */\n      pop\n      jump\t// out\n        /* \"#utility.yul\":545:684   */\n    tag_134:\n        /* \"#utility.yul\":591:596   */\n      0x00\n        /* \"#utility.yul\":629:635   */\n      dup2\n        /* \"#utility.yul\":616:636   */\n      calldataload\n        /* \"#utility.yul\":607:636   */\n      swap1\n      pop\n        /* \"#utility.yul\":645:678   */\n      tag_174\n        /* \"#utility.yul\":672:677   */\n      dup2\n        /* \"#utility.yul\":645:678   */\n      tag_133\n      jump\t// in\n    tag_174:\n        /* \"#utility.yul\":545:684   */\n      swap3\n      swap2\n      pop\n      pop\n      jump\t// out\n        /* \"#utility.yul\":690:1019   */\n    tag_8:\n        /* \"#utility.yul\":749:755   */\n      0x00\n        /* \"#utility.yul\":798:800   */\n      0x20\n        /* \"#utility.yul\":786:795   */\n      dup3\n        /* \"#utility.yul\":777:784   */\n      dup5\n        /* \"#utility.yul\":773:796   */\n      sub\n        /* \"#utility.yul\":769:801   */\n      slt\n        /* \"#utility.yul\":766:885   */\n      iszero\n      tag_176\n      jumpi\n        /* \"#utility.yul\":804:883   */\n      tag_177\n      tag_130\n      jump\t// in\n    tag_177:\n        /* \"#utility.yul\":766:885   */\n    tag_176:\n        /* \"#utility.yul\":924:925   */\n      0x00\n        /* \"#utility.yul\":949:1002   */\n      tag_178\n        /* \"#utility.yul\":994:1001   */\n      dup5\n        /* \"#utility.yul\":985:991   */\n      dup3\n        /* \"#utility.yul\":974:983   */\n      dup6\n        /* \"#utility.yul\":970:992   */\n      add\n        /* \"#utility.yul\":949:1002   */\n      tag_134\n      jump\t// in\n    tag_178:\n        /* \"#utility.yul\":939:1002   */\n      swap2\n      pop\n        /* \"#utility.yul\":895:1012   */\n      pop\n        /* \"#utility.yul\":690:1019   */\n      swap3\n      swap2\n      pop\n      pop\n      jump\t// out\n        /* \"#utility.yul\":1025:1124   */\n    tag_135:\n        /* \"#utility.yul\":1077:1083   */\n      0x00\n        /* \"#utility.yul\":1111:1116   */\n      dup2\n        /* \"#utility.yul\":1105:1117   */\n      mload\n        /* \"#utility.yul\":1095:1117   */\n      swap1\n      pop\n        /* \"#utility.yul\":1025:1124   */\n      swap2\n      swap1\n      pop\n      jump\t// out\n        /* \"#utility.yul\":1130:1299   */\n    tag_136:\n        /* \"#utility.yul\":1214:1225   */\n      0x00\n        /* \"#utility.yul\":1248:1254   */\n      dup3\n        /* \"#utility.yul\":1243:1246   */\n      dup3\n        /* \"#utility.yul\":1236:1255   */\n      mstore\n        /* \"#utility.yul\":1288:1292   */\n      0x20\n        /* \"#utility.yul\":1283:1286   */\n      dup3\n        /* \"#utility.yul\":1279:1293   */\n      add\n        /* \"#utility.yul\":1264:1293   */\n      swap1\n      pop\n        /* \"#utility.yul\":1130:1299   */\n      swap3\n      swap2\n      pop\n      pop\n      jump\t// out\n        /* \"#utility.yul\":1305:1444   */\n    tag_137:\n        /* \"#utility.yul\":1394:1400   */\n      dup3\n        /* \"#utility.yul\":1389:1392   */\n      dup2\n        /* \"#utility.yul\":1384:1387   */\n      dup4\n        /* \"#utility.yul\":1378:1401   */\n      mcopy\n        /* \"#utility.yul\":1435:1436   */\n      0x00\n        /* \"#utility.yul\":1426:1432   */\n      dup4\n        /* \"#utility.yul\":1421:1424   */\n      dup4\n        /* \"#utility.yul\":1417:1433   */\n      add\n        /* \"#utility.yul\":1410:1437   */\n      mstore\n        /* \"#utility.yul\":1305:1444   */\n      pop\n      pop\n      pop\n      jump\t// out\n        /* \"#utility.yul\":1450:1552   */\n    tag_138:\n        /* \"#utility.yul\":1491:1497   */\n      0x00\n        /* \"#utility.yul\":1542:1544   */\n      0x1f\n        /* \"#utility.yul\":1538:1545   */\n      not\n        /* \"#utility.yul\":1533:1535   */\n      0x1f\n        /* \"#utility.yul\":1526:1531   */\n      dup4\n        /* \"#utility.yul\":1522:1536   */\n      add\n        /* \"#utility.yul\":1518:1546   */\n      and\n        /* \"#utility.yul\":1508:1546   */\n      swap1\n      pop\n        /* \"#utility.yul\":1450:1552   */\n      swap2\n      swap1\n      pop\n      jump\t// out\n        /* \"#utility.yul\":1558:1935   */\n    tag_139:\n        /* \"#utility.yul\":1646:1649   */\n      0x00\n        /* \"#utility.yul\":1674:1713   */\n      tag_184\n        /* \"#utility.yul\":1707:1712   */\n      dup3\n        /* \"#utility.yul\":1674:1713   */\n      tag_135\n      jump\t// in\n    tag_184:\n        /* \"#utility.yul\":1729:1800   */\n      tag_185\n        /* \"#utility.yul\":1793:1799   */\n      dup2\n        /* \"#utility.yul\":1788:1791   */\n      dup6\n        /* \"#utility.yul\":1729:1800   */\n      tag_136\n      jump\t// in\n    tag_185:\n        /* \"#utility.yul\":1722:1800   */\n      swap4\n      pop\n        /* \"#utility.yul\":1809:1874   */\n      tag_186\n        /* \"#utility.yul\":1867:1873   */\n      dup2\n        /* \"#utility.yul\":1862:1865   */\n      dup6\n        /* \"#utility.yul\":1855:1859   */\n      0x20\n        /* \"#utility.yul\":1848:1853   */\n      dup7\n        /* \"#utility.yul\":1844:1860   */\n      add\n        /* \"#utility.yul\":1809:1874   */\n      tag_137\n      jump\t// in\n    tag_186:\n        /* \"#utility.yul\":1899:1928   */\n      tag_187\n        /* \"#utility.yul\":1921:1927   */\n      dup2\n        /* \"#utility.yul\":1899:1928   */\n      tag_138\n      jump\t// in\n    tag_187:\n        /* \"#utility.yul\":1894:1897   */\n      dup5\n        /* \"#utility.yul\":1890:1929   */\n      add\n        /* \"#utility.yul\":1883:1929   */\n      swap2\n      pop\n        /* \"#utility.yul\":1650:1935   */\n      pop\n        /* \"#utility.yul\":1558:1935   */\n      swap3\n      swap2\n      pop\n      pop\n      jump\t// out\n        /* \"#utility.yul\":1941:2254   */\n    tag_11:\n        /* \"#utility.yul\":2054:2058   */\n      0x00\n        /* \"#utility.yul\":2092:2094   */\n      0x20\n        /* \"#utility.yul\":2081:2090   */\n      dup3\n        /* \"#utility.yul\":2077:2095   */\n      add\n        /* \"#utility.yul\":2069:2095   */\n      swap1\n      pop\n        /* \"#utility.yul\":2141:2150   */\n      dup2\n        /* \"#utility.yul\":2135:2139   */\n      dup2\n        /* \"#utility.yul\":2131:2151   */\n      sub\n        /* \"#utility.yul\":2127:2128   */\n      0x00\n        /* \"#utility.yul\":2116:2125   */\n      dup4\n        /* \"#utility.yul\":2112:2129   */\n      add\n        /* \"#utility.yul\":2105:2152   */\n      mstore\n        /* \"#utility.yul\":2169:2247   */\n      tag_189\n        /* \"#utility.yul\":2242:2246   */\n      dup2\n        /* \"#utility.yul\":2233:2239   */\n      dup5\n        /* \"#utility.yul\":2169:2247   */\n      tag_139\n      jump\t// in\n    tag_189:\n        /* \"#utility.yul\":2161:2247   */\n      swap1\n      pop\n        /* \"#utility.yul\":1941:2254   */\n      swap3\n      swap2\n      pop\n      pop\n      jump\t// out\n        /* \"#utility.yul\":2260:2378   */\n    tag_140:\n        /* \"#utility.yul\":2347:2371   */\n      tag_191\n        /* \"#utility.yul\":2365:2370   */\n      dup2\n        /* \"#utility.yul\":2347:2371   */\n      tag_132\n      jump\t// in\n    tag_191:\n        /* \"#utility.yul\":2342:2345   */\n      dup3\n        /* \"#utility.yul\":2335:2372   */\n      mstore\n        /* \"#utility.yul\":2260:2378   */\n      pop\n      pop\n      jump\t// out\n        /* \"#utility.yul\":2384:2606   */\n    tag_20:\n        /* \"#utility.yul\":2477:2481   */\n      0x00\n        /* \"#utility.yul\":2515:2517   */\n      0x20\n        /* \"#utility.yul\":2504:2513   */\n      dup3\n        /* \"#utility.yul\":2500:2518   */\n      add\n        /* \"#utility.yul\":2492:2518   */\n      swap1\n      pop\n        /* \"#utility.yul\":2528:2599   */\n      tag_193\n        /* \"#utility.yul\":2596:2597   */\n      0x00\n        /* \"#utility.yul\":2585:2594   */\n      dup4\n        /* \"#utility.yul\":2581:2598   */\n      add\n        /* \"#utility.yul\":2572:2578   */\n      dup5\n        /* \"#utility.yul\":2528:2599   */\n      tag_140\n      jump\t// in\n    tag_193:\n        /* \"#utility.yul\":2384:2606   */\n      swap3\n      swap2\n      pop\n      pop\n      jump\t// out\n        /* \"#utility.yul\":2612:2792   */\n    tag_141:\n        /* \"#utility.yul\":2660:2737   */\n      0x4e487b7100000000000000000000000000000000000000000000000000000000\n        /* \"#utility.yul\":2657:2658   */\n      0x00\n        /* \"#utility.yul\":2650:2738   */\n      mstore\n        /* \"#utility.yul\":2757:2761   */\n      0x41\n        /* \"#utility.yul\":2754:2755   */\n      0x04\n        /* \"#utility.yul\":2747:2762   */\n      mstore\n        /* \"#utility.yul\":2781:2785   */\n      0x24\n        /* \"#utility.yul\":2778:2779   */\n      0x00\n        /* \"#utility.yul\":2771:2786   */\n      revert\n        /* \"#utility.yul\":2798:2978   */\n    tag_142:\n        /* \"#utility.yul\":2846:2923   */\n      0x4e487b7100000000000000000000000000000000000000000000000000000000\n        /* \"#utility.yul\":2843:2844   */\n      0x00\n        /* \"#utility.yul\":2836:2924   */\n      mstore\n        /* \"#utility.yul\":2943:2947   */\n      0x22\n        /* \"#utility.yul\":2940:2941   */\n      0x04\n        /* \"#utility.yul\":2933:2948   */\n      mstore\n        /* \"#utility.yul\":2967:2971   */\n      0x24\n        /* \"#utility.yul\":2964:2965   */\n      0x00\n        /* \"#utility.yul\":2957:2972   */\n      revert\n        /* \"#utility.yul\":2984:3304   */\n    tag_117:\n        /* \"#utility.yul\":3028:3034   */\n      0x00\n        /* \"#utility.yul\":3065:3066   */\n      0x02\n        /* \"#utility.yul\":3059:3063   */\n      dup3\n        /* \"#utility.yul\":3055:3067   */\n      div\n        /* \"#utility.yul\":3045:3067   */\n      swap1\n      pop\n        /* \"#utility.yul\":3112:3113   */\n      0x01\n        /* \"#utility.yul\":3106:3110   */\n      dup3\n        /* \"#utility.yul\":3102:3114   */\n      and\n        /* \"#utility.yul\":3133:3151   */\n      dup1\n        /* \"#utility.yul\":3123:3204   */\n      tag_197\n      jumpi\n        /* \"#utility.yul\":3189:3193   */\n      0x7f\n        /* \"#utility.yul\":3181:3187   */\n      dup3\n        /* \"#utility.yul\":3177:3194   */\n      and\n        /* \"#utility.yul\":3167:3194   */\n      swap2\n      pop\n        /* \"#utility.yul\":3123:3204   */\n    tag_197:\n        /* \"#utility.yul\":3251:3253   */\n      0x20\n        /* \"#utility.yul\":3243:3249   */\n      dup3\n        /* \"#utility.yul\":3240:3254   */\n      lt\n        /* \"#utility.yul\":3220:3238   */\n      dup2\n        /* \"#utility.yul\":3217:3255   */\n      sub\n        /* \"#utility.yul\":3214:3298   */\n      tag_198\n      jumpi\n        /* \"#utility.yul\":3270:3288   */\n      tag_199\n      tag_142\n      jump\t// in\n    tag_199:\n        /* \"#utility.yul\":3214:3298   */\n    tag_198:\n        /* \"#utility.yul\":3035:3304   */\n      pop\n        /* \"#utility.yul\":2984:3304   */\n      swap2\n      swap1\n      pop\n      jump\t// out\n        /* \"#utility.yul\":3310:3451   */\n    tag_143:\n        /* \"#utility.yul\":3359:3363   */\n      0x00\n        /* \"#utility.yul\":3382:3385   */\n      dup2\n        /* \"#utility.yul\":3374:3385   */\n      swap1\n      pop\n        /* \"#utility.yul\":3405:3408   */\n      dup2\n        /* \"#utility.yul\":3402:3403   */\n      0x00\n        /* \"#utility.yul\":3395:3409   */\n      mstore\n        /* \"#utility.yul\":3439:3443   */\n      0x20\n        /* \"#utility.yul\":3436:3437   */\n      0x00\n        /* \"#utility.yul\":3426:3444   */\n      keccak256\n        /* \"#utility.yul\":3418:3444   */\n      swap1\n      pop\n        /* \"#utility.yul\":3310:3451   */\n      swap2\n      swap1\n      pop\n      jump\t// out\n        /* \"#utility.yul\":3457:3550   */\n    tag_144:\n        /* \"#utility.yul\":3494:3500   */\n      0x00\n        /* \"#utility.yul\":3541:3543   */\n      0x20\n        /* \"#utility.yul\":3536:3538   */\n      0x1f\n        /* \"#utility.yul\":3529:3534   */\n      dup4\n        /* \"#utility.yul\":3525:3539   */\n      add\n        /* \"#utility.yul\":3521:3544   */\n      div\n        /* \"#utility.yul\":3511:3544   */\n      swap1\n      pop\n        /* \"#utility.yul\":3457:3550   */\n      swap2\n      swap1\n      pop\n      jump\t// out\n        /* \"#utility.yul\":3556:3663   */\n    tag_145:\n        /* \"#utility.yul\":3600:3608   */\n      0x00\n        /* \"#utility.yul\":3650:3655   */\n      dup3\n        /* \"#utility.yul\":3644:3648   */\n      dup3\n        /* \"#utility.yul\":3640:3656   */\n      shl\n        /* \"#utility.yul\":3619:3656   */\n      swap1\n      pop\n        /* \"#utility.yul\":3556:3663   */\n      swap3\n      swap2\n      pop\n      pop\n      jump\t// out\n        /* \"#utility.yul\":3669:4062   */\n    tag_146:\n        /* \"#utility.yul\":3738:3744   */\n      0x00\n        /* \"#utility.yul\":3788:3789   */\n      0x08\n        /* \"#utility.yul\":3776:3786   */\n      dup4\n        /* \"#utility.yul\":3772:3790   */\n      mul\n        /* \"#utility.yul\":3811:3908   */\n      tag_204\n        /* \"#utility.yul\":3841:3907   */\n      0xffffffffffffffffffffffffffffffffffffffffffffffffffffffffffffffff\n        /* \"#utility.yul\":3830:3839   */\n      dup3\n        /* \"#utility.yul\":3811:3908   */\n      tag_145\n      jump\t// in\n    tag_204:\n        /* \"#utility.yul\":3929:3968   */\n      tag_205\n        /* \"#utility.yul\":3959:3967   */\n      dup7\n        /* \"#utility.yul\":3948:3957   */\n      dup4\n        /* \"#utility.yul\":3929:3968   */\n      tag_145\n      jump\t// in\n    tag_205:\n        /* \"#utility.yul\":3917:3968   */\n      swap6\n      pop\n        /* \"#utility.yul\":4001:4005   */\n      dup1\n        /* \"#utility.yul\":3997:4006   */\n      not\n        /* \"#utility.yul\":3990:3995   */\n      dup5\n        /* \"#utility.yul\":3986:4007   */\n      and\n        /* \"#utility.yul\":3977:4007   */\n      swap4\n      pop\n        /* \"#utility.yul\":4050:4054   */\n      dup1\n        /* \"#utility.yul\":4040:4048   */\n      dup7\n        /* \"#utility.yul\":4036:4055   */\n      and\n        /* \"#utility.yul\":4029:4034   */\n      dup5\n        /* \"#utility.yul\":4026:4056   */\n      or\n        /* \"#utility.yul\":4016:4056   */\n      swap3\n      pop\n        /* \"#utility.yul\":3745:4062   */\n      pop\n      pop\n        /* \"#utility.yul\":3669:4062   */\n      swap4\n      swap3\n      pop\n      pop\n      pop\n      jump\t// out\n        /* \"#utility.yul\":4068:4128   */\n    tag_147:\n        /* \"#utility.yul\":4096:4099   */\n      0x00\n        /* \"#utility.yul\":4117:4122   */\n      dup2\n        /* \"#utility.yul\":4110:4122   */\n      swap1\n      pop\n        /* \"#utility.yul\":4068:4128   */\n      swap2\n      swap1\n      pop\n      jump\t// out\n        /* \"#utility.yul\":4134:4276   */\n    tag_148:\n        /* \"#utility.yul\":4184:4193   */\n      0x00\n        /* \"#utility.yul\":4217:4270   */\n      tag_208\n        /* \"#utility.yul\":4235:4269   */\n      tag_209\n        /* \"#utility.yul\":4244:4268   */\n      tag_210\n        /* \"#utility.yul\":4262:4267   */\n      dup5\n        /* \"#utility.yul\":4244:4268   */\n      tag_132\n      jump\t// in\n    tag_210:\n        /* \"#utility.yul\":4235:4269   */\n      tag_147\n      jump\t// in\n    tag_209:\n        /* \"#utility.yul\":4217:4270   */\n      tag_132\n      jump\t// in\n    tag_208:\n        /* \"#utility.yul\":4204:4270   */\n      swap1\n      pop\n        /* \"#utility.yul\":4134:4276   */\n      swap2\n      swap1\n      pop\n      jump\t// out\n        /* \"#utility.yul\":4282:4357   */\n    tag_149:\n        /* \"#utility.yul\":4325:4328   */\n      0x00\n        /* \"#utility.yul\":4346:4351   */\n      dup2\n        /* \"#utility.yul\":4339:4351   */\n      swap1\n      pop\n        /* \"#utility.yul\":4282:4357   */\n      swap2\n      swap1\n      pop\n      jump\t// out\n        /* \"#utility.yul\":4363:4632   */\n    tag_150:\n        /* \"#utility.yul\":4473:4512   */\n      tag_213\n        /* \"#utility.yul\":4504:4511   */\n      dup4\n        /* \"#utility.yul\":4473:4512   */\n      tag_148\n      jump\t// in\n    tag_213:\n        /* \"#utility.yul\":4534:4625   */\n      tag_214\n        /* \"#utility.yul\":4583:4624   */\n      tag_215\n        /* \"#utility.yul\":4607:4623   */\n      dup3\n        /* \"#utility.yul\":4583:4624   */\n      tag_149\n      jump\t// in\n    tag_215:\n        /* \"#utility.yul\":4575:4581   */\n      dup5\n        /* \"#utility.yul\":4568:4572   */\n      dup5\n        /* \"#utility.yul\":4562:4573   */\n      sload\n        /* \"#utility.yul\":4534:4625   */\n      tag_146\n      jump\t// in\n    tag_214:\n        /* \"#utility.yul\":4528:4532   */\n      dup3\n        /* \"#utility.yul\":4521:4626   */\n      sstore\n        /* \"#utility.yul\":4439:4632   */\n      pop\n        /* \"#utility.yul\":4363:4632   */\n      pop\n      pop\n      pop\n      jump\t// out\n        /* \"#utility.yul\":4638:4711   */\n    tag_151:\n        /* \"#utility.yul\":4683:4686   */\n      0x00\n        /* \"#utility.yul\":4704:4705   */\n      0x00\n        /* \"#utility.yul\":4697:4705   */\n      swap1\n      pop\n        /* \"#utility.yul\":4638:4711   */\n      swap1\n      jump\t// out\n        /* \"#utility.yul\":4717:4906   */\n    tag_152:\n        /* \"#utility.yul\":4794:4826   */\n      tag_218\n      tag_151\n      jump\t// in\n    tag_218:\n        /* \"#utility.yul\":4835:4900   */\n      tag_219\n        /* \"#utility.yul\":4893:4899   */\n      dup2\n        /* \"#utility.yul\":4885:4891   */\n      dup5\n        /* \"#utility.yul\":4879:4883   */\n      dup5\n        /* \"#utility.yul\":4835:4900   */\n      tag_150\n      jump\t// in\n    tag_219:\n        /* \"#utility.yul\":4770:4906   */\n      pop\n        /* \"#utility.yul\":4717:4906   */\n      pop\n      pop\n      jump\t// out\n        /* \"#utility.yul\":4912:5098   */\n    tag_153:\n        /* \"#utility.yul\":4972:5092   */\n    tag_221:\n        /* \"#utility.yul\":4989:4992   */\n      dup2\n        /* \"#utility.yul\":4982:4987   */\n      dup2\n        /* \"#utility.yul\":4979:4993   */\n      lt\n        /* \"#utility.yul\":4972:5092   */\n      iszero\n      tag_223\n      jumpi\n        /* \"#utility.yul\":5043:5082   */\n      tag_224\n        /* \"#utility.yul\":5080:5081   */\n      0x00\n        /* \"#utility.yul\":5073:5078   */\n      dup3\n        /* \"#utility.yul\":5043:5082   */\n      tag_152\n      jump\t// in\n    tag_224:\n        /* \"#utility.yul\":5016:5017   */\n      0x01\n        /* \"#utility.yul\":5009:5014   */\n      dup2\n        /* \"#utility.yul\":5005:5018   */\n      add\n        /* \"#utility.yul\":4996:5018   */\n      swap1\n      pop\n        /* \"#utility.yul\":4972:5092   */\n      jump(tag_221)\n    tag_223:\n        /* \"#utility.yul\":4912:5098   */\n      pop\n      pop\n      jump\t// out\n        /* \"#utility.yul\":5104:5647   */\n    tag_154:\n        /* \"#utility.yul\":5205:5207   */\n      0x1f\n        /* \"#utility.yul\":5200:5203   */\n      dup3\n        /* \"#utility.yul\":5197:5208   */\n      gt\n        /* \"#utility.yul\":5194:5640   */\n      iszero\n      tag_226\n      jumpi\n        /* \"#utility.yul\":5239:5277   */\n      tag_227\n        /* \"#utility.yul\":5271:5276   */\n      dup2\n        /* \"#utility.yul\":5239:5277   */\n      tag_143\n      jump\t// in\n    tag_227:\n        /* \"#utility.yul\":5323:5352   */\n      tag_228\n        /* \"#utility.yul\":5341:5351   */\n      dup5\n        /* \"#utility.yul\":5323:5352   */\n      tag_144\n      jump\t// in\n    tag_228:\n        /* \"#utility.yul\":5313:5321   */\n      dup2\n        /* \"#utility.yul\":5309:5353   */\n      add\n        /* \"#utility.yul\":5506:5508   */\n      0x20\n        /* \"#utility.yul\":5494:5504   */\n      dup6\n        /* \"#utility.yul\":5491:5509   */\n      lt\n        /* \"#utility.yul\":5488:5537   */\n      iszero\n      tag_229\n      jumpi\n        /* \"#utility.yul\":5527:5535   */\n      dup2\n        /* \"#utility.yul\":5512:5535   */\n      swap1\n      pop\n        /* \"#utility.yul\":5488:5537   */\n    tag_229:\n        /* \"#utility.yul\":5550:5630   */\n      tag_230\n        /* \"#utility.yul\":5606:5628   */\n      tag_231\n        /* \"#utility.yul\":5624:5627   */\n      dup6\n        /* \"#utility.yul\":5606:5628   */\n      tag_144\n      jump\t// in\n    tag_231:\n        /* \"#utility.yul\":5596:5604   */\n      dup4\n        /* \"#utility.yul\":5592:5629   */\n      add\n        /* \"#utility.yul\":5579:5590   */\n      dup3\n        /* \"#utility.yul\":5550:5630   */\n      tag_153\n      jump\t// in\n    tag_230:\n        /* \"#utility.yul\":5209:5640   */\n      pop\n      pop\n        /* \"#utility.yul\":5194:5640   */\n    tag_226:\n        /* \"#utility.yul\":5104:5647   */\n      pop\n      pop\n      pop\n      jump\t// out\n        /* \"#utility.yul\":5653:5770   */\n    tag_155:\n        /* \"#utility.yul\":5707:5715   */\n      0x00\n        /* \"#utility.yul\":5757:5762   */\n      dup3\n        /* \"#utility.yul\":5751:5755   */\n      dup3\n        /* \"#utility.yul\":5747:5763   */\n      shr\n        /* \"#utility.yul\":5726:5763   */\n      swap1\n      pop\n        /* \"#utility.yul\":5653:5770   */\n      swap3\n      swap2\n      pop\n      pop\n      jump\t// out\n        /* \"#utility.yul\":5776:5945   */\n    tag_156:\n        /* \"#utility.yul\":5820:5826   */\n      0x00\n        /* \"#utility.yul\":5853:5904   */\n      tag_234\n        /* \"#utility.yul\":5901:5902   */\n      0x00\n        /* \"#utility.yul\":5897:5903   */\n      not\n        /* \"#utility.yul\":5889:5894   */\n      dup5\n        /* \"#utility.yul\":5886:5887   */\n      0x08\n        /* \"#utility.yul\":5882:5895   */\n      mul\n        /* \"#utility.yul\":5853:5904   */\n      tag_155\n      jump\t// in\n    tag_234:\n        /* \"#utility.yul\":5849:5905   */\n      not\n        /* \"#utility.yul\":5934:5938   */\n      dup1\n        /* \"#utility.yul\":5928:5932   */\n      dup4\n        /* \"#utility.yul\":5924:5939   */\n      and\n        /* \"#utility.yul\":5914:5939   */\n      swap2\n      pop\n        /* \"#utility.yul\":5827:5945   */\n      pop\n        /* \"#utility.yul\":5776:5945   */\n      swap3\n      swap2\n      pop\n      pop\n      jump\t// out\n        /* \"#utility.yul\":5950:6245   */\n    tag_157:\n        /* \"#utility.yul\":6026:6030   */\n      0x00\n        /* \"#utility.yul\":6172:6201   */\n      tag_236\n        /* \"#utility.yul\":6197:6200   */\n      dup4\n        /* \"#utility.yul\":6191:6195   */\n      dup4\n        /* \"#utility.yul\":6172:6201   */\n      tag_156\n      jump\t// in\n    tag_236:\n        /* \"#utility.yul\":6164:6201   */\n      swap2\n      pop\n        /* \"#utility.yul\":6234:6237   */\n      dup3\n        /* \"#utility.yul\":6231:6232   */\n      0x02\n        /* \"#utility.yul\":6227:6238   */\n      mul\n        /* \"#utility.yul\":6221:6225   */\n      dup3\n        /* \"#utility.yul\":6218:6239   */\n      or\n        /* \"#utility.yul\":6210:6239   */\n      swap1\n      pop\n        /* \"#utility.yul\":5950:6245   */\n      swap3\n      swap2\n      pop\n      pop\n      jump\t// out\n        /* \"#utility.yul\":6250:7645   */\n    tag_23:\n        /* \"#utility.yul\":6367:6404   */\n      tag_238\n        /* \"#utility.yul\":6400:6403   */\n      dup3\n        /* \"#utility.yul\":6367:6404   */\n      tag_135\n      jump\t// in\n    tag_238:\n        /* \"#utility.yul\":6469:6487   */\n      0xffffffffffffffff\n        /* \"#utility.yul\":6461:6467   */\n      dup2\n        /* \"#utility.yul\":6458:6488   */\n      gt\n        /* \"#utility.yul\":6455:6511   */\n      iszero\n      tag_239\n      jumpi\n        /* \"#utility.yul\":6491:6509   */\n      tag_240\n      tag_141\n      jump\t// in\n    tag_240:\n        /* \"#utility.yul\":6455:6511   */\n    tag_239:\n        /* \"#utility.yul\":6535:6573   */\n      tag_241\n        /* \"#utility.yul\":6567:6571   */\n      dup3\n        /* \"#utility.yul\":6561:6572   */\n      sload\n        /* \"#utility.yul\":6535:6573   */\n      tag_117\n      jump\t// in\n    tag_241:\n        /* \"#utility.yul\":6620:6687   */\n      tag_242\n        /* \"#utility.yul\":6680:6686   */\n      dup3\n        /* \"#utility.yul\":6672:6678   */\n      dup3\n        /* \"#utility.yul\":6666:6670   */\n      dup6\n        /* \"#utility.yul\":6620:6687   */\n      tag_154\n      jump\t// in\n    tag_242:\n        /* \"#utility.yul\":6714:6715   */\n      0x00\n        /* \"#utility.yul\":6738:6742   */\n      0x20\n        /* \"#utility.yul\":6725:6742   */\n      swap1\n      pop\n        /* \"#utility.yul\":6770:6772   */\n      0x1f\n        /* \"#utility.yul\":6762:6768   */\n      dup4\n        /* \"#utility.yul\":6759:6773   */\n      gt\n        /* \"#utility.yul\":6787:6788   */\n      0x01\n        /* \"#utility.yul\":6782:7400   */\n      dup2\n      eq\n      tag_244\n      jumpi\n        /* \"#utility.yul\":7444:7445   */\n      0x00\n        /* \"#utility.yul\":7461:7467   */\n      dup5\n        /* \"#utility.yul\":7458:7535   */\n      iszero\n      tag_245\n      jumpi\n        /* \"#utility.yul\":7510:7519   */\n      dup3\n        /* \"#utility.yul\":7505:7508   */\n      dup8\n        /* \"#utility.yul\":7501:7520   */\n      add\n        /* \"#utility.yul\":7495:7521   */\n      mload\n        /* \"#utility.yul\":7486:7521   */\n      swap1\n      pop\n        /* \"#utility.yul\":7458:7535   */\n    tag_245:\n        /* \"#utility.yul\":7561:7628   */\n      tag_246\n        /* \"#utility.yul\":7621:7627   */\n      dup6\n        /* \"#utility.yul\":7614:7619   */\n      dup3\n        /* \"#utility.yul\":7561:7628   */\n      tag_157\n      jump\t// in\n    tag_246:\n        /* \"#utility.yul\":7555:7559   */\n      dup7\n        /* \"#utility.yul\":7548:7629   */\n      sstore\n        /* \"#utility.yul\":7417:7639   */\n      pop\n        /* \"#utility.yul\":6752:7639   */\n      jump(tag_243)\n        /* \"#utility.yul\":6782:7400   */\n    tag_244:\n        /* \"#utility.yul\":6834:6838   */\n      0x1f\n        /* \"#utility.yul\":6830:6839   */\n      not\n        /* \"#utility.yul\":6822:6828   */\n      dup5\n        /* \"#utility.yul\":6818:6840   */\n      and\n        /* \"#utility.yul\":6868:6905   */\n      tag_247\n        /* \"#utility.yul\":6900:6904   */\n      dup7\n        /* \"#utility.yul\":6868:6905   */\n      tag_143\n      jump\t// in\n    tag_247:\n        /* \"#utility.yul\":6927:6928   */\n      0x00\n        /* \"#utility.yul\":6941:7149   */\n    tag_248:\n        /* \"#utility.yul\":6955:6962   */\n      dup3\n        /* \"#utility.yul\":6952:6953   */\n      dup2\n        /* \"#utility.yul\":6949:6963   */\n      lt\n        /* \"#utility.yul\":6941:7149   */\n      iszero\n      tag_250\n      jumpi\n        /* \"#utility.yul\":7034:7043   */\n      dup5\n        /* \"#utility.yul\":7029:7032   */\n      dup10\n        /* \"#utility.yul\":7025:7044   */\n      add\n        /* \"#utility.yul\":7019:7045   */\n      mload\n        /* \"#utility.yul\":7011:7017   */\n      dup3\n        /* \"#utility.yul\":7004:7046   */\n      sstore\n        /* \"#utility.yul\":7085:7086   */\n      0x01\n        /* \"#utility.yul\":7077:7083   */\n      dup3\n        /* \"#utility.yul\":7073:7087   */\n      add\n        /* \"#utility.yul\":7063:7087   */\n      swap2\n      pop\n        /* \"#utility.yul\":7132:7134   */\n      0x20\n        /* \"#utility.yul\":7121:7130   */\n      dup6\n        /* \"#utility.yul\":7117:7135   */\n      add\n        /* \"#utility.yul\":7104:7135   */\n      swap5\n      pop\n        /* \"#utility.yul\":6978:6982   */\n      0x20\n        /* \"#utility.yul\":6975:6976   */\n      dup2\n        /* \"#utility.yul\":6971:6983   */\n      add\n        /* \"#utility.yul\":6966:6983   */\n      swap1\n      pop\n        /* \"#utility.yul\":6941:7149   */\n      jump(tag_248)\n    tag_250:\n        /* \"#utility.yul\":7177:7183   */\n      dup7\n        /* \"#utility.yul\":7168:7175   */\n      dup4\n        /* \"#utility.yul\":7165:7184   */\n      lt\n        /* \"#utility.yul\":7162:7341   */\n      iszero\n      tag_251\n      jumpi\n        /* \"#utility.yul\":7235:7244   */\n      dup5\n        /* \"#utility.yul\":7230:7233   */\n      dup10\n        /* \"#utility.yul\":7226:7245   */\n      add\n        /* \"#utility.yul\":7220:7246   */\n      mload\n        /* \"#utility.yul\":7278:7326   */\n      tag_252\n        /* \"#utility.yul\":7320:7324   */\n      0x1f\n        /* \"#utility.yul\":7312:7318   */\n      dup10\n        /* \"#utility.yul\":7308:7325   */\n      and\n        /* \"#utility.yul\":7297:7306   */\n      dup3\n        /* \"#utility.yul\":7278:7326   */\n      tag_156\n      jump\t// in\n    tag_252:\n        /* \"#utility.yul\":7270:7276   */\n      dup4\n        /* \"#utility.yul\":7263:7327   */\n      sstore\n        /* \"#utility.yul\":7185:7341   */\n      pop\n        /* \"#utility.yul\":7162:7341   */\n    tag_251:\n        /* \"#utility.yul\":7387:7388   */\n      0x01\n        /* \"#utility.yul\":7383:7384   */\n      0x02\n        /* \"#utility.yul\":7375:7381   */\n      dup9\n        /* \"#utility.yul\":7371:7385   */\n      mul\n        /* \"#utility.yul\":7367:7389   */\n      add\n        /* \"#utility.yul\":7361:7365   */\n      dup9\n        /* \"#utility.yul\":7354:7390   */\n      sstore\n        /* \"#utility.yul\":6789:7400   */\n      pop\n      pop\n      pop\n        /* \"#utility.yul\":6752:7639   */\n    tag_243:\n      pop\n        /* \"#utility.yul\":6342:7645   */\n      pop\n      pop\n      pop\n        /* \"#utility.yul\":6250:7645   */\n      pop\n      pop\n      jump\t// out\n        /* \"#utility.yul\":7651:7831   */\n    tag_158:\n        /* \"#utility.yul\":7699:7776   */\n      0x4e487b7100000000000000000000000000000000000000000000000000000000\n        /* \"#utility.yul\":7696:7697   */\n      0x00\n        /* \"#utility.yul\":7689:7777   */\n      mstore\n        /* \"#utility.yul\":7796:7800   */\n      0x12\n        /* \"#utility.yul\":7793:7794   */\n      0x04\n        /* \"#utility.yul\":7786:7801   */\n      mstore\n        /* \"#utility.yul\":7820:7824   */\n      0x24\n        /* \"#utility.yul\":7817:7818   */\n      0x00\n        /* \"#utility.yul\":7810:7825   */\n      revert\n        /* \"#utility.yul\":7837:8013   */\n    tag_40:\n        /* \"#utility.yul\":7869:7870   */\n      0x00\n        /* \"#utility.yul\":7886:7906   */\n      tag_255\n        /* \"#utility.yul\":7904:7905   */\n      dup3\n        /* \"#utility.yul\":7886:7906   */\n      tag_132\n      jump\t// in\n    tag_255:\n        /* \"#utility.yul\":7881:7906   */\n      swap2\n      pop\n        /* \"#utility.yul\":7920:7940   */\n      tag_256\n        /* \"#utility.yul\":7938:7939   */\n      dup4\n        /* \"#utility.yul\":7920:7940   */\n      tag_132\n      jump\t// in\n    tag_256:\n        /* \"#utility.yul\":7915:7940   */\n      swap3\n      pop\n        /* \"#utility.yul\":7959:7960   */\n      dup3\n        /* \"#utility.yul\":7949:7984   */\n      tag_257\n      jumpi\n        /* \"#utility.yul\":7964:7982   */\n      tag_258\n      tag_158\n      jump\t// in\n    tag_258:\n        /* \"#utility.yul\":7949:7984   */\n    tag_257:\n        /* \"#utility.yul\":8005:8006   */\n      dup3\n        /* \"#utility.yul\":8002:8003   */\n      dup3\n        /* \"#utility.yul\":7998:8007   */\n      mod\n        /* \"#utility.yul\":7993:8007   */\n      swap1\n      pop\n        /* \"#utility.yul\":7837:8013   */\n      swap3\n      swap2\n      pop\n      pop\n      jump\t// out\n        /* \"#utility.yul\":8019:8199   */\n    tag_159:\n        /* \"#utility.yul\":8067:8144   */\n      0x4e487b7100000000000000000000000000000000000000000000000000000000\n        /* \"#utility.yul\":8064:8065   */\n      0x00\n        /* \"#utility.yul\":8057:8145   */\n      mstore\n        /* \"#utility.yul\":8164:8168   */\n      0x11\n        /* \"#utility.yul\":8161:8162   */\n      0x04\n        /* \"#utility.yul\":8154:8169   */\n      mstore\n        /* \"#utility.yul\":8188:8192   */\n      0x24\n        /* \"#utility.yul\":8185:8186   */\n      0x00\n        /* \"#utility.yul\":8178:8193   */\n      revert\n        /* \"#utility.yul\":8205:8399   */\n    tag_46:\n        /* \"#utility.yul\":8245:8249   */\n      0x00\n        /* \"#utility.yul\":8265:8285   */\n      tag_261\n        /* \"#utility.yul\":8283:8284   */\n      dup3\n        /* \"#utility.yul\":8265:8285   */\n      tag_132\n      jump\t// in\n    tag_261:\n        /* \"#utility.yul\":8260:8285   */\n      swap2\n      pop\n        /* \"#utility.yul\":8299:8319   */\n      tag_262\n        /* \"#utility.yul\":8317:8318   */\n      dup4\n        /* \"#utility.yul\":8299:8319   */\n      tag_132\n      jump\t// in\n    tag_262:\n        /* \"#utility.yul\":8294:8319   */\n      swap3\n      pop\n        /* \"#utility.yul\":8343:8344   */\n      dup3\n        /* \"#utility.yul\":8340:8341   */\n      dup3\n        /* \"#utility.yul\":8336:8345   */\n      sub\n        /* \"#utility.yul\":8328:8345   */\n      swap1\n      pop\n        /* \"#utility.yul\":8367:8368   */\n      dup2\n        /* \"#utility.yul\":8361:8365   */\n      dup2\n        /* \"#utility.yul\":8358:8369   */\n      gt\n        /* \"#utility.yul\":8355:8392   */\n      iszero\n      tag_263\n      jumpi\n        /* \"#utility.yul\":8372:8390   */\n      tag_264\n      tag_159\n      jump\t// in\n    tag_264:\n        /* \"#utility.yul\":8355:8392   */\n    tag_263:\n        /* \"#utility.yul\":8205:8399   */\n      swap3\n      swap2\n      pop\n      pop\n      jump\t// out\n        /* \"#utility.yul\":8405:8815   */\n    tag_48:\n        /* \"#utility.yul\":8445:8452   */\n      0x00\n        /* \"#utility.yul\":8468:8488   */\n      tag_266\n        /* \"#utility.yul\":8486:8487   */\n      dup3\n        /* \"#utility.yul\":8468:8488   */\n      tag_132\n      jump\t// in\n    tag_266:\n        /* \"#utility.yul\":8463:8488   */\n      swap2\n      pop\n        /* \"#utility.yul\":8502:8522   */\n      tag_267\n        /* \"#utility.yul\":8520:8521   */\n      dup4\n        /* \"#utility.yul\":8502:8522   */\n      tag_132\n      jump\t// in\n    tag_267:\n        /* \"#utility.yul\":8497:8522   */\n      swap3\n      pop\n        /* \"#utility.yul\":8557:8558   */\n      dup3\n        /* \"#utility.yul\":8554:8555   */\n      dup3\n        /* \"#utility.yul\":8550:8559   */\n      mul\n        /* \"#utility.yul\":8579:8609   */\n      tag_268\n        /* \"#utility.yul\":8597:8608   */\n      dup2\n        /* \"#utility.yul\":8579:8609   */\n      tag_132\n      jump\t// in\n    tag_268:\n        /* \"#utility.yul\":8568:8609   */\n      swap2\n      pop\n        /* \"#utility.yul\":8758:8759   */\n      dup3\n        /* \"#utility.yul\":8749:8756   */\n      dup3\n        /* \"#utility.yul\":8745:8760   */\n      div\n        /* \"#utility.yul\":8742:8743   */\n      dup5\n        /* \"#utility.yul\":8739:8761   */\n      eq\n        /* \"#utility.yul\":8719:8720   */\n      dup4\n        /* \"#utility.yul\":8712:8721   */\n      iszero\n        /* \"#utility.yul\":8692:8775   */\n      or\n        /* \"#utility.yul\":8669:8808   */\n      tag_269\n      jumpi\n        /* \"#utility.yul\":8788:8806   */\n      tag_270\n      tag_159\n      jump\t// in\n    tag_270:\n        /* \"#utility.yul\":8669:8808   */\n    tag_269:\n        /* \"#utility.yul\":8453:8815   */\n      pop\n        /* \"#utility.yul\":8405:8815   */\n      swap3\n      swap2\n      pop\n      pop\n      jump\t// out\n        /* \"#utility.yul\":8821:9001   */\n    tag_57:\n        /* \"#utility.yul\":8869:8946   */\n      0x4e487b7100000000000000000000000000000000000000000000000000000000\n        /* \"#utility.yul\":8866:8867   */\n      0x00\n        /* \"#utility.yul\":8859:8947   */\n      mstore\n        /* \"#utility.yul\":8966:8970   */\n      0x32\n        /* \"#utility.yul\":8963:8964   */\n      0x04\n        /* \"#utility.yul\":8956:8971   */\n      mstore\n        /* \"#utility.yul\":8990:8994   */\n      0x24\n        /* \"#utility.yul\":8987:8988   */\n      0x00\n        /* \"#utility.yul\":8980:8995   */\n      revert\n        /* \"#utility.yul\":9007:9155   */\n    tag_160:\n        /* \"#utility.yul\":9109:9120   */\n      0x00\n        /* \"#utility.yul\":9146:9149   */\n      dup2\n        /* \"#utility.yul\":9131:9149   */\n      swap1\n      pop\n        /* \"#utility.yul\":9007:9155   */\n      swap3\n      swap2\n      pop\n      pop\n      jump\t// out\n        /* \"#utility.yul\":9161:9551   */\n    tag_161:\n        /* \"#utility.yul\":9267:9270   */\n      0x00\n        /* \"#utility.yul\":9295:9334   */\n      tag_274\n        /* \"#utility.yul\":9328:9333   */\n      dup3\n        /* \"#utility.yul\":9295:9334   */\n      tag_135\n      jump\t// in\n    tag_274:\n        /* \"#utility.yul\":9350:9439   */\n      tag_275\n        /* \"#utility.yul\":9432:9438   */\n      dup2\n        /* \"#utility.yul\":9427:9430   */\n      dup6\n        /* \"#utility.yul\":9350:9439   */\n      tag_160\n      jump\t// in\n    tag_275:\n        /* \"#utility.yul\":9343:9439   */\n      swap4\n      pop\n        /* \"#utility.yul\":9448:9513   */\n      tag_276\n        /* \"#utility.yul\":9506:9512   */\n      dup2\n        /* \"#utility.yul\":9501:9504   */\n      dup6\n        /* \"#utility.yul\":9494:9498   */\n      0x20\n        /* \"#utility.yul\":9487:9492   */\n      dup7\n        /* \"#utility.yul\":9483:9499   */\n      add\n        /* \"#utility.yul\":9448:9513   */\n      tag_137\n      jump\t// in\n    tag_276:\n        /* \"#utility.yul\":9538:9544   */\n      dup1\n        /* \"#utility.yul\":9533:9536   */\n      dup5\n        /* \"#utility.yul\":9529:9545   */\n      add\n        /* \"#utility.yul\":9522:9545   */\n      swap2\n      pop\n        /* \"#utility.yul\":9271:9551   */\n      pop\n        /* \"#utility.yul\":9161:9551   */\n      swap3\n      swap2\n      pop\n      pop\n      jump\t// out\n        /* \"#utility.yul\":9557:9671   */\n    tag_162:\n      pop\n      jump\t// out\n        /* \"#utility.yul\":9677:10077   */\n    tag_163:\n        /* \"#utility.yul\":9837:9840   */\n      0x00\n        /* \"#utility.yul\":9858:9942   */\n      tag_279\n        /* \"#utility.yul\":9940:9941   */\n      0x00\n        /* \"#utility.yul\":9935:9938   */\n      dup4\n        /* \"#utility.yul\":9858:9942   */\n      tag_160\n      jump\t// in\n    tag_279:\n        /* \"#utility.yul\":9851:9942   */\n      swap2\n      pop\n        /* \"#utility.yul\":9951:10044   */\n      tag_280\n        /* \"#utility.yul\":10040:10043   */\n      dup3\n        /* \"#utility.yul\":9951:10044   */\n      tag_162\n      jump\t// in\n    tag_280:\n        /* \"#utility.yul\":10069:10070   */\n      0x00\n        /* \"#utility.yul\":10064:10067   */\n      dup3\n        /* \"#utility.yul\":10060:10071   */\n      add\n        /* \"#utility.yul\":10053:10071   */\n      swap1\n      pop\n        /* \"#utility.yul\":9677:10077   */\n      swap2\n      swap1\n      pop\n      jump\t// out\n        /* \"#utility.yul\":10107:10981   */\n    tag_164:\n        /* \"#utility.yul\":10210:10213   */\n      0x00\n        /* \"#utility.yul\":10247:10252   */\n      dup2\n        /* \"#utility.yul\":10241:10253   */\n      sload\n        /* \"#utility.yul\":10276:10312   */\n      tag_282\n        /* \"#utility.yul\":10302:10311   */\n      dup2\n        /* \"#utility.yul\":10276:10312   */\n      tag_117\n      jump\t// in\n    tag_282:\n        /* \"#utility.yul\":10328:10417   */\n      tag_283\n        /* \"#utility.yul\":10410:10416   */\n      dup2\n        /* \"#utility.yul\":10405:10408   */\n      dup7\n        /* \"#utility.yul\":10328:10417   */\n      tag_160\n      jump\t// in\n    tag_283:\n        /* \"#utility.yul\":10321:10417   */\n      swap5\n      pop\n        /* \"#utility.yul\":10448:10449   */\n      0x01\n        /* \"#utility.yul\":10437:10446   */\n      dup3\n        /* \"#utility.yul\":10433:10450   */\n      and\n        /* \"#utility.yul\":10464:10465   */\n      0x00\n        /* \"#utility.yul\":10459:10625   */\n      dup2\n      eq\n      tag_285\n      jumpi\n        /* \"#utility.yul\":10639:10640   */\n      0x01\n        /* \"#utility.yul\":10634:10975   */\n      dup2\n      eq\n      tag_286\n      jumpi\n        /* \"#utility.yul\":10426:10975   */\n      jump(tag_284)\n        /* \"#utility.yul\":10459:10625   */\n    tag_285:\n        /* \"#utility.yul\":10543:10547   */\n      0xff\n        /* \"#utility.yul\":10539:10548   */\n      not\n        /* \"#utility.yul\":10528:10537   */\n      dup4\n        /* \"#utility.yul\":10524:10549   */\n      and\n        /* \"#utility.yul\":10519:10522   */\n      dup7\n        /* \"#utility.yul\":10512:10550   */\n      mstore\n        /* \"#utility.yul\":10605:10611   */\n      dup2\n        /* \"#utility.yul\":10598:10612   */\n      iszero\n        /* \"#utility.yul\":10591:10613   */\n      iszero\n        /* \"#utility.yul\":10583:10589   */\n      dup3\n        /* \"#utility.yul\":10579:10614   */\n      mul\n        /* \"#utility.yul\":10574:10577   */\n      dup7\n        /* \"#utility.yul\":10570:10615   */\n      add\n        /* \"#utility.yul\":10563:10615   */\n      swap4\n      pop\n        /* \"#utility.yul\":10459:10625   */\n      jump(tag_284)\n        /* \"#utility.yul\":10634:10975   */\n    tag_286:\n        /* \"#utility.yul\":10701:10739   */\n      tag_287\n        /* \"#utility.yul\":10733:10738   */\n      dup6\n        /* \"#utility.yul\":10701:10739   */\n      tag_143\n      jump\t// in\n    tag_287:\n        /* \"#utility.yul\":10761:10762   */\n      0x00\n        /* \"#utility.yul\":10775:10929   */\n    tag_288:\n        /* \"#utility.yul\":10789:10795   */\n      dup4\n        /* \"#utility.yul\":10786:10787   */\n      dup2\n        /* \"#utility.yul\":10783:10796   */\n      lt\n        /* \"#utility.yul\":10775:10929   */\n      iszero\n      tag_290\n      jumpi\n        /* \"#utility.yul\":10863:10870   */\n      dup2\n        /* \"#utility.yul\":10857:10871   */\n      sload\n        /* \"#utility.yul\":10853:10854   */\n      dup2\n        /* \"#utility.yul\":10848:10851   */\n      dup10\n        /* \"#utility.yul\":10844:10855   */\n      add\n        /* \"#utility.yul\":10837:10872   */\n      mstore\n        /* \"#utility.yul\":10913:10914   */\n      0x01\n        /* \"#utility.yul\":10904:10911   */\n      dup3\n        /* \"#utility.yul\":10900:10915   */\n      add\n        /* \"#utility.yul\":10889:10915   */\n      swap2\n      pop\n        /* \"#utility.yul\":10811:10815   */\n      0x20\n        /* \"#utility.yul\":10808:10809   */\n      dup2\n        /* \"#utility.yul\":10804:10816   */\n      add\n        /* \"#utility.yul\":10799:10816   */\n      swap1\n      pop\n        /* \"#utility.yul\":10775:10929   */\n      jump(tag_288)\n    tag_290:\n        /* \"#utility.yul\":10958:10964   */\n      dup4\n        /* \"#utility.yul\":10953:10956   */\n      dup9\n        /* \"#utility.yul\":10949:10965   */\n      add\n        /* \"#utility.yul\":10942:10965   */\n      swap6\n      pop\n        /* \"#utility.yul\":10641:10975   */\n      pop\n      pop\n        /* \"#utility.yul\":10426:10975   */\n    tag_284:\n      pop\n        /* \"#utility.yul\":10214:10981   */\n      pop\n      pop\n        /* \"#utility.yul\":10107:10981   */\n      swap3\n      swap2\n      pop\n      pop\n      jump\t// out\n        /* \"#utility.yul\":10987:11682   */\n    tag_67:\n        /* \"#utility.yul\":11265:11268   */\n      0x00\n        /* \"#utility.yul\":11287:11382   */\n      tag_292\n        /* \"#utility.yul\":11378:11381   */\n      dup3\n        /* \"#utility.yul\":11369:11375   */\n      dup6\n        /* \"#utility.yul\":11287:11382   */\n      tag_161\n      jump\t// in\n    tag_292:\n        /* \"#utility.yul\":11280:11382   */\n      swap2\n      pop\n        /* \"#utility.yul\":11399:11547   */\n      tag_293\n        /* \"#utility.yul\":11543:11546   */\n      dup3\n        /* \"#utility.yul\":11399:11547   */\n      tag_163\n      jump\t// in\n    tag_293:\n        /* \"#utility.yul\":11392:11547   */\n      swap2\n      pop\n        /* \"#utility.yul\":11564:11656   */\n      tag_294\n        /* \"#utility.yul\":11652:11655   */\n      dup3\n        /* \"#utility.yul\":11643:11649   */\n      dup5\n        /* \"#utility.yul\":11564:11656   */\n      tag_164\n      jump\t// in\n    tag_294:\n        /* \"#utility.yul\":11557:11656   */\n      swap2\n      pop\n        /* \"#utility.yul\":11673:11676   */\n      dup2\n        /* \"#utility.yul\":11666:11676   */\n      swap1\n      pop\n        /* \"#utility.yul\":10987:11682   */\n      swap4\n      swap3\n      pop\n      pop\n      pop\n      jump\t// out\n        /* \"#utility.yul\":11688:11921   */\n    tag_111:\n        /* \"#utility.yul\":11727:11730   */\n      0x00\n        /* \"#utility.yul\":11750:11774   */\n      tag_296\n        /* \"#utility.yul\":11768:11773   */\n      dup3\n        /* \"#utility.yul\":11750:11774   */\n      tag_132\n      jump\t// in\n    tag_296:\n        /* \"#utility.yul\":11741:11774   */\n      swap2\n      pop\n        /* \"#utility.yul\":11796:11862   */\n      0xffffffffffffffffffffffffffffffffffffffffffffffffffffffffffffffff\n        /* \"#utility.yul\":11789:11794   */\n      dup3\n        /* \"#utility.yul\":11786:11863   */\n      sub\n        /* \"#utility.yul\":11783:11886   */\n      tag_297\n      jumpi\n        /* \"#utility.yul\":11866:11884   */\n      tag_298\n      tag_159\n      jump\t// in\n    tag_298:\n        /* \"#utility.yul\":11783:11886   */\n    tag_297:\n        /* \"#utility.yul\":11913:11914   */\n      0x01\n        /* \"#utility.yul\":11906:11911   */\n      dup3\n        /* \"#utility.yul\":11902:11915   */\n      add\n        /* \"#utility.yul\":11895:11915   */\n      swap1\n      pop\n        /* \"#utility.yul\":11688:11921   */\n      swap2\n      swap1\n      pop\n      jump\t// out\n        /* \"#utility.yul\":11927:12362   */\n    tag_113:\n        /* \"#utility.yul\":12107:12110   */\n      0x00\n        /* \"#utility.yul\":12129:12224   */\n      tag_300\n        /* \"#utility.yul\":12220:12223   */\n      dup3\n        /* \"#utility.yul\":12211:12217   */\n      dup6\n        /* \"#utility.yul\":12129:12224   */\n      tag_161\n      jump\t// in\n    tag_300:\n        /* \"#utility.yul\":12122:12224   */\n      swap2\n      pop\n        /* \"#utility.yul\":12241:12336   */\n      tag_301\n        /* \"#utility.yul\":12332:12335   */\n      dup3\n        /* \"#utility.yul\":12323:12329   */\n      dup5\n        /* \"#utility.yul\":12241:12336   */\n      tag_161\n      jump\t// in\n    tag_301:\n        /* \"#utility.yul\":12234:12336   */\n      swap2\n      pop\n        /* \"#utility.yul\":12353:12356   */\n      dup2\n        /* \"#utility.yul\":12346:12356   */\n      swap1\n      pop\n        /* \"#utility.yul\":11927:12362   */\n      swap4\n      swap3\n      pop\n      pop\n      pop\n      jump\t// out\n\n    auxdata: 0xa2646970667358221220a2a70fcdf2a0d563e4d47f321e109845ed5e9edf775620a4f4acce5ed2895de764736f6c634300081e0033\n}\n",
				"bytecode": {
					"linkReferences": {},
					"object": "6080604052604051806101a00160405280600161ffff168152602001600461ffff168152602001600561ffff168152602001600961ffff168152602001600a61ffff168152602001602861ffff168152602001603261ffff168152602001605a61ffff168152602001606461ffff16815260200161019061ffff1681526020016101f461ffff16815260200161038461ffff1681526020016103e861ffff16815250600190600d6100b19291906100c3565b503480156100bd575f5ffd5b5061012f565b828054828255905f5260205f20908101928215610103579160200282015b82811115610102578251829061ffff169055916020019190600101906100e1565b5b5090506101109190610114565b5090565b5b8082111561012b575f815f905550600101610115565b5090565b6110b28061013c5f395ff3fe608060405234801561000f575f5ffd5b506004361061003f575f3560e01c80630cbc513a146100435780636a745eda14610073578063fd1ee54c146100a3575b5f5ffd5b61005d60048036038101906100589190610a00565b6100d3565b60405161006a9190610a9b565b60405180910390f35b61008d60048036038101906100889190610a00565b6108d6565b60405161009a9190610a9b565b60405180910390f35b6100bd60048036038101906100b89190610a00565b610970565b6040516100ca9190610aca565b60405180910390f35b60606040518060400160405280600181526020017f49000000000000000000000000000000000000000000000000000000000000008152505f5f600181526020019081526020015f2090816101289190610d0d565b506040518060400160405280600281526020017f49560000000000000000000000000000000000000000000000000000000000008152505f5f600481526020019081526020015f20908161017c9190610d0d565b506040518060400160405280600181526020017f56000000000000000000000000000000000000000000000000000000000000008152505f5f600581526020019081526020015f2090816101d09190610d0d565b506040518060400160405280600281526020017f49580000000000000000000000000000000000000000000000000000000000008152505f5f600981526020019081526020015f2090816102249190610d0d565b506040518060400160405280600181526020017f58000000000000000000000000000000000000000000000000000000000000008152505f5f600a81526020019081526020015f2090816102789190610d0d565b506040518060400160405280600281526020017f584c0000000000000000000000000000000000000000000000000000000000008152505f5f602881526020019081526020015f2090816102cc9190610d0d565b506040518060400160405280600181526020017f4c000000000000000000000000000000000000000000000000000000000000008152505f5f603281526020019081526020015f2090816103209190610d0d565b506040518060400160405280600281526020017f58430000000000000000000000000000000000000000000000000000000000008152505f5f605a81526020019081526020015f2090816103749190610d0d565b506040518060400160405280600181526020017f43000000000000000000000000000000000000000000000000000000000000008152505f5f606481526020019081526020015f2090816103c89190610d0d565b506040518060400160405280600281526020017f43440000000000000000000000000000000000000000000000000000000000008152505f5f61019081526020019081526020015f20908161041d9190610d0d565b506040518060400160405280600181526020017f44000000000000000000000000000000000000000000000000000000000000008152505f5f6101f481526020019081526020015f2090816104729190610d0d565b506040518060400160405280600281526020017f434d0000000000000000000000000000000000000000000000000000000000008152505f5f61038481526020019081526020015f2090816104c79190610d0d565b506040518060400160405280600181526020017f4d000000000000000000000000000000000000000000000000000000000000008152505f5f6103e881526020019081526020015f20908161051c9190610d0d565b506060805f600a90505b5f851461059f575f818661053a9190610e09565b031561058b576002818661054e9190610e09565b908060018154018082558091505060019003905f5260205f20015f9091909190915055808561057d9190610e09565b856105889190610e66565b94505b600a816105989190610e99565b9050610526565b505f5f90505b6002805490508110156108be575f5f90505b60018054905081101561087b57600181815481106105d8576105d7610eda565b5b905f5260205f200154600283815481106105f5576105f4610eda565b5b905f5260205f2001540361065757835f5f6001848154811061061a57610619610eda565b5b905f5260205f20015481526020019081526020015f20604051602001610641929190610fe4565b604051602081830303815290604052935061087b565b6001818154811061066b5761066a610eda565b5b905f5260205f2001546002838154811061068857610687610eda565b5b905f5260205f200154101561075257600180826106a59190610e66565b815481106106b6576106b5610eda565b5b905f5260205f200154600283815481106106d3576106d2610eda565b5b905f5260205f20015f8282546106e99190610e66565b92505081905550835f5f600180856107019190610e66565b8154811061071257610711610eda565b5b905f5260205f20015481526020019081526020015f20604051602001610739929190610fe4565b60405160208183030381529060405293505f9050610876565b600180805490506107639190610e66565b810361080b576001818154811061077d5761077c610eda565b5b905f5260205f2001546002838154811061079a57610799610eda565b5b905f5260205f20015f8282546107b09190610e66565b92505081905550835f5f600184815481106107ce576107cd610eda565b5b905f5260205f20015481526020019081526020015f206040516020016107f5929190610fe4565b6040516020818303038152906040529350610876565b6001818154811061081f5761081e610eda565b5b905f5260205f2001546002838154811061083c5761083b610eda565b5b905f5260205f20015411801561086157506001808054905061085e9190610e66565b81105b1561087557808061087190611012565b9150505b5b6105b7565b50828260405160200161088f929190611059565b604051602081830303815290604052915060405180602001604052805f815250925080806001019150506105a5565b5060025f6108cc9190610990565b8092505050919050565b5f602052805f5260405f205f9150905080546108f190610b3d565b80601f016020809104026020016040519081016040528092919081815260200182805461091d90610b3d565b80156109685780601f1061093f57610100808354040283529160200191610968565b820191905f5260205f20905b81548152906001019060200180831161094b57829003601f168201915b505050505081565b6002818154811061097f575f80fd5b905f5260205f20015f915090505481565b5080545f8255905f5260205f20908101906109ab91906109ae565b50565b5b808211156109c5575f815f9055506001016109af565b5090565b5f5ffd5b5f819050919050565b6109df816109cd565b81146109e9575f5ffd5b50565b5f813590506109fa816109d6565b92915050565b5f60208284031215610a1557610a146109c9565b5b5f610a22848285016109ec565b91505092915050565b5f81519050919050565b5f82825260208201905092915050565b8281835e5f83830152505050565b5f601f19601f8301169050919050565b5f610a6d82610a2b565b610a778185610a35565b9350610a87818560208601610a45565b610a9081610a53565b840191505092915050565b5f6020820190508181035f830152610ab38184610a63565b905092915050565b610ac4816109cd565b82525050565b5f602082019050610add5f830184610abb565b92915050565b7f4e487b71000000000000000000000000000000000000000000000000000000005f52604160045260245ffd5b7f4e487b71000000000000000000000000000000000000000000000000000000005f52602260045260245ffd5b5f6002820490506001821680610b5457607f821691505b602082108103610b6757610b66610b10565b5b50919050565b5f819050815f5260205f209050919050565b5f6020601f8301049050919050565b5f82821b905092915050565b5f60088302610bc97fffffffffffffffffffffffffffffffffffffffffffffffffffffffffffffffff82610b8e565b610bd38683610b8e565b95508019841693508086168417925050509392505050565b5f819050919050565b5f610c0e610c09610c04846109cd565b610beb565b6109cd565b9050919050565b5f819050919050565b610c2783610bf4565b610c3b610c3382610c15565b848454610b9a565b825550505050565b5f5f905090565b610c52610c43565b610c5d818484610c1e565b505050565b5b81811015610c8057610c755f82610c4a565b600181019050610c63565b5050565b601f821115610cc557610c9681610b6d565b610c9f84610b7f565b81016020851015610cae578190505b610cc2610cba85610b7f565b830182610c62565b50505b505050565b5f82821c905092915050565b5f610ce55f1984600802610cca565b1980831691505092915050565b5f610cfd8383610cd6565b9150826002028217905092915050565b610d1682610a2b565b67ffffffffffffffff811115610d2f57610d2e610ae3565b5b610d398254610b3d565b610d44828285610c84565b5f60209050601f831160018114610d75575f8415610d63578287015190505b610d6d8582610cf2565b865550610dd4565b601f198416610d8386610b6d565b5f5b82811015610daa57848901518255600182019150602085019450602081019050610d85565b86831015610dc75784890151610dc3601f891682610cd6565b8355505b6001600288020188555050505b505050505050565b7f4e487b71000000000000000000000000000000000000000000000000000000005f52601260045260245ffd5b5f610e13826109cd565b9150610e1e836109cd565b925082610e2e57610e2d610ddc565b5b828206905092915050565b7f4e487b71000000000000000000000000000000000000000000000000000000005f52601160045260245ffd5b5f610e70826109cd565b9150610e7b836109cd565b9250828203905081811115610e9357610e92610e39565b5b92915050565b5f610ea3826109cd565b9150610eae836109cd565b9250828202610ebc816109cd565b91508282048414831517610ed357610ed2610e39565b5b5092915050565b7f4e487b71000000000000000000000000000000000000000000000000000000005f52603260045260245ffd5b5f81905092915050565b5f610f1b82610a2b565b610f258185610f07565b9350610f35818560208601610a45565b80840191505092915050565b50565b5f610f4f5f83610f07565b9150610f5a82610f41565b5f82019050919050565b5f8154610f7081610b3d565b610f7a8186610f07565b9450600182165f8114610f945760018114610fa957610fdb565b60ff1983168652811515820286019350610fdb565b610fb285610b6d565b5f5b83811015610fd357815481890152600182019150602081019050610fb4565b838801955050505b50505092915050565b5f610fef8285610f11565b9150610ffa82610f44565b91506110068284610f64565b91508190509392505050565b5f61101c826109cd565b91507fffffffffffffffffffffffffffffffffffffffffffffffffffffffffffffffff820361104e5761104d610e39565b5b600182019050919050565b5f6110648285610f11565b91506110708284610f11565b9150819050939250505056fea2646970667358221220a2a70fcdf2a0d563e4d47f321e109845ed5e9edf775620a4f4acce5ed2895de764736f6c634300081e0033",
					"opcodes": "PUSH1 0x80 PUSH1 0x40 MSTORE PUSH1 0x40 MLOAD DUP1 PUSH2 0x1A0 ADD PUSH1 0x40 MSTORE DUP1 PUSH1 0x1 PUSH2 0xFFFF AND DUP2 MSTORE PUSH1 0x20 ADD PUSH1 0x4 PUSH2 0xFFFF AND DUP2 MSTORE PUSH1 0x20 ADD PUSH1 0x5 PUSH2 0xFFFF AND DUP2 MSTORE PUSH1 0x20 ADD PUSH1 0x9 PUSH2 0xFFFF AND DUP2 MSTORE PUSH1 0x20 ADD PUSH1 0xA PUSH2 0xFFFF AND DUP2 MSTORE PUSH1 0x20 ADD PUSH1 0x28 PUSH2 0xFFFF AND DUP2 MSTORE PUSH1 0x20 ADD PUSH1 0x32 PUSH2 0xFFFF AND DUP2 MSTORE PUSH1 0x20 ADD PUSH1 0x5A PUSH2 0xFFFF AND DUP2 MSTORE PUSH1 0x20 ADD PUSH1 0x64 PUSH2 0xFFFF AND DUP2 MSTORE PUSH1 0x20 ADD PUSH2 0x190 PUSH2 0xFFFF AND DUP2 MSTORE PUSH1 0x20 ADD PUSH2 0x1F4 PUSH2 0xFFFF AND DUP2 MSTORE PUSH1 0x20 ADD PUSH2 0x384 PUSH2 0xFFFF AND DUP2 MSTORE PUSH1 0x20 ADD PUSH2 0x3E8 PUSH2 0xFFFF AND DUP2 MSTORE POP PUSH1 0x1 SWAP1 PUSH1 0xD PUSH2 0xB1 SWAP3 SWAP2 SWAP1 PUSH2 0xC3 JUMP JUMPDEST POP CALLVALUE DUP1 ISZERO PUSH2 0xBD JUMPI PUSH0 PUSH0 REVERT JUMPDEST POP PUSH2 0x12F JUMP JUMPDEST DUP3 DUP1 SLOAD DUP3 DUP3 SSTORE SWAP1 PUSH0 MSTORE PUSH1 0x20 PUSH0 KECCAK256 SWAP1 DUP2 ADD SWAP3 DUP3 ISZERO PUSH2 0x103 JUMPI SWAP2 PUSH1 0x20 MUL DUP3 ADD JUMPDEST DUP3 DUP2 GT ISZERO PUSH2 0x102 JUMPI DUP3 MLOAD DUP3 SWAP1 PUSH2 0xFFFF AND SWAP1 SSTORE SWAP2 PUSH1 0x20 ADD SWAP2 SWAP1 PUSH1 0x1 ADD SWAP1 PUSH2 0xE1 JUMP JUMPDEST JUMPDEST POP SWAP1 POP PUSH2 0x110 SWAP2 SWAP1 PUSH2 0x114 JUMP JUMPDEST POP SWAP1 JUMP JUMPDEST JUMPDEST DUP1 DUP3 GT ISZERO PUSH2 0x12B JUMPI PUSH0 DUP2 PUSH0 SWAP1 SSTORE POP PUSH1 0x1 ADD PUSH2 0x115 JUMP JUMPDEST POP SWAP1 JUMP JUMPDEST PUSH2 0x10B2 DUP1 PUSH2 0x13C PUSH0 CODECOPY PUSH0 RETURN INVALID PUSH1 0x80 PUSH1 0x40 MSTORE CALLVALUE DUP1 ISZERO PUSH2 0xF JUMPI PUSH0 PUSH0 REVERT JUMPDEST POP PUSH1 0x4 CALLDATASIZE LT PUSH2 0x3F JUMPI PUSH0 CALLDATALOAD PUSH1 0xE0 SHR DUP1 PUSH4 0xCBC513A EQ PUSH2 0x43 JUMPI DUP1 PUSH4 0x6A745EDA EQ PUSH2 0x73 JUMPI DUP1 PUSH4 0xFD1EE54C EQ PUSH2 0xA3 JUMPI JUMPDEST PUSH0 PUSH0 REVERT JUMPDEST PUSH2 0x5D PUSH1 0x4 DUP1 CALLDATASIZE SUB DUP2 ADD SWAP1 PUSH2 0x58 SWAP2 SWAP1 PUSH2 0xA00 JUMP JUMPDEST PUSH2 0xD3 JUMP JUMPDEST PUSH1 0x40 MLOAD PUSH2 0x6A SWAP2 SWAP1 PUSH2 0xA9B JUMP JUMPDEST PUSH1 0x40 MLOAD DUP1 SWAP2 SUB SWAP1 RETURN JUMPDEST PUSH2 0x8D PUSH1 0x4 DUP1 CALLDATASIZE SUB DUP2 ADD SWAP1 PUSH2 0x88 SWAP2 SWAP1 PUSH2 0xA00 JUMP JUMPDEST PUSH2 0x8D6 JUMP JUMPDEST PUSH1 0x40 MLOAD PUSH2 0x9A SWAP2 SWAP1 PUSH2 0xA9B JUMP JUMPDEST PUSH1 0x40 MLOAD DUP1 SWAP2 SUB SWAP1 RETURN JUMPDEST PUSH2 0xBD PUSH1 0x4 DUP1 CALLDATASIZE SUB DUP2 ADD SWAP1 PUSH2 0xB8 SWAP2 SWAP1 PUSH2 0xA00 JUMP JUMPDEST PUSH2 0x970 JUMP JUMPDEST PUSH1 0x40 MLOAD PUSH2 0xCA SWAP2 SWAP1 PUSH2 0xACA JUMP JUMPDEST PUSH1 0x40 MLOAD DUP1 SWAP2 SUB SWAP1 RETURN JUMPDEST PUSH1 0x60 PUSH1 0x40 MLOAD DUP1 PUSH1 0x40 ADD PUSH1 0x40 MSTORE DUP1 PUSH1 0x1 DUP2 MSTORE PUSH1 0x20 ADD PUSH32 0x4900000000000000000000000000000000000000000000000000000000000000 DUP2 MSTORE POP PUSH0 PUSH0 PUSH1 0x1 DUP2 MSTORE PUSH1 0x20 ADD SWAP1 DUP2 MSTORE PUSH1 0x20 ADD PUSH0 KECCAK256 SWAP1 DUP2 PUSH2 0x128 SWAP2 SWAP1 PUSH2 0xD0D JUMP JUMPDEST POP PUSH1 0x40 MLOAD DUP1 PUSH1 0x40 ADD PUSH1 0x40 MSTORE DUP1 PUSH1 0x2 DUP2 MSTORE PUSH1 0x20 ADD PUSH32 0x4956000000000000000000000000000000000000000000000000000000000000 DUP2 MSTORE POP PUSH0 PUSH0 PUSH1 0x4 DUP2 MSTORE PUSH1 0x20 ADD SWAP1 DUP2 MSTORE PUSH1 0x20 ADD PUSH0 KECCAK256 SWAP1 DUP2 PUSH2 0x17C SWAP2 SWAP1 PUSH2 0xD0D JUMP JUMPDEST POP PUSH1 0x40 MLOAD DUP1 PUSH1 0x40 ADD PUSH1 0x40 MSTORE DUP1 PUSH1 0x1 DUP2 MSTORE PUSH1 0x20 ADD PUSH32 0x5600000000000000000000000000000000000000000000000000000000000000 DUP2 MSTORE POP PUSH0 PUSH0 PUSH1 0x5 DUP2 MSTORE PUSH1 0x20 ADD SWAP1 DUP2 MSTORE PUSH1 0x20 ADD PUSH0 KECCAK256 SWAP1 DUP2 PUSH2 0x1D0 SWAP2 SWAP1 PUSH2 0xD0D JUMP JUMPDEST POP PUSH1 0x40 MLOAD DUP1 PUSH1 0x40 ADD PUSH1 0x40 MSTORE DUP1 PUSH1 0x2 DUP2 MSTORE PUSH1 0x20 ADD PUSH32 0x4958000000000000000000000000000000000000000000000000000000000000 DUP2 MSTORE POP PUSH0 PUSH0 PUSH1 0x9 DUP2 MSTORE PUSH1 0x20 ADD SWAP1 DUP2 MSTORE PUSH1 0x20 ADD PUSH0 KECCAK256 SWAP1 DUP2 PUSH2 0x224 SWAP2 SWAP1 PUSH2 0xD0D JUMP JUMPDEST POP PUSH1 0x40 MLOAD DUP1 PUSH1 0x40 ADD PUSH1 0x40 MSTORE DUP1 PUSH1 0x1 DUP2 MSTORE PUSH1 0x20 ADD PUSH32 0x5800000000000000000000000000000000000000000000000000000000000000 DUP2 MSTORE POP PUSH0 PUSH0 PUSH1 0xA DUP2 MSTORE PUSH1 0x20 ADD SWAP1 DUP2 MSTORE PUSH1 0x20 ADD PUSH0 KECCAK256 SWAP1 DUP2 PUSH2 0x278 SWAP2 SWAP1 PUSH2 0xD0D JUMP JUMPDEST POP PUSH1 0x40 MLOAD DUP1 PUSH1 0x40 ADD PUSH1 0x40 MSTORE DUP1 PUSH1 0x2 DUP2 MSTORE PUSH1 0x20 ADD PUSH32 0x584C000000000000000000000000000000000000000000000000000000000000 DUP2 MSTORE POP PUSH0 PUSH0 PUSH1 0x28 DUP2 MSTORE PUSH1 0x20 ADD SWAP1 DUP2 MSTORE PUSH1 0x20 ADD PUSH0 KECCAK256 SWAP1 DUP2 PUSH2 0x2CC SWAP2 SWAP1 PUSH2 0xD0D JUMP JUMPDEST POP PUSH1 0x40 MLOAD DUP1 PUSH1 0x40 ADD PUSH1 0x40 MSTORE DUP1 PUSH1 0x1 DUP2 MSTORE PUSH1 0x20 ADD PUSH32 0x4C00000000000000000000000000000000000000000000000000000000000000 DUP2 MSTORE POP PUSH0 PUSH0 PUSH1 0x32 DUP2 MSTORE PUSH1 0x20 ADD SWAP1 DUP2 MSTORE PUSH1 0x20 ADD PUSH0 KECCAK256 SWAP1 DUP2 PUSH2 0x320 SWAP2 SWAP1 PUSH2 0xD0D JUMP JUMPDEST POP PUSH1 0x40 MLOAD DUP1 PUSH1 0x40 ADD PUSH1 0x40 MSTORE DUP1 PUSH1 0x2 DUP2 MSTORE PUSH1 0x20 ADD PUSH32 0x5843000000000000000000000000000000000000000000000000000000000000 DUP2 MSTORE POP PUSH0 PUSH0 PUSH1 0x5A DUP2 MSTORE PUSH1 0x20 ADD SWAP1 DUP2 MSTORE PUSH1 0x20 ADD PUSH0 KECCAK256 SWAP1 DUP2 PUSH2 0x374 SWAP2 SWAP1 PUSH2 0xD0D JUMP JUMPDEST POP PUSH1 0x40 MLOAD DUP1 PUSH1 0x40 ADD PUSH1 0x40 MSTORE DUP1 PUSH1 0x1 DUP2 MSTORE PUSH1 0x20 ADD PUSH32 0x4300000000000000000000000000000000000000000000000000000000000000 DUP2 MSTORE POP PUSH0 PUSH0 PUSH1 0x64 DUP2 MSTORE PUSH1 0x20 ADD SWAP1 DUP2 MSTORE PUSH1 0x20 ADD PUSH0 KECCAK256 SWAP1 DUP2 PUSH2 0x3C8 SWAP2 SWAP1 PUSH2 0xD0D JUMP JUMPDEST POP PUSH1 0x40 MLOAD DUP1 PUSH1 0x40 ADD PUSH1 0x40 MSTORE DUP1 PUSH1 0x2 DUP2 MSTORE PUSH1 0x20 ADD PUSH32 0x4344000000000000000000000000000000000000000000000000000000000000 DUP2 MSTORE POP PUSH0 PUSH0 PUSH2 0x190 DUP2 MSTORE PUSH1 0x20 ADD SWAP1 DUP2 MSTORE PUSH1 0x20 ADD PUSH0 KECCAK256 SWAP1 DUP2 PUSH2 0x41D SWAP2 SWAP1 PUSH2 0xD0D JUMP JUMPDEST POP PUSH1 0x40 MLOAD DUP1 PUSH1 0x40 ADD PUSH1 0x40 MSTORE DUP1 PUSH1 0x1 DUP2 MSTORE PUSH1 0x20 ADD PUSH32 0x4400000000000000000000000000000000000000000000000000000000000000 DUP2 MSTORE POP PUSH0 PUSH0 PUSH2 0x1F4 DUP2 MSTORE PUSH1 0x20 ADD SWAP1 DUP2 MSTORE PUSH1 0x20 ADD PUSH0 KECCAK256 SWAP1 DUP2 PUSH2 0x472 SWAP2 SWAP1 PUSH2 0xD0D JUMP JUMPDEST POP PUSH1 0x40 MLOAD DUP1 PUSH1 0x40 ADD PUSH1 0x40 MSTORE DUP1 PUSH1 0x2 DUP2 MSTORE PUSH1 0x20 ADD PUSH32 0x434D000000000000000000000000000000000000000000000000000000000000 DUP2 MSTORE POP PUSH0 PUSH0 PUSH2 0x384 DUP2 MSTORE PUSH1 0x20 ADD SWAP1 DUP2 MSTORE PUSH1 0x20 ADD PUSH0 KECCAK256 SWAP1 DUP2 PUSH2 0x4C7 SWAP2 SWAP1 PUSH2 0xD0D JUMP JUMPDEST POP PUSH1 0x40 MLOAD DUP1 PUSH1 0x40 ADD PUSH1 0x40 MSTORE DUP1 PUSH1 0x1 DUP2 MSTORE PUSH1 0x20 ADD PUSH32 0x4D00000000000000000000000000000000000000000000000000000000000000 DUP2 MSTORE POP PUSH0 PUSH0 PUSH2 0x3E8 DUP2 MSTORE PUSH1 0x20 ADD SWAP1 DUP2 MSTORE PUSH1 0x20 ADD PUSH0 KECCAK256 SWAP1 DUP2 PUSH2 0x51C SWAP2 SWAP1 PUSH2 0xD0D JUMP JUMPDEST POP PUSH1 0x60 DUP1 PUSH0 PUSH1 0xA SWAP1 POP JUMPDEST PUSH0 DUP6 EQ PUSH2 0x59F JUMPI PUSH0 DUP2 DUP7 PUSH2 0x53A SWAP2 SWAP1 PUSH2 0xE09 JUMP JUMPDEST SUB ISZERO PUSH2 0x58B JUMPI PUSH1 0x2 DUP2 DUP7 PUSH2 0x54E SWAP2 SWAP1 PUSH2 0xE09 JUMP JUMPDEST SWAP1 DUP1 PUSH1 0x1 DUP2 SLOAD ADD DUP1 DUP3 SSTORE DUP1 SWAP2 POP POP PUSH1 0x1 SWAP1 SUB SWAP1 PUSH0 MSTORE PUSH1 0x20 PUSH0 KECCAK256 ADD PUSH0 SWAP1 SWAP2 SWAP1 SWAP2 SWAP1 SWAP2 POP SSTORE DUP1 DUP6 PUSH2 0x57D SWAP2 SWAP1 PUSH2 0xE09 JUMP JUMPDEST DUP6 PUSH2 0x588 SWAP2 SWAP1 PUSH2 0xE66 JUMP JUMPDEST SWAP5 POP JUMPDEST PUSH1 0xA DUP2 PUSH2 0x598 SWAP2 SWAP1 PUSH2 0xE99 JUMP JUMPDEST SWAP1 POP PUSH2 0x526 JUMP JUMPDEST POP PUSH0 PUSH0 SWAP1 POP JUMPDEST PUSH1 0x2 DUP1 SLOAD SWAP1 POP DUP2 LT ISZERO PUSH2 0x8BE JUMPI PUSH0 PUSH0 SWAP1 POP JUMPDEST PUSH1 0x1 DUP1 SLOAD SWAP1 POP DUP2 LT ISZERO PUSH2 0x87B JUMPI PUSH1 0x1 DUP2 DUP2 SLOAD DUP2 LT PUSH2 0x5D8 JUMPI PUSH2 0x5D7 PUSH2 0xEDA JUMP JUMPDEST JUMPDEST SWAP1 PUSH0 MSTORE PUSH1 0x20 PUSH0 KECCAK256 ADD SLOAD PUSH1 0x2 DUP4 DUP2 SLOAD DUP2 LT PUSH2 0x5F5 JUMPI PUSH2 0x5F4 PUSH2 0xEDA JUMP JUMPDEST JUMPDEST SWAP1 PUSH0 MSTORE PUSH1 0x20 PUSH0 KECCAK256 ADD SLOAD SUB PUSH2 0x657 JUMPI DUP4 PUSH0 PUSH0 PUSH1 0x1 DUP5 DUP2 SLOAD DUP2 LT PUSH2 0x61A JUMPI PUSH2 0x619 PUSH2 0xEDA JUMP JUMPDEST JUMPDEST SWAP1 PUSH0 MSTORE PUSH1 0x20 PUSH0 KECCAK256 ADD SLOAD DUP2 MSTORE PUSH1 0x20 ADD SWAP1 DUP2 MSTORE PUSH1 0x20 ADD PUSH0 KECCAK256 PUSH1 0x40 MLOAD PUSH1 0x20 ADD PUSH2 0x641 SWAP3 SWAP2 SWAP1 PUSH2 0xFE4 JUMP JUMPDEST PUSH1 0x40 MLOAD PUSH1 0x20 DUP2 DUP4 SUB SUB DUP2 MSTORE SWAP1 PUSH1 0x40 MSTORE SWAP4 POP PUSH2 0x87B JUMP JUMPDEST PUSH1 0x1 DUP2 DUP2 SLOAD DUP2 LT PUSH2 0x66B JUMPI PUSH2 0x66A PUSH2 0xEDA JUMP JUMPDEST JUMPDEST SWAP1 PUSH0 MSTORE PUSH1 0x20 PUSH0 KECCAK256 ADD SLOAD PUSH1 0x2 DUP4 DUP2 SLOAD DUP2 LT PUSH2 0x688 JUMPI PUSH2 0x687 PUSH2 0xEDA JUMP JUMPDEST JUMPDEST SWAP1 PUSH0 MSTORE PUSH1 0x20 PUSH0 KECCAK256 ADD SLOAD LT ISZERO PUSH2 0x752 JUMPI PUSH1 0x1 DUP1 DUP3 PUSH2 0x6A5 SWAP2 SWAP1 PUSH2 0xE66 JUMP JUMPDEST DUP2 SLOAD DUP2 LT PUSH2 0x6B6 JUMPI PUSH2 0x6B5 PUSH2 0xEDA JUMP JUMPDEST JUMPDEST SWAP1 PUSH0 MSTORE PUSH1 0x20 PUSH0 KECCAK256 ADD SLOAD PUSH1 0x2 DUP4 DUP2 SLOAD DUP2 LT PUSH2 0x6D3 JUMPI PUSH2 0x6D2 PUSH2 0xEDA JUMP JUMPDEST JUMPDEST SWAP1 PUSH0 MSTORE PUSH1 0x20 PUSH0 KECCAK256 ADD PUSH0 DUP3 DUP3 SLOAD PUSH2 0x6E9 SWAP2 SWAP1 PUSH2 0xE66 JUMP JUMPDEST SWAP3 POP POP DUP2 SWAP1 SSTORE POP DUP4 PUSH0 PUSH0 PUSH1 0x1 DUP1 DUP6 PUSH2 0x701 SWAP2 SWAP1 PUSH2 0xE66 JUMP JUMPDEST DUP2 SLOAD DUP2 LT PUSH2 0x712 JUMPI PUSH2 0x711 PUSH2 0xEDA JUMP JUMPDEST JUMPDEST SWAP1 PUSH0 MSTORE PUSH1 0x20 PUSH0 KECCAK256 ADD SLOAD DUP2 MSTORE PUSH1 0x20 ADD SWAP1 DUP2 MSTORE PUSH1 0x20 ADD PUSH0 KECCAK256 PUSH1 0x40 MLOAD PUSH1 0x20 ADD PUSH2 0x739 SWAP3 SWAP2 SWAP1 PUSH2 0xFE4 JUMP JUMPDEST PUSH1 0x40 MLOAD PUSH1 0x20 DUP2 DUP4 SUB SUB DUP2 MSTORE SWAP1 PUSH1 0x40 MSTORE SWAP4 POP PUSH0 SWAP1 POP PUSH2 0x876 JUMP JUMPDEST PUSH1 0x1 DUP1 DUP1 SLOAD SWAP1 POP PUSH2 0x763 SWAP2 SWAP1 PUSH2 0xE66 JUMP JUMPDEST DUP2 SUB PUSH2 0x80B JUMPI PUSH1 0x1 DUP2 DUP2 SLOAD DUP2 LT PUSH2 0x77D JUMPI PUSH2 0x77C PUSH2 0xEDA JUMP JUMPDEST JUMPDEST SWAP1 PUSH0 MSTORE PUSH1 0x20 PUSH0 KECCAK256 ADD SLOAD PUSH1 0x2 DUP4 DUP2 SLOAD DUP2 LT PUSH2 0x79A JUMPI PUSH2 0x799 PUSH2 0xEDA JUMP JUMPDEST JUMPDEST SWAP1 PUSH0 MSTORE PUSH1 0x20 PUSH0 KECCAK256 ADD PUSH0 DUP3 DUP3 SLOAD PUSH2 0x7B0 SWAP2 SWAP1 PUSH2 0xE66 JUMP JUMPDEST SWAP3 POP POP DUP2 SWAP1 SSTORE POP DUP4 PUSH0 PUSH0 PUSH1 0x1 DUP5 DUP2 SLOAD DUP2 LT PUSH2 0x7CE JUMPI PUSH2 0x7CD PUSH2 0xEDA JUMP JUMPDEST JUMPDEST SWAP1 PUSH0 MSTORE PUSH1 0x20 PUSH0 KECCAK256 ADD SLOAD DUP2 MSTORE PUSH1 0x20 ADD SWAP1 DUP2 MSTORE PUSH1 0x20 ADD PUSH0 KECCAK256 PUSH1 0x40 MLOAD PUSH1 0x20 ADD PUSH2 0x7F5 SWAP3 SWAP2 SWAP1 PUSH2 0xFE4 JUMP JUMPDEST PUSH1 0x40 MLOAD PUSH1 0x20 DUP2 DUP4 SUB SUB DUP2 MSTORE SWAP1 PUSH1 0x40 MSTORE SWAP4 POP PUSH2 0x876 JUMP JUMPDEST PUSH1 0x1 DUP2 DUP2 SLOAD DUP2 LT PUSH2 0x81F JUMPI PUSH2 0x81E PUSH2 0xEDA JUMP JUMPDEST JUMPDEST SWAP1 PUSH0 MSTORE PUSH1 0x20 PUSH0 KECCAK256 ADD SLOAD PUSH1 0x2 DUP4 DUP2 SLOAD DUP2 LT PUSH2 0x83C JUMPI PUSH2 0x83B PUSH2 0xEDA JUMP JUMPDEST JUMPDEST SWAP1 PUSH0 MSTORE PUSH1 0x20 PUSH0 KECCAK256 ADD SLOAD GT DUP1 ISZERO PUSH2 0x861 JUMPI POP PUSH1 0x1 DUP1 DUP1 SLOAD SWAP1 POP PUSH2 0x85E SWAP2 SWAP1 PUSH2 0xE66 JUMP JUMPDEST DUP2 LT JUMPDEST ISZERO PUSH2 0x875 JUMPI DUP1 DUP1 PUSH2 0x871 SWAP1 PUSH2 0x1012 JUMP JUMPDEST SWAP2 POP POP JUMPDEST JUMPDEST PUSH2 0x5B7 JUMP JUMPDEST POP DUP3 DUP3 PUSH1 0x40 MLOAD PUSH1 0x20 ADD PUSH2 0x88F SWAP3 SWAP2 SWAP1 PUSH2 0x1059 JUMP JUMPDEST PUSH1 0x40 MLOAD PUSH1 0x20 DUP2 DUP4 SUB SUB DUP2 MSTORE SWAP1 PUSH1 0x40 MSTORE SWAP2 POP PUSH1 0x40 MLOAD DUP1 PUSH1 0x20 ADD PUSH1 0x40 MSTORE DUP1 PUSH0 DUP2 MSTORE POP SWAP3 POP DUP1 DUP1 PUSH1 0x1 ADD SWAP2 POP POP PUSH2 0x5A5 JUMP JUMPDEST POP PUSH1 0x2 PUSH0 PUSH2 0x8CC SWAP2 SWAP1 PUSH2 0x990 JUMP JUMPDEST DUP1 SWAP3 POP POP POP SWAP2 SWAP1 POP JUMP JUMPDEST PUSH0 PUSH1 0x20 MSTORE DUP1 PUSH0 MSTORE PUSH1 0x40 PUSH0 KECCAK256 PUSH0 SWAP2 POP SWAP1 POP DUP1 SLOAD PUSH2 0x8F1 SWAP1 PUSH2 0xB3D JUMP JUMPDEST DUP1 PUSH1 0x1F ADD PUSH1 0x20 DUP1 SWAP2 DIV MUL PUSH1 0x20 ADD PUSH1 0x40 MLOAD SWAP1 DUP2 ADD PUSH1 0x40 MSTORE DUP1 SWAP3 SWAP2 SWAP1 DUP2 DUP2 MSTORE PUSH1 0x20 ADD DUP3 DUP1 SLOAD PUSH2 0x91D SWAP1 PUSH2 0xB3D JUMP JUMPDEST DUP1 ISZERO PUSH2 0x968 JUMPI DUP1 PUSH1 0x1F LT PUSH2 0x93F JUMPI PUSH2 0x100 DUP1 DUP4 SLOAD DIV MUL DUP4 MSTORE SWAP2 PUSH1 0x20 ADD SWAP2 PUSH2 0x968 JUMP JUMPDEST DUP3 ADD SWAP2 SWAP1 PUSH0 MSTORE PUSH1 0x20 PUSH0 KECCAK256 SWAP1 JUMPDEST DUP2 SLOAD DUP2 MSTORE SWAP1 PUSH1 0x1 ADD SWAP1 PUSH1 0x20 ADD DUP1 DUP4 GT PUSH2 0x94B JUMPI DUP3 SWAP1 SUB PUSH1 0x1F AND DUP3 ADD SWAP2 JUMPDEST POP POP POP POP POP DUP2 JUMP JUMPDEST PUSH1 0x2 DUP2 DUP2 SLOAD DUP2 LT PUSH2 0x97F JUMPI PUSH0 DUP1 REVERT JUMPDEST SWAP1 PUSH0 MSTORE PUSH1 0x20 PUSH0 KECCAK256 ADD PUSH0 SWAP2 POP SWAP1 POP SLOAD DUP2 JUMP JUMPDEST POP DUP1 SLOAD PUSH0 DUP3 SSTORE SWAP1 PUSH0 MSTORE PUSH1 0x20 PUSH0 KECCAK256 SWAP1 DUP2 ADD SWAP1 PUSH2 0x9AB SWAP2 SWAP1 PUSH2 0x9AE JUMP JUMPDEST POP JUMP JUMPDEST JUMPDEST DUP1 DUP3 GT ISZERO PUSH2 0x9C5 JUMPI PUSH0 DUP2 PUSH0 SWAP1 SSTORE POP PUSH1 0x1 ADD PUSH2 0x9AF JUMP JUMPDEST POP SWAP1 JUMP JUMPDEST PUSH0 PUSH0 REVERT JUMPDEST PUSH0 DUP2 SWAP1 POP SWAP2 SWAP1 POP JUMP JUMPDEST PUSH2 0x9DF DUP2 PUSH2 0x9CD JUMP JUMPDEST DUP2 EQ PUSH2 0x9E9 JUMPI PUSH0 PUSH0 REVERT JUMPDEST POP JUMP JUMPDEST PUSH0 DUP2 CALLDATALOAD SWAP1 POP PUSH2 0x9FA DUP2 PUSH2 0x9D6 JUMP JUMPDEST SWAP3 SWAP2 POP POP JUMP JUMPDEST PUSH0 PUSH1 0x20 DUP3 DUP5 SUB SLT ISZERO PUSH2 0xA15 JUMPI PUSH2 0xA14 PUSH2 0x9C9 JUMP JUMPDEST JUMPDEST PUSH0 PUSH2 0xA22 DUP5 DUP3 DUP6 ADD PUSH2 0x9EC JUMP JUMPDEST SWAP2 POP POP SWAP3 SWAP2 POP POP JUMP JUMPDEST PUSH0 DUP2 MLOAD SWAP1 POP SWAP2 SWAP1 POP JUMP JUMPDEST PUSH0 DUP3 DUP3 MSTORE PUSH1 0x20 DUP3 ADD SWAP1 POP SWAP3 SWAP2 POP POP JUMP JUMPDEST DUP3 DUP2 DUP4 MCOPY PUSH0 DUP4 DUP4 ADD MSTORE POP POP POP JUMP JUMPDEST PUSH0 PUSH1 0x1F NOT PUSH1 0x1F DUP4 ADD AND SWAP1 POP SWAP2 SWAP1 POP JUMP JUMPDEST PUSH0 PUSH2 0xA6D DUP3 PUSH2 0xA2B JUMP JUMPDEST PUSH2 0xA77 DUP2 DUP6 PUSH2 0xA35 JUMP JUMPDEST SWAP4 POP PUSH2 0xA87 DUP2 DUP6 PUSH1 0x20 DUP7 ADD PUSH2 0xA45 JUMP JUMPDEST PUSH2 0xA90 DUP2 PUSH2 0xA53 JUMP JUMPDEST DUP5 ADD SWAP2 POP POP SWAP3 SWAP2 POP POP JUMP JUMPDEST PUSH0 PUSH1 0x20 DUP3 ADD SWAP1 POP DUP2 DUP2 SUB PUSH0 DUP4 ADD MSTORE PUSH2 0xAB3 DUP2 DUP5 PUSH2 0xA63 JUMP JUMPDEST SWAP1 POP SWAP3 SWAP2 POP POP JUMP JUMPDEST PUSH2 0xAC4 DUP2 PUSH2 0x9CD JUMP JUMPDEST DUP3 MSTORE POP POP JUMP JUMPDEST PUSH0 PUSH1 0x20 DUP3 ADD SWAP1 POP PUSH2 0xADD PUSH0 DUP4 ADD DUP5 PUSH2 0xABB JUMP JUMPDEST SWAP3 SWAP2 POP POP JUMP JUMPDEST PUSH32 0x4E487B7100000000000000000000000000000000000000000000000000000000 PUSH0 MSTORE PUSH1 0x41 PUSH1 0x4 MSTORE PUSH1 0x24 PUSH0 REVERT JUMPDEST PUSH32 0x4E487B7100000000000000000000000000000000000000000000000000000000 PUSH0 MSTORE PUSH1 0x22 PUSH1 0x4 MSTORE PUSH1 0x24 PUSH0 REVERT JUMPDEST PUSH0 PUSH1 0x2 DUP3 DIV SWAP1 POP PUSH1 0x1 DUP3 AND DUP1 PUSH2 0xB54 JUMPI PUSH1 0x7F DUP3 AND SWAP2 POP JUMPDEST PUSH1 0x20 DUP3 LT DUP2 SUB PUSH2 0xB67 JUMPI PUSH2 0xB66 PUSH2 0xB10 JUMP JUMPDEST JUMPDEST POP SWAP2 SWAP1 POP JUMP JUMPDEST PUSH0 DUP2 SWAP1 POP DUP2 PUSH0 MSTORE PUSH1 0x20 PUSH0 KECCAK256 SWAP1 POP SWAP2 SWAP1 POP JUMP JUMPDEST PUSH0 PUSH1 0x20 PUSH1 0x1F DUP4 ADD DIV SWAP1 POP SWAP2 SWAP1 POP JUMP JUMPDEST PUSH0 DUP3 DUP3 SHL SWAP1 POP SWAP3 SWAP2 POP POP JUMP JUMPDEST PUSH0 PUSH1 0x8 DUP4 MUL PUSH2 0xBC9 PUSH32 0xFFFFFFFFFFFFFFFFFFFFFFFFFFFFFFFFFFFFFFFFFFFFFFFFFFFFFFFFFFFFFFFF DUP3 PUSH2 0xB8E JUMP JUMPDEST PUSH2 0xBD3 DUP7 DUP4 PUSH2 0xB8E JUMP JUMPDEST SWAP6 POP DUP1 NOT DUP5 AND SWAP4 POP DUP1 DUP7 AND DUP5 OR SWAP3 POP POP POP SWAP4 SWAP3 POP POP POP JUMP JUMPDEST PUSH0 DUP2 SWAP1 POP SWAP2 SWAP1 POP JUMP JUMPDEST PUSH0 PUSH2 0xC0E PUSH2 0xC09 PUSH2 0xC04 DUP5 PUSH2 0x9CD JUMP JUMPDEST PUSH2 0xBEB JUMP JUMPDEST PUSH2 0x9CD JUMP JUMPDEST SWAP1 POP SWAP2 SWAP1 POP JUMP JUMPDEST PUSH0 DUP2 SWAP1 POP SWAP2 SWAP1 POP JUMP JUMPDEST PUSH2 0xC27 DUP4 PUSH2 0xBF4 JUMP JUMPDEST PUSH2 0xC3B PUSH2 0xC33 DUP3 PUSH2 0xC15 JUMP JUMPDEST DUP5 DUP5 SLOAD PUSH2 0xB9A JUMP JUMPDEST DUP3 SSTORE POP POP POP POP JUMP JUMPDEST PUSH0 PUSH0 SWAP1 POP SWAP1 JUMP JUMPDEST PUSH2 0xC52 PUSH2 0xC43 JUMP JUMPDEST PUSH2 0xC5D DUP2 DUP5 DUP5 PUSH2 0xC1E JUMP JUMPDEST POP POP POP JUMP JUMPDEST JUMPDEST DUP2 DUP2 LT ISZERO PUSH2 0xC80 JUMPI PUSH2 0xC75 PUSH0 DUP3 PUSH2 0xC4A JUMP JUMPDEST PUSH1 0x1 DUP2 ADD SWAP1 POP PUSH2 0xC63 JUMP JUMPDEST POP POP JUMP JUMPDEST PUSH1 0x1F DUP3 GT ISZERO PUSH2 0xCC5 JUMPI PUSH2 0xC96 DUP2 PUSH2 0xB6D JUMP JUMPDEST PUSH2 0xC9F DUP5 PUSH2 0xB7F JUMP JUMPDEST DUP2 ADD PUSH1 0x20 DUP6 LT ISZERO PUSH2 0xCAE JUMPI DUP2 SWAP1 POP JUMPDEST PUSH2 0xCC2 PUSH2 0xCBA DUP6 PUSH2 0xB7F JUMP JUMPDEST DUP4 ADD DUP3 PUSH2 0xC62 JUMP JUMPDEST POP POP JUMPDEST POP POP POP JUMP JUMPDEST PUSH0 DUP3 DUP3 SHR SWAP1 POP SWAP3 SWAP2 POP POP JUMP JUMPDEST PUSH0 PUSH2 0xCE5 PUSH0 NOT DUP5 PUSH1 0x8 MUL PUSH2 0xCCA JUMP JUMPDEST NOT DUP1 DUP4 AND SWAP2 POP POP SWAP3 SWAP2 POP POP JUMP JUMPDEST PUSH0 PUSH2 0xCFD DUP4 DUP4 PUSH2 0xCD6 JUMP JUMPDEST SWAP2 POP DUP3 PUSH1 0x2 MUL DUP3 OR SWAP1 POP SWAP3 SWAP2 POP POP JUMP JUMPDEST PUSH2 0xD16 DUP3 PUSH2 0xA2B JUMP JUMPDEST PUSH8 0xFFFFFFFFFFFFFFFF DUP2 GT ISZERO PUSH2 0xD2F JUMPI PUSH2 0xD2E PUSH2 0xAE3 JUMP JUMPDEST JUMPDEST PUSH2 0xD39 DUP3 SLOAD PUSH2 0xB3D JUMP JUMPDEST PUSH2 0xD44 DUP3 DUP3 DUP6 PUSH2 0xC84 JUMP JUMPDEST PUSH0 PUSH1 0x20 SWAP1 POP PUSH1 0x1F DUP4 GT PUSH1 0x1 DUP2 EQ PUSH2 0xD75 JUMPI PUSH0 DUP5 ISZERO PUSH2 0xD63 JUMPI DUP3 DUP8 ADD MLOAD SWAP1 POP JUMPDEST PUSH2 0xD6D DUP6 DUP3 PUSH2 0xCF2 JUMP JUMPDEST DUP7 SSTORE POP PUSH2 0xDD4 JUMP JUMPDEST PUSH1 0x1F NOT DUP5 AND PUSH2 0xD83 DUP7 PUSH2 0xB6D JUMP JUMPDEST PUSH0 JUMPDEST DUP3 DUP2 LT ISZERO PUSH2 0xDAA JUMPI DUP5 DUP10 ADD MLOAD DUP3 SSTORE PUSH1 0x1 DUP3 ADD SWAP2 POP PUSH1 0x20 DUP6 ADD SWAP5 POP PUSH1 0x20 DUP2 ADD SWAP1 POP PUSH2 0xD85 JUMP JUMPDEST DUP7 DUP4 LT ISZERO PUSH2 0xDC7 JUMPI DUP5 DUP10 ADD MLOAD PUSH2 0xDC3 PUSH1 0x1F DUP10 AND DUP3 PUSH2 0xCD6 JUMP JUMPDEST DUP4 SSTORE POP JUMPDEST PUSH1 0x1 PUSH1 0x2 DUP9 MUL ADD DUP9 SSTORE POP POP POP JUMPDEST POP POP POP POP POP POP JUMP JUMPDEST PUSH32 0x4E487B7100000000000000000000000000000000000000000000000000000000 PUSH0 MSTORE PUSH1 0x12 PUSH1 0x4 MSTORE PUSH1 0x24 PUSH0 REVERT JUMPDEST PUSH0 PUSH2 0xE13 DUP3 PUSH2 0x9CD JUMP JUMPDEST SWAP2 POP PUSH2 0xE1E DUP4 PUSH2 0x9CD JUMP JUMPDEST SWAP3 POP DUP3 PUSH2 0xE2E JUMPI PUSH2 0xE2D PUSH2 0xDDC JUMP JUMPDEST JUMPDEST DUP3 DUP3 MOD SWAP1 POP SWAP3 SWAP2 POP POP JUMP JUMPDEST PUSH32 0x4E487B7100000000000000000000000000000000000000000000000000000000 PUSH0 MSTORE PUSH1 0x11 PUSH1 0x4 MSTORE PUSH1 0x24 PUSH0 REVERT JUMPDEST PUSH0 PUSH2 0xE70 DUP3 PUSH2 0x9CD JUMP JUMPDEST SWAP2 POP PUSH2 0xE7B DUP4 PUSH2 0x9CD JUMP JUMPDEST SWAP3 POP DUP3 DUP3 SUB SWAP1 POP DUP2 DUP2 GT ISZERO PUSH2 0xE93 JUMPI PUSH2 0xE92 PUSH2 0xE39 JUMP JUMPDEST JUMPDEST SWAP3 SWAP2 POP POP JUMP JUMPDEST PUSH0 PUSH2 0xEA3 DUP3 PUSH2 0x9CD JUMP JUMPDEST SWAP2 POP PUSH2 0xEAE DUP4 PUSH2 0x9CD JUMP JUMPDEST SWAP3 POP DUP3 DUP3 MUL PUSH2 0xEBC DUP2 PUSH2 0x9CD JUMP JUMPDEST SWAP2 POP DUP3 DUP3 DIV DUP5 EQ DUP4 ISZERO OR PUSH2 0xED3 JUMPI PUSH2 0xED2 PUSH2 0xE39 JUMP JUMPDEST JUMPDEST POP SWAP3 SWAP2 POP POP JUMP JUMPDEST PUSH32 0x4E487B7100000000000000000000000000000000000000000000000000000000 PUSH0 MSTORE PUSH1 0x32 PUSH1 0x4 MSTORE PUSH1 0x24 PUSH0 REVERT JUMPDEST PUSH0 DUP2 SWAP1 POP SWAP3 SWAP2 POP POP JUMP JUMPDEST PUSH0 PUSH2 0xF1B DUP3 PUSH2 0xA2B JUMP JUMPDEST PUSH2 0xF25 DUP2 DUP6 PUSH2 0xF07 JUMP JUMPDEST SWAP4 POP PUSH2 0xF35 DUP2 DUP6 PUSH1 0x20 DUP7 ADD PUSH2 0xA45 JUMP JUMPDEST DUP1 DUP5 ADD SWAP2 POP POP SWAP3 SWAP2 POP POP JUMP JUMPDEST POP JUMP JUMPDEST PUSH0 PUSH2 0xF4F PUSH0 DUP4 PUSH2 0xF07 JUMP JUMPDEST SWAP2 POP PUSH2 0xF5A DUP3 PUSH2 0xF41 JUMP JUMPDEST PUSH0 DUP3 ADD SWAP1 POP SWAP2 SWAP1 POP JUMP JUMPDEST PUSH0 DUP2 SLOAD PUSH2 0xF70 DUP2 PUSH2 0xB3D JUMP JUMPDEST PUSH2 0xF7A DUP2 DUP7 PUSH2 0xF07 JUMP JUMPDEST SWAP5 POP PUSH1 0x1 DUP3 AND PUSH0 DUP2 EQ PUSH2 0xF94 JUMPI PUSH1 0x1 DUP2 EQ PUSH2 0xFA9 JUMPI PUSH2 0xFDB JUMP JUMPDEST PUSH1 0xFF NOT DUP4 AND DUP7 MSTORE DUP2 ISZERO ISZERO DUP3 MUL DUP7 ADD SWAP4 POP PUSH2 0xFDB JUMP JUMPDEST PUSH2 0xFB2 DUP6 PUSH2 0xB6D JUMP JUMPDEST PUSH0 JUMPDEST DUP4 DUP2 LT ISZERO PUSH2 0xFD3 JUMPI DUP2 SLOAD DUP2 DUP10 ADD MSTORE PUSH1 0x1 DUP3 ADD SWAP2 POP PUSH1 0x20 DUP2 ADD SWAP1 POP PUSH2 0xFB4 JUMP JUMPDEST DUP4 DUP9 ADD SWAP6 POP POP POP JUMPDEST POP POP POP SWAP3 SWAP2 POP POP JUMP JUMPDEST PUSH0 PUSH2 0xFEF DUP3 DUP6 PUSH2 0xF11 JUMP JUMPDEST SWAP2 POP PUSH2 0xFFA DUP3 PUSH2 0xF44 JUMP JUMPDEST SWAP2 POP PUSH2 0x1006 DUP3 DUP5 PUSH2 0xF64 JUMP JUMPDEST SWAP2 POP DUP2 SWAP1 POP SWAP4 SWAP3 POP POP POP JUMP JUMPDEST PUSH0 PUSH2 0x101C DUP3 PUSH2 0x9CD JUMP JUMPDEST SWAP2 POP PUSH32 0xFFFFFFFFFFFFFFFFFFFFFFFFFFFFFFFFFFFFFFFFFFFFFFFFFFFFFFFFFFFFFFFF DUP3 SUB PUSH2 0x104E JUMPI PUSH2 0x104D PUSH2 0xE39 JUMP JUMPDEST JUMPDEST PUSH1 0x1 DUP3 ADD SWAP1 POP SWAP2 SWAP1 POP JUMP JUMPDEST PUSH0 PUSH2 0x1064 DUP3 DUP6 PUSH2 0xF11 JUMP JUMPDEST SWAP2 POP PUSH2 0x1070 DUP3 DUP5 PUSH2 0xF11 JUMP JUMPDEST SWAP2 POP DUP2 SWAP1 POP SWAP4 SWAP3 POP POP POP JUMP INVALID LOG2 PUSH5 0x6970667358 0x22 SLT KECCAK256 LOG2 0xA7 0xF 0xCD CALLCODE LOG0 0xD5 PUSH4 0xE4D47F32 0x1E LT SWAP9 GASLIMIT 0xED MCOPY SWAP15 0xDF PUSH24 0x5620A4F4ACCE5ED2895DE764736F6C634300081E00330000 "
				},
				"gasEstimates": {
					"creation": {
						"codeDepositCost": "854800",
						"executionCost": "infinite",
						"totalCost": "infinite"
					},
					"external": {
						"intToRoman(uint256)": "infinite",
						"nums(uint256)": "infinite",
						"valueLists(uint256)": "infinite"
					}
				},
				"methodIdentifiers": {
					"intToRoman(uint256)": "0cbc513a",
					"nums(uint256)": "fd1ee54c",
					"valueLists(uint256)": "6a745eda"
				}
			},
			"storageLayout": {
				"storage": [
					{
						"astId": 5,
						"contract": "contracts/task1/03 IntToRoman.sol:IntToRoman",
						"label": "valueLists",
						"offset": 0,
						"slot": "0",
						"type": "t_mapping(t_uint256,t_string_storage)"
					},
					{
						"astId": 22,
						"contract": "contracts/task1/03 IntToRoman.sol:IntToRoman",
						"label": "values",
						"offset": 0,
						"slot": "1",
						"type": "t_array(t_uint256)dyn_storage"
					},
					{
						"astId": 25,
						"contract": "contracts/task1/03 IntToRoman.sol:IntToRoman",
						"label": "nums",
						"offset": 0,
						"slot": "2",
						"type": "t_array(t_uint256)dyn_storage"
					}
				],
				"types": {
					"t_array(t_uint256)dyn_storage": {
						"base": "t_uint256",
						"encoding": "dynamic_array",
						"label": "uint256[]",
						"numberOfBytes": "32"
					},
					"t_mapping(t_uint256,t_string_storage)": {
						"encoding": "mapping",
						"key": "t_uint256",
						"label": "mapping(uint256 => string)",
						"numberOfBytes": "32",
						"value": "t_string_storage"
					},
					"t_string_storage": {
						"encoding": "bytes",
						"label": "string",
						"numberOfBytes": "32"
					},
					"t_uint256": {
						"encoding": "inplace",
						"label": "uint256",
						"numberOfBytes": "32"
					}
				}
			},
			"userdoc": {
				"kind": "user",
				"methods": {},
				"version": 1
			}
		}
	}
}