{
	"contracts/task2/01 job1.sol": {
		"MyERC20": {
			"abi": [
				{
					"inputs": [
						{
							"internalType": "uint256",
							"name": "_inialSupply",
							"type": "uint256"
						}
					],
					"stateMutability": "nonpayable",
					"type": "constructor"
				},
				{
					"anonymous": false,
					"inputs": [
						{
							"indexed": true,
							"internalType": "address",
							"name": "owener",
							"type": "address"
						},
						{
							"indexed": true,
							"internalType": "address",
							"name": "spender",
							"type": "address"
						},
						{
							"indexed": false,
							"internalType": "uint256",
							"name": "value",
							"type": "uint256"
						}
					],
					"name": "Approval",
					"type": "event"
				},
				{
					"anonymous": false,
					"inputs": [
						{
							"indexed": true,
							"internalType": "address",
							"name": "form",
							"type": "address"
						},
						{
							"indexed": true,
							"internalType": "address",
							"name": "to",
							"type": "address"
						},
						{
							"indexed": false,
							"internalType": "uint256",
							"name": "value",
							"type": "uint256"
						}
					],
					"name": "Transfer",
					"type": "event"
				},
				{
					"inputs": [
						{
							"internalType": "address",
							"name": "",
							"type": "address"
						},
						{
							"internalType": "address",
							"name": "",
							"type": "address"
						}
					],
					"name": "allowance",
					"outputs": [
						{
							"internalType": "uint256",
							"name": "",
							"type": "uint256"
						}
					],
					"stateMutability": "view",
					"type": "function"
				},
				{
					"inputs": [
						{
							"internalType": "address",
							"name": "_spender",
							"type": "address"
						},
						{
							"internalType": "uint256",
							"name": "_amount",
							"type": "uint256"
						}
					],
					"name": "approval",
					"outputs": [
						{
							"internalType": "bool",
							"name": "",
							"type": "bool"
						}
					],
					"stateMutability": "nonpayable",
					"type": "function"
				},
				{
					"inputs": [
						{
							"internalType": "address",
							"name": "",
							"type": "address"
						}
					],
					"name": "balanceOf",
					"outputs": [
						{
							"internalType": "uint256",
							"name": "",
							"type": "uint256"
						}
					],
					"stateMutability": "view",
					"type": "function"
				},
				{
					"inputs": [
						{
							"internalType": "address[]",
							"name": "_recipients",
							"type": "address[]"
						},
						{
							"internalType": "uint256[]",
							"name": "_amounts",
							"type": "uint256[]"
						}
					],
					"name": "batchTransfer",
					"outputs": [
						{
							"internalType": "bool",
							"name": "",
							"type": "bool"
						}
					],
					"stateMutability": "nonpayable",
					"type": "function"
				},
				{
					"inputs": [
						{
							"internalType": "uint256",
							"name": "_amount",
							"type": "uint256"
						}
					],
					"name": "burn",
					"outputs": [],
					"stateMutability": "nonpayable",
					"type": "function"
				},
				{
					"inputs": [],
					"name": "decimal",
					"outputs": [
						{
							"internalType": "uint8",
							"name": "",
							"type": "uint8"
						}
					],
					"stateMutability": "view",
					"type": "function"
				},
				{
					"inputs": [
						{
							"internalType": "address",
							"name": "_to",
							"type": "address"
						},
						{
							"internalType": "uint256",
							"name": "_amount",
							"type": "uint256"
						}
					],
					"name": "mint",
					"outputs": [],
					"stateMutability": "nonpayable",
					"type": "function"
				},
				{
					"inputs": [],
					"name": "name",
					"outputs": [
						{
							"internalType": "string",
							"name": "",
							"type": "string"
						}
					],
					"stateMutability": "view",
					"type": "function"
				},
				{
					"inputs": [],
					"name": "owner",
					"outputs": [
						{
							"internalType": "address",
							"name": "",
							"type": "address"
						}
					],
					"stateMutability": "view",
					"type": "function"
				},
				{
					"inputs": [],
					"name": "symbol",
					"outputs": [
						{
							"internalType": "string",
							"name": "",
							"type": "string"
						}
					],
					"stateMutability": "view",
					"type": "function"
				},
				{
					"inputs": [],
					"name": "totalSupply",
					"outputs": [
						{
							"internalType": "uint256",
							"name": "",
							"type": "uint256"
						}
					],
					"stateMutability": "view",
					"type": "function"
				},
				{
					"inputs": [
						{
							"internalType": "address",
							"name": "_to",
							"type": "address"
						},
						{
							"internalType": "uint256",
							"name": "_amount",
							"type": "uint256"
						}
					],
					"name": "transfer",
					"outputs": [
						{
							"internalType": "bool",
							"name": "",
							"type": "bool"
						}
					],
					"stateMutability": "nonpayable",
					"type": "function"
				},
				{
					"inputs": [
						{
							"internalType": "address",
							"name": "_from",
							"type": "address"
						},
						{
							"internalType": "address",
							"name": "_to",
							"type": "address"
						},
						{
							"internalType": "uint256",
							"name": "_amount",
							"type": "uint256"
						}
					],
					"name": "transferForm",
					"outputs": [
						{
							"internalType": "bool",
							"name": "",
							"type": "bool"
						}
					],
					"stateMutability": "nonpayable",
					"type": "function"
				}
			],
			"devdoc": {
				"kind": "dev",
				"methods": {},
				"version": 1
			},
			"evm": {
				"assembly": "    /* \"contracts/task2/01 job1.sol\":61:4316  contract MyERC20 {... */\n  mstore(0x40, 0x80)\n    /* \"contracts/task2/01 job1.sol\":85:117  string public name=\"Young Token\" */\n  mload(0x40)\n  dup1\n  0x40\n  add\n  0x40\n  mstore\n  dup1\n  0x0b\n  dup2\n  mstore\n  0x20\n  add\n  0x596f756e6720546f6b656e000000000000000000000000000000000000000000\n  dup2\n  mstore\n  pop\n  0x00\n  swap1\n  dup2\n  tag_1\n  swap2\n  swap1\n  tag_2\n  jump\t// in\ntag_1:\n  pop\n    /* \"contracts/task2/01 job1.sol\":124:150  string public symbol=\"YTK\" */\n  mload(0x40)\n  dup1\n  0x40\n  add\n  0x40\n  mstore\n  dup1\n  0x03\n  dup2\n  mstore\n  0x20\n  add\n  0x59544b0000000000000000000000000000000000000000000000000000000000\n  dup2\n  mstore\n  pop\n  0x01\n  swap1\n  dup2\n  tag_3\n  swap2\n  swap1\n  tag_2\n  jump\t// in\ntag_3:\n  pop\n    /* \"contracts/task2/01 job1.sol\":180:182  18 */\n  0x12\n    /* \"contracts/task2/01 job1.sol\":157:182  uint8 public decimal = 18 */\n  0x02\n  exp(0x0100, 0x00)\n  dup2\n  sload\n  dup2\n  0xff\n  mul\n  not\n  and\n  swap1\n  dup4\n  0xff\n  and\n  mul\n  or\n  swap1\n  sstore\n  pop\n    /* \"contracts/task2/01 job1.sol\":655:875  constructor(uint256 _inialSupply){... */\n  callvalue\n  dup1\n  iszero\n  tag_4\n  jumpi\n  revert(0x00, 0x00)\ntag_4:\n  pop\n  mload(0x40)\n  sub(codesize, bytecodeSize)\n  dup1\n  bytecodeSize\n  dup4\n  codecopy\n  dup2\n  dup2\n  add\n  0x40\n  mstore\n  dup2\n  add\n  swap1\n  tag_5\n  swap2\n  swap1\n  tag_6\n  jump\t// in\ntag_5:\n    /* \"contracts/task2/01 job1.sol\":707:717  msg.sender */\n  caller\n    /* \"contracts/task2/01 job1.sol\":699:704  owner */\n  0x04\n  0x00\n    /* \"contracts/task2/01 job1.sol\":699:717  owner = msg.sender */\n  0x0100\n  exp\n  dup2\n  sload\n  dup2\n  0xffffffffffffffffffffffffffffffffffffffff\n  mul\n  not\n  and\n  swap1\n  dup4\n  0xffffffffffffffffffffffffffffffffffffffff\n  and\n  mul\n  or\n  swap1\n  sstore\n  pop\n    /* \"contracts/task2/01 job1.sol\":763:770  decimal */\n  0x02\n  0x00\n  swap1\n  sload\n  swap1\n  0x0100\n  exp\n  swap1\n  div\n  0xff\n  and\n    /* \"contracts/task2/01 job1.sol\":757:759  10 */\n  0x0a\n    /* \"contracts/task2/01 job1.sol\":757:770  10 ** decimal */\n  tag_9\n  swap2\n  swap1\n  tag_10\n  jump\t// in\ntag_9:\n    /* \"contracts/task2/01 job1.sol\":742:754  _inialSupply */\n  dup2\n    /* \"contracts/task2/01 job1.sol\":742:770  _inialSupply * 10 ** decimal */\n  tag_11\n  swap2\n  swap1\n  tag_12\n  jump\t// in\ntag_11:\n    /* \"contracts/task2/01 job1.sol\":728:739  totalSupply */\n  0x03\n    /* \"contracts/task2/01 job1.sol\":728:770  totalSupply = _inialSupply * 10 ** decimal */\n  dup2\n  swap1\n  sstore\n  pop\n    /* \"contracts/task2/01 job1.sol\":800:811  totalSupply */\n  sload(0x03)\n    /* \"contracts/task2/01 job1.sol\":781:790  balanceOf */\n  0x05\n    /* \"contracts/task2/01 job1.sol\":781:797  balanceOf[owner] */\n  0x00\n    /* \"contracts/task2/01 job1.sol\":791:796  owner */\n  0x04\n  0x00\n  swap1\n  sload\n  swap1\n  0x0100\n  exp\n  swap1\n  div\n  0xffffffffffffffffffffffffffffffffffffffff\n  and\n    /* \"contracts/task2/01 job1.sol\":781:797  balanceOf[owner] */\n  0xffffffffffffffffffffffffffffffffffffffff\n  and\n  0xffffffffffffffffffffffffffffffffffffffff\n  and\n  dup2\n  mstore\n  0x20\n  add\n  swap1\n  dup2\n  mstore\n  0x20\n  add\n  0x00\n  keccak256\n    /* \"contracts/task2/01 job1.sol\":781:811  balanceOf[owner] = totalSupply */\n  dup2\n  swap1\n  sstore\n  pop\n    /* \"contracts/task2/01 job1.sol\":848:853  owner */\n  0x04\n  0x00\n  swap1\n  sload\n  swap1\n  0x0100\n  exp\n  swap1\n  div\n  0xffffffffffffffffffffffffffffffffffffffff\n  and\n    /* \"contracts/task2/01 job1.sol\":827:867  Transfer(address(0), owner, totalSupply) */\n  0xffffffffffffffffffffffffffffffffffffffff\n  and\n    /* \"contracts/task2/01 job1.sol\":844:845  0 */\n  0x00\n    /* \"contracts/task2/01 job1.sol\":827:867  Transfer(address(0), owner, totalSupply) */\n  0xffffffffffffffffffffffffffffffffffffffff\n  and\n  0xddf252ad1be2c89b69c2b068fc378daa952ba7f163c4a11628f55a4df523b3ef\n    /* \"contracts/task2/01 job1.sol\":855:866  totalSupply */\n  sload(0x03)\n    /* \"contracts/task2/01 job1.sol\":827:867  Transfer(address(0), owner, totalSupply) */\n  mload(0x40)\n  tag_13\n  swap2\n  swap1\n  tag_14\n  jump\t// in\ntag_13:\n  mload(0x40)\n  dup1\n  swap2\n  sub\n  swap1\n  log3\n    /* \"contracts/task2/01 job1.sol\":655:875  constructor(uint256 _inialSupply){... */\n  pop\n    /* \"contracts/task2/01 job1.sol\":61:4316  contract MyERC20 {... */\n  jump(tag_15)\n    /* \"#utility.yul\":7:106   */\ntag_16:\n    /* \"#utility.yul\":59:65   */\n  0x00\n    /* \"#utility.yul\":93:98   */\n  dup2\n    /* \"#utility.yul\":87:99   */\n  mload\n    /* \"#utility.yul\":77:99   */\n  swap1\n  pop\n    /* \"#utility.yul\":7:106   */\n  swap2\n  swap1\n  pop\n  jump\t// out\n    /* \"#utility.yul\":112:292   */\ntag_17:\n    /* \"#utility.yul\":160:237   */\n  0x4e487b7100000000000000000000000000000000000000000000000000000000\n    /* \"#utility.yul\":157:158   */\n  0x00\n    /* \"#utility.yul\":150:238   */\n  mstore\n    /* \"#utility.yul\":257:261   */\n  0x41\n    /* \"#utility.yul\":254:255   */\n  0x04\n    /* \"#utility.yul\":247:262   */\n  mstore\n    /* \"#utility.yul\":281:285   */\n  0x24\n    /* \"#utility.yul\":278:279   */\n  0x00\n    /* \"#utility.yul\":271:286   */\n  revert\n    /* \"#utility.yul\":298:478   */\ntag_18:\n    /* \"#utility.yul\":346:423   */\n  0x4e487b7100000000000000000000000000000000000000000000000000000000\n    /* \"#utility.yul\":343:344   */\n  0x00\n    /* \"#utility.yul\":336:424   */\n  mstore\n    /* \"#utility.yul\":443:447   */\n  0x22\n    /* \"#utility.yul\":440:441   */\n  0x04\n    /* \"#utility.yul\":433:448   */\n  mstore\n    /* \"#utility.yul\":467:471   */\n  0x24\n    /* \"#utility.yul\":464:465   */\n  0x00\n    /* \"#utility.yul\":457:472   */\n  revert\n    /* \"#utility.yul\":484:804   */\ntag_19:\n    /* \"#utility.yul\":528:534   */\n  0x00\n    /* \"#utility.yul\":565:566   */\n  0x02\n    /* \"#utility.yul\":559:563   */\n  dup3\n    /* \"#utility.yul\":555:567   */\n  div\n    /* \"#utility.yul\":545:567   */\n  swap1\n  pop\n    /* \"#utility.yul\":612:613   */\n  0x01\n    /* \"#utility.yul\":606:610   */\n  dup3\n    /* \"#utility.yul\":602:614   */\n  and\n    /* \"#utility.yul\":633:651   */\n  dup1\n    /* \"#utility.yul\":623:704   */\n  tag_52\n  jumpi\n    /* \"#utility.yul\":689:693   */\n  0x7f\n    /* \"#utility.yul\":681:687   */\n  dup3\n    /* \"#utility.yul\":677:694   */\n  and\n    /* \"#utility.yul\":667:694   */\n  swap2\n  pop\n    /* \"#utility.yul\":623:704   */\ntag_52:\n    /* \"#utility.yul\":751:753   */\n  0x20\n    /* \"#utility.yul\":743:749   */\n  dup3\n    /* \"#utility.yul\":740:754   */\n  lt\n    /* \"#utility.yul\":720:738   */\n  dup2\n    /* \"#utility.yul\":717:755   */\n  sub\n    /* \"#utility.yul\":714:798   */\n  tag_53\n  jumpi\n    /* \"#utility.yul\":770:788   */\n  tag_54\n  tag_18\n  jump\t// in\ntag_54:\n    /* \"#utility.yul\":714:798   */\ntag_53:\n    /* \"#utility.yul\":535:804   */\n  pop\n    /* \"#utility.yul\":484:804   */\n  swap2\n  swap1\n  pop\n  jump\t// out\n    /* \"#utility.yul\":810:951   */\ntag_20:\n    /* \"#utility.yul\":859:863   */\n  0x00\n    /* \"#utility.yul\":882:885   */\n  dup2\n    /* \"#utility.yul\":874:885   */\n  swap1\n  pop\n    /* \"#utility.yul\":905:908   */\n  dup2\n    /* \"#utility.yul\":902:903   */\n  0x00\n    /* \"#utility.yul\":895:909   */\n  mstore\n    /* \"#utility.yul\":939:943   */\n  0x20\n    /* \"#utility.yul\":936:937   */\n  0x00\n    /* \"#utility.yul\":926:944   */\n  keccak256\n    /* \"#utility.yul\":918:944   */\n  swap1\n  pop\n    /* \"#utility.yul\":810:951   */\n  swap2\n  swap1\n  pop\n  jump\t// out\n    /* \"#utility.yul\":957:1050   */\ntag_21:\n    /* \"#utility.yul\":994:1000   */\n  0x00\n    /* \"#utility.yul\":1041:1043   */\n  0x20\n    /* \"#utility.yul\":1036:1038   */\n  0x1f\n    /* \"#utility.yul\":1029:1034   */\n  dup4\n    /* \"#utility.yul\":1025:1039   */\n  add\n    /* \"#utility.yul\":1021:1044   */\n  div\n    /* \"#utility.yul\":1011:1044   */\n  swap1\n  pop\n    /* \"#utility.yul\":957:1050   */\n  swap2\n  swap1\n  pop\n  jump\t// out\n    /* \"#utility.yul\":1056:1163   */\ntag_22:\n    /* \"#utility.yul\":1100:1108   */\n  0x00\n    /* \"#utility.yul\":1150:1155   */\n  dup3\n    /* \"#utility.yul\":1144:1148   */\n  dup3\n    /* \"#utility.yul\":1140:1156   */\n  shl\n    /* \"#utility.yul\":1119:1156   */\n  swap1\n  pop\n    /* \"#utility.yul\":1056:1163   */\n  swap3\n  swap2\n  pop\n  pop\n  jump\t// out\n    /* \"#utility.yul\":1169:1562   */\ntag_23:\n    /* \"#utility.yul\":1238:1244   */\n  0x00\n    /* \"#utility.yul\":1288:1289   */\n  0x08\n    /* \"#utility.yul\":1276:1286   */\n  dup4\n    /* \"#utility.yul\":1272:1290   */\n  mul\n    /* \"#utility.yul\":1311:1408   */\n  tag_59\n    /* \"#utility.yul\":1341:1407   */\n  0xffffffffffffffffffffffffffffffffffffffffffffffffffffffffffffffff\n    /* \"#utility.yul\":1330:1339   */\n  dup3\n    /* \"#utility.yul\":1311:1408   */\n  tag_22\n  jump\t// in\ntag_59:\n    /* \"#utility.yul\":1429:1468   */\n  tag_60\n    /* \"#utility.yul\":1459:1467   */\n  dup7\n    /* \"#utility.yul\":1448:1457   */\n  dup4\n    /* \"#utility.yul\":1429:1468   */\n  tag_22\n  jump\t// in\ntag_60:\n    /* \"#utility.yul\":1417:1468   */\n  swap6\n  pop\n    /* \"#utility.yul\":1501:1505   */\n  dup1\n    /* \"#utility.yul\":1497:1506   */\n  not\n    /* \"#utility.yul\":1490:1495   */\n  dup5\n    /* \"#utility.yul\":1486:1507   */\n  and\n    /* \"#utility.yul\":1477:1507   */\n  swap4\n  pop\n    /* \"#utility.yul\":1550:1554   */\n  dup1\n    /* \"#utility.yul\":1540:1548   */\n  dup7\n    /* \"#utility.yul\":1536:1555   */\n  and\n    /* \"#utility.yul\":1529:1534   */\n  dup5\n    /* \"#utility.yul\":1526:1556   */\n  or\n    /* \"#utility.yul\":1516:1556   */\n  swap3\n  pop\n    /* \"#utility.yul\":1245:1562   */\n  pop\n  pop\n    /* \"#utility.yul\":1169:1562   */\n  swap4\n  swap3\n  pop\n  pop\n  pop\n  jump\t// out\n    /* \"#utility.yul\":1568:1645   */\ntag_24:\n    /* \"#utility.yul\":1605:1612   */\n  0x00\n    /* \"#utility.yul\":1634:1639   */\n  dup2\n    /* \"#utility.yul\":1623:1639   */\n  swap1\n  pop\n    /* \"#utility.yul\":1568:1645   */\n  swap2\n  swap1\n  pop\n  jump\t// out\n    /* \"#utility.yul\":1651:1711   */\ntag_25:\n    /* \"#utility.yul\":1679:1682   */\n  0x00\n    /* \"#utility.yul\":1700:1705   */\n  dup2\n    /* \"#utility.yul\":1693:1705   */\n  swap1\n  pop\n    /* \"#utility.yul\":1651:1711   */\n  swap2\n  swap1\n  pop\n  jump\t// out\n    /* \"#utility.yul\":1717:1859   */\ntag_26:\n    /* \"#utility.yul\":1767:1776   */\n  0x00\n    /* \"#utility.yul\":1800:1853   */\n  tag_64\n    /* \"#utility.yul\":1818:1852   */\n  tag_65\n    /* \"#utility.yul\":1827:1851   */\n  tag_66\n    /* \"#utility.yul\":1845:1850   */\n  dup5\n    /* \"#utility.yul\":1827:1851   */\n  tag_24\n  jump\t// in\ntag_66:\n    /* \"#utility.yul\":1818:1852   */\n  tag_25\n  jump\t// in\ntag_65:\n    /* \"#utility.yul\":1800:1853   */\n  tag_24\n  jump\t// in\ntag_64:\n    /* \"#utility.yul\":1787:1853   */\n  swap1\n  pop\n    /* \"#utility.yul\":1717:1859   */\n  swap2\n  swap1\n  pop\n  jump\t// out\n    /* \"#utility.yul\":1865:1940   */\ntag_27:\n    /* \"#utility.yul\":1908:1911   */\n  0x00\n    /* \"#utility.yul\":1929:1934   */\n  dup2\n    /* \"#utility.yul\":1922:1934   */\n  swap1\n  pop\n    /* \"#utility.yul\":1865:1940   */\n  swap2\n  swap1\n  pop\n  jump\t// out\n    /* \"#utility.yul\":1946:2215   */\ntag_28:\n    /* \"#utility.yul\":2056:2095   */\n  tag_69\n    /* \"#utility.yul\":2087:2094   */\n  dup4\n    /* \"#utility.yul\":2056:2095   */\n  tag_26\n  jump\t// in\ntag_69:\n    /* \"#utility.yul\":2117:2208   */\n  tag_70\n    /* \"#utility.yul\":2166:2207   */\n  tag_71\n    /* \"#utility.yul\":2190:2206   */\n  dup3\n    /* \"#utility.yul\":2166:2207   */\n  tag_27\n  jump\t// in\ntag_71:\n    /* \"#utility.yul\":2158:2164   */\n  dup5\n    /* \"#utility.yul\":2151:2155   */\n  dup5\n    /* \"#utility.yul\":2145:2156   */\n  sload\n    /* \"#utility.yul\":2117:2208   */\n  tag_23\n  jump\t// in\ntag_70:\n    /* \"#utility.yul\":2111:2115   */\n  dup3\n    /* \"#utility.yul\":2104:2209   */\n  sstore\n    /* \"#utility.yul\":2022:2215   */\n  pop\n    /* \"#utility.yul\":1946:2215   */\n  pop\n  pop\n  pop\n  jump\t// out\n    /* \"#utility.yul\":2221:2294   */\ntag_29:\n    /* \"#utility.yul\":2266:2269   */\n  0x00\n    /* \"#utility.yul\":2287:2288   */\n  0x00\n    /* \"#utility.yul\":2280:2288   */\n  swap1\n  pop\n    /* \"#utility.yul\":2221:2294   */\n  swap1\n  jump\t// out\n    /* \"#utility.yul\":2300:2489   */\ntag_30:\n    /* \"#utility.yul\":2377:2409   */\n  tag_74\n  tag_29\n  jump\t// in\ntag_74:\n    /* \"#utility.yul\":2418:2483   */\n  tag_75\n    /* \"#utility.yul\":2476:2482   */\n  dup2\n    /* \"#utility.yul\":2468:2474   */\n  dup5\n    /* \"#utility.yul\":2462:2466   */\n  dup5\n    /* \"#utility.yul\":2418:2483   */\n  tag_28\n  jump\t// in\ntag_75:\n    /* \"#utility.yul\":2353:2489   */\n  pop\n    /* \"#utility.yul\":2300:2489   */\n  pop\n  pop\n  jump\t// out\n    /* \"#utility.yul\":2495:2681   */\ntag_31:\n    /* \"#utility.yul\":2555:2675   */\ntag_77:\n    /* \"#utility.yul\":2572:2575   */\n  dup2\n    /* \"#utility.yul\":2565:2570   */\n  dup2\n    /* \"#utility.yul\":2562:2576   */\n  lt\n    /* \"#utility.yul\":2555:2675   */\n  iszero\n  tag_79\n  jumpi\n    /* \"#utility.yul\":2626:2665   */\n  tag_80\n    /* \"#utility.yul\":2663:2664   */\n  0x00\n    /* \"#utility.yul\":2656:2661   */\n  dup3\n    /* \"#utility.yul\":2626:2665   */\n  tag_30\n  jump\t// in\ntag_80:\n    /* \"#utility.yul\":2599:2600   */\n  0x01\n    /* \"#utility.yul\":2592:2597   */\n  dup2\n    /* \"#utility.yul\":2588:2601   */\n  add\n    /* \"#utility.yul\":2579:2601   */\n  swap1\n  pop\n    /* \"#utility.yul\":2555:2675   */\n  jump(tag_77)\ntag_79:\n    /* \"#utility.yul\":2495:2681   */\n  pop\n  pop\n  jump\t// out\n    /* \"#utility.yul\":2687:3230   */\ntag_32:\n    /* \"#utility.yul\":2788:2790   */\n  0x1f\n    /* \"#utility.yul\":2783:2786   */\n  dup3\n    /* \"#utility.yul\":2780:2791   */\n  gt\n    /* \"#utility.yul\":2777:3223   */\n  iszero\n  tag_82\n  jumpi\n    /* \"#utility.yul\":2822:2860   */\n  tag_83\n    /* \"#utility.yul\":2854:2859   */\n  dup2\n    /* \"#utility.yul\":2822:2860   */\n  tag_20\n  jump\t// in\ntag_83:\n    /* \"#utility.yul\":2906:2935   */\n  tag_84\n    /* \"#utility.yul\":2924:2934   */\n  dup5\n    /* \"#utility.yul\":2906:2935   */\n  tag_21\n  jump\t// in\ntag_84:\n    /* \"#utility.yul\":2896:2904   */\n  dup2\n    /* \"#utility.yul\":2892:2936   */\n  add\n    /* \"#utility.yul\":3089:3091   */\n  0x20\n    /* \"#utility.yul\":3077:3087   */\n  dup6\n    /* \"#utility.yul\":3074:3092   */\n  lt\n    /* \"#utility.yul\":3071:3120   */\n  iszero\n  tag_85\n  jumpi\n    /* \"#utility.yul\":3110:3118   */\n  dup2\n    /* \"#utility.yul\":3095:3118   */\n  swap1\n  pop\n    /* \"#utility.yul\":3071:3120   */\ntag_85:\n    /* \"#utility.yul\":3133:3213   */\n  tag_86\n    /* \"#utility.yul\":3189:3211   */\n  tag_87\n    /* \"#utility.yul\":3207:3210   */\n  dup6\n    /* \"#utility.yul\":3189:3211   */\n  tag_21\n  jump\t// in\ntag_87:\n    /* \"#utility.yul\":3179:3187   */\n  dup4\n    /* \"#utility.yul\":3175:3212   */\n  add\n    /* \"#utility.yul\":3162:3173   */\n  dup3\n    /* \"#utility.yul\":3133:3213   */\n  tag_31\n  jump\t// in\ntag_86:\n    /* \"#utility.yul\":2792:3223   */\n  pop\n  pop\n    /* \"#utility.yul\":2777:3223   */\ntag_82:\n    /* \"#utility.yul\":2687:3230   */\n  pop\n  pop\n  pop\n  jump\t// out\n    /* \"#utility.yul\":3236:3353   */\ntag_33:\n    /* \"#utility.yul\":3290:3298   */\n  0x00\n    /* \"#utility.yul\":3340:3345   */\n  dup3\n    /* \"#utility.yul\":3334:3338   */\n  dup3\n    /* \"#utility.yul\":3330:3346   */\n  shr\n    /* \"#utility.yul\":3309:3346   */\n  swap1\n  pop\n    /* \"#utility.yul\":3236:3353   */\n  swap3\n  swap2\n  pop\n  pop\n  jump\t// out\n    /* \"#utility.yul\":3359:3528   */\ntag_34:\n    /* \"#utility.yul\":3403:3409   */\n  0x00\n    /* \"#utility.yul\":3436:3487   */\n  tag_90\n    /* \"#utility.yul\":3484:3485   */\n  0x00\n    /* \"#utility.yul\":3480:3486   */\n  not\n    /* \"#utility.yul\":3472:3477   */\n  dup5\n    /* \"#utility.yul\":3469:3470   */\n  0x08\n    /* \"#utility.yul\":3465:3478   */\n  mul\n    /* \"#utility.yul\":3436:3487   */\n  tag_33\n  jump\t// in\ntag_90:\n    /* \"#utility.yul\":3432:3488   */\n  not\n    /* \"#utility.yul\":3517:3521   */\n  dup1\n    /* \"#utility.yul\":3511:3515   */\n  dup4\n    /* \"#utility.yul\":3507:3522   */\n  and\n    /* \"#utility.yul\":3497:3522   */\n  swap2\n  pop\n    /* \"#utility.yul\":3410:3528   */\n  pop\n    /* \"#utility.yul\":3359:3528   */\n  swap3\n  swap2\n  pop\n  pop\n  jump\t// out\n    /* \"#utility.yul\":3533:3828   */\ntag_35:\n    /* \"#utility.yul\":3609:3613   */\n  0x00\n    /* \"#utility.yul\":3755:3784   */\n  tag_92\n    /* \"#utility.yul\":3780:3783   */\n  dup4\n    /* \"#utility.yul\":3774:3778   */\n  dup4\n    /* \"#utility.yul\":3755:3784   */\n  tag_34\n  jump\t// in\ntag_92:\n    /* \"#utility.yul\":3747:3784   */\n  swap2\n  pop\n    /* \"#utility.yul\":3817:3820   */\n  dup3\n    /* \"#utility.yul\":3814:3815   */\n  0x02\n    /* \"#utility.yul\":3810:3821   */\n  mul\n    /* \"#utility.yul\":3804:3808   */\n  dup3\n    /* \"#utility.yul\":3801:3822   */\n  or\n    /* \"#utility.yul\":3793:3822   */\n  swap1\n  pop\n    /* \"#utility.yul\":3533:3828   */\n  swap3\n  swap2\n  pop\n  pop\n  jump\t// out\n    /* \"#utility.yul\":3833:5228   */\ntag_2:\n    /* \"#utility.yul\":3950:3987   */\n  tag_94\n    /* \"#utility.yul\":3983:3986   */\n  dup3\n    /* \"#utility.yul\":3950:3987   */\n  tag_16\n  jump\t// in\ntag_94:\n    /* \"#utility.yul\":4052:4070   */\n  0xffffffffffffffff\n    /* \"#utility.yul\":4044:4050   */\n  dup2\n    /* \"#utility.yul\":4041:4071   */\n  gt\n    /* \"#utility.yul\":4038:4094   */\n  iszero\n  tag_95\n  jumpi\n    /* \"#utility.yul\":4074:4092   */\n  tag_96\n  tag_17\n  jump\t// in\ntag_96:\n    /* \"#utility.yul\":4038:4094   */\ntag_95:\n    /* \"#utility.yul\":4118:4156   */\n  tag_97\n    /* \"#utility.yul\":4150:4154   */\n  dup3\n    /* \"#utility.yul\":4144:4155   */\n  sload\n    /* \"#utility.yul\":4118:4156   */\n  tag_19\n  jump\t// in\ntag_97:\n    /* \"#utility.yul\":4203:4270   */\n  tag_98\n    /* \"#utility.yul\":4263:4269   */\n  dup3\n    /* \"#utility.yul\":4255:4261   */\n  dup3\n    /* \"#utility.yul\":4249:4253   */\n  dup6\n    /* \"#utility.yul\":4203:4270   */\n  tag_32\n  jump\t// in\ntag_98:\n    /* \"#utility.yul\":4297:4298   */\n  0x00\n    /* \"#utility.yul\":4321:4325   */\n  0x20\n    /* \"#utility.yul\":4308:4325   */\n  swap1\n  pop\n    /* \"#utility.yul\":4353:4355   */\n  0x1f\n    /* \"#utility.yul\":4345:4351   */\n  dup4\n    /* \"#utility.yul\":4342:4356   */\n  gt\n    /* \"#utility.yul\":4370:4371   */\n  0x01\n    /* \"#utility.yul\":4365:4983   */\n  dup2\n  eq\n  tag_100\n  jumpi\n    /* \"#utility.yul\":5027:5028   */\n  0x00\n    /* \"#utility.yul\":5044:5050   */\n  dup5\n    /* \"#utility.yul\":5041:5118   */\n  iszero\n  tag_101\n  jumpi\n    /* \"#utility.yul\":5093:5102   */\n  dup3\n    /* \"#utility.yul\":5088:5091   */\n  dup8\n    /* \"#utility.yul\":5084:5103   */\n  add\n    /* \"#utility.yul\":5078:5104   */\n  mload\n    /* \"#utility.yul\":5069:5104   */\n  swap1\n  pop\n    /* \"#utility.yul\":5041:5118   */\ntag_101:\n    /* \"#utility.yul\":5144:5211   */\n  tag_102\n    /* \"#utility.yul\":5204:5210   */\n  dup6\n    /* \"#utility.yul\":5197:5202   */\n  dup3\n    /* \"#utility.yul\":5144:5211   */\n  tag_35\n  jump\t// in\ntag_102:\n    /* \"#utility.yul\":5138:5142   */\n  dup7\n    /* \"#utility.yul\":5131:5212   */\n  sstore\n    /* \"#utility.yul\":5000:5222   */\n  pop\n    /* \"#utility.yul\":4335:5222   */\n  jump(tag_99)\n    /* \"#utility.yul\":4365:4983   */\ntag_100:\n    /* \"#utility.yul\":4417:4421   */\n  0x1f\n    /* \"#utility.yul\":4413:4422   */\n  not\n    /* \"#utility.yul\":4405:4411   */\n  dup5\n    /* \"#utility.yul\":4401:4423   */\n  and\n    /* \"#utility.yul\":4451:4488   */\n  tag_103\n    /* \"#utility.yul\":4483:4487   */\n  dup7\n    /* \"#utility.yul\":4451:4488   */\n  tag_20\n  jump\t// in\ntag_103:\n    /* \"#utility.yul\":4510:4511   */\n  0x00\n    /* \"#utility.yul\":4524:4732   */\ntag_104:\n    /* \"#utility.yul\":4538:4545   */\n  dup3\n    /* \"#utility.yul\":4535:4536   */\n  dup2\n    /* \"#utility.yul\":4532:4546   */\n  lt\n    /* \"#utility.yul\":4524:4732   */\n  iszero\n  tag_106\n  jumpi\n    /* \"#utility.yul\":4617:4626   */\n  dup5\n    /* \"#utility.yul\":4612:4615   */\n  dup10\n    /* \"#utility.yul\":4608:4627   */\n  add\n    /* \"#utility.yul\":4602:4628   */\n  mload\n    /* \"#utility.yul\":4594:4600   */\n  dup3\n    /* \"#utility.yul\":4587:4629   */\n  sstore\n    /* \"#utility.yul\":4668:4669   */\n  0x01\n    /* \"#utility.yul\":4660:4666   */\n  dup3\n    /* \"#utility.yul\":4656:4670   */\n  add\n    /* \"#utility.yul\":4646:4670   */\n  swap2\n  pop\n    /* \"#utility.yul\":4715:4717   */\n  0x20\n    /* \"#utility.yul\":4704:4713   */\n  dup6\n    /* \"#utility.yul\":4700:4718   */\n  add\n    /* \"#utility.yul\":4687:4718   */\n  swap5\n  pop\n    /* \"#utility.yul\":4561:4565   */\n  0x20\n    /* \"#utility.yul\":4558:4559   */\n  dup2\n    /* \"#utility.yul\":4554:4566   */\n  add\n    /* \"#utility.yul\":4549:4566   */\n  swap1\n  pop\n    /* \"#utility.yul\":4524:4732   */\n  jump(tag_104)\ntag_106:\n    /* \"#utility.yul\":4760:4766   */\n  dup7\n    /* \"#utility.yul\":4751:4758   */\n  dup4\n    /* \"#utility.yul\":4748:4767   */\n  lt\n    /* \"#utility.yul\":4745:4924   */\n  iszero\n  tag_107\n  jumpi\n    /* \"#utility.yul\":4818:4827   */\n  dup5\n    /* \"#utility.yul\":4813:4816   */\n  dup10\n    /* \"#utility.yul\":4809:4828   */\n  add\n    /* \"#utility.yul\":4803:4829   */\n  mload\n    /* \"#utility.yul\":4861:4909   */\n  tag_108\n    /* \"#utility.yul\":4903:4907   */\n  0x1f\n    /* \"#utility.yul\":4895:4901   */\n  dup10\n    /* \"#utility.yul\":4891:4908   */\n  and\n    /* \"#utility.yul\":4880:4889   */\n  dup3\n    /* \"#utility.yul\":4861:4909   */\n  tag_34\n  jump\t// in\ntag_108:\n    /* \"#utility.yul\":4853:4859   */\n  dup4\n    /* \"#utility.yul\":4846:4910   */\n  sstore\n    /* \"#utility.yul\":4768:4924   */\n  pop\n    /* \"#utility.yul\":4745:4924   */\ntag_107:\n    /* \"#utility.yul\":4970:4971   */\n  0x01\n    /* \"#utility.yul\":4966:4967   */\n  0x02\n    /* \"#utility.yul\":4958:4964   */\n  dup9\n    /* \"#utility.yul\":4954:4968   */\n  mul\n    /* \"#utility.yul\":4950:4972   */\n  add\n    /* \"#utility.yul\":4944:4948   */\n  dup9\n    /* \"#utility.yul\":4937:4973   */\n  sstore\n    /* \"#utility.yul\":4372:4983   */\n  pop\n  pop\n  pop\n    /* \"#utility.yul\":4335:5222   */\ntag_99:\n  pop\n    /* \"#utility.yul\":3925:5228   */\n  pop\n  pop\n  pop\n    /* \"#utility.yul\":3833:5228   */\n  pop\n  pop\n  jump\t// out\n    /* \"#utility.yul\":5315:5432   */\ntag_37:\n    /* \"#utility.yul\":5424:5425   */\n  0x00\n    /* \"#utility.yul\":5421:5422   */\n  0x00\n    /* \"#utility.yul\":5414:5426   */\n  revert\n    /* \"#utility.yul\":5561:5683   */\ntag_39:\n    /* \"#utility.yul\":5634:5658   */\n  tag_113\n    /* \"#utility.yul\":5652:5657   */\n  dup2\n    /* \"#utility.yul\":5634:5658   */\n  tag_24\n  jump\t// in\ntag_113:\n    /* \"#utility.yul\":5627:5632   */\n  dup2\n    /* \"#utility.yul\":5624:5659   */\n  eq\n    /* \"#utility.yul\":5614:5677   */\n  tag_114\n  jumpi\n    /* \"#utility.yul\":5673:5674   */\n  0x00\n    /* \"#utility.yul\":5670:5671   */\n  0x00\n    /* \"#utility.yul\":5663:5675   */\n  revert\n    /* \"#utility.yul\":5614:5677   */\ntag_114:\n    /* \"#utility.yul\":5561:5683   */\n  pop\n  jump\t// out\n    /* \"#utility.yul\":5689:5832   */\ntag_40:\n    /* \"#utility.yul\":5746:5751   */\n  0x00\n    /* \"#utility.yul\":5777:5783   */\n  dup2\n    /* \"#utility.yul\":5771:5784   */\n  mload\n    /* \"#utility.yul\":5762:5784   */\n  swap1\n  pop\n    /* \"#utility.yul\":5793:5826   */\n  tag_116\n    /* \"#utility.yul\":5820:5825   */\n  dup2\n    /* \"#utility.yul\":5793:5826   */\n  tag_39\n  jump\t// in\ntag_116:\n    /* \"#utility.yul\":5689:5832   */\n  swap3\n  swap2\n  pop\n  pop\n  jump\t// out\n    /* \"#utility.yul\":5838:6189   */\ntag_6:\n    /* \"#utility.yul\":5908:5914   */\n  0x00\n    /* \"#utility.yul\":5957:5959   */\n  0x20\n    /* \"#utility.yul\":5945:5954   */\n  dup3\n    /* \"#utility.yul\":5936:5943   */\n  dup5\n    /* \"#utility.yul\":5932:5955   */\n  sub\n    /* \"#utility.yul\":5928:5960   */\n  slt\n    /* \"#utility.yul\":5925:6044   */\n  iszero\n  tag_118\n  jumpi\n    /* \"#utility.yul\":5963:6042   */\n  tag_119\n  tag_37\n  jump\t// in\ntag_119:\n    /* \"#utility.yul\":5925:6044   */\ntag_118:\n    /* \"#utility.yul\":6083:6084   */\n  0x00\n    /* \"#utility.yul\":6108:6172   */\n  tag_120\n    /* \"#utility.yul\":6164:6171   */\n  dup5\n    /* \"#utility.yul\":6155:6161   */\n  dup3\n    /* \"#utility.yul\":6144:6153   */\n  dup6\n    /* \"#utility.yul\":6140:6162   */\n  add\n    /* \"#utility.yul\":6108:6172   */\n  tag_40\n  jump\t// in\ntag_120:\n    /* \"#utility.yul\":6098:6172   */\n  swap2\n  pop\n    /* \"#utility.yul\":6054:6182   */\n  pop\n    /* \"#utility.yul\":5838:6189   */\n  swap3\n  swap2\n  pop\n  pop\n  jump\t// out\n    /* \"#utility.yul\":6195:6375   */\ntag_41:\n    /* \"#utility.yul\":6243:6320   */\n  0x4e487b7100000000000000000000000000000000000000000000000000000000\n    /* \"#utility.yul\":6240:6241   */\n  0x00\n    /* \"#utility.yul\":6233:6321   */\n  mstore\n    /* \"#utility.yul\":6340:6344   */\n  0x11\n    /* \"#utility.yul\":6337:6338   */\n  0x04\n    /* \"#utility.yul\":6330:6345   */\n  mstore\n    /* \"#utility.yul\":6364:6368   */\n  0x24\n    /* \"#utility.yul\":6361:6362   */\n  0x00\n    /* \"#utility.yul\":6354:6369   */\n  revert\n    /* \"#utility.yul\":6381:6483   */\ntag_42:\n    /* \"#utility.yul\":6423:6431   */\n  0x00\n    /* \"#utility.yul\":6470:6475   */\n  dup2\n    /* \"#utility.yul\":6467:6468   */\n  0x01\n    /* \"#utility.yul\":6463:6476   */\n  shr\n    /* \"#utility.yul\":6442:6476   */\n  swap1\n  pop\n    /* \"#utility.yul\":6381:6483   */\n  swap2\n  swap1\n  pop\n  jump\t// out\n    /* \"#utility.yul\":6489:7337   */\ntag_43:\n    /* \"#utility.yul\":6550:6555   */\n  0x00\n    /* \"#utility.yul\":6557:6561   */\n  0x00\n    /* \"#utility.yul\":6581:6587   */\n  dup3\n    /* \"#utility.yul\":6572:6587   */\n  swap2\n  pop\n    /* \"#utility.yul\":6605:6610   */\n  dup4\n    /* \"#utility.yul\":6596:6610   */\n  swap1\n  pop\n    /* \"#utility.yul\":6619:7331   */\ntag_124:\n    /* \"#utility.yul\":6640:6641   */\n  0x01\n    /* \"#utility.yul\":6630:6638   */\n  dup6\n    /* \"#utility.yul\":6627:6642   */\n  gt\n    /* \"#utility.yul\":6619:7331   */\n  iszero\n  tag_126\n  jumpi\n    /* \"#utility.yul\":6735:6739   */\n  dup1\n    /* \"#utility.yul\":6730:6733   */\n  dup7\n    /* \"#utility.yul\":6726:6740   */\n  div\n    /* \"#utility.yul\":6720:6724   */\n  dup2\n    /* \"#utility.yul\":6717:6741   */\n  gt\n    /* \"#utility.yul\":6714:6764   */\n  iszero\n  tag_127\n  jumpi\n    /* \"#utility.yul\":6744:6762   */\n  tag_128\n  tag_41\n  jump\t// in\ntag_128:\n    /* \"#utility.yul\":6714:6764   */\ntag_127:\n    /* \"#utility.yul\":6794:6795   */\n  0x01\n    /* \"#utility.yul\":6784:6792   */\n  dup6\n    /* \"#utility.yul\":6780:6796   */\n  and\n    /* \"#utility.yul\":6777:7228   */\n  iszero\n  tag_129\n  jumpi\n    /* \"#utility.yul\":7209:7213   */\n  dup1\n    /* \"#utility.yul\":7202:7207   */\n  dup3\n    /* \"#utility.yul\":7198:7214   */\n  mul\n    /* \"#utility.yul\":7189:7214   */\n  swap2\n  pop\n    /* \"#utility.yul\":6777:7228   */\ntag_129:\n    /* \"#utility.yul\":7259:7263   */\n  dup1\n    /* \"#utility.yul\":7253:7257   */\n  dup2\n    /* \"#utility.yul\":7249:7264   */\n  mul\n    /* \"#utility.yul\":7241:7264   */\n  swap1\n  pop\n    /* \"#utility.yul\":7289:7321   */\n  tag_130\n    /* \"#utility.yul\":7312:7320   */\n  dup6\n    /* \"#utility.yul\":7289:7321   */\n  tag_42\n  jump\t// in\ntag_130:\n    /* \"#utility.yul\":7277:7321   */\n  swap5\n  pop\n    /* \"#utility.yul\":6619:7331   */\n  jump(tag_124)\ntag_126:\n    /* \"#utility.yul\":6489:7337   */\n  swap5\n  pop\n  swap5\n  swap3\n  pop\n  pop\n  pop\n  jump\t// out\n    /* \"#utility.yul\":7343:8416   */\ntag_44:\n    /* \"#utility.yul\":7397:7402   */\n  0x00\n    /* \"#utility.yul\":7588:7596   */\n  dup3\n    /* \"#utility.yul\":7578:7618   */\n  tag_132\n  jumpi\n    /* \"#utility.yul\":7609:7610   */\n  0x01\n    /* \"#utility.yul\":7600:7610   */\n  swap1\n  pop\n    /* \"#utility.yul\":7611:7616   */\n  jump(tag_131)\n    /* \"#utility.yul\":7578:7618   */\ntag_132:\n    /* \"#utility.yul\":7637:7641   */\n  dup2\n    /* \"#utility.yul\":7627:7663   */\n  tag_133\n  jumpi\n    /* \"#utility.yul\":7654:7655   */\n  0x00\n    /* \"#utility.yul\":7645:7655   */\n  swap1\n  pop\n    /* \"#utility.yul\":7656:7661   */\n  jump(tag_131)\n    /* \"#utility.yul\":7627:7663   */\ntag_133:\n    /* \"#utility.yul\":7723:7727   */\n  dup2\n    /* \"#utility.yul\":7771:7772   */\n  0x01\n    /* \"#utility.yul\":7766:7793   */\n  dup2\n  eq\n  tag_135\n  jumpi\n    /* \"#utility.yul\":7807:7808   */\n  0x02\n    /* \"#utility.yul\":7802:7993   */\n  dup2\n  eq\n  tag_136\n  jumpi\n    /* \"#utility.yul\":7716:7993   */\n  jump(tag_134)\n    /* \"#utility.yul\":7766:7793   */\ntag_135:\n    /* \"#utility.yul\":7784:7785   */\n  0x01\n    /* \"#utility.yul\":7775:7785   */\n  swap2\n  pop\n    /* \"#utility.yul\":7786:7791   */\n  pop\n  jump(tag_131)\n    /* \"#utility.yul\":7802:7993   */\ntag_136:\n    /* \"#utility.yul\":7847:7850   */\n  0xff\n    /* \"#utility.yul\":7837:7845   */\n  dup5\n    /* \"#utility.yul\":7834:7851   */\n  gt\n    /* \"#utility.yul\":7831:7874   */\n  iszero\n  tag_137\n  jumpi\n    /* \"#utility.yul\":7854:7872   */\n  tag_138\n  tag_41\n  jump\t// in\ntag_138:\n    /* \"#utility.yul\":7831:7874   */\ntag_137:\n    /* \"#utility.yul\":7903:7911   */\n  dup4\n    /* \"#utility.yul\":7900:7901   */\n  0x02\n    /* \"#utility.yul\":7896:7912   */\n  exp\n    /* \"#utility.yul\":7887:7912   */\n  swap2\n  pop\n    /* \"#utility.yul\":7938:7941   */\n  dup5\n    /* \"#utility.yul\":7931:7936   */\n  dup3\n    /* \"#utility.yul\":7928:7942   */\n  gt\n    /* \"#utility.yul\":7925:7965   */\n  iszero\n  tag_139\n  jumpi\n    /* \"#utility.yul\":7945:7963   */\n  tag_140\n  tag_41\n  jump\t// in\ntag_140:\n    /* \"#utility.yul\":7925:7965   */\ntag_139:\n    /* \"#utility.yul\":7978:7983   */\n  pop\n  jump(tag_131)\n    /* \"#utility.yul\":7716:7993   */\ntag_134:\n  pop\n    /* \"#utility.yul\":8102:8104   */\n  0x20\n    /* \"#utility.yul\":8092:8100   */\n  dup4\n    /* \"#utility.yul\":8089:8105   */\n  lt\n    /* \"#utility.yul\":8083:8086   */\n  0x0133\n    /* \"#utility.yul\":8077:8081   */\n  dup4\n    /* \"#utility.yul\":8074:8087   */\n  lt\n    /* \"#utility.yul\":8070:8106   */\n  and\n    /* \"#utility.yul\":8052:8054   */\n  0x4e\n    /* \"#utility.yul\":8042:8050   */\n  dup5\n    /* \"#utility.yul\":8039:8055   */\n  lt\n    /* \"#utility.yul\":8034:8036   */\n  0x0b\n    /* \"#utility.yul\":8028:8032   */\n  dup5\n    /* \"#utility.yul\":8025:8037   */\n  lt\n    /* \"#utility.yul\":8021:8056   */\n  and\n    /* \"#utility.yul\":8005:8116   */\n  or\n    /* \"#utility.yul\":8002:8248   */\n  iszero\n  tag_141\n  jumpi\n    /* \"#utility.yul\":8158:8166   */\n  dup3\n    /* \"#utility.yul\":8152:8156   */\n  dup3\n    /* \"#utility.yul\":8148:8167   */\n  exp\n    /* \"#utility.yul\":8139:8167   */\n  swap1\n  pop\n    /* \"#utility.yul\":8193:8196   */\n  dup4\n    /* \"#utility.yul\":8186:8191   */\n  dup2\n    /* \"#utility.yul\":8183:8197   */\n  gt\n    /* \"#utility.yul\":8180:8220   */\n  iszero\n  tag_142\n  jumpi\n    /* \"#utility.yul\":8200:8218   */\n  tag_143\n  tag_41\n  jump\t// in\ntag_143:\n    /* \"#utility.yul\":8180:8220   */\ntag_142:\n    /* \"#utility.yul\":8233:8238   */\n  jump(tag_131)\n    /* \"#utility.yul\":8002:8248   */\ntag_141:\n    /* \"#utility.yul\":8273:8315   */\n  tag_144\n    /* \"#utility.yul\":8311:8314   */\n  dup5\n    /* \"#utility.yul\":8301:8309   */\n  dup5\n    /* \"#utility.yul\":8295:8299   */\n  dup5\n    /* \"#utility.yul\":8292:8293   */\n  0x01\n    /* \"#utility.yul\":8273:8315   */\n  tag_43\n  jump\t// in\ntag_144:\n    /* \"#utility.yul\":8258:8315   */\n  swap3\n  pop\n  swap1\n  pop\n    /* \"#utility.yul\":8347:8351   */\n  dup2\n    /* \"#utility.yul\":8342:8345   */\n  dup5\n    /* \"#utility.yul\":8338:8352   */\n  div\n    /* \"#utility.yul\":8331:8336   */\n  dup2\n    /* \"#utility.yul\":8328:8353   */\n  gt\n    /* \"#utility.yul\":8325:8376   */\n  iszero\n  tag_145\n  jumpi\n    /* \"#utility.yul\":8356:8374   */\n  tag_146\n  tag_41\n  jump\t// in\ntag_146:\n    /* \"#utility.yul\":8325:8376   */\ntag_145:\n    /* \"#utility.yul\":8405:8409   */\n  dup2\n    /* \"#utility.yul\":8398:8403   */\n  dup2\n    /* \"#utility.yul\":8394:8410   */\n  mul\n    /* \"#utility.yul\":8385:8410   */\n  swap1\n  pop\n    /* \"#utility.yul\":7343:8416   */\ntag_131:\n  swap4\n  swap3\n  pop\n  pop\n  pop\n  jump\t// out\n    /* \"#utility.yul\":8422:8508   */\ntag_45:\n    /* \"#utility.yul\":8457:8464   */\n  0x00\n    /* \"#utility.yul\":8497:8501   */\n  0xff\n    /* \"#utility.yul\":8490:8495   */\n  dup3\n    /* \"#utility.yul\":8486:8502   */\n  and\n    /* \"#utility.yul\":8475:8502   */\n  swap1\n  pop\n    /* \"#utility.yul\":8422:8508   */\n  swap2\n  swap1\n  pop\n  jump\t// out\n    /* \"#utility.yul\":8514:8795   */\ntag_10:\n    /* \"#utility.yul\":8572:8577   */\n  0x00\n    /* \"#utility.yul\":8596:8619   */\n  tag_149\n    /* \"#utility.yul\":8614:8618   */\n  dup3\n    /* \"#utility.yul\":8596:8619   */\n  tag_24\n  jump\t// in\ntag_149:\n    /* \"#utility.yul\":8588:8619   */\n  swap2\n  pop\n    /* \"#utility.yul\":8640:8665   */\n  tag_150\n    /* \"#utility.yul\":8656:8664   */\n  dup4\n    /* \"#utility.yul\":8640:8665   */\n  tag_45\n  jump\t// in\ntag_150:\n    /* \"#utility.yul\":8628:8665   */\n  swap3\n  pop\n    /* \"#utility.yul\":8684:8788   */\n  tag_151\n    /* \"#utility.yul\":8721:8787   */\n  0xffffffffffffffffffffffffffffffffffffffffffffffffffffffffffffffff\n    /* \"#utility.yul\":8711:8719   */\n  dup5\n    /* \"#utility.yul\":8705:8709   */\n  dup5\n    /* \"#utility.yul\":8684:8788   */\n  tag_44\n  jump\t// in\ntag_151:\n    /* \"#utility.yul\":8675:8788   */\n  swap1\n  pop\n    /* \"#utility.yul\":8514:8795   */\n  swap3\n  swap2\n  pop\n  pop\n  jump\t// out\n    /* \"#utility.yul\":8801:9211   */\ntag_12:\n    /* \"#utility.yul\":8841:8848   */\n  0x00\n    /* \"#utility.yul\":8864:8884   */\n  tag_153\n    /* \"#utility.yul\":8882:8883   */\n  dup3\n    /* \"#utility.yul\":8864:8884   */\n  tag_24\n  jump\t// in\ntag_153:\n    /* \"#utility.yul\":8859:8884   */\n  swap2\n  pop\n    /* \"#utility.yul\":8898:8918   */\n  tag_154\n    /* \"#utility.yul\":8916:8917   */\n  dup4\n    /* \"#utility.yul\":8898:8918   */\n  tag_24\n  jump\t// in\ntag_154:\n    /* \"#utility.yul\":8893:8918   */\n  swap3\n  pop\n    /* \"#utility.yul\":8953:8954   */\n  dup3\n    /* \"#utility.yul\":8950:8951   */\n  dup3\n    /* \"#utility.yul\":8946:8955   */\n  mul\n    /* \"#utility.yul\":8975:9005   */\n  tag_155\n    /* \"#utility.yul\":8993:9004   */\n  dup2\n    /* \"#utility.yul\":8975:9005   */\n  tag_24\n  jump\t// in\ntag_155:\n    /* \"#utility.yul\":8964:9005   */\n  swap2\n  pop\n    /* \"#utility.yul\":9154:9155   */\n  dup3\n    /* \"#utility.yul\":9145:9152   */\n  dup3\n    /* \"#utility.yul\":9141:9156   */\n  div\n    /* \"#utility.yul\":9138:9139   */\n  dup5\n    /* \"#utility.yul\":9135:9157   */\n  eq\n    /* \"#utility.yul\":9115:9116   */\n  dup4\n    /* \"#utility.yul\":9108:9117   */\n  iszero\n    /* \"#utility.yul\":9088:9171   */\n  or\n    /* \"#utility.yul\":9065:9204   */\n  tag_156\n  jumpi\n    /* \"#utility.yul\":9184:9202   */\n  tag_157\n  tag_41\n  jump\t// in\ntag_157:\n    /* \"#utility.yul\":9065:9204   */\ntag_156:\n    /* \"#utility.yul\":8849:9211   */\n  pop\n    /* \"#utility.yul\":8801:9211   */\n  swap3\n  swap2\n  pop\n  pop\n  jump\t// out\n    /* \"#utility.yul\":9217:9335   */\ntag_46:\n    /* \"#utility.yul\":9304:9328   */\n  tag_159\n    /* \"#utility.yul\":9322:9327   */\n  dup2\n    /* \"#utility.yul\":9304:9328   */\n  tag_24\n  jump\t// in\ntag_159:\n    /* \"#utility.yul\":9299:9302   */\n  dup3\n    /* \"#utility.yul\":9292:9329   */\n  mstore\n    /* \"#utility.yul\":9217:9335   */\n  pop\n  pop\n  jump\t// out\n    /* \"#utility.yul\":9341:9563   */\ntag_14:\n    /* \"#utility.yul\":9434:9438   */\n  0x00\n    /* \"#utility.yul\":9472:9474   */\n  0x20\n    /* \"#utility.yul\":9461:9470   */\n  dup3\n    /* \"#utility.yul\":9457:9475   */\n  add\n    /* \"#utility.yul\":9449:9475   */\n  swap1\n  pop\n    /* \"#utility.yul\":9485:9556   */\n  tag_161\n    /* \"#utility.yul\":9553:9554   */\n  0x00\n    /* \"#utility.yul\":9542:9551   */\n  dup4\n    /* \"#utility.yul\":9538:9555   */\n  add\n    /* \"#utility.yul\":9529:9535   */\n  dup5\n    /* \"#utility.yul\":9485:9556   */\n  tag_46\n  jump\t// in\ntag_161:\n    /* \"#utility.yul\":9341:9563   */\n  swap3\n  swap2\n  pop\n  pop\n  jump\t// out\n    /* \"contracts/task2/01 job1.sol\":61:4316  contract MyERC20 {... */\ntag_15:\n  dataSize(sub_0)\n  dup1\n  dataOffset(sub_0)\n  0x00\n  codecopy\n  0x00\n  return\nstop\n\nsub_0: assembly {\n        /* \"contracts/task2/01 job1.sol\":61:4316  contract MyERC20 {... */\n      mstore(0x40, 0x80)\n      callvalue\n      dup1\n      iszero\n      tag_1\n      jumpi\n      revert(0x00, 0x00)\n    tag_1:\n      pop\n      jumpi(tag_2, lt(calldatasize, 0x04))\n      shr(0xe0, calldataload(0x00))\n      dup1\n      0x75247a58\n      gt\n      tag_16\n      jumpi\n      dup1\n      0x8da5cb5b\n      gt\n      tag_17\n      jumpi\n      dup1\n      0x8da5cb5b\n      eq\n      tag_12\n      jumpi\n      dup1\n      0x95d89b41\n      eq\n      tag_13\n      jumpi\n      dup1\n      0xa9059cbb\n      eq\n      tag_14\n      jumpi\n      dup1\n      0xdd62ed3e\n      eq\n      tag_15\n      jumpi\n      jump(tag_2)\n    tag_17:\n      dup1\n      0x75247a58\n      eq\n      tag_9\n      jumpi\n      dup1\n      0x76809ce3\n      eq\n      tag_10\n      jumpi\n      dup1\n      0x88d695b2\n      eq\n      tag_11\n      jumpi\n      jump(tag_2)\n    tag_16:\n      dup1\n      0x06fdde03\n      eq\n      tag_3\n      jumpi\n      dup1\n      0x18160ddd\n      eq\n      tag_4\n      jumpi\n      dup1\n      0x3112ae5b\n      eq\n      tag_5\n      jumpi\n      dup1\n      0x40c10f19\n      eq\n      tag_6\n      jumpi\n      dup1\n      0x42966c68\n      eq\n      tag_7\n      jumpi\n      dup1\n      0x70a08231\n      eq\n      tag_8\n      jumpi\n    tag_2:\n      revert(0x00, 0x00)\n        /* \"contracts/task2/01 job1.sol\":85:117  string public name=\"Young Token\" */\n    tag_3:\n      tag_18\n      tag_19\n      jump\t// in\n    tag_18:\n      mload(0x40)\n      tag_20\n      swap2\n      swap1\n      tag_21\n      jump\t// in\n    tag_20:\n      mload(0x40)\n      dup1\n      swap2\n      sub\n      swap1\n      return\n        /* \"contracts/task2/01 job1.sol\":189:215  uint256 public totalSupply */\n    tag_4:\n      tag_22\n      tag_23\n      jump\t// in\n    tag_22:\n      mload(0x40)\n      tag_24\n      swap2\n      swap1\n      tag_25\n      jump\t// in\n    tag_24:\n      mload(0x40)\n      dup1\n      swap2\n      sub\n      swap1\n      return\n        /* \"contracts/task2/01 job1.sol\":1877:2443  function transferForm(address _from, address _to, uint256 _amount) public returns (bool){... */\n    tag_5:\n      tag_26\n      0x04\n      dup1\n      calldatasize\n      sub\n      dup2\n      add\n      swap1\n      tag_27\n      swap2\n      swap1\n      tag_28\n      jump\t// in\n    tag_27:\n      tag_29\n      jump\t// in\n    tag_26:\n      mload(0x40)\n      tag_30\n      swap2\n      swap1\n      tag_31\n      jump\t// in\n    tag_30:\n      mload(0x40)\n      dup1\n      swap2\n      sub\n      swap1\n      return\n        /* \"contracts/task2/01 job1.sol\":2472:2716  function mint(address _to, uint256 _amount) public onlyOwner{... */\n    tag_6:\n      tag_32\n      0x04\n      dup1\n      calldatasize\n      sub\n      dup2\n      add\n      swap1\n      tag_33\n      swap2\n      swap1\n      tag_34\n      jump\t// in\n    tag_33:\n      tag_35\n      jump\t// in\n    tag_32:\n      stop\n        /* \"contracts/task2/01 job1.sol\":2745:3004  function burn(uint256 _amount) public {... */\n    tag_7:\n      tag_36\n      0x04\n      dup1\n      calldatasize\n      sub\n      dup2\n      add\n      swap1\n      tag_37\n      swap2\n      swap1\n      tag_38\n      jump\t// in\n    tag_37:\n      tag_39\n      jump\t// in\n    tag_36:\n      stop\n        /* \"contracts/task2/01 job1.sol\":306:349  mapping (address=>uint256) public balanceOf */\n    tag_8:\n      tag_40\n      0x04\n      dup1\n      calldatasize\n      sub\n      dup2\n      add\n      swap1\n      tag_41\n      swap2\n      swap1\n      tag_42\n      jump\t// in\n    tag_41:\n      tag_43\n      jump\t// in\n    tag_40:\n      mload(0x40)\n      tag_44\n      swap2\n      swap1\n      tag_25\n      jump\t// in\n    tag_44:\n      mload(0x40)\n      dup1\n      swap2\n      sub\n      swap1\n      return\n        /* \"contracts/task2/01 job1.sol\":1575:1848  function approval(address _spender, uint256 _amount) public returns (bool){... */\n    tag_9:\n      tag_45\n      0x04\n      dup1\n      calldatasize\n      sub\n      dup2\n      add\n      swap1\n      tag_46\n      swap2\n      swap1\n      tag_34\n      jump\t// in\n    tag_46:\n      tag_47\n      jump\t// in\n    tag_45:\n      mload(0x40)\n      tag_48\n      swap2\n      swap1\n      tag_31\n      jump\t// in\n    tag_48:\n      mload(0x40)\n      dup1\n      swap2\n      sub\n      swap1\n      return\n        /* \"contracts/task2/01 job1.sol\":157:182  uint8 public decimal = 18 */\n    tag_10:\n      tag_49\n      tag_50\n      jump\t// in\n    tag_49:\n      mload(0x40)\n      tag_51\n      swap2\n      swap1\n      tag_52\n      jump\t// in\n    tag_51:\n      mload(0x40)\n      dup1\n      swap2\n      sub\n      swap1\n      return\n        /* \"contracts/task2/01 job1.sol\":3033:3889  function batchTransfer(address[] memory _recipients, uint256[] memory _amounts) public returns (bool){... */\n    tag_11:\n      tag_53\n      0x04\n      dup1\n      calldatasize\n      sub\n      dup2\n      add\n      swap1\n      tag_54\n      swap2\n      swap1\n      tag_55\n      jump\t// in\n    tag_54:\n      tag_56\n      jump\t// in\n    tag_53:\n      mload(0x40)\n      tag_57\n      swap2\n      swap1\n      tag_31\n      jump\t// in\n    tag_57:\n      mload(0x40)\n      dup1\n      swap2\n      sub\n      swap1\n      return\n        /* \"contracts/task2/01 job1.sol\":222:242  address public owner */\n    tag_12:\n      tag_58\n      tag_59\n      jump\t// in\n    tag_58:\n      mload(0x40)\n      tag_60\n      swap2\n      swap1\n      tag_61\n      jump\t// in\n    tag_60:\n      mload(0x40)\n      dup1\n      swap2\n      sub\n      swap1\n      return\n        /* \"contracts/task2/01 job1.sol\":124:150  string public symbol=\"YTK\" */\n    tag_13:\n      tag_62\n      tag_63\n      jump\t// in\n    tag_62:\n      mload(0x40)\n      tag_64\n      swap2\n      swap1\n      tag_21\n      jump\t// in\n    tag_64:\n      mload(0x40)\n      dup1\n      swap2\n      sub\n      swap1\n      return\n        /* \"contracts/task2/01 job1.sol\":1109:1552  function transfer(address _to, uint256 _amount) public returns (bool){... */\n    tag_14:\n      tag_65\n      0x04\n      dup1\n      calldatasize\n      sub\n      dup2\n      add\n      swap1\n      tag_66\n      swap2\n      swap1\n      tag_34\n      jump\t// in\n    tag_66:\n      tag_67\n      jump\t// in\n    tag_65:\n      mload(0x40)\n      tag_68\n      swap2\n      swap1\n      tag_31\n      jump\t// in\n    tag_68:\n      mload(0x40)\n      dup1\n      swap2\n      sub\n      swap1\n      return\n        /* \"contracts/task2/01 job1.sol\":377:439  mapping (address=>mapping (address=>uint256)) public allowance */\n    tag_15:\n      tag_69\n      0x04\n      dup1\n      calldatasize\n      sub\n      dup2\n      add\n      swap1\n      tag_70\n      swap2\n      swap1\n      tag_71\n      jump\t// in\n    tag_70:\n      tag_72\n      jump\t// in\n    tag_69:\n      mload(0x40)\n      tag_73\n      swap2\n      swap1\n      tag_25\n      jump\t// in\n    tag_73:\n      mload(0x40)\n      dup1\n      swap2\n      sub\n      swap1\n      return\n        /* \"contracts/task2/01 job1.sol\":85:117  string public name=\"Young Token\" */\n    tag_19:\n      0x00\n      dup1\n      sload\n      tag_74\n      swap1\n      tag_75\n      jump\t// in\n    tag_74:\n      dup1\n      0x1f\n      add\n      0x20\n      dup1\n      swap2\n      div\n      mul\n      0x20\n      add\n      mload(0x40)\n      swap1\n      dup2\n      add\n      0x40\n      mstore\n      dup1\n      swap3\n      swap2\n      swap1\n      dup2\n      dup2\n      mstore\n      0x20\n      add\n      dup3\n      dup1\n      sload\n      tag_76\n      swap1\n      tag_75\n      jump\t// in\n    tag_76:\n      dup1\n      iszero\n      tag_77\n      jumpi\n      dup1\n      0x1f\n      lt\n      tag_78\n      jumpi\n      0x0100\n      dup1\n      dup4\n      sload\n      div\n      mul\n      dup4\n      mstore\n      swap2\n      0x20\n      add\n      swap2\n      jump(tag_77)\n    tag_78:\n      dup3\n      add\n      swap2\n      swap1\n      0x00\n      mstore\n      keccak256(0x00, 0x20)\n      swap1\n    tag_79:\n      dup2\n      sload\n      dup2\n      mstore\n      swap1\n      0x01\n      add\n      swap1\n      0x20\n      add\n      dup1\n      dup4\n      gt\n      tag_79\n      jumpi\n      dup3\n      swap1\n      sub\n      0x1f\n      and\n      dup3\n      add\n      swap2\n    tag_77:\n      pop\n      pop\n      pop\n      pop\n      pop\n      dup2\n      jump\t// out\n        /* \"contracts/task2/01 job1.sol\":189:215  uint256 public totalSupply */\n    tag_23:\n      sload(0x03)\n      dup2\n      jump\t// out\n        /* \"contracts/task2/01 job1.sol\":1877:2443  function transferForm(address _from, address _to, uint256 _amount) public returns (bool){... */\n    tag_29:\n        /* \"contracts/task2/01 job1.sol\":1960:1964  bool */\n      0x00\n        /* \"contracts/task2/01 job1.sol\":2001:2002  0 */\n      0x00\n        /* \"contracts/task2/01 job1.sol\":1984:2003  _from != address(0) */\n      0xffffffffffffffffffffffffffffffffffffffff\n      and\n        /* \"contracts/task2/01 job1.sol\":1984:1989  _from */\n      dup5\n        /* \"contracts/task2/01 job1.sol\":1984:2003  _from != address(0) */\n      0xffffffffffffffffffffffffffffffffffffffff\n      and\n      sub\n        /* \"contracts/task2/01 job1.sol\":1976:2028  require(_from != address(0), \"From is zero address\") */\n      tag_81\n      jumpi\n      mload(0x40)\n      0x08c379a000000000000000000000000000000000000000000000000000000000\n      dup2\n      mstore\n      0x04\n      add\n      tag_82\n      swap1\n      tag_83\n      jump\t// in\n    tag_82:\n      mload(0x40)\n      dup1\n      swap2\n      sub\n      swap1\n      revert\n    tag_81:\n        /* \"contracts/task2/01 job1.sol\":2062:2063  0 */\n      0x00\n        /* \"contracts/task2/01 job1.sol\":2047:2064  _to != address(0) */\n      0xffffffffffffffffffffffffffffffffffffffff\n      and\n        /* \"contracts/task2/01 job1.sol\":2047:2050  _to */\n      dup4\n        /* \"contracts/task2/01 job1.sol\":2047:2064  _to != address(0) */\n      0xffffffffffffffffffffffffffffffffffffffff\n      and\n      sub\n        /* \"contracts/task2/01 job1.sol\":2039:2087  require(_to != address(0), \"To is zero address\") */\n      tag_84\n      jumpi\n      mload(0x40)\n      0x08c379a000000000000000000000000000000000000000000000000000000000\n      dup2\n      mstore\n      0x04\n      add\n      tag_85\n      swap1\n      tag_86\n      jump\t// in\n    tag_85:\n      mload(0x40)\n      dup1\n      swap2\n      sub\n      swap1\n      revert\n    tag_84:\n        /* \"contracts/task2/01 job1.sol\":2126:2133  _amount */\n      dup2\n        /* \"contracts/task2/01 job1.sol\":2106:2115  balanceOf */\n      0x05\n        /* \"contracts/task2/01 job1.sol\":2106:2122  balanceOf[_from] */\n      0x00\n        /* \"contracts/task2/01 job1.sol\":2116:2121  _from */\n      dup7\n        /* \"contracts/task2/01 job1.sol\":2106:2122  balanceOf[_from] */\n      0xffffffffffffffffffffffffffffffffffffffff\n      and\n      0xffffffffffffffffffffffffffffffffffffffff\n      and\n      dup2\n      mstore\n      0x20\n      add\n      swap1\n      dup2\n      mstore\n      0x20\n      add\n      0x00\n      keccak256\n      sload\n        /* \"contracts/task2/01 job1.sol\":2106:2133  balanceOf[_from] >= _amount */\n      lt\n      iszero\n        /* \"contracts/task2/01 job1.sol\":2098:2158  require(balanceOf[_from] >= _amount, \"Insufficient balance\") */\n      tag_87\n      jumpi\n      mload(0x40)\n      0x08c379a000000000000000000000000000000000000000000000000000000000\n      dup2\n      mstore\n      0x04\n      add\n      tag_88\n      swap1\n      tag_89\n      jump\t// in\n    tag_88:\n      mload(0x40)\n      dup1\n      swap2\n      sub\n      swap1\n      revert\n    tag_87:\n        /* \"contracts/task2/01 job1.sol\":2209:2216  _amount */\n      dup2\n        /* \"contracts/task2/01 job1.sol\":2177:2186  allowance */\n      0x06\n        /* \"contracts/task2/01 job1.sol\":2177:2193  allowance[_from] */\n      0x00\n        /* \"contracts/task2/01 job1.sol\":2187:2192  _from */\n      dup7\n        /* \"contracts/task2/01 job1.sol\":2177:2193  allowance[_from] */\n      0xffffffffffffffffffffffffffffffffffffffff\n      and\n      0xffffffffffffffffffffffffffffffffffffffff\n      and\n      dup2\n      mstore\n      0x20\n      add\n      swap1\n      dup2\n      mstore\n      0x20\n      add\n      0x00\n      keccak256\n        /* \"contracts/task2/01 job1.sol\":2177:2205  allowance[_from][msg.sender] */\n      0x00\n        /* \"contracts/task2/01 job1.sol\":2194:2204  msg.sender */\n      caller\n        /* \"contracts/task2/01 job1.sol\":2177:2205  allowance[_from][msg.sender] */\n      0xffffffffffffffffffffffffffffffffffffffff\n      and\n      0xffffffffffffffffffffffffffffffffffffffff\n      and\n      dup2\n      mstore\n      0x20\n      add\n      swap1\n      dup2\n      mstore\n      0x20\n      add\n      0x00\n      keccak256\n      sload\n        /* \"contracts/task2/01 job1.sol\":2177:2216  allowance[_from][msg.sender] >= _amount */\n      lt\n      iszero\n        /* \"contracts/task2/01 job1.sol\":2169:2240  require(allowance[_from][msg.sender] >= _amount, \"Insufficient amount\") */\n      tag_90\n      jumpi\n      mload(0x40)\n      0x08c379a000000000000000000000000000000000000000000000000000000000\n      dup2\n      mstore\n      0x04\n      add\n      tag_91\n      swap1\n      tag_92\n      jump\t// in\n    tag_91:\n      mload(0x40)\n      dup1\n      swap2\n      sub\n      swap1\n      revert\n    tag_90:\n        /* \"contracts/task2/01 job1.sol\":2285:2292  _amount */\n      dup2\n        /* \"contracts/task2/01 job1.sol\":2253:2262  allowance */\n      0x06\n        /* \"contracts/task2/01 job1.sol\":2253:2269  allowance[_from] */\n      0x00\n        /* \"contracts/task2/01 job1.sol\":2263:2268  _from */\n      dup7\n        /* \"contracts/task2/01 job1.sol\":2253:2269  allowance[_from] */\n      0xffffffffffffffffffffffffffffffffffffffff\n      and\n      0xffffffffffffffffffffffffffffffffffffffff\n      and\n      dup2\n      mstore\n      0x20\n      add\n      swap1\n      dup2\n      mstore\n      0x20\n      add\n      0x00\n      keccak256\n        /* \"contracts/task2/01 job1.sol\":2253:2281  allowance[_from][msg.sender] */\n      0x00\n        /* \"contracts/task2/01 job1.sol\":2270:2280  msg.sender */\n      caller\n        /* \"contracts/task2/01 job1.sol\":2253:2281  allowance[_from][msg.sender] */\n      0xffffffffffffffffffffffffffffffffffffffff\n      and\n      0xffffffffffffffffffffffffffffffffffffffff\n      and\n      dup2\n      mstore\n      0x20\n      add\n      swap1\n      dup2\n      mstore\n      0x20\n      add\n      0x00\n      keccak256\n      0x00\n        /* \"contracts/task2/01 job1.sol\":2253:2292  allowance[_from][msg.sender] -= _amount */\n      dup3\n      dup3\n      sload\n      tag_93\n      swap2\n      swap1\n      tag_94\n      jump\t// in\n    tag_93:\n      swap3\n      pop\n      pop\n      dup2\n      swap1\n      sstore\n      pop\n        /* \"contracts/task2/01 job1.sol\":2323:2330  _amount */\n      dup2\n        /* \"contracts/task2/01 job1.sol\":2303:2312  balanceOf */\n      0x05\n        /* \"contracts/task2/01 job1.sol\":2303:2319  balanceOf[_from] */\n      0x00\n        /* \"contracts/task2/01 job1.sol\":2313:2318  _from */\n      dup7\n        /* \"contracts/task2/01 job1.sol\":2303:2319  balanceOf[_from] */\n      0xffffffffffffffffffffffffffffffffffffffff\n      and\n      0xffffffffffffffffffffffffffffffffffffffff\n      and\n      dup2\n      mstore\n      0x20\n      add\n      swap1\n      dup2\n      mstore\n      0x20\n      add\n      0x00\n      keccak256\n      0x00\n        /* \"contracts/task2/01 job1.sol\":2303:2330  balanceOf[_from] -= _amount */\n      dup3\n      dup3\n      sload\n      tag_95\n      swap2\n      swap1\n      tag_94\n      jump\t// in\n    tag_95:\n      swap3\n      pop\n      pop\n      dup2\n      swap1\n      sstore\n      pop\n        /* \"contracts/task2/01 job1.sol\":2359:2366  _amount */\n      dup2\n        /* \"contracts/task2/01 job1.sol\":2341:2350  balanceOf */\n      0x05\n        /* \"contracts/task2/01 job1.sol\":2341:2355  balanceOf[_to] */\n      0x00\n        /* \"contracts/task2/01 job1.sol\":2351:2354  _to */\n      dup6\n        /* \"contracts/task2/01 job1.sol\":2341:2355  balanceOf[_to] */\n      0xffffffffffffffffffffffffffffffffffffffff\n      and\n      0xffffffffffffffffffffffffffffffffffffffff\n      and\n      dup2\n      mstore\n      0x20\n      add\n      swap1\n      dup2\n      mstore\n      0x20\n      add\n      0x00\n      keccak256\n      0x00\n        /* \"contracts/task2/01 job1.sol\":2341:2366  balanceOf[_to] += _amount */\n      dup3\n      dup3\n      sload\n      tag_96\n      swap2\n      swap1\n      tag_97\n      jump\t// in\n    tag_96:\n      swap3\n      pop\n      pop\n      dup2\n      swap1\n      sstore\n      pop\n        /* \"contracts/task2/01 job1.sol\":2400:2403  _to */\n      dup3\n        /* \"contracts/task2/01 job1.sol\":2384:2413  Approval(_from, _to, _amount) */\n      0xffffffffffffffffffffffffffffffffffffffff\n      and\n        /* \"contracts/task2/01 job1.sol\":2393:2398  _from */\n      dup5\n        /* \"contracts/task2/01 job1.sol\":2384:2413  Approval(_from, _to, _amount) */\n      0xffffffffffffffffffffffffffffffffffffffff\n      and\n      0x8c5be1e5ebec7d5bd14f71427d1e84f3dd0314c0f7b2291e5b200ac8c7c3b925\n        /* \"contracts/task2/01 job1.sol\":2405:2412  _amount */\n      dup5\n        /* \"contracts/task2/01 job1.sol\":2384:2413  Approval(_from, _to, _amount) */\n      mload(0x40)\n      tag_98\n      swap2\n      swap1\n      tag_25\n      jump\t// in\n    tag_98:\n      mload(0x40)\n      dup1\n      swap2\n      sub\n      swap1\n      log3\n        /* \"contracts/task2/01 job1.sol\":2431:2435  true */\n      0x01\n        /* \"contracts/task2/01 job1.sol\":2424:2435  return true */\n      swap1\n      pop\n        /* \"contracts/task2/01 job1.sol\":1877:2443  function transferForm(address _from, address _to, uint256 _amount) public returns (bool){... */\n      swap4\n      swap3\n      pop\n      pop\n      pop\n      jump\t// out\n        /* \"contracts/task2/01 job1.sol\":2472:2716  function mint(address _to, uint256 _amount) public onlyOwner{... */\n    tag_35:\n        /* \"contracts/task2/01 job1.sol\":938:943  owner */\n      0x04\n      0x00\n      swap1\n      sload\n      swap1\n      0x0100\n      exp\n      swap1\n      div\n      0xffffffffffffffffffffffffffffffffffffffff\n      and\n        /* \"contracts/task2/01 job1.sol\":924:943  msg.sender == owner */\n      0xffffffffffffffffffffffffffffffffffffffff\n      and\n        /* \"contracts/task2/01 job1.sol\":924:934  msg.sender */\n      caller\n        /* \"contracts/task2/01 job1.sol\":924:943  msg.sender == owner */\n      0xffffffffffffffffffffffffffffffffffffffff\n      and\n      eq\n        /* \"contracts/task2/01 job1.sol\":916:958  require(msg.sender == owner, \"Only Owner\") */\n      tag_100\n      jumpi\n      mload(0x40)\n      0x08c379a000000000000000000000000000000000000000000000000000000000\n      dup2\n      mstore\n      0x04\n      add\n      tag_101\n      swap1\n      tag_102\n      jump\t// in\n    tag_101:\n      mload(0x40)\n      dup1\n      swap2\n      sub\n      swap1\n      revert\n    tag_100:\n        /* \"contracts/task2/01 job1.sol\":2566:2567  0 */\n      0x00\n        /* \"contracts/task2/01 job1.sol\":2551:2568  _to != address(0) */\n      0xffffffffffffffffffffffffffffffffffffffff\n      and\n        /* \"contracts/task2/01 job1.sol\":2551:2554  _to */\n      dup3\n        /* \"contracts/task2/01 job1.sol\":2551:2568  _to != address(0) */\n      0xffffffffffffffffffffffffffffffffffffffff\n      and\n      sub\n        /* \"contracts/task2/01 job1.sol\":2543:2585  require(_to != address(0), \"Zero address\") */\n      tag_104\n      jumpi\n      mload(0x40)\n      0x08c379a000000000000000000000000000000000000000000000000000000000\n      dup2\n      mstore\n      0x04\n      add\n      tag_105\n      swap1\n      tag_106\n      jump\t// in\n    tag_105:\n      mload(0x40)\n      dup1\n      swap2\n      sub\n      swap1\n      revert\n    tag_104:\n        /* \"contracts/task2/01 job1.sol\":2613:2620  _amount */\n      dup1\n        /* \"contracts/task2/01 job1.sol\":2598:2609  totalSupply */\n      0x03\n      0x00\n        /* \"contracts/task2/01 job1.sol\":2598:2620  totalSupply += _amount */\n      dup3\n      dup3\n      sload\n      tag_107\n      swap2\n      swap1\n      tag_97\n      jump\t// in\n    tag_107:\n      swap3\n      pop\n      pop\n      dup2\n      swap1\n      sstore\n      pop\n        /* \"contracts/task2/01 job1.sol\":2649:2656  _amount */\n      dup1\n        /* \"contracts/task2/01 job1.sol\":2631:2640  balanceOf */\n      0x05\n        /* \"contracts/task2/01 job1.sol\":2631:2645  balanceOf[_to] */\n      0x00\n        /* \"contracts/task2/01 job1.sol\":2641:2644  _to */\n      dup5\n        /* \"contracts/task2/01 job1.sol\":2631:2645  balanceOf[_to] */\n      0xffffffffffffffffffffffffffffffffffffffff\n      and\n      0xffffffffffffffffffffffffffffffffffffffff\n      and\n      dup2\n      mstore\n      0x20\n      add\n      swap1\n      dup2\n      mstore\n      0x20\n      add\n      0x00\n      keccak256\n      0x00\n        /* \"contracts/task2/01 job1.sol\":2631:2656  balanceOf[_to] += _amount */\n      dup3\n      dup3\n      sload\n      tag_108\n      swap2\n      swap1\n      tag_97\n      jump\t// in\n    tag_108:\n      swap3\n      pop\n      pop\n      dup2\n      swap1\n      sstore\n      pop\n        /* \"contracts/task2/01 job1.sol\":2695:2698  _to */\n      dup2\n        /* \"contracts/task2/01 job1.sol\":2674:2708  Transfer(address(0), _to, _amount) */\n      0xffffffffffffffffffffffffffffffffffffffff\n      and\n        /* \"contracts/task2/01 job1.sol\":2691:2692  0 */\n      0x00\n        /* \"contracts/task2/01 job1.sol\":2674:2708  Transfer(address(0), _to, _amount) */\n      0xffffffffffffffffffffffffffffffffffffffff\n      and\n      0xddf252ad1be2c89b69c2b068fc378daa952ba7f163c4a11628f55a4df523b3ef\n        /* \"contracts/task2/01 job1.sol\":2700:2707  _amount */\n      dup4\n        /* \"contracts/task2/01 job1.sol\":2674:2708  Transfer(address(0), _to, _amount) */\n      mload(0x40)\n      tag_109\n      swap2\n      swap1\n      tag_25\n      jump\t// in\n    tag_109:\n      mload(0x40)\n      dup1\n      swap2\n      sub\n      swap1\n      log3\n        /* \"contracts/task2/01 job1.sol\":2472:2716  function mint(address _to, uint256 _amount) public onlyOwner{... */\n      pop\n      pop\n      jump\t// out\n        /* \"contracts/task2/01 job1.sol\":2745:3004  function burn(uint256 _amount) public {... */\n    tag_39:\n        /* \"contracts/task2/01 job1.sol\":2827:2834  _amount */\n      dup1\n        /* \"contracts/task2/01 job1.sol\":2802:2811  balanceOf */\n      0x05\n        /* \"contracts/task2/01 job1.sol\":2802:2823  balanceOf[msg.sender] */\n      0x00\n        /* \"contracts/task2/01 job1.sol\":2812:2822  msg.sender */\n      caller\n        /* \"contracts/task2/01 job1.sol\":2802:2823  balanceOf[msg.sender] */\n      0xffffffffffffffffffffffffffffffffffffffff\n      and\n      0xffffffffffffffffffffffffffffffffffffffff\n      and\n      dup2\n      mstore\n      0x20\n      add\n      swap1\n      dup2\n      mstore\n      0x20\n      add\n      0x00\n      keccak256\n      sload\n        /* \"contracts/task2/01 job1.sol\":2802:2834  balanceOf[msg.sender] >= _amount */\n      lt\n      iszero\n        /* \"contracts/task2/01 job1.sol\":2794:2859  require(balanceOf[msg.sender] >= _amount, \"Insufficient balance\") */\n      tag_111\n      jumpi\n      mload(0x40)\n      0x08c379a000000000000000000000000000000000000000000000000000000000\n      dup2\n      mstore\n      0x04\n      add\n      tag_112\n      swap1\n      tag_89\n      jump\t// in\n    tag_112:\n      mload(0x40)\n      dup1\n      swap2\n      sub\n      swap1\n      revert\n    tag_111:\n        /* \"contracts/task2/01 job1.sol\":2887:2894  _amount */\n      dup1\n        /* \"contracts/task2/01 job1.sol\":2872:2883  totalSupply */\n      0x03\n      0x00\n        /* \"contracts/task2/01 job1.sol\":2872:2894  totalSupply -= _amount */\n      dup3\n      dup3\n      sload\n      tag_113\n      swap2\n      swap1\n      tag_94\n      jump\t// in\n    tag_113:\n      swap3\n      pop\n      pop\n      dup2\n      swap1\n      sstore\n      pop\n        /* \"contracts/task2/01 job1.sol\":2930:2937  _amount */\n      dup1\n        /* \"contracts/task2/01 job1.sol\":2905:2914  balanceOf */\n      0x05\n        /* \"contracts/task2/01 job1.sol\":2905:2926  balanceOf[msg.sender] */\n      0x00\n        /* \"contracts/task2/01 job1.sol\":2915:2925  msg.sender */\n      caller\n        /* \"contracts/task2/01 job1.sol\":2905:2926  balanceOf[msg.sender] */\n      0xffffffffffffffffffffffffffffffffffffffff\n      and\n      0xffffffffffffffffffffffffffffffffffffffff\n      and\n      dup2\n      mstore\n      0x20\n      add\n      swap1\n      dup2\n      mstore\n      0x20\n      add\n      0x00\n      keccak256\n      0x00\n        /* \"contracts/task2/01 job1.sol\":2905:2937  balanceOf[msg.sender] -= _amount */\n      dup3\n      dup3\n      sload\n      tag_114\n      swap2\n      swap1\n      tag_94\n      jump\t// in\n    tag_114:\n      swap3\n      pop\n      pop\n      dup2\n      swap1\n      sstore\n      pop\n        /* \"contracts/task2/01 job1.sol\":2984:2985  0 */\n      0x00\n        /* \"contracts/task2/01 job1.sol\":2955:2996  Transfer(msg.sender, address(0), _amount) */\n      0xffffffffffffffffffffffffffffffffffffffff\n      and\n        /* \"contracts/task2/01 job1.sol\":2964:2974  msg.sender */\n      caller\n        /* \"contracts/task2/01 job1.sol\":2955:2996  Transfer(msg.sender, address(0), _amount) */\n      0xffffffffffffffffffffffffffffffffffffffff\n      and\n      0xddf252ad1be2c89b69c2b068fc378daa952ba7f163c4a11628f55a4df523b3ef\n        /* \"contracts/task2/01 job1.sol\":2988:2995  _amount */\n      dup4\n        /* \"contracts/task2/01 job1.sol\":2955:2996  Transfer(msg.sender, address(0), _amount) */\n      mload(0x40)\n      tag_115\n      swap2\n      swap1\n      tag_25\n      jump\t// in\n    tag_115:\n      mload(0x40)\n      dup1\n      swap2\n      sub\n      swap1\n      log3\n        /* \"contracts/task2/01 job1.sol\":2745:3004  function burn(uint256 _amount) public {... */\n      pop\n      jump\t// out\n        /* \"contracts/task2/01 job1.sol\":306:349  mapping (address=>uint256) public balanceOf */\n    tag_43:\n      mstore(0x20, 0x05)\n      dup1\n      0x00\n      mstore\n      keccak256(0x00, 0x40)\n      0x00\n      swap2\n      pop\n      swap1\n      pop\n      sload\n      dup2\n      jump\t// out\n        /* \"contracts/task2/01 job1.sol\":1575:1848  function approval(address _spender, uint256 _amount) public returns (bool){... */\n    tag_47:\n        /* \"contracts/task2/01 job1.sol\":1644:1648  bool */\n      0x00\n        /* \"contracts/task2/01 job1.sol\":1688:1689  0 */\n      0x00\n        /* \"contracts/task2/01 job1.sol\":1668:1690  _spender != address(0) */\n      0xffffffffffffffffffffffffffffffffffffffff\n      and\n        /* \"contracts/task2/01 job1.sol\":1668:1676  _spender */\n      dup4\n        /* \"contracts/task2/01 job1.sol\":1668:1690  _spender != address(0) */\n      0xffffffffffffffffffffffffffffffffffffffff\n      and\n      sub\n        /* \"contracts/task2/01 job1.sol\":1660:1707  require(_spender != address(0), \"Zero address\") */\n      tag_117\n      jumpi\n      mload(0x40)\n      0x08c379a000000000000000000000000000000000000000000000000000000000\n      dup2\n      mstore\n      0x04\n      add\n      tag_118\n      swap1\n      tag_106\n      jump\t// in\n    tag_118:\n      mload(0x40)\n      dup1\n      swap2\n      sub\n      swap1\n      revert\n    tag_117:\n        /* \"contracts/task2/01 job1.sol\":1754:1761  _amount */\n      dup2\n        /* \"contracts/task2/01 job1.sol\":1720:1729  allowance */\n      0x06\n        /* \"contracts/task2/01 job1.sol\":1720:1741  allowance[msg.sender] */\n      0x00\n        /* \"contracts/task2/01 job1.sol\":1730:1740  msg.sender */\n      caller\n        /* \"contracts/task2/01 job1.sol\":1720:1741  allowance[msg.sender] */\n      0xffffffffffffffffffffffffffffffffffffffff\n      and\n      0xffffffffffffffffffffffffffffffffffffffff\n      and\n      dup2\n      mstore\n      0x20\n      add\n      swap1\n      dup2\n      mstore\n      0x20\n      add\n      0x00\n      keccak256\n        /* \"contracts/task2/01 job1.sol\":1720:1751  allowance[msg.sender][_spender] */\n      0x00\n        /* \"contracts/task2/01 job1.sol\":1742:1750  _spender */\n      dup6\n        /* \"contracts/task2/01 job1.sol\":1720:1751  allowance[msg.sender][_spender] */\n      0xffffffffffffffffffffffffffffffffffffffff\n      and\n      0xffffffffffffffffffffffffffffffffffffffff\n      and\n      dup2\n      mstore\n      0x20\n      add\n      swap1\n      dup2\n      mstore\n      0x20\n      add\n      0x00\n      keccak256\n        /* \"contracts/task2/01 job1.sol\":1720:1761  allowance[msg.sender][_spender] = _amount */\n      dup2\n      swap1\n      sstore\n      pop\n        /* \"contracts/task2/01 job1.sol\":1800:1808  _spender */\n      dup3\n        /* \"contracts/task2/01 job1.sol\":1779:1818  Approval(msg.sender, _spender, _amount) */\n      0xffffffffffffffffffffffffffffffffffffffff\n      and\n        /* \"contracts/task2/01 job1.sol\":1788:1798  msg.sender */\n      caller\n        /* \"contracts/task2/01 job1.sol\":1779:1818  Approval(msg.sender, _spender, _amount) */\n      0xffffffffffffffffffffffffffffffffffffffff\n      and\n      0x8c5be1e5ebec7d5bd14f71427d1e84f3dd0314c0f7b2291e5b200ac8c7c3b925\n        /* \"contracts/task2/01 job1.sol\":1810:1817  _amount */\n      dup5\n        /* \"contracts/task2/01 job1.sol\":1779:1818  Approval(msg.sender, _spender, _amount) */\n      mload(0x40)\n      tag_119\n      swap2\n      swap1\n      tag_25\n      jump\t// in\n    tag_119:\n      mload(0x40)\n      dup1\n      swap2\n      sub\n      swap1\n      log3\n        /* \"contracts/task2/01 job1.sol\":1836:1840  true */\n      0x01\n        /* \"contracts/task2/01 job1.sol\":1829:1840  return true */\n      swap1\n      pop\n        /* \"contracts/task2/01 job1.sol\":1575:1848  function approval(address _spender, uint256 _amount) public returns (bool){... */\n      swap3\n      swap2\n      pop\n      pop\n      jump\t// out\n        /* \"contracts/task2/01 job1.sol\":157:182  uint8 public decimal = 18 */\n    tag_50:\n      0x02\n      0x00\n      swap1\n      sload\n      swap1\n      0x0100\n      exp\n      swap1\n      div\n      0xff\n      and\n      dup2\n      jump\t// out\n        /* \"contracts/task2/01 job1.sol\":3033:3889  function batchTransfer(address[] memory _recipients, uint256[] memory _amounts) public returns (bool){... */\n    tag_56:\n        /* \"contracts/task2/01 job1.sol\":3129:3133  bool */\n      0x00\n        /* \"contracts/task2/01 job1.sol\":3173:3181  _amounts */\n      dup2\n        /* \"contracts/task2/01 job1.sol\":3173:3188  _amounts.length */\n      mload\n        /* \"contracts/task2/01 job1.sol\":3153:3164  _recipients */\n      dup4\n        /* \"contracts/task2/01 job1.sol\":3153:3171  _recipients.length */\n      mload\n        /* \"contracts/task2/01 job1.sol\":3153:3188  _recipients.length==_amounts.length */\n      eq\n        /* \"contracts/task2/01 job1.sol\":3145:3208  require(_recipients.length==_amounts.length, \"Unequal lengths\") */\n      tag_121\n      jumpi\n      mload(0x40)\n      0x08c379a000000000000000000000000000000000000000000000000000000000\n      dup2\n      mstore\n      0x04\n      add\n      tag_122\n      swap1\n      tag_123\n      jump\t// in\n    tag_122:\n      mload(0x40)\n      dup1\n      swap2\n      sub\n      swap1\n      revert\n    tag_121:\n        /* \"contracts/task2/01 job1.sol\":3280:3281  3 */\n      0x03\n        /* \"contracts/task2/01 job1.sol\":3258:3269  _recipients */\n      dup4\n        /* \"contracts/task2/01 job1.sol\":3258:3276  _recipients.length */\n      mload\n        /* \"contracts/task2/01 job1.sol\":3258:3281  _recipients.length <= 3 */\n      gt\n      iszero\n        /* \"contracts/task2/01 job1.sol\":3250:3303  require(_recipients.length <= 3, \"Length is limited\") */\n      tag_124\n      jumpi\n      mload(0x40)\n      0x08c379a000000000000000000000000000000000000000000000000000000000\n      dup2\n      mstore\n      0x04\n      add\n      tag_125\n      swap1\n      tag_126\n      jump\t// in\n    tag_125:\n      mload(0x40)\n      dup1\n      swap2\n      sub\n      swap1\n      revert\n    tag_124:\n        /* \"contracts/task2/01 job1.sol\":3314:3325  uint256 sum */\n      0x00\n        /* \"contracts/task2/01 job1.sol\":3326:3327  0 */\n      0x00\n        /* \"contracts/task2/01 job1.sol\":3314:3327  uint256 sum=0 */\n      swap1\n      pop\n        /* \"contracts/task2/01 job1.sol\":3343:3349  uint i */\n      0x00\n        /* \"contracts/task2/01 job1.sol\":3350:3351  0 */\n      0x00\n        /* \"contracts/task2/01 job1.sol\":3343:3351  uint i=0 */\n      swap1\n      pop\n        /* \"contracts/task2/01 job1.sol\":3338:3420  for (uint i=0; i<_amounts.length;i++){... */\n    tag_127:\n        /* \"contracts/task2/01 job1.sol\":3355:3363  _amounts */\n      dup4\n        /* \"contracts/task2/01 job1.sol\":3355:3370  _amounts.length */\n      mload\n        /* \"contracts/task2/01 job1.sol\":3353:3354  i */\n      dup2\n        /* \"contracts/task2/01 job1.sol\":3353:3370  i<_amounts.length */\n      lt\n        /* \"contracts/task2/01 job1.sol\":3338:3420  for (uint i=0; i<_amounts.length;i++){... */\n      iszero\n      tag_128\n      jumpi\n        /* \"contracts/task2/01 job1.sol\":3397:3405  _amounts */\n      dup4\n        /* \"contracts/task2/01 job1.sol\":3406:3407  i */\n      dup2\n        /* \"contracts/task2/01 job1.sol\":3397:3408  _amounts[i] */\n      dup2\n      mload\n      dup2\n      lt\n      tag_130\n      jumpi\n      tag_131\n      tag_132\n      jump\t// in\n    tag_131:\n    tag_130:\n      0x20\n      mul\n      0x20\n      add\n      add\n      mload\n        /* \"contracts/task2/01 job1.sol\":3390:3408  sum += _amounts[i] */\n      dup3\n      tag_133\n      swap2\n      swap1\n      tag_97\n      jump\t// in\n    tag_133:\n      swap2\n      pop\n        /* \"contracts/task2/01 job1.sol\":3371:3374  i++ */\n      dup1\n      dup1\n      0x01\n      add\n      swap2\n      pop\n      pop\n        /* \"contracts/task2/01 job1.sol\":3338:3420  for (uint i=0; i<_amounts.length;i++){... */\n      jump(tag_127)\n    tag_128:\n      pop\n        /* \"contracts/task2/01 job1.sol\":3463:3466  sum */\n      dup1\n        /* \"contracts/task2/01 job1.sol\":3438:3447  balanceOf */\n      0x05\n        /* \"contracts/task2/01 job1.sol\":3438:3459  balanceOf[msg.sender] */\n      0x00\n        /* \"contracts/task2/01 job1.sol\":3448:3458  msg.sender */\n      caller\n        /* \"contracts/task2/01 job1.sol\":3438:3459  balanceOf[msg.sender] */\n      0xffffffffffffffffffffffffffffffffffffffff\n      and\n      0xffffffffffffffffffffffffffffffffffffffff\n      and\n      dup2\n      mstore\n      0x20\n      add\n      swap1\n      dup2\n      mstore\n      0x20\n      add\n      0x00\n      keccak256\n      sload\n        /* \"contracts/task2/01 job1.sol\":3438:3466  balanceOf[msg.sender] >= sum */\n      lt\n      iszero\n        /* \"contracts/task2/01 job1.sol\":3430:3489  require(balanceOf[msg.sender] >= sum, \"Insufficient aoumt\") */\n      tag_134\n      jumpi\n      mload(0x40)\n      0x08c379a000000000000000000000000000000000000000000000000000000000\n      dup2\n      mstore\n      0x04\n      add\n      tag_135\n      swap1\n      tag_136\n      jump\t// in\n    tag_135:\n      mload(0x40)\n      dup1\n      swap2\n      sub\n      swap1\n      revert\n    tag_134:\n        /* \"contracts/task2/01 job1.sol\":3507:3513  uint i */\n      0x00\n        /* \"contracts/task2/01 job1.sol\":3516:3517  0 */\n      0x00\n        /* \"contracts/task2/01 job1.sol\":3507:3517  uint i = 0 */\n      swap1\n      pop\n        /* \"contracts/task2/01 job1.sol\":3502:3860  for (uint i = 0; i < _recipients.length;i++){... */\n    tag_137:\n        /* \"contracts/task2/01 job1.sol\":3523:3534  _recipients */\n      dup5\n        /* \"contracts/task2/01 job1.sol\":3523:3541  _recipients.length */\n      mload\n        /* \"contracts/task2/01 job1.sol\":3519:3520  i */\n      dup2\n        /* \"contracts/task2/01 job1.sol\":3519:3541  i < _recipients.length */\n      lt\n        /* \"contracts/task2/01 job1.sol\":3502:3860  for (uint i = 0; i < _recipients.length;i++){... */\n      iszero\n      tag_138\n      jumpi\n        /* \"contracts/task2/01 job1.sol\":3595:3596  0 */\n      0x00\n        /* \"contracts/task2/01 job1.sol\":3569:3597  _recipients[i] != address(0) */\n      0xffffffffffffffffffffffffffffffffffffffff\n      and\n        /* \"contracts/task2/01 job1.sol\":3569:3580  _recipients */\n      dup6\n        /* \"contracts/task2/01 job1.sol\":3581:3582  i */\n      dup3\n        /* \"contracts/task2/01 job1.sol\":3569:3583  _recipients[i] */\n      dup2\n      mload\n      dup2\n      lt\n      tag_140\n      jumpi\n      tag_141\n      tag_132\n      jump\t// in\n    tag_141:\n    tag_140:\n      0x20\n      mul\n      0x20\n      add\n      add\n      mload\n        /* \"contracts/task2/01 job1.sol\":3569:3597  _recipients[i] != address(0) */\n      0xffffffffffffffffffffffffffffffffffffffff\n      and\n      sub\n        /* \"contracts/task2/01 job1.sol\":3561:3613  require(_recipients[i] != address(0),\"Zero address\") */\n      tag_142\n      jumpi\n      mload(0x40)\n      0x08c379a000000000000000000000000000000000000000000000000000000000\n      dup2\n      mstore\n      0x04\n      add\n      tag_143\n      swap1\n      tag_106\n      jump\t// in\n    tag_143:\n      mload(0x40)\n      dup1\n      swap2\n      sub\n      swap1\n      revert\n    tag_142:\n        /* \"contracts/task2/01 job1.sol\":3650:3651  0 */\n      0x00\n        /* \"contracts/task2/01 job1.sol\":3636:3644  _amounts */\n      dup5\n        /* \"contracts/task2/01 job1.sol\":3645:3646  i */\n      dup3\n        /* \"contracts/task2/01 job1.sol\":3636:3647  _amounts[i] */\n      dup2\n      mload\n      dup2\n      lt\n      tag_144\n      jumpi\n      tag_145\n      tag_132\n      jump\t// in\n    tag_145:\n    tag_144:\n      0x20\n      mul\n      0x20\n      add\n      add\n      mload\n        /* \"contracts/task2/01 job1.sol\":3636:3651  _amounts[i] > 0 */\n      gt\n        /* \"contracts/task2/01 job1.sol\":3628:3669  require(_amounts[i] > 0,\"Invalid amount\") */\n      tag_146\n      jumpi\n      mload(0x40)\n      0x08c379a000000000000000000000000000000000000000000000000000000000\n      dup2\n      mstore\n      0x04\n      add\n      tag_147\n      swap1\n      tag_148\n      jump\t// in\n    tag_147:\n      mload(0x40)\n      dup1\n      swap2\n      sub\n      swap1\n      revert\n    tag_146:\n        /* \"contracts/task2/01 job1.sol\":3711:3719  _amounts */\n      dup4\n        /* \"contracts/task2/01 job1.sol\":3720:3721  i */\n      dup2\n        /* \"contracts/task2/01 job1.sol\":3711:3722  _amounts[i] */\n      dup2\n      mload\n      dup2\n      lt\n      tag_149\n      jumpi\n      tag_150\n      tag_132\n      jump\t// in\n    tag_150:\n    tag_149:\n      0x20\n      mul\n      0x20\n      add\n      add\n      mload\n        /* \"contracts/task2/01 job1.sol\":3686:3695  balanceOf */\n      0x05\n        /* \"contracts/task2/01 job1.sol\":3686:3707  balanceOf[msg.sender] */\n      0x00\n        /* \"contracts/task2/01 job1.sol\":3696:3706  msg.sender */\n      caller\n        /* \"contracts/task2/01 job1.sol\":3686:3707  balanceOf[msg.sender] */\n      0xffffffffffffffffffffffffffffffffffffffff\n      and\n      0xffffffffffffffffffffffffffffffffffffffff\n      and\n      dup2\n      mstore\n      0x20\n      add\n      swap1\n      dup2\n      mstore\n      0x20\n      add\n      0x00\n      keccak256\n      0x00\n        /* \"contracts/task2/01 job1.sol\":3686:3722  balanceOf[msg.sender] -= _amounts[i] */\n      dup3\n      dup3\n      sload\n      tag_151\n      swap2\n      swap1\n      tag_94\n      jump\t// in\n    tag_151:\n      swap3\n      pop\n      pop\n      dup2\n      swap1\n      sstore\n      pop\n        /* \"contracts/task2/01 job1.sol\":3766:3774  _amounts */\n      dup4\n        /* \"contracts/task2/01 job1.sol\":3775:3776  i */\n      dup2\n        /* \"contracts/task2/01 job1.sol\":3766:3777  _amounts[i] */\n      dup2\n      mload\n      dup2\n      lt\n      tag_152\n      jumpi\n      tag_153\n      tag_132\n      jump\t// in\n    tag_153:\n    tag_152:\n      0x20\n      mul\n      0x20\n      add\n      add\n      mload\n        /* \"contracts/task2/01 job1.sol\":3737:3746  balanceOf */\n      0x05\n        /* \"contracts/task2/01 job1.sol\":3737:3762  balanceOf[_recipients[i]] */\n      0x00\n        /* \"contracts/task2/01 job1.sol\":3747:3758  _recipients */\n      dup8\n        /* \"contracts/task2/01 job1.sol\":3759:3760  i */\n      dup5\n        /* \"contracts/task2/01 job1.sol\":3747:3761  _recipients[i] */\n      dup2\n      mload\n      dup2\n      lt\n      tag_154\n      jumpi\n      tag_155\n      tag_132\n      jump\t// in\n    tag_155:\n    tag_154:\n      0x20\n      mul\n      0x20\n      add\n      add\n      mload\n        /* \"contracts/task2/01 job1.sol\":3737:3762  balanceOf[_recipients[i]] */\n      0xffffffffffffffffffffffffffffffffffffffff\n      and\n      0xffffffffffffffffffffffffffffffffffffffff\n      and\n      dup2\n      mstore\n      0x20\n      add\n      swap1\n      dup2\n      mstore\n      0x20\n      add\n      0x00\n      keccak256\n      0x00\n        /* \"contracts/task2/01 job1.sol\":3737:3777  balanceOf[_recipients[i]] += _amounts[i] */\n      dup3\n      dup3\n      sload\n      tag_156\n      swap2\n      swap1\n      tag_97\n      jump\t// in\n    tag_156:\n      swap3\n      pop\n      pop\n      dup2\n      swap1\n      sstore\n      pop\n        /* \"contracts/task2/01 job1.sol\":3820:3831  _recipients */\n      dup5\n        /* \"contracts/task2/01 job1.sol\":3832:3833  i */\n      dup2\n        /* \"contracts/task2/01 job1.sol\":3820:3834  _recipients[i] */\n      dup2\n      mload\n      dup2\n      lt\n      tag_157\n      jumpi\n      tag_158\n      tag_132\n      jump\t// in\n    tag_158:\n    tag_157:\n      0x20\n      mul\n      0x20\n      add\n      add\n      mload\n        /* \"contracts/task2/01 job1.sol\":3799:3848  Transfer(msg.sender, _recipients[i], _amounts[i]) */\n      0xffffffffffffffffffffffffffffffffffffffff\n      and\n        /* \"contracts/task2/01 job1.sol\":3808:3818  msg.sender */\n      caller\n        /* \"contracts/task2/01 job1.sol\":3799:3848  Transfer(msg.sender, _recipients[i], _amounts[i]) */\n      0xffffffffffffffffffffffffffffffffffffffff\n      and\n      0xddf252ad1be2c89b69c2b068fc378daa952ba7f163c4a11628f55a4df523b3ef\n        /* \"contracts/task2/01 job1.sol\":3836:3844  _amounts */\n      dup7\n        /* \"contracts/task2/01 job1.sol\":3845:3846  i */\n      dup5\n        /* \"contracts/task2/01 job1.sol\":3836:3847  _amounts[i] */\n      dup2\n      mload\n      dup2\n      lt\n      tag_159\n      jumpi\n      tag_160\n      tag_132\n      jump\t// in\n    tag_160:\n    tag_159:\n      0x20\n      mul\n      0x20\n      add\n      add\n      mload\n        /* \"contracts/task2/01 job1.sol\":3799:3848  Transfer(msg.sender, _recipients[i], _amounts[i]) */\n      mload(0x40)\n      tag_161\n      swap2\n      swap1\n      tag_25\n      jump\t// in\n    tag_161:\n      mload(0x40)\n      dup1\n      swap2\n      sub\n      swap1\n      log3\n        /* \"contracts/task2/01 job1.sol\":3542:3545  i++ */\n      dup1\n      dup1\n      0x01\n      add\n      swap2\n      pop\n      pop\n        /* \"contracts/task2/01 job1.sol\":3502:3860  for (uint i = 0; i < _recipients.length;i++){... */\n      jump(tag_137)\n    tag_138:\n      pop\n        /* \"contracts/task2/01 job1.sol\":3877:3881  true */\n      0x01\n        /* \"contracts/task2/01 job1.sol\":3870:3881  return true */\n      swap2\n      pop\n      pop\n        /* \"contracts/task2/01 job1.sol\":3033:3889  function batchTransfer(address[] memory _recipients, uint256[] memory _amounts) public returns (bool){... */\n      swap3\n      swap2\n      pop\n      pop\n      jump\t// out\n        /* \"contracts/task2/01 job1.sol\":222:242  address public owner */\n    tag_59:\n      0x04\n      0x00\n      swap1\n      sload\n      swap1\n      0x0100\n      exp\n      swap1\n      div\n      0xffffffffffffffffffffffffffffffffffffffff\n      and\n      dup2\n      jump\t// out\n        /* \"contracts/task2/01 job1.sol\":124:150  string public symbol=\"YTK\" */\n    tag_63:\n      0x01\n      dup1\n      sload\n      tag_162\n      swap1\n      tag_75\n      jump\t// in\n    tag_162:\n      dup1\n      0x1f\n      add\n      0x20\n      dup1\n      swap2\n      div\n      mul\n      0x20\n      add\n      mload(0x40)\n      swap1\n      dup2\n      add\n      0x40\n      mstore\n      dup1\n      swap3\n      swap2\n      swap1\n      dup2\n      dup2\n      mstore\n      0x20\n      add\n      dup3\n      dup1\n      sload\n      tag_163\n      swap1\n      tag_75\n      jump\t// in\n    tag_163:\n      dup1\n      iszero\n      tag_164\n      jumpi\n      dup1\n      0x1f\n      lt\n      tag_165\n      jumpi\n      0x0100\n      dup1\n      dup4\n      sload\n      div\n      mul\n      dup4\n      mstore\n      swap2\n      0x20\n      add\n      swap2\n      jump(tag_164)\n    tag_165:\n      dup3\n      add\n      swap2\n      swap1\n      0x00\n      mstore\n      keccak256(0x00, 0x20)\n      swap1\n    tag_166:\n      dup2\n      sload\n      dup2\n      mstore\n      swap1\n      0x01\n      add\n      swap1\n      0x20\n      add\n      dup1\n      dup4\n      gt\n      tag_166\n      jumpi\n      dup3\n      swap1\n      sub\n      0x1f\n      and\n      dup3\n      add\n      swap2\n    tag_164:\n      pop\n      pop\n      pop\n      pop\n      pop\n      dup2\n      jump\t// out\n        /* \"contracts/task2/01 job1.sol\":1109:1552  function transfer(address _to, uint256 _amount) public returns (bool){... */\n    tag_67:\n        /* \"contracts/task2/01 job1.sol\":1173:1177  bool */\n      0x00\n        /* \"contracts/task2/01 job1.sol\":1240:1241  0 */\n      0x00\n        /* \"contracts/task2/01 job1.sol\":1225:1242  _to != address(0) */\n      0xffffffffffffffffffffffffffffffffffffffff\n      and\n        /* \"contracts/task2/01 job1.sol\":1225:1228  _to */\n      dup4\n        /* \"contracts/task2/01 job1.sol\":1225:1242  _to != address(0) */\n      0xffffffffffffffffffffffffffffffffffffffff\n      and\n      sub\n        /* \"contracts/task2/01 job1.sol\":1217:1259  require(_to != address(0), \"Zero address\") */\n      tag_168\n      jumpi\n      mload(0x40)\n      0x08c379a000000000000000000000000000000000000000000000000000000000\n      dup2\n      mstore\n      0x04\n      add\n      tag_169\n      swap1\n      tag_106\n      jump\t// in\n    tag_169:\n      mload(0x40)\n      dup1\n      swap2\n      sub\n      swap1\n      revert\n    tag_168:\n        /* \"contracts/task2/01 job1.sol\":1349:1356  _amount */\n      dup2\n        /* \"contracts/task2/01 job1.sol\":1324:1333  balanceOf */\n      0x05\n        /* \"contracts/task2/01 job1.sol\":1324:1345  balanceOf[msg.sender] */\n      0x00\n        /* \"contracts/task2/01 job1.sol\":1334:1344  msg.sender */\n      caller\n        /* \"contracts/task2/01 job1.sol\":1324:1345  balanceOf[msg.sender] */\n      0xffffffffffffffffffffffffffffffffffffffff\n      and\n      0xffffffffffffffffffffffffffffffffffffffff\n      and\n      dup2\n      mstore\n      0x20\n      add\n      swap1\n      dup2\n      mstore\n      0x20\n      add\n      0x00\n      keccak256\n      sload\n        /* \"contracts/task2/01 job1.sol\":1324:1356  balanceOf[msg.sender] >= _amount */\n      lt\n      iszero\n        /* \"contracts/task2/01 job1.sol\":1316:1381  require(balanceOf[msg.sender] >= _amount,\"Insufficients balance\") */\n      tag_170\n      jumpi\n      mload(0x40)\n      0x08c379a000000000000000000000000000000000000000000000000000000000\n      dup2\n      mstore\n      0x04\n      add\n      tag_171\n      swap1\n      tag_172\n      jump\t// in\n    tag_171:\n      mload(0x40)\n      dup1\n      swap2\n      sub\n      swap1\n      revert\n    tag_170:\n        /* \"contracts/task2/01 job1.sol\":1427:1434  _amount */\n      dup2\n        /* \"contracts/task2/01 job1.sol\":1402:1411  balanceOf */\n      0x05\n        /* \"contracts/task2/01 job1.sol\":1402:1423  balanceOf[msg.sender] */\n      0x00\n        /* \"contracts/task2/01 job1.sol\":1412:1422  msg.sender */\n      caller\n        /* \"contracts/task2/01 job1.sol\":1402:1423  balanceOf[msg.sender] */\n      0xffffffffffffffffffffffffffffffffffffffff\n      and\n      0xffffffffffffffffffffffffffffffffffffffff\n      and\n      dup2\n      mstore\n      0x20\n      add\n      swap1\n      dup2\n      mstore\n      0x20\n      add\n      0x00\n      keccak256\n      0x00\n        /* \"contracts/task2/01 job1.sol\":1402:1434  balanceOf[msg.sender] -= _amount */\n      dup3\n      dup3\n      sload\n      tag_173\n      swap2\n      swap1\n      tag_94\n      jump\t// in\n    tag_173:\n      swap3\n      pop\n      pop\n      dup2\n      swap1\n      sstore\n      pop\n        /* \"contracts/task2/01 job1.sol\":1463:1470  _amount */\n      dup2\n        /* \"contracts/task2/01 job1.sol\":1445:1454  balanceOf */\n      0x05\n        /* \"contracts/task2/01 job1.sol\":1445:1459  balanceOf[_to] */\n      0x00\n        /* \"contracts/task2/01 job1.sol\":1455:1458  _to */\n      dup6\n        /* \"contracts/task2/01 job1.sol\":1445:1459  balanceOf[_to] */\n      0xffffffffffffffffffffffffffffffffffffffff\n      and\n      0xffffffffffffffffffffffffffffffffffffffff\n      and\n      dup2\n      mstore\n      0x20\n      add\n      swap1\n      dup2\n      mstore\n      0x20\n      add\n      0x00\n      keccak256\n      0x00\n        /* \"contracts/task2/01 job1.sol\":1445:1470  balanceOf[_to] += _amount */\n      dup3\n      dup3\n      sload\n      tag_174\n      swap2\n      swap1\n      tag_97\n      jump\t// in\n    tag_174:\n      swap3\n      pop\n      pop\n      dup2\n      swap1\n      sstore\n      pop\n        /* \"contracts/task2/01 job1.sol\":1509:1512  _to */\n      dup3\n        /* \"contracts/task2/01 job1.sol\":1488:1522  Transfer(msg.sender, _to, _amount) */\n      0xffffffffffffffffffffffffffffffffffffffff\n      and\n        /* \"contracts/task2/01 job1.sol\":1497:1507  msg.sender */\n      caller\n        /* \"contracts/task2/01 job1.sol\":1488:1522  Transfer(msg.sender, _to, _amount) */\n      0xffffffffffffffffffffffffffffffffffffffff\n      and\n      0xddf252ad1be2c89b69c2b068fc378daa952ba7f163c4a11628f55a4df523b3ef\n        /* \"contracts/task2/01 job1.sol\":1514:1521  _amount */\n      dup5\n        /* \"contracts/task2/01 job1.sol\":1488:1522  Transfer(msg.sender, _to, _amount) */\n      mload(0x40)\n      tag_175\n      swap2\n      swap1\n      tag_25\n      jump\t// in\n    tag_175:\n      mload(0x40)\n      dup1\n      swap2\n      sub\n      swap1\n      log3\n        /* \"contracts/task2/01 job1.sol\":1540:1544  true */\n      0x01\n        /* \"contracts/task2/01 job1.sol\":1533:1544  return true */\n      swap1\n      pop\n        /* \"contracts/task2/01 job1.sol\":1109:1552  function transfer(address _to, uint256 _amount) public returns (bool){... */\n      swap3\n      swap2\n      pop\n      pop\n      jump\t// out\n        /* \"contracts/task2/01 job1.sol\":377:439  mapping (address=>mapping (address=>uint256)) public allowance */\n    tag_72:\n      mstore(0x20, 0x06)\n      dup2\n      0x00\n      mstore\n      mstore(0x20, keccak256(0x00, 0x40))\n      dup1\n      0x00\n      mstore\n      keccak256(0x00, 0x40)\n      0x00\n      swap2\n      pop\n      swap2\n      pop\n      pop\n      sload\n      dup2\n      jump\t// out\n        /* \"#utility.yul\":7:106   */\n    tag_176:\n        /* \"#utility.yul\":59:65   */\n      0x00\n        /* \"#utility.yul\":93:98   */\n      dup2\n        /* \"#utility.yul\":87:99   */\n      mload\n        /* \"#utility.yul\":77:99   */\n      swap1\n      pop\n        /* \"#utility.yul\":7:106   */\n      swap2\n      swap1\n      pop\n      jump\t// out\n        /* \"#utility.yul\":112:281   */\n    tag_177:\n        /* \"#utility.yul\":196:207   */\n      0x00\n        /* \"#utility.yul\":230:236   */\n      dup3\n        /* \"#utility.yul\":225:228   */\n      dup3\n        /* \"#utility.yul\":218:237   */\n      mstore\n        /* \"#utility.yul\":270:274   */\n      0x20\n        /* \"#utility.yul\":265:268   */\n      dup3\n        /* \"#utility.yul\":261:275   */\n      add\n        /* \"#utility.yul\":246:275   */\n      swap1\n      pop\n        /* \"#utility.yul\":112:281   */\n      swap3\n      swap2\n      pop\n      pop\n      jump\t// out\n        /* \"#utility.yul\":287:426   */\n    tag_178:\n        /* \"#utility.yul\":376:382   */\n      dup3\n        /* \"#utility.yul\":371:374   */\n      dup2\n        /* \"#utility.yul\":366:369   */\n      dup4\n        /* \"#utility.yul\":360:383   */\n      mcopy\n        /* \"#utility.yul\":417:418   */\n      0x00\n        /* \"#utility.yul\":408:414   */\n      dup4\n        /* \"#utility.yul\":403:406   */\n      dup4\n        /* \"#utility.yul\":399:415   */\n      add\n        /* \"#utility.yul\":392:419   */\n      mstore\n        /* \"#utility.yul\":287:426   */\n      pop\n      pop\n      pop\n      jump\t// out\n        /* \"#utility.yul\":432:534   */\n    tag_179:\n        /* \"#utility.yul\":473:479   */\n      0x00\n        /* \"#utility.yul\":524:526   */\n      0x1f\n        /* \"#utility.yul\":520:527   */\n      not\n        /* \"#utility.yul\":515:517   */\n      0x1f\n        /* \"#utility.yul\":508:513   */\n      dup4\n        /* \"#utility.yul\":504:518   */\n      add\n        /* \"#utility.yul\":500:528   */\n      and\n        /* \"#utility.yul\":490:528   */\n      swap1\n      pop\n        /* \"#utility.yul\":432:534   */\n      swap2\n      swap1\n      pop\n      jump\t// out\n        /* \"#utility.yul\":540:917   */\n    tag_180:\n        /* \"#utility.yul\":628:631   */\n      0x00\n        /* \"#utility.yul\":656:695   */\n      tag_238\n        /* \"#utility.yul\":689:694   */\n      dup3\n        /* \"#utility.yul\":656:695   */\n      tag_176\n      jump\t// in\n    tag_238:\n        /* \"#utility.yul\":711:782   */\n      tag_239\n        /* \"#utility.yul\":775:781   */\n      dup2\n        /* \"#utility.yul\":770:773   */\n      dup6\n        /* \"#utility.yul\":711:782   */\n      tag_177\n      jump\t// in\n    tag_239:\n        /* \"#utility.yul\":704:782   */\n      swap4\n      pop\n        /* \"#utility.yul\":791:856   */\n      tag_240\n        /* \"#utility.yul\":849:855   */\n      dup2\n        /* \"#utility.yul\":844:847   */\n      dup6\n        /* \"#utility.yul\":837:841   */\n      0x20\n        /* \"#utility.yul\":830:835   */\n      dup7\n        /* \"#utility.yul\":826:842   */\n      add\n        /* \"#utility.yul\":791:856   */\n      tag_178\n      jump\t// in\n    tag_240:\n        /* \"#utility.yul\":881:910   */\n      tag_241\n        /* \"#utility.yul\":903:909   */\n      dup2\n        /* \"#utility.yul\":881:910   */\n      tag_179\n      jump\t// in\n    tag_241:\n        /* \"#utility.yul\":876:879   */\n      dup5\n        /* \"#utility.yul\":872:911   */\n      add\n        /* \"#utility.yul\":865:911   */\n      swap2\n      pop\n        /* \"#utility.yul\":632:917   */\n      pop\n        /* \"#utility.yul\":540:917   */\n      swap3\n      swap2\n      pop\n      pop\n      jump\t// out\n        /* \"#utility.yul\":923:1236   */\n    tag_21:\n        /* \"#utility.yul\":1036:1040   */\n      0x00\n        /* \"#utility.yul\":1074:1076   */\n      0x20\n        /* \"#utility.yul\":1063:1072   */\n      dup3\n        /* \"#utility.yul\":1059:1077   */\n      add\n        /* \"#utility.yul\":1051:1077   */\n      swap1\n      pop\n        /* \"#utility.yul\":1123:1132   */\n      dup2\n        /* \"#utility.yul\":1117:1121   */\n      dup2\n        /* \"#utility.yul\":1113:1133   */\n      sub\n        /* \"#utility.yul\":1109:1110   */\n      0x00\n        /* \"#utility.yul\":1098:1107   */\n      dup4\n        /* \"#utility.yul\":1094:1111   */\n      add\n        /* \"#utility.yul\":1087:1134   */\n      mstore\n        /* \"#utility.yul\":1151:1229   */\n      tag_243\n        /* \"#utility.yul\":1224:1228   */\n      dup2\n        /* \"#utility.yul\":1215:1221   */\n      dup5\n        /* \"#utility.yul\":1151:1229   */\n      tag_180\n      jump\t// in\n    tag_243:\n        /* \"#utility.yul\":1143:1229   */\n      swap1\n      pop\n        /* \"#utility.yul\":923:1236   */\n      swap3\n      swap2\n      pop\n      pop\n      jump\t// out\n        /* \"#utility.yul\":1242:1319   */\n    tag_181:\n        /* \"#utility.yul\":1279:1286   */\n      0x00\n        /* \"#utility.yul\":1308:1313   */\n      dup2\n        /* \"#utility.yul\":1297:1313   */\n      swap1\n      pop\n        /* \"#utility.yul\":1242:1319   */\n      swap2\n      swap1\n      pop\n      jump\t// out\n        /* \"#utility.yul\":1325:1443   */\n    tag_182:\n        /* \"#utility.yul\":1412:1436   */\n      tag_246\n        /* \"#utility.yul\":1430:1435   */\n      dup2\n        /* \"#utility.yul\":1412:1436   */\n      tag_181\n      jump\t// in\n    tag_246:\n        /* \"#utility.yul\":1407:1410   */\n      dup3\n        /* \"#utility.yul\":1400:1437   */\n      mstore\n        /* \"#utility.yul\":1325:1443   */\n      pop\n      pop\n      jump\t// out\n        /* \"#utility.yul\":1449:1671   */\n    tag_25:\n        /* \"#utility.yul\":1542:1546   */\n      0x00\n        /* \"#utility.yul\":1580:1582   */\n      0x20\n        /* \"#utility.yul\":1569:1578   */\n      dup3\n        /* \"#utility.yul\":1565:1583   */\n      add\n        /* \"#utility.yul\":1557:1583   */\n      swap1\n      pop\n        /* \"#utility.yul\":1593:1664   */\n      tag_248\n        /* \"#utility.yul\":1661:1662   */\n      0x00\n        /* \"#utility.yul\":1650:1659   */\n      dup4\n        /* \"#utility.yul\":1646:1663   */\n      add\n        /* \"#utility.yul\":1637:1643   */\n      dup5\n        /* \"#utility.yul\":1593:1664   */\n      tag_182\n      jump\t// in\n    tag_248:\n        /* \"#utility.yul\":1449:1671   */\n      swap3\n      swap2\n      pop\n      pop\n      jump\t// out\n        /* \"#utility.yul\":1677:1752   */\n    tag_183:\n        /* \"#utility.yul\":1710:1716   */\n      0x00\n        /* \"#utility.yul\":1743:1745   */\n      0x40\n        /* \"#utility.yul\":1737:1746   */\n      mload\n        /* \"#utility.yul\":1727:1746   */\n      swap1\n      pop\n        /* \"#utility.yul\":1677:1752   */\n      swap1\n      jump\t// out\n        /* \"#utility.yul\":1758:1875   */\n    tag_184:\n        /* \"#utility.yul\":1867:1868   */\n      0x00\n        /* \"#utility.yul\":1864:1865   */\n      0x00\n        /* \"#utility.yul\":1857:1869   */\n      revert\n        /* \"#utility.yul\":1881:1998   */\n    tag_185:\n        /* \"#utility.yul\":1990:1991   */\n      0x00\n        /* \"#utility.yul\":1987:1988   */\n      0x00\n        /* \"#utility.yul\":1980:1992   */\n      revert\n        /* \"#utility.yul\":2004:2130   */\n    tag_186:\n        /* \"#utility.yul\":2041:2048   */\n      0x00\n        /* \"#utility.yul\":2081:2123   */\n      0xffffffffffffffffffffffffffffffffffffffff\n        /* \"#utility.yul\":2074:2079   */\n      dup3\n        /* \"#utility.yul\":2070:2124   */\n      and\n        /* \"#utility.yul\":2059:2124   */\n      swap1\n      pop\n        /* \"#utility.yul\":2004:2130   */\n      swap2\n      swap1\n      pop\n      jump\t// out\n        /* \"#utility.yul\":2136:2232   */\n    tag_187:\n        /* \"#utility.yul\":2173:2180   */\n      0x00\n        /* \"#utility.yul\":2202:2226   */\n      tag_254\n        /* \"#utility.yul\":2220:2225   */\n      dup3\n        /* \"#utility.yul\":2202:2226   */\n      tag_186\n      jump\t// in\n    tag_254:\n        /* \"#utility.yul\":2191:2226   */\n      swap1\n      pop\n        /* \"#utility.yul\":2136:2232   */\n      swap2\n      swap1\n      pop\n      jump\t// out\n        /* \"#utility.yul\":2238:2360   */\n    tag_188:\n        /* \"#utility.yul\":2311:2335   */\n      tag_256\n        /* \"#utility.yul\":2329:2334   */\n      dup2\n        /* \"#utility.yul\":2311:2335   */\n      tag_187\n      jump\t// in\n    tag_256:\n        /* \"#utility.yul\":2304:2309   */\n      dup2\n        /* \"#utility.yul\":2301:2336   */\n      eq\n        /* \"#utility.yul\":2291:2354   */\n      tag_257\n      jumpi\n        /* \"#utility.yul\":2350:2351   */\n      0x00\n        /* \"#utility.yul\":2347:2348   */\n      0x00\n        /* \"#utility.yul\":2340:2352   */\n      revert\n        /* \"#utility.yul\":2291:2354   */\n    tag_257:\n        /* \"#utility.yul\":2238:2360   */\n      pop\n      jump\t// out\n        /* \"#utility.yul\":2366:2505   */\n    tag_189:\n        /* \"#utility.yul\":2412:2417   */\n      0x00\n        /* \"#utility.yul\":2450:2456   */\n      dup2\n        /* \"#utility.yul\":2437:2457   */\n      calldataload\n        /* \"#utility.yul\":2428:2457   */\n      swap1\n      pop\n        /* \"#utility.yul\":2466:2499   */\n      tag_259\n        /* \"#utility.yul\":2493:2498   */\n      dup2\n        /* \"#utility.yul\":2466:2499   */\n      tag_188\n      jump\t// in\n    tag_259:\n        /* \"#utility.yul\":2366:2505   */\n      swap3\n      swap2\n      pop\n      pop\n      jump\t// out\n        /* \"#utility.yul\":2511:2633   */\n    tag_190:\n        /* \"#utility.yul\":2584:2608   */\n      tag_261\n        /* \"#utility.yul\":2602:2607   */\n      dup2\n        /* \"#utility.yul\":2584:2608   */\n      tag_181\n      jump\t// in\n    tag_261:\n        /* \"#utility.yul\":2577:2582   */\n      dup2\n        /* \"#utility.yul\":2574:2609   */\n      eq\n        /* \"#utility.yul\":2564:2627   */\n      tag_262\n      jumpi\n        /* \"#utility.yul\":2623:2624   */\n      0x00\n        /* \"#utility.yul\":2620:2621   */\n      0x00\n        /* \"#utility.yul\":2613:2625   */\n      revert\n        /* \"#utility.yul\":2564:2627   */\n    tag_262:\n        /* \"#utility.yul\":2511:2633   */\n      pop\n      jump\t// out\n        /* \"#utility.yul\":2639:2778   */\n    tag_191:\n        /* \"#utility.yul\":2685:2690   */\n      0x00\n        /* \"#utility.yul\":2723:2729   */\n      dup2\n        /* \"#utility.yul\":2710:2730   */\n      calldataload\n        /* \"#utility.yul\":2701:2730   */\n      swap1\n      pop\n        /* \"#utility.yul\":2739:2772   */\n      tag_264\n        /* \"#utility.yul\":2766:2771   */\n      dup2\n        /* \"#utility.yul\":2739:2772   */\n      tag_190\n      jump\t// in\n    tag_264:\n        /* \"#utility.yul\":2639:2778   */\n      swap3\n      swap2\n      pop\n      pop\n      jump\t// out\n        /* \"#utility.yul\":2784:3403   */\n    tag_28:\n        /* \"#utility.yul\":2861:2867   */\n      0x00\n        /* \"#utility.yul\":2869:2875   */\n      0x00\n        /* \"#utility.yul\":2877:2883   */\n      0x00\n        /* \"#utility.yul\":2926:2928   */\n      0x60\n        /* \"#utility.yul\":2914:2923   */\n      dup5\n        /* \"#utility.yul\":2905:2912   */\n      dup7\n        /* \"#utility.yul\":2901:2924   */\n      sub\n        /* \"#utility.yul\":2897:2929   */\n      slt\n        /* \"#utility.yul\":2894:3013   */\n      iszero\n      tag_266\n      jumpi\n        /* \"#utility.yul\":2932:3011   */\n      tag_267\n      tag_184\n      jump\t// in\n    tag_267:\n        /* \"#utility.yul\":2894:3013   */\n    tag_266:\n        /* \"#utility.yul\":3052:3053   */\n      0x00\n        /* \"#utility.yul\":3077:3130   */\n      tag_268\n        /* \"#utility.yul\":3122:3129   */\n      dup7\n        /* \"#utility.yul\":3113:3119   */\n      dup3\n        /* \"#utility.yul\":3102:3111   */\n      dup8\n        /* \"#utility.yul\":3098:3120   */\n      add\n        /* \"#utility.yul\":3077:3130   */\n      tag_189\n      jump\t// in\n    tag_268:\n        /* \"#utility.yul\":3067:3130   */\n      swap4\n      pop\n        /* \"#utility.yul\":3023:3140   */\n      pop\n        /* \"#utility.yul\":3179:3181   */\n      0x20\n        /* \"#utility.yul\":3205:3258   */\n      tag_269\n        /* \"#utility.yul\":3250:3257   */\n      dup7\n        /* \"#utility.yul\":3241:3247   */\n      dup3\n        /* \"#utility.yul\":3230:3239   */\n      dup8\n        /* \"#utility.yul\":3226:3248   */\n      add\n        /* \"#utility.yul\":3205:3258   */\n      tag_189\n      jump\t// in\n    tag_269:\n        /* \"#utility.yul\":3195:3258   */\n      swap3\n      pop\n        /* \"#utility.yul\":3150:3268   */\n      pop\n        /* \"#utility.yul\":3307:3309   */\n      0x40\n        /* \"#utility.yul\":3333:3386   */\n      tag_270\n        /* \"#utility.yul\":3378:3385   */\n      dup7\n        /* \"#utility.yul\":3369:3375   */\n      dup3\n        /* \"#utility.yul\":3358:3367   */\n      dup8\n        /* \"#utility.yul\":3354:3376   */\n      add\n        /* \"#utility.yul\":3333:3386   */\n      tag_191\n      jump\t// in\n    tag_270:\n        /* \"#utility.yul\":3323:3386   */\n      swap2\n      pop\n        /* \"#utility.yul\":3278:3396   */\n      pop\n        /* \"#utility.yul\":2784:3403   */\n      swap3\n      pop\n      swap3\n      pop\n      swap3\n      jump\t// out\n        /* \"#utility.yul\":3409:3499   */\n    tag_192:\n        /* \"#utility.yul\":3443:3450   */\n      0x00\n        /* \"#utility.yul\":3486:3491   */\n      dup2\n        /* \"#utility.yul\":3479:3492   */\n      iszero\n        /* \"#utility.yul\":3472:3493   */\n      iszero\n        /* \"#utility.yul\":3461:3493   */\n      swap1\n      pop\n        /* \"#utility.yul\":3409:3499   */\n      swap2\n      swap1\n      pop\n      jump\t// out\n        /* \"#utility.yul\":3505:3614   */\n    tag_193:\n        /* \"#utility.yul\":3586:3607   */\n      tag_273\n        /* \"#utility.yul\":3601:3606   */\n      dup2\n        /* \"#utility.yul\":3586:3607   */\n      tag_192\n      jump\t// in\n    tag_273:\n        /* \"#utility.yul\":3581:3584   */\n      dup3\n        /* \"#utility.yul\":3574:3608   */\n      mstore\n        /* \"#utility.yul\":3505:3614   */\n      pop\n      pop\n      jump\t// out\n        /* \"#utility.yul\":3620:3830   */\n    tag_31:\n        /* \"#utility.yul\":3707:3711   */\n      0x00\n        /* \"#utility.yul\":3745:3747   */\n      0x20\n        /* \"#utility.yul\":3734:3743   */\n      dup3\n        /* \"#utility.yul\":3730:3748   */\n      add\n        /* \"#utility.yul\":3722:3748   */\n      swap1\n      pop\n        /* \"#utility.yul\":3758:3823   */\n      tag_275\n        /* \"#utility.yul\":3820:3821   */\n      0x00\n        /* \"#utility.yul\":3809:3818   */\n      dup4\n        /* \"#utility.yul\":3805:3822   */\n      add\n        /* \"#utility.yul\":3796:3802   */\n      dup5\n        /* \"#utility.yul\":3758:3823   */\n      tag_193\n      jump\t// in\n    tag_275:\n        /* \"#utility.yul\":3620:3830   */\n      swap3\n      swap2\n      pop\n      pop\n      jump\t// out\n        /* \"#utility.yul\":3836:4310   */\n    tag_34:\n        /* \"#utility.yul\":3904:3910   */\n      0x00\n        /* \"#utility.yul\":3912:3918   */\n      0x00\n        /* \"#utility.yul\":3961:3963   */\n      0x40\n        /* \"#utility.yul\":3949:3958   */\n      dup4\n        /* \"#utility.yul\":3940:3947   */\n      dup6\n        /* \"#utility.yul\":3936:3959   */\n      sub\n        /* \"#utility.yul\":3932:3964   */\n      slt\n        /* \"#utility.yul\":3929:4048   */\n      iszero\n      tag_277\n      jumpi\n        /* \"#utility.yul\":3967:4046   */\n      tag_278\n      tag_184\n      jump\t// in\n    tag_278:\n        /* \"#utility.yul\":3929:4048   */\n    tag_277:\n        /* \"#utility.yul\":4087:4088   */\n      0x00\n        /* \"#utility.yul\":4112:4165   */\n      tag_279\n        /* \"#utility.yul\":4157:4164   */\n      dup6\n        /* \"#utility.yul\":4148:4154   */\n      dup3\n        /* \"#utility.yul\":4137:4146   */\n      dup7\n        /* \"#utility.yul\":4133:4155   */\n      add\n        /* \"#utility.yul\":4112:4165   */\n      tag_189\n      jump\t// in\n    tag_279:\n        /* \"#utility.yul\":4102:4165   */\n      swap3\n      pop\n        /* \"#utility.yul\":4058:4175   */\n      pop\n        /* \"#utility.yul\":4214:4216   */\n      0x20\n        /* \"#utility.yul\":4240:4293   */\n      tag_280\n        /* \"#utility.yul\":4285:4292   */\n      dup6\n        /* \"#utility.yul\":4276:4282   */\n      dup3\n        /* \"#utility.yul\":4265:4274   */\n      dup7\n        /* \"#utility.yul\":4261:4283   */\n      add\n        /* \"#utility.yul\":4240:4293   */\n      tag_191\n      jump\t// in\n    tag_280:\n        /* \"#utility.yul\":4230:4293   */\n      swap2\n      pop\n        /* \"#utility.yul\":4185:4303   */\n      pop\n        /* \"#utility.yul\":3836:4310   */\n      swap3\n      pop\n      swap3\n      swap1\n      pop\n      jump\t// out\n        /* \"#utility.yul\":4316:4645   */\n    tag_38:\n        /* \"#utility.yul\":4375:4381   */\n      0x00\n        /* \"#utility.yul\":4424:4426   */\n      0x20\n        /* \"#utility.yul\":4412:4421   */\n      dup3\n        /* \"#utility.yul\":4403:4410   */\n      dup5\n        /* \"#utility.yul\":4399:4422   */\n      sub\n        /* \"#utility.yul\":4395:4427   */\n      slt\n        /* \"#utility.yul\":4392:4511   */\n      iszero\n      tag_282\n      jumpi\n        /* \"#utility.yul\":4430:4509   */\n      tag_283\n      tag_184\n      jump\t// in\n    tag_283:\n        /* \"#utility.yul\":4392:4511   */\n    tag_282:\n        /* \"#utility.yul\":4550:4551   */\n      0x00\n        /* \"#utility.yul\":4575:4628   */\n      tag_284\n        /* \"#utility.yul\":4620:4627   */\n      dup5\n        /* \"#utility.yul\":4611:4617   */\n      dup3\n        /* \"#utility.yul\":4600:4609   */\n      dup6\n        /* \"#utility.yul\":4596:4618   */\n      add\n        /* \"#utility.yul\":4575:4628   */\n      tag_191\n      jump\t// in\n    tag_284:\n        /* \"#utility.yul\":4565:4628   */\n      swap2\n      pop\n        /* \"#utility.yul\":4521:4638   */\n      pop\n        /* \"#utility.yul\":4316:4645   */\n      swap3\n      swap2\n      pop\n      pop\n      jump\t// out\n        /* \"#utility.yul\":4651:4980   */\n    tag_42:\n        /* \"#utility.yul\":4710:4716   */\n      0x00\n        /* \"#utility.yul\":4759:4761   */\n      0x20\n        /* \"#utility.yul\":4747:4756   */\n      dup3\n        /* \"#utility.yul\":4738:4745   */\n      dup5\n        /* \"#utility.yul\":4734:4757   */\n      sub\n        /* \"#utility.yul\":4730:4762   */\n      slt\n        /* \"#utility.yul\":4727:4846   */\n      iszero\n      tag_286\n      jumpi\n        /* \"#utility.yul\":4765:4844   */\n      tag_287\n      tag_184\n      jump\t// in\n    tag_287:\n        /* \"#utility.yul\":4727:4846   */\n    tag_286:\n        /* \"#utility.yul\":4885:4886   */\n      0x00\n        /* \"#utility.yul\":4910:4963   */\n      tag_288\n        /* \"#utility.yul\":4955:4962   */\n      dup5\n        /* \"#utility.yul\":4946:4952   */\n      dup3\n        /* \"#utility.yul\":4935:4944   */\n      dup6\n        /* \"#utility.yul\":4931:4953   */\n      add\n        /* \"#utility.yul\":4910:4963   */\n      tag_189\n      jump\t// in\n    tag_288:\n        /* \"#utility.yul\":4900:4963   */\n      swap2\n      pop\n        /* \"#utility.yul\":4856:4973   */\n      pop\n        /* \"#utility.yul\":4651:4980   */\n      swap3\n      swap2\n      pop\n      pop\n      jump\t// out\n        /* \"#utility.yul\":4986:5072   */\n    tag_194:\n        /* \"#utility.yul\":5021:5028   */\n      0x00\n        /* \"#utility.yul\":5061:5065   */\n      0xff\n        /* \"#utility.yul\":5054:5059   */\n      dup3\n        /* \"#utility.yul\":5050:5066   */\n      and\n        /* \"#utility.yul\":5039:5066   */\n      swap1\n      pop\n        /* \"#utility.yul\":4986:5072   */\n      swap2\n      swap1\n      pop\n      jump\t// out\n        /* \"#utility.yul\":5078:5190   */\n    tag_195:\n        /* \"#utility.yul\":5161:5183   */\n      tag_291\n        /* \"#utility.yul\":5177:5182   */\n      dup2\n        /* \"#utility.yul\":5161:5183   */\n      tag_194\n      jump\t// in\n    tag_291:\n        /* \"#utility.yul\":5156:5159   */\n      dup3\n        /* \"#utility.yul\":5149:5184   */\n      mstore\n        /* \"#utility.yul\":5078:5190   */\n      pop\n      pop\n      jump\t// out\n        /* \"#utility.yul\":5196:5410   */\n    tag_52:\n        /* \"#utility.yul\":5285:5289   */\n      0x00\n        /* \"#utility.yul\":5323:5325   */\n      0x20\n        /* \"#utility.yul\":5312:5321   */\n      dup3\n        /* \"#utility.yul\":5308:5326   */\n      add\n        /* \"#utility.yul\":5300:5326   */\n      swap1\n      pop\n        /* \"#utility.yul\":5336:5403   */\n      tag_293\n        /* \"#utility.yul\":5400:5401   */\n      0x00\n        /* \"#utility.yul\":5389:5398   */\n      dup4\n        /* \"#utility.yul\":5385:5402   */\n      add\n        /* \"#utility.yul\":5376:5382   */\n      dup5\n        /* \"#utility.yul\":5336:5403   */\n      tag_195\n      jump\t// in\n    tag_293:\n        /* \"#utility.yul\":5196:5410   */\n      swap3\n      swap2\n      pop\n      pop\n      jump\t// out\n        /* \"#utility.yul\":5416:5533   */\n    tag_196:\n        /* \"#utility.yul\":5525:5526   */\n      0x00\n        /* \"#utility.yul\":5522:5523   */\n      0x00\n        /* \"#utility.yul\":5515:5527   */\n      revert\n        /* \"#utility.yul\":5539:5719   */\n    tag_197:\n        /* \"#utility.yul\":5587:5664   */\n      0x4e487b7100000000000000000000000000000000000000000000000000000000\n        /* \"#utility.yul\":5584:5585   */\n      0x00\n        /* \"#utility.yul\":5577:5665   */\n      mstore\n        /* \"#utility.yul\":5684:5688   */\n      0x41\n        /* \"#utility.yul\":5681:5682   */\n      0x04\n        /* \"#utility.yul\":5674:5689   */\n      mstore\n        /* \"#utility.yul\":5708:5712   */\n      0x24\n        /* \"#utility.yul\":5705:5706   */\n      0x00\n        /* \"#utility.yul\":5698:5713   */\n      revert\n        /* \"#utility.yul\":5725:6006   */\n    tag_198:\n        /* \"#utility.yul\":5808:5835   */\n      tag_297\n        /* \"#utility.yul\":5830:5834   */\n      dup3\n        /* \"#utility.yul\":5808:5835   */\n      tag_179\n      jump\t// in\n    tag_297:\n        /* \"#utility.yul\":5800:5806   */\n      dup2\n        /* \"#utility.yul\":5796:5836   */\n      add\n        /* \"#utility.yul\":5938:5944   */\n      dup2\n        /* \"#utility.yul\":5926:5936   */\n      dup2\n        /* \"#utility.yul\":5923:5945   */\n      lt\n        /* \"#utility.yul\":5902:5920   */\n      0xffffffffffffffff\n        /* \"#utility.yul\":5890:5900   */\n      dup3\n        /* \"#utility.yul\":5887:5921   */\n      gt\n        /* \"#utility.yul\":5884:5946   */\n      or\n        /* \"#utility.yul\":5881:5969   */\n      iszero\n      tag_298\n      jumpi\n        /* \"#utility.yul\":5949:5967   */\n      tag_299\n      tag_197\n      jump\t// in\n    tag_299:\n        /* \"#utility.yul\":5881:5969   */\n    tag_298:\n        /* \"#utility.yul\":5989:5999   */\n      dup1\n        /* \"#utility.yul\":5985:5987   */\n      0x40\n        /* \"#utility.yul\":5978:6000   */\n      mstore\n        /* \"#utility.yul\":5768:6006   */\n      pop\n        /* \"#utility.yul\":5725:6006   */\n      pop\n      pop\n      jump\t// out\n        /* \"#utility.yul\":6012:6141   */\n    tag_199:\n        /* \"#utility.yul\":6046:6052   */\n      0x00\n        /* \"#utility.yul\":6073:6093   */\n      tag_301\n      tag_183\n      jump\t// in\n    tag_301:\n        /* \"#utility.yul\":6063:6093   */\n      swap1\n      pop\n        /* \"#utility.yul\":6102:6135   */\n      tag_302\n        /* \"#utility.yul\":6130:6134   */\n      dup3\n        /* \"#utility.yul\":6122:6128   */\n      dup3\n        /* \"#utility.yul\":6102:6135   */\n      tag_198\n      jump\t// in\n    tag_302:\n        /* \"#utility.yul\":6012:6141   */\n      swap2\n      swap1\n      pop\n      jump\t// out\n        /* \"#utility.yul\":6147:6458   */\n    tag_200:\n        /* \"#utility.yul\":6224:6228   */\n      0x00\n        /* \"#utility.yul\":6314:6332   */\n      0xffffffffffffffff\n        /* \"#utility.yul\":6306:6312   */\n      dup3\n        /* \"#utility.yul\":6303:6333   */\n      gt\n        /* \"#utility.yul\":6300:6356   */\n      iszero\n      tag_304\n      jumpi\n        /* \"#utility.yul\":6336:6354   */\n      tag_305\n      tag_197\n      jump\t// in\n    tag_305:\n        /* \"#utility.yul\":6300:6356   */\n    tag_304:\n        /* \"#utility.yul\":6386:6390   */\n      0x20\n        /* \"#utility.yul\":6378:6384   */\n      dup3\n        /* \"#utility.yul\":6374:6391   */\n      mul\n        /* \"#utility.yul\":6366:6391   */\n      swap1\n      pop\n        /* \"#utility.yul\":6446:6450   */\n      0x20\n        /* \"#utility.yul\":6440:6444   */\n      dup2\n        /* \"#utility.yul\":6436:6451   */\n      add\n        /* \"#utility.yul\":6428:6451   */\n      swap1\n      pop\n        /* \"#utility.yul\":6147:6458   */\n      swap2\n      swap1\n      pop\n      jump\t// out\n        /* \"#utility.yul\":6464:6581   */\n    tag_201:\n        /* \"#utility.yul\":6573:6574   */\n      0x00\n        /* \"#utility.yul\":6570:6571   */\n      0x00\n        /* \"#utility.yul\":6563:6575   */\n      revert\n        /* \"#utility.yul\":6604:7314   */\n    tag_202:\n        /* \"#utility.yul\":6700:6705   */\n      0x00\n        /* \"#utility.yul\":6725:6806   */\n      tag_308\n        /* \"#utility.yul\":6741:6805   */\n      tag_309\n        /* \"#utility.yul\":6798:6804   */\n      dup5\n        /* \"#utility.yul\":6741:6805   */\n      tag_200\n      jump\t// in\n    tag_309:\n        /* \"#utility.yul\":6725:6806   */\n      tag_199\n      jump\t// in\n    tag_308:\n        /* \"#utility.yul\":6716:6806   */\n      swap1\n      pop\n        /* \"#utility.yul\":6826:6831   */\n      dup1\n        /* \"#utility.yul\":6855:6861   */\n      dup4\n        /* \"#utility.yul\":6848:6853   */\n      dup3\n        /* \"#utility.yul\":6841:6862   */\n      mstore\n        /* \"#utility.yul\":6889:6893   */\n      0x20\n        /* \"#utility.yul\":6882:6887   */\n      dup3\n        /* \"#utility.yul\":6878:6894   */\n      add\n        /* \"#utility.yul\":6871:6894   */\n      swap1\n      pop\n        /* \"#utility.yul\":6942:6946   */\n      0x20\n        /* \"#utility.yul\":6934:6940   */\n      dup5\n        /* \"#utility.yul\":6930:6947   */\n      mul\n        /* \"#utility.yul\":6922:6928   */\n      dup4\n        /* \"#utility.yul\":6918:6948   */\n      add\n        /* \"#utility.yul\":6971:6974   */\n      dup6\n        /* \"#utility.yul\":6963:6969   */\n      dup2\n        /* \"#utility.yul\":6960:6975   */\n      gt\n        /* \"#utility.yul\":6957:7079   */\n      iszero\n      tag_310\n      jumpi\n        /* \"#utility.yul\":6990:7069   */\n      tag_311\n      tag_201\n      jump\t// in\n    tag_311:\n        /* \"#utility.yul\":6957:7079   */\n    tag_310:\n        /* \"#utility.yul\":7105:7111   */\n      dup4\n        /* \"#utility.yul\":7088:7308   */\n    tag_312:\n        /* \"#utility.yul\":7122:7128   */\n      dup2\n        /* \"#utility.yul\":7117:7120   */\n      dup2\n        /* \"#utility.yul\":7114:7129   */\n      lt\n        /* \"#utility.yul\":7088:7308   */\n      iszero\n      tag_314\n      jumpi\n        /* \"#utility.yul\":7197:7200   */\n      dup1\n        /* \"#utility.yul\":7226:7263   */\n      tag_315\n        /* \"#utility.yul\":7259:7262   */\n      dup9\n        /* \"#utility.yul\":7247:7257   */\n      dup3\n        /* \"#utility.yul\":7226:7263   */\n      tag_189\n      jump\t// in\n    tag_315:\n        /* \"#utility.yul\":7221:7224   */\n      dup5\n        /* \"#utility.yul\":7214:7264   */\n      mstore\n        /* \"#utility.yul\":7293:7297   */\n      0x20\n        /* \"#utility.yul\":7288:7291   */\n      dup5\n        /* \"#utility.yul\":7284:7298   */\n      add\n        /* \"#utility.yul\":7277:7298   */\n      swap4\n      pop\n        /* \"#utility.yul\":7164:7308   */\n      pop\n        /* \"#utility.yul\":7148:7152   */\n      0x20\n        /* \"#utility.yul\":7143:7146   */\n      dup2\n        /* \"#utility.yul\":7139:7153   */\n      add\n        /* \"#utility.yul\":7132:7153   */\n      swap1\n      pop\n        /* \"#utility.yul\":7088:7308   */\n      jump(tag_312)\n    tag_314:\n        /* \"#utility.yul\":7092:7113   */\n      pop\n        /* \"#utility.yul\":6706:7314   */\n      pop\n      pop\n        /* \"#utility.yul\":6604:7314   */\n      swap4\n      swap3\n      pop\n      pop\n      pop\n      jump\t// out\n        /* \"#utility.yul\":7337:7707   */\n    tag_203:\n        /* \"#utility.yul\":7408:7413   */\n      0x00\n        /* \"#utility.yul\":7457:7460   */\n      dup3\n        /* \"#utility.yul\":7450:7454   */\n      0x1f\n        /* \"#utility.yul\":7442:7448   */\n      dup4\n        /* \"#utility.yul\":7438:7455   */\n      add\n        /* \"#utility.yul\":7434:7461   */\n      slt\n        /* \"#utility.yul\":7424:7546   */\n      tag_317\n      jumpi\n        /* \"#utility.yul\":7465:7544   */\n      tag_318\n      tag_196\n      jump\t// in\n    tag_318:\n        /* \"#utility.yul\":7424:7546   */\n    tag_317:\n        /* \"#utility.yul\":7582:7588   */\n      dup2\n        /* \"#utility.yul\":7569:7589   */\n      calldataload\n        /* \"#utility.yul\":7607:7701   */\n      tag_319\n        /* \"#utility.yul\":7697:7700   */\n      dup5\n        /* \"#utility.yul\":7689:7695   */\n      dup3\n        /* \"#utility.yul\":7682:7686   */\n      0x20\n        /* \"#utility.yul\":7674:7680   */\n      dup7\n        /* \"#utility.yul\":7670:7687   */\n      add\n        /* \"#utility.yul\":7607:7701   */\n      tag_202\n      jump\t// in\n    tag_319:\n        /* \"#utility.yul\":7598:7701   */\n      swap2\n      pop\n        /* \"#utility.yul\":7414:7707   */\n      pop\n        /* \"#utility.yul\":7337:7707   */\n      swap3\n      swap2\n      pop\n      pop\n      jump\t// out\n        /* \"#utility.yul\":7713:8024   */\n    tag_204:\n        /* \"#utility.yul\":7790:7794   */\n      0x00\n        /* \"#utility.yul\":7880:7898   */\n      0xffffffffffffffff\n        /* \"#utility.yul\":7872:7878   */\n      dup3\n        /* \"#utility.yul\":7869:7899   */\n      gt\n        /* \"#utility.yul\":7866:7922   */\n      iszero\n      tag_321\n      jumpi\n        /* \"#utility.yul\":7902:7920   */\n      tag_322\n      tag_197\n      jump\t// in\n    tag_322:\n        /* \"#utility.yul\":7866:7922   */\n    tag_321:\n        /* \"#utility.yul\":7952:7956   */\n      0x20\n        /* \"#utility.yul\":7944:7950   */\n      dup3\n        /* \"#utility.yul\":7940:7957   */\n      mul\n        /* \"#utility.yul\":7932:7957   */\n      swap1\n      pop\n        /* \"#utility.yul\":8012:8016   */\n      0x20\n        /* \"#utility.yul\":8006:8010   */\n      dup2\n        /* \"#utility.yul\":8002:8017   */\n      add\n        /* \"#utility.yul\":7994:8017   */\n      swap1\n      pop\n        /* \"#utility.yul\":7713:8024   */\n      swap2\n      swap1\n      pop\n      jump\t// out\n        /* \"#utility.yul\":8047:8757   */\n    tag_205:\n        /* \"#utility.yul\":8143:8148   */\n      0x00\n        /* \"#utility.yul\":8168:8249   */\n      tag_324\n        /* \"#utility.yul\":8184:8248   */\n      tag_325\n        /* \"#utility.yul\":8241:8247   */\n      dup5\n        /* \"#utility.yul\":8184:8248   */\n      tag_204\n      jump\t// in\n    tag_325:\n        /* \"#utility.yul\":8168:8249   */\n      tag_199\n      jump\t// in\n    tag_324:\n        /* \"#utility.yul\":8159:8249   */\n      swap1\n      pop\n        /* \"#utility.yul\":8269:8274   */\n      dup1\n        /* \"#utility.yul\":8298:8304   */\n      dup4\n        /* \"#utility.yul\":8291:8296   */\n      dup3\n        /* \"#utility.yul\":8284:8305   */\n      mstore\n        /* \"#utility.yul\":8332:8336   */\n      0x20\n        /* \"#utility.yul\":8325:8330   */\n      dup3\n        /* \"#utility.yul\":8321:8337   */\n      add\n        /* \"#utility.yul\":8314:8337   */\n      swap1\n      pop\n        /* \"#utility.yul\":8385:8389   */\n      0x20\n        /* \"#utility.yul\":8377:8383   */\n      dup5\n        /* \"#utility.yul\":8373:8390   */\n      mul\n        /* \"#utility.yul\":8365:8371   */\n      dup4\n        /* \"#utility.yul\":8361:8391   */\n      add\n        /* \"#utility.yul\":8414:8417   */\n      dup6\n        /* \"#utility.yul\":8406:8412   */\n      dup2\n        /* \"#utility.yul\":8403:8418   */\n      gt\n        /* \"#utility.yul\":8400:8522   */\n      iszero\n      tag_326\n      jumpi\n        /* \"#utility.yul\":8433:8512   */\n      tag_327\n      tag_201\n      jump\t// in\n    tag_327:\n        /* \"#utility.yul\":8400:8522   */\n    tag_326:\n        /* \"#utility.yul\":8548:8554   */\n      dup4\n        /* \"#utility.yul\":8531:8751   */\n    tag_328:\n        /* \"#utility.yul\":8565:8571   */\n      dup2\n        /* \"#utility.yul\":8560:8563   */\n      dup2\n        /* \"#utility.yul\":8557:8572   */\n      lt\n        /* \"#utility.yul\":8531:8751   */\n      iszero\n      tag_330\n      jumpi\n        /* \"#utility.yul\":8640:8643   */\n      dup1\n        /* \"#utility.yul\":8669:8706   */\n      tag_331\n        /* \"#utility.yul\":8702:8705   */\n      dup9\n        /* \"#utility.yul\":8690:8700   */\n      dup3\n        /* \"#utility.yul\":8669:8706   */\n      tag_191\n      jump\t// in\n    tag_331:\n        /* \"#utility.yul\":8664:8667   */\n      dup5\n        /* \"#utility.yul\":8657:8707   */\n      mstore\n        /* \"#utility.yul\":8736:8740   */\n      0x20\n        /* \"#utility.yul\":8731:8734   */\n      dup5\n        /* \"#utility.yul\":8727:8741   */\n      add\n        /* \"#utility.yul\":8720:8741   */\n      swap4\n      pop\n        /* \"#utility.yul\":8607:8751   */\n      pop\n        /* \"#utility.yul\":8591:8595   */\n      0x20\n        /* \"#utility.yul\":8586:8589   */\n      dup2\n        /* \"#utility.yul\":8582:8596   */\n      add\n        /* \"#utility.yul\":8575:8596   */\n      swap1\n      pop\n        /* \"#utility.yul\":8531:8751   */\n      jump(tag_328)\n    tag_330:\n        /* \"#utility.yul\":8535:8556   */\n      pop\n        /* \"#utility.yul\":8149:8757   */\n      pop\n      pop\n        /* \"#utility.yul\":8047:8757   */\n      swap4\n      swap3\n      pop\n      pop\n      pop\n      jump\t// out\n        /* \"#utility.yul\":8780:9150   */\n    tag_206:\n        /* \"#utility.yul\":8851:8856   */\n      0x00\n        /* \"#utility.yul\":8900:8903   */\n      dup3\n        /* \"#utility.yul\":8893:8897   */\n      0x1f\n        /* \"#utility.yul\":8885:8891   */\n      dup4\n        /* \"#utility.yul\":8881:8898   */\n      add\n        /* \"#utility.yul\":8877:8904   */\n      slt\n        /* \"#utility.yul\":8867:8989   */\n      tag_333\n      jumpi\n        /* \"#utility.yul\":8908:8987   */\n      tag_334\n      tag_196\n      jump\t// in\n    tag_334:\n        /* \"#utility.yul\":8867:8989   */\n    tag_333:\n        /* \"#utility.yul\":9025:9031   */\n      dup2\n        /* \"#utility.yul\":9012:9032   */\n      calldataload\n        /* \"#utility.yul\":9050:9144   */\n      tag_335\n        /* \"#utility.yul\":9140:9143   */\n      dup5\n        /* \"#utility.yul\":9132:9138   */\n      dup3\n        /* \"#utility.yul\":9125:9129   */\n      0x20\n        /* \"#utility.yul\":9117:9123   */\n      dup7\n        /* \"#utility.yul\":9113:9130   */\n      add\n        /* \"#utility.yul\":9050:9144   */\n      tag_205\n      jump\t// in\n    tag_335:\n        /* \"#utility.yul\":9041:9144   */\n      swap2\n      pop\n        /* \"#utility.yul\":8857:9150   */\n      pop\n        /* \"#utility.yul\":8780:9150   */\n      swap3\n      swap2\n      pop\n      pop\n      jump\t// out\n        /* \"#utility.yul\":9156:10050   */\n    tag_55:\n        /* \"#utility.yul\":9274:9280   */\n      0x00\n        /* \"#utility.yul\":9282:9288   */\n      0x00\n        /* \"#utility.yul\":9331:9333   */\n      0x40\n        /* \"#utility.yul\":9319:9328   */\n      dup4\n        /* \"#utility.yul\":9310:9317   */\n      dup6\n        /* \"#utility.yul\":9306:9329   */\n      sub\n        /* \"#utility.yul\":9302:9334   */\n      slt\n        /* \"#utility.yul\":9299:9418   */\n      iszero\n      tag_337\n      jumpi\n        /* \"#utility.yul\":9337:9416   */\n      tag_338\n      tag_184\n      jump\t// in\n    tag_338:\n        /* \"#utility.yul\":9299:9418   */\n    tag_337:\n        /* \"#utility.yul\":9485:9486   */\n      0x00\n        /* \"#utility.yul\":9474:9483   */\n      dup4\n        /* \"#utility.yul\":9470:9487   */\n      add\n        /* \"#utility.yul\":9457:9488   */\n      calldataload\n        /* \"#utility.yul\":9515:9533   */\n      0xffffffffffffffff\n        /* \"#utility.yul\":9507:9513   */\n      dup2\n        /* \"#utility.yul\":9504:9534   */\n      gt\n        /* \"#utility.yul\":9501:9618   */\n      iszero\n      tag_339\n      jumpi\n        /* \"#utility.yul\":9537:9616   */\n      tag_340\n      tag_185\n      jump\t// in\n    tag_340:\n        /* \"#utility.yul\":9501:9618   */\n    tag_339:\n        /* \"#utility.yul\":9642:9720   */\n      tag_341\n        /* \"#utility.yul\":9712:9719   */\n      dup6\n        /* \"#utility.yul\":9703:9709   */\n      dup3\n        /* \"#utility.yul\":9692:9701   */\n      dup7\n        /* \"#utility.yul\":9688:9710   */\n      add\n        /* \"#utility.yul\":9642:9720   */\n      tag_203\n      jump\t// in\n    tag_341:\n        /* \"#utility.yul\":9632:9720   */\n      swap3\n      pop\n        /* \"#utility.yul\":9428:9730   */\n      pop\n        /* \"#utility.yul\":9797:9799   */\n      0x20\n        /* \"#utility.yul\":9786:9795   */\n      dup4\n        /* \"#utility.yul\":9782:9800   */\n      add\n        /* \"#utility.yul\":9769:9801   */\n      calldataload\n        /* \"#utility.yul\":9828:9846   */\n      0xffffffffffffffff\n        /* \"#utility.yul\":9820:9826   */\n      dup2\n        /* \"#utility.yul\":9817:9847   */\n      gt\n        /* \"#utility.yul\":9814:9931   */\n      iszero\n      tag_342\n      jumpi\n        /* \"#utility.yul\":9850:9929   */\n      tag_343\n      tag_185\n      jump\t// in\n    tag_343:\n        /* \"#utility.yul\":9814:9931   */\n    tag_342:\n        /* \"#utility.yul\":9955:10033   */\n      tag_344\n        /* \"#utility.yul\":10025:10032   */\n      dup6\n        /* \"#utility.yul\":10016:10022   */\n      dup3\n        /* \"#utility.yul\":10005:10014   */\n      dup7\n        /* \"#utility.yul\":10001:10023   */\n      add\n        /* \"#utility.yul\":9955:10033   */\n      tag_206\n      jump\t// in\n    tag_344:\n        /* \"#utility.yul\":9945:10033   */\n      swap2\n      pop\n        /* \"#utility.yul\":9740:10043   */\n      pop\n        /* \"#utility.yul\":9156:10050   */\n      swap3\n      pop\n      swap3\n      swap1\n      pop\n      jump\t// out\n        /* \"#utility.yul\":10056:10174   */\n    tag_207:\n        /* \"#utility.yul\":10143:10167   */\n      tag_346\n        /* \"#utility.yul\":10161:10166   */\n      dup2\n        /* \"#utility.yul\":10143:10167   */\n      tag_187\n      jump\t// in\n    tag_346:\n        /* \"#utility.yul\":10138:10141   */\n      dup3\n        /* \"#utility.yul\":10131:10168   */\n      mstore\n        /* \"#utility.yul\":10056:10174   */\n      pop\n      pop\n      jump\t// out\n        /* \"#utility.yul\":10180:10402   */\n    tag_61:\n        /* \"#utility.yul\":10273:10277   */\n      0x00\n        /* \"#utility.yul\":10311:10313   */\n      0x20\n        /* \"#utility.yul\":10300:10309   */\n      dup3\n        /* \"#utility.yul\":10296:10314   */\n      add\n        /* \"#utility.yul\":10288:10314   */\n      swap1\n      pop\n        /* \"#utility.yul\":10324:10395   */\n      tag_348\n        /* \"#utility.yul\":10392:10393   */\n      0x00\n        /* \"#utility.yul\":10381:10390   */\n      dup4\n        /* \"#utility.yul\":10377:10394   */\n      add\n        /* \"#utility.yul\":10368:10374   */\n      dup5\n        /* \"#utility.yul\":10324:10395   */\n      tag_207\n      jump\t// in\n    tag_348:\n        /* \"#utility.yul\":10180:10402   */\n      swap3\n      swap2\n      pop\n      pop\n      jump\t// out\n        /* \"#utility.yul\":10408:10882   */\n    tag_71:\n        /* \"#utility.yul\":10476:10482   */\n      0x00\n        /* \"#utility.yul\":10484:10490   */\n      0x00\n        /* \"#utility.yul\":10533:10535   */\n      0x40\n        /* \"#utility.yul\":10521:10530   */\n      dup4\n        /* \"#utility.yul\":10512:10519   */\n      dup6\n        /* \"#utility.yul\":10508:10531   */\n      sub\n        /* \"#utility.yul\":10504:10536   */\n      slt\n        /* \"#utility.yul\":10501:10620   */\n      iszero\n      tag_350\n      jumpi\n        /* \"#utility.yul\":10539:10618   */\n      tag_351\n      tag_184\n      jump\t// in\n    tag_351:\n        /* \"#utility.yul\":10501:10620   */\n    tag_350:\n        /* \"#utility.yul\":10659:10660   */\n      0x00\n        /* \"#utility.yul\":10684:10737   */\n      tag_352\n        /* \"#utility.yul\":10729:10736   */\n      dup6\n        /* \"#utility.yul\":10720:10726   */\n      dup3\n        /* \"#utility.yul\":10709:10718   */\n      dup7\n        /* \"#utility.yul\":10705:10727   */\n      add\n        /* \"#utility.yul\":10684:10737   */\n      tag_189\n      jump\t// in\n    tag_352:\n        /* \"#utility.yul\":10674:10737   */\n      swap3\n      pop\n        /* \"#utility.yul\":10630:10747   */\n      pop\n        /* \"#utility.yul\":10786:10788   */\n      0x20\n        /* \"#utility.yul\":10812:10865   */\n      tag_353\n        /* \"#utility.yul\":10857:10864   */\n      dup6\n        /* \"#utility.yul\":10848:10854   */\n      dup3\n        /* \"#utility.yul\":10837:10846   */\n      dup7\n        /* \"#utility.yul\":10833:10855   */\n      add\n        /* \"#utility.yul\":10812:10865   */\n      tag_189\n      jump\t// in\n    tag_353:\n        /* \"#utility.yul\":10802:10865   */\n      swap2\n      pop\n        /* \"#utility.yul\":10757:10875   */\n      pop\n        /* \"#utility.yul\":10408:10882   */\n      swap3\n      pop\n      swap3\n      swap1\n      pop\n      jump\t// out\n        /* \"#utility.yul\":10888:11068   */\n    tag_208:\n        /* \"#utility.yul\":10936:11013   */\n      0x4e487b7100000000000000000000000000000000000000000000000000000000\n        /* \"#utility.yul\":10933:10934   */\n      0x00\n        /* \"#utility.yul\":10926:11014   */\n      mstore\n        /* \"#utility.yul\":11033:11037   */\n      0x22\n        /* \"#utility.yul\":11030:11031   */\n      0x04\n        /* \"#utility.yul\":11023:11038   */\n      mstore\n        /* \"#utility.yul\":11057:11061   */\n      0x24\n        /* \"#utility.yul\":11054:11055   */\n      0x00\n        /* \"#utility.yul\":11047:11062   */\n      revert\n        /* \"#utility.yul\":11074:11394   */\n    tag_75:\n        /* \"#utility.yul\":11118:11124   */\n      0x00\n        /* \"#utility.yul\":11155:11156   */\n      0x02\n        /* \"#utility.yul\":11149:11153   */\n      dup3\n        /* \"#utility.yul\":11145:11157   */\n      div\n        /* \"#utility.yul\":11135:11157   */\n      swap1\n      pop\n        /* \"#utility.yul\":11202:11203   */\n      0x01\n        /* \"#utility.yul\":11196:11200   */\n      dup3\n        /* \"#utility.yul\":11192:11204   */\n      and\n        /* \"#utility.yul\":11223:11241   */\n      dup1\n        /* \"#utility.yul\":11213:11294   */\n      tag_356\n      jumpi\n        /* \"#utility.yul\":11279:11283   */\n      0x7f\n        /* \"#utility.yul\":11271:11277   */\n      dup3\n        /* \"#utility.yul\":11267:11284   */\n      and\n        /* \"#utility.yul\":11257:11284   */\n      swap2\n      pop\n        /* \"#utility.yul\":11213:11294   */\n    tag_356:\n        /* \"#utility.yul\":11341:11343   */\n      0x20\n        /* \"#utility.yul\":11333:11339   */\n      dup3\n        /* \"#utility.yul\":11330:11344   */\n      lt\n        /* \"#utility.yul\":11310:11328   */\n      dup2\n        /* \"#utility.yul\":11307:11345   */\n      sub\n        /* \"#utility.yul\":11304:11388   */\n      tag_357\n      jumpi\n        /* \"#utility.yul\":11360:11378   */\n      tag_358\n      tag_208\n      jump\t// in\n    tag_358:\n        /* \"#utility.yul\":11304:11388   */\n    tag_357:\n        /* \"#utility.yul\":11125:11394   */\n      pop\n        /* \"#utility.yul\":11074:11394   */\n      swap2\n      swap1\n      pop\n      jump\t// out\n        /* \"#utility.yul\":11400:11570   */\n    tag_209:\n        /* \"#utility.yul\":11540:11562   */\n      0x46726f6d206973207a65726f2061646472657373000000000000000000000000\n        /* \"#utility.yul\":11536:11537   */\n      0x00\n        /* \"#utility.yul\":11528:11534   */\n      dup3\n        /* \"#utility.yul\":11524:11538   */\n      add\n        /* \"#utility.yul\":11517:11563   */\n      mstore\n        /* \"#utility.yul\":11400:11570   */\n      pop\n      jump\t// out\n        /* \"#utility.yul\":11576:11942   */\n    tag_210:\n        /* \"#utility.yul\":11718:11721   */\n      0x00\n        /* \"#utility.yul\":11739:11806   */\n      tag_361\n        /* \"#utility.yul\":11803:11805   */\n      0x14\n        /* \"#utility.yul\":11798:11801   */\n      dup4\n        /* \"#utility.yul\":11739:11806   */\n      tag_177\n      jump\t// in\n    tag_361:\n        /* \"#utility.yul\":11732:11806   */\n      swap2\n      pop\n        /* \"#utility.yul\":11815:11908   */\n      tag_362\n        /* \"#utility.yul\":11904:11907   */\n      dup3\n        /* \"#utility.yul\":11815:11908   */\n      tag_209\n      jump\t// in\n    tag_362:\n        /* \"#utility.yul\":11933:11935   */\n      0x20\n        /* \"#utility.yul\":11928:11931   */\n      dup3\n        /* \"#utility.yul\":11924:11936   */\n      add\n        /* \"#utility.yul\":11917:11936   */\n      swap1\n      pop\n        /* \"#utility.yul\":11576:11942   */\n      swap2\n      swap1\n      pop\n      jump\t// out\n        /* \"#utility.yul\":11948:12367   */\n    tag_83:\n        /* \"#utility.yul\":12114:12118   */\n      0x00\n        /* \"#utility.yul\":12152:12154   */\n      0x20\n        /* \"#utility.yul\":12141:12150   */\n      dup3\n        /* \"#utility.yul\":12137:12155   */\n      add\n        /* \"#utility.yul\":12129:12155   */\n      swap1\n      pop\n        /* \"#utility.yul\":12201:12210   */\n      dup2\n        /* \"#utility.yul\":12195:12199   */\n      dup2\n        /* \"#utility.yul\":12191:12211   */\n      sub\n        /* \"#utility.yul\":12187:12188   */\n      0x00\n        /* \"#utility.yul\":12176:12185   */\n      dup4\n        /* \"#utility.yul\":12172:12189   */\n      add\n        /* \"#utility.yul\":12165:12212   */\n      mstore\n        /* \"#utility.yul\":12229:12360   */\n      tag_364\n        /* \"#utility.yul\":12355:12359   */\n      dup2\n        /* \"#utility.yul\":12229:12360   */\n      tag_210\n      jump\t// in\n    tag_364:\n        /* \"#utility.yul\":12221:12360   */\n      swap1\n      pop\n        /* \"#utility.yul\":11948:12367   */\n      swap2\n      swap1\n      pop\n      jump\t// out\n        /* \"#utility.yul\":12373:12541   */\n    tag_211:\n        /* \"#utility.yul\":12513:12533   */\n      0x546f206973207a65726f20616464726573730000000000000000000000000000\n        /* \"#utility.yul\":12509:12510   */\n      0x00\n        /* \"#utility.yul\":12501:12507   */\n      dup3\n        /* \"#utility.yul\":12497:12511   */\n      add\n        /* \"#utility.yul\":12490:12534   */\n      mstore\n        /* \"#utility.yul\":12373:12541   */\n      pop\n      jump\t// out\n        /* \"#utility.yul\":12547:12913   */\n    tag_212:\n        /* \"#utility.yul\":12689:12692   */\n      0x00\n        /* \"#utility.yul\":12710:12777   */\n      tag_367\n        /* \"#utility.yul\":12774:12776   */\n      0x12\n        /* \"#utility.yul\":12769:12772   */\n      dup4\n        /* \"#utility.yul\":12710:12777   */\n      tag_177\n      jump\t// in\n    tag_367:\n        /* \"#utility.yul\":12703:12777   */\n      swap2\n      pop\n        /* \"#utility.yul\":12786:12879   */\n      tag_368\n        /* \"#utility.yul\":12875:12878   */\n      dup3\n        /* \"#utility.yul\":12786:12879   */\n      tag_211\n      jump\t// in\n    tag_368:\n        /* \"#utility.yul\":12904:12906   */\n      0x20\n        /* \"#utility.yul\":12899:12902   */\n      dup3\n        /* \"#utility.yul\":12895:12907   */\n      add\n        /* \"#utility.yul\":12888:12907   */\n      swap1\n      pop\n        /* \"#utility.yul\":12547:12913   */\n      swap2\n      swap1\n      pop\n      jump\t// out\n        /* \"#utility.yul\":12919:13338   */\n    tag_86:\n        /* \"#utility.yul\":13085:13089   */\n      0x00\n        /* \"#utility.yul\":13123:13125   */\n      0x20\n        /* \"#utility.yul\":13112:13121   */\n      dup3\n        /* \"#utility.yul\":13108:13126   */\n      add\n        /* \"#utility.yul\":13100:13126   */\n      swap1\n      pop\n        /* \"#utility.yul\":13172:13181   */\n      dup2\n        /* \"#utility.yul\":13166:13170   */\n      dup2\n        /* \"#utility.yul\":13162:13182   */\n      sub\n        /* \"#utility.yul\":13158:13159   */\n      0x00\n        /* \"#utility.yul\":13147:13156   */\n      dup4\n        /* \"#utility.yul\":13143:13160   */\n      add\n        /* \"#utility.yul\":13136:13183   */\n      mstore\n        /* \"#utility.yul\":13200:13331   */\n      tag_370\n        /* \"#utility.yul\":13326:13330   */\n      dup2\n        /* \"#utility.yul\":13200:13331   */\n      tag_212\n      jump\t// in\n    tag_370:\n        /* \"#utility.yul\":13192:13331   */\n      swap1\n      pop\n        /* \"#utility.yul\":12919:13338   */\n      swap2\n      swap1\n      pop\n      jump\t// out\n        /* \"#utility.yul\":13344:13514   */\n    tag_213:\n        /* \"#utility.yul\":13484:13506   */\n      0x496e73756666696369656e742062616c616e6365000000000000000000000000\n        /* \"#utility.yul\":13480:13481   */\n      0x00\n        /* \"#utility.yul\":13472:13478   */\n      dup3\n        /* \"#utility.yul\":13468:13482   */\n      add\n        /* \"#utility.yul\":13461:13507   */\n      mstore\n        /* \"#utility.yul\":13344:13514   */\n      pop\n      jump\t// out\n        /* \"#utility.yul\":13520:13886   */\n    tag_214:\n        /* \"#utility.yul\":13662:13665   */\n      0x00\n        /* \"#utility.yul\":13683:13750   */\n      tag_373\n        /* \"#utility.yul\":13747:13749   */\n      0x14\n        /* \"#utility.yul\":13742:13745   */\n      dup4\n        /* \"#utility.yul\":13683:13750   */\n      tag_177\n      jump\t// in\n    tag_373:\n        /* \"#utility.yul\":13676:13750   */\n      swap2\n      pop\n        /* \"#utility.yul\":13759:13852   */\n      tag_374\n        /* \"#utility.yul\":13848:13851   */\n      dup3\n        /* \"#utility.yul\":13759:13852   */\n      tag_213\n      jump\t// in\n    tag_374:\n        /* \"#utility.yul\":13877:13879   */\n      0x20\n        /* \"#utility.yul\":13872:13875   */\n      dup3\n        /* \"#utility.yul\":13868:13880   */\n      add\n        /* \"#utility.yul\":13861:13880   */\n      swap1\n      pop\n        /* \"#utility.yul\":13520:13886   */\n      swap2\n      swap1\n      pop\n      jump\t// out\n        /* \"#utility.yul\":13892:14311   */\n    tag_89:\n        /* \"#utility.yul\":14058:14062   */\n      0x00\n        /* \"#utility.yul\":14096:14098   */\n      0x20\n        /* \"#utility.yul\":14085:14094   */\n      dup3\n        /* \"#utility.yul\":14081:14099   */\n      add\n        /* \"#utility.yul\":14073:14099   */\n      swap1\n      pop\n        /* \"#utility.yul\":14145:14154   */\n      dup2\n        /* \"#utility.yul\":14139:14143   */\n      dup2\n        /* \"#utility.yul\":14135:14155   */\n      sub\n        /* \"#utility.yul\":14131:14132   */\n      0x00\n        /* \"#utility.yul\":14120:14129   */\n      dup4\n        /* \"#utility.yul\":14116:14133   */\n      add\n        /* \"#utility.yul\":14109:14156   */\n      mstore\n        /* \"#utility.yul\":14173:14304   */\n      tag_376\n        /* \"#utility.yul\":14299:14303   */\n      dup2\n        /* \"#utility.yul\":14173:14304   */\n      tag_214\n      jump\t// in\n    tag_376:\n        /* \"#utility.yul\":14165:14304   */\n      swap1\n      pop\n        /* \"#utility.yul\":13892:14311   */\n      swap2\n      swap1\n      pop\n      jump\t// out\n        /* \"#utility.yul\":14317:14486   */\n    tag_215:\n        /* \"#utility.yul\":14457:14478   */\n      0x496e73756666696369656e7420616d6f756e7400000000000000000000000000\n        /* \"#utility.yul\":14453:14454   */\n      0x00\n        /* \"#utility.yul\":14445:14451   */\n      dup3\n        /* \"#utility.yul\":14441:14455   */\n      add\n        /* \"#utility.yul\":14434:14479   */\n      mstore\n        /* \"#utility.yul\":14317:14486   */\n      pop\n      jump\t// out\n        /* \"#utility.yul\":14492:14858   */\n    tag_216:\n        /* \"#utility.yul\":14634:14637   */\n      0x00\n        /* \"#utility.yul\":14655:14722   */\n      tag_379\n        /* \"#utility.yul\":14719:14721   */\n      0x13\n        /* \"#utility.yul\":14714:14717   */\n      dup4\n        /* \"#utility.yul\":14655:14722   */\n      tag_177\n      jump\t// in\n    tag_379:\n        /* \"#utility.yul\":14648:14722   */\n      swap2\n      pop\n        /* \"#utility.yul\":14731:14824   */\n      tag_380\n        /* \"#utility.yul\":14820:14823   */\n      dup3\n        /* \"#utility.yul\":14731:14824   */\n      tag_215\n      jump\t// in\n    tag_380:\n        /* \"#utility.yul\":14849:14851   */\n      0x20\n        /* \"#utility.yul\":14844:14847   */\n      dup3\n        /* \"#utility.yul\":14840:14852   */\n      add\n        /* \"#utility.yul\":14833:14852   */\n      swap1\n      pop\n        /* \"#utility.yul\":14492:14858   */\n      swap2\n      swap1\n      pop\n      jump\t// out\n        /* \"#utility.yul\":14864:15283   */\n    tag_92:\n        /* \"#utility.yul\":15030:15034   */\n      0x00\n        /* \"#utility.yul\":15068:15070   */\n      0x20\n        /* \"#utility.yul\":15057:15066   */\n      dup3\n        /* \"#utility.yul\":15053:15071   */\n      add\n        /* \"#utility.yul\":15045:15071   */\n      swap1\n      pop\n        /* \"#utility.yul\":15117:15126   */\n      dup2\n        /* \"#utility.yul\":15111:15115   */\n      dup2\n        /* \"#utility.yul\":15107:15127   */\n      sub\n        /* \"#utility.yul\":15103:15104   */\n      0x00\n        /* \"#utility.yul\":15092:15101   */\n      dup4\n        /* \"#utility.yul\":15088:15105   */\n      add\n        /* \"#utility.yul\":15081:15128   */\n      mstore\n        /* \"#utility.yul\":15145:15276   */\n      tag_382\n        /* \"#utility.yul\":15271:15275   */\n      dup2\n        /* \"#utility.yul\":15145:15276   */\n      tag_216\n      jump\t// in\n    tag_382:\n        /* \"#utility.yul\":15137:15276   */\n      swap1\n      pop\n        /* \"#utility.yul\":14864:15283   */\n      swap2\n      swap1\n      pop\n      jump\t// out\n        /* \"#utility.yul\":15289:15469   */\n    tag_217:\n        /* \"#utility.yul\":15337:15414   */\n      0x4e487b7100000000000000000000000000000000000000000000000000000000\n        /* \"#utility.yul\":15334:15335   */\n      0x00\n        /* \"#utility.yul\":15327:15415   */\n      mstore\n        /* \"#utility.yul\":15434:15438   */\n      0x11\n        /* \"#utility.yul\":15431:15432   */\n      0x04\n        /* \"#utility.yul\":15424:15439   */\n      mstore\n        /* \"#utility.yul\":15458:15462   */\n      0x24\n        /* \"#utility.yul\":15455:15456   */\n      0x00\n        /* \"#utility.yul\":15448:15463   */\n      revert\n        /* \"#utility.yul\":15475:15669   */\n    tag_94:\n        /* \"#utility.yul\":15515:15519   */\n      0x00\n        /* \"#utility.yul\":15535:15555   */\n      tag_385\n        /* \"#utility.yul\":15553:15554   */\n      dup3\n        /* \"#utility.yul\":15535:15555   */\n      tag_181\n      jump\t// in\n    tag_385:\n        /* \"#utility.yul\":15530:15555   */\n      swap2\n      pop\n        /* \"#utility.yul\":15569:15589   */\n      tag_386\n        /* \"#utility.yul\":15587:15588   */\n      dup4\n        /* \"#utility.yul\":15569:15589   */\n      tag_181\n      jump\t// in\n    tag_386:\n        /* \"#utility.yul\":15564:15589   */\n      swap3\n      pop\n        /* \"#utility.yul\":15613:15614   */\n      dup3\n        /* \"#utility.yul\":15610:15611   */\n      dup3\n        /* \"#utility.yul\":15606:15615   */\n      sub\n        /* \"#utility.yul\":15598:15615   */\n      swap1\n      pop\n        /* \"#utility.yul\":15637:15638   */\n      dup2\n        /* \"#utility.yul\":15631:15635   */\n      dup2\n        /* \"#utility.yul\":15628:15639   */\n      gt\n        /* \"#utility.yul\":15625:15662   */\n      iszero\n      tag_387\n      jumpi\n        /* \"#utility.yul\":15642:15660   */\n      tag_388\n      tag_217\n      jump\t// in\n    tag_388:\n        /* \"#utility.yul\":15625:15662   */\n    tag_387:\n        /* \"#utility.yul\":15475:15669   */\n      swap3\n      swap2\n      pop\n      pop\n      jump\t// out\n        /* \"#utility.yul\":15675:15866   */\n    tag_97:\n        /* \"#utility.yul\":15715:15718   */\n      0x00\n        /* \"#utility.yul\":15734:15754   */\n      tag_390\n        /* \"#utility.yul\":15752:15753   */\n      dup3\n        /* \"#utility.yul\":15734:15754   */\n      tag_181\n      jump\t// in\n    tag_390:\n        /* \"#utility.yul\":15729:15754   */\n      swap2\n      pop\n        /* \"#utility.yul\":15768:15788   */\n      tag_391\n        /* \"#utility.yul\":15786:15787   */\n      dup4\n        /* \"#utility.yul\":15768:15788   */\n      tag_181\n      jump\t// in\n    tag_391:\n        /* \"#utility.yul\":15763:15788   */\n      swap3\n      pop\n        /* \"#utility.yul\":15811:15812   */\n      dup3\n        /* \"#utility.yul\":15808:15809   */\n      dup3\n        /* \"#utility.yul\":15804:15813   */\n      add\n        /* \"#utility.yul\":15797:15813   */\n      swap1\n      pop\n        /* \"#utility.yul\":15832:15835   */\n      dup1\n        /* \"#utility.yul\":15829:15830   */\n      dup3\n        /* \"#utility.yul\":15826:15836   */\n      gt\n        /* \"#utility.yul\":15823:15859   */\n      iszero\n      tag_392\n      jumpi\n        /* \"#utility.yul\":15839:15857   */\n      tag_393\n      tag_217\n      jump\t// in\n    tag_393:\n        /* \"#utility.yul\":15823:15859   */\n    tag_392:\n        /* \"#utility.yul\":15675:15866   */\n      swap3\n      swap2\n      pop\n      pop\n      jump\t// out\n        /* \"#utility.yul\":15872:16032   */\n    tag_218:\n        /* \"#utility.yul\":16012:16024   */\n      0x4f6e6c79204f776e657200000000000000000000000000000000000000000000\n        /* \"#utility.yul\":16008:16009   */\n      0x00\n        /* \"#utility.yul\":16000:16006   */\n      dup3\n        /* \"#utility.yul\":15996:16010   */\n      add\n        /* \"#utility.yul\":15989:16025   */\n      mstore\n        /* \"#utility.yul\":15872:16032   */\n      pop\n      jump\t// out\n        /* \"#utility.yul\":16038:16404   */\n    tag_219:\n        /* \"#utility.yul\":16180:16183   */\n      0x00\n        /* \"#utility.yul\":16201:16268   */\n      tag_396\n        /* \"#utility.yul\":16265:16267   */\n      0x0a\n        /* \"#utility.yul\":16260:16263   */\n      dup4\n        /* \"#utility.yul\":16201:16268   */\n      tag_177\n      jump\t// in\n    tag_396:\n        /* \"#utility.yul\":16194:16268   */\n      swap2\n      pop\n        /* \"#utility.yul\":16277:16370   */\n      tag_397\n        /* \"#utility.yul\":16366:16369   */\n      dup3\n        /* \"#utility.yul\":16277:16370   */\n      tag_218\n      jump\t// in\n    tag_397:\n        /* \"#utility.yul\":16395:16397   */\n      0x20\n        /* \"#utility.yul\":16390:16393   */\n      dup3\n        /* \"#utility.yul\":16386:16398   */\n      add\n        /* \"#utility.yul\":16379:16398   */\n      swap1\n      pop\n        /* \"#utility.yul\":16038:16404   */\n      swap2\n      swap1\n      pop\n      jump\t// out\n        /* \"#utility.yul\":16410:16829   */\n    tag_102:\n        /* \"#utility.yul\":16576:16580   */\n      0x00\n        /* \"#utility.yul\":16614:16616   */\n      0x20\n        /* \"#utility.yul\":16603:16612   */\n      dup3\n        /* \"#utility.yul\":16599:16617   */\n      add\n        /* \"#utility.yul\":16591:16617   */\n      swap1\n      pop\n        /* \"#utility.yul\":16663:16672   */\n      dup2\n        /* \"#utility.yul\":16657:16661   */\n      dup2\n        /* \"#utility.yul\":16653:16673   */\n      sub\n        /* \"#utility.yul\":16649:16650   */\n      0x00\n        /* \"#utility.yul\":16638:16647   */\n      dup4\n        /* \"#utility.yul\":16634:16651   */\n      add\n        /* \"#utility.yul\":16627:16674   */\n      mstore\n        /* \"#utility.yul\":16691:16822   */\n      tag_399\n        /* \"#utility.yul\":16817:16821   */\n      dup2\n        /* \"#utility.yul\":16691:16822   */\n      tag_219\n      jump\t// in\n    tag_399:\n        /* \"#utility.yul\":16683:16822   */\n      swap1\n      pop\n        /* \"#utility.yul\":16410:16829   */\n      swap2\n      swap1\n      pop\n      jump\t// out\n        /* \"#utility.yul\":16835:16997   */\n    tag_220:\n        /* \"#utility.yul\":16975:16989   */\n      0x5a65726f20616464726573730000000000000000000000000000000000000000\n        /* \"#utility.yul\":16971:16972   */\n      0x00\n        /* \"#utility.yul\":16963:16969   */\n      dup3\n        /* \"#utility.yul\":16959:16973   */\n      add\n        /* \"#utility.yul\":16952:16990   */\n      mstore\n        /* \"#utility.yul\":16835:16997   */\n      pop\n      jump\t// out\n        /* \"#utility.yul\":17003:17369   */\n    tag_221:\n        /* \"#utility.yul\":17145:17148   */\n      0x00\n        /* \"#utility.yul\":17166:17233   */\n      tag_402\n        /* \"#utility.yul\":17230:17232   */\n      0x0c\n        /* \"#utility.yul\":17225:17228   */\n      dup4\n        /* \"#utility.yul\":17166:17233   */\n      tag_177\n      jump\t// in\n    tag_402:\n        /* \"#utility.yul\":17159:17233   */\n      swap2\n      pop\n        /* \"#utility.yul\":17242:17335   */\n      tag_403\n        /* \"#utility.yul\":17331:17334   */\n      dup3\n        /* \"#utility.yul\":17242:17335   */\n      tag_220\n      jump\t// in\n    tag_403:\n        /* \"#utility.yul\":17360:17362   */\n      0x20\n        /* \"#utility.yul\":17355:17358   */\n      dup3\n        /* \"#utility.yul\":17351:17363   */\n      add\n        /* \"#utility.yul\":17344:17363   */\n      swap1\n      pop\n        /* \"#utility.yul\":17003:17369   */\n      swap2\n      swap1\n      pop\n      jump\t// out\n        /* \"#utility.yul\":17375:17794   */\n    tag_106:\n        /* \"#utility.yul\":17541:17545   */\n      0x00\n        /* \"#utility.yul\":17579:17581   */\n      0x20\n        /* \"#utility.yul\":17568:17577   */\n      dup3\n        /* \"#utility.yul\":17564:17582   */\n      add\n        /* \"#utility.yul\":17556:17582   */\n      swap1\n      pop\n        /* \"#utility.yul\":17628:17637   */\n      dup2\n        /* \"#utility.yul\":17622:17626   */\n      dup2\n        /* \"#utility.yul\":17618:17638   */\n      sub\n        /* \"#utility.yul\":17614:17615   */\n      0x00\n        /* \"#utility.yul\":17603:17612   */\n      dup4\n        /* \"#utility.yul\":17599:17616   */\n      add\n        /* \"#utility.yul\":17592:17639   */\n      mstore\n        /* \"#utility.yul\":17656:17787   */\n      tag_405\n        /* \"#utility.yul\":17782:17786   */\n      dup2\n        /* \"#utility.yul\":17656:17787   */\n      tag_221\n      jump\t// in\n    tag_405:\n        /* \"#utility.yul\":17648:17787   */\n      swap1\n      pop\n        /* \"#utility.yul\":17375:17794   */\n      swap2\n      swap1\n      pop\n      jump\t// out\n        /* \"#utility.yul\":17800:17965   */\n    tag_222:\n        /* \"#utility.yul\":17940:17957   */\n      0x556e657175616c206c656e677468730000000000000000000000000000000000\n        /* \"#utility.yul\":17936:17937   */\n      0x00\n        /* \"#utility.yul\":17928:17934   */\n      dup3\n        /* \"#utility.yul\":17924:17938   */\n      add\n        /* \"#utility.yul\":17917:17958   */\n      mstore\n        /* \"#utility.yul\":17800:17965   */\n      pop\n      jump\t// out\n        /* \"#utility.yul\":17971:18337   */\n    tag_223:\n        /* \"#utility.yul\":18113:18116   */\n      0x00\n        /* \"#utility.yul\":18134:18201   */\n      tag_408\n        /* \"#utility.yul\":18198:18200   */\n      0x0f\n        /* \"#utility.yul\":18193:18196   */\n      dup4\n        /* \"#utility.yul\":18134:18201   */\n      tag_177\n      jump\t// in\n    tag_408:\n        /* \"#utility.yul\":18127:18201   */\n      swap2\n      pop\n        /* \"#utility.yul\":18210:18303   */\n      tag_409\n        /* \"#utility.yul\":18299:18302   */\n      dup3\n        /* \"#utility.yul\":18210:18303   */\n      tag_222\n      jump\t// in\n    tag_409:\n        /* \"#utility.yul\":18328:18330   */\n      0x20\n        /* \"#utility.yul\":18323:18326   */\n      dup3\n        /* \"#utility.yul\":18319:18331   */\n      add\n        /* \"#utility.yul\":18312:18331   */\n      swap1\n      pop\n        /* \"#utility.yul\":17971:18337   */\n      swap2\n      swap1\n      pop\n      jump\t// out\n        /* \"#utility.yul\":18343:18762   */\n    tag_123:\n        /* \"#utility.yul\":18509:18513   */\n      0x00\n        /* \"#utility.yul\":18547:18549   */\n      0x20\n        /* \"#utility.yul\":18536:18545   */\n      dup3\n        /* \"#utility.yul\":18532:18550   */\n      add\n        /* \"#utility.yul\":18524:18550   */\n      swap1\n      pop\n        /* \"#utility.yul\":18596:18605   */\n      dup2\n        /* \"#utility.yul\":18590:18594   */\n      dup2\n        /* \"#utility.yul\":18586:18606   */\n      sub\n        /* \"#utility.yul\":18582:18583   */\n      0x00\n        /* \"#utility.yul\":18571:18580   */\n      dup4\n        /* \"#utility.yul\":18567:18584   */\n      add\n        /* \"#utility.yul\":18560:18607   */\n      mstore\n        /* \"#utility.yul\":18624:18755   */\n      tag_411\n        /* \"#utility.yul\":18750:18754   */\n      dup2\n        /* \"#utility.yul\":18624:18755   */\n      tag_223\n      jump\t// in\n    tag_411:\n        /* \"#utility.yul\":18616:18755   */\n      swap1\n      pop\n        /* \"#utility.yul\":18343:18762   */\n      swap2\n      swap1\n      pop\n      jump\t// out\n        /* \"#utility.yul\":18768:18935   */\n    tag_224:\n        /* \"#utility.yul\":18908:18927   */\n      0x4c656e677468206973206c696d69746564000000000000000000000000000000\n        /* \"#utility.yul\":18904:18905   */\n      0x00\n        /* \"#utility.yul\":18896:18902   */\n      dup3\n        /* \"#utility.yul\":18892:18906   */\n      add\n        /* \"#utility.yul\":18885:18928   */\n      mstore\n        /* \"#utility.yul\":18768:18935   */\n      pop\n      jump\t// out\n        /* \"#utility.yul\":18941:19307   */\n    tag_225:\n        /* \"#utility.yul\":19083:19086   */\n      0x00\n        /* \"#utility.yul\":19104:19171   */\n      tag_414\n        /* \"#utility.yul\":19168:19170   */\n      0x11\n        /* \"#utility.yul\":19163:19166   */\n      dup4\n        /* \"#utility.yul\":19104:19171   */\n      tag_177\n      jump\t// in\n    tag_414:\n        /* \"#utility.yul\":19097:19171   */\n      swap2\n      pop\n        /* \"#utility.yul\":19180:19273   */\n      tag_415\n        /* \"#utility.yul\":19269:19272   */\n      dup3\n        /* \"#utility.yul\":19180:19273   */\n      tag_224\n      jump\t// in\n    tag_415:\n        /* \"#utility.yul\":19298:19300   */\n      0x20\n        /* \"#utility.yul\":19293:19296   */\n      dup3\n        /* \"#utility.yul\":19289:19301   */\n      add\n        /* \"#utility.yul\":19282:19301   */\n      swap1\n      pop\n        /* \"#utility.yul\":18941:19307   */\n      swap2\n      swap1\n      pop\n      jump\t// out\n        /* \"#utility.yul\":19313:19732   */\n    tag_126:\n        /* \"#utility.yul\":19479:19483   */\n      0x00\n        /* \"#utility.yul\":19517:19519   */\n      0x20\n        /* \"#utility.yul\":19506:19515   */\n      dup3\n        /* \"#utility.yul\":19502:19520   */\n      add\n        /* \"#utility.yul\":19494:19520   */\n      swap1\n      pop\n        /* \"#utility.yul\":19566:19575   */\n      dup2\n        /* \"#utility.yul\":19560:19564   */\n      dup2\n        /* \"#utility.yul\":19556:19576   */\n      sub\n        /* \"#utility.yul\":19552:19553   */\n      0x00\n        /* \"#utility.yul\":19541:19550   */\n      dup4\n        /* \"#utility.yul\":19537:19554   */\n      add\n        /* \"#utility.yul\":19530:19577   */\n      mstore\n        /* \"#utility.yul\":19594:19725   */\n      tag_417\n        /* \"#utility.yul\":19720:19724   */\n      dup2\n        /* \"#utility.yul\":19594:19725   */\n      tag_225\n      jump\t// in\n    tag_417:\n        /* \"#utility.yul\":19586:19725   */\n      swap1\n      pop\n        /* \"#utility.yul\":19313:19732   */\n      swap2\n      swap1\n      pop\n      jump\t// out\n        /* \"#utility.yul\":19738:19918   */\n    tag_132:\n        /* \"#utility.yul\":19786:19863   */\n      0x4e487b7100000000000000000000000000000000000000000000000000000000\n        /* \"#utility.yul\":19783:19784   */\n      0x00\n        /* \"#utility.yul\":19776:19864   */\n      mstore\n        /* \"#utility.yul\":19883:19887   */\n      0x32\n        /* \"#utility.yul\":19880:19881   */\n      0x04\n        /* \"#utility.yul\":19873:19888   */\n      mstore\n        /* \"#utility.yul\":19907:19911   */\n      0x24\n        /* \"#utility.yul\":19904:19905   */\n      0x00\n        /* \"#utility.yul\":19897:19912   */\n      revert\n        /* \"#utility.yul\":19924:20092   */\n    tag_226:\n        /* \"#utility.yul\":20064:20084   */\n      0x496e73756666696369656e7420616f756d740000000000000000000000000000\n        /* \"#utility.yul\":20060:20061   */\n      0x00\n        /* \"#utility.yul\":20052:20058   */\n      dup3\n        /* \"#utility.yul\":20048:20062   */\n      add\n        /* \"#utility.yul\":20041:20085   */\n      mstore\n        /* \"#utility.yul\":19924:20092   */\n      pop\n      jump\t// out\n        /* \"#utility.yul\":20098:20464   */\n    tag_227:\n        /* \"#utility.yul\":20240:20243   */\n      0x00\n        /* \"#utility.yul\":20261:20328   */\n      tag_421\n        /* \"#utility.yul\":20325:20327   */\n      0x12\n        /* \"#utility.yul\":20320:20323   */\n      dup4\n        /* \"#utility.yul\":20261:20328   */\n      tag_177\n      jump\t// in\n    tag_421:\n        /* \"#utility.yul\":20254:20328   */\n      swap2\n      pop\n        /* \"#utility.yul\":20337:20430   */\n      tag_422\n        /* \"#utility.yul\":20426:20429   */\n      dup3\n        /* \"#utility.yul\":20337:20430   */\n      tag_226\n      jump\t// in\n    tag_422:\n        /* \"#utility.yul\":20455:20457   */\n      0x20\n        /* \"#utility.yul\":20450:20453   */\n      dup3\n        /* \"#utility.yul\":20446:20458   */\n      add\n        /* \"#utility.yul\":20439:20458   */\n      swap1\n      pop\n        /* \"#utility.yul\":20098:20464   */\n      swap2\n      swap1\n      pop\n      jump\t// out\n        /* \"#utility.yul\":20470:20889   */\n    tag_136:\n        /* \"#utility.yul\":20636:20640   */\n      0x00\n        /* \"#utility.yul\":20674:20676   */\n      0x20\n        /* \"#utility.yul\":20663:20672   */\n      dup3\n        /* \"#utility.yul\":20659:20677   */\n      add\n        /* \"#utility.yul\":20651:20677   */\n      swap1\n      pop\n        /* \"#utility.yul\":20723:20732   */\n      dup2\n        /* \"#utility.yul\":20717:20721   */\n      dup2\n        /* \"#utility.yul\":20713:20733   */\n      sub\n        /* \"#utility.yul\":20709:20710   */\n      0x00\n        /* \"#utility.yul\":20698:20707   */\n      dup4\n        /* \"#utility.yul\":20694:20711   */\n      add\n        /* \"#utility.yul\":20687:20734   */\n      mstore\n        /* \"#utility.yul\":20751:20882   */\n      tag_424\n        /* \"#utility.yul\":20877:20881   */\n      dup2\n        /* \"#utility.yul\":20751:20882   */\n      tag_227\n      jump\t// in\n    tag_424:\n        /* \"#utility.yul\":20743:20882   */\n      swap1\n      pop\n        /* \"#utility.yul\":20470:20889   */\n      swap2\n      swap1\n      pop\n      jump\t// out\n        /* \"#utility.yul\":20895:21059   */\n    tag_228:\n        /* \"#utility.yul\":21035:21051   */\n      0x496e76616c696420616d6f756e74000000000000000000000000000000000000\n        /* \"#utility.yul\":21031:21032   */\n      0x00\n        /* \"#utility.yul\":21023:21029   */\n      dup3\n        /* \"#utility.yul\":21019:21033   */\n      add\n        /* \"#utility.yul\":21012:21052   */\n      mstore\n        /* \"#utility.yul\":20895:21059   */\n      pop\n      jump\t// out\n        /* \"#utility.yul\":21065:21431   */\n    tag_229:\n        /* \"#utility.yul\":21207:21210   */\n      0x00\n        /* \"#utility.yul\":21228:21295   */\n      tag_427\n        /* \"#utility.yul\":21292:21294   */\n      0x0e\n        /* \"#utility.yul\":21287:21290   */\n      dup4\n        /* \"#utility.yul\":21228:21295   */\n      tag_177\n      jump\t// in\n    tag_427:\n        /* \"#utility.yul\":21221:21295   */\n      swap2\n      pop\n        /* \"#utility.yul\":21304:21397   */\n      tag_428\n        /* \"#utility.yul\":21393:21396   */\n      dup3\n        /* \"#utility.yul\":21304:21397   */\n      tag_228\n      jump\t// in\n    tag_428:\n        /* \"#utility.yul\":21422:21424   */\n      0x20\n        /* \"#utility.yul\":21417:21420   */\n      dup3\n        /* \"#utility.yul\":21413:21425   */\n      add\n        /* \"#utility.yul\":21406:21425   */\n      swap1\n      pop\n        /* \"#utility.yul\":21065:21431   */\n      swap2\n      swap1\n      pop\n      jump\t// out\n        /* \"#utility.yul\":21437:21856   */\n    tag_148:\n        /* \"#utility.yul\":21603:21607   */\n      0x00\n        /* \"#utility.yul\":21641:21643   */\n      0x20\n        /* \"#utility.yul\":21630:21639   */\n      dup3\n        /* \"#utility.yul\":21626:21644   */\n      add\n        /* \"#utility.yul\":21618:21644   */\n      swap1\n      pop\n        /* \"#utility.yul\":21690:21699   */\n      dup2\n        /* \"#utility.yul\":21684:21688   */\n      dup2\n        /* \"#utility.yul\":21680:21700   */\n      sub\n        /* \"#utility.yul\":21676:21677   */\n      0x00\n        /* \"#utility.yul\":21665:21674   */\n      dup4\n        /* \"#utility.yul\":21661:21678   */\n      add\n        /* \"#utility.yul\":21654:21701   */\n      mstore\n        /* \"#utility.yul\":21718:21849   */\n      tag_430\n        /* \"#utility.yul\":21844:21848   */\n      dup2\n        /* \"#utility.yul\":21718:21849   */\n      tag_229\n      jump\t// in\n    tag_430:\n        /* \"#utility.yul\":21710:21849   */\n      swap1\n      pop\n        /* \"#utility.yul\":21437:21856   */\n      swap2\n      swap1\n      pop\n      jump\t// out\n        /* \"#utility.yul\":21862:22033   */\n    tag_230:\n        /* \"#utility.yul\":22002:22025   */\n      0x496e73756666696369656e74732062616c616e63650000000000000000000000\n        /* \"#utility.yul\":21998:21999   */\n      0x00\n        /* \"#utility.yul\":21990:21996   */\n      dup3\n        /* \"#utility.yul\":21986:22000   */\n      add\n        /* \"#utility.yul\":21979:22026   */\n      mstore\n        /* \"#utility.yul\":21862:22033   */\n      pop\n      jump\t// out\n        /* \"#utility.yul\":22039:22405   */\n    tag_231:\n        /* \"#utility.yul\":22181:22184   */\n      0x00\n        /* \"#utility.yul\":22202:22269   */\n      tag_433\n        /* \"#utility.yul\":22266:22268   */\n      0x15\n        /* \"#utility.yul\":22261:22264   */\n      dup4\n        /* \"#utility.yul\":22202:22269   */\n      tag_177\n      jump\t// in\n    tag_433:\n        /* \"#utility.yul\":22195:22269   */\n      swap2\n      pop\n        /* \"#utility.yul\":22278:22371   */\n      tag_434\n        /* \"#utility.yul\":22367:22370   */\n      dup3\n        /* \"#utility.yul\":22278:22371   */\n      tag_230\n      jump\t// in\n    tag_434:\n        /* \"#utility.yul\":22396:22398   */\n      0x20\n        /* \"#utility.yul\":22391:22394   */\n      dup3\n        /* \"#utility.yul\":22387:22399   */\n      add\n        /* \"#utility.yul\":22380:22399   */\n      swap1\n      pop\n        /* \"#utility.yul\":22039:22405   */\n      swap2\n      swap1\n      pop\n      jump\t// out\n        /* \"#utility.yul\":22411:22830   */\n    tag_172:\n        /* \"#utility.yul\":22577:22581   */\n      0x00\n        /* \"#utility.yul\":22615:22617   */\n      0x20\n        /* \"#utility.yul\":22604:22613   */\n      dup3\n        /* \"#utility.yul\":22600:22618   */\n      add\n        /* \"#utility.yul\":22592:22618   */\n      swap1\n      pop\n        /* \"#utility.yul\":22664:22673   */\n      dup2\n        /* \"#utility.yul\":22658:22662   */\n      dup2\n        /* \"#utility.yul\":22654:22674   */\n      sub\n        /* \"#utility.yul\":22650:22651   */\n      0x00\n        /* \"#utility.yul\":22639:22648   */\n      dup4\n        /* \"#utility.yul\":22635:22652   */\n      add\n        /* \"#utility.yul\":22628:22675   */\n      mstore\n        /* \"#utility.yul\":22692:22823   */\n      tag_436\n        /* \"#utility.yul\":22818:22822   */\n      dup2\n        /* \"#utility.yul\":22692:22823   */\n      tag_231\n      jump\t// in\n    tag_436:\n        /* \"#utility.yul\":22684:22823   */\n      swap1\n      pop\n        /* \"#utility.yul\":22411:22830   */\n      swap2\n      swap1\n      pop\n      jump\t// out\n\n    auxdata: 0xa264697066735822122056f71ea68c22918898ab2886c08d2ba5fadd4d424c6d6db0d1b4188c0d14999864736f6c634300081e0033\n}\n",
				"bytecode": {
					"linkReferences": {},
					"object": "60806040526040518060400160405280600b81526020017f596f756e6720546f6b656e0000000000000000000000000000000000000000008152505f90816100479190610471565b506040518060400160405280600381526020017f59544b00000000000000000000000000000000000000000000000000000000008152506001908161008c9190610471565b50601260025f6101000a81548160ff021916908360ff1602179055503480156100b3575f5ffd5b5060405161257a38038061257a83398181016040528101906100d5919061056e565b3360045f6101000a81548173ffffffffffffffffffffffffffffffffffffffff021916908373ffffffffffffffffffffffffffffffffffffffff16021790555060025f9054906101000a900460ff16600a6101309190610701565b8161013b919061074b565b60038190555060035460055f60045f9054906101000a900473ffffffffffffffffffffffffffffffffffffffff1673ffffffffffffffffffffffffffffffffffffffff1673ffffffffffffffffffffffffffffffffffffffff1681526020019081526020015f208190555060045f9054906101000a900473ffffffffffffffffffffffffffffffffffffffff1673ffffffffffffffffffffffffffffffffffffffff165f73ffffffffffffffffffffffffffffffffffffffff167fddf252ad1be2c89b69c2b068fc378daa952ba7f163c4a11628f55a4df523b3ef600354604051610226919061079b565b60405180910390a3506107b4565b5f81519050919050565b7f4e487b71000000000000000000000000000000000000000000000000000000005f52604160045260245ffd5b7f4e487b71000000000000000000000000000000000000000000000000000000005f52602260045260245ffd5b5f60028204905060018216806102af57607f821691505b6020821081036102c2576102c161026b565b5b50919050565b5f819050815f5260205f209050919050565b5f6020601f8301049050919050565b5f82821b905092915050565b5f600883026103247fffffffffffffffffffffffffffffffffffffffffffffffffffffffffffffffff826102e9565b61032e86836102e9565b95508019841693508086168417925050509392505050565b5f819050919050565b5f819050919050565b5f61037261036d61036884610346565b61034f565b610346565b9050919050565b5f819050919050565b61038b83610358565b61039f61039782610379565b8484546102f5565b825550505050565b5f5f905090565b6103b66103a7565b6103c1818484610382565b505050565b5b818110156103e4576103d95f826103ae565b6001810190506103c7565b5050565b601f821115610429576103fa816102c8565b610403846102da565b81016020851015610412578190505b61042661041e856102da565b8301826103c6565b50505b505050565b5f82821c905092915050565b5f6104495f198460080261042e565b1980831691505092915050565b5f610461838361043a565b9150826002028217905092915050565b61047a82610234565b67ffffffffffffffff8111156104935761049261023e565b5b61049d8254610298565b6104a88282856103e8565b5f60209050601f8311600181146104d9575f84156104c7578287015190505b6104d18582610456565b865550610538565b601f1984166104e7866102c8565b5f5b8281101561050e578489015182556001820191506020850194506020810190506104e9565b8683101561052b5784890151610527601f89168261043a565b8355505b6001600288020188555050505b505050505050565b5f5ffd5b61054d81610346565b8114610557575f5ffd5b50565b5f8151905061056881610544565b92915050565b5f6020828403121561058357610582610540565b5b5f6105908482850161055a565b91505092915050565b7f4e487b71000000000000000000000000000000000000000000000000000000005f52601160045260245ffd5b5f8160011c9050919050565b5f5f8291508390505b600185111561061b578086048111156105f7576105f6610599565b5b60018516156106065780820291505b8081029050610614856105c6565b94506105db565b94509492505050565b5f8261063357600190506106ee565b81610640575f90506106ee565b816001811461065657600281146106605761068f565b60019150506106ee565b60ff84111561067257610671610599565b5b8360020a91508482111561068957610688610599565b5b506106ee565b5060208310610133831016604e8410600b84101617156106c45782820a9050838111156106bf576106be610599565b5b6106ee565b6106d184848460016105d2565b925090508184048111156106e8576106e7610599565b5b81810290505b9392505050565b5f60ff82169050919050565b5f61070b82610346565b9150610716836106f5565b92506107437fffffffffffffffffffffffffffffffffffffffffffffffffffffffffffffffff8484610624565b905092915050565b5f61075582610346565b915061076083610346565b925082820261076e81610346565b9150828204841483151761078557610784610599565b5b5092915050565b61079581610346565b82525050565b5f6020820190506107ae5f83018461078c565b92915050565b611db9806107c15f395ff3fe608060405234801561000f575f5ffd5b50600436106100cd575f3560e01c806375247a581161008a5780638da5cb5b116100645780638da5cb5b1461022357806395d89b4114610241578063a9059cbb1461025f578063dd62ed3e1461028f576100cd565b806375247a58146101a557806376809ce3146101d557806388d695b2146101f3576100cd565b806306fdde03146100d157806318160ddd146100ef5780633112ae5b1461010d57806340c10f191461013d57806342966c681461015957806370a0823114610175575b5f5ffd5b6100d96102bf565b6040516100e691906112e1565b60405180910390f35b6100f761034a565b6040516101049190611319565b60405180910390f35b610127600480360381019061012291906113c7565b610350565b6040516101349190611431565b60405180910390f35b6101576004803603810190610152919061144a565b61070c565b005b610173600480360381019061016e9190611488565b6108dd565b005b61018f600480360381019061018a91906114b3565b610a30565b60405161019c9190611319565b60405180910390f35b6101bf60048036038101906101ba919061144a565b610a45565b6040516101cc9190611431565b60405180910390f35b6101dd610ba0565b6040516101ea91906114f9565b60405180910390f35b61020d60048036038101906102089190611712565b610bb2565b60405161021a9190611431565b60405180910390f35b61022b610f9c565b6040516102389190611797565b60405180910390f35b610249610fc1565b60405161025691906112e1565b60405180910390f35b6102796004803603810190610274919061144a565b61104d565b6040516102869190611431565b60405180910390f35b6102a960048036038101906102a491906117b0565b611251565b6040516102b69190611319565b60405180910390f35b5f80546102cb9061181b565b80601f01602080910402602001604051908101604052809291908181526020018280546102f79061181b565b80156103425780601f1061031957610100808354040283529160200191610342565b820191905f5260205f20905b81548152906001019060200180831161032557829003601f168201915b505050505081565b60035481565b5f5f73ffffffffffffffffffffffffffffffffffffffff168473ffffffffffffffffffffffffffffffffffffffff16036103bf576040517f08c379a00000000000000000000000000000000000000000000000000000000081526004016103b690611895565b60405180910390fd5b5f73ffffffffffffffffffffffffffffffffffffffff168373ffffffffffffffffffffffffffffffffffffffff160361042d576040517f08c379a0000000000000000000000000000000000000000000000000000000008152600401610424906118fd565b60405180910390fd5b8160055f8673ffffffffffffffffffffffffffffffffffffffff1673ffffffffffffffffffffffffffffffffffffffff1681526020019081526020015f205410156104ad576040517f08c379a00000000000000000000000000000000000000000000000000000000081526004016104a490611965565b60405180910390fd5b8160065f8673ffffffffffffffffffffffffffffffffffffffff1673ffffffffffffffffffffffffffffffffffffffff1681526020019081526020015f205f3373ffffffffffffffffffffffffffffffffffffffff1673ffffffffffffffffffffffffffffffffffffffff1681526020019081526020015f20541015610568576040517f08c379a000000000000000000000000000000000000000000000000000000000815260040161055f906119cd565b60405180910390fd5b8160065f8673ffffffffffffffffffffffffffffffffffffffff1673ffffffffffffffffffffffffffffffffffffffff1681526020019081526020015f205f3373ffffffffffffffffffffffffffffffffffffffff1673ffffffffffffffffffffffffffffffffffffffff1681526020019081526020015f205f8282546105ef9190611a18565b925050819055508160055f8673ffffffffffffffffffffffffffffffffffffffff1673ffffffffffffffffffffffffffffffffffffffff1681526020019081526020015f205f8282546106429190611a18565b925050819055508160055f8573ffffffffffffffffffffffffffffffffffffffff1673ffffffffffffffffffffffffffffffffffffffff1681526020019081526020015f205f8282546106959190611a4b565b925050819055508273ffffffffffffffffffffffffffffffffffffffff168473ffffffffffffffffffffffffffffffffffffffff167f8c5be1e5ebec7d5bd14f71427d1e84f3dd0314c0f7b2291e5b200ac8c7c3b925846040516106f99190611319565b60405180910390a3600190509392505050565b60045f9054906101000a900473ffffffffffffffffffffffffffffffffffffffff1673ffffffffffffffffffffffffffffffffffffffff163373ffffffffffffffffffffffffffffffffffffffff161461079b576040517f08c379a000000000000000000000000000000000000000000000000000000000815260040161079290611ac8565b60405180910390fd5b5f73ffffffffffffffffffffffffffffffffffffffff168273ffffffffffffffffffffffffffffffffffffffff1603610809576040517f08c379a000000000000000000000000000000000000000000000000000000000815260040161080090611b30565b60405180910390fd5b8060035f82825461081a9190611a4b565b925050819055508060055f8473ffffffffffffffffffffffffffffffffffffffff1673ffffffffffffffffffffffffffffffffffffffff1681526020019081526020015f205f82825461086d9190611a4b565b925050819055508173ffffffffffffffffffffffffffffffffffffffff165f73ffffffffffffffffffffffffffffffffffffffff167fddf252ad1be2c89b69c2b068fc378daa952ba7f163c4a11628f55a4df523b3ef836040516108d19190611319565b60405180910390a35050565b8060055f3373ffffffffffffffffffffffffffffffffffffffff1673ffffffffffffffffffffffffffffffffffffffff1681526020019081526020015f2054101561095d576040517f08c379a000000000000000000000000000000000000000000000000000000000815260040161095490611965565b60405180910390fd5b8060035f82825461096e9190611a18565b925050819055508060055f3373ffffffffffffffffffffffffffffffffffffffff1673ffffffffffffffffffffffffffffffffffffffff1681526020019081526020015f205f8282546109c19190611a18565b925050819055505f73ffffffffffffffffffffffffffffffffffffffff163373ffffffffffffffffffffffffffffffffffffffff167fddf252ad1be2c89b69c2b068fc378daa952ba7f163c4a11628f55a4df523b3ef83604051610a259190611319565b60405180910390a350565b6005602052805f5260405f205f915090505481565b5f5f73ffffffffffffffffffffffffffffffffffffffff168373ffffffffffffffffffffffffffffffffffffffff1603610ab4576040517f08c379a0000000000000000000000000000000000000000000000000000000008152600401610aab90611b30565b60405180910390fd5b8160065f3373ffffffffffffffffffffffffffffffffffffffff1673ffffffffffffffffffffffffffffffffffffffff1681526020019081526020015f205f8573ffffffffffffffffffffffffffffffffffffffff1673ffffffffffffffffffffffffffffffffffffffff1681526020019081526020015f20819055508273ffffffffffffffffffffffffffffffffffffffff163373ffffffffffffffffffffffffffffffffffffffff167f8c5be1e5ebec7d5bd14f71427d1e84f3dd0314c0f7b2291e5b200ac8c7c3b92584604051610b8e9190611319565b60405180910390a36001905092915050565b60025f9054906101000a900460ff1681565b5f8151835114610bf7576040517f08c379a0000000000000000000000000000000000000000000000000000000008152600401610bee90611b98565b60405180910390fd5b600383511115610c3c576040517f08c379a0000000000000000000000000000000000000000000000000000000008152600401610c3390611c00565b60405180910390fd5b5f5f90505f5f90505b8351811015610c8357838181518110610c6157610c60611c1e565b5b602002602001015182610c749190611a4b565b91508080600101915050610c45565b508060055f3373ffffffffffffffffffffffffffffffffffffffff1673ffffffffffffffffffffffffffffffffffffffff1681526020019081526020015f20541015610d04576040517f08c379a0000000000000000000000000000000000000000000000000000000008152600401610cfb90611c95565b60405180910390fd5b5f5f90505b8451811015610f90575f73ffffffffffffffffffffffffffffffffffffffff16858281518110610d3c57610d3b611c1e565b5b602002602001015173ffffffffffffffffffffffffffffffffffffffff1603610d9a576040517f08c379a0000000000000000000000000000000000000000000000000000000008152600401610d9190611b30565b60405180910390fd5b5f848281518110610dae57610dad611c1e565b5b602002602001015111610df6576040517f08c379a0000000000000000000000000000000000000000000000000000000008152600401610ded90611cfd565b60405180910390fd5b838181518110610e0957610e08611c1e565b5b602002602001015160055f3373ffffffffffffffffffffffffffffffffffffffff1673ffffffffffffffffffffffffffffffffffffffff1681526020019081526020015f205f828254610e5c9190611a18565b92505081905550838181518110610e7657610e75611c1e565b5b602002602001015160055f878481518110610e9457610e93611c1e565b5b602002602001015173ffffffffffffffffffffffffffffffffffffffff1673ffffffffffffffffffffffffffffffffffffffff1681526020019081526020015f205f828254610ee39190611a4b565b92505081905550848181518110610efd57610efc611c1e565b5b602002602001015173ffffffffffffffffffffffffffffffffffffffff163373ffffffffffffffffffffffffffffffffffffffff167fddf252ad1be2c89b69c2b068fc378daa952ba7f163c4a11628f55a4df523b3ef868481518110610f6657610f65611c1e565b5b6020026020010151604051610f7b9190611319565b60405180910390a38080600101915050610d09565b50600191505092915050565b60045f9054906101000a900473ffffffffffffffffffffffffffffffffffffffff1681565b60018054610fce9061181b565b80601f0160208091040260200160405190810160405280929190818152602001828054610ffa9061181b565b80156110455780601f1061101c57610100808354040283529160200191611045565b820191905f5260205f20905b81548152906001019060200180831161102857829003601f168201915b505050505081565b5f5f73ffffffffffffffffffffffffffffffffffffffff168373ffffffffffffffffffffffffffffffffffffffff16036110bc576040517f08c379a00000000000000000000000000000000000000000000000000000000081526004016110b390611b30565b60405180910390fd5b8160055f3373ffffffffffffffffffffffffffffffffffffffff1673ffffffffffffffffffffffffffffffffffffffff1681526020019081526020015f2054101561113c576040517f08c379a000000000000000000000000000000000000000000000000000000000815260040161113390611d65565b60405180910390fd5b8160055f3373ffffffffffffffffffffffffffffffffffffffff1673ffffffffffffffffffffffffffffffffffffffff1681526020019081526020015f205f8282546111889190611a18565b925050819055508160055f8573ffffffffffffffffffffffffffffffffffffffff1673ffffffffffffffffffffffffffffffffffffffff1681526020019081526020015f205f8282546111db9190611a4b565b925050819055508273ffffffffffffffffffffffffffffffffffffffff163373ffffffffffffffffffffffffffffffffffffffff167fddf252ad1be2c89b69c2b068fc378daa952ba7f163c4a11628f55a4df523b3ef8460405161123f9190611319565b60405180910390a36001905092915050565b6006602052815f5260405f20602052805f5260405f205f91509150505481565b5f81519050919050565b5f82825260208201905092915050565b8281835e5f83830152505050565b5f601f19601f8301169050919050565b5f6112b382611271565b6112bd818561127b565b93506112cd81856020860161128b565b6112d681611299565b840191505092915050565b5f6020820190508181035f8301526112f981846112a9565b905092915050565b5f819050919050565b61131381611301565b82525050565b5f60208201905061132c5f83018461130a565b92915050565b5f604051905090565b5f5ffd5b5f5ffd5b5f73ffffffffffffffffffffffffffffffffffffffff82169050919050565b5f61136c82611343565b9050919050565b61137c81611362565b8114611386575f5ffd5b50565b5f8135905061139781611373565b92915050565b6113a681611301565b81146113b0575f5ffd5b50565b5f813590506113c18161139d565b92915050565b5f5f5f606084860312156113de576113dd61133b565b5b5f6113eb86828701611389565b93505060206113fc86828701611389565b925050604061140d868287016113b3565b9150509250925092565b5f8115159050919050565b61142b81611417565b82525050565b5f6020820190506114445f830184611422565b92915050565b5f5f604083850312156114605761145f61133b565b5b5f61146d85828601611389565b925050602061147e858286016113b3565b9150509250929050565b5f6020828403121561149d5761149c61133b565b5b5f6114aa848285016113b3565b91505092915050565b5f602082840312156114c8576114c761133b565b5b5f6114d584828501611389565b91505092915050565b5f60ff82169050919050565b6114f3816114de565b82525050565b5f60208201905061150c5f8301846114ea565b92915050565b5f5ffd5b7f4e487b71000000000000000000000000000000000000000000000000000000005f52604160045260245ffd5b61154c82611299565b810181811067ffffffffffffffff8211171561156b5761156a611516565b5b80604052505050565b5f61157d611332565b90506115898282611543565b919050565b5f67ffffffffffffffff8211156115a8576115a7611516565b5b602082029050602081019050919050565b5f5ffd5b5f6115cf6115ca8461158e565b611574565b905080838252602082019050602084028301858111156115f2576115f16115b9565b5b835b8181101561161b57806116078882611389565b8452602084019350506020810190506115f4565b5050509392505050565b5f82601f83011261163957611638611512565b5b81356116498482602086016115bd565b91505092915050565b5f67ffffffffffffffff82111561166c5761166b611516565b5b602082029050602081019050919050565b5f61168f61168a84611652565b611574565b905080838252602082019050602084028301858111156116b2576116b16115b9565b5b835b818110156116db57806116c788826113b3565b8452602084019350506020810190506116b4565b5050509392505050565b5f82601f8301126116f9576116f8611512565b5b813561170984826020860161167d565b91505092915050565b5f5f604083850312156117285761172761133b565b5b5f83013567ffffffffffffffff8111156117455761174461133f565b5b61175185828601611625565b925050602083013567ffffffffffffffff8111156117725761177161133f565b5b61177e858286016116e5565b9150509250929050565b61179181611362565b82525050565b5f6020820190506117aa5f830184611788565b92915050565b5f5f604083850312156117c6576117c561133b565b5b5f6117d385828601611389565b92505060206117e485828601611389565b9150509250929050565b7f4e487b71000000000000000000000000000000000000000000000000000000005f52602260045260245ffd5b5f600282049050600182168061183257607f821691505b602082108103611845576118446117ee565b5b50919050565b7f46726f6d206973207a65726f20616464726573730000000000000000000000005f82015250565b5f61187f60148361127b565b915061188a8261184b565b602082019050919050565b5f6020820190508181035f8301526118ac81611873565b9050919050565b7f546f206973207a65726f206164647265737300000000000000000000000000005f82015250565b5f6118e760128361127b565b91506118f2826118b3565b602082019050919050565b5f6020820190508181035f830152611914816118db565b9050919050565b7f496e73756666696369656e742062616c616e63650000000000000000000000005f82015250565b5f61194f60148361127b565b915061195a8261191b565b602082019050919050565b5f6020820190508181035f83015261197c81611943565b9050919050565b7f496e73756666696369656e7420616d6f756e74000000000000000000000000005f82015250565b5f6119b760138361127b565b91506119c282611983565b602082019050919050565b5f6020820190508181035f8301526119e4816119ab565b9050919050565b7f4e487b71000000000000000000000000000000000000000000000000000000005f52601160045260245ffd5b5f611a2282611301565b9150611a2d83611301565b9250828203905081811115611a4557611a446119eb565b5b92915050565b5f611a5582611301565b9150611a6083611301565b9250828201905080821115611a7857611a776119eb565b5b92915050565b7f4f6e6c79204f776e6572000000000000000000000000000000000000000000005f82015250565b5f611ab2600a8361127b565b9150611abd82611a7e565b602082019050919050565b5f6020820190508181035f830152611adf81611aa6565b9050919050565b7f5a65726f206164647265737300000000000000000000000000000000000000005f82015250565b5f611b1a600c8361127b565b9150611b2582611ae6565b602082019050919050565b5f6020820190508181035f830152611b4781611b0e565b9050919050565b7f556e657175616c206c656e6774687300000000000000000000000000000000005f82015250565b5f611b82600f8361127b565b9150611b8d82611b4e565b602082019050919050565b5f6020820190508181035f830152611baf81611b76565b9050919050565b7f4c656e677468206973206c696d697465640000000000000000000000000000005f82015250565b5f611bea60118361127b565b9150611bf582611bb6565b602082019050919050565b5f6020820190508181035f830152611c1781611bde565b9050919050565b7f4e487b71000000000000000000000000000000000000000000000000000000005f52603260045260245ffd5b7f496e73756666696369656e7420616f756d7400000000000000000000000000005f82015250565b5f611c7f60128361127b565b9150611c8a82611c4b565b602082019050919050565b5f6020820190508181035f830152611cac81611c73565b9050919050565b7f496e76616c696420616d6f756e740000000000000000000000000000000000005f82015250565b5f611ce7600e8361127b565b9150611cf282611cb3565b602082019050919050565b5f6020820190508181035f830152611d1481611cdb565b9050919050565b7f496e73756666696369656e74732062616c616e636500000000000000000000005f82015250565b5f611d4f60158361127b565b9150611d5a82611d1b565b602082019050919050565b5f6020820190508181035f830152611d7c81611d43565b905091905056fea264697066735822122056f71ea68c22918898ab2886c08d2ba5fadd4d424c6d6db0d1b4188c0d14999864736f6c634300081e0033",
					"opcodes": "PUSH1 0x80 PUSH1 0x40 MSTORE PUSH1 0x40 MLOAD DUP1 PUSH1 0x40 ADD PUSH1 0x40 MSTORE DUP1 PUSH1 0xB DUP2 MSTORE PUSH1 0x20 ADD PUSH32 0x596F756E6720546F6B656E000000000000000000000000000000000000000000 DUP2 MSTORE POP PUSH0 SWAP1 DUP2 PUSH2 0x47 SWAP2 SWAP1 PUSH2 0x471 JUMP JUMPDEST POP PUSH1 0x40 MLOAD DUP1 PUSH1 0x40 ADD PUSH1 0x40 MSTORE DUP1 PUSH1 0x3 DUP2 MSTORE PUSH1 0x20 ADD PUSH32 0x59544B0000000000000000000000000000000000000000000000000000000000 DUP2 MSTORE POP PUSH1 0x1 SWAP1 DUP2 PUSH2 0x8C SWAP2 SWAP1 PUSH2 0x471 JUMP JUMPDEST POP PUSH1 0x12 PUSH1 0x2 PUSH0 PUSH2 0x100 EXP DUP2 SLOAD DUP2 PUSH1 0xFF MUL NOT AND SWAP1 DUP4 PUSH1 0xFF AND MUL OR SWAP1 SSTORE POP CALLVALUE DUP1 ISZERO PUSH2 0xB3 JUMPI PUSH0 PUSH0 REVERT JUMPDEST POP PUSH1 0x40 MLOAD PUSH2 0x257A CODESIZE SUB DUP1 PUSH2 0x257A DUP4 CODECOPY DUP2 DUP2 ADD PUSH1 0x40 MSTORE DUP2 ADD SWAP1 PUSH2 0xD5 SWAP2 SWAP1 PUSH2 0x56E JUMP JUMPDEST CALLER PUSH1 0x4 PUSH0 PUSH2 0x100 EXP DUP2 SLOAD DUP2 PUSH20 0xFFFFFFFFFFFFFFFFFFFFFFFFFFFFFFFFFFFFFFFF MUL NOT AND SWAP1 DUP4 PUSH20 0xFFFFFFFFFFFFFFFFFFFFFFFFFFFFFFFFFFFFFFFF AND MUL OR SWAP1 SSTORE POP PUSH1 0x2 PUSH0 SWAP1 SLOAD SWAP1 PUSH2 0x100 EXP SWAP1 DIV PUSH1 0xFF AND PUSH1 0xA PUSH2 0x130 SWAP2 SWAP1 PUSH2 0x701 JUMP JUMPDEST DUP2 PUSH2 0x13B SWAP2 SWAP1 PUSH2 0x74B JUMP JUMPDEST PUSH1 0x3 DUP2 SWAP1 SSTORE POP PUSH1 0x3 SLOAD PUSH1 0x5 PUSH0 PUSH1 0x4 PUSH0 SWAP1 SLOAD SWAP1 PUSH2 0x100 EXP SWAP1 DIV PUSH20 0xFFFFFFFFFFFFFFFFFFFFFFFFFFFFFFFFFFFFFFFF AND PUSH20 0xFFFFFFFFFFFFFFFFFFFFFFFFFFFFFFFFFFFFFFFF AND PUSH20 0xFFFFFFFFFFFFFFFFFFFFFFFFFFFFFFFFFFFFFFFF AND DUP2 MSTORE PUSH1 0x20 ADD SWAP1 DUP2 MSTORE PUSH1 0x20 ADD PUSH0 KECCAK256 DUP2 SWAP1 SSTORE POP PUSH1 0x4 PUSH0 SWAP1 SLOAD SWAP1 PUSH2 0x100 EXP SWAP1 DIV PUSH20 0xFFFFFFFFFFFFFFFFFFFFFFFFFFFFFFFFFFFFFFFF AND PUSH20 0xFFFFFFFFFFFFFFFFFFFFFFFFFFFFFFFFFFFFFFFF AND PUSH0 PUSH20 0xFFFFFFFFFFFFFFFFFFFFFFFFFFFFFFFFFFFFFFFF AND PUSH32 0xDDF252AD1BE2C89B69C2B068FC378DAA952BA7F163C4A11628F55A4DF523B3EF PUSH1 0x3 SLOAD PUSH1 0x40 MLOAD PUSH2 0x226 SWAP2 SWAP1 PUSH2 0x79B JUMP JUMPDEST PUSH1 0x40 MLOAD DUP1 SWAP2 SUB SWAP1 LOG3 POP PUSH2 0x7B4 JUMP JUMPDEST PUSH0 DUP2 MLOAD SWAP1 POP SWAP2 SWAP1 POP JUMP JUMPDEST PUSH32 0x4E487B7100000000000000000000000000000000000000000000000000000000 PUSH0 MSTORE PUSH1 0x41 PUSH1 0x4 MSTORE PUSH1 0x24 PUSH0 REVERT JUMPDEST PUSH32 0x4E487B7100000000000000000000000000000000000000000000000000000000 PUSH0 MSTORE PUSH1 0x22 PUSH1 0x4 MSTORE PUSH1 0x24 PUSH0 REVERT JUMPDEST PUSH0 PUSH1 0x2 DUP3 DIV SWAP1 POP PUSH1 0x1 DUP3 AND DUP1 PUSH2 0x2AF JUMPI PUSH1 0x7F DUP3 AND SWAP2 POP JUMPDEST PUSH1 0x20 DUP3 LT DUP2 SUB PUSH2 0x2C2 JUMPI PUSH2 0x2C1 PUSH2 0x26B JUMP JUMPDEST JUMPDEST POP SWAP2 SWAP1 POP JUMP JUMPDEST PUSH0 DUP2 SWAP1 POP DUP2 PUSH0 MSTORE PUSH1 0x20 PUSH0 KECCAK256 SWAP1 POP SWAP2 SWAP1 POP JUMP JUMPDEST PUSH0 PUSH1 0x20 PUSH1 0x1F DUP4 ADD DIV SWAP1 POP SWAP2 SWAP1 POP JUMP JUMPDEST PUSH0 DUP3 DUP3 SHL SWAP1 POP SWAP3 SWAP2 POP POP JUMP JUMPDEST PUSH0 PUSH1 0x8 DUP4 MUL PUSH2 0x324 PUSH32 0xFFFFFFFFFFFFFFFFFFFFFFFFFFFFFFFFFFFFFFFFFFFFFFFFFFFFFFFFFFFFFFFF DUP3 PUSH2 0x2E9 JUMP JUMPDEST PUSH2 0x32E DUP7 DUP4 PUSH2 0x2E9 JUMP JUMPDEST SWAP6 POP DUP1 NOT DUP5 AND SWAP4 POP DUP1 DUP7 AND DUP5 OR SWAP3 POP POP POP SWAP4 SWAP3 POP POP POP JUMP JUMPDEST PUSH0 DUP2 SWAP1 POP SWAP2 SWAP1 POP JUMP JUMPDEST PUSH0 DUP2 SWAP1 POP SWAP2 SWAP1 POP JUMP JUMPDEST PUSH0 PUSH2 0x372 PUSH2 0x36D PUSH2 0x368 DUP5 PUSH2 0x346 JUMP JUMPDEST PUSH2 0x34F JUMP JUMPDEST PUSH2 0x346 JUMP JUMPDEST SWAP1 POP SWAP2 SWAP1 POP JUMP JUMPDEST PUSH0 DUP2 SWAP1 POP SWAP2 SWAP1 POP JUMP JUMPDEST PUSH2 0x38B DUP4 PUSH2 0x358 JUMP JUMPDEST PUSH2 0x39F PUSH2 0x397 DUP3 PUSH2 0x379 JUMP JUMPDEST DUP5 DUP5 SLOAD PUSH2 0x2F5 JUMP JUMPDEST DUP3 SSTORE POP POP POP POP JUMP JUMPDEST PUSH0 PUSH0 SWAP1 POP SWAP1 JUMP JUMPDEST PUSH2 0x3B6 PUSH2 0x3A7 JUMP JUMPDEST PUSH2 0x3C1 DUP2 DUP5 DUP5 PUSH2 0x382 JUMP JUMPDEST POP POP POP JUMP JUMPDEST JUMPDEST DUP2 DUP2 LT ISZERO PUSH2 0x3E4 JUMPI PUSH2 0x3D9 PUSH0 DUP3 PUSH2 0x3AE JUMP JUMPDEST PUSH1 0x1 DUP2 ADD SWAP1 POP PUSH2 0x3C7 JUMP JUMPDEST POP POP JUMP JUMPDEST PUSH1 0x1F DUP3 GT ISZERO PUSH2 0x429 JUMPI PUSH2 0x3FA DUP2 PUSH2 0x2C8 JUMP JUMPDEST PUSH2 0x403 DUP5 PUSH2 0x2DA JUMP JUMPDEST DUP2 ADD PUSH1 0x20 DUP6 LT ISZERO PUSH2 0x412 JUMPI DUP2 SWAP1 POP JUMPDEST PUSH2 0x426 PUSH2 0x41E DUP6 PUSH2 0x2DA JUMP JUMPDEST DUP4 ADD DUP3 PUSH2 0x3C6 JUMP JUMPDEST POP POP JUMPDEST POP POP POP JUMP JUMPDEST PUSH0 DUP3 DUP3 SHR SWAP1 POP SWAP3 SWAP2 POP POP JUMP JUMPDEST PUSH0 PUSH2 0x449 PUSH0 NOT DUP5 PUSH1 0x8 MUL PUSH2 0x42E JUMP JUMPDEST NOT DUP1 DUP4 AND SWAP2 POP POP SWAP3 SWAP2 POP POP JUMP JUMPDEST PUSH0 PUSH2 0x461 DUP4 DUP4 PUSH2 0x43A JUMP JUMPDEST SWAP2 POP DUP3 PUSH1 0x2 MUL DUP3 OR SWAP1 POP SWAP3 SWAP2 POP POP JUMP JUMPDEST PUSH2 0x47A DUP3 PUSH2 0x234 JUMP JUMPDEST PUSH8 0xFFFFFFFFFFFFFFFF DUP2 GT ISZERO PUSH2 0x493 JUMPI PUSH2 0x492 PUSH2 0x23E JUMP JUMPDEST JUMPDEST PUSH2 0x49D DUP3 SLOAD PUSH2 0x298 JUMP JUMPDEST PUSH2 0x4A8 DUP3 DUP3 DUP6 PUSH2 0x3E8 JUMP JUMPDEST PUSH0 PUSH1 0x20 SWAP1 POP PUSH1 0x1F DUP4 GT PUSH1 0x1 DUP2 EQ PUSH2 0x4D9 JUMPI PUSH0 DUP5 ISZERO PUSH2 0x4C7 JUMPI DUP3 DUP8 ADD MLOAD SWAP1 POP JUMPDEST PUSH2 0x4D1 DUP6 DUP3 PUSH2 0x456 JUMP JUMPDEST DUP7 SSTORE POP PUSH2 0x538 JUMP JUMPDEST PUSH1 0x1F NOT DUP5 AND PUSH2 0x4E7 DUP7 PUSH2 0x2C8 JUMP JUMPDEST PUSH0 JUMPDEST DUP3 DUP2 LT ISZERO PUSH2 0x50E JUMPI DUP5 DUP10 ADD MLOAD DUP3 SSTORE PUSH1 0x1 DUP3 ADD SWAP2 POP PUSH1 0x20 DUP6 ADD SWAP5 POP PUSH1 0x20 DUP2 ADD SWAP1 POP PUSH2 0x4E9 JUMP JUMPDEST DUP7 DUP4 LT ISZERO PUSH2 0x52B JUMPI DUP5 DUP10 ADD MLOAD PUSH2 0x527 PUSH1 0x1F DUP10 AND DUP3 PUSH2 0x43A JUMP JUMPDEST DUP4 SSTORE POP JUMPDEST PUSH1 0x1 PUSH1 0x2 DUP9 MUL ADD DUP9 SSTORE POP POP POP JUMPDEST POP POP POP POP POP POP JUMP JUMPDEST PUSH0 PUSH0 REVERT JUMPDEST PUSH2 0x54D DUP2 PUSH2 0x346 JUMP JUMPDEST DUP2 EQ PUSH2 0x557 JUMPI PUSH0 PUSH0 REVERT JUMPDEST POP JUMP JUMPDEST PUSH0 DUP2 MLOAD SWAP1 POP PUSH2 0x568 DUP2 PUSH2 0x544 JUMP JUMPDEST SWAP3 SWAP2 POP POP JUMP JUMPDEST PUSH0 PUSH1 0x20 DUP3 DUP5 SUB SLT ISZERO PUSH2 0x583 JUMPI PUSH2 0x582 PUSH2 0x540 JUMP JUMPDEST JUMPDEST PUSH0 PUSH2 0x590 DUP5 DUP3 DUP6 ADD PUSH2 0x55A JUMP JUMPDEST SWAP2 POP POP SWAP3 SWAP2 POP POP JUMP JUMPDEST PUSH32 0x4E487B7100000000000000000000000000000000000000000000000000000000 PUSH0 MSTORE PUSH1 0x11 PUSH1 0x4 MSTORE PUSH1 0x24 PUSH0 REVERT JUMPDEST PUSH0 DUP2 PUSH1 0x1 SHR SWAP1 POP SWAP2 SWAP1 POP JUMP JUMPDEST PUSH0 PUSH0 DUP3 SWAP2 POP DUP4 SWAP1 POP JUMPDEST PUSH1 0x1 DUP6 GT ISZERO PUSH2 0x61B JUMPI DUP1 DUP7 DIV DUP2 GT ISZERO PUSH2 0x5F7 JUMPI PUSH2 0x5F6 PUSH2 0x599 JUMP JUMPDEST JUMPDEST PUSH1 0x1 DUP6 AND ISZERO PUSH2 0x606 JUMPI DUP1 DUP3 MUL SWAP2 POP JUMPDEST DUP1 DUP2 MUL SWAP1 POP PUSH2 0x614 DUP6 PUSH2 0x5C6 JUMP JUMPDEST SWAP5 POP PUSH2 0x5DB JUMP JUMPDEST SWAP5 POP SWAP5 SWAP3 POP POP POP JUMP JUMPDEST PUSH0 DUP3 PUSH2 0x633 JUMPI PUSH1 0x1 SWAP1 POP PUSH2 0x6EE JUMP JUMPDEST DUP2 PUSH2 0x640 JUMPI PUSH0 SWAP1 POP PUSH2 0x6EE JUMP JUMPDEST DUP2 PUSH1 0x1 DUP2 EQ PUSH2 0x656 JUMPI PUSH1 0x2 DUP2 EQ PUSH2 0x660 JUMPI PUSH2 0x68F JUMP JUMPDEST PUSH1 0x1 SWAP2 POP POP PUSH2 0x6EE JUMP JUMPDEST PUSH1 0xFF DUP5 GT ISZERO PUSH2 0x672 JUMPI PUSH2 0x671 PUSH2 0x599 JUMP JUMPDEST JUMPDEST DUP4 PUSH1 0x2 EXP SWAP2 POP DUP5 DUP3 GT ISZERO PUSH2 0x689 JUMPI PUSH2 0x688 PUSH2 0x599 JUMP JUMPDEST JUMPDEST POP PUSH2 0x6EE JUMP JUMPDEST POP PUSH1 0x20 DUP4 LT PUSH2 0x133 DUP4 LT AND PUSH1 0x4E DUP5 LT PUSH1 0xB DUP5 LT AND OR ISZERO PUSH2 0x6C4 JUMPI DUP3 DUP3 EXP SWAP1 POP DUP4 DUP2 GT ISZERO PUSH2 0x6BF JUMPI PUSH2 0x6BE PUSH2 0x599 JUMP JUMPDEST JUMPDEST PUSH2 0x6EE JUMP JUMPDEST PUSH2 0x6D1 DUP5 DUP5 DUP5 PUSH1 0x1 PUSH2 0x5D2 JUMP JUMPDEST SWAP3 POP SWAP1 POP DUP2 DUP5 DIV DUP2 GT ISZERO PUSH2 0x6E8 JUMPI PUSH2 0x6E7 PUSH2 0x599 JUMP JUMPDEST JUMPDEST DUP2 DUP2 MUL SWAP1 POP JUMPDEST SWAP4 SWAP3 POP POP POP JUMP JUMPDEST PUSH0 PUSH1 0xFF DUP3 AND SWAP1 POP SWAP2 SWAP1 POP JUMP JUMPDEST PUSH0 PUSH2 0x70B DUP3 PUSH2 0x346 JUMP JUMPDEST SWAP2 POP PUSH2 0x716 DUP4 PUSH2 0x6F5 JUMP JUMPDEST SWAP3 POP PUSH2 0x743 PUSH32 0xFFFFFFFFFFFFFFFFFFFFFFFFFFFFFFFFFFFFFFFFFFFFFFFFFFFFFFFFFFFFFFFF DUP5 DUP5 PUSH2 0x624 JUMP JUMPDEST SWAP1 POP SWAP3 SWAP2 POP POP JUMP JUMPDEST PUSH0 PUSH2 0x755 DUP3 PUSH2 0x346 JUMP JUMPDEST SWAP2 POP PUSH2 0x760 DUP4 PUSH2 0x346 JUMP JUMPDEST SWAP3 POP DUP3 DUP3 MUL PUSH2 0x76E DUP2 PUSH2 0x346 JUMP JUMPDEST SWAP2 POP DUP3 DUP3 DIV DUP5 EQ DUP4 ISZERO OR PUSH2 0x785 JUMPI PUSH2 0x784 PUSH2 0x599 JUMP JUMPDEST JUMPDEST POP SWAP3 SWAP2 POP POP JUMP JUMPDEST PUSH2 0x795 DUP2 PUSH2 0x346 JUMP JUMPDEST DUP3 MSTORE POP POP JUMP JUMPDEST PUSH0 PUSH1 0x20 DUP3 ADD SWAP1 POP PUSH2 0x7AE PUSH0 DUP4 ADD DUP5 PUSH2 0x78C JUMP JUMPDEST SWAP3 SWAP2 POP POP JUMP JUMPDEST PUSH2 0x1DB9 DUP1 PUSH2 0x7C1 PUSH0 CODECOPY PUSH0 RETURN INVALID PUSH1 0x80 PUSH1 0x40 MSTORE CALLVALUE DUP1 ISZERO PUSH2 0xF JUMPI PUSH0 PUSH0 REVERT JUMPDEST POP PUSH1 0x4 CALLDATASIZE LT PUSH2 0xCD JUMPI PUSH0 CALLDATALOAD PUSH1 0xE0 SHR DUP1 PUSH4 0x75247A58 GT PUSH2 0x8A JUMPI DUP1 PUSH4 0x8DA5CB5B GT PUSH2 0x64 JUMPI DUP1 PUSH4 0x8DA5CB5B EQ PUSH2 0x223 JUMPI DUP1 PUSH4 0x95D89B41 EQ PUSH2 0x241 JUMPI DUP1 PUSH4 0xA9059CBB EQ PUSH2 0x25F JUMPI DUP1 PUSH4 0xDD62ED3E EQ PUSH2 0x28F JUMPI PUSH2 0xCD JUMP JUMPDEST DUP1 PUSH4 0x75247A58 EQ PUSH2 0x1A5 JUMPI DUP1 PUSH4 0x76809CE3 EQ PUSH2 0x1D5 JUMPI DUP1 PUSH4 0x88D695B2 EQ PUSH2 0x1F3 JUMPI PUSH2 0xCD JUMP JUMPDEST DUP1 PUSH4 0x6FDDE03 EQ PUSH2 0xD1 JUMPI DUP1 PUSH4 0x18160DDD EQ PUSH2 0xEF JUMPI DUP1 PUSH4 0x3112AE5B EQ PUSH2 0x10D JUMPI DUP1 PUSH4 0x40C10F19 EQ PUSH2 0x13D JUMPI DUP1 PUSH4 0x42966C68 EQ PUSH2 0x159 JUMPI DUP1 PUSH4 0x70A08231 EQ PUSH2 0x175 JUMPI JUMPDEST PUSH0 PUSH0 REVERT JUMPDEST PUSH2 0xD9 PUSH2 0x2BF JUMP JUMPDEST PUSH1 0x40 MLOAD PUSH2 0xE6 SWAP2 SWAP1 PUSH2 0x12E1 JUMP JUMPDEST PUSH1 0x40 MLOAD DUP1 SWAP2 SUB SWAP1 RETURN JUMPDEST PUSH2 0xF7 PUSH2 0x34A JUMP JUMPDEST PUSH1 0x40 MLOAD PUSH2 0x104 SWAP2 SWAP1 PUSH2 0x1319 JUMP JUMPDEST PUSH1 0x40 MLOAD DUP1 SWAP2 SUB SWAP1 RETURN JUMPDEST PUSH2 0x127 PUSH1 0x4 DUP1 CALLDATASIZE SUB DUP2 ADD SWAP1 PUSH2 0x122 SWAP2 SWAP1 PUSH2 0x13C7 JUMP JUMPDEST PUSH2 0x350 JUMP JUMPDEST PUSH1 0x40 MLOAD PUSH2 0x134 SWAP2 SWAP1 PUSH2 0x1431 JUMP JUMPDEST PUSH1 0x40 MLOAD DUP1 SWAP2 SUB SWAP1 RETURN JUMPDEST PUSH2 0x157 PUSH1 0x4 DUP1 CALLDATASIZE SUB DUP2 ADD SWAP1 PUSH2 0x152 SWAP2 SWAP1 PUSH2 0x144A JUMP JUMPDEST PUSH2 0x70C JUMP JUMPDEST STOP JUMPDEST PUSH2 0x173 PUSH1 0x4 DUP1 CALLDATASIZE SUB DUP2 ADD SWAP1 PUSH2 0x16E SWAP2 SWAP1 PUSH2 0x1488 JUMP JUMPDEST PUSH2 0x8DD JUMP JUMPDEST STOP JUMPDEST PUSH2 0x18F PUSH1 0x4 DUP1 CALLDATASIZE SUB DUP2 ADD SWAP1 PUSH2 0x18A SWAP2 SWAP1 PUSH2 0x14B3 JUMP JUMPDEST PUSH2 0xA30 JUMP JUMPDEST PUSH1 0x40 MLOAD PUSH2 0x19C SWAP2 SWAP1 PUSH2 0x1319 JUMP JUMPDEST PUSH1 0x40 MLOAD DUP1 SWAP2 SUB SWAP1 RETURN JUMPDEST PUSH2 0x1BF PUSH1 0x4 DUP1 CALLDATASIZE SUB DUP2 ADD SWAP1 PUSH2 0x1BA SWAP2 SWAP1 PUSH2 0x144A JUMP JUMPDEST PUSH2 0xA45 JUMP JUMPDEST PUSH1 0x40 MLOAD PUSH2 0x1CC SWAP2 SWAP1 PUSH2 0x1431 JUMP JUMPDEST PUSH1 0x40 MLOAD DUP1 SWAP2 SUB SWAP1 RETURN JUMPDEST PUSH2 0x1DD PUSH2 0xBA0 JUMP JUMPDEST PUSH1 0x40 MLOAD PUSH2 0x1EA SWAP2 SWAP1 PUSH2 0x14F9 JUMP JUMPDEST PUSH1 0x40 MLOAD DUP1 SWAP2 SUB SWAP1 RETURN JUMPDEST PUSH2 0x20D PUSH1 0x4 DUP1 CALLDATASIZE SUB DUP2 ADD SWAP1 PUSH2 0x208 SWAP2 SWAP1 PUSH2 0x1712 JUMP JUMPDEST PUSH2 0xBB2 JUMP JUMPDEST PUSH1 0x40 MLOAD PUSH2 0x21A SWAP2 SWAP1 PUSH2 0x1431 JUMP JUMPDEST PUSH1 0x40 MLOAD DUP1 SWAP2 SUB SWAP1 RETURN JUMPDEST PUSH2 0x22B PUSH2 0xF9C JUMP JUMPDEST PUSH1 0x40 MLOAD PUSH2 0x238 SWAP2 SWAP1 PUSH2 0x1797 JUMP JUMPDEST PUSH1 0x40 MLOAD DUP1 SWAP2 SUB SWAP1 RETURN JUMPDEST PUSH2 0x249 PUSH2 0xFC1 JUMP JUMPDEST PUSH1 0x40 MLOAD PUSH2 0x256 SWAP2 SWAP1 PUSH2 0x12E1 JUMP JUMPDEST PUSH1 0x40 MLOAD DUP1 SWAP2 SUB SWAP1 RETURN JUMPDEST PUSH2 0x279 PUSH1 0x4 DUP1 CALLDATASIZE SUB DUP2 ADD SWAP1 PUSH2 0x274 SWAP2 SWAP1 PUSH2 0x144A JUMP JUMPDEST PUSH2 0x104D JUMP JUMPDEST PUSH1 0x40 MLOAD PUSH2 0x286 SWAP2 SWAP1 PUSH2 0x1431 JUMP JUMPDEST PUSH1 0x40 MLOAD DUP1 SWAP2 SUB SWAP1 RETURN JUMPDEST PUSH2 0x2A9 PUSH1 0x4 DUP1 CALLDATASIZE SUB DUP2 ADD SWAP1 PUSH2 0x2A4 SWAP2 SWAP1 PUSH2 0x17B0 JUMP JUMPDEST PUSH2 0x1251 JUMP JUMPDEST PUSH1 0x40 MLOAD PUSH2 0x2B6 SWAP2 SWAP1 PUSH2 0x1319 JUMP JUMPDEST PUSH1 0x40 MLOAD DUP1 SWAP2 SUB SWAP1 RETURN JUMPDEST PUSH0 DUP1 SLOAD PUSH2 0x2CB SWAP1 PUSH2 0x181B JUMP JUMPDEST DUP1 PUSH1 0x1F ADD PUSH1 0x20 DUP1 SWAP2 DIV MUL PUSH1 0x20 ADD PUSH1 0x40 MLOAD SWAP1 DUP2 ADD PUSH1 0x40 MSTORE DUP1 SWAP3 SWAP2 SWAP1 DUP2 DUP2 MSTORE PUSH1 0x20 ADD DUP3 DUP1 SLOAD PUSH2 0x2F7 SWAP1 PUSH2 0x181B JUMP JUMPDEST DUP1 ISZERO PUSH2 0x342 JUMPI DUP1 PUSH1 0x1F LT PUSH2 0x319 JUMPI PUSH2 0x100 DUP1 DUP4 SLOAD DIV MUL DUP4 MSTORE SWAP2 PUSH1 0x20 ADD SWAP2 PUSH2 0x342 JUMP JUMPDEST DUP3 ADD SWAP2 SWAP1 PUSH0 MSTORE PUSH1 0x20 PUSH0 KECCAK256 SWAP1 JUMPDEST DUP2 SLOAD DUP2 MSTORE SWAP1 PUSH1 0x1 ADD SWAP1 PUSH1 0x20 ADD DUP1 DUP4 GT PUSH2 0x325 JUMPI DUP3 SWAP1 SUB PUSH1 0x1F AND DUP3 ADD SWAP2 JUMPDEST POP POP POP POP POP DUP2 JUMP JUMPDEST PUSH1 0x3 SLOAD DUP2 JUMP JUMPDEST PUSH0 PUSH0 PUSH20 0xFFFFFFFFFFFFFFFFFFFFFFFFFFFFFFFFFFFFFFFF AND DUP5 PUSH20 0xFFFFFFFFFFFFFFFFFFFFFFFFFFFFFFFFFFFFFFFF AND SUB PUSH2 0x3BF JUMPI PUSH1 0x40 MLOAD PUSH32 0x8C379A000000000000000000000000000000000000000000000000000000000 DUP2 MSTORE PUSH1 0x4 ADD PUSH2 0x3B6 SWAP1 PUSH2 0x1895 JUMP JUMPDEST PUSH1 0x40 MLOAD DUP1 SWAP2 SUB SWAP1 REVERT JUMPDEST PUSH0 PUSH20 0xFFFFFFFFFFFFFFFFFFFFFFFFFFFFFFFFFFFFFFFF AND DUP4 PUSH20 0xFFFFFFFFFFFFFFFFFFFFFFFFFFFFFFFFFFFFFFFF AND SUB PUSH2 0x42D JUMPI PUSH1 0x40 MLOAD PUSH32 0x8C379A000000000000000000000000000000000000000000000000000000000 DUP2 MSTORE PUSH1 0x4 ADD PUSH2 0x424 SWAP1 PUSH2 0x18FD JUMP JUMPDEST PUSH1 0x40 MLOAD DUP1 SWAP2 SUB SWAP1 REVERT JUMPDEST DUP2 PUSH1 0x5 PUSH0 DUP7 PUSH20 0xFFFFFFFFFFFFFFFFFFFFFFFFFFFFFFFFFFFFFFFF AND PUSH20 0xFFFFFFFFFFFFFFFFFFFFFFFFFFFFFFFFFFFFFFFF AND DUP2 MSTORE PUSH1 0x20 ADD SWAP1 DUP2 MSTORE PUSH1 0x20 ADD PUSH0 KECCAK256 SLOAD LT ISZERO PUSH2 0x4AD JUMPI PUSH1 0x40 MLOAD PUSH32 0x8C379A000000000000000000000000000000000000000000000000000000000 DUP2 MSTORE PUSH1 0x4 ADD PUSH2 0x4A4 SWAP1 PUSH2 0x1965 JUMP JUMPDEST PUSH1 0x40 MLOAD DUP1 SWAP2 SUB SWAP1 REVERT JUMPDEST DUP2 PUSH1 0x6 PUSH0 DUP7 PUSH20 0xFFFFFFFFFFFFFFFFFFFFFFFFFFFFFFFFFFFFFFFF AND PUSH20 0xFFFFFFFFFFFFFFFFFFFFFFFFFFFFFFFFFFFFFFFF AND DUP2 MSTORE PUSH1 0x20 ADD SWAP1 DUP2 MSTORE PUSH1 0x20 ADD PUSH0 KECCAK256 PUSH0 CALLER PUSH20 0xFFFFFFFFFFFFFFFFFFFFFFFFFFFFFFFFFFFFFFFF AND PUSH20 0xFFFFFFFFFFFFFFFFFFFFFFFFFFFFFFFFFFFFFFFF AND DUP2 MSTORE PUSH1 0x20 ADD SWAP1 DUP2 MSTORE PUSH1 0x20 ADD PUSH0 KECCAK256 SLOAD LT ISZERO PUSH2 0x568 JUMPI PUSH1 0x40 MLOAD PUSH32 0x8C379A000000000000000000000000000000000000000000000000000000000 DUP2 MSTORE PUSH1 0x4 ADD PUSH2 0x55F SWAP1 PUSH2 0x19CD JUMP JUMPDEST PUSH1 0x40 MLOAD DUP1 SWAP2 SUB SWAP1 REVERT JUMPDEST DUP2 PUSH1 0x6 PUSH0 DUP7 PUSH20 0xFFFFFFFFFFFFFFFFFFFFFFFFFFFFFFFFFFFFFFFF AND PUSH20 0xFFFFFFFFFFFFFFFFFFFFFFFFFFFFFFFFFFFFFFFF AND DUP2 MSTORE PUSH1 0x20 ADD SWAP1 DUP2 MSTORE PUSH1 0x20 ADD PUSH0 KECCAK256 PUSH0 CALLER PUSH20 0xFFFFFFFFFFFFFFFFFFFFFFFFFFFFFFFFFFFFFFFF AND PUSH20 0xFFFFFFFFFFFFFFFFFFFFFFFFFFFFFFFFFFFFFFFF AND DUP2 MSTORE PUSH1 0x20 ADD SWAP1 DUP2 MSTORE PUSH1 0x20 ADD PUSH0 KECCAK256 PUSH0 DUP3 DUP3 SLOAD PUSH2 0x5EF SWAP2 SWAP1 PUSH2 0x1A18 JUMP JUMPDEST SWAP3 POP POP DUP2 SWAP1 SSTORE POP DUP2 PUSH1 0x5 PUSH0 DUP7 PUSH20 0xFFFFFFFFFFFFFFFFFFFFFFFFFFFFFFFFFFFFFFFF AND PUSH20 0xFFFFFFFFFFFFFFFFFFFFFFFFFFFFFFFFFFFFFFFF AND DUP2 MSTORE PUSH1 0x20 ADD SWAP1 DUP2 MSTORE PUSH1 0x20 ADD PUSH0 KECCAK256 PUSH0 DUP3 DUP3 SLOAD PUSH2 0x642 SWAP2 SWAP1 PUSH2 0x1A18 JUMP JUMPDEST SWAP3 POP POP DUP2 SWAP1 SSTORE POP DUP2 PUSH1 0x5 PUSH0 DUP6 PUSH20 0xFFFFFFFFFFFFFFFFFFFFFFFFFFFFFFFFFFFFFFFF AND PUSH20 0xFFFFFFFFFFFFFFFFFFFFFFFFFFFFFFFFFFFFFFFF AND DUP2 MSTORE PUSH1 0x20 ADD SWAP1 DUP2 MSTORE PUSH1 0x20 ADD PUSH0 KECCAK256 PUSH0 DUP3 DUP3 SLOAD PUSH2 0x695 SWAP2 SWAP1 PUSH2 0x1A4B JUMP JUMPDEST SWAP3 POP POP DUP2 SWAP1 SSTORE POP DUP3 PUSH20 0xFFFFFFFFFFFFFFFFFFFFFFFFFFFFFFFFFFFFFFFF AND DUP5 PUSH20 0xFFFFFFFFFFFFFFFFFFFFFFFFFFFFFFFFFFFFFFFF AND PUSH32 0x8C5BE1E5EBEC7D5BD14F71427D1E84F3DD0314C0F7B2291E5B200AC8C7C3B925 DUP5 PUSH1 0x40 MLOAD PUSH2 0x6F9 SWAP2 SWAP1 PUSH2 0x1319 JUMP JUMPDEST PUSH1 0x40 MLOAD DUP1 SWAP2 SUB SWAP1 LOG3 PUSH1 0x1 SWAP1 POP SWAP4 SWAP3 POP POP POP JUMP JUMPDEST PUSH1 0x4 PUSH0 SWAP1 SLOAD SWAP1 PUSH2 0x100 EXP SWAP1 DIV PUSH20 0xFFFFFFFFFFFFFFFFFFFFFFFFFFFFFFFFFFFFFFFF AND PUSH20 0xFFFFFFFFFFFFFFFFFFFFFFFFFFFFFFFFFFFFFFFF AND CALLER PUSH20 0xFFFFFFFFFFFFFFFFFFFFFFFFFFFFFFFFFFFFFFFF AND EQ PUSH2 0x79B JUMPI PUSH1 0x40 MLOAD PUSH32 0x8C379A000000000000000000000000000000000000000000000000000000000 DUP2 MSTORE PUSH1 0x4 ADD PUSH2 0x792 SWAP1 PUSH2 0x1AC8 JUMP JUMPDEST PUSH1 0x40 MLOAD DUP1 SWAP2 SUB SWAP1 REVERT JUMPDEST PUSH0 PUSH20 0xFFFFFFFFFFFFFFFFFFFFFFFFFFFFFFFFFFFFFFFF AND DUP3 PUSH20 0xFFFFFFFFFFFFFFFFFFFFFFFFFFFFFFFFFFFFFFFF AND SUB PUSH2 0x809 JUMPI PUSH1 0x40 MLOAD PUSH32 0x8C379A000000000000000000000000000000000000000000000000000000000 DUP2 MSTORE PUSH1 0x4 ADD PUSH2 0x800 SWAP1 PUSH2 0x1B30 JUMP JUMPDEST PUSH1 0x40 MLOAD DUP1 SWAP2 SUB SWAP1 REVERT JUMPDEST DUP1 PUSH1 0x3 PUSH0 DUP3 DUP3 SLOAD PUSH2 0x81A SWAP2 SWAP1 PUSH2 0x1A4B JUMP JUMPDEST SWAP3 POP POP DUP2 SWAP1 SSTORE POP DUP1 PUSH1 0x5 PUSH0 DUP5 PUSH20 0xFFFFFFFFFFFFFFFFFFFFFFFFFFFFFFFFFFFFFFFF AND PUSH20 0xFFFFFFFFFFFFFFFFFFFFFFFFFFFFFFFFFFFFFFFF AND DUP2 MSTORE PUSH1 0x20 ADD SWAP1 DUP2 MSTORE PUSH1 0x20 ADD PUSH0 KECCAK256 PUSH0 DUP3 DUP3 SLOAD PUSH2 0x86D SWAP2 SWAP1 PUSH2 0x1A4B JUMP JUMPDEST SWAP3 POP POP DUP2 SWAP1 SSTORE POP DUP2 PUSH20 0xFFFFFFFFFFFFFFFFFFFFFFFFFFFFFFFFFFFFFFFF AND PUSH0 PUSH20 0xFFFFFFFFFFFFFFFFFFFFFFFFFFFFFFFFFFFFFFFF AND PUSH32 0xDDF252AD1BE2C89B69C2B068FC378DAA952BA7F163C4A11628F55A4DF523B3EF DUP4 PUSH1 0x40 MLOAD PUSH2 0x8D1 SWAP2 SWAP1 PUSH2 0x1319 JUMP JUMPDEST PUSH1 0x40 MLOAD DUP1 SWAP2 SUB SWAP1 LOG3 POP POP JUMP JUMPDEST DUP1 PUSH1 0x5 PUSH0 CALLER PUSH20 0xFFFFFFFFFFFFFFFFFFFFFFFFFFFFFFFFFFFFFFFF AND PUSH20 0xFFFFFFFFFFFFFFFFFFFFFFFFFFFFFFFFFFFFFFFF AND DUP2 MSTORE PUSH1 0x20 ADD SWAP1 DUP2 MSTORE PUSH1 0x20 ADD PUSH0 KECCAK256 SLOAD LT ISZERO PUSH2 0x95D JUMPI PUSH1 0x40 MLOAD PUSH32 0x8C379A000000000000000000000000000000000000000000000000000000000 DUP2 MSTORE PUSH1 0x4 ADD PUSH2 0x954 SWAP1 PUSH2 0x1965 JUMP JUMPDEST PUSH1 0x40 MLOAD DUP1 SWAP2 SUB SWAP1 REVERT JUMPDEST DUP1 PUSH1 0x3 PUSH0 DUP3 DUP3 SLOAD PUSH2 0x96E SWAP2 SWAP1 PUSH2 0x1A18 JUMP JUMPDEST SWAP3 POP POP DUP2 SWAP1 SSTORE POP DUP1 PUSH1 0x5 PUSH0 CALLER PUSH20 0xFFFFFFFFFFFFFFFFFFFFFFFFFFFFFFFFFFFFFFFF AND PUSH20 0xFFFFFFFFFFFFFFFFFFFFFFFFFFFFFFFFFFFFFFFF AND DUP2 MSTORE PUSH1 0x20 ADD SWAP1 DUP2 MSTORE PUSH1 0x20 ADD PUSH0 KECCAK256 PUSH0 DUP3 DUP3 SLOAD PUSH2 0x9C1 SWAP2 SWAP1 PUSH2 0x1A18 JUMP JUMPDEST SWAP3 POP POP DUP2 SWAP1 SSTORE POP PUSH0 PUSH20 0xFFFFFFFFFFFFFFFFFFFFFFFFFFFFFFFFFFFFFFFF AND CALLER PUSH20 0xFFFFFFFFFFFFFFFFFFFFFFFFFFFFFFFFFFFFFFFF AND PUSH32 0xDDF252AD1BE2C89B69C2B068FC378DAA952BA7F163C4A11628F55A4DF523B3EF DUP4 PUSH1 0x40 MLOAD PUSH2 0xA25 SWAP2 SWAP1 PUSH2 0x1319 JUMP JUMPDEST PUSH1 0x40 MLOAD DUP1 SWAP2 SUB SWAP1 LOG3 POP JUMP JUMPDEST PUSH1 0x5 PUSH1 0x20 MSTORE DUP1 PUSH0 MSTORE PUSH1 0x40 PUSH0 KECCAK256 PUSH0 SWAP2 POP SWAP1 POP SLOAD DUP2 JUMP JUMPDEST PUSH0 PUSH0 PUSH20 0xFFFFFFFFFFFFFFFFFFFFFFFFFFFFFFFFFFFFFFFF AND DUP4 PUSH20 0xFFFFFFFFFFFFFFFFFFFFFFFFFFFFFFFFFFFFFFFF AND SUB PUSH2 0xAB4 JUMPI PUSH1 0x40 MLOAD PUSH32 0x8C379A000000000000000000000000000000000000000000000000000000000 DUP2 MSTORE PUSH1 0x4 ADD PUSH2 0xAAB SWAP1 PUSH2 0x1B30 JUMP JUMPDEST PUSH1 0x40 MLOAD DUP1 SWAP2 SUB SWAP1 REVERT JUMPDEST DUP2 PUSH1 0x6 PUSH0 CALLER PUSH20 0xFFFFFFFFFFFFFFFFFFFFFFFFFFFFFFFFFFFFFFFF AND PUSH20 0xFFFFFFFFFFFFFFFFFFFFFFFFFFFFFFFFFFFFFFFF AND DUP2 MSTORE PUSH1 0x20 ADD SWAP1 DUP2 MSTORE PUSH1 0x20 ADD PUSH0 KECCAK256 PUSH0 DUP6 PUSH20 0xFFFFFFFFFFFFFFFFFFFFFFFFFFFFFFFFFFFFFFFF AND PUSH20 0xFFFFFFFFFFFFFFFFFFFFFFFFFFFFFFFFFFFFFFFF AND DUP2 MSTORE PUSH1 0x20 ADD SWAP1 DUP2 MSTORE PUSH1 0x20 ADD PUSH0 KECCAK256 DUP2 SWAP1 SSTORE POP DUP3 PUSH20 0xFFFFFFFFFFFFFFFFFFFFFFFFFFFFFFFFFFFFFFFF AND CALLER PUSH20 0xFFFFFFFFFFFFFFFFFFFFFFFFFFFFFFFFFFFFFFFF AND PUSH32 0x8C5BE1E5EBEC7D5BD14F71427D1E84F3DD0314C0F7B2291E5B200AC8C7C3B925 DUP5 PUSH1 0x40 MLOAD PUSH2 0xB8E SWAP2 SWAP1 PUSH2 0x1319 JUMP JUMPDEST PUSH1 0x40 MLOAD DUP1 SWAP2 SUB SWAP1 LOG3 PUSH1 0x1 SWAP1 POP SWAP3 SWAP2 POP POP JUMP JUMPDEST PUSH1 0x2 PUSH0 SWAP1 SLOAD SWAP1 PUSH2 0x100 EXP SWAP1 DIV PUSH1 0xFF AND DUP2 JUMP JUMPDEST PUSH0 DUP2 MLOAD DUP4 MLOAD EQ PUSH2 0xBF7 JUMPI PUSH1 0x40 MLOAD PUSH32 0x8C379A000000000000000000000000000000000000000000000000000000000 DUP2 MSTORE PUSH1 0x4 ADD PUSH2 0xBEE SWAP1 PUSH2 0x1B98 JUMP JUMPDEST PUSH1 0x40 MLOAD DUP1 SWAP2 SUB SWAP1 REVERT JUMPDEST PUSH1 0x3 DUP4 MLOAD GT ISZERO PUSH2 0xC3C JUMPI PUSH1 0x40 MLOAD PUSH32 0x8C379A000000000000000000000000000000000000000000000000000000000 DUP2 MSTORE PUSH1 0x4 ADD PUSH2 0xC33 SWAP1 PUSH2 0x1C00 JUMP JUMPDEST PUSH1 0x40 MLOAD DUP1 SWAP2 SUB SWAP1 REVERT JUMPDEST PUSH0 PUSH0 SWAP1 POP PUSH0 PUSH0 SWAP1 POP JUMPDEST DUP4 MLOAD DUP2 LT ISZERO PUSH2 0xC83 JUMPI DUP4 DUP2 DUP2 MLOAD DUP2 LT PUSH2 0xC61 JUMPI PUSH2 0xC60 PUSH2 0x1C1E JUMP JUMPDEST JUMPDEST PUSH1 0x20 MUL PUSH1 0x20 ADD ADD MLOAD DUP3 PUSH2 0xC74 SWAP2 SWAP1 PUSH2 0x1A4B JUMP JUMPDEST SWAP2 POP DUP1 DUP1 PUSH1 0x1 ADD SWAP2 POP POP PUSH2 0xC45 JUMP JUMPDEST POP DUP1 PUSH1 0x5 PUSH0 CALLER PUSH20 0xFFFFFFFFFFFFFFFFFFFFFFFFFFFFFFFFFFFFFFFF AND PUSH20 0xFFFFFFFFFFFFFFFFFFFFFFFFFFFFFFFFFFFFFFFF AND DUP2 MSTORE PUSH1 0x20 ADD SWAP1 DUP2 MSTORE PUSH1 0x20 ADD PUSH0 KECCAK256 SLOAD LT ISZERO PUSH2 0xD04 JUMPI PUSH1 0x40 MLOAD PUSH32 0x8C379A000000000000000000000000000000000000000000000000000000000 DUP2 MSTORE PUSH1 0x4 ADD PUSH2 0xCFB SWAP1 PUSH2 0x1C95 JUMP JUMPDEST PUSH1 0x40 MLOAD DUP1 SWAP2 SUB SWAP1 REVERT JUMPDEST PUSH0 PUSH0 SWAP1 POP JUMPDEST DUP5 MLOAD DUP2 LT ISZERO PUSH2 0xF90 JUMPI PUSH0 PUSH20 0xFFFFFFFFFFFFFFFFFFFFFFFFFFFFFFFFFFFFFFFF AND DUP6 DUP3 DUP2 MLOAD DUP2 LT PUSH2 0xD3C JUMPI PUSH2 0xD3B PUSH2 0x1C1E JUMP JUMPDEST JUMPDEST PUSH1 0x20 MUL PUSH1 0x20 ADD ADD MLOAD PUSH20 0xFFFFFFFFFFFFFFFFFFFFFFFFFFFFFFFFFFFFFFFF AND SUB PUSH2 0xD9A JUMPI PUSH1 0x40 MLOAD PUSH32 0x8C379A000000000000000000000000000000000000000000000000000000000 DUP2 MSTORE PUSH1 0x4 ADD PUSH2 0xD91 SWAP1 PUSH2 0x1B30 JUMP JUMPDEST PUSH1 0x40 MLOAD DUP1 SWAP2 SUB SWAP1 REVERT JUMPDEST PUSH0 DUP5 DUP3 DUP2 MLOAD DUP2 LT PUSH2 0xDAE JUMPI PUSH2 0xDAD PUSH2 0x1C1E JUMP JUMPDEST JUMPDEST PUSH1 0x20 MUL PUSH1 0x20 ADD ADD MLOAD GT PUSH2 0xDF6 JUMPI PUSH1 0x40 MLOAD PUSH32 0x8C379A000000000000000000000000000000000000000000000000000000000 DUP2 MSTORE PUSH1 0x4 ADD PUSH2 0xDED SWAP1 PUSH2 0x1CFD JUMP JUMPDEST PUSH1 0x40 MLOAD DUP1 SWAP2 SUB SWAP1 REVERT JUMPDEST DUP4 DUP2 DUP2 MLOAD DUP2 LT PUSH2 0xE09 JUMPI PUSH2 0xE08 PUSH2 0x1C1E JUMP JUMPDEST JUMPDEST PUSH1 0x20 MUL PUSH1 0x20 ADD ADD MLOAD PUSH1 0x5 PUSH0 CALLER PUSH20 0xFFFFFFFFFFFFFFFFFFFFFFFFFFFFFFFFFFFFFFFF AND PUSH20 0xFFFFFFFFFFFFFFFFFFFFFFFFFFFFFFFFFFFFFFFF AND DUP2 MSTORE PUSH1 0x20 ADD SWAP1 DUP2 MSTORE PUSH1 0x20 ADD PUSH0 KECCAK256 PUSH0 DUP3 DUP3 SLOAD PUSH2 0xE5C SWAP2 SWAP1 PUSH2 0x1A18 JUMP JUMPDEST SWAP3 POP POP DUP2 SWAP1 SSTORE POP DUP4 DUP2 DUP2 MLOAD DUP2 LT PUSH2 0xE76 JUMPI PUSH2 0xE75 PUSH2 0x1C1E JUMP JUMPDEST JUMPDEST PUSH1 0x20 MUL PUSH1 0x20 ADD ADD MLOAD PUSH1 0x5 PUSH0 DUP8 DUP5 DUP2 MLOAD DUP2 LT PUSH2 0xE94 JUMPI PUSH2 0xE93 PUSH2 0x1C1E JUMP JUMPDEST JUMPDEST PUSH1 0x20 MUL PUSH1 0x20 ADD ADD MLOAD PUSH20 0xFFFFFFFFFFFFFFFFFFFFFFFFFFFFFFFFFFFFFFFF AND PUSH20 0xFFFFFFFFFFFFFFFFFFFFFFFFFFFFFFFFFFFFFFFF AND DUP2 MSTORE PUSH1 0x20 ADD SWAP1 DUP2 MSTORE PUSH1 0x20 ADD PUSH0 KECCAK256 PUSH0 DUP3 DUP3 SLOAD PUSH2 0xEE3 SWAP2 SWAP1 PUSH2 0x1A4B JUMP JUMPDEST SWAP3 POP POP DUP2 SWAP1 SSTORE POP DUP5 DUP2 DUP2 MLOAD DUP2 LT PUSH2 0xEFD JUMPI PUSH2 0xEFC PUSH2 0x1C1E JUMP JUMPDEST JUMPDEST PUSH1 0x20 MUL PUSH1 0x20 ADD ADD MLOAD PUSH20 0xFFFFFFFFFFFFFFFFFFFFFFFFFFFFFFFFFFFFFFFF AND CALLER PUSH20 0xFFFFFFFFFFFFFFFFFFFFFFFFFFFFFFFFFFFFFFFF AND PUSH32 0xDDF252AD1BE2C89B69C2B068FC378DAA952BA7F163C4A11628F55A4DF523B3EF DUP7 DUP5 DUP2 MLOAD DUP2 LT PUSH2 0xF66 JUMPI PUSH2 0xF65 PUSH2 0x1C1E JUMP JUMPDEST JUMPDEST PUSH1 0x20 MUL PUSH1 0x20 ADD ADD MLOAD PUSH1 0x40 MLOAD PUSH2 0xF7B SWAP2 SWAP1 PUSH2 0x1319 JUMP JUMPDEST PUSH1 0x40 MLOAD DUP1 SWAP2 SUB SWAP1 LOG3 DUP1 DUP1 PUSH1 0x1 ADD SWAP2 POP POP PUSH2 0xD09 JUMP JUMPDEST POP PUSH1 0x1 SWAP2 POP POP SWAP3 SWAP2 POP POP JUMP JUMPDEST PUSH1 0x4 PUSH0 SWAP1 SLOAD SWAP1 PUSH2 0x100 EXP SWAP1 DIV PUSH20 0xFFFFFFFFFFFFFFFFFFFFFFFFFFFFFFFFFFFFFFFF AND DUP2 JUMP JUMPDEST PUSH1 0x1 DUP1 SLOAD PUSH2 0xFCE SWAP1 PUSH2 0x181B JUMP JUMPDEST DUP1 PUSH1 0x1F ADD PUSH1 0x20 DUP1 SWAP2 DIV MUL PUSH1 0x20 ADD PUSH1 0x40 MLOAD SWAP1 DUP2 ADD PUSH1 0x40 MSTORE DUP1 SWAP3 SWAP2 SWAP1 DUP2 DUP2 MSTORE PUSH1 0x20 ADD DUP3 DUP1 SLOAD PUSH2 0xFFA SWAP1 PUSH2 0x181B JUMP JUMPDEST DUP1 ISZERO PUSH2 0x1045 JUMPI DUP1 PUSH1 0x1F LT PUSH2 0x101C JUMPI PUSH2 0x100 DUP1 DUP4 SLOAD DIV MUL DUP4 MSTORE SWAP2 PUSH1 0x20 ADD SWAP2 PUSH2 0x1045 JUMP JUMPDEST DUP3 ADD SWAP2 SWAP1 PUSH0 MSTORE PUSH1 0x20 PUSH0 KECCAK256 SWAP1 JUMPDEST DUP2 SLOAD DUP2 MSTORE SWAP1 PUSH1 0x1 ADD SWAP1 PUSH1 0x20 ADD DUP1 DUP4 GT PUSH2 0x1028 JUMPI DUP3 SWAP1 SUB PUSH1 0x1F AND DUP3 ADD SWAP2 JUMPDEST POP POP POP POP POP DUP2 JUMP JUMPDEST PUSH0 PUSH0 PUSH20 0xFFFFFFFFFFFFFFFFFFFFFFFFFFFFFFFFFFFFFFFF AND DUP4 PUSH20 0xFFFFFFFFFFFFFFFFFFFFFFFFFFFFFFFFFFFFFFFF AND SUB PUSH2 0x10BC JUMPI PUSH1 0x40 MLOAD PUSH32 0x8C379A000000000000000000000000000000000000000000000000000000000 DUP2 MSTORE PUSH1 0x4 ADD PUSH2 0x10B3 SWAP1 PUSH2 0x1B30 JUMP JUMPDEST PUSH1 0x40 MLOAD DUP1 SWAP2 SUB SWAP1 REVERT JUMPDEST DUP2 PUSH1 0x5 PUSH0 CALLER PUSH20 0xFFFFFFFFFFFFFFFFFFFFFFFFFFFFFFFFFFFFFFFF AND PUSH20 0xFFFFFFFFFFFFFFFFFFFFFFFFFFFFFFFFFFFFFFFF AND DUP2 MSTORE PUSH1 0x20 ADD SWAP1 DUP2 MSTORE PUSH1 0x20 ADD PUSH0 KECCAK256 SLOAD LT ISZERO PUSH2 0x113C JUMPI PUSH1 0x40 MLOAD PUSH32 0x8C379A000000000000000000000000000000000000000000000000000000000 DUP2 MSTORE PUSH1 0x4 ADD PUSH2 0x1133 SWAP1 PUSH2 0x1D65 JUMP JUMPDEST PUSH1 0x40 MLOAD DUP1 SWAP2 SUB SWAP1 REVERT JUMPDEST DUP2 PUSH1 0x5 PUSH0 CALLER PUSH20 0xFFFFFFFFFFFFFFFFFFFFFFFFFFFFFFFFFFFFFFFF AND PUSH20 0xFFFFFFFFFFFFFFFFFFFFFFFFFFFFFFFFFFFFFFFF AND DUP2 MSTORE PUSH1 0x20 ADD SWAP1 DUP2 MSTORE PUSH1 0x20 ADD PUSH0 KECCAK256 PUSH0 DUP3 DUP3 SLOAD PUSH2 0x1188 SWAP2 SWAP1 PUSH2 0x1A18 JUMP JUMPDEST SWAP3 POP POP DUP2 SWAP1 SSTORE POP DUP2 PUSH1 0x5 PUSH0 DUP6 PUSH20 0xFFFFFFFFFFFFFFFFFFFFFFFFFFFFFFFFFFFFFFFF AND PUSH20 0xFFFFFFFFFFFFFFFFFFFFFFFFFFFFFFFFFFFFFFFF AND DUP2 MSTORE PUSH1 0x20 ADD SWAP1 DUP2 MSTORE PUSH1 0x20 ADD PUSH0 KECCAK256 PUSH0 DUP3 DUP3 SLOAD PUSH2 0x11DB SWAP2 SWAP1 PUSH2 0x1A4B JUMP JUMPDEST SWAP3 POP POP DUP2 SWAP1 SSTORE POP DUP3 PUSH20 0xFFFFFFFFFFFFFFFFFFFFFFFFFFFFFFFFFFFFFFFF AND CALLER PUSH20 0xFFFFFFFFFFFFFFFFFFFFFFFFFFFFFFFFFFFFFFFF AND PUSH32 0xDDF252AD1BE2C89B69C2B068FC378DAA952BA7F163C4A11628F55A4DF523B3EF DUP5 PUSH1 0x40 MLOAD PUSH2 0x123F SWAP2 SWAP1 PUSH2 0x1319 JUMP JUMPDEST PUSH1 0x40 MLOAD DUP1 SWAP2 SUB SWAP1 LOG3 PUSH1 0x1 SWAP1 POP SWAP3 SWAP2 POP POP JUMP JUMPDEST PUSH1 0x6 PUSH1 0x20 MSTORE DUP2 PUSH0 MSTORE PUSH1 0x40 PUSH0 KECCAK256 PUSH1 0x20 MSTORE DUP1 PUSH0 MSTORE PUSH1 0x40 PUSH0 KECCAK256 PUSH0 SWAP2 POP SWAP2 POP POP SLOAD DUP2 JUMP JUMPDEST PUSH0 DUP2 MLOAD SWAP1 POP SWAP2 SWAP1 POP JUMP JUMPDEST PUSH0 DUP3 DUP3 MSTORE PUSH1 0x20 DUP3 ADD SWAP1 POP SWAP3 SWAP2 POP POP JUMP JUMPDEST DUP3 DUP2 DUP4 MCOPY PUSH0 DUP4 DUP4 ADD MSTORE POP POP POP JUMP JUMPDEST PUSH0 PUSH1 0x1F NOT PUSH1 0x1F DUP4 ADD AND SWAP1 POP SWAP2 SWAP1 POP JUMP JUMPDEST PUSH0 PUSH2 0x12B3 DUP3 PUSH2 0x1271 JUMP JUMPDEST PUSH2 0x12BD DUP2 DUP6 PUSH2 0x127B JUMP JUMPDEST SWAP4 POP PUSH2 0x12CD DUP2 DUP6 PUSH1 0x20 DUP7 ADD PUSH2 0x128B JUMP JUMPDEST PUSH2 0x12D6 DUP2 PUSH2 0x1299 JUMP JUMPDEST DUP5 ADD SWAP2 POP POP SWAP3 SWAP2 POP POP JUMP JUMPDEST PUSH0 PUSH1 0x20 DUP3 ADD SWAP1 POP DUP2 DUP2 SUB PUSH0 DUP4 ADD MSTORE PUSH2 0x12F9 DUP2 DUP5 PUSH2 0x12A9 JUMP JUMPDEST SWAP1 POP SWAP3 SWAP2 POP POP JUMP JUMPDEST PUSH0 DUP2 SWAP1 POP SWAP2 SWAP1 POP JUMP JUMPDEST PUSH2 0x1313 DUP2 PUSH2 0x1301 JUMP JUMPDEST DUP3 MSTORE POP POP JUMP JUMPDEST PUSH0 PUSH1 0x20 DUP3 ADD SWAP1 POP PUSH2 0x132C PUSH0 DUP4 ADD DUP5 PUSH2 0x130A JUMP JUMPDEST SWAP3 SWAP2 POP POP JUMP JUMPDEST PUSH0 PUSH1 0x40 MLOAD SWAP1 POP SWAP1 JUMP JUMPDEST PUSH0 PUSH0 REVERT JUMPDEST PUSH0 PUSH0 REVERT JUMPDEST PUSH0 PUSH20 0xFFFFFFFFFFFFFFFFFFFFFFFFFFFFFFFFFFFFFFFF DUP3 AND SWAP1 POP SWAP2 SWAP1 POP JUMP JUMPDEST PUSH0 PUSH2 0x136C DUP3 PUSH2 0x1343 JUMP JUMPDEST SWAP1 POP SWAP2 SWAP1 POP JUMP JUMPDEST PUSH2 0x137C DUP2 PUSH2 0x1362 JUMP JUMPDEST DUP2 EQ PUSH2 0x1386 JUMPI PUSH0 PUSH0 REVERT JUMPDEST POP JUMP JUMPDEST PUSH0 DUP2 CALLDATALOAD SWAP1 POP PUSH2 0x1397 DUP2 PUSH2 0x1373 JUMP JUMPDEST SWAP3 SWAP2 POP POP JUMP JUMPDEST PUSH2 0x13A6 DUP2 PUSH2 0x1301 JUMP JUMPDEST DUP2 EQ PUSH2 0x13B0 JUMPI PUSH0 PUSH0 REVERT JUMPDEST POP JUMP JUMPDEST PUSH0 DUP2 CALLDATALOAD SWAP1 POP PUSH2 0x13C1 DUP2 PUSH2 0x139D JUMP JUMPDEST SWAP3 SWAP2 POP POP JUMP JUMPDEST PUSH0 PUSH0 PUSH0 PUSH1 0x60 DUP5 DUP7 SUB SLT ISZERO PUSH2 0x13DE JUMPI PUSH2 0x13DD PUSH2 0x133B JUMP JUMPDEST JUMPDEST PUSH0 PUSH2 0x13EB DUP7 DUP3 DUP8 ADD PUSH2 0x1389 JUMP JUMPDEST SWAP4 POP POP PUSH1 0x20 PUSH2 0x13FC DUP7 DUP3 DUP8 ADD PUSH2 0x1389 JUMP JUMPDEST SWAP3 POP POP PUSH1 0x40 PUSH2 0x140D DUP7 DUP3 DUP8 ADD PUSH2 0x13B3 JUMP JUMPDEST SWAP2 POP POP SWAP3 POP SWAP3 POP SWAP3 JUMP JUMPDEST PUSH0 DUP2 ISZERO ISZERO SWAP1 POP SWAP2 SWAP1 POP JUMP JUMPDEST PUSH2 0x142B DUP2 PUSH2 0x1417 JUMP JUMPDEST DUP3 MSTORE POP POP JUMP JUMPDEST PUSH0 PUSH1 0x20 DUP3 ADD SWAP1 POP PUSH2 0x1444 PUSH0 DUP4 ADD DUP5 PUSH2 0x1422 JUMP JUMPDEST SWAP3 SWAP2 POP POP JUMP JUMPDEST PUSH0 PUSH0 PUSH1 0x40 DUP4 DUP6 SUB SLT ISZERO PUSH2 0x1460 JUMPI PUSH2 0x145F PUSH2 0x133B JUMP JUMPDEST JUMPDEST PUSH0 PUSH2 0x146D DUP6 DUP3 DUP7 ADD PUSH2 0x1389 JUMP JUMPDEST SWAP3 POP POP PUSH1 0x20 PUSH2 0x147E DUP6 DUP3 DUP7 ADD PUSH2 0x13B3 JUMP JUMPDEST SWAP2 POP POP SWAP3 POP SWAP3 SWAP1 POP JUMP JUMPDEST PUSH0 PUSH1 0x20 DUP3 DUP5 SUB SLT ISZERO PUSH2 0x149D JUMPI PUSH2 0x149C PUSH2 0x133B JUMP JUMPDEST JUMPDEST PUSH0 PUSH2 0x14AA DUP5 DUP3 DUP6 ADD PUSH2 0x13B3 JUMP JUMPDEST SWAP2 POP POP SWAP3 SWAP2 POP POP JUMP JUMPDEST PUSH0 PUSH1 0x20 DUP3 DUP5 SUB SLT ISZERO PUSH2 0x14C8 JUMPI PUSH2 0x14C7 PUSH2 0x133B JUMP JUMPDEST JUMPDEST PUSH0 PUSH2 0x14D5 DUP5 DUP3 DUP6 ADD PUSH2 0x1389 JUMP JUMPDEST SWAP2 POP POP SWAP3 SWAP2 POP POP JUMP JUMPDEST PUSH0 PUSH1 0xFF DUP3 AND SWAP1 POP SWAP2 SWAP1 POP JUMP JUMPDEST PUSH2 0x14F3 DUP2 PUSH2 0x14DE JUMP JUMPDEST DUP3 MSTORE POP POP JUMP JUMPDEST PUSH0 PUSH1 0x20 DUP3 ADD SWAP1 POP PUSH2 0x150C PUSH0 DUP4 ADD DUP5 PUSH2 0x14EA JUMP JUMPDEST SWAP3 SWAP2 POP POP JUMP JUMPDEST PUSH0 PUSH0 REVERT JUMPDEST PUSH32 0x4E487B7100000000000000000000000000000000000000000000000000000000 PUSH0 MSTORE PUSH1 0x41 PUSH1 0x4 MSTORE PUSH1 0x24 PUSH0 REVERT JUMPDEST PUSH2 0x154C DUP3 PUSH2 0x1299 JUMP JUMPDEST DUP2 ADD DUP2 DUP2 LT PUSH8 0xFFFFFFFFFFFFFFFF DUP3 GT OR ISZERO PUSH2 0x156B JUMPI PUSH2 0x156A PUSH2 0x1516 JUMP JUMPDEST JUMPDEST DUP1 PUSH1 0x40 MSTORE POP POP POP JUMP JUMPDEST PUSH0 PUSH2 0x157D PUSH2 0x1332 JUMP JUMPDEST SWAP1 POP PUSH2 0x1589 DUP3 DUP3 PUSH2 0x1543 JUMP JUMPDEST SWAP2 SWAP1 POP JUMP JUMPDEST PUSH0 PUSH8 0xFFFFFFFFFFFFFFFF DUP3 GT ISZERO PUSH2 0x15A8 JUMPI PUSH2 0x15A7 PUSH2 0x1516 JUMP JUMPDEST JUMPDEST PUSH1 0x20 DUP3 MUL SWAP1 POP PUSH1 0x20 DUP2 ADD SWAP1 POP SWAP2 SWAP1 POP JUMP JUMPDEST PUSH0 PUSH0 REVERT JUMPDEST PUSH0 PUSH2 0x15CF PUSH2 0x15CA DUP5 PUSH2 0x158E JUMP JUMPDEST PUSH2 0x1574 JUMP JUMPDEST SWAP1 POP DUP1 DUP4 DUP3 MSTORE PUSH1 0x20 DUP3 ADD SWAP1 POP PUSH1 0x20 DUP5 MUL DUP4 ADD DUP6 DUP2 GT ISZERO PUSH2 0x15F2 JUMPI PUSH2 0x15F1 PUSH2 0x15B9 JUMP JUMPDEST JUMPDEST DUP4 JUMPDEST DUP2 DUP2 LT ISZERO PUSH2 0x161B JUMPI DUP1 PUSH2 0x1607 DUP9 DUP3 PUSH2 0x1389 JUMP JUMPDEST DUP5 MSTORE PUSH1 0x20 DUP5 ADD SWAP4 POP POP PUSH1 0x20 DUP2 ADD SWAP1 POP PUSH2 0x15F4 JUMP JUMPDEST POP POP POP SWAP4 SWAP3 POP POP POP JUMP JUMPDEST PUSH0 DUP3 PUSH1 0x1F DUP4 ADD SLT PUSH2 0x1639 JUMPI PUSH2 0x1638 PUSH2 0x1512 JUMP JUMPDEST JUMPDEST DUP2 CALLDATALOAD PUSH2 0x1649 DUP5 DUP3 PUSH1 0x20 DUP7 ADD PUSH2 0x15BD JUMP JUMPDEST SWAP2 POP POP SWAP3 SWAP2 POP POP JUMP JUMPDEST PUSH0 PUSH8 0xFFFFFFFFFFFFFFFF DUP3 GT ISZERO PUSH2 0x166C JUMPI PUSH2 0x166B PUSH2 0x1516 JUMP JUMPDEST JUMPDEST PUSH1 0x20 DUP3 MUL SWAP1 POP PUSH1 0x20 DUP2 ADD SWAP1 POP SWAP2 SWAP1 POP JUMP JUMPDEST PUSH0 PUSH2 0x168F PUSH2 0x168A DUP5 PUSH2 0x1652 JUMP JUMPDEST PUSH2 0x1574 JUMP JUMPDEST SWAP1 POP DUP1 DUP4 DUP3 MSTORE PUSH1 0x20 DUP3 ADD SWAP1 POP PUSH1 0x20 DUP5 MUL DUP4 ADD DUP6 DUP2 GT ISZERO PUSH2 0x16B2 JUMPI PUSH2 0x16B1 PUSH2 0x15B9 JUMP JUMPDEST JUMPDEST DUP4 JUMPDEST DUP2 DUP2 LT ISZERO PUSH2 0x16DB JUMPI DUP1 PUSH2 0x16C7 DUP9 DUP3 PUSH2 0x13B3 JUMP JUMPDEST DUP5 MSTORE PUSH1 0x20 DUP5 ADD SWAP4 POP POP PUSH1 0x20 DUP2 ADD SWAP1 POP PUSH2 0x16B4 JUMP JUMPDEST POP POP POP SWAP4 SWAP3 POP POP POP JUMP JUMPDEST PUSH0 DUP3 PUSH1 0x1F DUP4 ADD SLT PUSH2 0x16F9 JUMPI PUSH2 0x16F8 PUSH2 0x1512 JUMP JUMPDEST JUMPDEST DUP2 CALLDATALOAD PUSH2 0x1709 DUP5 DUP3 PUSH1 0x20 DUP7 ADD PUSH2 0x167D JUMP JUMPDEST SWAP2 POP POP SWAP3 SWAP2 POP POP JUMP JUMPDEST PUSH0 PUSH0 PUSH1 0x40 DUP4 DUP6 SUB SLT ISZERO PUSH2 0x1728 JUMPI PUSH2 0x1727 PUSH2 0x133B JUMP JUMPDEST JUMPDEST PUSH0 DUP4 ADD CALLDATALOAD PUSH8 0xFFFFFFFFFFFFFFFF DUP2 GT ISZERO PUSH2 0x1745 JUMPI PUSH2 0x1744 PUSH2 0x133F JUMP JUMPDEST JUMPDEST PUSH2 0x1751 DUP6 DUP3 DUP7 ADD PUSH2 0x1625 JUMP JUMPDEST SWAP3 POP POP PUSH1 0x20 DUP4 ADD CALLDATALOAD PUSH8 0xFFFFFFFFFFFFFFFF DUP2 GT ISZERO PUSH2 0x1772 JUMPI PUSH2 0x1771 PUSH2 0x133F JUMP JUMPDEST JUMPDEST PUSH2 0x177E DUP6 DUP3 DUP7 ADD PUSH2 0x16E5 JUMP JUMPDEST SWAP2 POP POP SWAP3 POP SWAP3 SWAP1 POP JUMP JUMPDEST PUSH2 0x1791 DUP2 PUSH2 0x1362 JUMP JUMPDEST DUP3 MSTORE POP POP JUMP JUMPDEST PUSH0 PUSH1 0x20 DUP3 ADD SWAP1 POP PUSH2 0x17AA PUSH0 DUP4 ADD DUP5 PUSH2 0x1788 JUMP JUMPDEST SWAP3 SWAP2 POP POP JUMP JUMPDEST PUSH0 PUSH0 PUSH1 0x40 DUP4 DUP6 SUB SLT ISZERO PUSH2 0x17C6 JUMPI PUSH2 0x17C5 PUSH2 0x133B JUMP JUMPDEST JUMPDEST PUSH0 PUSH2 0x17D3 DUP6 DUP3 DUP7 ADD PUSH2 0x1389 JUMP JUMPDEST SWAP3 POP POP PUSH1 0x20 PUSH2 0x17E4 DUP6 DUP3 DUP7 ADD PUSH2 0x1389 JUMP JUMPDEST SWAP2 POP POP SWAP3 POP SWAP3 SWAP1 POP JUMP JUMPDEST PUSH32 0x4E487B7100000000000000000000000000000000000000000000000000000000 PUSH0 MSTORE PUSH1 0x22 PUSH1 0x4 MSTORE PUSH1 0x24 PUSH0 REVERT JUMPDEST PUSH0 PUSH1 0x2 DUP3 DIV SWAP1 POP PUSH1 0x1 DUP3 AND DUP1 PUSH2 0x1832 JUMPI PUSH1 0x7F DUP3 AND SWAP2 POP JUMPDEST PUSH1 0x20 DUP3 LT DUP2 SUB PUSH2 0x1845 JUMPI PUSH2 0x1844 PUSH2 0x17EE JUMP JUMPDEST JUMPDEST POP SWAP2 SWAP1 POP JUMP JUMPDEST PUSH32 0x46726F6D206973207A65726F2061646472657373000000000000000000000000 PUSH0 DUP3 ADD MSTORE POP JUMP JUMPDEST PUSH0 PUSH2 0x187F PUSH1 0x14 DUP4 PUSH2 0x127B JUMP JUMPDEST SWAP2 POP PUSH2 0x188A DUP3 PUSH2 0x184B JUMP JUMPDEST PUSH1 0x20 DUP3 ADD SWAP1 POP SWAP2 SWAP1 POP JUMP JUMPDEST PUSH0 PUSH1 0x20 DUP3 ADD SWAP1 POP DUP2 DUP2 SUB PUSH0 DUP4 ADD MSTORE PUSH2 0x18AC DUP2 PUSH2 0x1873 JUMP JUMPDEST SWAP1 POP SWAP2 SWAP1 POP JUMP JUMPDEST PUSH32 0x546F206973207A65726F20616464726573730000000000000000000000000000 PUSH0 DUP3 ADD MSTORE POP JUMP JUMPDEST PUSH0 PUSH2 0x18E7 PUSH1 0x12 DUP4 PUSH2 0x127B JUMP JUMPDEST SWAP2 POP PUSH2 0x18F2 DUP3 PUSH2 0x18B3 JUMP JUMPDEST PUSH1 0x20 DUP3 ADD SWAP1 POP SWAP2 SWAP1 POP JUMP JUMPDEST PUSH0 PUSH1 0x20 DUP3 ADD SWAP1 POP DUP2 DUP2 SUB PUSH0 DUP4 ADD MSTORE PUSH2 0x1914 DUP2 PUSH2 0x18DB JUMP JUMPDEST SWAP1 POP SWAP2 SWAP1 POP JUMP JUMPDEST PUSH32 0x496E73756666696369656E742062616C616E6365000000000000000000000000 PUSH0 DUP3 ADD MSTORE POP JUMP JUMPDEST PUSH0 PUSH2 0x194F PUSH1 0x14 DUP4 PUSH2 0x127B JUMP JUMPDEST SWAP2 POP PUSH2 0x195A DUP3 PUSH2 0x191B JUMP JUMPDEST PUSH1 0x20 DUP3 ADD SWAP1 POP SWAP2 SWAP1 POP JUMP JUMPDEST PUSH0 PUSH1 0x20 DUP3 ADD SWAP1 POP DUP2 DUP2 SUB PUSH0 DUP4 ADD MSTORE PUSH2 0x197C DUP2 PUSH2 0x1943 JUMP JUMPDEST SWAP1 POP SWAP2 SWAP1 POP JUMP JUMPDEST PUSH32 0x496E73756666696369656E7420616D6F756E7400000000000000000000000000 PUSH0 DUP3 ADD MSTORE POP JUMP JUMPDEST PUSH0 PUSH2 0x19B7 PUSH1 0x13 DUP4 PUSH2 0x127B JUMP JUMPDEST SWAP2 POP PUSH2 0x19C2 DUP3 PUSH2 0x1983 JUMP JUMPDEST PUSH1 0x20 DUP3 ADD SWAP1 POP SWAP2 SWAP1 POP JUMP JUMPDEST PUSH0 PUSH1 0x20 DUP3 ADD SWAP1 POP DUP2 DUP2 SUB PUSH0 DUP4 ADD MSTORE PUSH2 0x19E4 DUP2 PUSH2 0x19AB JUMP JUMPDEST SWAP1 POP SWAP2 SWAP1 POP JUMP JUMPDEST PUSH32 0x4E487B7100000000000000000000000000000000000000000000000000000000 PUSH0 MSTORE PUSH1 0x11 PUSH1 0x4 MSTORE PUSH1 0x24 PUSH0 REVERT JUMPDEST PUSH0 PUSH2 0x1A22 DUP3 PUSH2 0x1301 JUMP JUMPDEST SWAP2 POP PUSH2 0x1A2D DUP4 PUSH2 0x1301 JUMP JUMPDEST SWAP3 POP DUP3 DUP3 SUB SWAP1 POP DUP2 DUP2 GT ISZERO PUSH2 0x1A45 JUMPI PUSH2 0x1A44 PUSH2 0x19EB JUMP JUMPDEST JUMPDEST SWAP3 SWAP2 POP POP JUMP JUMPDEST PUSH0 PUSH2 0x1A55 DUP3 PUSH2 0x1301 JUMP JUMPDEST SWAP2 POP PUSH2 0x1A60 DUP4 PUSH2 0x1301 JUMP JUMPDEST SWAP3 POP DUP3 DUP3 ADD SWAP1 POP DUP1 DUP3 GT ISZERO PUSH2 0x1A78 JUMPI PUSH2 0x1A77 PUSH2 0x19EB JUMP JUMPDEST JUMPDEST SWAP3 SWAP2 POP POP JUMP JUMPDEST PUSH32 0x4F6E6C79204F776E657200000000000000000000000000000000000000000000 PUSH0 DUP3 ADD MSTORE POP JUMP JUMPDEST PUSH0 PUSH2 0x1AB2 PUSH1 0xA DUP4 PUSH2 0x127B JUMP JUMPDEST SWAP2 POP PUSH2 0x1ABD DUP3 PUSH2 0x1A7E JUMP JUMPDEST PUSH1 0x20 DUP3 ADD SWAP1 POP SWAP2 SWAP1 POP JUMP JUMPDEST PUSH0 PUSH1 0x20 DUP3 ADD SWAP1 POP DUP2 DUP2 SUB PUSH0 DUP4 ADD MSTORE PUSH2 0x1ADF DUP2 PUSH2 0x1AA6 JUMP JUMPDEST SWAP1 POP SWAP2 SWAP1 POP JUMP JUMPDEST PUSH32 0x5A65726F20616464726573730000000000000000000000000000000000000000 PUSH0 DUP3 ADD MSTORE POP JUMP JUMPDEST PUSH0 PUSH2 0x1B1A PUSH1 0xC DUP4 PUSH2 0x127B JUMP JUMPDEST SWAP2 POP PUSH2 0x1B25 DUP3 PUSH2 0x1AE6 JUMP JUMPDEST PUSH1 0x20 DUP3 ADD SWAP1 POP SWAP2 SWAP1 POP JUMP JUMPDEST PUSH0 PUSH1 0x20 DUP3 ADD SWAP1 POP DUP2 DUP2 SUB PUSH0 DUP4 ADD MSTORE PUSH2 0x1B47 DUP2 PUSH2 0x1B0E JUMP JUMPDEST SWAP1 POP SWAP2 SWAP1 POP JUMP JUMPDEST PUSH32 0x556E657175616C206C656E677468730000000000000000000000000000000000 PUSH0 DUP3 ADD MSTORE POP JUMP JUMPDEST PUSH0 PUSH2 0x1B82 PUSH1 0xF DUP4 PUSH2 0x127B JUMP JUMPDEST SWAP2 POP PUSH2 0x1B8D DUP3 PUSH2 0x1B4E JUMP JUMPDEST PUSH1 0x20 DUP3 ADD SWAP1 POP SWAP2 SWAP1 POP JUMP JUMPDEST PUSH0 PUSH1 0x20 DUP3 ADD SWAP1 POP DUP2 DUP2 SUB PUSH0 DUP4 ADD MSTORE PUSH2 0x1BAF DUP2 PUSH2 0x1B76 JUMP JUMPDEST SWAP1 POP SWAP2 SWAP1 POP JUMP JUMPDEST PUSH32 0x4C656E677468206973206C696D69746564000000000000000000000000000000 PUSH0 DUP3 ADD MSTORE POP JUMP JUMPDEST PUSH0 PUSH2 0x1BEA PUSH1 0x11 DUP4 PUSH2 0x127B JUMP JUMPDEST SWAP2 POP PUSH2 0x1BF5 DUP3 PUSH2 0x1BB6 JUMP JUMPDEST PUSH1 0x20 DUP3 ADD SWAP1 POP SWAP2 SWAP1 POP JUMP JUMPDEST PUSH0 PUSH1 0x20 DUP3 ADD SWAP1 POP DUP2 DUP2 SUB PUSH0 DUP4 ADD MSTORE PUSH2 0x1C17 DUP2 PUSH2 0x1BDE JUMP JUMPDEST SWAP1 POP SWAP2 SWAP1 POP JUMP JUMPDEST PUSH32 0x4E487B7100000000000000000000000000000000000000000000000000000000 PUSH0 MSTORE PUSH1 0x32 PUSH1 0x4 MSTORE PUSH1 0x24 PUSH0 REVERT JUMPDEST PUSH32 0x496E73756666696369656E7420616F756D740000000000000000000000000000 PUSH0 DUP3 ADD MSTORE POP JUMP JUMPDEST PUSH0 PUSH2 0x1C7F PUSH1 0x12 DUP4 PUSH2 0x127B JUMP JUMPDEST SWAP2 POP PUSH2 0x1C8A DUP3 PUSH2 0x1C4B JUMP JUMPDEST PUSH1 0x20 DUP3 ADD SWAP1 POP SWAP2 SWAP1 POP JUMP JUMPDEST PUSH0 PUSH1 0x20 DUP3 ADD SWAP1 POP DUP2 DUP2 SUB PUSH0 DUP4 ADD MSTORE PUSH2 0x1CAC DUP2 PUSH2 0x1C73 JUMP JUMPDEST SWAP1 POP SWAP2 SWAP1 POP JUMP JUMPDEST PUSH32 0x496E76616C696420616D6F756E74000000000000000000000000000000000000 PUSH0 DUP3 ADD MSTORE POP JUMP JUMPDEST PUSH0 PUSH2 0x1CE7 PUSH1 0xE DUP4 PUSH2 0x127B JUMP JUMPDEST SWAP2 POP PUSH2 0x1CF2 DUP3 PUSH2 0x1CB3 JUMP JUMPDEST PUSH1 0x20 DUP3 ADD SWAP1 POP SWAP2 SWAP1 POP JUMP JUMPDEST PUSH0 PUSH1 0x20 DUP3 ADD SWAP1 POP DUP2 DUP2 SUB PUSH0 DUP4 ADD MSTORE PUSH2 0x1D14 DUP2 PUSH2 0x1CDB JUMP JUMPDEST SWAP1 POP SWAP2 SWAP1 POP JUMP JUMPDEST PUSH32 0x496E73756666696369656E74732062616C616E63650000000000000000000000 PUSH0 DUP3 ADD MSTORE POP JUMP JUMPDEST PUSH0 PUSH2 0x1D4F PUSH1 0x15 DUP4 PUSH2 0x127B JUMP JUMPDEST SWAP2 POP PUSH2 0x1D5A DUP3 PUSH2 0x1D1B JUMP JUMPDEST PUSH1 0x20 DUP3 ADD SWAP1 POP SWAP2 SWAP1 POP JUMP JUMPDEST PUSH0 PUSH1 0x20 DUP3 ADD SWAP1 POP DUP2 DUP2 SUB PUSH0 DUP4 ADD MSTORE PUSH2 0x1D7C DUP2 PUSH2 0x1D43 JUMP JUMPDEST SWAP1 POP SWAP2 SWAP1 POP JUMP INVALID LOG2 PUSH5 0x6970667358 0x22 SLT KECCAK256 JUMP 0xF7 0x1E 0xA6 DUP13 0x22 SWAP2 DUP9 SWAP9 0xAB 0x28 DUP7 0xC0 DUP14 0x2B 0xA5 STATICCALL 0xDD 0x4D TIMESTAMP 0x4C PUSH14 0x6DB0D1B4188C0D14999864736F6C PUSH4 0x4300081E STOP CALLER "
				},
				"gasEstimates": {
					"creation": {
						"codeDepositCost": "1521800",
						"executionCost": "infinite",
						"totalCost": "infinite"
					},
					"external": {
						"allowance(address,address)": "infinite",
						"approval(address,uint256)": "infinite",
						"balanceOf(address)": "2913",
						"batchTransfer(address[],uint256[])": "infinite",
						"burn(uint256)": "infinite",
						"decimal()": "2511",
						"mint(address,uint256)": "infinite",
						"name()": "infinite",
						"owner()": "2530",
						"symbol()": "infinite",
						"totalSupply()": "2448",
						"transfer(address,uint256)": "infinite",
						"transferForm(address,address,uint256)": "infinite"
					}
				},
				"methodIdentifiers": {
					"allowance(address,address)": "dd62ed3e",
					"approval(address,uint256)": "75247a58",
					"balanceOf(address)": "70a08231",
					"batchTransfer(address[],uint256[])": "88d695b2",
					"burn(uint256)": "42966c68",
					"decimal()": "76809ce3",
					"mint(address,uint256)": "40c10f19",
					"name()": "06fdde03",
					"owner()": "8da5cb5b",
					"symbol()": "95d89b41",
					"totalSupply()": "18160ddd",
					"transfer(address,uint256)": "a9059cbb",
					"transferForm(address,address,uint256)": "3112ae5b"
				}
			},
			"storageLayout": {
				"storage": [
					{
						"astId": 4,
						"contract": "contracts/task2/01 job1.sol:MyERC20",
						"label": "name",
						"offset": 0,
						"slot": "0",
						"type": "t_string_storage"
					},
					{
						"astId": 7,
						"contract": "contracts/task2/01 job1.sol:MyERC20",
						"label": "symbol",
						"offset": 0,
						"slot": "1",
						"type": "t_string_storage"
					},
					{
						"astId": 10,
						"contract": "contracts/task2/01 job1.sol:MyERC20",
						"label": "decimal",
						"offset": 0,
						"slot": "2",
						"type": "t_uint8"
					},
					{
						"astId": 12,
						"contract": "contracts/task2/01 job1.sol:MyERC20",
						"label": "totalSupply",
						"offset": 0,
						"slot": "3",
						"type": "t_uint256"
					},
					{
						"astId": 14,
						"contract": "contracts/task2/01 job1.sol:MyERC20",
						"label": "owner",
						"offset": 0,
						"slot": "4",
						"type": "t_address"
					},
					{
						"astId": 18,
						"contract": "contracts/task2/01 job1.sol:MyERC20",
						"label": "balanceOf",
						"offset": 0,
						"slot": "5",
						"type": "t_mapping(t_address,t_uint256)"
					},
					{
						"astId": 24,
						"contract": "contracts/task2/01 job1.sol:MyERC20",
						"label": "allowance",
						"offset": 0,
						"slot": "6",
						"type": "t_mapping(t_address,t_mapping(t_address,t_uint256))"
					}
				],
				"types": {
					"t_address": {
						"encoding": "inplace",
						"label": "address",
						"numberOfBytes": "20"
					},
					"t_mapping(t_address,t_mapping(t_address,t_uint256))": {
						"encoding": "mapping",
						"key": "t_address",
						"label": "mapping(address => mapping(address => uint256))",
						"numberOfBytes": "32",
						"value": "t_mapping(t_address,t_uint256)"
					},
					"t_mapping(t_address,t_uint256)": {
						"encoding": "mapping",
						"key": "t_address",
						"label": "mapping(address => uint256)",
						"numberOfBytes": "32",
						"value": "t_uint256"
					},
					"t_string_storage": {
						"encoding": "bytes",
						"label": "string",
						"numberOfBytes": "32"
					},
					"t_uint256": {
						"encoding": "inplace",
						"label": "uint256",
						"numberOfBytes": "32"
					},
					"t_uint8": {
						"encoding": "inplace",
						"label": "uint8",
						"numberOfBytes": "1"
					}
				}
			},
			"userdoc": {
				"kind": "user",
				"methods": {},
				"version": 1
			}
		}
	}
}