{
	"contracts/task2/01 job1.sol": {
		"MyERC20": {
			"abi": [
				{
					"inputs": [
						{
							"internalType": "uint256",
							"name": "_inialSupply",
							"type": "uint256"
						}
					],
					"stateMutability": "nonpayable",
					"type": "constructor"
				},
				{
					"anonymous": false,
					"inputs": [
						{
							"indexed": true,
							"internalType": "address",
							"name": "owener",
							"type": "address"
						},
						{
							"indexed": true,
							"internalType": "address",
							"name": "spender",
							"type": "address"
						},
						{
							"indexed": false,
							"internalType": "uint256",
							"name": "value",
							"type": "uint256"
						}
					],
					"name": "Approval",
					"type": "event"
				},
				{
					"anonymous": false,
					"inputs": [
						{
							"indexed": true,
							"internalType": "address",
							"name": "form",
							"type": "address"
						},
						{
							"indexed": true,
							"internalType": "address",
							"name": "to",
							"type": "address"
						},
						{
							"indexed": false,
							"internalType": "uint256",
							"name": "value",
							"type": "uint256"
						}
					],
					"name": "Transfer",
					"type": "event"
				},
				{
					"inputs": [
						{
							"internalType": "address",
							"name": "",
							"type": "address"
						},
						{
							"internalType": "address",
							"name": "",
							"type": "address"
						}
					],
					"name": "allowance",
					"outputs": [
						{
							"internalType": "uint256",
							"name": "",
							"type": "uint256"
						}
					],
					"stateMutability": "view",
					"type": "function"
				},
				{
					"inputs": [
						{
							"internalType": "address",
							"name": "_spender",
							"type": "address"
						},
						{
							"internalType": "uint256",
							"name": "_amount",
							"type": "uint256"
						}
					],
					"name": "approval",
					"outputs": [
						{
							"internalType": "bool",
							"name": "",
							"type": "bool"
						}
					],
					"stateMutability": "nonpayable",
					"type": "function"
				},
				{
					"inputs": [
						{
							"internalType": "address",
							"name": "",
							"type": "address"
						}
					],
					"name": "balanceOf",
					"outputs": [
						{
							"internalType": "uint256",
							"name": "",
							"type": "uint256"
						}
					],
					"stateMutability": "view",
					"type": "function"
				},
				{
					"inputs": [
						{
							"internalType": "address[]",
							"name": "_recipients",
							"type": "address[]"
						},
						{
							"internalType": "uint256[]",
							"name": "_amounts",
							"type": "uint256[]"
						}
					],
					"name": "batchTransfer",
					"outputs": [
						{
							"internalType": "bool",
							"name": "",
							"type": "bool"
						}
					],
					"stateMutability": "nonpayable",
					"type": "function"
				},
				{
					"inputs": [
						{
							"internalType": "uint256",
							"name": "_amount",
							"type": "uint256"
						}
					],
					"name": "burn",
					"outputs": [],
					"stateMutability": "nonpayable",
					"type": "function"
				},
				{
					"inputs": [],
					"name": "decimal",
					"outputs": [
						{
							"internalType": "uint256",
							"name": "",
							"type": "uint256"
						}
					],
					"stateMutability": "view",
					"type": "function"
				},
				{
					"inputs": [
						{
							"internalType": "address",
							"name": "_to",
							"type": "address"
						},
						{
							"internalType": "uint256",
							"name": "_amount",
							"type": "uint256"
						}
					],
					"name": "mint",
					"outputs": [],
					"stateMutability": "nonpayable",
					"type": "function"
				},
				{
					"inputs": [],
					"name": "name",
					"outputs": [
						{
							"internalType": "string",
							"name": "",
							"type": "string"
						}
					],
					"stateMutability": "view",
					"type": "function"
				},
				{
					"inputs": [],
					"name": "owner",
					"outputs": [
						{
							"internalType": "address",
							"name": "",
							"type": "address"
						}
					],
					"stateMutability": "view",
					"type": "function"
				},
				{
					"inputs": [],
					"name": "pause",
					"outputs": [
						{
							"internalType": "bool",
							"name": "",
							"type": "bool"
						}
					],
					"stateMutability": "nonpayable",
					"type": "function"
				},
				{
					"inputs": [],
					"name": "pauseState",
					"outputs": [
						{
							"internalType": "bool",
							"name": "",
							"type": "bool"
						}
					],
					"stateMutability": "view",
					"type": "function"
				},
				{
					"inputs": [],
					"name": "symbol",
					"outputs": [
						{
							"internalType": "string",
							"name": "",
							"type": "string"
						}
					],
					"stateMutability": "view",
					"type": "function"
				},
				{
					"inputs": [],
					"name": "totalSupply",
					"outputs": [
						{
							"internalType": "uint256",
							"name": "",
							"type": "uint256"
						}
					],
					"stateMutability": "view",
					"type": "function"
				},
				{
					"inputs": [
						{
							"internalType": "address",
							"name": "_to",
							"type": "address"
						},
						{
							"internalType": "uint256",
							"name": "_amount",
							"type": "uint256"
						}
					],
					"name": "transfer",
					"outputs": [
						{
							"internalType": "bool",
							"name": "",
							"type": "bool"
						}
					],
					"stateMutability": "nonpayable",
					"type": "function"
				},
				{
					"inputs": [
						{
							"internalType": "address",
							"name": "_from",
							"type": "address"
						},
						{
							"internalType": "address",
							"name": "_to",
							"type": "address"
						},
						{
							"internalType": "uint256",
							"name": "_amount",
							"type": "uint256"
						}
					],
					"name": "transferForm",
					"outputs": [
						{
							"internalType": "bool",
							"name": "",
							"type": "bool"
						}
					],
					"stateMutability": "nonpayable",
					"type": "function"
				},
				{
					"inputs": [],
					"name": "unpause",
					"outputs": [
						{
							"internalType": "bool",
							"name": "",
							"type": "bool"
						}
					],
					"stateMutability": "nonpayable",
					"type": "function"
				}
			],
			"devdoc": {
				"kind": "dev",
				"methods": {},
				"version": 1
			},
			"evm": {
				"assembly": "    /* \"contracts/task2/01 job1.sol\":61:4294  contract MyERC20 {... */\n  mstore(0x40, 0x80)\n    /* \"contracts/task2/01 job1.sol\":85:117  string public name=\"Young Token\" */\n  mload(0x40)\n  dup1\n  0x40\n  add\n  0x40\n  mstore\n  dup1\n  0x0b\n  dup2\n  mstore\n  0x20\n  add\n  0x596f756e6720546f6b656e000000000000000000000000000000000000000000\n  dup2\n  mstore\n  pop\n  0x00\n  swap1\n  dup2\n  tag_1\n  swap2\n  swap1\n  tag_2\n  jump\t// in\ntag_1:\n  pop\n    /* \"contracts/task2/01 job1.sol\":124:150  string public symbol=\"YTK\" */\n  mload(0x40)\n  dup1\n  0x40\n  add\n  0x40\n  mstore\n  dup1\n  0x03\n  dup2\n  mstore\n  0x20\n  add\n  0x59544b0000000000000000000000000000000000000000000000000000000000\n  dup2\n  mstore\n  pop\n  0x01\n  swap1\n  dup2\n  tag_3\n  swap2\n  swap1\n  tag_2\n  jump\t// in\ntag_3:\n  pop\n    /* \"contracts/task2/01 job1.sol\":179:181  18 */\n  0x12\n    /* \"contracts/task2/01 job1.sol\":157:181  uint public decimal = 18 */\n  0x02\n  sstore\n    /* \"contracts/task2/01 job1.sol\":273:278  false */\n  0x00\n    /* \"contracts/task2/01 job1.sol\":248:278  bool public pauseState = false */\n  0x04\n  exp(0x0100, 0x14)\n  dup2\n  sload\n  dup2\n  0xff\n  mul\n  not\n  and\n  swap1\n  dup4\n  iszero\n  iszero\n  mul\n  or\n  swap1\n  sstore\n  pop\n    /* \"contracts/task2/01 job1.sol\":651:871  constructor(uint256 _inialSupply){... */\n  callvalue\n  dup1\n  iszero\n  tag_4\n  jumpi\n  revert(0x00, 0x00)\ntag_4:\n  pop\n  mload(0x40)\n  sub(codesize, bytecodeSize)\n  dup1\n  bytecodeSize\n  dup4\n  codecopy\n  dup2\n  dup2\n  add\n  0x40\n  mstore\n  dup2\n  add\n  swap1\n  tag_5\n  swap2\n  swap1\n  tag_6\n  jump\t// in\ntag_5:\n    /* \"contracts/task2/01 job1.sol\":703:713  msg.sender */\n  caller\n    /* \"contracts/task2/01 job1.sol\":695:700  owner */\n  0x04\n  0x00\n    /* \"contracts/task2/01 job1.sol\":695:713  owner = msg.sender */\n  0x0100\n  exp\n  dup2\n  sload\n  dup2\n  0xffffffffffffffffffffffffffffffffffffffff\n  mul\n  not\n  and\n  swap1\n  dup4\n  0xffffffffffffffffffffffffffffffffffffffff\n  and\n  mul\n  or\n  swap1\n  sstore\n  pop\n    /* \"contracts/task2/01 job1.sol\":759:766  decimal */\n  sload(0x02)\n    /* \"contracts/task2/01 job1.sol\":753:755  10 */\n  0x0a\n    /* \"contracts/task2/01 job1.sol\":753:766  10 ** decimal */\n  tag_9\n  swap2\n  swap1\n  tag_10\n  jump\t// in\ntag_9:\n    /* \"contracts/task2/01 job1.sol\":738:750  _inialSupply */\n  dup2\n    /* \"contracts/task2/01 job1.sol\":738:766  _inialSupply * 10 ** decimal */\n  tag_11\n  swap2\n  swap1\n  tag_12\n  jump\t// in\ntag_11:\n    /* \"contracts/task2/01 job1.sol\":724:735  totalSupply */\n  0x03\n    /* \"contracts/task2/01 job1.sol\":724:766  totalSupply = _inialSupply * 10 ** decimal */\n  dup2\n  swap1\n  sstore\n  pop\n    /* \"contracts/task2/01 job1.sol\":796:807  totalSupply */\n  sload(0x03)\n    /* \"contracts/task2/01 job1.sol\":777:786  balanceOf */\n  0x05\n    /* \"contracts/task2/01 job1.sol\":777:793  balanceOf[owner] */\n  0x00\n    /* \"contracts/task2/01 job1.sol\":787:792  owner */\n  0x04\n  0x00\n  swap1\n  sload\n  swap1\n  0x0100\n  exp\n  swap1\n  div\n  0xffffffffffffffffffffffffffffffffffffffff\n  and\n    /* \"contracts/task2/01 job1.sol\":777:793  balanceOf[owner] */\n  0xffffffffffffffffffffffffffffffffffffffff\n  and\n  0xffffffffffffffffffffffffffffffffffffffff\n  and\n  dup2\n  mstore\n  0x20\n  add\n  swap1\n  dup2\n  mstore\n  0x20\n  add\n  0x00\n  keccak256\n    /* \"contracts/task2/01 job1.sol\":777:807  balanceOf[owner] = totalSupply */\n  dup2\n  swap1\n  sstore\n  pop\n    /* \"contracts/task2/01 job1.sol\":844:849  owner */\n  0x04\n  0x00\n  swap1\n  sload\n  swap1\n  0x0100\n  exp\n  swap1\n  div\n  0xffffffffffffffffffffffffffffffffffffffff\n  and\n    /* \"contracts/task2/01 job1.sol\":823:863  Transfer(address(0), owner, totalSupply) */\n  0xffffffffffffffffffffffffffffffffffffffff\n  and\n    /* \"contracts/task2/01 job1.sol\":840:841  0 */\n  0x00\n    /* \"contracts/task2/01 job1.sol\":823:863  Transfer(address(0), owner, totalSupply) */\n  0xffffffffffffffffffffffffffffffffffffffff\n  and\n  0xddf252ad1be2c89b69c2b068fc378daa952ba7f163c4a11628f55a4df523b3ef\n    /* \"contracts/task2/01 job1.sol\":851:862  totalSupply */\n  sload(0x03)\n    /* \"contracts/task2/01 job1.sol\":823:863  Transfer(address(0), owner, totalSupply) */\n  mload(0x40)\n  tag_13\n  swap2\n  swap1\n  tag_14\n  jump\t// in\ntag_13:\n  mload(0x40)\n  dup1\n  swap2\n  sub\n  swap1\n  log3\n    /* \"contracts/task2/01 job1.sol\":651:871  constructor(uint256 _inialSupply){... */\n  pop\n    /* \"contracts/task2/01 job1.sol\":61:4294  contract MyERC20 {... */\n  jump(tag_15)\n    /* \"#utility.yul\":7:106   */\ntag_16:\n    /* \"#utility.yul\":59:65   */\n  0x00\n    /* \"#utility.yul\":93:98   */\n  dup2\n    /* \"#utility.yul\":87:99   */\n  mload\n    /* \"#utility.yul\":77:99   */\n  swap1\n  pop\n    /* \"#utility.yul\":7:106   */\n  swap2\n  swap1\n  pop\n  jump\t// out\n    /* \"#utility.yul\":112:292   */\ntag_17:\n    /* \"#utility.yul\":160:237   */\n  0x4e487b7100000000000000000000000000000000000000000000000000000000\n    /* \"#utility.yul\":157:158   */\n  0x00\n    /* \"#utility.yul\":150:238   */\n  mstore\n    /* \"#utility.yul\":257:261   */\n  0x41\n    /* \"#utility.yul\":254:255   */\n  0x04\n    /* \"#utility.yul\":247:262   */\n  mstore\n    /* \"#utility.yul\":281:285   */\n  0x24\n    /* \"#utility.yul\":278:279   */\n  0x00\n    /* \"#utility.yul\":271:286   */\n  revert\n    /* \"#utility.yul\":298:478   */\ntag_18:\n    /* \"#utility.yul\":346:423   */\n  0x4e487b7100000000000000000000000000000000000000000000000000000000\n    /* \"#utility.yul\":343:344   */\n  0x00\n    /* \"#utility.yul\":336:424   */\n  mstore\n    /* \"#utility.yul\":443:447   */\n  0x22\n    /* \"#utility.yul\":440:441   */\n  0x04\n    /* \"#utility.yul\":433:448   */\n  mstore\n    /* \"#utility.yul\":467:471   */\n  0x24\n    /* \"#utility.yul\":464:465   */\n  0x00\n    /* \"#utility.yul\":457:472   */\n  revert\n    /* \"#utility.yul\":484:804   */\ntag_19:\n    /* \"#utility.yul\":528:534   */\n  0x00\n    /* \"#utility.yul\":565:566   */\n  0x02\n    /* \"#utility.yul\":559:563   */\n  dup3\n    /* \"#utility.yul\":555:567   */\n  div\n    /* \"#utility.yul\":545:567   */\n  swap1\n  pop\n    /* \"#utility.yul\":612:613   */\n  0x01\n    /* \"#utility.yul\":606:610   */\n  dup3\n    /* \"#utility.yul\":602:614   */\n  and\n    /* \"#utility.yul\":633:651   */\n  dup1\n    /* \"#utility.yul\":623:704   */\n  tag_51\n  jumpi\n    /* \"#utility.yul\":689:693   */\n  0x7f\n    /* \"#utility.yul\":681:687   */\n  dup3\n    /* \"#utility.yul\":677:694   */\n  and\n    /* \"#utility.yul\":667:694   */\n  swap2\n  pop\n    /* \"#utility.yul\":623:704   */\ntag_51:\n    /* \"#utility.yul\":751:753   */\n  0x20\n    /* \"#utility.yul\":743:749   */\n  dup3\n    /* \"#utility.yul\":740:754   */\n  lt\n    /* \"#utility.yul\":720:738   */\n  dup2\n    /* \"#utility.yul\":717:755   */\n  sub\n    /* \"#utility.yul\":714:798   */\n  tag_52\n  jumpi\n    /* \"#utility.yul\":770:788   */\n  tag_53\n  tag_18\n  jump\t// in\ntag_53:\n    /* \"#utility.yul\":714:798   */\ntag_52:\n    /* \"#utility.yul\":535:804   */\n  pop\n    /* \"#utility.yul\":484:804   */\n  swap2\n  swap1\n  pop\n  jump\t// out\n    /* \"#utility.yul\":810:951   */\ntag_20:\n    /* \"#utility.yul\":859:863   */\n  0x00\n    /* \"#utility.yul\":882:885   */\n  dup2\n    /* \"#utility.yul\":874:885   */\n  swap1\n  pop\n    /* \"#utility.yul\":905:908   */\n  dup2\n    /* \"#utility.yul\":902:903   */\n  0x00\n    /* \"#utility.yul\":895:909   */\n  mstore\n    /* \"#utility.yul\":939:943   */\n  0x20\n    /* \"#utility.yul\":936:937   */\n  0x00\n    /* \"#utility.yul\":926:944   */\n  keccak256\n    /* \"#utility.yul\":918:944   */\n  swap1\n  pop\n    /* \"#utility.yul\":810:951   */\n  swap2\n  swap1\n  pop\n  jump\t// out\n    /* \"#utility.yul\":957:1050   */\ntag_21:\n    /* \"#utility.yul\":994:1000   */\n  0x00\n    /* \"#utility.yul\":1041:1043   */\n  0x20\n    /* \"#utility.yul\":1036:1038   */\n  0x1f\n    /* \"#utility.yul\":1029:1034   */\n  dup4\n    /* \"#utility.yul\":1025:1039   */\n  add\n    /* \"#utility.yul\":1021:1044   */\n  div\n    /* \"#utility.yul\":1011:1044   */\n  swap1\n  pop\n    /* \"#utility.yul\":957:1050   */\n  swap2\n  swap1\n  pop\n  jump\t// out\n    /* \"#utility.yul\":1056:1163   */\ntag_22:\n    /* \"#utility.yul\":1100:1108   */\n  0x00\n    /* \"#utility.yul\":1150:1155   */\n  dup3\n    /* \"#utility.yul\":1144:1148   */\n  dup3\n    /* \"#utility.yul\":1140:1156   */\n  shl\n    /* \"#utility.yul\":1119:1156   */\n  swap1\n  pop\n    /* \"#utility.yul\":1056:1163   */\n  swap3\n  swap2\n  pop\n  pop\n  jump\t// out\n    /* \"#utility.yul\":1169:1562   */\ntag_23:\n    /* \"#utility.yul\":1238:1244   */\n  0x00\n    /* \"#utility.yul\":1288:1289   */\n  0x08\n    /* \"#utility.yul\":1276:1286   */\n  dup4\n    /* \"#utility.yul\":1272:1290   */\n  mul\n    /* \"#utility.yul\":1311:1408   */\n  tag_58\n    /* \"#utility.yul\":1341:1407   */\n  0xffffffffffffffffffffffffffffffffffffffffffffffffffffffffffffffff\n    /* \"#utility.yul\":1330:1339   */\n  dup3\n    /* \"#utility.yul\":1311:1408   */\n  tag_22\n  jump\t// in\ntag_58:\n    /* \"#utility.yul\":1429:1468   */\n  tag_59\n    /* \"#utility.yul\":1459:1467   */\n  dup7\n    /* \"#utility.yul\":1448:1457   */\n  dup4\n    /* \"#utility.yul\":1429:1468   */\n  tag_22\n  jump\t// in\ntag_59:\n    /* \"#utility.yul\":1417:1468   */\n  swap6\n  pop\n    /* \"#utility.yul\":1501:1505   */\n  dup1\n    /* \"#utility.yul\":1497:1506   */\n  not\n    /* \"#utility.yul\":1490:1495   */\n  dup5\n    /* \"#utility.yul\":1486:1507   */\n  and\n    /* \"#utility.yul\":1477:1507   */\n  swap4\n  pop\n    /* \"#utility.yul\":1550:1554   */\n  dup1\n    /* \"#utility.yul\":1540:1548   */\n  dup7\n    /* \"#utility.yul\":1536:1555   */\n  and\n    /* \"#utility.yul\":1529:1534   */\n  dup5\n    /* \"#utility.yul\":1526:1556   */\n  or\n    /* \"#utility.yul\":1516:1556   */\n  swap3\n  pop\n    /* \"#utility.yul\":1245:1562   */\n  pop\n  pop\n    /* \"#utility.yul\":1169:1562   */\n  swap4\n  swap3\n  pop\n  pop\n  pop\n  jump\t// out\n    /* \"#utility.yul\":1568:1645   */\ntag_24:\n    /* \"#utility.yul\":1605:1612   */\n  0x00\n    /* \"#utility.yul\":1634:1639   */\n  dup2\n    /* \"#utility.yul\":1623:1639   */\n  swap1\n  pop\n    /* \"#utility.yul\":1568:1645   */\n  swap2\n  swap1\n  pop\n  jump\t// out\n    /* \"#utility.yul\":1651:1711   */\ntag_25:\n    /* \"#utility.yul\":1679:1682   */\n  0x00\n    /* \"#utility.yul\":1700:1705   */\n  dup2\n    /* \"#utility.yul\":1693:1705   */\n  swap1\n  pop\n    /* \"#utility.yul\":1651:1711   */\n  swap2\n  swap1\n  pop\n  jump\t// out\n    /* \"#utility.yul\":1717:1859   */\ntag_26:\n    /* \"#utility.yul\":1767:1776   */\n  0x00\n    /* \"#utility.yul\":1800:1853   */\n  tag_63\n    /* \"#utility.yul\":1818:1852   */\n  tag_64\n    /* \"#utility.yul\":1827:1851   */\n  tag_65\n    /* \"#utility.yul\":1845:1850   */\n  dup5\n    /* \"#utility.yul\":1827:1851   */\n  tag_24\n  jump\t// in\ntag_65:\n    /* \"#utility.yul\":1818:1852   */\n  tag_25\n  jump\t// in\ntag_64:\n    /* \"#utility.yul\":1800:1853   */\n  tag_24\n  jump\t// in\ntag_63:\n    /* \"#utility.yul\":1787:1853   */\n  swap1\n  pop\n    /* \"#utility.yul\":1717:1859   */\n  swap2\n  swap1\n  pop\n  jump\t// out\n    /* \"#utility.yul\":1865:1940   */\ntag_27:\n    /* \"#utility.yul\":1908:1911   */\n  0x00\n    /* \"#utility.yul\":1929:1934   */\n  dup2\n    /* \"#utility.yul\":1922:1934   */\n  swap1\n  pop\n    /* \"#utility.yul\":1865:1940   */\n  swap2\n  swap1\n  pop\n  jump\t// out\n    /* \"#utility.yul\":1946:2215   */\ntag_28:\n    /* \"#utility.yul\":2056:2095   */\n  tag_68\n    /* \"#utility.yul\":2087:2094   */\n  dup4\n    /* \"#utility.yul\":2056:2095   */\n  tag_26\n  jump\t// in\ntag_68:\n    /* \"#utility.yul\":2117:2208   */\n  tag_69\n    /* \"#utility.yul\":2166:2207   */\n  tag_70\n    /* \"#utility.yul\":2190:2206   */\n  dup3\n    /* \"#utility.yul\":2166:2207   */\n  tag_27\n  jump\t// in\ntag_70:\n    /* \"#utility.yul\":2158:2164   */\n  dup5\n    /* \"#utility.yul\":2151:2155   */\n  dup5\n    /* \"#utility.yul\":2145:2156   */\n  sload\n    /* \"#utility.yul\":2117:2208   */\n  tag_23\n  jump\t// in\ntag_69:\n    /* \"#utility.yul\":2111:2115   */\n  dup3\n    /* \"#utility.yul\":2104:2209   */\n  sstore\n    /* \"#utility.yul\":2022:2215   */\n  pop\n    /* \"#utility.yul\":1946:2215   */\n  pop\n  pop\n  pop\n  jump\t// out\n    /* \"#utility.yul\":2221:2294   */\ntag_29:\n    /* \"#utility.yul\":2266:2269   */\n  0x00\n    /* \"#utility.yul\":2287:2288   */\n  0x00\n    /* \"#utility.yul\":2280:2288   */\n  swap1\n  pop\n    /* \"#utility.yul\":2221:2294   */\n  swap1\n  jump\t// out\n    /* \"#utility.yul\":2300:2489   */\ntag_30:\n    /* \"#utility.yul\":2377:2409   */\n  tag_73\n  tag_29\n  jump\t// in\ntag_73:\n    /* \"#utility.yul\":2418:2483   */\n  tag_74\n    /* \"#utility.yul\":2476:2482   */\n  dup2\n    /* \"#utility.yul\":2468:2474   */\n  dup5\n    /* \"#utility.yul\":2462:2466   */\n  dup5\n    /* \"#utility.yul\":2418:2483   */\n  tag_28\n  jump\t// in\ntag_74:\n    /* \"#utility.yul\":2353:2489   */\n  pop\n    /* \"#utility.yul\":2300:2489   */\n  pop\n  pop\n  jump\t// out\n    /* \"#utility.yul\":2495:2681   */\ntag_31:\n    /* \"#utility.yul\":2555:2675   */\ntag_76:\n    /* \"#utility.yul\":2572:2575   */\n  dup2\n    /* \"#utility.yul\":2565:2570   */\n  dup2\n    /* \"#utility.yul\":2562:2576   */\n  lt\n    /* \"#utility.yul\":2555:2675   */\n  iszero\n  tag_78\n  jumpi\n    /* \"#utility.yul\":2626:2665   */\n  tag_79\n    /* \"#utility.yul\":2663:2664   */\n  0x00\n    /* \"#utility.yul\":2656:2661   */\n  dup3\n    /* \"#utility.yul\":2626:2665   */\n  tag_30\n  jump\t// in\ntag_79:\n    /* \"#utility.yul\":2599:2600   */\n  0x01\n    /* \"#utility.yul\":2592:2597   */\n  dup2\n    /* \"#utility.yul\":2588:2601   */\n  add\n    /* \"#utility.yul\":2579:2601   */\n  swap1\n  pop\n    /* \"#utility.yul\":2555:2675   */\n  jump(tag_76)\ntag_78:\n    /* \"#utility.yul\":2495:2681   */\n  pop\n  pop\n  jump\t// out\n    /* \"#utility.yul\":2687:3230   */\ntag_32:\n    /* \"#utility.yul\":2788:2790   */\n  0x1f\n    /* \"#utility.yul\":2783:2786   */\n  dup3\n    /* \"#utility.yul\":2780:2791   */\n  gt\n    /* \"#utility.yul\":2777:3223   */\n  iszero\n  tag_81\n  jumpi\n    /* \"#utility.yul\":2822:2860   */\n  tag_82\n    /* \"#utility.yul\":2854:2859   */\n  dup2\n    /* \"#utility.yul\":2822:2860   */\n  tag_20\n  jump\t// in\ntag_82:\n    /* \"#utility.yul\":2906:2935   */\n  tag_83\n    /* \"#utility.yul\":2924:2934   */\n  dup5\n    /* \"#utility.yul\":2906:2935   */\n  tag_21\n  jump\t// in\ntag_83:\n    /* \"#utility.yul\":2896:2904   */\n  dup2\n    /* \"#utility.yul\":2892:2936   */\n  add\n    /* \"#utility.yul\":3089:3091   */\n  0x20\n    /* \"#utility.yul\":3077:3087   */\n  dup6\n    /* \"#utility.yul\":3074:3092   */\n  lt\n    /* \"#utility.yul\":3071:3120   */\n  iszero\n  tag_84\n  jumpi\n    /* \"#utility.yul\":3110:3118   */\n  dup2\n    /* \"#utility.yul\":3095:3118   */\n  swap1\n  pop\n    /* \"#utility.yul\":3071:3120   */\ntag_84:\n    /* \"#utility.yul\":3133:3213   */\n  tag_85\n    /* \"#utility.yul\":3189:3211   */\n  tag_86\n    /* \"#utility.yul\":3207:3210   */\n  dup6\n    /* \"#utility.yul\":3189:3211   */\n  tag_21\n  jump\t// in\ntag_86:\n    /* \"#utility.yul\":3179:3187   */\n  dup4\n    /* \"#utility.yul\":3175:3212   */\n  add\n    /* \"#utility.yul\":3162:3173   */\n  dup3\n    /* \"#utility.yul\":3133:3213   */\n  tag_31\n  jump\t// in\ntag_85:\n    /* \"#utility.yul\":2792:3223   */\n  pop\n  pop\n    /* \"#utility.yul\":2777:3223   */\ntag_81:\n    /* \"#utility.yul\":2687:3230   */\n  pop\n  pop\n  pop\n  jump\t// out\n    /* \"#utility.yul\":3236:3353   */\ntag_33:\n    /* \"#utility.yul\":3290:3298   */\n  0x00\n    /* \"#utility.yul\":3340:3345   */\n  dup3\n    /* \"#utility.yul\":3334:3338   */\n  dup3\n    /* \"#utility.yul\":3330:3346   */\n  shr\n    /* \"#utility.yul\":3309:3346   */\n  swap1\n  pop\n    /* \"#utility.yul\":3236:3353   */\n  swap3\n  swap2\n  pop\n  pop\n  jump\t// out\n    /* \"#utility.yul\":3359:3528   */\ntag_34:\n    /* \"#utility.yul\":3403:3409   */\n  0x00\n    /* \"#utility.yul\":3436:3487   */\n  tag_89\n    /* \"#utility.yul\":3484:3485   */\n  0x00\n    /* \"#utility.yul\":3480:3486   */\n  not\n    /* \"#utility.yul\":3472:3477   */\n  dup5\n    /* \"#utility.yul\":3469:3470   */\n  0x08\n    /* \"#utility.yul\":3465:3478   */\n  mul\n    /* \"#utility.yul\":3436:3487   */\n  tag_33\n  jump\t// in\ntag_89:\n    /* \"#utility.yul\":3432:3488   */\n  not\n    /* \"#utility.yul\":3517:3521   */\n  dup1\n    /* \"#utility.yul\":3511:3515   */\n  dup4\n    /* \"#utility.yul\":3507:3522   */\n  and\n    /* \"#utility.yul\":3497:3522   */\n  swap2\n  pop\n    /* \"#utility.yul\":3410:3528   */\n  pop\n    /* \"#utility.yul\":3359:3528   */\n  swap3\n  swap2\n  pop\n  pop\n  jump\t// out\n    /* \"#utility.yul\":3533:3828   */\ntag_35:\n    /* \"#utility.yul\":3609:3613   */\n  0x00\n    /* \"#utility.yul\":3755:3784   */\n  tag_91\n    /* \"#utility.yul\":3780:3783   */\n  dup4\n    /* \"#utility.yul\":3774:3778   */\n  dup4\n    /* \"#utility.yul\":3755:3784   */\n  tag_34\n  jump\t// in\ntag_91:\n    /* \"#utility.yul\":3747:3784   */\n  swap2\n  pop\n    /* \"#utility.yul\":3817:3820   */\n  dup3\n    /* \"#utility.yul\":3814:3815   */\n  0x02\n    /* \"#utility.yul\":3810:3821   */\n  mul\n    /* \"#utility.yul\":3804:3808   */\n  dup3\n    /* \"#utility.yul\":3801:3822   */\n  or\n    /* \"#utility.yul\":3793:3822   */\n  swap1\n  pop\n    /* \"#utility.yul\":3533:3828   */\n  swap3\n  swap2\n  pop\n  pop\n  jump\t// out\n    /* \"#utility.yul\":3833:5228   */\ntag_2:\n    /* \"#utility.yul\":3950:3987   */\n  tag_93\n    /* \"#utility.yul\":3983:3986   */\n  dup3\n    /* \"#utility.yul\":3950:3987   */\n  tag_16\n  jump\t// in\ntag_93:\n    /* \"#utility.yul\":4052:4070   */\n  0xffffffffffffffff\n    /* \"#utility.yul\":4044:4050   */\n  dup2\n    /* \"#utility.yul\":4041:4071   */\n  gt\n    /* \"#utility.yul\":4038:4094   */\n  iszero\n  tag_94\n  jumpi\n    /* \"#utility.yul\":4074:4092   */\n  tag_95\n  tag_17\n  jump\t// in\ntag_95:\n    /* \"#utility.yul\":4038:4094   */\ntag_94:\n    /* \"#utility.yul\":4118:4156   */\n  tag_96\n    /* \"#utility.yul\":4150:4154   */\n  dup3\n    /* \"#utility.yul\":4144:4155   */\n  sload\n    /* \"#utility.yul\":4118:4156   */\n  tag_19\n  jump\t// in\ntag_96:\n    /* \"#utility.yul\":4203:4270   */\n  tag_97\n    /* \"#utility.yul\":4263:4269   */\n  dup3\n    /* \"#utility.yul\":4255:4261   */\n  dup3\n    /* \"#utility.yul\":4249:4253   */\n  dup6\n    /* \"#utility.yul\":4203:4270   */\n  tag_32\n  jump\t// in\ntag_97:\n    /* \"#utility.yul\":4297:4298   */\n  0x00\n    /* \"#utility.yul\":4321:4325   */\n  0x20\n    /* \"#utility.yul\":4308:4325   */\n  swap1\n  pop\n    /* \"#utility.yul\":4353:4355   */\n  0x1f\n    /* \"#utility.yul\":4345:4351   */\n  dup4\n    /* \"#utility.yul\":4342:4356   */\n  gt\n    /* \"#utility.yul\":4370:4371   */\n  0x01\n    /* \"#utility.yul\":4365:4983   */\n  dup2\n  eq\n  tag_99\n  jumpi\n    /* \"#utility.yul\":5027:5028   */\n  0x00\n    /* \"#utility.yul\":5044:5050   */\n  dup5\n    /* \"#utility.yul\":5041:5118   */\n  iszero\n  tag_100\n  jumpi\n    /* \"#utility.yul\":5093:5102   */\n  dup3\n    /* \"#utility.yul\":5088:5091   */\n  dup8\n    /* \"#utility.yul\":5084:5103   */\n  add\n    /* \"#utility.yul\":5078:5104   */\n  mload\n    /* \"#utility.yul\":5069:5104   */\n  swap1\n  pop\n    /* \"#utility.yul\":5041:5118   */\ntag_100:\n    /* \"#utility.yul\":5144:5211   */\n  tag_101\n    /* \"#utility.yul\":5204:5210   */\n  dup6\n    /* \"#utility.yul\":5197:5202   */\n  dup3\n    /* \"#utility.yul\":5144:5211   */\n  tag_35\n  jump\t// in\ntag_101:\n    /* \"#utility.yul\":5138:5142   */\n  dup7\n    /* \"#utility.yul\":5131:5212   */\n  sstore\n    /* \"#utility.yul\":5000:5222   */\n  pop\n    /* \"#utility.yul\":4335:5222   */\n  jump(tag_98)\n    /* \"#utility.yul\":4365:4983   */\ntag_99:\n    /* \"#utility.yul\":4417:4421   */\n  0x1f\n    /* \"#utility.yul\":4413:4422   */\n  not\n    /* \"#utility.yul\":4405:4411   */\n  dup5\n    /* \"#utility.yul\":4401:4423   */\n  and\n    /* \"#utility.yul\":4451:4488   */\n  tag_102\n    /* \"#utility.yul\":4483:4487   */\n  dup7\n    /* \"#utility.yul\":4451:4488   */\n  tag_20\n  jump\t// in\ntag_102:\n    /* \"#utility.yul\":4510:4511   */\n  0x00\n    /* \"#utility.yul\":4524:4732   */\ntag_103:\n    /* \"#utility.yul\":4538:4545   */\n  dup3\n    /* \"#utility.yul\":4535:4536   */\n  dup2\n    /* \"#utility.yul\":4532:4546   */\n  lt\n    /* \"#utility.yul\":4524:4732   */\n  iszero\n  tag_105\n  jumpi\n    /* \"#utility.yul\":4617:4626   */\n  dup5\n    /* \"#utility.yul\":4612:4615   */\n  dup10\n    /* \"#utility.yul\":4608:4627   */\n  add\n    /* \"#utility.yul\":4602:4628   */\n  mload\n    /* \"#utility.yul\":4594:4600   */\n  dup3\n    /* \"#utility.yul\":4587:4629   */\n  sstore\n    /* \"#utility.yul\":4668:4669   */\n  0x01\n    /* \"#utility.yul\":4660:4666   */\n  dup3\n    /* \"#utility.yul\":4656:4670   */\n  add\n    /* \"#utility.yul\":4646:4670   */\n  swap2\n  pop\n    /* \"#utility.yul\":4715:4717   */\n  0x20\n    /* \"#utility.yul\":4704:4713   */\n  dup6\n    /* \"#utility.yul\":4700:4718   */\n  add\n    /* \"#utility.yul\":4687:4718   */\n  swap5\n  pop\n    /* \"#utility.yul\":4561:4565   */\n  0x20\n    /* \"#utility.yul\":4558:4559   */\n  dup2\n    /* \"#utility.yul\":4554:4566   */\n  add\n    /* \"#utility.yul\":4549:4566   */\n  swap1\n  pop\n    /* \"#utility.yul\":4524:4732   */\n  jump(tag_103)\ntag_105:\n    /* \"#utility.yul\":4760:4766   */\n  dup7\n    /* \"#utility.yul\":4751:4758   */\n  dup4\n    /* \"#utility.yul\":4748:4767   */\n  lt\n    /* \"#utility.yul\":4745:4924   */\n  iszero\n  tag_106\n  jumpi\n    /* \"#utility.yul\":4818:4827   */\n  dup5\n    /* \"#utility.yul\":4813:4816   */\n  dup10\n    /* \"#utility.yul\":4809:4828   */\n  add\n    /* \"#utility.yul\":4803:4829   */\n  mload\n    /* \"#utility.yul\":4861:4909   */\n  tag_107\n    /* \"#utility.yul\":4903:4907   */\n  0x1f\n    /* \"#utility.yul\":4895:4901   */\n  dup10\n    /* \"#utility.yul\":4891:4908   */\n  and\n    /* \"#utility.yul\":4880:4889   */\n  dup3\n    /* \"#utility.yul\":4861:4909   */\n  tag_34\n  jump\t// in\ntag_107:\n    /* \"#utility.yul\":4853:4859   */\n  dup4\n    /* \"#utility.yul\":4846:4910   */\n  sstore\n    /* \"#utility.yul\":4768:4924   */\n  pop\n    /* \"#utility.yul\":4745:4924   */\ntag_106:\n    /* \"#utility.yul\":4970:4971   */\n  0x01\n    /* \"#utility.yul\":4966:4967   */\n  0x02\n    /* \"#utility.yul\":4958:4964   */\n  dup9\n    /* \"#utility.yul\":4954:4968   */\n  mul\n    /* \"#utility.yul\":4950:4972   */\n  add\n    /* \"#utility.yul\":4944:4948   */\n  dup9\n    /* \"#utility.yul\":4937:4973   */\n  sstore\n    /* \"#utility.yul\":4372:4983   */\n  pop\n  pop\n  pop\n    /* \"#utility.yul\":4335:5222   */\ntag_98:\n  pop\n    /* \"#utility.yul\":3925:5228   */\n  pop\n  pop\n  pop\n    /* \"#utility.yul\":3833:5228   */\n  pop\n  pop\n  jump\t// out\n    /* \"#utility.yul\":5315:5432   */\ntag_37:\n    /* \"#utility.yul\":5424:5425   */\n  0x00\n    /* \"#utility.yul\":5421:5422   */\n  0x00\n    /* \"#utility.yul\":5414:5426   */\n  revert\n    /* \"#utility.yul\":5561:5683   */\ntag_39:\n    /* \"#utility.yul\":5634:5658   */\n  tag_112\n    /* \"#utility.yul\":5652:5657   */\n  dup2\n    /* \"#utility.yul\":5634:5658   */\n  tag_24\n  jump\t// in\ntag_112:\n    /* \"#utility.yul\":5627:5632   */\n  dup2\n    /* \"#utility.yul\":5624:5659   */\n  eq\n    /* \"#utility.yul\":5614:5677   */\n  tag_113\n  jumpi\n    /* \"#utility.yul\":5673:5674   */\n  0x00\n    /* \"#utility.yul\":5670:5671   */\n  0x00\n    /* \"#utility.yul\":5663:5675   */\n  revert\n    /* \"#utility.yul\":5614:5677   */\ntag_113:\n    /* \"#utility.yul\":5561:5683   */\n  pop\n  jump\t// out\n    /* \"#utility.yul\":5689:5832   */\ntag_40:\n    /* \"#utility.yul\":5746:5751   */\n  0x00\n    /* \"#utility.yul\":5777:5783   */\n  dup2\n    /* \"#utility.yul\":5771:5784   */\n  mload\n    /* \"#utility.yul\":5762:5784   */\n  swap1\n  pop\n    /* \"#utility.yul\":5793:5826   */\n  tag_115\n    /* \"#utility.yul\":5820:5825   */\n  dup2\n    /* \"#utility.yul\":5793:5826   */\n  tag_39\n  jump\t// in\ntag_115:\n    /* \"#utility.yul\":5689:5832   */\n  swap3\n  swap2\n  pop\n  pop\n  jump\t// out\n    /* \"#utility.yul\":5838:6189   */\ntag_6:\n    /* \"#utility.yul\":5908:5914   */\n  0x00\n    /* \"#utility.yul\":5957:5959   */\n  0x20\n    /* \"#utility.yul\":5945:5954   */\n  dup3\n    /* \"#utility.yul\":5936:5943   */\n  dup5\n    /* \"#utility.yul\":5932:5955   */\n  sub\n    /* \"#utility.yul\":5928:5960   */\n  slt\n    /* \"#utility.yul\":5925:6044   */\n  iszero\n  tag_117\n  jumpi\n    /* \"#utility.yul\":5963:6042   */\n  tag_118\n  tag_37\n  jump\t// in\ntag_118:\n    /* \"#utility.yul\":5925:6044   */\ntag_117:\n    /* \"#utility.yul\":6083:6084   */\n  0x00\n    /* \"#utility.yul\":6108:6172   */\n  tag_119\n    /* \"#utility.yul\":6164:6171   */\n  dup5\n    /* \"#utility.yul\":6155:6161   */\n  dup3\n    /* \"#utility.yul\":6144:6153   */\n  dup6\n    /* \"#utility.yul\":6140:6162   */\n  add\n    /* \"#utility.yul\":6108:6172   */\n  tag_40\n  jump\t// in\ntag_119:\n    /* \"#utility.yul\":6098:6172   */\n  swap2\n  pop\n    /* \"#utility.yul\":6054:6182   */\n  pop\n    /* \"#utility.yul\":5838:6189   */\n  swap3\n  swap2\n  pop\n  pop\n  jump\t// out\n    /* \"#utility.yul\":6195:6375   */\ntag_41:\n    /* \"#utility.yul\":6243:6320   */\n  0x4e487b7100000000000000000000000000000000000000000000000000000000\n    /* \"#utility.yul\":6240:6241   */\n  0x00\n    /* \"#utility.yul\":6233:6321   */\n  mstore\n    /* \"#utility.yul\":6340:6344   */\n  0x11\n    /* \"#utility.yul\":6337:6338   */\n  0x04\n    /* \"#utility.yul\":6330:6345   */\n  mstore\n    /* \"#utility.yul\":6364:6368   */\n  0x24\n    /* \"#utility.yul\":6361:6362   */\n  0x00\n    /* \"#utility.yul\":6354:6369   */\n  revert\n    /* \"#utility.yul\":6381:6483   */\ntag_42:\n    /* \"#utility.yul\":6423:6431   */\n  0x00\n    /* \"#utility.yul\":6470:6475   */\n  dup2\n    /* \"#utility.yul\":6467:6468   */\n  0x01\n    /* \"#utility.yul\":6463:6476   */\n  shr\n    /* \"#utility.yul\":6442:6476   */\n  swap1\n  pop\n    /* \"#utility.yul\":6381:6483   */\n  swap2\n  swap1\n  pop\n  jump\t// out\n    /* \"#utility.yul\":6489:7337   */\ntag_43:\n    /* \"#utility.yul\":6550:6555   */\n  0x00\n    /* \"#utility.yul\":6557:6561   */\n  0x00\n    /* \"#utility.yul\":6581:6587   */\n  dup3\n    /* \"#utility.yul\":6572:6587   */\n  swap2\n  pop\n    /* \"#utility.yul\":6605:6610   */\n  dup4\n    /* \"#utility.yul\":6596:6610   */\n  swap1\n  pop\n    /* \"#utility.yul\":6619:7331   */\ntag_123:\n    /* \"#utility.yul\":6640:6641   */\n  0x01\n    /* \"#utility.yul\":6630:6638   */\n  dup6\n    /* \"#utility.yul\":6627:6642   */\n  gt\n    /* \"#utility.yul\":6619:7331   */\n  iszero\n  tag_125\n  jumpi\n    /* \"#utility.yul\":6735:6739   */\n  dup1\n    /* \"#utility.yul\":6730:6733   */\n  dup7\n    /* \"#utility.yul\":6726:6740   */\n  div\n    /* \"#utility.yul\":6720:6724   */\n  dup2\n    /* \"#utility.yul\":6717:6741   */\n  gt\n    /* \"#utility.yul\":6714:6764   */\n  iszero\n  tag_126\n  jumpi\n    /* \"#utility.yul\":6744:6762   */\n  tag_127\n  tag_41\n  jump\t// in\ntag_127:\n    /* \"#utility.yul\":6714:6764   */\ntag_126:\n    /* \"#utility.yul\":6794:6795   */\n  0x01\n    /* \"#utility.yul\":6784:6792   */\n  dup6\n    /* \"#utility.yul\":6780:6796   */\n  and\n    /* \"#utility.yul\":6777:7228   */\n  iszero\n  tag_128\n  jumpi\n    /* \"#utility.yul\":7209:7213   */\n  dup1\n    /* \"#utility.yul\":7202:7207   */\n  dup3\n    /* \"#utility.yul\":7198:7214   */\n  mul\n    /* \"#utility.yul\":7189:7214   */\n  swap2\n  pop\n    /* \"#utility.yul\":6777:7228   */\ntag_128:\n    /* \"#utility.yul\":7259:7263   */\n  dup1\n    /* \"#utility.yul\":7253:7257   */\n  dup2\n    /* \"#utility.yul\":7249:7264   */\n  mul\n    /* \"#utility.yul\":7241:7264   */\n  swap1\n  pop\n    /* \"#utility.yul\":7289:7321   */\n  tag_129\n    /* \"#utility.yul\":7312:7320   */\n  dup6\n    /* \"#utility.yul\":7289:7321   */\n  tag_42\n  jump\t// in\ntag_129:\n    /* \"#utility.yul\":7277:7321   */\n  swap5\n  pop\n    /* \"#utility.yul\":6619:7331   */\n  jump(tag_123)\ntag_125:\n    /* \"#utility.yul\":6489:7337   */\n  swap5\n  pop\n  swap5\n  swap3\n  pop\n  pop\n  pop\n  jump\t// out\n    /* \"#utility.yul\":7343:8416   */\ntag_44:\n    /* \"#utility.yul\":7397:7402   */\n  0x00\n    /* \"#utility.yul\":7588:7596   */\n  dup3\n    /* \"#utility.yul\":7578:7618   */\n  tag_131\n  jumpi\n    /* \"#utility.yul\":7609:7610   */\n  0x01\n    /* \"#utility.yul\":7600:7610   */\n  swap1\n  pop\n    /* \"#utility.yul\":7611:7616   */\n  jump(tag_130)\n    /* \"#utility.yul\":7578:7618   */\ntag_131:\n    /* \"#utility.yul\":7637:7641   */\n  dup2\n    /* \"#utility.yul\":7627:7663   */\n  tag_132\n  jumpi\n    /* \"#utility.yul\":7654:7655   */\n  0x00\n    /* \"#utility.yul\":7645:7655   */\n  swap1\n  pop\n    /* \"#utility.yul\":7656:7661   */\n  jump(tag_130)\n    /* \"#utility.yul\":7627:7663   */\ntag_132:\n    /* \"#utility.yul\":7723:7727   */\n  dup2\n    /* \"#utility.yul\":7771:7772   */\n  0x01\n    /* \"#utility.yul\":7766:7793   */\n  dup2\n  eq\n  tag_134\n  jumpi\n    /* \"#utility.yul\":7807:7808   */\n  0x02\n    /* \"#utility.yul\":7802:7993   */\n  dup2\n  eq\n  tag_135\n  jumpi\n    /* \"#utility.yul\":7716:7993   */\n  jump(tag_133)\n    /* \"#utility.yul\":7766:7793   */\ntag_134:\n    /* \"#utility.yul\":7784:7785   */\n  0x01\n    /* \"#utility.yul\":7775:7785   */\n  swap2\n  pop\n    /* \"#utility.yul\":7786:7791   */\n  pop\n  jump(tag_130)\n    /* \"#utility.yul\":7802:7993   */\ntag_135:\n    /* \"#utility.yul\":7847:7850   */\n  0xff\n    /* \"#utility.yul\":7837:7845   */\n  dup5\n    /* \"#utility.yul\":7834:7851   */\n  gt\n    /* \"#utility.yul\":7831:7874   */\n  iszero\n  tag_136\n  jumpi\n    /* \"#utility.yul\":7854:7872   */\n  tag_137\n  tag_41\n  jump\t// in\ntag_137:\n    /* \"#utility.yul\":7831:7874   */\ntag_136:\n    /* \"#utility.yul\":7903:7911   */\n  dup4\n    /* \"#utility.yul\":7900:7901   */\n  0x02\n    /* \"#utility.yul\":7896:7912   */\n  exp\n    /* \"#utility.yul\":7887:7912   */\n  swap2\n  pop\n    /* \"#utility.yul\":7938:7941   */\n  dup5\n    /* \"#utility.yul\":7931:7936   */\n  dup3\n    /* \"#utility.yul\":7928:7942   */\n  gt\n    /* \"#utility.yul\":7925:7965   */\n  iszero\n  tag_138\n  jumpi\n    /* \"#utility.yul\":7945:7963   */\n  tag_139\n  tag_41\n  jump\t// in\ntag_139:\n    /* \"#utility.yul\":7925:7965   */\ntag_138:\n    /* \"#utility.yul\":7978:7983   */\n  pop\n  jump(tag_130)\n    /* \"#utility.yul\":7716:7993   */\ntag_133:\n  pop\n    /* \"#utility.yul\":8102:8104   */\n  0x20\n    /* \"#utility.yul\":8092:8100   */\n  dup4\n    /* \"#utility.yul\":8089:8105   */\n  lt\n    /* \"#utility.yul\":8083:8086   */\n  0x0133\n    /* \"#utility.yul\":8077:8081   */\n  dup4\n    /* \"#utility.yul\":8074:8087   */\n  lt\n    /* \"#utility.yul\":8070:8106   */\n  and\n    /* \"#utility.yul\":8052:8054   */\n  0x4e\n    /* \"#utility.yul\":8042:8050   */\n  dup5\n    /* \"#utility.yul\":8039:8055   */\n  lt\n    /* \"#utility.yul\":8034:8036   */\n  0x0b\n    /* \"#utility.yul\":8028:8032   */\n  dup5\n    /* \"#utility.yul\":8025:8037   */\n  lt\n    /* \"#utility.yul\":8021:8056   */\n  and\n    /* \"#utility.yul\":8005:8116   */\n  or\n    /* \"#utility.yul\":8002:8248   */\n  iszero\n  tag_140\n  jumpi\n    /* \"#utility.yul\":8158:8166   */\n  dup3\n    /* \"#utility.yul\":8152:8156   */\n  dup3\n    /* \"#utility.yul\":8148:8167   */\n  exp\n    /* \"#utility.yul\":8139:8167   */\n  swap1\n  pop\n    /* \"#utility.yul\":8193:8196   */\n  dup4\n    /* \"#utility.yul\":8186:8191   */\n  dup2\n    /* \"#utility.yul\":8183:8197   */\n  gt\n    /* \"#utility.yul\":8180:8220   */\n  iszero\n  tag_141\n  jumpi\n    /* \"#utility.yul\":8200:8218   */\n  tag_142\n  tag_41\n  jump\t// in\ntag_142:\n    /* \"#utility.yul\":8180:8220   */\ntag_141:\n    /* \"#utility.yul\":8233:8238   */\n  jump(tag_130)\n    /* \"#utility.yul\":8002:8248   */\ntag_140:\n    /* \"#utility.yul\":8273:8315   */\n  tag_143\n    /* \"#utility.yul\":8311:8314   */\n  dup5\n    /* \"#utility.yul\":8301:8309   */\n  dup5\n    /* \"#utility.yul\":8295:8299   */\n  dup5\n    /* \"#utility.yul\":8292:8293   */\n  0x01\n    /* \"#utility.yul\":8273:8315   */\n  tag_43\n  jump\t// in\ntag_143:\n    /* \"#utility.yul\":8258:8315   */\n  swap3\n  pop\n  swap1\n  pop\n    /* \"#utility.yul\":8347:8351   */\n  dup2\n    /* \"#utility.yul\":8342:8345   */\n  dup5\n    /* \"#utility.yul\":8338:8352   */\n  div\n    /* \"#utility.yul\":8331:8336   */\n  dup2\n    /* \"#utility.yul\":8328:8353   */\n  gt\n    /* \"#utility.yul\":8325:8376   */\n  iszero\n  tag_144\n  jumpi\n    /* \"#utility.yul\":8356:8374   */\n  tag_145\n  tag_41\n  jump\t// in\ntag_145:\n    /* \"#utility.yul\":8325:8376   */\ntag_144:\n    /* \"#utility.yul\":8405:8409   */\n  dup2\n    /* \"#utility.yul\":8398:8403   */\n  dup2\n    /* \"#utility.yul\":8394:8410   */\n  mul\n    /* \"#utility.yul\":8385:8410   */\n  swap1\n  pop\n    /* \"#utility.yul\":7343:8416   */\ntag_130:\n  swap4\n  swap3\n  pop\n  pop\n  pop\n  jump\t// out\n    /* \"#utility.yul\":8422:8707   */\ntag_10:\n    /* \"#utility.yul\":8482:8487   */\n  0x00\n    /* \"#utility.yul\":8506:8529   */\n  tag_147\n    /* \"#utility.yul\":8524:8528   */\n  dup3\n    /* \"#utility.yul\":8506:8529   */\n  tag_24\n  jump\t// in\ntag_147:\n    /* \"#utility.yul\":8498:8529   */\n  swap2\n  pop\n    /* \"#utility.yul\":8550:8577   */\n  tag_148\n    /* \"#utility.yul\":8568:8576   */\n  dup4\n    /* \"#utility.yul\":8550:8577   */\n  tag_24\n  jump\t// in\ntag_148:\n    /* \"#utility.yul\":8538:8577   */\n  swap3\n  pop\n    /* \"#utility.yul\":8596:8700   */\n  tag_149\n    /* \"#utility.yul\":8633:8699   */\n  0xffffffffffffffffffffffffffffffffffffffffffffffffffffffffffffffff\n    /* \"#utility.yul\":8623:8631   */\n  dup5\n    /* \"#utility.yul\":8617:8621   */\n  dup5\n    /* \"#utility.yul\":8596:8700   */\n  tag_44\n  jump\t// in\ntag_149:\n    /* \"#utility.yul\":8587:8700   */\n  swap1\n  pop\n    /* \"#utility.yul\":8422:8707   */\n  swap3\n  swap2\n  pop\n  pop\n  jump\t// out\n    /* \"#utility.yul\":8713:9123   */\ntag_12:\n    /* \"#utility.yul\":8753:8760   */\n  0x00\n    /* \"#utility.yul\":8776:8796   */\n  tag_151\n    /* \"#utility.yul\":8794:8795   */\n  dup3\n    /* \"#utility.yul\":8776:8796   */\n  tag_24\n  jump\t// in\ntag_151:\n    /* \"#utility.yul\":8771:8796   */\n  swap2\n  pop\n    /* \"#utility.yul\":8810:8830   */\n  tag_152\n    /* \"#utility.yul\":8828:8829   */\n  dup4\n    /* \"#utility.yul\":8810:8830   */\n  tag_24\n  jump\t// in\ntag_152:\n    /* \"#utility.yul\":8805:8830   */\n  swap3\n  pop\n    /* \"#utility.yul\":8865:8866   */\n  dup3\n    /* \"#utility.yul\":8862:8863   */\n  dup3\n    /* \"#utility.yul\":8858:8867   */\n  mul\n    /* \"#utility.yul\":8887:8917   */\n  tag_153\n    /* \"#utility.yul\":8905:8916   */\n  dup2\n    /* \"#utility.yul\":8887:8917   */\n  tag_24\n  jump\t// in\ntag_153:\n    /* \"#utility.yul\":8876:8917   */\n  swap2\n  pop\n    /* \"#utility.yul\":9066:9067   */\n  dup3\n    /* \"#utility.yul\":9057:9064   */\n  dup3\n    /* \"#utility.yul\":9053:9068   */\n  div\n    /* \"#utility.yul\":9050:9051   */\n  dup5\n    /* \"#utility.yul\":9047:9069   */\n  eq\n    /* \"#utility.yul\":9027:9028   */\n  dup4\n    /* \"#utility.yul\":9020:9029   */\n  iszero\n    /* \"#utility.yul\":9000:9083   */\n  or\n    /* \"#utility.yul\":8977:9116   */\n  tag_154\n  jumpi\n    /* \"#utility.yul\":9096:9114   */\n  tag_155\n  tag_41\n  jump\t// in\ntag_155:\n    /* \"#utility.yul\":8977:9116   */\ntag_154:\n    /* \"#utility.yul\":8761:9123   */\n  pop\n    /* \"#utility.yul\":8713:9123   */\n  swap3\n  swap2\n  pop\n  pop\n  jump\t// out\n    /* \"#utility.yul\":9129:9247   */\ntag_45:\n    /* \"#utility.yul\":9216:9240   */\n  tag_157\n    /* \"#utility.yul\":9234:9239   */\n  dup2\n    /* \"#utility.yul\":9216:9240   */\n  tag_24\n  jump\t// in\ntag_157:\n    /* \"#utility.yul\":9211:9214   */\n  dup3\n    /* \"#utility.yul\":9204:9241   */\n  mstore\n    /* \"#utility.yul\":9129:9247   */\n  pop\n  pop\n  jump\t// out\n    /* \"#utility.yul\":9253:9475   */\ntag_14:\n    /* \"#utility.yul\":9346:9350   */\n  0x00\n    /* \"#utility.yul\":9384:9386   */\n  0x20\n    /* \"#utility.yul\":9373:9382   */\n  dup3\n    /* \"#utility.yul\":9369:9387   */\n  add\n    /* \"#utility.yul\":9361:9387   */\n  swap1\n  pop\n    /* \"#utility.yul\":9397:9468   */\n  tag_159\n    /* \"#utility.yul\":9465:9466   */\n  0x00\n    /* \"#utility.yul\":9454:9463   */\n  dup4\n    /* \"#utility.yul\":9450:9467   */\n  add\n    /* \"#utility.yul\":9441:9447   */\n  dup5\n    /* \"#utility.yul\":9397:9468   */\n  tag_45\n  jump\t// in\ntag_159:\n    /* \"#utility.yul\":9253:9475   */\n  swap3\n  swap2\n  pop\n  pop\n  jump\t// out\n    /* \"contracts/task2/01 job1.sol\":61:4294  contract MyERC20 {... */\ntag_15:\n  dataSize(sub_0)\n  dup1\n  dataOffset(sub_0)\n  0x00\n  codecopy\n  0x00\n  return\nstop\n\nsub_0: assembly {\n        /* \"contracts/task2/01 job1.sol\":61:4294  contract MyERC20 {... */\n      mstore(0x40, 0x80)\n      callvalue\n      dup1\n      iszero\n      tag_1\n      jumpi\n      revert(0x00, 0x00)\n    tag_1:\n      pop\n      jumpi(tag_2, lt(calldatasize, 0x04))\n      shr(0xe0, calldataload(0x00))\n      dup1\n      0x76809ce3\n      gt\n      tag_19\n      jumpi\n      dup1\n      0x95d89b41\n      gt\n      tag_20\n      jumpi\n      dup1\n      0x95d89b41\n      eq\n      tag_15\n      jumpi\n      dup1\n      0xa9059cbb\n      eq\n      tag_16\n      jumpi\n      dup1\n      0xd7118351\n      eq\n      tag_17\n      jumpi\n      dup1\n      0xdd62ed3e\n      eq\n      tag_18\n      jumpi\n      jump(tag_2)\n    tag_20:\n      dup1\n      0x76809ce3\n      eq\n      tag_11\n      jumpi\n      dup1\n      0x8456cb59\n      eq\n      tag_12\n      jumpi\n      dup1\n      0x88d695b2\n      eq\n      tag_13\n      jumpi\n      dup1\n      0x8da5cb5b\n      eq\n      tag_14\n      jumpi\n      jump(tag_2)\n    tag_19:\n      dup1\n      0x40c10f19\n      gt\n      tag_21\n      jumpi\n      dup1\n      0x40c10f19\n      eq\n      tag_7\n      jumpi\n      dup1\n      0x42966c68\n      eq\n      tag_8\n      jumpi\n      dup1\n      0x70a08231\n      eq\n      tag_9\n      jumpi\n      dup1\n      0x75247a58\n      eq\n      tag_10\n      jumpi\n      jump(tag_2)\n    tag_21:\n      dup1\n      0x06fdde03\n      eq\n      tag_3\n      jumpi\n      dup1\n      0x18160ddd\n      eq\n      tag_4\n      jumpi\n      dup1\n      0x3112ae5b\n      eq\n      tag_5\n      jumpi\n      dup1\n      0x3f4ba83a\n      eq\n      tag_6\n      jumpi\n    tag_2:\n      revert(0x00, 0x00)\n        /* \"contracts/task2/01 job1.sol\":85:117  string public name=\"Young Token\" */\n    tag_3:\n      tag_22\n      tag_23\n      jump\t// in\n    tag_22:\n      mload(0x40)\n      tag_24\n      swap2\n      swap1\n      tag_25\n      jump\t// in\n    tag_24:\n      mload(0x40)\n      dup1\n      swap2\n      sub\n      swap1\n      return\n        /* \"contracts/task2/01 job1.sol\":188:214  uint256 public totalSupply */\n    tag_4:\n      tag_26\n      tag_27\n      jump\t// in\n    tag_26:\n      mload(0x40)\n      tag_28\n      swap2\n      swap1\n      tag_29\n      jump\t// in\n    tag_28:\n      mload(0x40)\n      dup1\n      swap2\n      sub\n      swap1\n      return\n        /* \"contracts/task2/01 job1.sol\":1880:2455  function transferForm(address _from, address _to, uint256 _amount) public isPaused returns (bool){... */\n    tag_5:\n      tag_30\n      0x04\n      dup1\n      calldatasize\n      sub\n      dup2\n      add\n      swap1\n      tag_31\n      swap2\n      swap1\n      tag_32\n      jump\t// in\n    tag_31:\n      tag_33\n      jump\t// in\n    tag_30:\n      mload(0x40)\n      tag_34\n      swap2\n      swap1\n      tag_35\n      jump\t// in\n    tag_34:\n      mload(0x40)\n      dup1\n      swap2\n      sub\n      swap1\n      return\n        /* \"contracts/task2/01 job1.sol\":4116:4289  function unpause() public onlyOwener returns (bool){... */\n    tag_6:\n      tag_36\n      tag_37\n      jump\t// in\n    tag_36:\n      mload(0x40)\n      tag_38\n      swap2\n      swap1\n      tag_35\n      jump\t// in\n    tag_38:\n      mload(0x40)\n      dup1\n      swap2\n      sub\n      swap1\n      return\n        /* \"contracts/task2/01 job1.sol\":2484:2738  function mint(address _to, uint256 _amount) public isPaused onlyOwener{... */\n    tag_7:\n      tag_39\n      0x04\n      dup1\n      calldatasize\n      sub\n      dup2\n      add\n      swap1\n      tag_40\n      swap2\n      swap1\n      tag_41\n      jump\t// in\n    tag_40:\n      tag_42\n      jump\t// in\n    tag_39:\n      stop\n        /* \"contracts/task2/01 job1.sol\":2767:3035  function burn(uint256 _amount) public isPaused {... */\n    tag_8:\n      tag_43\n      0x04\n      dup1\n      calldatasize\n      sub\n      dup2\n      add\n      swap1\n      tag_44\n      swap2\n      swap1\n      tag_45\n      jump\t// in\n    tag_44:\n      tag_46\n      jump\t// in\n    tag_43:\n      stop\n        /* \"contracts/task2/01 job1.sol\":302:345  mapping (address=>uint256) public balanceOf */\n    tag_9:\n      tag_47\n      0x04\n      dup1\n      calldatasize\n      sub\n      dup2\n      add\n      swap1\n      tag_48\n      swap2\n      swap1\n      tag_49\n      jump\t// in\n    tag_48:\n      tag_50\n      jump\t// in\n    tag_47:\n      mload(0x40)\n      tag_51\n      swap2\n      swap1\n      tag_29\n      jump\t// in\n    tag_51:\n      mload(0x40)\n      dup1\n      swap2\n      sub\n      swap1\n      return\n        /* \"contracts/task2/01 job1.sol\":1569:1851  function approval(address _spender, uint256 _amount) public isPaused returns (bool){... */\n    tag_10:\n      tag_52\n      0x04\n      dup1\n      calldatasize\n      sub\n      dup2\n      add\n      swap1\n      tag_53\n      swap2\n      swap1\n      tag_41\n      jump\t// in\n    tag_53:\n      tag_54\n      jump\t// in\n    tag_52:\n      mload(0x40)\n      tag_55\n      swap2\n      swap1\n      tag_35\n      jump\t// in\n    tag_55:\n      mload(0x40)\n      dup1\n      swap2\n      sub\n      swap1\n      return\n        /* \"contracts/task2/01 job1.sol\":157:181  uint public decimal = 18 */\n    tag_11:\n      tag_56\n      tag_57\n      jump\t// in\n    tag_56:\n      mload(0x40)\n      tag_58\n      swap2\n      swap1\n      tag_29\n      jump\t// in\n    tag_58:\n      mload(0x40)\n      dup1\n      swap2\n      sub\n      swap1\n      return\n        /* \"contracts/task2/01 job1.sol\":3937:4104  function pause() public onlyOwener returns (bool){... */\n    tag_12:\n      tag_59\n      tag_60\n      jump\t// in\n    tag_59:\n      mload(0x40)\n      tag_61\n      swap2\n      swap1\n      tag_35\n      jump\t// in\n    tag_61:\n      mload(0x40)\n      dup1\n      swap2\n      sub\n      swap1\n      return\n        /* \"contracts/task2/01 job1.sol\":3064:3929  function batchTransfer(address[] memory _recipients, uint256[] memory _amounts) public isPaused returns (bool){... */\n    tag_13:\n      tag_62\n      0x04\n      dup1\n      calldatasize\n      sub\n      dup2\n      add\n      swap1\n      tag_63\n      swap2\n      swap1\n      tag_64\n      jump\t// in\n    tag_63:\n      tag_65\n      jump\t// in\n    tag_62:\n      mload(0x40)\n      tag_66\n      swap2\n      swap1\n      tag_35\n      jump\t// in\n    tag_66:\n      mload(0x40)\n      dup1\n      swap2\n      sub\n      swap1\n      return\n        /* \"contracts/task2/01 job1.sol\":221:241  address public owner */\n    tag_14:\n      tag_67\n      tag_68\n      jump\t// in\n    tag_67:\n      mload(0x40)\n      tag_69\n      swap2\n      swap1\n      tag_70\n      jump\t// in\n    tag_69:\n      mload(0x40)\n      dup1\n      swap2\n      sub\n      swap1\n      return\n        /* \"contracts/task2/01 job1.sol\":124:150  string public symbol=\"YTK\" */\n    tag_15:\n      tag_71\n      tag_72\n      jump\t// in\n    tag_71:\n      mload(0x40)\n      tag_73\n      swap2\n      swap1\n      tag_25\n      jump\t// in\n    tag_73:\n      mload(0x40)\n      dup1\n      swap2\n      sub\n      swap1\n      return\n        /* \"contracts/task2/01 job1.sol\":1094:1546  function transfer(address _to, uint256 _amount) public isPaused returns (bool){... */\n    tag_16:\n      tag_74\n      0x04\n      dup1\n      calldatasize\n      sub\n      dup2\n      add\n      swap1\n      tag_75\n      swap2\n      swap1\n      tag_41\n      jump\t// in\n    tag_75:\n      tag_76\n      jump\t// in\n    tag_74:\n      mload(0x40)\n      tag_77\n      swap2\n      swap1\n      tag_35\n      jump\t// in\n    tag_77:\n      mload(0x40)\n      dup1\n      swap2\n      sub\n      swap1\n      return\n        /* \"contracts/task2/01 job1.sol\":248:278  bool public pauseState = false */\n    tag_17:\n      tag_78\n      tag_79\n      jump\t// in\n    tag_78:\n      mload(0x40)\n      tag_80\n      swap2\n      swap1\n      tag_35\n      jump\t// in\n    tag_80:\n      mload(0x40)\n      dup1\n      swap2\n      sub\n      swap1\n      return\n        /* \"contracts/task2/01 job1.sol\":373:435  mapping (address=>mapping (address=>uint256)) public allowance */\n    tag_18:\n      tag_81\n      0x04\n      dup1\n      calldatasize\n      sub\n      dup2\n      add\n      swap1\n      tag_82\n      swap2\n      swap1\n      tag_83\n      jump\t// in\n    tag_82:\n      tag_84\n      jump\t// in\n    tag_81:\n      mload(0x40)\n      tag_85\n      swap2\n      swap1\n      tag_29\n      jump\t// in\n    tag_85:\n      mload(0x40)\n      dup1\n      swap2\n      sub\n      swap1\n      return\n        /* \"contracts/task2/01 job1.sol\":85:117  string public name=\"Young Token\" */\n    tag_23:\n      0x00\n      dup1\n      sload\n      tag_86\n      swap1\n      tag_87\n      jump\t// in\n    tag_86:\n      dup1\n      0x1f\n      add\n      0x20\n      dup1\n      swap2\n      div\n      mul\n      0x20\n      add\n      mload(0x40)\n      swap1\n      dup2\n      add\n      0x40\n      mstore\n      dup1\n      swap3\n      swap2\n      swap1\n      dup2\n      dup2\n      mstore\n      0x20\n      add\n      dup3\n      dup1\n      sload\n      tag_88\n      swap1\n      tag_87\n      jump\t// in\n    tag_88:\n      dup1\n      iszero\n      tag_89\n      jumpi\n      dup1\n      0x1f\n      lt\n      tag_90\n      jumpi\n      0x0100\n      dup1\n      dup4\n      sload\n      div\n      mul\n      dup4\n      mstore\n      swap2\n      0x20\n      add\n      swap2\n      jump(tag_89)\n    tag_90:\n      dup3\n      add\n      swap2\n      swap1\n      0x00\n      mstore\n      keccak256(0x00, 0x20)\n      swap1\n    tag_91:\n      dup2\n      sload\n      dup2\n      mstore\n      swap1\n      0x01\n      add\n      swap1\n      0x20\n      add\n      dup1\n      dup4\n      gt\n      tag_91\n      jumpi\n      dup3\n      swap1\n      sub\n      0x1f\n      and\n      dup3\n      add\n      swap2\n    tag_89:\n      pop\n      pop\n      pop\n      pop\n      pop\n      dup2\n      jump\t// out\n        /* \"contracts/task2/01 job1.sol\":188:214  uint256 public totalSupply */\n    tag_27:\n      sload(0x03)\n      dup2\n      jump\t// out\n        /* \"contracts/task2/01 job1.sol\":1880:2455  function transferForm(address _from, address _to, uint256 _amount) public isPaused returns (bool){... */\n    tag_33:\n        /* \"contracts/task2/01 job1.sol\":1972:1976  bool */\n      0x00\n        /* \"contracts/task2/01 job1.sol\":1022:1032  pauseState */\n      0x04\n      0x14\n      swap1\n      sload\n      swap1\n      0x0100\n      exp\n      swap1\n      div\n      0xff\n      and\n        /* \"contracts/task2/01 job1.sol\":1021:1032  !pauseState */\n      iszero\n        /* \"contracts/task2/01 job1.sol\":1013:1051  require(!pauseState,\"Transfer paused\") */\n      tag_93\n      jumpi\n      mload(0x40)\n      0x08c379a000000000000000000000000000000000000000000000000000000000\n      dup2\n      mstore\n      0x04\n      add\n      tag_94\n      swap1\n      tag_95\n      jump\t// in\n    tag_94:\n      mload(0x40)\n      dup1\n      swap2\n      sub\n      swap1\n      revert\n    tag_93:\n        /* \"contracts/task2/01 job1.sol\":2013:2014  0 */\n      0x00\n        /* \"contracts/task2/01 job1.sol\":1996:2015  _from != address(0) */\n      0xffffffffffffffffffffffffffffffffffffffff\n      and\n        /* \"contracts/task2/01 job1.sol\":1996:2001  _from */\n      dup5\n        /* \"contracts/task2/01 job1.sol\":1996:2015  _from != address(0) */\n      0xffffffffffffffffffffffffffffffffffffffff\n      and\n      sub\n        /* \"contracts/task2/01 job1.sol\":1988:2040  require(_from != address(0), \"From is zero address\") */\n      tag_97\n      jumpi\n      mload(0x40)\n      0x08c379a000000000000000000000000000000000000000000000000000000000\n      dup2\n      mstore\n      0x04\n      add\n      tag_98\n      swap1\n      tag_99\n      jump\t// in\n    tag_98:\n      mload(0x40)\n      dup1\n      swap2\n      sub\n      swap1\n      revert\n    tag_97:\n        /* \"contracts/task2/01 job1.sol\":2074:2075  0 */\n      0x00\n        /* \"contracts/task2/01 job1.sol\":2059:2076  _to != address(0) */\n      0xffffffffffffffffffffffffffffffffffffffff\n      and\n        /* \"contracts/task2/01 job1.sol\":2059:2062  _to */\n      dup4\n        /* \"contracts/task2/01 job1.sol\":2059:2076  _to != address(0) */\n      0xffffffffffffffffffffffffffffffffffffffff\n      and\n      sub\n        /* \"contracts/task2/01 job1.sol\":2051:2099  require(_to != address(0), \"To is zero address\") */\n      tag_100\n      jumpi\n      mload(0x40)\n      0x08c379a000000000000000000000000000000000000000000000000000000000\n      dup2\n      mstore\n      0x04\n      add\n      tag_101\n      swap1\n      tag_102\n      jump\t// in\n    tag_101:\n      mload(0x40)\n      dup1\n      swap2\n      sub\n      swap1\n      revert\n    tag_100:\n        /* \"contracts/task2/01 job1.sol\":2138:2145  _amount */\n      dup2\n        /* \"contracts/task2/01 job1.sol\":2118:2127  balanceOf */\n      0x05\n        /* \"contracts/task2/01 job1.sol\":2118:2134  balanceOf[_from] */\n      0x00\n        /* \"contracts/task2/01 job1.sol\":2128:2133  _from */\n      dup7\n        /* \"contracts/task2/01 job1.sol\":2118:2134  balanceOf[_from] */\n      0xffffffffffffffffffffffffffffffffffffffff\n      and\n      0xffffffffffffffffffffffffffffffffffffffff\n      and\n      dup2\n      mstore\n      0x20\n      add\n      swap1\n      dup2\n      mstore\n      0x20\n      add\n      0x00\n      keccak256\n      sload\n        /* \"contracts/task2/01 job1.sol\":2118:2145  balanceOf[_from] >= _amount */\n      lt\n      iszero\n        /* \"contracts/task2/01 job1.sol\":2110:2170  require(balanceOf[_from] >= _amount, \"Insufficient balance\") */\n      tag_103\n      jumpi\n      mload(0x40)\n      0x08c379a000000000000000000000000000000000000000000000000000000000\n      dup2\n      mstore\n      0x04\n      add\n      tag_104\n      swap1\n      tag_105\n      jump\t// in\n    tag_104:\n      mload(0x40)\n      dup1\n      swap2\n      sub\n      swap1\n      revert\n    tag_103:\n        /* \"contracts/task2/01 job1.sol\":2221:2228  _amount */\n      dup2\n        /* \"contracts/task2/01 job1.sol\":2189:2198  allowance */\n      0x06\n        /* \"contracts/task2/01 job1.sol\":2189:2205  allowance[_from] */\n      0x00\n        /* \"contracts/task2/01 job1.sol\":2199:2204  _from */\n      dup7\n        /* \"contracts/task2/01 job1.sol\":2189:2205  allowance[_from] */\n      0xffffffffffffffffffffffffffffffffffffffff\n      and\n      0xffffffffffffffffffffffffffffffffffffffff\n      and\n      dup2\n      mstore\n      0x20\n      add\n      swap1\n      dup2\n      mstore\n      0x20\n      add\n      0x00\n      keccak256\n        /* \"contracts/task2/01 job1.sol\":2189:2217  allowance[_from][msg.sender] */\n      0x00\n        /* \"contracts/task2/01 job1.sol\":2206:2216  msg.sender */\n      caller\n        /* \"contracts/task2/01 job1.sol\":2189:2217  allowance[_from][msg.sender] */\n      0xffffffffffffffffffffffffffffffffffffffff\n      and\n      0xffffffffffffffffffffffffffffffffffffffff\n      and\n      dup2\n      mstore\n      0x20\n      add\n      swap1\n      dup2\n      mstore\n      0x20\n      add\n      0x00\n      keccak256\n      sload\n        /* \"contracts/task2/01 job1.sol\":2189:2228  allowance[_from][msg.sender] >= _amount */\n      lt\n      iszero\n        /* \"contracts/task2/01 job1.sol\":2181:2252  require(allowance[_from][msg.sender] >= _amount, \"Insufficient amount\") */\n      tag_106\n      jumpi\n      mload(0x40)\n      0x08c379a000000000000000000000000000000000000000000000000000000000\n      dup2\n      mstore\n      0x04\n      add\n      tag_107\n      swap1\n      tag_108\n      jump\t// in\n    tag_107:\n      mload(0x40)\n      dup1\n      swap2\n      sub\n      swap1\n      revert\n    tag_106:\n        /* \"contracts/task2/01 job1.sol\":2297:2304  _amount */\n      dup2\n        /* \"contracts/task2/01 job1.sol\":2265:2274  allowance */\n      0x06\n        /* \"contracts/task2/01 job1.sol\":2265:2281  allowance[_from] */\n      0x00\n        /* \"contracts/task2/01 job1.sol\":2275:2280  _from */\n      dup7\n        /* \"contracts/task2/01 job1.sol\":2265:2281  allowance[_from] */\n      0xffffffffffffffffffffffffffffffffffffffff\n      and\n      0xffffffffffffffffffffffffffffffffffffffff\n      and\n      dup2\n      mstore\n      0x20\n      add\n      swap1\n      dup2\n      mstore\n      0x20\n      add\n      0x00\n      keccak256\n        /* \"contracts/task2/01 job1.sol\":2265:2293  allowance[_from][msg.sender] */\n      0x00\n        /* \"contracts/task2/01 job1.sol\":2282:2292  msg.sender */\n      caller\n        /* \"contracts/task2/01 job1.sol\":2265:2293  allowance[_from][msg.sender] */\n      0xffffffffffffffffffffffffffffffffffffffff\n      and\n      0xffffffffffffffffffffffffffffffffffffffff\n      and\n      dup2\n      mstore\n      0x20\n      add\n      swap1\n      dup2\n      mstore\n      0x20\n      add\n      0x00\n      keccak256\n      0x00\n        /* \"contracts/task2/01 job1.sol\":2265:2304  allowance[_from][msg.sender] -= _amount */\n      dup3\n      dup3\n      sload\n      tag_109\n      swap2\n      swap1\n      tag_110\n      jump\t// in\n    tag_109:\n      swap3\n      pop\n      pop\n      dup2\n      swap1\n      sstore\n      pop\n        /* \"contracts/task2/01 job1.sol\":2335:2342  _amount */\n      dup2\n        /* \"contracts/task2/01 job1.sol\":2315:2324  balanceOf */\n      0x05\n        /* \"contracts/task2/01 job1.sol\":2315:2331  balanceOf[_from] */\n      0x00\n        /* \"contracts/task2/01 job1.sol\":2325:2330  _from */\n      dup7\n        /* \"contracts/task2/01 job1.sol\":2315:2331  balanceOf[_from] */\n      0xffffffffffffffffffffffffffffffffffffffff\n      and\n      0xffffffffffffffffffffffffffffffffffffffff\n      and\n      dup2\n      mstore\n      0x20\n      add\n      swap1\n      dup2\n      mstore\n      0x20\n      add\n      0x00\n      keccak256\n      0x00\n        /* \"contracts/task2/01 job1.sol\":2315:2342  balanceOf[_from] -= _amount */\n      dup3\n      dup3\n      sload\n      tag_111\n      swap2\n      swap1\n      tag_110\n      jump\t// in\n    tag_111:\n      swap3\n      pop\n      pop\n      dup2\n      swap1\n      sstore\n      pop\n        /* \"contracts/task2/01 job1.sol\":2371:2378  _amount */\n      dup2\n        /* \"contracts/task2/01 job1.sol\":2353:2362  balanceOf */\n      0x05\n        /* \"contracts/task2/01 job1.sol\":2353:2367  balanceOf[_to] */\n      0x00\n        /* \"contracts/task2/01 job1.sol\":2363:2366  _to */\n      dup6\n        /* \"contracts/task2/01 job1.sol\":2353:2367  balanceOf[_to] */\n      0xffffffffffffffffffffffffffffffffffffffff\n      and\n      0xffffffffffffffffffffffffffffffffffffffff\n      and\n      dup2\n      mstore\n      0x20\n      add\n      swap1\n      dup2\n      mstore\n      0x20\n      add\n      0x00\n      keccak256\n      0x00\n        /* \"contracts/task2/01 job1.sol\":2353:2378  balanceOf[_to] += _amount */\n      dup3\n      dup3\n      sload\n      tag_112\n      swap2\n      swap1\n      tag_113\n      jump\t// in\n    tag_112:\n      swap3\n      pop\n      pop\n      dup2\n      swap1\n      sstore\n      pop\n        /* \"contracts/task2/01 job1.sol\":2412:2415  _to */\n      dup3\n        /* \"contracts/task2/01 job1.sol\":2396:2425  Approval(_from, _to, _amount) */\n      0xffffffffffffffffffffffffffffffffffffffff\n      and\n        /* \"contracts/task2/01 job1.sol\":2405:2410  _from */\n      dup5\n        /* \"contracts/task2/01 job1.sol\":2396:2425  Approval(_from, _to, _amount) */\n      0xffffffffffffffffffffffffffffffffffffffff\n      and\n      0x8c5be1e5ebec7d5bd14f71427d1e84f3dd0314c0f7b2291e5b200ac8c7c3b925\n        /* \"contracts/task2/01 job1.sol\":2417:2424  _amount */\n      dup5\n        /* \"contracts/task2/01 job1.sol\":2396:2425  Approval(_from, _to, _amount) */\n      mload(0x40)\n      tag_114\n      swap2\n      swap1\n      tag_29\n      jump\t// in\n    tag_114:\n      mload(0x40)\n      dup1\n      swap2\n      sub\n      swap1\n      log3\n        /* \"contracts/task2/01 job1.sol\":2443:2447  true */\n      0x01\n        /* \"contracts/task2/01 job1.sol\":2436:2447  return true */\n      swap1\n      pop\n        /* \"contracts/task2/01 job1.sol\":1880:2455  function transferForm(address _from, address _to, uint256 _amount) public isPaused returns (bool){... */\n      swap4\n      swap3\n      pop\n      pop\n      pop\n      jump\t// out\n        /* \"contracts/task2/01 job1.sol\":4116:4289  function unpause() public onlyOwener returns (bool){... */\n    tag_37:\n        /* \"contracts/task2/01 job1.sol\":4162:4166  bool */\n      0x00\n        /* \"contracts/task2/01 job1.sol\":935:940  owner */\n      0x04\n      0x00\n      swap1\n      sload\n      swap1\n      0x0100\n      exp\n      swap1\n      div\n      0xffffffffffffffffffffffffffffffffffffffff\n      and\n        /* \"contracts/task2/01 job1.sol\":921:940  msg.sender == owner */\n      0xffffffffffffffffffffffffffffffffffffffff\n      and\n        /* \"contracts/task2/01 job1.sol\":921:931  msg.sender */\n      caller\n        /* \"contracts/task2/01 job1.sol\":921:940  msg.sender == owner */\n      0xffffffffffffffffffffffffffffffffffffffff\n      and\n      eq\n        /* \"contracts/task2/01 job1.sol\":913:955  require(msg.sender == owner, \"Only Owner\") */\n      tag_116\n      jumpi\n      mload(0x40)\n      0x08c379a000000000000000000000000000000000000000000000000000000000\n      dup2\n      mstore\n      0x04\n      add\n      tag_117\n      swap1\n      tag_118\n      jump\t// in\n    tag_117:\n      mload(0x40)\n      dup1\n      swap2\n      sub\n      swap1\n      revert\n    tag_116:\n        /* \"contracts/task2/01 job1.sol\":4186:4196  pauseState */\n      0x04\n      0x14\n      swap1\n      sload\n      swap1\n      0x0100\n      exp\n      swap1\n      div\n      0xff\n      and\n        /* \"contracts/task2/01 job1.sol\":4178:4224  require(pauseState, \"The state is not paused\") */\n      tag_120\n      jumpi\n      mload(0x40)\n      0x08c379a000000000000000000000000000000000000000000000000000000000\n      dup2\n      mstore\n      0x04\n      add\n      tag_121\n      swap1\n      tag_122\n      jump\t// in\n    tag_121:\n      mload(0x40)\n      dup1\n      swap2\n      sub\n      swap1\n      revert\n    tag_120:\n        /* \"contracts/task2/01 job1.sol\":4248:4253  false */\n      0x00\n        /* \"contracts/task2/01 job1.sol\":4235:4245  pauseState */\n      0x04\n      0x14\n        /* \"contracts/task2/01 job1.sol\":4235:4253  pauseState = false */\n      0x0100\n      exp\n      dup2\n      sload\n      dup2\n      0xff\n      mul\n      not\n      and\n      swap1\n      dup4\n      iszero\n      iszero\n      mul\n      or\n      swap1\n      sstore\n      pop\n        /* \"contracts/task2/01 job1.sol\":4271:4281  pauseState */\n      0x04\n      0x14\n      swap1\n      sload\n      swap1\n      0x0100\n      exp\n      swap1\n      div\n      0xff\n      and\n        /* \"contracts/task2/01 job1.sol\":4264:4281  return pauseState */\n      swap1\n      pop\n        /* \"contracts/task2/01 job1.sol\":4116:4289  function unpause() public onlyOwener returns (bool){... */\n      swap1\n      jump\t// out\n        /* \"contracts/task2/01 job1.sol\":2484:2738  function mint(address _to, uint256 _amount) public isPaused onlyOwener{... */\n    tag_42:\n        /* \"contracts/task2/01 job1.sol\":1022:1032  pauseState */\n      0x04\n      0x14\n      swap1\n      sload\n      swap1\n      0x0100\n      exp\n      swap1\n      div\n      0xff\n      and\n        /* \"contracts/task2/01 job1.sol\":1021:1032  !pauseState */\n      iszero\n        /* \"contracts/task2/01 job1.sol\":1013:1051  require(!pauseState,\"Transfer paused\") */\n      tag_124\n      jumpi\n      mload(0x40)\n      0x08c379a000000000000000000000000000000000000000000000000000000000\n      dup2\n      mstore\n      0x04\n      add\n      tag_125\n      swap1\n      tag_95\n      jump\t// in\n    tag_125:\n      mload(0x40)\n      dup1\n      swap2\n      sub\n      swap1\n      revert\n    tag_124:\n        /* \"contracts/task2/01 job1.sol\":935:940  owner */\n      0x04\n      0x00\n      swap1\n      sload\n      swap1\n      0x0100\n      exp\n      swap1\n      div\n      0xffffffffffffffffffffffffffffffffffffffff\n      and\n        /* \"contracts/task2/01 job1.sol\":921:940  msg.sender == owner */\n      0xffffffffffffffffffffffffffffffffffffffff\n      and\n        /* \"contracts/task2/01 job1.sol\":921:931  msg.sender */\n      caller\n        /* \"contracts/task2/01 job1.sol\":921:940  msg.sender == owner */\n      0xffffffffffffffffffffffffffffffffffffffff\n      and\n      eq\n        /* \"contracts/task2/01 job1.sol\":913:955  require(msg.sender == owner, \"Only Owner\") */\n      tag_127\n      jumpi\n      mload(0x40)\n      0x08c379a000000000000000000000000000000000000000000000000000000000\n      dup2\n      mstore\n      0x04\n      add\n      tag_128\n      swap1\n      tag_118\n      jump\t// in\n    tag_128:\n      mload(0x40)\n      dup1\n      swap2\n      sub\n      swap1\n      revert\n    tag_127:\n        /* \"contracts/task2/01 job1.sol\":2588:2589  0 */\n      0x00\n        /* \"contracts/task2/01 job1.sol\":2573:2590  _to != address(0) */\n      0xffffffffffffffffffffffffffffffffffffffff\n      and\n        /* \"contracts/task2/01 job1.sol\":2573:2576  _to */\n      dup3\n        /* \"contracts/task2/01 job1.sol\":2573:2590  _to != address(0) */\n      0xffffffffffffffffffffffffffffffffffffffff\n      and\n      sub\n        /* \"contracts/task2/01 job1.sol\":2565:2607  require(_to != address(0), \"Zero address\") */\n      tag_130\n      jumpi\n      mload(0x40)\n      0x08c379a000000000000000000000000000000000000000000000000000000000\n      dup2\n      mstore\n      0x04\n      add\n      tag_131\n      swap1\n      tag_132\n      jump\t// in\n    tag_131:\n      mload(0x40)\n      dup1\n      swap2\n      sub\n      swap1\n      revert\n    tag_130:\n        /* \"contracts/task2/01 job1.sol\":2635:2642  _amount */\n      dup1\n        /* \"contracts/task2/01 job1.sol\":2620:2631  totalSupply */\n      0x03\n      0x00\n        /* \"contracts/task2/01 job1.sol\":2620:2642  totalSupply += _amount */\n      dup3\n      dup3\n      sload\n      tag_133\n      swap2\n      swap1\n      tag_113\n      jump\t// in\n    tag_133:\n      swap3\n      pop\n      pop\n      dup2\n      swap1\n      sstore\n      pop\n        /* \"contracts/task2/01 job1.sol\":2671:2678  _amount */\n      dup1\n        /* \"contracts/task2/01 job1.sol\":2653:2662  balanceOf */\n      0x05\n        /* \"contracts/task2/01 job1.sol\":2653:2667  balanceOf[_to] */\n      0x00\n        /* \"contracts/task2/01 job1.sol\":2663:2666  _to */\n      dup5\n        /* \"contracts/task2/01 job1.sol\":2653:2667  balanceOf[_to] */\n      0xffffffffffffffffffffffffffffffffffffffff\n      and\n      0xffffffffffffffffffffffffffffffffffffffff\n      and\n      dup2\n      mstore\n      0x20\n      add\n      swap1\n      dup2\n      mstore\n      0x20\n      add\n      0x00\n      keccak256\n      0x00\n        /* \"contracts/task2/01 job1.sol\":2653:2678  balanceOf[_to] += _amount */\n      dup3\n      dup3\n      sload\n      tag_134\n      swap2\n      swap1\n      tag_113\n      jump\t// in\n    tag_134:\n      swap3\n      pop\n      pop\n      dup2\n      swap1\n      sstore\n      pop\n        /* \"contracts/task2/01 job1.sol\":2717:2720  _to */\n      dup2\n        /* \"contracts/task2/01 job1.sol\":2696:2730  Transfer(address(0), _to, _amount) */\n      0xffffffffffffffffffffffffffffffffffffffff\n      and\n        /* \"contracts/task2/01 job1.sol\":2713:2714  0 */\n      0x00\n        /* \"contracts/task2/01 job1.sol\":2696:2730  Transfer(address(0), _to, _amount) */\n      0xffffffffffffffffffffffffffffffffffffffff\n      and\n      0xddf252ad1be2c89b69c2b068fc378daa952ba7f163c4a11628f55a4df523b3ef\n        /* \"contracts/task2/01 job1.sol\":2722:2729  _amount */\n      dup4\n        /* \"contracts/task2/01 job1.sol\":2696:2730  Transfer(address(0), _to, _amount) */\n      mload(0x40)\n      tag_135\n      swap2\n      swap1\n      tag_29\n      jump\t// in\n    tag_135:\n      mload(0x40)\n      dup1\n      swap2\n      sub\n      swap1\n      log3\n        /* \"contracts/task2/01 job1.sol\":2484:2738  function mint(address _to, uint256 _amount) public isPaused onlyOwener{... */\n      pop\n      pop\n      jump\t// out\n        /* \"contracts/task2/01 job1.sol\":2767:3035  function burn(uint256 _amount) public isPaused {... */\n    tag_46:\n        /* \"contracts/task2/01 job1.sol\":1022:1032  pauseState */\n      0x04\n      0x14\n      swap1\n      sload\n      swap1\n      0x0100\n      exp\n      swap1\n      div\n      0xff\n      and\n        /* \"contracts/task2/01 job1.sol\":1021:1032  !pauseState */\n      iszero\n        /* \"contracts/task2/01 job1.sol\":1013:1051  require(!pauseState,\"Transfer paused\") */\n      tag_137\n      jumpi\n      mload(0x40)\n      0x08c379a000000000000000000000000000000000000000000000000000000000\n      dup2\n      mstore\n      0x04\n      add\n      tag_138\n      swap1\n      tag_95\n      jump\t// in\n    tag_138:\n      mload(0x40)\n      dup1\n      swap2\n      sub\n      swap1\n      revert\n    tag_137:\n        /* \"contracts/task2/01 job1.sol\":2858:2865  _amount */\n      dup1\n        /* \"contracts/task2/01 job1.sol\":2833:2842  balanceOf */\n      0x05\n        /* \"contracts/task2/01 job1.sol\":2833:2854  balanceOf[msg.sender] */\n      0x00\n        /* \"contracts/task2/01 job1.sol\":2843:2853  msg.sender */\n      caller\n        /* \"contracts/task2/01 job1.sol\":2833:2854  balanceOf[msg.sender] */\n      0xffffffffffffffffffffffffffffffffffffffff\n      and\n      0xffffffffffffffffffffffffffffffffffffffff\n      and\n      dup2\n      mstore\n      0x20\n      add\n      swap1\n      dup2\n      mstore\n      0x20\n      add\n      0x00\n      keccak256\n      sload\n        /* \"contracts/task2/01 job1.sol\":2833:2865  balanceOf[msg.sender] >= _amount */\n      lt\n      iszero\n        /* \"contracts/task2/01 job1.sol\":2825:2890  require(balanceOf[msg.sender] >= _amount, \"Insufficient balance\") */\n      tag_140\n      jumpi\n      mload(0x40)\n      0x08c379a000000000000000000000000000000000000000000000000000000000\n      dup2\n      mstore\n      0x04\n      add\n      tag_141\n      swap1\n      tag_105\n      jump\t// in\n    tag_141:\n      mload(0x40)\n      dup1\n      swap2\n      sub\n      swap1\n      revert\n    tag_140:\n        /* \"contracts/task2/01 job1.sol\":2918:2925  _amount */\n      dup1\n        /* \"contracts/task2/01 job1.sol\":2903:2914  totalSupply */\n      0x03\n      0x00\n        /* \"contracts/task2/01 job1.sol\":2903:2925  totalSupply -= _amount */\n      dup3\n      dup3\n      sload\n      tag_142\n      swap2\n      swap1\n      tag_110\n      jump\t// in\n    tag_142:\n      swap3\n      pop\n      pop\n      dup2\n      swap1\n      sstore\n      pop\n        /* \"contracts/task2/01 job1.sol\":2961:2968  _amount */\n      dup1\n        /* \"contracts/task2/01 job1.sol\":2936:2945  balanceOf */\n      0x05\n        /* \"contracts/task2/01 job1.sol\":2936:2957  balanceOf[msg.sender] */\n      0x00\n        /* \"contracts/task2/01 job1.sol\":2946:2956  msg.sender */\n      caller\n        /* \"contracts/task2/01 job1.sol\":2936:2957  balanceOf[msg.sender] */\n      0xffffffffffffffffffffffffffffffffffffffff\n      and\n      0xffffffffffffffffffffffffffffffffffffffff\n      and\n      dup2\n      mstore\n      0x20\n      add\n      swap1\n      dup2\n      mstore\n      0x20\n      add\n      0x00\n      keccak256\n      0x00\n        /* \"contracts/task2/01 job1.sol\":2936:2968  balanceOf[msg.sender] -= _amount */\n      dup3\n      dup3\n      sload\n      tag_143\n      swap2\n      swap1\n      tag_110\n      jump\t// in\n    tag_143:\n      swap3\n      pop\n      pop\n      dup2\n      swap1\n      sstore\n      pop\n        /* \"contracts/task2/01 job1.sol\":3015:3016  0 */\n      0x00\n        /* \"contracts/task2/01 job1.sol\":2986:3027  Transfer(msg.sender, address(0), _amount) */\n      0xffffffffffffffffffffffffffffffffffffffff\n      and\n        /* \"contracts/task2/01 job1.sol\":2995:3005  msg.sender */\n      caller\n        /* \"contracts/task2/01 job1.sol\":2986:3027  Transfer(msg.sender, address(0), _amount) */\n      0xffffffffffffffffffffffffffffffffffffffff\n      and\n      0xddf252ad1be2c89b69c2b068fc378daa952ba7f163c4a11628f55a4df523b3ef\n        /* \"contracts/task2/01 job1.sol\":3019:3026  _amount */\n      dup4\n        /* \"contracts/task2/01 job1.sol\":2986:3027  Transfer(msg.sender, address(0), _amount) */\n      mload(0x40)\n      tag_144\n      swap2\n      swap1\n      tag_29\n      jump\t// in\n    tag_144:\n      mload(0x40)\n      dup1\n      swap2\n      sub\n      swap1\n      log3\n        /* \"contracts/task2/01 job1.sol\":2767:3035  function burn(uint256 _amount) public isPaused {... */\n      pop\n      jump\t// out\n        /* \"contracts/task2/01 job1.sol\":302:345  mapping (address=>uint256) public balanceOf */\n    tag_50:\n      mstore(0x20, 0x05)\n      dup1\n      0x00\n      mstore\n      keccak256(0x00, 0x40)\n      0x00\n      swap2\n      pop\n      swap1\n      pop\n      sload\n      dup2\n      jump\t// out\n        /* \"contracts/task2/01 job1.sol\":1569:1851  function approval(address _spender, uint256 _amount) public isPaused returns (bool){... */\n    tag_54:\n        /* \"contracts/task2/01 job1.sol\":1647:1651  bool */\n      0x00\n        /* \"contracts/task2/01 job1.sol\":1022:1032  pauseState */\n      0x04\n      0x14\n      swap1\n      sload\n      swap1\n      0x0100\n      exp\n      swap1\n      div\n      0xff\n      and\n        /* \"contracts/task2/01 job1.sol\":1021:1032  !pauseState */\n      iszero\n        /* \"contracts/task2/01 job1.sol\":1013:1051  require(!pauseState,\"Transfer paused\") */\n      tag_146\n      jumpi\n      mload(0x40)\n      0x08c379a000000000000000000000000000000000000000000000000000000000\n      dup2\n      mstore\n      0x04\n      add\n      tag_147\n      swap1\n      tag_95\n      jump\t// in\n    tag_147:\n      mload(0x40)\n      dup1\n      swap2\n      sub\n      swap1\n      revert\n    tag_146:\n        /* \"contracts/task2/01 job1.sol\":1691:1692  0 */\n      0x00\n        /* \"contracts/task2/01 job1.sol\":1671:1693  _spender != address(0) */\n      0xffffffffffffffffffffffffffffffffffffffff\n      and\n        /* \"contracts/task2/01 job1.sol\":1671:1679  _spender */\n      dup4\n        /* \"contracts/task2/01 job1.sol\":1671:1693  _spender != address(0) */\n      0xffffffffffffffffffffffffffffffffffffffff\n      and\n      sub\n        /* \"contracts/task2/01 job1.sol\":1663:1710  require(_spender != address(0), \"Zero address\") */\n      tag_149\n      jumpi\n      mload(0x40)\n      0x08c379a000000000000000000000000000000000000000000000000000000000\n      dup2\n      mstore\n      0x04\n      add\n      tag_150\n      swap1\n      tag_132\n      jump\t// in\n    tag_150:\n      mload(0x40)\n      dup1\n      swap2\n      sub\n      swap1\n      revert\n    tag_149:\n        /* \"contracts/task2/01 job1.sol\":1757:1764  _amount */\n      dup2\n        /* \"contracts/task2/01 job1.sol\":1723:1732  allowance */\n      0x06\n        /* \"contracts/task2/01 job1.sol\":1723:1744  allowance[msg.sender] */\n      0x00\n        /* \"contracts/task2/01 job1.sol\":1733:1743  msg.sender */\n      caller\n        /* \"contracts/task2/01 job1.sol\":1723:1744  allowance[msg.sender] */\n      0xffffffffffffffffffffffffffffffffffffffff\n      and\n      0xffffffffffffffffffffffffffffffffffffffff\n      and\n      dup2\n      mstore\n      0x20\n      add\n      swap1\n      dup2\n      mstore\n      0x20\n      add\n      0x00\n      keccak256\n        /* \"contracts/task2/01 job1.sol\":1723:1754  allowance[msg.sender][_spender] */\n      0x00\n        /* \"contracts/task2/01 job1.sol\":1745:1753  _spender */\n      dup6\n        /* \"contracts/task2/01 job1.sol\":1723:1754  allowance[msg.sender][_spender] */\n      0xffffffffffffffffffffffffffffffffffffffff\n      and\n      0xffffffffffffffffffffffffffffffffffffffff\n      and\n      dup2\n      mstore\n      0x20\n      add\n      swap1\n      dup2\n      mstore\n      0x20\n      add\n      0x00\n      keccak256\n        /* \"contracts/task2/01 job1.sol\":1723:1764  allowance[msg.sender][_spender] = _amount */\n      dup2\n      swap1\n      sstore\n      pop\n        /* \"contracts/task2/01 job1.sol\":1803:1811  _spender */\n      dup3\n        /* \"contracts/task2/01 job1.sol\":1782:1821  Approval(msg.sender, _spender, _amount) */\n      0xffffffffffffffffffffffffffffffffffffffff\n      and\n        /* \"contracts/task2/01 job1.sol\":1791:1801  msg.sender */\n      caller\n        /* \"contracts/task2/01 job1.sol\":1782:1821  Approval(msg.sender, _spender, _amount) */\n      0xffffffffffffffffffffffffffffffffffffffff\n      and\n      0x8c5be1e5ebec7d5bd14f71427d1e84f3dd0314c0f7b2291e5b200ac8c7c3b925\n        /* \"contracts/task2/01 job1.sol\":1813:1820  _amount */\n      dup5\n        /* \"contracts/task2/01 job1.sol\":1782:1821  Approval(msg.sender, _spender, _amount) */\n      mload(0x40)\n      tag_151\n      swap2\n      swap1\n      tag_29\n      jump\t// in\n    tag_151:\n      mload(0x40)\n      dup1\n      swap2\n      sub\n      swap1\n      log3\n        /* \"contracts/task2/01 job1.sol\":1839:1843  true */\n      0x01\n        /* \"contracts/task2/01 job1.sol\":1832:1843  return true */\n      swap1\n      pop\n        /* \"contracts/task2/01 job1.sol\":1569:1851  function approval(address _spender, uint256 _amount) public isPaused returns (bool){... */\n      swap3\n      swap2\n      pop\n      pop\n      jump\t// out\n        /* \"contracts/task2/01 job1.sol\":157:181  uint public decimal = 18 */\n    tag_57:\n      sload(0x02)\n      dup2\n      jump\t// out\n        /* \"contracts/task2/01 job1.sol\":3937:4104  function pause() public onlyOwener returns (bool){... */\n    tag_60:\n        /* \"contracts/task2/01 job1.sol\":3981:3985  bool */\n      0x00\n        /* \"contracts/task2/01 job1.sol\":935:940  owner */\n      0x04\n      0x00\n      swap1\n      sload\n      swap1\n      0x0100\n      exp\n      swap1\n      div\n      0xffffffffffffffffffffffffffffffffffffffff\n      and\n        /* \"contracts/task2/01 job1.sol\":921:940  msg.sender == owner */\n      0xffffffffffffffffffffffffffffffffffffffff\n      and\n        /* \"contracts/task2/01 job1.sol\":921:931  msg.sender */\n      caller\n        /* \"contracts/task2/01 job1.sol\":921:940  msg.sender == owner */\n      0xffffffffffffffffffffffffffffffffffffffff\n      and\n      eq\n        /* \"contracts/task2/01 job1.sol\":913:955  require(msg.sender == owner, \"Only Owner\") */\n      tag_153\n      jumpi\n      mload(0x40)\n      0x08c379a000000000000000000000000000000000000000000000000000000000\n      dup2\n      mstore\n      0x04\n      add\n      tag_154\n      swap1\n      tag_118\n      jump\t// in\n    tag_154:\n      mload(0x40)\n      dup1\n      swap2\n      sub\n      swap1\n      revert\n    tag_153:\n        /* \"contracts/task2/01 job1.sol\":4006:4016  pauseState */\n      0x04\n      0x14\n      swap1\n      sload\n      swap1\n      0x0100\n      exp\n      swap1\n      div\n      0xff\n      and\n        /* \"contracts/task2/01 job1.sol\":4005:4016  !pauseState */\n      iszero\n        /* \"contracts/task2/01 job1.sol\":3997:4040  require(!pauseState, \"The state is paused\") */\n      tag_156\n      jumpi\n      mload(0x40)\n      0x08c379a000000000000000000000000000000000000000000000000000000000\n      dup2\n      mstore\n      0x04\n      add\n      tag_157\n      swap1\n      tag_158\n      jump\t// in\n    tag_157:\n      mload(0x40)\n      dup1\n      swap2\n      sub\n      swap1\n      revert\n    tag_156:\n        /* \"contracts/task2/01 job1.sol\":4064:4068  true */\n      0x01\n        /* \"contracts/task2/01 job1.sol\":4051:4061  pauseState */\n      0x04\n      0x14\n        /* \"contracts/task2/01 job1.sol\":4051:4068  pauseState = true */\n      0x0100\n      exp\n      dup2\n      sload\n      dup2\n      0xff\n      mul\n      not\n      and\n      swap1\n      dup4\n      iszero\n      iszero\n      mul\n      or\n      swap1\n      sstore\n      pop\n        /* \"contracts/task2/01 job1.sol\":4086:4096  pauseState */\n      0x04\n      0x14\n      swap1\n      sload\n      swap1\n      0x0100\n      exp\n      swap1\n      div\n      0xff\n      and\n        /* \"contracts/task2/01 job1.sol\":4079:4096  return pauseState */\n      swap1\n      pop\n        /* \"contracts/task2/01 job1.sol\":3937:4104  function pause() public onlyOwener returns (bool){... */\n      swap1\n      jump\t// out\n        /* \"contracts/task2/01 job1.sol\":3064:3929  function batchTransfer(address[] memory _recipients, uint256[] memory _amounts) public isPaused returns (bool){... */\n    tag_65:\n        /* \"contracts/task2/01 job1.sol\":3169:3173  bool */\n      0x00\n        /* \"contracts/task2/01 job1.sol\":1022:1032  pauseState */\n      0x04\n      0x14\n      swap1\n      sload\n      swap1\n      0x0100\n      exp\n      swap1\n      div\n      0xff\n      and\n        /* \"contracts/task2/01 job1.sol\":1021:1032  !pauseState */\n      iszero\n        /* \"contracts/task2/01 job1.sol\":1013:1051  require(!pauseState,\"Transfer paused\") */\n      tag_160\n      jumpi\n      mload(0x40)\n      0x08c379a000000000000000000000000000000000000000000000000000000000\n      dup2\n      mstore\n      0x04\n      add\n      tag_161\n      swap1\n      tag_95\n      jump\t// in\n    tag_161:\n      mload(0x40)\n      dup1\n      swap2\n      sub\n      swap1\n      revert\n    tag_160:\n        /* \"contracts/task2/01 job1.sol\":3213:3221  _amounts */\n      dup2\n        /* \"contracts/task2/01 job1.sol\":3213:3228  _amounts.length */\n      mload\n        /* \"contracts/task2/01 job1.sol\":3193:3204  _recipients */\n      dup4\n        /* \"contracts/task2/01 job1.sol\":3193:3211  _recipients.length */\n      mload\n        /* \"contracts/task2/01 job1.sol\":3193:3228  _recipients.length==_amounts.length */\n      eq\n        /* \"contracts/task2/01 job1.sol\":3185:3248  require(_recipients.length==_amounts.length, \"Unequal lengths\") */\n      tag_163\n      jumpi\n      mload(0x40)\n      0x08c379a000000000000000000000000000000000000000000000000000000000\n      dup2\n      mstore\n      0x04\n      add\n      tag_164\n      swap1\n      tag_165\n      jump\t// in\n    tag_164:\n      mload(0x40)\n      dup1\n      swap2\n      sub\n      swap1\n      revert\n    tag_163:\n        /* \"contracts/task2/01 job1.sol\":3320:3321  3 */\n      0x03\n        /* \"contracts/task2/01 job1.sol\":3298:3309  _recipients */\n      dup4\n        /* \"contracts/task2/01 job1.sol\":3298:3316  _recipients.length */\n      mload\n        /* \"contracts/task2/01 job1.sol\":3298:3321  _recipients.length <= 3 */\n      gt\n      iszero\n        /* \"contracts/task2/01 job1.sol\":3290:3343  require(_recipients.length <= 3, \"Length is limited\") */\n      tag_166\n      jumpi\n      mload(0x40)\n      0x08c379a000000000000000000000000000000000000000000000000000000000\n      dup2\n      mstore\n      0x04\n      add\n      tag_167\n      swap1\n      tag_168\n      jump\t// in\n    tag_167:\n      mload(0x40)\n      dup1\n      swap2\n      sub\n      swap1\n      revert\n    tag_166:\n        /* \"contracts/task2/01 job1.sol\":3354:3365  uint256 sum */\n      0x00\n        /* \"contracts/task2/01 job1.sol\":3366:3367  0 */\n      0x00\n        /* \"contracts/task2/01 job1.sol\":3354:3367  uint256 sum=0 */\n      swap1\n      pop\n        /* \"contracts/task2/01 job1.sol\":3383:3389  uint i */\n      0x00\n        /* \"contracts/task2/01 job1.sol\":3390:3391  0 */\n      0x00\n        /* \"contracts/task2/01 job1.sol\":3383:3391  uint i=0 */\n      swap1\n      pop\n        /* \"contracts/task2/01 job1.sol\":3378:3460  for (uint i=0; i<_amounts.length;i++){... */\n    tag_169:\n        /* \"contracts/task2/01 job1.sol\":3395:3403  _amounts */\n      dup4\n        /* \"contracts/task2/01 job1.sol\":3395:3410  _amounts.length */\n      mload\n        /* \"contracts/task2/01 job1.sol\":3393:3394  i */\n      dup2\n        /* \"contracts/task2/01 job1.sol\":3393:3410  i<_amounts.length */\n      lt\n        /* \"contracts/task2/01 job1.sol\":3378:3460  for (uint i=0; i<_amounts.length;i++){... */\n      iszero\n      tag_170\n      jumpi\n        /* \"contracts/task2/01 job1.sol\":3437:3445  _amounts */\n      dup4\n        /* \"contracts/task2/01 job1.sol\":3446:3447  i */\n      dup2\n        /* \"contracts/task2/01 job1.sol\":3437:3448  _amounts[i] */\n      dup2\n      mload\n      dup2\n      lt\n      tag_172\n      jumpi\n      tag_173\n      tag_174\n      jump\t// in\n    tag_173:\n    tag_172:\n      0x20\n      mul\n      0x20\n      add\n      add\n      mload\n        /* \"contracts/task2/01 job1.sol\":3430:3448  sum += _amounts[i] */\n      dup3\n      tag_175\n      swap2\n      swap1\n      tag_113\n      jump\t// in\n    tag_175:\n      swap2\n      pop\n        /* \"contracts/task2/01 job1.sol\":3411:3414  i++ */\n      dup1\n      dup1\n      0x01\n      add\n      swap2\n      pop\n      pop\n        /* \"contracts/task2/01 job1.sol\":3378:3460  for (uint i=0; i<_amounts.length;i++){... */\n      jump(tag_169)\n    tag_170:\n      pop\n        /* \"contracts/task2/01 job1.sol\":3503:3506  sum */\n      dup1\n        /* \"contracts/task2/01 job1.sol\":3478:3487  balanceOf */\n      0x05\n        /* \"contracts/task2/01 job1.sol\":3478:3499  balanceOf[msg.sender] */\n      0x00\n        /* \"contracts/task2/01 job1.sol\":3488:3498  msg.sender */\n      caller\n        /* \"contracts/task2/01 job1.sol\":3478:3499  balanceOf[msg.sender] */\n      0xffffffffffffffffffffffffffffffffffffffff\n      and\n      0xffffffffffffffffffffffffffffffffffffffff\n      and\n      dup2\n      mstore\n      0x20\n      add\n      swap1\n      dup2\n      mstore\n      0x20\n      add\n      0x00\n      keccak256\n      sload\n        /* \"contracts/task2/01 job1.sol\":3478:3506  balanceOf[msg.sender] >= sum */\n      lt\n      iszero\n        /* \"contracts/task2/01 job1.sol\":3470:3529  require(balanceOf[msg.sender] >= sum, \"Insufficient aoumt\") */\n      tag_176\n      jumpi\n      mload(0x40)\n      0x08c379a000000000000000000000000000000000000000000000000000000000\n      dup2\n      mstore\n      0x04\n      add\n      tag_177\n      swap1\n      tag_178\n      jump\t// in\n    tag_177:\n      mload(0x40)\n      dup1\n      swap2\n      sub\n      swap1\n      revert\n    tag_176:\n        /* \"contracts/task2/01 job1.sol\":3547:3553  uint i */\n      0x00\n        /* \"contracts/task2/01 job1.sol\":3556:3557  0 */\n      0x00\n        /* \"contracts/task2/01 job1.sol\":3547:3557  uint i = 0 */\n      swap1\n      pop\n        /* \"contracts/task2/01 job1.sol\":3542:3900  for (uint i = 0; i < _recipients.length;i++){... */\n    tag_179:\n        /* \"contracts/task2/01 job1.sol\":3563:3574  _recipients */\n      dup5\n        /* \"contracts/task2/01 job1.sol\":3563:3581  _recipients.length */\n      mload\n        /* \"contracts/task2/01 job1.sol\":3559:3560  i */\n      dup2\n        /* \"contracts/task2/01 job1.sol\":3559:3581  i < _recipients.length */\n      lt\n        /* \"contracts/task2/01 job1.sol\":3542:3900  for (uint i = 0; i < _recipients.length;i++){... */\n      iszero\n      tag_180\n      jumpi\n        /* \"contracts/task2/01 job1.sol\":3635:3636  0 */\n      0x00\n        /* \"contracts/task2/01 job1.sol\":3609:3637  _recipients[i] != address(0) */\n      0xffffffffffffffffffffffffffffffffffffffff\n      and\n        /* \"contracts/task2/01 job1.sol\":3609:3620  _recipients */\n      dup6\n        /* \"contracts/task2/01 job1.sol\":3621:3622  i */\n      dup3\n        /* \"contracts/task2/01 job1.sol\":3609:3623  _recipients[i] */\n      dup2\n      mload\n      dup2\n      lt\n      tag_182\n      jumpi\n      tag_183\n      tag_174\n      jump\t// in\n    tag_183:\n    tag_182:\n      0x20\n      mul\n      0x20\n      add\n      add\n      mload\n        /* \"contracts/task2/01 job1.sol\":3609:3637  _recipients[i] != address(0) */\n      0xffffffffffffffffffffffffffffffffffffffff\n      and\n      sub\n        /* \"contracts/task2/01 job1.sol\":3601:3653  require(_recipients[i] != address(0),\"Zero address\") */\n      tag_184\n      jumpi\n      mload(0x40)\n      0x08c379a000000000000000000000000000000000000000000000000000000000\n      dup2\n      mstore\n      0x04\n      add\n      tag_185\n      swap1\n      tag_132\n      jump\t// in\n    tag_185:\n      mload(0x40)\n      dup1\n      swap2\n      sub\n      swap1\n      revert\n    tag_184:\n        /* \"contracts/task2/01 job1.sol\":3690:3691  0 */\n      0x00\n        /* \"contracts/task2/01 job1.sol\":3676:3684  _amounts */\n      dup5\n        /* \"contracts/task2/01 job1.sol\":3685:3686  i */\n      dup3\n        /* \"contracts/task2/01 job1.sol\":3676:3687  _amounts[i] */\n      dup2\n      mload\n      dup2\n      lt\n      tag_186\n      jumpi\n      tag_187\n      tag_174\n      jump\t// in\n    tag_187:\n    tag_186:\n      0x20\n      mul\n      0x20\n      add\n      add\n      mload\n        /* \"contracts/task2/01 job1.sol\":3676:3691  _amounts[i] > 0 */\n      gt\n        /* \"contracts/task2/01 job1.sol\":3668:3709  require(_amounts[i] > 0,\"Invalid amount\") */\n      tag_188\n      jumpi\n      mload(0x40)\n      0x08c379a000000000000000000000000000000000000000000000000000000000\n      dup2\n      mstore\n      0x04\n      add\n      tag_189\n      swap1\n      tag_190\n      jump\t// in\n    tag_189:\n      mload(0x40)\n      dup1\n      swap2\n      sub\n      swap1\n      revert\n    tag_188:\n        /* \"contracts/task2/01 job1.sol\":3751:3759  _amounts */\n      dup4\n        /* \"contracts/task2/01 job1.sol\":3760:3761  i */\n      dup2\n        /* \"contracts/task2/01 job1.sol\":3751:3762  _amounts[i] */\n      dup2\n      mload\n      dup2\n      lt\n      tag_191\n      jumpi\n      tag_192\n      tag_174\n      jump\t// in\n    tag_192:\n    tag_191:\n      0x20\n      mul\n      0x20\n      add\n      add\n      mload\n        /* \"contracts/task2/01 job1.sol\":3726:3735  balanceOf */\n      0x05\n        /* \"contracts/task2/01 job1.sol\":3726:3747  balanceOf[msg.sender] */\n      0x00\n        /* \"contracts/task2/01 job1.sol\":3736:3746  msg.sender */\n      caller\n        /* \"contracts/task2/01 job1.sol\":3726:3747  balanceOf[msg.sender] */\n      0xffffffffffffffffffffffffffffffffffffffff\n      and\n      0xffffffffffffffffffffffffffffffffffffffff\n      and\n      dup2\n      mstore\n      0x20\n      add\n      swap1\n      dup2\n      mstore\n      0x20\n      add\n      0x00\n      keccak256\n      0x00\n        /* \"contracts/task2/01 job1.sol\":3726:3762  balanceOf[msg.sender] -= _amounts[i] */\n      dup3\n      dup3\n      sload\n      tag_193\n      swap2\n      swap1\n      tag_110\n      jump\t// in\n    tag_193:\n      swap3\n      pop\n      pop\n      dup2\n      swap1\n      sstore\n      pop\n        /* \"contracts/task2/01 job1.sol\":3806:3814  _amounts */\n      dup4\n        /* \"contracts/task2/01 job1.sol\":3815:3816  i */\n      dup2\n        /* \"contracts/task2/01 job1.sol\":3806:3817  _amounts[i] */\n      dup2\n      mload\n      dup2\n      lt\n      tag_194\n      jumpi\n      tag_195\n      tag_174\n      jump\t// in\n    tag_195:\n    tag_194:\n      0x20\n      mul\n      0x20\n      add\n      add\n      mload\n        /* \"contracts/task2/01 job1.sol\":3777:3786  balanceOf */\n      0x05\n        /* \"contracts/task2/01 job1.sol\":3777:3802  balanceOf[_recipients[i]] */\n      0x00\n        /* \"contracts/task2/01 job1.sol\":3787:3798  _recipients */\n      dup8\n        /* \"contracts/task2/01 job1.sol\":3799:3800  i */\n      dup5\n        /* \"contracts/task2/01 job1.sol\":3787:3801  _recipients[i] */\n      dup2\n      mload\n      dup2\n      lt\n      tag_196\n      jumpi\n      tag_197\n      tag_174\n      jump\t// in\n    tag_197:\n    tag_196:\n      0x20\n      mul\n      0x20\n      add\n      add\n      mload\n        /* \"contracts/task2/01 job1.sol\":3777:3802  balanceOf[_recipients[i]] */\n      0xffffffffffffffffffffffffffffffffffffffff\n      and\n      0xffffffffffffffffffffffffffffffffffffffff\n      and\n      dup2\n      mstore\n      0x20\n      add\n      swap1\n      dup2\n      mstore\n      0x20\n      add\n      0x00\n      keccak256\n      0x00\n        /* \"contracts/task2/01 job1.sol\":3777:3817  balanceOf[_recipients[i]] += _amounts[i] */\n      dup3\n      dup3\n      sload\n      tag_198\n      swap2\n      swap1\n      tag_113\n      jump\t// in\n    tag_198:\n      swap3\n      pop\n      pop\n      dup2\n      swap1\n      sstore\n      pop\n        /* \"contracts/task2/01 job1.sol\":3860:3871  _recipients */\n      dup5\n        /* \"contracts/task2/01 job1.sol\":3872:3873  i */\n      dup2\n        /* \"contracts/task2/01 job1.sol\":3860:3874  _recipients[i] */\n      dup2\n      mload\n      dup2\n      lt\n      tag_199\n      jumpi\n      tag_200\n      tag_174\n      jump\t// in\n    tag_200:\n    tag_199:\n      0x20\n      mul\n      0x20\n      add\n      add\n      mload\n        /* \"contracts/task2/01 job1.sol\":3839:3888  Transfer(msg.sender, _recipients[i], _amounts[i]) */\n      0xffffffffffffffffffffffffffffffffffffffff\n      and\n        /* \"contracts/task2/01 job1.sol\":3848:3858  msg.sender */\n      caller\n        /* \"contracts/task2/01 job1.sol\":3839:3888  Transfer(msg.sender, _recipients[i], _amounts[i]) */\n      0xffffffffffffffffffffffffffffffffffffffff\n      and\n      0xddf252ad1be2c89b69c2b068fc378daa952ba7f163c4a11628f55a4df523b3ef\n        /* \"contracts/task2/01 job1.sol\":3876:3884  _amounts */\n      dup7\n        /* \"contracts/task2/01 job1.sol\":3885:3886  i */\n      dup5\n        /* \"contracts/task2/01 job1.sol\":3876:3887  _amounts[i] */\n      dup2\n      mload\n      dup2\n      lt\n      tag_201\n      jumpi\n      tag_202\n      tag_174\n      jump\t// in\n    tag_202:\n    tag_201:\n      0x20\n      mul\n      0x20\n      add\n      add\n      mload\n        /* \"contracts/task2/01 job1.sol\":3839:3888  Transfer(msg.sender, _recipients[i], _amounts[i]) */\n      mload(0x40)\n      tag_203\n      swap2\n      swap1\n      tag_29\n      jump\t// in\n    tag_203:\n      mload(0x40)\n      dup1\n      swap2\n      sub\n      swap1\n      log3\n        /* \"contracts/task2/01 job1.sol\":3582:3585  i++ */\n      dup1\n      dup1\n      0x01\n      add\n      swap2\n      pop\n      pop\n        /* \"contracts/task2/01 job1.sol\":3542:3900  for (uint i = 0; i < _recipients.length;i++){... */\n      jump(tag_179)\n    tag_180:\n      pop\n        /* \"contracts/task2/01 job1.sol\":3917:3921  true */\n      0x01\n        /* \"contracts/task2/01 job1.sol\":3910:3921  return true */\n      swap2\n      pop\n      pop\n        /* \"contracts/task2/01 job1.sol\":3064:3929  function batchTransfer(address[] memory _recipients, uint256[] memory _amounts) public isPaused returns (bool){... */\n      swap3\n      swap2\n      pop\n      pop\n      jump\t// out\n        /* \"contracts/task2/01 job1.sol\":221:241  address public owner */\n    tag_68:\n      0x04\n      0x00\n      swap1\n      sload\n      swap1\n      0x0100\n      exp\n      swap1\n      div\n      0xffffffffffffffffffffffffffffffffffffffff\n      and\n      dup2\n      jump\t// out\n        /* \"contracts/task2/01 job1.sol\":124:150  string public symbol=\"YTK\" */\n    tag_72:\n      0x01\n      dup1\n      sload\n      tag_204\n      swap1\n      tag_87\n      jump\t// in\n    tag_204:\n      dup1\n      0x1f\n      add\n      0x20\n      dup1\n      swap2\n      div\n      mul\n      0x20\n      add\n      mload(0x40)\n      swap1\n      dup2\n      add\n      0x40\n      mstore\n      dup1\n      swap3\n      swap2\n      swap1\n      dup2\n      dup2\n      mstore\n      0x20\n      add\n      dup3\n      dup1\n      sload\n      tag_205\n      swap1\n      tag_87\n      jump\t// in\n    tag_205:\n      dup1\n      iszero\n      tag_206\n      jumpi\n      dup1\n      0x1f\n      lt\n      tag_207\n      jumpi\n      0x0100\n      dup1\n      dup4\n      sload\n      div\n      mul\n      dup4\n      mstore\n      swap2\n      0x20\n      add\n      swap2\n      jump(tag_206)\n    tag_207:\n      dup3\n      add\n      swap2\n      swap1\n      0x00\n      mstore\n      keccak256(0x00, 0x20)\n      swap1\n    tag_208:\n      dup2\n      sload\n      dup2\n      mstore\n      swap1\n      0x01\n      add\n      swap1\n      0x20\n      add\n      dup1\n      dup4\n      gt\n      tag_208\n      jumpi\n      dup3\n      swap1\n      sub\n      0x1f\n      and\n      dup3\n      add\n      swap2\n    tag_206:\n      pop\n      pop\n      pop\n      pop\n      pop\n      dup2\n      jump\t// out\n        /* \"contracts/task2/01 job1.sol\":1094:1546  function transfer(address _to, uint256 _amount) public isPaused returns (bool){... */\n    tag_76:\n        /* \"contracts/task2/01 job1.sol\":1167:1171  bool */\n      0x00\n        /* \"contracts/task2/01 job1.sol\":1022:1032  pauseState */\n      0x04\n      0x14\n      swap1\n      sload\n      swap1\n      0x0100\n      exp\n      swap1\n      div\n      0xff\n      and\n        /* \"contracts/task2/01 job1.sol\":1021:1032  !pauseState */\n      iszero\n        /* \"contracts/task2/01 job1.sol\":1013:1051  require(!pauseState,\"Transfer paused\") */\n      tag_210\n      jumpi\n      mload(0x40)\n      0x08c379a000000000000000000000000000000000000000000000000000000000\n      dup2\n      mstore\n      0x04\n      add\n      tag_211\n      swap1\n      tag_95\n      jump\t// in\n    tag_211:\n      mload(0x40)\n      dup1\n      swap2\n      sub\n      swap1\n      revert\n    tag_210:\n        /* \"contracts/task2/01 job1.sol\":1234:1235  0 */\n      0x00\n        /* \"contracts/task2/01 job1.sol\":1219:1236  _to != address(0) */\n      0xffffffffffffffffffffffffffffffffffffffff\n      and\n        /* \"contracts/task2/01 job1.sol\":1219:1222  _to */\n      dup4\n        /* \"contracts/task2/01 job1.sol\":1219:1236  _to != address(0) */\n      0xffffffffffffffffffffffffffffffffffffffff\n      and\n      sub\n        /* \"contracts/task2/01 job1.sol\":1211:1253  require(_to != address(0), \"Zero address\") */\n      tag_213\n      jumpi\n      mload(0x40)\n      0x08c379a000000000000000000000000000000000000000000000000000000000\n      dup2\n      mstore\n      0x04\n      add\n      tag_214\n      swap1\n      tag_132\n      jump\t// in\n    tag_214:\n      mload(0x40)\n      dup1\n      swap2\n      sub\n      swap1\n      revert\n    tag_213:\n        /* \"contracts/task2/01 job1.sol\":1343:1350  _amount */\n      dup2\n        /* \"contracts/task2/01 job1.sol\":1318:1327  balanceOf */\n      0x05\n        /* \"contracts/task2/01 job1.sol\":1318:1339  balanceOf[msg.sender] */\n      0x00\n        /* \"contracts/task2/01 job1.sol\":1328:1338  msg.sender */\n      caller\n        /* \"contracts/task2/01 job1.sol\":1318:1339  balanceOf[msg.sender] */\n      0xffffffffffffffffffffffffffffffffffffffff\n      and\n      0xffffffffffffffffffffffffffffffffffffffff\n      and\n      dup2\n      mstore\n      0x20\n      add\n      swap1\n      dup2\n      mstore\n      0x20\n      add\n      0x00\n      keccak256\n      sload\n        /* \"contracts/task2/01 job1.sol\":1318:1350  balanceOf[msg.sender] >= _amount */\n      lt\n      iszero\n        /* \"contracts/task2/01 job1.sol\":1310:1375  require(balanceOf[msg.sender] >= _amount,\"Insufficients balance\") */\n      tag_215\n      jumpi\n      mload(0x40)\n      0x08c379a000000000000000000000000000000000000000000000000000000000\n      dup2\n      mstore\n      0x04\n      add\n      tag_216\n      swap1\n      tag_217\n      jump\t// in\n    tag_216:\n      mload(0x40)\n      dup1\n      swap2\n      sub\n      swap1\n      revert\n    tag_215:\n        /* \"contracts/task2/01 job1.sol\":1421:1428  _amount */\n      dup2\n        /* \"contracts/task2/01 job1.sol\":1396:1405  balanceOf */\n      0x05\n        /* \"contracts/task2/01 job1.sol\":1396:1417  balanceOf[msg.sender] */\n      0x00\n        /* \"contracts/task2/01 job1.sol\":1406:1416  msg.sender */\n      caller\n        /* \"contracts/task2/01 job1.sol\":1396:1417  balanceOf[msg.sender] */\n      0xffffffffffffffffffffffffffffffffffffffff\n      and\n      0xffffffffffffffffffffffffffffffffffffffff\n      and\n      dup2\n      mstore\n      0x20\n      add\n      swap1\n      dup2\n      mstore\n      0x20\n      add\n      0x00\n      keccak256\n      0x00\n        /* \"contracts/task2/01 job1.sol\":1396:1428  balanceOf[msg.sender] -= _amount */\n      dup3\n      dup3\n      sload\n      tag_218\n      swap2\n      swap1\n      tag_110\n      jump\t// in\n    tag_218:\n      swap3\n      pop\n      pop\n      dup2\n      swap1\n      sstore\n      pop\n        /* \"contracts/task2/01 job1.sol\":1457:1464  _amount */\n      dup2\n        /* \"contracts/task2/01 job1.sol\":1439:1448  balanceOf */\n      0x05\n        /* \"contracts/task2/01 job1.sol\":1439:1453  balanceOf[_to] */\n      0x00\n        /* \"contracts/task2/01 job1.sol\":1449:1452  _to */\n      dup6\n        /* \"contracts/task2/01 job1.sol\":1439:1453  balanceOf[_to] */\n      0xffffffffffffffffffffffffffffffffffffffff\n      and\n      0xffffffffffffffffffffffffffffffffffffffff\n      and\n      dup2\n      mstore\n      0x20\n      add\n      swap1\n      dup2\n      mstore\n      0x20\n      add\n      0x00\n      keccak256\n      0x00\n        /* \"contracts/task2/01 job1.sol\":1439:1464  balanceOf[_to] += _amount */\n      dup3\n      dup3\n      sload\n      tag_219\n      swap2\n      swap1\n      tag_113\n      jump\t// in\n    tag_219:\n      swap3\n      pop\n      pop\n      dup2\n      swap1\n      sstore\n      pop\n        /* \"contracts/task2/01 job1.sol\":1503:1506  _to */\n      dup3\n        /* \"contracts/task2/01 job1.sol\":1482:1516  Transfer(msg.sender, _to, _amount) */\n      0xffffffffffffffffffffffffffffffffffffffff\n      and\n        /* \"contracts/task2/01 job1.sol\":1491:1501  msg.sender */\n      caller\n        /* \"contracts/task2/01 job1.sol\":1482:1516  Transfer(msg.sender, _to, _amount) */\n      0xffffffffffffffffffffffffffffffffffffffff\n      and\n      0xddf252ad1be2c89b69c2b068fc378daa952ba7f163c4a11628f55a4df523b3ef\n        /* \"contracts/task2/01 job1.sol\":1508:1515  _amount */\n      dup5\n        /* \"contracts/task2/01 job1.sol\":1482:1516  Transfer(msg.sender, _to, _amount) */\n      mload(0x40)\n      tag_220\n      swap2\n      swap1\n      tag_29\n      jump\t// in\n    tag_220:\n      mload(0x40)\n      dup1\n      swap2\n      sub\n      swap1\n      log3\n        /* \"contracts/task2/01 job1.sol\":1534:1538  true */\n      0x01\n        /* \"contracts/task2/01 job1.sol\":1527:1538  return true */\n      swap1\n      pop\n        /* \"contracts/task2/01 job1.sol\":1094:1546  function transfer(address _to, uint256 _amount) public isPaused returns (bool){... */\n      swap3\n      swap2\n      pop\n      pop\n      jump\t// out\n        /* \"contracts/task2/01 job1.sol\":248:278  bool public pauseState = false */\n    tag_79:\n      0x04\n      0x14\n      swap1\n      sload\n      swap1\n      0x0100\n      exp\n      swap1\n      div\n      0xff\n      and\n      dup2\n      jump\t// out\n        /* \"contracts/task2/01 job1.sol\":373:435  mapping (address=>mapping (address=>uint256)) public allowance */\n    tag_84:\n      mstore(0x20, 0x06)\n      dup2\n      0x00\n      mstore\n      mstore(0x20, keccak256(0x00, 0x40))\n      dup1\n      0x00\n      mstore\n      keccak256(0x00, 0x40)\n      0x00\n      swap2\n      pop\n      swap2\n      pop\n      pop\n      sload\n      dup2\n      jump\t// out\n        /* \"#utility.yul\":7:106   */\n    tag_221:\n        /* \"#utility.yul\":59:65   */\n      0x00\n        /* \"#utility.yul\":93:98   */\n      dup2\n        /* \"#utility.yul\":87:99   */\n      mload\n        /* \"#utility.yul\":77:99   */\n      swap1\n      pop\n        /* \"#utility.yul\":7:106   */\n      swap2\n      swap1\n      pop\n      jump\t// out\n        /* \"#utility.yul\":112:281   */\n    tag_222:\n        /* \"#utility.yul\":196:207   */\n      0x00\n        /* \"#utility.yul\":230:236   */\n      dup3\n        /* \"#utility.yul\":225:228   */\n      dup3\n        /* \"#utility.yul\":218:237   */\n      mstore\n        /* \"#utility.yul\":270:274   */\n      0x20\n        /* \"#utility.yul\":265:268   */\n      dup3\n        /* \"#utility.yul\":261:275   */\n      add\n        /* \"#utility.yul\":246:275   */\n      swap1\n      pop\n        /* \"#utility.yul\":112:281   */\n      swap3\n      swap2\n      pop\n      pop\n      jump\t// out\n        /* \"#utility.yul\":287:426   */\n    tag_223:\n        /* \"#utility.yul\":376:382   */\n      dup3\n        /* \"#utility.yul\":371:374   */\n      dup2\n        /* \"#utility.yul\":366:369   */\n      dup4\n        /* \"#utility.yul\":360:383   */\n      mcopy\n        /* \"#utility.yul\":417:418   */\n      0x00\n        /* \"#utility.yul\":408:414   */\n      dup4\n        /* \"#utility.yul\":403:406   */\n      dup4\n        /* \"#utility.yul\":399:415   */\n      add\n        /* \"#utility.yul\":392:419   */\n      mstore\n        /* \"#utility.yul\":287:426   */\n      pop\n      pop\n      pop\n      jump\t// out\n        /* \"#utility.yul\":432:534   */\n    tag_224:\n        /* \"#utility.yul\":473:479   */\n      0x00\n        /* \"#utility.yul\":524:526   */\n      0x1f\n        /* \"#utility.yul\":520:527   */\n      not\n        /* \"#utility.yul\":515:517   */\n      0x1f\n        /* \"#utility.yul\":508:513   */\n      dup4\n        /* \"#utility.yul\":504:518   */\n      add\n        /* \"#utility.yul\":500:528   */\n      and\n        /* \"#utility.yul\":490:528   */\n      swap1\n      pop\n        /* \"#utility.yul\":432:534   */\n      swap2\n      swap1\n      pop\n      jump\t// out\n        /* \"#utility.yul\":540:917   */\n    tag_225:\n        /* \"#utility.yul\":628:631   */\n      0x00\n        /* \"#utility.yul\":656:695   */\n      tag_287\n        /* \"#utility.yul\":689:694   */\n      dup3\n        /* \"#utility.yul\":656:695   */\n      tag_221\n      jump\t// in\n    tag_287:\n        /* \"#utility.yul\":711:782   */\n      tag_288\n        /* \"#utility.yul\":775:781   */\n      dup2\n        /* \"#utility.yul\":770:773   */\n      dup6\n        /* \"#utility.yul\":711:782   */\n      tag_222\n      jump\t// in\n    tag_288:\n        /* \"#utility.yul\":704:782   */\n      swap4\n      pop\n        /* \"#utility.yul\":791:856   */\n      tag_289\n        /* \"#utility.yul\":849:855   */\n      dup2\n        /* \"#utility.yul\":844:847   */\n      dup6\n        /* \"#utility.yul\":837:841   */\n      0x20\n        /* \"#utility.yul\":830:835   */\n      dup7\n        /* \"#utility.yul\":826:842   */\n      add\n        /* \"#utility.yul\":791:856   */\n      tag_223\n      jump\t// in\n    tag_289:\n        /* \"#utility.yul\":881:910   */\n      tag_290\n        /* \"#utility.yul\":903:909   */\n      dup2\n        /* \"#utility.yul\":881:910   */\n      tag_224\n      jump\t// in\n    tag_290:\n        /* \"#utility.yul\":876:879   */\n      dup5\n        /* \"#utility.yul\":872:911   */\n      add\n        /* \"#utility.yul\":865:911   */\n      swap2\n      pop\n        /* \"#utility.yul\":632:917   */\n      pop\n        /* \"#utility.yul\":540:917   */\n      swap3\n      swap2\n      pop\n      pop\n      jump\t// out\n        /* \"#utility.yul\":923:1236   */\n    tag_25:\n        /* \"#utility.yul\":1036:1040   */\n      0x00\n        /* \"#utility.yul\":1074:1076   */\n      0x20\n        /* \"#utility.yul\":1063:1072   */\n      dup3\n        /* \"#utility.yul\":1059:1077   */\n      add\n        /* \"#utility.yul\":1051:1077   */\n      swap1\n      pop\n        /* \"#utility.yul\":1123:1132   */\n      dup2\n        /* \"#utility.yul\":1117:1121   */\n      dup2\n        /* \"#utility.yul\":1113:1133   */\n      sub\n        /* \"#utility.yul\":1109:1110   */\n      0x00\n        /* \"#utility.yul\":1098:1107   */\n      dup4\n        /* \"#utility.yul\":1094:1111   */\n      add\n        /* \"#utility.yul\":1087:1134   */\n      mstore\n        /* \"#utility.yul\":1151:1229   */\n      tag_292\n        /* \"#utility.yul\":1224:1228   */\n      dup2\n        /* \"#utility.yul\":1215:1221   */\n      dup5\n        /* \"#utility.yul\":1151:1229   */\n      tag_225\n      jump\t// in\n    tag_292:\n        /* \"#utility.yul\":1143:1229   */\n      swap1\n      pop\n        /* \"#utility.yul\":923:1236   */\n      swap3\n      swap2\n      pop\n      pop\n      jump\t// out\n        /* \"#utility.yul\":1242:1319   */\n    tag_226:\n        /* \"#utility.yul\":1279:1286   */\n      0x00\n        /* \"#utility.yul\":1308:1313   */\n      dup2\n        /* \"#utility.yul\":1297:1313   */\n      swap1\n      pop\n        /* \"#utility.yul\":1242:1319   */\n      swap2\n      swap1\n      pop\n      jump\t// out\n        /* \"#utility.yul\":1325:1443   */\n    tag_227:\n        /* \"#utility.yul\":1412:1436   */\n      tag_295\n        /* \"#utility.yul\":1430:1435   */\n      dup2\n        /* \"#utility.yul\":1412:1436   */\n      tag_226\n      jump\t// in\n    tag_295:\n        /* \"#utility.yul\":1407:1410   */\n      dup3\n        /* \"#utility.yul\":1400:1437   */\n      mstore\n        /* \"#utility.yul\":1325:1443   */\n      pop\n      pop\n      jump\t// out\n        /* \"#utility.yul\":1449:1671   */\n    tag_29:\n        /* \"#utility.yul\":1542:1546   */\n      0x00\n        /* \"#utility.yul\":1580:1582   */\n      0x20\n        /* \"#utility.yul\":1569:1578   */\n      dup3\n        /* \"#utility.yul\":1565:1583   */\n      add\n        /* \"#utility.yul\":1557:1583   */\n      swap1\n      pop\n        /* \"#utility.yul\":1593:1664   */\n      tag_297\n        /* \"#utility.yul\":1661:1662   */\n      0x00\n        /* \"#utility.yul\":1650:1659   */\n      dup4\n        /* \"#utility.yul\":1646:1663   */\n      add\n        /* \"#utility.yul\":1637:1643   */\n      dup5\n        /* \"#utility.yul\":1593:1664   */\n      tag_227\n      jump\t// in\n    tag_297:\n        /* \"#utility.yul\":1449:1671   */\n      swap3\n      swap2\n      pop\n      pop\n      jump\t// out\n        /* \"#utility.yul\":1677:1752   */\n    tag_228:\n        /* \"#utility.yul\":1710:1716   */\n      0x00\n        /* \"#utility.yul\":1743:1745   */\n      0x40\n        /* \"#utility.yul\":1737:1746   */\n      mload\n        /* \"#utility.yul\":1727:1746   */\n      swap1\n      pop\n        /* \"#utility.yul\":1677:1752   */\n      swap1\n      jump\t// out\n        /* \"#utility.yul\":1758:1875   */\n    tag_229:\n        /* \"#utility.yul\":1867:1868   */\n      0x00\n        /* \"#utility.yul\":1864:1865   */\n      0x00\n        /* \"#utility.yul\":1857:1869   */\n      revert\n        /* \"#utility.yul\":1881:1998   */\n    tag_230:\n        /* \"#utility.yul\":1990:1991   */\n      0x00\n        /* \"#utility.yul\":1987:1988   */\n      0x00\n        /* \"#utility.yul\":1980:1992   */\n      revert\n        /* \"#utility.yul\":2004:2130   */\n    tag_231:\n        /* \"#utility.yul\":2041:2048   */\n      0x00\n        /* \"#utility.yul\":2081:2123   */\n      0xffffffffffffffffffffffffffffffffffffffff\n        /* \"#utility.yul\":2074:2079   */\n      dup3\n        /* \"#utility.yul\":2070:2124   */\n      and\n        /* \"#utility.yul\":2059:2124   */\n      swap1\n      pop\n        /* \"#utility.yul\":2004:2130   */\n      swap2\n      swap1\n      pop\n      jump\t// out\n        /* \"#utility.yul\":2136:2232   */\n    tag_232:\n        /* \"#utility.yul\":2173:2180   */\n      0x00\n        /* \"#utility.yul\":2202:2226   */\n      tag_303\n        /* \"#utility.yul\":2220:2225   */\n      dup3\n        /* \"#utility.yul\":2202:2226   */\n      tag_231\n      jump\t// in\n    tag_303:\n        /* \"#utility.yul\":2191:2226   */\n      swap1\n      pop\n        /* \"#utility.yul\":2136:2232   */\n      swap2\n      swap1\n      pop\n      jump\t// out\n        /* \"#utility.yul\":2238:2360   */\n    tag_233:\n        /* \"#utility.yul\":2311:2335   */\n      tag_305\n        /* \"#utility.yul\":2329:2334   */\n      dup2\n        /* \"#utility.yul\":2311:2335   */\n      tag_232\n      jump\t// in\n    tag_305:\n        /* \"#utility.yul\":2304:2309   */\n      dup2\n        /* \"#utility.yul\":2301:2336   */\n      eq\n        /* \"#utility.yul\":2291:2354   */\n      tag_306\n      jumpi\n        /* \"#utility.yul\":2350:2351   */\n      0x00\n        /* \"#utility.yul\":2347:2348   */\n      0x00\n        /* \"#utility.yul\":2340:2352   */\n      revert\n        /* \"#utility.yul\":2291:2354   */\n    tag_306:\n        /* \"#utility.yul\":2238:2360   */\n      pop\n      jump\t// out\n        /* \"#utility.yul\":2366:2505   */\n    tag_234:\n        /* \"#utility.yul\":2412:2417   */\n      0x00\n        /* \"#utility.yul\":2450:2456   */\n      dup2\n        /* \"#utility.yul\":2437:2457   */\n      calldataload\n        /* \"#utility.yul\":2428:2457   */\n      swap1\n      pop\n        /* \"#utility.yul\":2466:2499   */\n      tag_308\n        /* \"#utility.yul\":2493:2498   */\n      dup2\n        /* \"#utility.yul\":2466:2499   */\n      tag_233\n      jump\t// in\n    tag_308:\n        /* \"#utility.yul\":2366:2505   */\n      swap3\n      swap2\n      pop\n      pop\n      jump\t// out\n        /* \"#utility.yul\":2511:2633   */\n    tag_235:\n        /* \"#utility.yul\":2584:2608   */\n      tag_310\n        /* \"#utility.yul\":2602:2607   */\n      dup2\n        /* \"#utility.yul\":2584:2608   */\n      tag_226\n      jump\t// in\n    tag_310:\n        /* \"#utility.yul\":2577:2582   */\n      dup2\n        /* \"#utility.yul\":2574:2609   */\n      eq\n        /* \"#utility.yul\":2564:2627   */\n      tag_311\n      jumpi\n        /* \"#utility.yul\":2623:2624   */\n      0x00\n        /* \"#utility.yul\":2620:2621   */\n      0x00\n        /* \"#utility.yul\":2613:2625   */\n      revert\n        /* \"#utility.yul\":2564:2627   */\n    tag_311:\n        /* \"#utility.yul\":2511:2633   */\n      pop\n      jump\t// out\n        /* \"#utility.yul\":2639:2778   */\n    tag_236:\n        /* \"#utility.yul\":2685:2690   */\n      0x00\n        /* \"#utility.yul\":2723:2729   */\n      dup2\n        /* \"#utility.yul\":2710:2730   */\n      calldataload\n        /* \"#utility.yul\":2701:2730   */\n      swap1\n      pop\n        /* \"#utility.yul\":2739:2772   */\n      tag_313\n        /* \"#utility.yul\":2766:2771   */\n      dup2\n        /* \"#utility.yul\":2739:2772   */\n      tag_235\n      jump\t// in\n    tag_313:\n        /* \"#utility.yul\":2639:2778   */\n      swap3\n      swap2\n      pop\n      pop\n      jump\t// out\n        /* \"#utility.yul\":2784:3403   */\n    tag_32:\n        /* \"#utility.yul\":2861:2867   */\n      0x00\n        /* \"#utility.yul\":2869:2875   */\n      0x00\n        /* \"#utility.yul\":2877:2883   */\n      0x00\n        /* \"#utility.yul\":2926:2928   */\n      0x60\n        /* \"#utility.yul\":2914:2923   */\n      dup5\n        /* \"#utility.yul\":2905:2912   */\n      dup7\n        /* \"#utility.yul\":2901:2924   */\n      sub\n        /* \"#utility.yul\":2897:2929   */\n      slt\n        /* \"#utility.yul\":2894:3013   */\n      iszero\n      tag_315\n      jumpi\n        /* \"#utility.yul\":2932:3011   */\n      tag_316\n      tag_229\n      jump\t// in\n    tag_316:\n        /* \"#utility.yul\":2894:3013   */\n    tag_315:\n        /* \"#utility.yul\":3052:3053   */\n      0x00\n        /* \"#utility.yul\":3077:3130   */\n      tag_317\n        /* \"#utility.yul\":3122:3129   */\n      dup7\n        /* \"#utility.yul\":3113:3119   */\n      dup3\n        /* \"#utility.yul\":3102:3111   */\n      dup8\n        /* \"#utility.yul\":3098:3120   */\n      add\n        /* \"#utility.yul\":3077:3130   */\n      tag_234\n      jump\t// in\n    tag_317:\n        /* \"#utility.yul\":3067:3130   */\n      swap4\n      pop\n        /* \"#utility.yul\":3023:3140   */\n      pop\n        /* \"#utility.yul\":3179:3181   */\n      0x20\n        /* \"#utility.yul\":3205:3258   */\n      tag_318\n        /* \"#utility.yul\":3250:3257   */\n      dup7\n        /* \"#utility.yul\":3241:3247   */\n      dup3\n        /* \"#utility.yul\":3230:3239   */\n      dup8\n        /* \"#utility.yul\":3226:3248   */\n      add\n        /* \"#utility.yul\":3205:3258   */\n      tag_234\n      jump\t// in\n    tag_318:\n        /* \"#utility.yul\":3195:3258   */\n      swap3\n      pop\n        /* \"#utility.yul\":3150:3268   */\n      pop\n        /* \"#utility.yul\":3307:3309   */\n      0x40\n        /* \"#utility.yul\":3333:3386   */\n      tag_319\n        /* \"#utility.yul\":3378:3385   */\n      dup7\n        /* \"#utility.yul\":3369:3375   */\n      dup3\n        /* \"#utility.yul\":3358:3367   */\n      dup8\n        /* \"#utility.yul\":3354:3376   */\n      add\n        /* \"#utility.yul\":3333:3386   */\n      tag_236\n      jump\t// in\n    tag_319:\n        /* \"#utility.yul\":3323:3386   */\n      swap2\n      pop\n        /* \"#utility.yul\":3278:3396   */\n      pop\n        /* \"#utility.yul\":2784:3403   */\n      swap3\n      pop\n      swap3\n      pop\n      swap3\n      jump\t// out\n        /* \"#utility.yul\":3409:3499   */\n    tag_237:\n        /* \"#utility.yul\":3443:3450   */\n      0x00\n        /* \"#utility.yul\":3486:3491   */\n      dup2\n        /* \"#utility.yul\":3479:3492   */\n      iszero\n        /* \"#utility.yul\":3472:3493   */\n      iszero\n        /* \"#utility.yul\":3461:3493   */\n      swap1\n      pop\n        /* \"#utility.yul\":3409:3499   */\n      swap2\n      swap1\n      pop\n      jump\t// out\n        /* \"#utility.yul\":3505:3614   */\n    tag_238:\n        /* \"#utility.yul\":3586:3607   */\n      tag_322\n        /* \"#utility.yul\":3601:3606   */\n      dup2\n        /* \"#utility.yul\":3586:3607   */\n      tag_237\n      jump\t// in\n    tag_322:\n        /* \"#utility.yul\":3581:3584   */\n      dup3\n        /* \"#utility.yul\":3574:3608   */\n      mstore\n        /* \"#utility.yul\":3505:3614   */\n      pop\n      pop\n      jump\t// out\n        /* \"#utility.yul\":3620:3830   */\n    tag_35:\n        /* \"#utility.yul\":3707:3711   */\n      0x00\n        /* \"#utility.yul\":3745:3747   */\n      0x20\n        /* \"#utility.yul\":3734:3743   */\n      dup3\n        /* \"#utility.yul\":3730:3748   */\n      add\n        /* \"#utility.yul\":3722:3748   */\n      swap1\n      pop\n        /* \"#utility.yul\":3758:3823   */\n      tag_324\n        /* \"#utility.yul\":3820:3821   */\n      0x00\n        /* \"#utility.yul\":3809:3818   */\n      dup4\n        /* \"#utility.yul\":3805:3822   */\n      add\n        /* \"#utility.yul\":3796:3802   */\n      dup5\n        /* \"#utility.yul\":3758:3823   */\n      tag_238\n      jump\t// in\n    tag_324:\n        /* \"#utility.yul\":3620:3830   */\n      swap3\n      swap2\n      pop\n      pop\n      jump\t// out\n        /* \"#utility.yul\":3836:4310   */\n    tag_41:\n        /* \"#utility.yul\":3904:3910   */\n      0x00\n        /* \"#utility.yul\":3912:3918   */\n      0x00\n        /* \"#utility.yul\":3961:3963   */\n      0x40\n        /* \"#utility.yul\":3949:3958   */\n      dup4\n        /* \"#utility.yul\":3940:3947   */\n      dup6\n        /* \"#utility.yul\":3936:3959   */\n      sub\n        /* \"#utility.yul\":3932:3964   */\n      slt\n        /* \"#utility.yul\":3929:4048   */\n      iszero\n      tag_326\n      jumpi\n        /* \"#utility.yul\":3967:4046   */\n      tag_327\n      tag_229\n      jump\t// in\n    tag_327:\n        /* \"#utility.yul\":3929:4048   */\n    tag_326:\n        /* \"#utility.yul\":4087:4088   */\n      0x00\n        /* \"#utility.yul\":4112:4165   */\n      tag_328\n        /* \"#utility.yul\":4157:4164   */\n      dup6\n        /* \"#utility.yul\":4148:4154   */\n      dup3\n        /* \"#utility.yul\":4137:4146   */\n      dup7\n        /* \"#utility.yul\":4133:4155   */\n      add\n        /* \"#utility.yul\":4112:4165   */\n      tag_234\n      jump\t// in\n    tag_328:\n        /* \"#utility.yul\":4102:4165   */\n      swap3\n      pop\n        /* \"#utility.yul\":4058:4175   */\n      pop\n        /* \"#utility.yul\":4214:4216   */\n      0x20\n        /* \"#utility.yul\":4240:4293   */\n      tag_329\n        /* \"#utility.yul\":4285:4292   */\n      dup6\n        /* \"#utility.yul\":4276:4282   */\n      dup3\n        /* \"#utility.yul\":4265:4274   */\n      dup7\n        /* \"#utility.yul\":4261:4283   */\n      add\n        /* \"#utility.yul\":4240:4293   */\n      tag_236\n      jump\t// in\n    tag_329:\n        /* \"#utility.yul\":4230:4293   */\n      swap2\n      pop\n        /* \"#utility.yul\":4185:4303   */\n      pop\n        /* \"#utility.yul\":3836:4310   */\n      swap3\n      pop\n      swap3\n      swap1\n      pop\n      jump\t// out\n        /* \"#utility.yul\":4316:4645   */\n    tag_45:\n        /* \"#utility.yul\":4375:4381   */\n      0x00\n        /* \"#utility.yul\":4424:4426   */\n      0x20\n        /* \"#utility.yul\":4412:4421   */\n      dup3\n        /* \"#utility.yul\":4403:4410   */\n      dup5\n        /* \"#utility.yul\":4399:4422   */\n      sub\n        /* \"#utility.yul\":4395:4427   */\n      slt\n        /* \"#utility.yul\":4392:4511   */\n      iszero\n      tag_331\n      jumpi\n        /* \"#utility.yul\":4430:4509   */\n      tag_332\n      tag_229\n      jump\t// in\n    tag_332:\n        /* \"#utility.yul\":4392:4511   */\n    tag_331:\n        /* \"#utility.yul\":4550:4551   */\n      0x00\n        /* \"#utility.yul\":4575:4628   */\n      tag_333\n        /* \"#utility.yul\":4620:4627   */\n      dup5\n        /* \"#utility.yul\":4611:4617   */\n      dup3\n        /* \"#utility.yul\":4600:4609   */\n      dup6\n        /* \"#utility.yul\":4596:4618   */\n      add\n        /* \"#utility.yul\":4575:4628   */\n      tag_236\n      jump\t// in\n    tag_333:\n        /* \"#utility.yul\":4565:4628   */\n      swap2\n      pop\n        /* \"#utility.yul\":4521:4638   */\n      pop\n        /* \"#utility.yul\":4316:4645   */\n      swap3\n      swap2\n      pop\n      pop\n      jump\t// out\n        /* \"#utility.yul\":4651:4980   */\n    tag_49:\n        /* \"#utility.yul\":4710:4716   */\n      0x00\n        /* \"#utility.yul\":4759:4761   */\n      0x20\n        /* \"#utility.yul\":4747:4756   */\n      dup3\n        /* \"#utility.yul\":4738:4745   */\n      dup5\n        /* \"#utility.yul\":4734:4757   */\n      sub\n        /* \"#utility.yul\":4730:4762   */\n      slt\n        /* \"#utility.yul\":4727:4846   */\n      iszero\n      tag_335\n      jumpi\n        /* \"#utility.yul\":4765:4844   */\n      tag_336\n      tag_229\n      jump\t// in\n    tag_336:\n        /* \"#utility.yul\":4727:4846   */\n    tag_335:\n        /* \"#utility.yul\":4885:4886   */\n      0x00\n        /* \"#utility.yul\":4910:4963   */\n      tag_337\n        /* \"#utility.yul\":4955:4962   */\n      dup5\n        /* \"#utility.yul\":4946:4952   */\n      dup3\n        /* \"#utility.yul\":4935:4944   */\n      dup6\n        /* \"#utility.yul\":4931:4953   */\n      add\n        /* \"#utility.yul\":4910:4963   */\n      tag_234\n      jump\t// in\n    tag_337:\n        /* \"#utility.yul\":4900:4963   */\n      swap2\n      pop\n        /* \"#utility.yul\":4856:4973   */\n      pop\n        /* \"#utility.yul\":4651:4980   */\n      swap3\n      swap2\n      pop\n      pop\n      jump\t// out\n        /* \"#utility.yul\":4986:5103   */\n    tag_239:\n        /* \"#utility.yul\":5095:5096   */\n      0x00\n        /* \"#utility.yul\":5092:5093   */\n      0x00\n        /* \"#utility.yul\":5085:5097   */\n      revert\n        /* \"#utility.yul\":5109:5289   */\n    tag_240:\n        /* \"#utility.yul\":5157:5234   */\n      0x4e487b7100000000000000000000000000000000000000000000000000000000\n        /* \"#utility.yul\":5154:5155   */\n      0x00\n        /* \"#utility.yul\":5147:5235   */\n      mstore\n        /* \"#utility.yul\":5254:5258   */\n      0x41\n        /* \"#utility.yul\":5251:5252   */\n      0x04\n        /* \"#utility.yul\":5244:5259   */\n      mstore\n        /* \"#utility.yul\":5278:5282   */\n      0x24\n        /* \"#utility.yul\":5275:5276   */\n      0x00\n        /* \"#utility.yul\":5268:5283   */\n      revert\n        /* \"#utility.yul\":5295:5576   */\n    tag_241:\n        /* \"#utility.yul\":5378:5405   */\n      tag_341\n        /* \"#utility.yul\":5400:5404   */\n      dup3\n        /* \"#utility.yul\":5378:5405   */\n      tag_224\n      jump\t// in\n    tag_341:\n        /* \"#utility.yul\":5370:5376   */\n      dup2\n        /* \"#utility.yul\":5366:5406   */\n      add\n        /* \"#utility.yul\":5508:5514   */\n      dup2\n        /* \"#utility.yul\":5496:5506   */\n      dup2\n        /* \"#utility.yul\":5493:5515   */\n      lt\n        /* \"#utility.yul\":5472:5490   */\n      0xffffffffffffffff\n        /* \"#utility.yul\":5460:5470   */\n      dup3\n        /* \"#utility.yul\":5457:5491   */\n      gt\n        /* \"#utility.yul\":5454:5516   */\n      or\n        /* \"#utility.yul\":5451:5539   */\n      iszero\n      tag_342\n      jumpi\n        /* \"#utility.yul\":5519:5537   */\n      tag_343\n      tag_240\n      jump\t// in\n    tag_343:\n        /* \"#utility.yul\":5451:5539   */\n    tag_342:\n        /* \"#utility.yul\":5559:5569   */\n      dup1\n        /* \"#utility.yul\":5555:5557   */\n      0x40\n        /* \"#utility.yul\":5548:5570   */\n      mstore\n        /* \"#utility.yul\":5338:5576   */\n      pop\n        /* \"#utility.yul\":5295:5576   */\n      pop\n      pop\n      jump\t// out\n        /* \"#utility.yul\":5582:5711   */\n    tag_242:\n        /* \"#utility.yul\":5616:5622   */\n      0x00\n        /* \"#utility.yul\":5643:5663   */\n      tag_345\n      tag_228\n      jump\t// in\n    tag_345:\n        /* \"#utility.yul\":5633:5663   */\n      swap1\n      pop\n        /* \"#utility.yul\":5672:5705   */\n      tag_346\n        /* \"#utility.yul\":5700:5704   */\n      dup3\n        /* \"#utility.yul\":5692:5698   */\n      dup3\n        /* \"#utility.yul\":5672:5705   */\n      tag_241\n      jump\t// in\n    tag_346:\n        /* \"#utility.yul\":5582:5711   */\n      swap2\n      swap1\n      pop\n      jump\t// out\n        /* \"#utility.yul\":5717:6028   */\n    tag_243:\n        /* \"#utility.yul\":5794:5798   */\n      0x00\n        /* \"#utility.yul\":5884:5902   */\n      0xffffffffffffffff\n        /* \"#utility.yul\":5876:5882   */\n      dup3\n        /* \"#utility.yul\":5873:5903   */\n      gt\n        /* \"#utility.yul\":5870:5926   */\n      iszero\n      tag_348\n      jumpi\n        /* \"#utility.yul\":5906:5924   */\n      tag_349\n      tag_240\n      jump\t// in\n    tag_349:\n        /* \"#utility.yul\":5870:5926   */\n    tag_348:\n        /* \"#utility.yul\":5956:5960   */\n      0x20\n        /* \"#utility.yul\":5948:5954   */\n      dup3\n        /* \"#utility.yul\":5944:5961   */\n      mul\n        /* \"#utility.yul\":5936:5961   */\n      swap1\n      pop\n        /* \"#utility.yul\":6016:6020   */\n      0x20\n        /* \"#utility.yul\":6010:6014   */\n      dup2\n        /* \"#utility.yul\":6006:6021   */\n      add\n        /* \"#utility.yul\":5998:6021   */\n      swap1\n      pop\n        /* \"#utility.yul\":5717:6028   */\n      swap2\n      swap1\n      pop\n      jump\t// out\n        /* \"#utility.yul\":6034:6151   */\n    tag_244:\n        /* \"#utility.yul\":6143:6144   */\n      0x00\n        /* \"#utility.yul\":6140:6141   */\n      0x00\n        /* \"#utility.yul\":6133:6145   */\n      revert\n        /* \"#utility.yul\":6174:6884   */\n    tag_245:\n        /* \"#utility.yul\":6270:6275   */\n      0x00\n        /* \"#utility.yul\":6295:6376   */\n      tag_352\n        /* \"#utility.yul\":6311:6375   */\n      tag_353\n        /* \"#utility.yul\":6368:6374   */\n      dup5\n        /* \"#utility.yul\":6311:6375   */\n      tag_243\n      jump\t// in\n    tag_353:\n        /* \"#utility.yul\":6295:6376   */\n      tag_242\n      jump\t// in\n    tag_352:\n        /* \"#utility.yul\":6286:6376   */\n      swap1\n      pop\n        /* \"#utility.yul\":6396:6401   */\n      dup1\n        /* \"#utility.yul\":6425:6431   */\n      dup4\n        /* \"#utility.yul\":6418:6423   */\n      dup3\n        /* \"#utility.yul\":6411:6432   */\n      mstore\n        /* \"#utility.yul\":6459:6463   */\n      0x20\n        /* \"#utility.yul\":6452:6457   */\n      dup3\n        /* \"#utility.yul\":6448:6464   */\n      add\n        /* \"#utility.yul\":6441:6464   */\n      swap1\n      pop\n        /* \"#utility.yul\":6512:6516   */\n      0x20\n        /* \"#utility.yul\":6504:6510   */\n      dup5\n        /* \"#utility.yul\":6500:6517   */\n      mul\n        /* \"#utility.yul\":6492:6498   */\n      dup4\n        /* \"#utility.yul\":6488:6518   */\n      add\n        /* \"#utility.yul\":6541:6544   */\n      dup6\n        /* \"#utility.yul\":6533:6539   */\n      dup2\n        /* \"#utility.yul\":6530:6545   */\n      gt\n        /* \"#utility.yul\":6527:6649   */\n      iszero\n      tag_354\n      jumpi\n        /* \"#utility.yul\":6560:6639   */\n      tag_355\n      tag_244\n      jump\t// in\n    tag_355:\n        /* \"#utility.yul\":6527:6649   */\n    tag_354:\n        /* \"#utility.yul\":6675:6681   */\n      dup4\n        /* \"#utility.yul\":6658:6878   */\n    tag_356:\n        /* \"#utility.yul\":6692:6698   */\n      dup2\n        /* \"#utility.yul\":6687:6690   */\n      dup2\n        /* \"#utility.yul\":6684:6699   */\n      lt\n        /* \"#utility.yul\":6658:6878   */\n      iszero\n      tag_358\n      jumpi\n        /* \"#utility.yul\":6767:6770   */\n      dup1\n        /* \"#utility.yul\":6796:6833   */\n      tag_359\n        /* \"#utility.yul\":6829:6832   */\n      dup9\n        /* \"#utility.yul\":6817:6827   */\n      dup3\n        /* \"#utility.yul\":6796:6833   */\n      tag_234\n      jump\t// in\n    tag_359:\n        /* \"#utility.yul\":6791:6794   */\n      dup5\n        /* \"#utility.yul\":6784:6834   */\n      mstore\n        /* \"#utility.yul\":6863:6867   */\n      0x20\n        /* \"#utility.yul\":6858:6861   */\n      dup5\n        /* \"#utility.yul\":6854:6868   */\n      add\n        /* \"#utility.yul\":6847:6868   */\n      swap4\n      pop\n        /* \"#utility.yul\":6734:6878   */\n      pop\n        /* \"#utility.yul\":6718:6722   */\n      0x20\n        /* \"#utility.yul\":6713:6716   */\n      dup2\n        /* \"#utility.yul\":6709:6723   */\n      add\n        /* \"#utility.yul\":6702:6723   */\n      swap1\n      pop\n        /* \"#utility.yul\":6658:6878   */\n      jump(tag_356)\n    tag_358:\n        /* \"#utility.yul\":6662:6683   */\n      pop\n        /* \"#utility.yul\":6276:6884   */\n      pop\n      pop\n        /* \"#utility.yul\":6174:6884   */\n      swap4\n      swap3\n      pop\n      pop\n      pop\n      jump\t// out\n        /* \"#utility.yul\":6907:7277   */\n    tag_246:\n        /* \"#utility.yul\":6978:6983   */\n      0x00\n        /* \"#utility.yul\":7027:7030   */\n      dup3\n        /* \"#utility.yul\":7020:7024   */\n      0x1f\n        /* \"#utility.yul\":7012:7018   */\n      dup4\n        /* \"#utility.yul\":7008:7025   */\n      add\n        /* \"#utility.yul\":7004:7031   */\n      slt\n        /* \"#utility.yul\":6994:7116   */\n      tag_361\n      jumpi\n        /* \"#utility.yul\":7035:7114   */\n      tag_362\n      tag_239\n      jump\t// in\n    tag_362:\n        /* \"#utility.yul\":6994:7116   */\n    tag_361:\n        /* \"#utility.yul\":7152:7158   */\n      dup2\n        /* \"#utility.yul\":7139:7159   */\n      calldataload\n        /* \"#utility.yul\":7177:7271   */\n      tag_363\n        /* \"#utility.yul\":7267:7270   */\n      dup5\n        /* \"#utility.yul\":7259:7265   */\n      dup3\n        /* \"#utility.yul\":7252:7256   */\n      0x20\n        /* \"#utility.yul\":7244:7250   */\n      dup7\n        /* \"#utility.yul\":7240:7257   */\n      add\n        /* \"#utility.yul\":7177:7271   */\n      tag_245\n      jump\t// in\n    tag_363:\n        /* \"#utility.yul\":7168:7271   */\n      swap2\n      pop\n        /* \"#utility.yul\":6984:7277   */\n      pop\n        /* \"#utility.yul\":6907:7277   */\n      swap3\n      swap2\n      pop\n      pop\n      jump\t// out\n        /* \"#utility.yul\":7283:7594   */\n    tag_247:\n        /* \"#utility.yul\":7360:7364   */\n      0x00\n        /* \"#utility.yul\":7450:7468   */\n      0xffffffffffffffff\n        /* \"#utility.yul\":7442:7448   */\n      dup3\n        /* \"#utility.yul\":7439:7469   */\n      gt\n        /* \"#utility.yul\":7436:7492   */\n      iszero\n      tag_365\n      jumpi\n        /* \"#utility.yul\":7472:7490   */\n      tag_366\n      tag_240\n      jump\t// in\n    tag_366:\n        /* \"#utility.yul\":7436:7492   */\n    tag_365:\n        /* \"#utility.yul\":7522:7526   */\n      0x20\n        /* \"#utility.yul\":7514:7520   */\n      dup3\n        /* \"#utility.yul\":7510:7527   */\n      mul\n        /* \"#utility.yul\":7502:7527   */\n      swap1\n      pop\n        /* \"#utility.yul\":7582:7586   */\n      0x20\n        /* \"#utility.yul\":7576:7580   */\n      dup2\n        /* \"#utility.yul\":7572:7587   */\n      add\n        /* \"#utility.yul\":7564:7587   */\n      swap1\n      pop\n        /* \"#utility.yul\":7283:7594   */\n      swap2\n      swap1\n      pop\n      jump\t// out\n        /* \"#utility.yul\":7617:8327   */\n    tag_248:\n        /* \"#utility.yul\":7713:7718   */\n      0x00\n        /* \"#utility.yul\":7738:7819   */\n      tag_368\n        /* \"#utility.yul\":7754:7818   */\n      tag_369\n        /* \"#utility.yul\":7811:7817   */\n      dup5\n        /* \"#utility.yul\":7754:7818   */\n      tag_247\n      jump\t// in\n    tag_369:\n        /* \"#utility.yul\":7738:7819   */\n      tag_242\n      jump\t// in\n    tag_368:\n        /* \"#utility.yul\":7729:7819   */\n      swap1\n      pop\n        /* \"#utility.yul\":7839:7844   */\n      dup1\n        /* \"#utility.yul\":7868:7874   */\n      dup4\n        /* \"#utility.yul\":7861:7866   */\n      dup3\n        /* \"#utility.yul\":7854:7875   */\n      mstore\n        /* \"#utility.yul\":7902:7906   */\n      0x20\n        /* \"#utility.yul\":7895:7900   */\n      dup3\n        /* \"#utility.yul\":7891:7907   */\n      add\n        /* \"#utility.yul\":7884:7907   */\n      swap1\n      pop\n        /* \"#utility.yul\":7955:7959   */\n      0x20\n        /* \"#utility.yul\":7947:7953   */\n      dup5\n        /* \"#utility.yul\":7943:7960   */\n      mul\n        /* \"#utility.yul\":7935:7941   */\n      dup4\n        /* \"#utility.yul\":7931:7961   */\n      add\n        /* \"#utility.yul\":7984:7987   */\n      dup6\n        /* \"#utility.yul\":7976:7982   */\n      dup2\n        /* \"#utility.yul\":7973:7988   */\n      gt\n        /* \"#utility.yul\":7970:8092   */\n      iszero\n      tag_370\n      jumpi\n        /* \"#utility.yul\":8003:8082   */\n      tag_371\n      tag_244\n      jump\t// in\n    tag_371:\n        /* \"#utility.yul\":7970:8092   */\n    tag_370:\n        /* \"#utility.yul\":8118:8124   */\n      dup4\n        /* \"#utility.yul\":8101:8321   */\n    tag_372:\n        /* \"#utility.yul\":8135:8141   */\n      dup2\n        /* \"#utility.yul\":8130:8133   */\n      dup2\n        /* \"#utility.yul\":8127:8142   */\n      lt\n        /* \"#utility.yul\":8101:8321   */\n      iszero\n      tag_374\n      jumpi\n        /* \"#utility.yul\":8210:8213   */\n      dup1\n        /* \"#utility.yul\":8239:8276   */\n      tag_375\n        /* \"#utility.yul\":8272:8275   */\n      dup9\n        /* \"#utility.yul\":8260:8270   */\n      dup3\n        /* \"#utility.yul\":8239:8276   */\n      tag_236\n      jump\t// in\n    tag_375:\n        /* \"#utility.yul\":8234:8237   */\n      dup5\n        /* \"#utility.yul\":8227:8277   */\n      mstore\n        /* \"#utility.yul\":8306:8310   */\n      0x20\n        /* \"#utility.yul\":8301:8304   */\n      dup5\n        /* \"#utility.yul\":8297:8311   */\n      add\n        /* \"#utility.yul\":8290:8311   */\n      swap4\n      pop\n        /* \"#utility.yul\":8177:8321   */\n      pop\n        /* \"#utility.yul\":8161:8165   */\n      0x20\n        /* \"#utility.yul\":8156:8159   */\n      dup2\n        /* \"#utility.yul\":8152:8166   */\n      add\n        /* \"#utility.yul\":8145:8166   */\n      swap1\n      pop\n        /* \"#utility.yul\":8101:8321   */\n      jump(tag_372)\n    tag_374:\n        /* \"#utility.yul\":8105:8126   */\n      pop\n        /* \"#utility.yul\":7719:8327   */\n      pop\n      pop\n        /* \"#utility.yul\":7617:8327   */\n      swap4\n      swap3\n      pop\n      pop\n      pop\n      jump\t// out\n        /* \"#utility.yul\":8350:8720   */\n    tag_249:\n        /* \"#utility.yul\":8421:8426   */\n      0x00\n        /* \"#utility.yul\":8470:8473   */\n      dup3\n        /* \"#utility.yul\":8463:8467   */\n      0x1f\n        /* \"#utility.yul\":8455:8461   */\n      dup4\n        /* \"#utility.yul\":8451:8468   */\n      add\n        /* \"#utility.yul\":8447:8474   */\n      slt\n        /* \"#utility.yul\":8437:8559   */\n      tag_377\n      jumpi\n        /* \"#utility.yul\":8478:8557   */\n      tag_378\n      tag_239\n      jump\t// in\n    tag_378:\n        /* \"#utility.yul\":8437:8559   */\n    tag_377:\n        /* \"#utility.yul\":8595:8601   */\n      dup2\n        /* \"#utility.yul\":8582:8602   */\n      calldataload\n        /* \"#utility.yul\":8620:8714   */\n      tag_379\n        /* \"#utility.yul\":8710:8713   */\n      dup5\n        /* \"#utility.yul\":8702:8708   */\n      dup3\n        /* \"#utility.yul\":8695:8699   */\n      0x20\n        /* \"#utility.yul\":8687:8693   */\n      dup7\n        /* \"#utility.yul\":8683:8700   */\n      add\n        /* \"#utility.yul\":8620:8714   */\n      tag_248\n      jump\t// in\n    tag_379:\n        /* \"#utility.yul\":8611:8714   */\n      swap2\n      pop\n        /* \"#utility.yul\":8427:8720   */\n      pop\n        /* \"#utility.yul\":8350:8720   */\n      swap3\n      swap2\n      pop\n      pop\n      jump\t// out\n        /* \"#utility.yul\":8726:9620   */\n    tag_64:\n        /* \"#utility.yul\":8844:8850   */\n      0x00\n        /* \"#utility.yul\":8852:8858   */\n      0x00\n        /* \"#utility.yul\":8901:8903   */\n      0x40\n        /* \"#utility.yul\":8889:8898   */\n      dup4\n        /* \"#utility.yul\":8880:8887   */\n      dup6\n        /* \"#utility.yul\":8876:8899   */\n      sub\n        /* \"#utility.yul\":8872:8904   */\n      slt\n        /* \"#utility.yul\":8869:8988   */\n      iszero\n      tag_381\n      jumpi\n        /* \"#utility.yul\":8907:8986   */\n      tag_382\n      tag_229\n      jump\t// in\n    tag_382:\n        /* \"#utility.yul\":8869:8988   */\n    tag_381:\n        /* \"#utility.yul\":9055:9056   */\n      0x00\n        /* \"#utility.yul\":9044:9053   */\n      dup4\n        /* \"#utility.yul\":9040:9057   */\n      add\n        /* \"#utility.yul\":9027:9058   */\n      calldataload\n        /* \"#utility.yul\":9085:9103   */\n      0xffffffffffffffff\n        /* \"#utility.yul\":9077:9083   */\n      dup2\n        /* \"#utility.yul\":9074:9104   */\n      gt\n        /* \"#utility.yul\":9071:9188   */\n      iszero\n      tag_383\n      jumpi\n        /* \"#utility.yul\":9107:9186   */\n      tag_384\n      tag_230\n      jump\t// in\n    tag_384:\n        /* \"#utility.yul\":9071:9188   */\n    tag_383:\n        /* \"#utility.yul\":9212:9290   */\n      tag_385\n        /* \"#utility.yul\":9282:9289   */\n      dup6\n        /* \"#utility.yul\":9273:9279   */\n      dup3\n        /* \"#utility.yul\":9262:9271   */\n      dup7\n        /* \"#utility.yul\":9258:9280   */\n      add\n        /* \"#utility.yul\":9212:9290   */\n      tag_246\n      jump\t// in\n    tag_385:\n        /* \"#utility.yul\":9202:9290   */\n      swap3\n      pop\n        /* \"#utility.yul\":8998:9300   */\n      pop\n        /* \"#utility.yul\":9367:9369   */\n      0x20\n        /* \"#utility.yul\":9356:9365   */\n      dup4\n        /* \"#utility.yul\":9352:9370   */\n      add\n        /* \"#utility.yul\":9339:9371   */\n      calldataload\n        /* \"#utility.yul\":9398:9416   */\n      0xffffffffffffffff\n        /* \"#utility.yul\":9390:9396   */\n      dup2\n        /* \"#utility.yul\":9387:9417   */\n      gt\n        /* \"#utility.yul\":9384:9501   */\n      iszero\n      tag_386\n      jumpi\n        /* \"#utility.yul\":9420:9499   */\n      tag_387\n      tag_230\n      jump\t// in\n    tag_387:\n        /* \"#utility.yul\":9384:9501   */\n    tag_386:\n        /* \"#utility.yul\":9525:9603   */\n      tag_388\n        /* \"#utility.yul\":9595:9602   */\n      dup6\n        /* \"#utility.yul\":9586:9592   */\n      dup3\n        /* \"#utility.yul\":9575:9584   */\n      dup7\n        /* \"#utility.yul\":9571:9593   */\n      add\n        /* \"#utility.yul\":9525:9603   */\n      tag_249\n      jump\t// in\n    tag_388:\n        /* \"#utility.yul\":9515:9603   */\n      swap2\n      pop\n        /* \"#utility.yul\":9310:9613   */\n      pop\n        /* \"#utility.yul\":8726:9620   */\n      swap3\n      pop\n      swap3\n      swap1\n      pop\n      jump\t// out\n        /* \"#utility.yul\":9626:9744   */\n    tag_250:\n        /* \"#utility.yul\":9713:9737   */\n      tag_390\n        /* \"#utility.yul\":9731:9736   */\n      dup2\n        /* \"#utility.yul\":9713:9737   */\n      tag_232\n      jump\t// in\n    tag_390:\n        /* \"#utility.yul\":9708:9711   */\n      dup3\n        /* \"#utility.yul\":9701:9738   */\n      mstore\n        /* \"#utility.yul\":9626:9744   */\n      pop\n      pop\n      jump\t// out\n        /* \"#utility.yul\":9750:9972   */\n    tag_70:\n        /* \"#utility.yul\":9843:9847   */\n      0x00\n        /* \"#utility.yul\":9881:9883   */\n      0x20\n        /* \"#utility.yul\":9870:9879   */\n      dup3\n        /* \"#utility.yul\":9866:9884   */\n      add\n        /* \"#utility.yul\":9858:9884   */\n      swap1\n      pop\n        /* \"#utility.yul\":9894:9965   */\n      tag_392\n        /* \"#utility.yul\":9962:9963   */\n      0x00\n        /* \"#utility.yul\":9951:9960   */\n      dup4\n        /* \"#utility.yul\":9947:9964   */\n      add\n        /* \"#utility.yul\":9938:9944   */\n      dup5\n        /* \"#utility.yul\":9894:9965   */\n      tag_250\n      jump\t// in\n    tag_392:\n        /* \"#utility.yul\":9750:9972   */\n      swap3\n      swap2\n      pop\n      pop\n      jump\t// out\n        /* \"#utility.yul\":9978:10452   */\n    tag_83:\n        /* \"#utility.yul\":10046:10052   */\n      0x00\n        /* \"#utility.yul\":10054:10060   */\n      0x00\n        /* \"#utility.yul\":10103:10105   */\n      0x40\n        /* \"#utility.yul\":10091:10100   */\n      dup4\n        /* \"#utility.yul\":10082:10089   */\n      dup6\n        /* \"#utility.yul\":10078:10101   */\n      sub\n        /* \"#utility.yul\":10074:10106   */\n      slt\n        /* \"#utility.yul\":10071:10190   */\n      iszero\n      tag_394\n      jumpi\n        /* \"#utility.yul\":10109:10188   */\n      tag_395\n      tag_229\n      jump\t// in\n    tag_395:\n        /* \"#utility.yul\":10071:10190   */\n    tag_394:\n        /* \"#utility.yul\":10229:10230   */\n      0x00\n        /* \"#utility.yul\":10254:10307   */\n      tag_396\n        /* \"#utility.yul\":10299:10306   */\n      dup6\n        /* \"#utility.yul\":10290:10296   */\n      dup3\n        /* \"#utility.yul\":10279:10288   */\n      dup7\n        /* \"#utility.yul\":10275:10297   */\n      add\n        /* \"#utility.yul\":10254:10307   */\n      tag_234\n      jump\t// in\n    tag_396:\n        /* \"#utility.yul\":10244:10307   */\n      swap3\n      pop\n        /* \"#utility.yul\":10200:10317   */\n      pop\n        /* \"#utility.yul\":10356:10358   */\n      0x20\n        /* \"#utility.yul\":10382:10435   */\n      tag_397\n        /* \"#utility.yul\":10427:10434   */\n      dup6\n        /* \"#utility.yul\":10418:10424   */\n      dup3\n        /* \"#utility.yul\":10407:10416   */\n      dup7\n        /* \"#utility.yul\":10403:10425   */\n      add\n        /* \"#utility.yul\":10382:10435   */\n      tag_234\n      jump\t// in\n    tag_397:\n        /* \"#utility.yul\":10372:10435   */\n      swap2\n      pop\n        /* \"#utility.yul\":10327:10445   */\n      pop\n        /* \"#utility.yul\":9978:10452   */\n      swap3\n      pop\n      swap3\n      swap1\n      pop\n      jump\t// out\n        /* \"#utility.yul\":10458:10638   */\n    tag_251:\n        /* \"#utility.yul\":10506:10583   */\n      0x4e487b7100000000000000000000000000000000000000000000000000000000\n        /* \"#utility.yul\":10503:10504   */\n      0x00\n        /* \"#utility.yul\":10496:10584   */\n      mstore\n        /* \"#utility.yul\":10603:10607   */\n      0x22\n        /* \"#utility.yul\":10600:10601   */\n      0x04\n        /* \"#utility.yul\":10593:10608   */\n      mstore\n        /* \"#utility.yul\":10627:10631   */\n      0x24\n        /* \"#utility.yul\":10624:10625   */\n      0x00\n        /* \"#utility.yul\":10617:10632   */\n      revert\n        /* \"#utility.yul\":10644:10964   */\n    tag_87:\n        /* \"#utility.yul\":10688:10694   */\n      0x00\n        /* \"#utility.yul\":10725:10726   */\n      0x02\n        /* \"#utility.yul\":10719:10723   */\n      dup3\n        /* \"#utility.yul\":10715:10727   */\n      div\n        /* \"#utility.yul\":10705:10727   */\n      swap1\n      pop\n        /* \"#utility.yul\":10772:10773   */\n      0x01\n        /* \"#utility.yul\":10766:10770   */\n      dup3\n        /* \"#utility.yul\":10762:10774   */\n      and\n        /* \"#utility.yul\":10793:10811   */\n      dup1\n        /* \"#utility.yul\":10783:10864   */\n      tag_400\n      jumpi\n        /* \"#utility.yul\":10849:10853   */\n      0x7f\n        /* \"#utility.yul\":10841:10847   */\n      dup3\n        /* \"#utility.yul\":10837:10854   */\n      and\n        /* \"#utility.yul\":10827:10854   */\n      swap2\n      pop\n        /* \"#utility.yul\":10783:10864   */\n    tag_400:\n        /* \"#utility.yul\":10911:10913   */\n      0x20\n        /* \"#utility.yul\":10903:10909   */\n      dup3\n        /* \"#utility.yul\":10900:10914   */\n      lt\n        /* \"#utility.yul\":10880:10898   */\n      dup2\n        /* \"#utility.yul\":10877:10915   */\n      sub\n        /* \"#utility.yul\":10874:10958   */\n      tag_401\n      jumpi\n        /* \"#utility.yul\":10930:10948   */\n      tag_402\n      tag_251\n      jump\t// in\n    tag_402:\n        /* \"#utility.yul\":10874:10958   */\n    tag_401:\n        /* \"#utility.yul\":10695:10964   */\n      pop\n        /* \"#utility.yul\":10644:10964   */\n      swap2\n      swap1\n      pop\n      jump\t// out\n        /* \"#utility.yul\":10970:11135   */\n    tag_252:\n        /* \"#utility.yul\":11110:11127   */\n      0x5472616e73666572207061757365640000000000000000000000000000000000\n        /* \"#utility.yul\":11106:11107   */\n      0x00\n        /* \"#utility.yul\":11098:11104   */\n      dup3\n        /* \"#utility.yul\":11094:11108   */\n      add\n        /* \"#utility.yul\":11087:11128   */\n      mstore\n        /* \"#utility.yul\":10970:11135   */\n      pop\n      jump\t// out\n        /* \"#utility.yul\":11141:11507   */\n    tag_253:\n        /* \"#utility.yul\":11283:11286   */\n      0x00\n        /* \"#utility.yul\":11304:11371   */\n      tag_405\n        /* \"#utility.yul\":11368:11370   */\n      0x0f\n        /* \"#utility.yul\":11363:11366   */\n      dup4\n        /* \"#utility.yul\":11304:11371   */\n      tag_222\n      jump\t// in\n    tag_405:\n        /* \"#utility.yul\":11297:11371   */\n      swap2\n      pop\n        /* \"#utility.yul\":11380:11473   */\n      tag_406\n        /* \"#utility.yul\":11469:11472   */\n      dup3\n        /* \"#utility.yul\":11380:11473   */\n      tag_252\n      jump\t// in\n    tag_406:\n        /* \"#utility.yul\":11498:11500   */\n      0x20\n        /* \"#utility.yul\":11493:11496   */\n      dup3\n        /* \"#utility.yul\":11489:11501   */\n      add\n        /* \"#utility.yul\":11482:11501   */\n      swap1\n      pop\n        /* \"#utility.yul\":11141:11507   */\n      swap2\n      swap1\n      pop\n      jump\t// out\n        /* \"#utility.yul\":11513:11932   */\n    tag_95:\n        /* \"#utility.yul\":11679:11683   */\n      0x00\n        /* \"#utility.yul\":11717:11719   */\n      0x20\n        /* \"#utility.yul\":11706:11715   */\n      dup3\n        /* \"#utility.yul\":11702:11720   */\n      add\n        /* \"#utility.yul\":11694:11720   */\n      swap1\n      pop\n        /* \"#utility.yul\":11766:11775   */\n      dup2\n        /* \"#utility.yul\":11760:11764   */\n      dup2\n        /* \"#utility.yul\":11756:11776   */\n      sub\n        /* \"#utility.yul\":11752:11753   */\n      0x00\n        /* \"#utility.yul\":11741:11750   */\n      dup4\n        /* \"#utility.yul\":11737:11754   */\n      add\n        /* \"#utility.yul\":11730:11777   */\n      mstore\n        /* \"#utility.yul\":11794:11925   */\n      tag_408\n        /* \"#utility.yul\":11920:11924   */\n      dup2\n        /* \"#utility.yul\":11794:11925   */\n      tag_253\n      jump\t// in\n    tag_408:\n        /* \"#utility.yul\":11786:11925   */\n      swap1\n      pop\n        /* \"#utility.yul\":11513:11932   */\n      swap2\n      swap1\n      pop\n      jump\t// out\n        /* \"#utility.yul\":11938:12108   */\n    tag_254:\n        /* \"#utility.yul\":12078:12100   */\n      0x46726f6d206973207a65726f2061646472657373000000000000000000000000\n        /* \"#utility.yul\":12074:12075   */\n      0x00\n        /* \"#utility.yul\":12066:12072   */\n      dup3\n        /* \"#utility.yul\":12062:12076   */\n      add\n        /* \"#utility.yul\":12055:12101   */\n      mstore\n        /* \"#utility.yul\":11938:12108   */\n      pop\n      jump\t// out\n        /* \"#utility.yul\":12114:12480   */\n    tag_255:\n        /* \"#utility.yul\":12256:12259   */\n      0x00\n        /* \"#utility.yul\":12277:12344   */\n      tag_411\n        /* \"#utility.yul\":12341:12343   */\n      0x14\n        /* \"#utility.yul\":12336:12339   */\n      dup4\n        /* \"#utility.yul\":12277:12344   */\n      tag_222\n      jump\t// in\n    tag_411:\n        /* \"#utility.yul\":12270:12344   */\n      swap2\n      pop\n        /* \"#utility.yul\":12353:12446   */\n      tag_412\n        /* \"#utility.yul\":12442:12445   */\n      dup3\n        /* \"#utility.yul\":12353:12446   */\n      tag_254\n      jump\t// in\n    tag_412:\n        /* \"#utility.yul\":12471:12473   */\n      0x20\n        /* \"#utility.yul\":12466:12469   */\n      dup3\n        /* \"#utility.yul\":12462:12474   */\n      add\n        /* \"#utility.yul\":12455:12474   */\n      swap1\n      pop\n        /* \"#utility.yul\":12114:12480   */\n      swap2\n      swap1\n      pop\n      jump\t// out\n        /* \"#utility.yul\":12486:12905   */\n    tag_99:\n        /* \"#utility.yul\":12652:12656   */\n      0x00\n        /* \"#utility.yul\":12690:12692   */\n      0x20\n        /* \"#utility.yul\":12679:12688   */\n      dup3\n        /* \"#utility.yul\":12675:12693   */\n      add\n        /* \"#utility.yul\":12667:12693   */\n      swap1\n      pop\n        /* \"#utility.yul\":12739:12748   */\n      dup2\n        /* \"#utility.yul\":12733:12737   */\n      dup2\n        /* \"#utility.yul\":12729:12749   */\n      sub\n        /* \"#utility.yul\":12725:12726   */\n      0x00\n        /* \"#utility.yul\":12714:12723   */\n      dup4\n        /* \"#utility.yul\":12710:12727   */\n      add\n        /* \"#utility.yul\":12703:12750   */\n      mstore\n        /* \"#utility.yul\":12767:12898   */\n      tag_414\n        /* \"#utility.yul\":12893:12897   */\n      dup2\n        /* \"#utility.yul\":12767:12898   */\n      tag_255\n      jump\t// in\n    tag_414:\n        /* \"#utility.yul\":12759:12898   */\n      swap1\n      pop\n        /* \"#utility.yul\":12486:12905   */\n      swap2\n      swap1\n      pop\n      jump\t// out\n        /* \"#utility.yul\":12911:13079   */\n    tag_256:\n        /* \"#utility.yul\":13051:13071   */\n      0x546f206973207a65726f20616464726573730000000000000000000000000000\n        /* \"#utility.yul\":13047:13048   */\n      0x00\n        /* \"#utility.yul\":13039:13045   */\n      dup3\n        /* \"#utility.yul\":13035:13049   */\n      add\n        /* \"#utility.yul\":13028:13072   */\n      mstore\n        /* \"#utility.yul\":12911:13079   */\n      pop\n      jump\t// out\n        /* \"#utility.yul\":13085:13451   */\n    tag_257:\n        /* \"#utility.yul\":13227:13230   */\n      0x00\n        /* \"#utility.yul\":13248:13315   */\n      tag_417\n        /* \"#utility.yul\":13312:13314   */\n      0x12\n        /* \"#utility.yul\":13307:13310   */\n      dup4\n        /* \"#utility.yul\":13248:13315   */\n      tag_222\n      jump\t// in\n    tag_417:\n        /* \"#utility.yul\":13241:13315   */\n      swap2\n      pop\n        /* \"#utility.yul\":13324:13417   */\n      tag_418\n        /* \"#utility.yul\":13413:13416   */\n      dup3\n        /* \"#utility.yul\":13324:13417   */\n      tag_256\n      jump\t// in\n    tag_418:\n        /* \"#utility.yul\":13442:13444   */\n      0x20\n        /* \"#utility.yul\":13437:13440   */\n      dup3\n        /* \"#utility.yul\":13433:13445   */\n      add\n        /* \"#utility.yul\":13426:13445   */\n      swap1\n      pop\n        /* \"#utility.yul\":13085:13451   */\n      swap2\n      swap1\n      pop\n      jump\t// out\n        /* \"#utility.yul\":13457:13876   */\n    tag_102:\n        /* \"#utility.yul\":13623:13627   */\n      0x00\n        /* \"#utility.yul\":13661:13663   */\n      0x20\n        /* \"#utility.yul\":13650:13659   */\n      dup3\n        /* \"#utility.yul\":13646:13664   */\n      add\n        /* \"#utility.yul\":13638:13664   */\n      swap1\n      pop\n        /* \"#utility.yul\":13710:13719   */\n      dup2\n        /* \"#utility.yul\":13704:13708   */\n      dup2\n        /* \"#utility.yul\":13700:13720   */\n      sub\n        /* \"#utility.yul\":13696:13697   */\n      0x00\n        /* \"#utility.yul\":13685:13694   */\n      dup4\n        /* \"#utility.yul\":13681:13698   */\n      add\n        /* \"#utility.yul\":13674:13721   */\n      mstore\n        /* \"#utility.yul\":13738:13869   */\n      tag_420\n        /* \"#utility.yul\":13864:13868   */\n      dup2\n        /* \"#utility.yul\":13738:13869   */\n      tag_257\n      jump\t// in\n    tag_420:\n        /* \"#utility.yul\":13730:13869   */\n      swap1\n      pop\n        /* \"#utility.yul\":13457:13876   */\n      swap2\n      swap1\n      pop\n      jump\t// out\n        /* \"#utility.yul\":13882:14052   */\n    tag_258:\n        /* \"#utility.yul\":14022:14044   */\n      0x496e73756666696369656e742062616c616e6365000000000000000000000000\n        /* \"#utility.yul\":14018:14019   */\n      0x00\n        /* \"#utility.yul\":14010:14016   */\n      dup3\n        /* \"#utility.yul\":14006:14020   */\n      add\n        /* \"#utility.yul\":13999:14045   */\n      mstore\n        /* \"#utility.yul\":13882:14052   */\n      pop\n      jump\t// out\n        /* \"#utility.yul\":14058:14424   */\n    tag_259:\n        /* \"#utility.yul\":14200:14203   */\n      0x00\n        /* \"#utility.yul\":14221:14288   */\n      tag_423\n        /* \"#utility.yul\":14285:14287   */\n      0x14\n        /* \"#utility.yul\":14280:14283   */\n      dup4\n        /* \"#utility.yul\":14221:14288   */\n      tag_222\n      jump\t// in\n    tag_423:\n        /* \"#utility.yul\":14214:14288   */\n      swap2\n      pop\n        /* \"#utility.yul\":14297:14390   */\n      tag_424\n        /* \"#utility.yul\":14386:14389   */\n      dup3\n        /* \"#utility.yul\":14297:14390   */\n      tag_258\n      jump\t// in\n    tag_424:\n        /* \"#utility.yul\":14415:14417   */\n      0x20\n        /* \"#utility.yul\":14410:14413   */\n      dup3\n        /* \"#utility.yul\":14406:14418   */\n      add\n        /* \"#utility.yul\":14399:14418   */\n      swap1\n      pop\n        /* \"#utility.yul\":14058:14424   */\n      swap2\n      swap1\n      pop\n      jump\t// out\n        /* \"#utility.yul\":14430:14849   */\n    tag_105:\n        /* \"#utility.yul\":14596:14600   */\n      0x00\n        /* \"#utility.yul\":14634:14636   */\n      0x20\n        /* \"#utility.yul\":14623:14632   */\n      dup3\n        /* \"#utility.yul\":14619:14637   */\n      add\n        /* \"#utility.yul\":14611:14637   */\n      swap1\n      pop\n        /* \"#utility.yul\":14683:14692   */\n      dup2\n        /* \"#utility.yul\":14677:14681   */\n      dup2\n        /* \"#utility.yul\":14673:14693   */\n      sub\n        /* \"#utility.yul\":14669:14670   */\n      0x00\n        /* \"#utility.yul\":14658:14667   */\n      dup4\n        /* \"#utility.yul\":14654:14671   */\n      add\n        /* \"#utility.yul\":14647:14694   */\n      mstore\n        /* \"#utility.yul\":14711:14842   */\n      tag_426\n        /* \"#utility.yul\":14837:14841   */\n      dup2\n        /* \"#utility.yul\":14711:14842   */\n      tag_259\n      jump\t// in\n    tag_426:\n        /* \"#utility.yul\":14703:14842   */\n      swap1\n      pop\n        /* \"#utility.yul\":14430:14849   */\n      swap2\n      swap1\n      pop\n      jump\t// out\n        /* \"#utility.yul\":14855:15024   */\n    tag_260:\n        /* \"#utility.yul\":14995:15016   */\n      0x496e73756666696369656e7420616d6f756e7400000000000000000000000000\n        /* \"#utility.yul\":14991:14992   */\n      0x00\n        /* \"#utility.yul\":14983:14989   */\n      dup3\n        /* \"#utility.yul\":14979:14993   */\n      add\n        /* \"#utility.yul\":14972:15017   */\n      mstore\n        /* \"#utility.yul\":14855:15024   */\n      pop\n      jump\t// out\n        /* \"#utility.yul\":15030:15396   */\n    tag_261:\n        /* \"#utility.yul\":15172:15175   */\n      0x00\n        /* \"#utility.yul\":15193:15260   */\n      tag_429\n        /* \"#utility.yul\":15257:15259   */\n      0x13\n        /* \"#utility.yul\":15252:15255   */\n      dup4\n        /* \"#utility.yul\":15193:15260   */\n      tag_222\n      jump\t// in\n    tag_429:\n        /* \"#utility.yul\":15186:15260   */\n      swap2\n      pop\n        /* \"#utility.yul\":15269:15362   */\n      tag_430\n        /* \"#utility.yul\":15358:15361   */\n      dup3\n        /* \"#utility.yul\":15269:15362   */\n      tag_260\n      jump\t// in\n    tag_430:\n        /* \"#utility.yul\":15387:15389   */\n      0x20\n        /* \"#utility.yul\":15382:15385   */\n      dup3\n        /* \"#utility.yul\":15378:15390   */\n      add\n        /* \"#utility.yul\":15371:15390   */\n      swap1\n      pop\n        /* \"#utility.yul\":15030:15396   */\n      swap2\n      swap1\n      pop\n      jump\t// out\n        /* \"#utility.yul\":15402:15821   */\n    tag_108:\n        /* \"#utility.yul\":15568:15572   */\n      0x00\n        /* \"#utility.yul\":15606:15608   */\n      0x20\n        /* \"#utility.yul\":15595:15604   */\n      dup3\n        /* \"#utility.yul\":15591:15609   */\n      add\n        /* \"#utility.yul\":15583:15609   */\n      swap1\n      pop\n        /* \"#utility.yul\":15655:15664   */\n      dup2\n        /* \"#utility.yul\":15649:15653   */\n      dup2\n        /* \"#utility.yul\":15645:15665   */\n      sub\n        /* \"#utility.yul\":15641:15642   */\n      0x00\n        /* \"#utility.yul\":15630:15639   */\n      dup4\n        /* \"#utility.yul\":15626:15643   */\n      add\n        /* \"#utility.yul\":15619:15666   */\n      mstore\n        /* \"#utility.yul\":15683:15814   */\n      tag_432\n        /* \"#utility.yul\":15809:15813   */\n      dup2\n        /* \"#utility.yul\":15683:15814   */\n      tag_261\n      jump\t// in\n    tag_432:\n        /* \"#utility.yul\":15675:15814   */\n      swap1\n      pop\n        /* \"#utility.yul\":15402:15821   */\n      swap2\n      swap1\n      pop\n      jump\t// out\n        /* \"#utility.yul\":15827:16007   */\n    tag_262:\n        /* \"#utility.yul\":15875:15952   */\n      0x4e487b7100000000000000000000000000000000000000000000000000000000\n        /* \"#utility.yul\":15872:15873   */\n      0x00\n        /* \"#utility.yul\":15865:15953   */\n      mstore\n        /* \"#utility.yul\":15972:15976   */\n      0x11\n        /* \"#utility.yul\":15969:15970   */\n      0x04\n        /* \"#utility.yul\":15962:15977   */\n      mstore\n        /* \"#utility.yul\":15996:16000   */\n      0x24\n        /* \"#utility.yul\":15993:15994   */\n      0x00\n        /* \"#utility.yul\":15986:16001   */\n      revert\n        /* \"#utility.yul\":16013:16207   */\n    tag_110:\n        /* \"#utility.yul\":16053:16057   */\n      0x00\n        /* \"#utility.yul\":16073:16093   */\n      tag_435\n        /* \"#utility.yul\":16091:16092   */\n      dup3\n        /* \"#utility.yul\":16073:16093   */\n      tag_226\n      jump\t// in\n    tag_435:\n        /* \"#utility.yul\":16068:16093   */\n      swap2\n      pop\n        /* \"#utility.yul\":16107:16127   */\n      tag_436\n        /* \"#utility.yul\":16125:16126   */\n      dup4\n        /* \"#utility.yul\":16107:16127   */\n      tag_226\n      jump\t// in\n    tag_436:\n        /* \"#utility.yul\":16102:16127   */\n      swap3\n      pop\n        /* \"#utility.yul\":16151:16152   */\n      dup3\n        /* \"#utility.yul\":16148:16149   */\n      dup3\n        /* \"#utility.yul\":16144:16153   */\n      sub\n        /* \"#utility.yul\":16136:16153   */\n      swap1\n      pop\n        /* \"#utility.yul\":16175:16176   */\n      dup2\n        /* \"#utility.yul\":16169:16173   */\n      dup2\n        /* \"#utility.yul\":16166:16177   */\n      gt\n        /* \"#utility.yul\":16163:16200   */\n      iszero\n      tag_437\n      jumpi\n        /* \"#utility.yul\":16180:16198   */\n      tag_438\n      tag_262\n      jump\t// in\n    tag_438:\n        /* \"#utility.yul\":16163:16200   */\n    tag_437:\n        /* \"#utility.yul\":16013:16207   */\n      swap3\n      swap2\n      pop\n      pop\n      jump\t// out\n        /* \"#utility.yul\":16213:16404   */\n    tag_113:\n        /* \"#utility.yul\":16253:16256   */\n      0x00\n        /* \"#utility.yul\":16272:16292   */\n      tag_440\n        /* \"#utility.yul\":16290:16291   */\n      dup3\n        /* \"#utility.yul\":16272:16292   */\n      tag_226\n      jump\t// in\n    tag_440:\n        /* \"#utility.yul\":16267:16292   */\n      swap2\n      pop\n        /* \"#utility.yul\":16306:16326   */\n      tag_441\n        /* \"#utility.yul\":16324:16325   */\n      dup4\n        /* \"#utility.yul\":16306:16326   */\n      tag_226\n      jump\t// in\n    tag_441:\n        /* \"#utility.yul\":16301:16326   */\n      swap3\n      pop\n        /* \"#utility.yul\":16349:16350   */\n      dup3\n        /* \"#utility.yul\":16346:16347   */\n      dup3\n        /* \"#utility.yul\":16342:16351   */\n      add\n        /* \"#utility.yul\":16335:16351   */\n      swap1\n      pop\n        /* \"#utility.yul\":16370:16373   */\n      dup1\n        /* \"#utility.yul\":16367:16368   */\n      dup3\n        /* \"#utility.yul\":16364:16374   */\n      gt\n        /* \"#utility.yul\":16361:16397   */\n      iszero\n      tag_442\n      jumpi\n        /* \"#utility.yul\":16377:16395   */\n      tag_443\n      tag_262\n      jump\t// in\n    tag_443:\n        /* \"#utility.yul\":16361:16397   */\n    tag_442:\n        /* \"#utility.yul\":16213:16404   */\n      swap3\n      swap2\n      pop\n      pop\n      jump\t// out\n        /* \"#utility.yul\":16410:16570   */\n    tag_263:\n        /* \"#utility.yul\":16550:16562   */\n      0x4f6e6c79204f776e657200000000000000000000000000000000000000000000\n        /* \"#utility.yul\":16546:16547   */\n      0x00\n        /* \"#utility.yul\":16538:16544   */\n      dup3\n        /* \"#utility.yul\":16534:16548   */\n      add\n        /* \"#utility.yul\":16527:16563   */\n      mstore\n        /* \"#utility.yul\":16410:16570   */\n      pop\n      jump\t// out\n        /* \"#utility.yul\":16576:16942   */\n    tag_264:\n        /* \"#utility.yul\":16718:16721   */\n      0x00\n        /* \"#utility.yul\":16739:16806   */\n      tag_446\n        /* \"#utility.yul\":16803:16805   */\n      0x0a\n        /* \"#utility.yul\":16798:16801   */\n      dup4\n        /* \"#utility.yul\":16739:16806   */\n      tag_222\n      jump\t// in\n    tag_446:\n        /* \"#utility.yul\":16732:16806   */\n      swap2\n      pop\n        /* \"#utility.yul\":16815:16908   */\n      tag_447\n        /* \"#utility.yul\":16904:16907   */\n      dup3\n        /* \"#utility.yul\":16815:16908   */\n      tag_263\n      jump\t// in\n    tag_447:\n        /* \"#utility.yul\":16933:16935   */\n      0x20\n        /* \"#utility.yul\":16928:16931   */\n      dup3\n        /* \"#utility.yul\":16924:16936   */\n      add\n        /* \"#utility.yul\":16917:16936   */\n      swap1\n      pop\n        /* \"#utility.yul\":16576:16942   */\n      swap2\n      swap1\n      pop\n      jump\t// out\n        /* \"#utility.yul\":16948:17367   */\n    tag_118:\n        /* \"#utility.yul\":17114:17118   */\n      0x00\n        /* \"#utility.yul\":17152:17154   */\n      0x20\n        /* \"#utility.yul\":17141:17150   */\n      dup3\n        /* \"#utility.yul\":17137:17155   */\n      add\n        /* \"#utility.yul\":17129:17155   */\n      swap1\n      pop\n        /* \"#utility.yul\":17201:17210   */\n      dup2\n        /* \"#utility.yul\":17195:17199   */\n      dup2\n        /* \"#utility.yul\":17191:17211   */\n      sub\n        /* \"#utility.yul\":17187:17188   */\n      0x00\n        /* \"#utility.yul\":17176:17185   */\n      dup4\n        /* \"#utility.yul\":17172:17189   */\n      add\n        /* \"#utility.yul\":17165:17212   */\n      mstore\n        /* \"#utility.yul\":17229:17360   */\n      tag_449\n        /* \"#utility.yul\":17355:17359   */\n      dup2\n        /* \"#utility.yul\":17229:17360   */\n      tag_264\n      jump\t// in\n    tag_449:\n        /* \"#utility.yul\":17221:17360   */\n      swap1\n      pop\n        /* \"#utility.yul\":16948:17367   */\n      swap2\n      swap1\n      pop\n      jump\t// out\n        /* \"#utility.yul\":17373:17546   */\n    tag_265:\n        /* \"#utility.yul\":17513:17538   */\n      0x546865207374617465206973206e6f7420706175736564000000000000000000\n        /* \"#utility.yul\":17509:17510   */\n      0x00\n        /* \"#utility.yul\":17501:17507   */\n      dup3\n        /* \"#utility.yul\":17497:17511   */\n      add\n        /* \"#utility.yul\":17490:17539   */\n      mstore\n        /* \"#utility.yul\":17373:17546   */\n      pop\n      jump\t// out\n        /* \"#utility.yul\":17552:17918   */\n    tag_266:\n        /* \"#utility.yul\":17694:17697   */\n      0x00\n        /* \"#utility.yul\":17715:17782   */\n      tag_452\n        /* \"#utility.yul\":17779:17781   */\n      0x17\n        /* \"#utility.yul\":17774:17777   */\n      dup4\n        /* \"#utility.yul\":17715:17782   */\n      tag_222\n      jump\t// in\n    tag_452:\n        /* \"#utility.yul\":17708:17782   */\n      swap2\n      pop\n        /* \"#utility.yul\":17791:17884   */\n      tag_453\n        /* \"#utility.yul\":17880:17883   */\n      dup3\n        /* \"#utility.yul\":17791:17884   */\n      tag_265\n      jump\t// in\n    tag_453:\n        /* \"#utility.yul\":17909:17911   */\n      0x20\n        /* \"#utility.yul\":17904:17907   */\n      dup3\n        /* \"#utility.yul\":17900:17912   */\n      add\n        /* \"#utility.yul\":17893:17912   */\n      swap1\n      pop\n        /* \"#utility.yul\":17552:17918   */\n      swap2\n      swap1\n      pop\n      jump\t// out\n        /* \"#utility.yul\":17924:18343   */\n    tag_122:\n        /* \"#utility.yul\":18090:18094   */\n      0x00\n        /* \"#utility.yul\":18128:18130   */\n      0x20\n        /* \"#utility.yul\":18117:18126   */\n      dup3\n        /* \"#utility.yul\":18113:18131   */\n      add\n        /* \"#utility.yul\":18105:18131   */\n      swap1\n      pop\n        /* \"#utility.yul\":18177:18186   */\n      dup2\n        /* \"#utility.yul\":18171:18175   */\n      dup2\n        /* \"#utility.yul\":18167:18187   */\n      sub\n        /* \"#utility.yul\":18163:18164   */\n      0x00\n        /* \"#utility.yul\":18152:18161   */\n      dup4\n        /* \"#utility.yul\":18148:18165   */\n      add\n        /* \"#utility.yul\":18141:18188   */\n      mstore\n        /* \"#utility.yul\":18205:18336   */\n      tag_455\n        /* \"#utility.yul\":18331:18335   */\n      dup2\n        /* \"#utility.yul\":18205:18336   */\n      tag_266\n      jump\t// in\n    tag_455:\n        /* \"#utility.yul\":18197:18336   */\n      swap1\n      pop\n        /* \"#utility.yul\":17924:18343   */\n      swap2\n      swap1\n      pop\n      jump\t// out\n        /* \"#utility.yul\":18349:18511   */\n    tag_267:\n        /* \"#utility.yul\":18489:18503   */\n      0x5a65726f20616464726573730000000000000000000000000000000000000000\n        /* \"#utility.yul\":18485:18486   */\n      0x00\n        /* \"#utility.yul\":18477:18483   */\n      dup3\n        /* \"#utility.yul\":18473:18487   */\n      add\n        /* \"#utility.yul\":18466:18504   */\n      mstore\n        /* \"#utility.yul\":18349:18511   */\n      pop\n      jump\t// out\n        /* \"#utility.yul\":18517:18883   */\n    tag_268:\n        /* \"#utility.yul\":18659:18662   */\n      0x00\n        /* \"#utility.yul\":18680:18747   */\n      tag_458\n        /* \"#utility.yul\":18744:18746   */\n      0x0c\n        /* \"#utility.yul\":18739:18742   */\n      dup4\n        /* \"#utility.yul\":18680:18747   */\n      tag_222\n      jump\t// in\n    tag_458:\n        /* \"#utility.yul\":18673:18747   */\n      swap2\n      pop\n        /* \"#utility.yul\":18756:18849   */\n      tag_459\n        /* \"#utility.yul\":18845:18848   */\n      dup3\n        /* \"#utility.yul\":18756:18849   */\n      tag_267\n      jump\t// in\n    tag_459:\n        /* \"#utility.yul\":18874:18876   */\n      0x20\n        /* \"#utility.yul\":18869:18872   */\n      dup3\n        /* \"#utility.yul\":18865:18877   */\n      add\n        /* \"#utility.yul\":18858:18877   */\n      swap1\n      pop\n        /* \"#utility.yul\":18517:18883   */\n      swap2\n      swap1\n      pop\n      jump\t// out\n        /* \"#utility.yul\":18889:19308   */\n    tag_132:\n        /* \"#utility.yul\":19055:19059   */\n      0x00\n        /* \"#utility.yul\":19093:19095   */\n      0x20\n        /* \"#utility.yul\":19082:19091   */\n      dup3\n        /* \"#utility.yul\":19078:19096   */\n      add\n        /* \"#utility.yul\":19070:19096   */\n      swap1\n      pop\n        /* \"#utility.yul\":19142:19151   */\n      dup2\n        /* \"#utility.yul\":19136:19140   */\n      dup2\n        /* \"#utility.yul\":19132:19152   */\n      sub\n        /* \"#utility.yul\":19128:19129   */\n      0x00\n        /* \"#utility.yul\":19117:19126   */\n      dup4\n        /* \"#utility.yul\":19113:19130   */\n      add\n        /* \"#utility.yul\":19106:19153   */\n      mstore\n        /* \"#utility.yul\":19170:19301   */\n      tag_461\n        /* \"#utility.yul\":19296:19300   */\n      dup2\n        /* \"#utility.yul\":19170:19301   */\n      tag_268\n      jump\t// in\n    tag_461:\n        /* \"#utility.yul\":19162:19301   */\n      swap1\n      pop\n        /* \"#utility.yul\":18889:19308   */\n      swap2\n      swap1\n      pop\n      jump\t// out\n        /* \"#utility.yul\":19314:19483   */\n    tag_269:\n        /* \"#utility.yul\":19454:19475   */\n      0x5468652073746174652069732070617573656400000000000000000000000000\n        /* \"#utility.yul\":19450:19451   */\n      0x00\n        /* \"#utility.yul\":19442:19448   */\n      dup3\n        /* \"#utility.yul\":19438:19452   */\n      add\n        /* \"#utility.yul\":19431:19476   */\n      mstore\n        /* \"#utility.yul\":19314:19483   */\n      pop\n      jump\t// out\n        /* \"#utility.yul\":19489:19855   */\n    tag_270:\n        /* \"#utility.yul\":19631:19634   */\n      0x00\n        /* \"#utility.yul\":19652:19719   */\n      tag_464\n        /* \"#utility.yul\":19716:19718   */\n      0x13\n        /* \"#utility.yul\":19711:19714   */\n      dup4\n        /* \"#utility.yul\":19652:19719   */\n      tag_222\n      jump\t// in\n    tag_464:\n        /* \"#utility.yul\":19645:19719   */\n      swap2\n      pop\n        /* \"#utility.yul\":19728:19821   */\n      tag_465\n        /* \"#utility.yul\":19817:19820   */\n      dup3\n        /* \"#utility.yul\":19728:19821   */\n      tag_269\n      jump\t// in\n    tag_465:\n        /* \"#utility.yul\":19846:19848   */\n      0x20\n        /* \"#utility.yul\":19841:19844   */\n      dup3\n        /* \"#utility.yul\":19837:19849   */\n      add\n        /* \"#utility.yul\":19830:19849   */\n      swap1\n      pop\n        /* \"#utility.yul\":19489:19855   */\n      swap2\n      swap1\n      pop\n      jump\t// out\n        /* \"#utility.yul\":19861:20280   */\n    tag_158:\n        /* \"#utility.yul\":20027:20031   */\n      0x00\n        /* \"#utility.yul\":20065:20067   */\n      0x20\n        /* \"#utility.yul\":20054:20063   */\n      dup3\n        /* \"#utility.yul\":20050:20068   */\n      add\n        /* \"#utility.yul\":20042:20068   */\n      swap1\n      pop\n        /* \"#utility.yul\":20114:20123   */\n      dup2\n        /* \"#utility.yul\":20108:20112   */\n      dup2\n        /* \"#utility.yul\":20104:20124   */\n      sub\n        /* \"#utility.yul\":20100:20101   */\n      0x00\n        /* \"#utility.yul\":20089:20098   */\n      dup4\n        /* \"#utility.yul\":20085:20102   */\n      add\n        /* \"#utility.yul\":20078:20125   */\n      mstore\n        /* \"#utility.yul\":20142:20273   */\n      tag_467\n        /* \"#utility.yul\":20268:20272   */\n      dup2\n        /* \"#utility.yul\":20142:20273   */\n      tag_270\n      jump\t// in\n    tag_467:\n        /* \"#utility.yul\":20134:20273   */\n      swap1\n      pop\n        /* \"#utility.yul\":19861:20280   */\n      swap2\n      swap1\n      pop\n      jump\t// out\n        /* \"#utility.yul\":20286:20451   */\n    tag_271:\n        /* \"#utility.yul\":20426:20443   */\n      0x556e657175616c206c656e677468730000000000000000000000000000000000\n        /* \"#utility.yul\":20422:20423   */\n      0x00\n        /* \"#utility.yul\":20414:20420   */\n      dup3\n        /* \"#utility.yul\":20410:20424   */\n      add\n        /* \"#utility.yul\":20403:20444   */\n      mstore\n        /* \"#utility.yul\":20286:20451   */\n      pop\n      jump\t// out\n        /* \"#utility.yul\":20457:20823   */\n    tag_272:\n        /* \"#utility.yul\":20599:20602   */\n      0x00\n        /* \"#utility.yul\":20620:20687   */\n      tag_470\n        /* \"#utility.yul\":20684:20686   */\n      0x0f\n        /* \"#utility.yul\":20679:20682   */\n      dup4\n        /* \"#utility.yul\":20620:20687   */\n      tag_222\n      jump\t// in\n    tag_470:\n        /* \"#utility.yul\":20613:20687   */\n      swap2\n      pop\n        /* \"#utility.yul\":20696:20789   */\n      tag_471\n        /* \"#utility.yul\":20785:20788   */\n      dup3\n        /* \"#utility.yul\":20696:20789   */\n      tag_271\n      jump\t// in\n    tag_471:\n        /* \"#utility.yul\":20814:20816   */\n      0x20\n        /* \"#utility.yul\":20809:20812   */\n      dup3\n        /* \"#utility.yul\":20805:20817   */\n      add\n        /* \"#utility.yul\":20798:20817   */\n      swap1\n      pop\n        /* \"#utility.yul\":20457:20823   */\n      swap2\n      swap1\n      pop\n      jump\t// out\n        /* \"#utility.yul\":20829:21248   */\n    tag_165:\n        /* \"#utility.yul\":20995:20999   */\n      0x00\n        /* \"#utility.yul\":21033:21035   */\n      0x20\n        /* \"#utility.yul\":21022:21031   */\n      dup3\n        /* \"#utility.yul\":21018:21036   */\n      add\n        /* \"#utility.yul\":21010:21036   */\n      swap1\n      pop\n        /* \"#utility.yul\":21082:21091   */\n      dup2\n        /* \"#utility.yul\":21076:21080   */\n      dup2\n        /* \"#utility.yul\":21072:21092   */\n      sub\n        /* \"#utility.yul\":21068:21069   */\n      0x00\n        /* \"#utility.yul\":21057:21066   */\n      dup4\n        /* \"#utility.yul\":21053:21070   */\n      add\n        /* \"#utility.yul\":21046:21093   */\n      mstore\n        /* \"#utility.yul\":21110:21241   */\n      tag_473\n        /* \"#utility.yul\":21236:21240   */\n      dup2\n        /* \"#utility.yul\":21110:21241   */\n      tag_272\n      jump\t// in\n    tag_473:\n        /* \"#utility.yul\":21102:21241   */\n      swap1\n      pop\n        /* \"#utility.yul\":20829:21248   */\n      swap2\n      swap1\n      pop\n      jump\t// out\n        /* \"#utility.yul\":21254:21421   */\n    tag_273:\n        /* \"#utility.yul\":21394:21413   */\n      0x4c656e677468206973206c696d69746564000000000000000000000000000000\n        /* \"#utility.yul\":21390:21391   */\n      0x00\n        /* \"#utility.yul\":21382:21388   */\n      dup3\n        /* \"#utility.yul\":21378:21392   */\n      add\n        /* \"#utility.yul\":21371:21414   */\n      mstore\n        /* \"#utility.yul\":21254:21421   */\n      pop\n      jump\t// out\n        /* \"#utility.yul\":21427:21793   */\n    tag_274:\n        /* \"#utility.yul\":21569:21572   */\n      0x00\n        /* \"#utility.yul\":21590:21657   */\n      tag_476\n        /* \"#utility.yul\":21654:21656   */\n      0x11\n        /* \"#utility.yul\":21649:21652   */\n      dup4\n        /* \"#utility.yul\":21590:21657   */\n      tag_222\n      jump\t// in\n    tag_476:\n        /* \"#utility.yul\":21583:21657   */\n      swap2\n      pop\n        /* \"#utility.yul\":21666:21759   */\n      tag_477\n        /* \"#utility.yul\":21755:21758   */\n      dup3\n        /* \"#utility.yul\":21666:21759   */\n      tag_273\n      jump\t// in\n    tag_477:\n        /* \"#utility.yul\":21784:21786   */\n      0x20\n        /* \"#utility.yul\":21779:21782   */\n      dup3\n        /* \"#utility.yul\":21775:21787   */\n      add\n        /* \"#utility.yul\":21768:21787   */\n      swap1\n      pop\n        /* \"#utility.yul\":21427:21793   */\n      swap2\n      swap1\n      pop\n      jump\t// out\n        /* \"#utility.yul\":21799:22218   */\n    tag_168:\n        /* \"#utility.yul\":21965:21969   */\n      0x00\n        /* \"#utility.yul\":22003:22005   */\n      0x20\n        /* \"#utility.yul\":21992:22001   */\n      dup3\n        /* \"#utility.yul\":21988:22006   */\n      add\n        /* \"#utility.yul\":21980:22006   */\n      swap1\n      pop\n        /* \"#utility.yul\":22052:22061   */\n      dup2\n        /* \"#utility.yul\":22046:22050   */\n      dup2\n        /* \"#utility.yul\":22042:22062   */\n      sub\n        /* \"#utility.yul\":22038:22039   */\n      0x00\n        /* \"#utility.yul\":22027:22036   */\n      dup4\n        /* \"#utility.yul\":22023:22040   */\n      add\n        /* \"#utility.yul\":22016:22063   */\n      mstore\n        /* \"#utility.yul\":22080:22211   */\n      tag_479\n        /* \"#utility.yul\":22206:22210   */\n      dup2\n        /* \"#utility.yul\":22080:22211   */\n      tag_274\n      jump\t// in\n    tag_479:\n        /* \"#utility.yul\":22072:22211   */\n      swap1\n      pop\n        /* \"#utility.yul\":21799:22218   */\n      swap2\n      swap1\n      pop\n      jump\t// out\n        /* \"#utility.yul\":22224:22404   */\n    tag_174:\n        /* \"#utility.yul\":22272:22349   */\n      0x4e487b7100000000000000000000000000000000000000000000000000000000\n        /* \"#utility.yul\":22269:22270   */\n      0x00\n        /* \"#utility.yul\":22262:22350   */\n      mstore\n        /* \"#utility.yul\":22369:22373   */\n      0x32\n        /* \"#utility.yul\":22366:22367   */\n      0x04\n        /* \"#utility.yul\":22359:22374   */\n      mstore\n        /* \"#utility.yul\":22393:22397   */\n      0x24\n        /* \"#utility.yul\":22390:22391   */\n      0x00\n        /* \"#utility.yul\":22383:22398   */\n      revert\n        /* \"#utility.yul\":22410:22578   */\n    tag_275:\n        /* \"#utility.yul\":22550:22570   */\n      0x496e73756666696369656e7420616f756d740000000000000000000000000000\n        /* \"#utility.yul\":22546:22547   */\n      0x00\n        /* \"#utility.yul\":22538:22544   */\n      dup3\n        /* \"#utility.yul\":22534:22548   */\n      add\n        /* \"#utility.yul\":22527:22571   */\n      mstore\n        /* \"#utility.yul\":22410:22578   */\n      pop\n      jump\t// out\n        /* \"#utility.yul\":22584:22950   */\n    tag_276:\n        /* \"#utility.yul\":22726:22729   */\n      0x00\n        /* \"#utility.yul\":22747:22814   */\n      tag_483\n        /* \"#utility.yul\":22811:22813   */\n      0x12\n        /* \"#utility.yul\":22806:22809   */\n      dup4\n        /* \"#utility.yul\":22747:22814   */\n      tag_222\n      jump\t// in\n    tag_483:\n        /* \"#utility.yul\":22740:22814   */\n      swap2\n      pop\n        /* \"#utility.yul\":22823:22916   */\n      tag_484\n        /* \"#utility.yul\":22912:22915   */\n      dup3\n        /* \"#utility.yul\":22823:22916   */\n      tag_275\n      jump\t// in\n    tag_484:\n        /* \"#utility.yul\":22941:22943   */\n      0x20\n        /* \"#utility.yul\":22936:22939   */\n      dup3\n        /* \"#utility.yul\":22932:22944   */\n      add\n        /* \"#utility.yul\":22925:22944   */\n      swap1\n      pop\n        /* \"#utility.yul\":22584:22950   */\n      swap2\n      swap1\n      pop\n      jump\t// out\n        /* \"#utility.yul\":22956:23375   */\n    tag_178:\n        /* \"#utility.yul\":23122:23126   */\n      0x00\n        /* \"#utility.yul\":23160:23162   */\n      0x20\n        /* \"#utility.yul\":23149:23158   */\n      dup3\n        /* \"#utility.yul\":23145:23163   */\n      add\n        /* \"#utility.yul\":23137:23163   */\n      swap1\n      pop\n        /* \"#utility.yul\":23209:23218   */\n      dup2\n        /* \"#utility.yul\":23203:23207   */\n      dup2\n        /* \"#utility.yul\":23199:23219   */\n      sub\n        /* \"#utility.yul\":23195:23196   */\n      0x00\n        /* \"#utility.yul\":23184:23193   */\n      dup4\n        /* \"#utility.yul\":23180:23197   */\n      add\n        /* \"#utility.yul\":23173:23220   */\n      mstore\n        /* \"#utility.yul\":23237:23368   */\n      tag_486\n        /* \"#utility.yul\":23363:23367   */\n      dup2\n        /* \"#utility.yul\":23237:23368   */\n      tag_276\n      jump\t// in\n    tag_486:\n        /* \"#utility.yul\":23229:23368   */\n      swap1\n      pop\n        /* \"#utility.yul\":22956:23375   */\n      swap2\n      swap1\n      pop\n      jump\t// out\n        /* \"#utility.yul\":23381:23545   */\n    tag_277:\n        /* \"#utility.yul\":23521:23537   */\n      0x496e76616c696420616d6f756e74000000000000000000000000000000000000\n        /* \"#utility.yul\":23517:23518   */\n      0x00\n        /* \"#utility.yul\":23509:23515   */\n      dup3\n        /* \"#utility.yul\":23505:23519   */\n      add\n        /* \"#utility.yul\":23498:23538   */\n      mstore\n        /* \"#utility.yul\":23381:23545   */\n      pop\n      jump\t// out\n        /* \"#utility.yul\":23551:23917   */\n    tag_278:\n        /* \"#utility.yul\":23693:23696   */\n      0x00\n        /* \"#utility.yul\":23714:23781   */\n      tag_489\n        /* \"#utility.yul\":23778:23780   */\n      0x0e\n        /* \"#utility.yul\":23773:23776   */\n      dup4\n        /* \"#utility.yul\":23714:23781   */\n      tag_222\n      jump\t// in\n    tag_489:\n        /* \"#utility.yul\":23707:23781   */\n      swap2\n      pop\n        /* \"#utility.yul\":23790:23883   */\n      tag_490\n        /* \"#utility.yul\":23879:23882   */\n      dup3\n        /* \"#utility.yul\":23790:23883   */\n      tag_277\n      jump\t// in\n    tag_490:\n        /* \"#utility.yul\":23908:23910   */\n      0x20\n        /* \"#utility.yul\":23903:23906   */\n      dup3\n        /* \"#utility.yul\":23899:23911   */\n      add\n        /* \"#utility.yul\":23892:23911   */\n      swap1\n      pop\n        /* \"#utility.yul\":23551:23917   */\n      swap2\n      swap1\n      pop\n      jump\t// out\n        /* \"#utility.yul\":23923:24342   */\n    tag_190:\n        /* \"#utility.yul\":24089:24093   */\n      0x00\n        /* \"#utility.yul\":24127:24129   */\n      0x20\n        /* \"#utility.yul\":24116:24125   */\n      dup3\n        /* \"#utility.yul\":24112:24130   */\n      add\n        /* \"#utility.yul\":24104:24130   */\n      swap1\n      pop\n        /* \"#utility.yul\":24176:24185   */\n      dup2\n        /* \"#utility.yul\":24170:24174   */\n      dup2\n        /* \"#utility.yul\":24166:24186   */\n      sub\n        /* \"#utility.yul\":24162:24163   */\n      0x00\n        /* \"#utility.yul\":24151:24160   */\n      dup4\n        /* \"#utility.yul\":24147:24164   */\n      add\n        /* \"#utility.yul\":24140:24187   */\n      mstore\n        /* \"#utility.yul\":24204:24335   */\n      tag_492\n        /* \"#utility.yul\":24330:24334   */\n      dup2\n        /* \"#utility.yul\":24204:24335   */\n      tag_278\n      jump\t// in\n    tag_492:\n        /* \"#utility.yul\":24196:24335   */\n      swap1\n      pop\n        /* \"#utility.yul\":23923:24342   */\n      swap2\n      swap1\n      pop\n      jump\t// out\n        /* \"#utility.yul\":24348:24519   */\n    tag_279:\n        /* \"#utility.yul\":24488:24511   */\n      0x496e73756666696369656e74732062616c616e63650000000000000000000000\n        /* \"#utility.yul\":24484:24485   */\n      0x00\n        /* \"#utility.yul\":24476:24482   */\n      dup3\n        /* \"#utility.yul\":24472:24486   */\n      add\n        /* \"#utility.yul\":24465:24512   */\n      mstore\n        /* \"#utility.yul\":24348:24519   */\n      pop\n      jump\t// out\n        /* \"#utility.yul\":24525:24891   */\n    tag_280:\n        /* \"#utility.yul\":24667:24670   */\n      0x00\n        /* \"#utility.yul\":24688:24755   */\n      tag_495\n        /* \"#utility.yul\":24752:24754   */\n      0x15\n        /* \"#utility.yul\":24747:24750   */\n      dup4\n        /* \"#utility.yul\":24688:24755   */\n      tag_222\n      jump\t// in\n    tag_495:\n        /* \"#utility.yul\":24681:24755   */\n      swap2\n      pop\n        /* \"#utility.yul\":24764:24857   */\n      tag_496\n        /* \"#utility.yul\":24853:24856   */\n      dup3\n        /* \"#utility.yul\":24764:24857   */\n      tag_279\n      jump\t// in\n    tag_496:\n        /* \"#utility.yul\":24882:24884   */\n      0x20\n        /* \"#utility.yul\":24877:24880   */\n      dup3\n        /* \"#utility.yul\":24873:24885   */\n      add\n        /* \"#utility.yul\":24866:24885   */\n      swap1\n      pop\n        /* \"#utility.yul\":24525:24891   */\n      swap2\n      swap1\n      pop\n      jump\t// out\n        /* \"#utility.yul\":24897:25316   */\n    tag_217:\n        /* \"#utility.yul\":25063:25067   */\n      0x00\n        /* \"#utility.yul\":25101:25103   */\n      0x20\n        /* \"#utility.yul\":25090:25099   */\n      dup3\n        /* \"#utility.yul\":25086:25104   */\n      add\n        /* \"#utility.yul\":25078:25104   */\n      swap1\n      pop\n        /* \"#utility.yul\":25150:25159   */\n      dup2\n        /* \"#utility.yul\":25144:25148   */\n      dup2\n        /* \"#utility.yul\":25140:25160   */\n      sub\n        /* \"#utility.yul\":25136:25137   */\n      0x00\n        /* \"#utility.yul\":25125:25134   */\n      dup4\n        /* \"#utility.yul\":25121:25138   */\n      add\n        /* \"#utility.yul\":25114:25161   */\n      mstore\n        /* \"#utility.yul\":25178:25309   */\n      tag_498\n        /* \"#utility.yul\":25304:25308   */\n      dup2\n        /* \"#utility.yul\":25178:25309   */\n      tag_280\n      jump\t// in\n    tag_498:\n        /* \"#utility.yul\":25170:25309   */\n      swap1\n      pop\n        /* \"#utility.yul\":24897:25316   */\n      swap2\n      swap1\n      pop\n      jump\t// out\n\n    auxdata: 0xa26469706673582212205c72ba83597d73dda05ad34b89126d53679d28e82f2e76f7fb31f4727e28605b64736f6c634300081e0033\n}\n",
				"bytecode": {
					"linkReferences": {},
					"object": "60806040526040518060400160405280600b81526020017f596f756e6720546f6b656e0000000000000000000000000000000000000000008152505f90816100479190610469565b506040518060400160405280600381526020017f59544b00000000000000000000000000000000000000000000000000000000008152506001908161008c9190610469565b5060126002555f600460146101000a81548160ff0219169083151502179055503480156100b7575f5ffd5b50604051612afa380380612afa83398181016040528101906100d99190610566565b3360045f6101000a81548173ffffffffffffffffffffffffffffffffffffffff021916908373ffffffffffffffffffffffffffffffffffffffff160217905550600254600a61012891906106ed565b816101339190610737565b60038190555060035460055f60045f9054906101000a900473ffffffffffffffffffffffffffffffffffffffff1673ffffffffffffffffffffffffffffffffffffffff1673ffffffffffffffffffffffffffffffffffffffff1681526020019081526020015f208190555060045f9054906101000a900473ffffffffffffffffffffffffffffffffffffffff1673ffffffffffffffffffffffffffffffffffffffff165f73ffffffffffffffffffffffffffffffffffffffff167fddf252ad1be2c89b69c2b068fc378daa952ba7f163c4a11628f55a4df523b3ef60035460405161021e9190610787565b60405180910390a3506107a0565b5f81519050919050565b7f4e487b71000000000000000000000000000000000000000000000000000000005f52604160045260245ffd5b7f4e487b71000000000000000000000000000000000000000000000000000000005f52602260045260245ffd5b5f60028204905060018216806102a757607f821691505b6020821081036102ba576102b9610263565b5b50919050565b5f819050815f5260205f209050919050565b5f6020601f8301049050919050565b5f82821b905092915050565b5f6008830261031c7fffffffffffffffffffffffffffffffffffffffffffffffffffffffffffffffff826102e1565b61032686836102e1565b95508019841693508086168417925050509392505050565b5f819050919050565b5f819050919050565b5f61036a6103656103608461033e565b610347565b61033e565b9050919050565b5f819050919050565b61038383610350565b61039761038f82610371565b8484546102ed565b825550505050565b5f5f905090565b6103ae61039f565b6103b981848461037a565b505050565b5b818110156103dc576103d15f826103a6565b6001810190506103bf565b5050565b601f821115610421576103f2816102c0565b6103fb846102d2565b8101602085101561040a578190505b61041e610416856102d2565b8301826103be565b50505b505050565b5f82821c905092915050565b5f6104415f1984600802610426565b1980831691505092915050565b5f6104598383610432565b9150826002028217905092915050565b6104728261022c565b67ffffffffffffffff81111561048b5761048a610236565b5b6104958254610290565b6104a08282856103e0565b5f60209050601f8311600181146104d1575f84156104bf578287015190505b6104c9858261044e565b865550610530565b601f1984166104df866102c0565b5f5b82811015610506578489015182556001820191506020850194506020810190506104e1565b86831015610523578489015161051f601f891682610432565b8355505b6001600288020188555050505b505050505050565b5f5ffd5b6105458161033e565b811461054f575f5ffd5b50565b5f815190506105608161053c565b92915050565b5f6020828403121561057b5761057a610538565b5b5f61058884828501610552565b91505092915050565b7f4e487b71000000000000000000000000000000000000000000000000000000005f52601160045260245ffd5b5f8160011c9050919050565b5f5f8291508390505b6001851115610613578086048111156105ef576105ee610591565b5b60018516156105fe5780820291505b808102905061060c856105be565b94506105d3565b94509492505050565b5f8261062b57600190506106e6565b81610638575f90506106e6565b816001811461064e576002811461065857610687565b60019150506106e6565b60ff84111561066a57610669610591565b5b8360020a91508482111561068157610680610591565b5b506106e6565b5060208310610133831016604e8410600b84101617156106bc5782820a9050838111156106b7576106b6610591565b5b6106e6565b6106c984848460016105ca565b925090508184048111156106e0576106df610591565b5b81810290505b9392505050565b5f6106f78261033e565b91506107028361033e565b925061072f7fffffffffffffffffffffffffffffffffffffffffffffffffffffffffffffffff848461061c565b905092915050565b5f6107418261033e565b915061074c8361033e565b925082820261075a8161033e565b9150828204841483151761077157610770610591565b5b5092915050565b6107818161033e565b82525050565b5f60208201905061079a5f830184610778565b92915050565b61234d806107ad5f395ff3fe608060405234801561000f575f5ffd5b50600436106100fe575f3560e01c806376809ce31161009557806395d89b411161006457806395d89b41146102ae578063a9059cbb146102cc578063d7118351146102fc578063dd62ed3e1461031a576100fe565b806376809ce3146102245780638456cb591461024257806388d695b2146102605780638da5cb5b14610290576100fe565b806340c10f19116100d157806340c10f191461018c57806342966c68146101a857806370a08231146101c457806375247a58146101f4576100fe565b806306fdde031461010257806318160ddd146101205780633112ae5b1461013e5780633f4ba83a1461016e575b5f5ffd5b61010a61034a565b6040516101179190611771565b60405180910390f35b6101286103d5565b60405161013591906117a9565b60405180910390f35b61015860048036038101906101539190611857565b6103db565b60405161016591906118c1565b60405180910390f35b6101766107e7565b60405161018391906118c1565b60405180910390f35b6101a660048036038101906101a191906118da565b6108f5565b005b6101c260048036038101906101bd9190611918565b610b16565b005b6101de60048036038101906101d99190611943565b610cb9565b6040516101eb91906117a9565b60405180910390f35b61020e600480360381019061020991906118da565b610cce565b60405161021b91906118c1565b60405180910390f35b61022c610e79565b60405161023991906117a9565b60405180910390f35b61024a610e7f565b60405161025791906118c1565b60405180910390f35b61027a60048036038101906102759190611b6e565b610f8f565b60405161028791906118c1565b60405180910390f35b6102986113c9565b6040516102a59190611bf3565b60405180910390f35b6102b66113ee565b6040516102c39190611771565b60405180910390f35b6102e660048036038101906102e191906118da565b61147a565b6040516102f391906118c1565b60405180910390f35b6103046116ce565b60405161031191906118c1565b60405180910390f35b610334600480360381019061032f9190611c0c565b6116e1565b60405161034191906117a9565b60405180910390f35b5f805461035690611c77565b80601f016020809104026020016040519081016040528092919081815260200182805461038290611c77565b80156103cd5780601f106103a4576101008083540402835291602001916103cd565b820191905f5260205f20905b8154815290600101906020018083116103b057829003601f168201915b505050505081565b60035481565b5f600460149054906101000a900460ff161561042c576040517f08c379a000000000000000000000000000000000000000000000000000000000815260040161042390611cf1565b60405180910390fd5b5f73ffffffffffffffffffffffffffffffffffffffff168473ffffffffffffffffffffffffffffffffffffffff160361049a576040517f08c379a000000000000000000000000000000000000000000000000000000000815260040161049190611d59565b60405180910390fd5b5f73ffffffffffffffffffffffffffffffffffffffff168373ffffffffffffffffffffffffffffffffffffffff1603610508576040517f08c379a00000000000000000000000000000000000000000000000000000000081526004016104ff90611dc1565b60405180910390fd5b8160055f8673ffffffffffffffffffffffffffffffffffffffff1673ffffffffffffffffffffffffffffffffffffffff1681526020019081526020015f20541015610588576040517f08c379a000000000000000000000000000000000000000000000000000000000815260040161057f90611e29565b60405180910390fd5b8160065f8673ffffffffffffffffffffffffffffffffffffffff1673ffffffffffffffffffffffffffffffffffffffff1681526020019081526020015f205f3373ffffffffffffffffffffffffffffffffffffffff1673ffffffffffffffffffffffffffffffffffffffff1681526020019081526020015f20541015610643576040517f08c379a000000000000000000000000000000000000000000000000000000000815260040161063a90611e91565b60405180910390fd5b8160065f8673ffffffffffffffffffffffffffffffffffffffff1673ffffffffffffffffffffffffffffffffffffffff1681526020019081526020015f205f3373ffffffffffffffffffffffffffffffffffffffff1673ffffffffffffffffffffffffffffffffffffffff1681526020019081526020015f205f8282546106ca9190611edc565b925050819055508160055f8673ffffffffffffffffffffffffffffffffffffffff1673ffffffffffffffffffffffffffffffffffffffff1681526020019081526020015f205f82825461071d9190611edc565b925050819055508160055f8573ffffffffffffffffffffffffffffffffffffffff1673ffffffffffffffffffffffffffffffffffffffff1681526020019081526020015f205f8282546107709190611f0f565b925050819055508273ffffffffffffffffffffffffffffffffffffffff168473ffffffffffffffffffffffffffffffffffffffff167f8c5be1e5ebec7d5bd14f71427d1e84f3dd0314c0f7b2291e5b200ac8c7c3b925846040516107d491906117a9565b60405180910390a3600190509392505050565b5f60045f9054906101000a900473ffffffffffffffffffffffffffffffffffffffff1673ffffffffffffffffffffffffffffffffffffffff163373ffffffffffffffffffffffffffffffffffffffff1614610877576040517f08c379a000000000000000000000000000000000000000000000000000000000815260040161086e90611f8c565b60405180910390fd5b600460149054906101000a900460ff166108c6576040517f08c379a00000000000000000000000000000000000000000000000000000000081526004016108bd90611ff4565b60405180910390fd5b5f600460146101000a81548160ff021916908315150217905550600460149054906101000a900460ff16905090565b600460149054906101000a900460ff1615610945576040517f08c379a000000000000000000000000000000000000000000000000000000000815260040161093c90611cf1565b60405180910390fd5b60045f9054906101000a900473ffffffffffffffffffffffffffffffffffffffff1673ffffffffffffffffffffffffffffffffffffffff163373ffffffffffffffffffffffffffffffffffffffff16146109d4576040517f08c379a00000000000000000000000000000000000000000000000000000000081526004016109cb90611f8c565b60405180910390fd5b5f73ffffffffffffffffffffffffffffffffffffffff168273ffffffffffffffffffffffffffffffffffffffff1603610a42576040517f08c379a0000000000000000000000000000000000000000000000000000000008152600401610a399061205c565b60405180910390fd5b8060035f828254610a539190611f0f565b925050819055508060055f8473ffffffffffffffffffffffffffffffffffffffff1673ffffffffffffffffffffffffffffffffffffffff1681526020019081526020015f205f828254610aa69190611f0f565b925050819055508173ffffffffffffffffffffffffffffffffffffffff165f73ffffffffffffffffffffffffffffffffffffffff167fddf252ad1be2c89b69c2b068fc378daa952ba7f163c4a11628f55a4df523b3ef83604051610b0a91906117a9565b60405180910390a35050565b600460149054906101000a900460ff1615610b66576040517f08c379a0000000000000000000000000000000000000000000000000000000008152600401610b5d90611cf1565b60405180910390fd5b8060055f3373ffffffffffffffffffffffffffffffffffffffff1673ffffffffffffffffffffffffffffffffffffffff1681526020019081526020015f20541015610be6576040517f08c379a0000000000000000000000000000000000000000000000000000000008152600401610bdd90611e29565b60405180910390fd5b8060035f828254610bf79190611edc565b925050819055508060055f3373ffffffffffffffffffffffffffffffffffffffff1673ffffffffffffffffffffffffffffffffffffffff1681526020019081526020015f205f828254610c4a9190611edc565b925050819055505f73ffffffffffffffffffffffffffffffffffffffff163373ffffffffffffffffffffffffffffffffffffffff167fddf252ad1be2c89b69c2b068fc378daa952ba7f163c4a11628f55a4df523b3ef83604051610cae91906117a9565b60405180910390a350565b6005602052805f5260405f205f915090505481565b5f600460149054906101000a900460ff1615610d1f576040517f08c379a0000000000000000000000000000000000000000000000000000000008152600401610d1690611cf1565b60405180910390fd5b5f73ffffffffffffffffffffffffffffffffffffffff168373ffffffffffffffffffffffffffffffffffffffff1603610d8d576040517f08c379a0000000000000000000000000000000000000000000000000000000008152600401610d849061205c565b60405180910390fd5b8160065f3373ffffffffffffffffffffffffffffffffffffffff1673ffffffffffffffffffffffffffffffffffffffff1681526020019081526020015f205f8573ffffffffffffffffffffffffffffffffffffffff1673ffffffffffffffffffffffffffffffffffffffff1681526020019081526020015f20819055508273ffffffffffffffffffffffffffffffffffffffff163373ffffffffffffffffffffffffffffffffffffffff167f8c5be1e5ebec7d5bd14f71427d1e84f3dd0314c0f7b2291e5b200ac8c7c3b92584604051610e6791906117a9565b60405180910390a36001905092915050565b60025481565b5f60045f9054906101000a900473ffffffffffffffffffffffffffffffffffffffff1673ffffffffffffffffffffffffffffffffffffffff163373ffffffffffffffffffffffffffffffffffffffff1614610f0f576040517f08c379a0000000000000000000000000000000000000000000000000000000008152600401610f0690611f8c565b60405180910390fd5b600460149054906101000a900460ff1615610f5f576040517f08c379a0000000000000000000000000000000000000000000000000000000008152600401610f56906120c4565b60405180910390fd5b6001600460146101000a81548160ff021916908315150217905550600460149054906101000a900460ff16905090565b5f600460149054906101000a900460ff1615610fe0576040517f08c379a0000000000000000000000000000000000000000000000000000000008152600401610fd790611cf1565b60405180910390fd5b8151835114611024576040517f08c379a000000000000000000000000000000000000000000000000000000000815260040161101b9061212c565b60405180910390fd5b600383511115611069576040517f08c379a000000000000000000000000000000000000000000000000000000000815260040161106090612194565b60405180910390fd5b5f5f90505f5f90505b83518110156110b05783818151811061108e5761108d6121b2565b5b6020026020010151826110a19190611f0f565b91508080600101915050611072565b508060055f3373ffffffffffffffffffffffffffffffffffffffff1673ffffffffffffffffffffffffffffffffffffffff1681526020019081526020015f20541015611131576040517f08c379a000000000000000000000000000000000000000000000000000000000815260040161112890612229565b60405180910390fd5b5f5f90505b84518110156113bd575f73ffffffffffffffffffffffffffffffffffffffff16858281518110611169576111686121b2565b5b602002602001015173ffffffffffffffffffffffffffffffffffffffff16036111c7576040517f08c379a00000000000000000000000000000000000000000000000000000000081526004016111be9061205c565b60405180910390fd5b5f8482815181106111db576111da6121b2565b5b602002602001015111611223576040517f08c379a000000000000000000000000000000000000000000000000000000000815260040161121a90612291565b60405180910390fd5b838181518110611236576112356121b2565b5b602002602001015160055f3373ffffffffffffffffffffffffffffffffffffffff1673ffffffffffffffffffffffffffffffffffffffff1681526020019081526020015f205f8282546112899190611edc565b925050819055508381815181106112a3576112a26121b2565b5b602002602001015160055f8784815181106112c1576112c06121b2565b5b602002602001015173ffffffffffffffffffffffffffffffffffffffff1673ffffffffffffffffffffffffffffffffffffffff1681526020019081526020015f205f8282546113109190611f0f565b9250508190555084818151811061132a576113296121b2565b5b602002602001015173ffffffffffffffffffffffffffffffffffffffff163373ffffffffffffffffffffffffffffffffffffffff167fddf252ad1be2c89b69c2b068fc378daa952ba7f163c4a11628f55a4df523b3ef868481518110611393576113926121b2565b5b60200260200101516040516113a891906117a9565b60405180910390a38080600101915050611136565b50600191505092915050565b60045f9054906101000a900473ffffffffffffffffffffffffffffffffffffffff1681565b600180546113fb90611c77565b80601f016020809104026020016040519081016040528092919081815260200182805461142790611c77565b80156114725780601f1061144957610100808354040283529160200191611472565b820191905f5260205f20905b81548152906001019060200180831161145557829003601f168201915b505050505081565b5f600460149054906101000a900460ff16156114cb576040517f08c379a00000000000000000000000000000000000000000000000000000000081526004016114c290611cf1565b60405180910390fd5b5f73ffffffffffffffffffffffffffffffffffffffff168373ffffffffffffffffffffffffffffffffffffffff1603611539576040517f08c379a00000000000000000000000000000000000000000000000000000000081526004016115309061205c565b60405180910390fd5b8160055f3373ffffffffffffffffffffffffffffffffffffffff1673ffffffffffffffffffffffffffffffffffffffff1681526020019081526020015f205410156115b9576040517f08c379a00000000000000000000000000000000000000000000000000000000081526004016115b0906122f9565b60405180910390fd5b8160055f3373ffffffffffffffffffffffffffffffffffffffff1673ffffffffffffffffffffffffffffffffffffffff1681526020019081526020015f205f8282546116059190611edc565b925050819055508160055f8573ffffffffffffffffffffffffffffffffffffffff1673ffffffffffffffffffffffffffffffffffffffff1681526020019081526020015f205f8282546116589190611f0f565b925050819055508273ffffffffffffffffffffffffffffffffffffffff163373ffffffffffffffffffffffffffffffffffffffff167fddf252ad1be2c89b69c2b068fc378daa952ba7f163c4a11628f55a4df523b3ef846040516116bc91906117a9565b60405180910390a36001905092915050565b600460149054906101000a900460ff1681565b6006602052815f5260405f20602052805f5260405f205f91509150505481565b5f81519050919050565b5f82825260208201905092915050565b8281835e5f83830152505050565b5f601f19601f8301169050919050565b5f61174382611701565b61174d818561170b565b935061175d81856020860161171b565b61176681611729565b840191505092915050565b5f6020820190508181035f8301526117898184611739565b905092915050565b5f819050919050565b6117a381611791565b82525050565b5f6020820190506117bc5f83018461179a565b92915050565b5f604051905090565b5f5ffd5b5f5ffd5b5f73ffffffffffffffffffffffffffffffffffffffff82169050919050565b5f6117fc826117d3565b9050919050565b61180c816117f2565b8114611816575f5ffd5b50565b5f8135905061182781611803565b92915050565b61183681611791565b8114611840575f5ffd5b50565b5f813590506118518161182d565b92915050565b5f5f5f6060848603121561186e5761186d6117cb565b5b5f61187b86828701611819565b935050602061188c86828701611819565b925050604061189d86828701611843565b9150509250925092565b5f8115159050919050565b6118bb816118a7565b82525050565b5f6020820190506118d45f8301846118b2565b92915050565b5f5f604083850312156118f0576118ef6117cb565b5b5f6118fd85828601611819565b925050602061190e85828601611843565b9150509250929050565b5f6020828403121561192d5761192c6117cb565b5b5f61193a84828501611843565b91505092915050565b5f60208284031215611958576119576117cb565b5b5f61196584828501611819565b91505092915050565b5f5ffd5b7f4e487b71000000000000000000000000000000000000000000000000000000005f52604160045260245ffd5b6119a882611729565b810181811067ffffffffffffffff821117156119c7576119c6611972565b5b80604052505050565b5f6119d96117c2565b90506119e5828261199f565b919050565b5f67ffffffffffffffff821115611a0457611a03611972565b5b602082029050602081019050919050565b5f5ffd5b5f611a2b611a26846119ea565b6119d0565b90508083825260208201905060208402830185811115611a4e57611a4d611a15565b5b835b81811015611a775780611a638882611819565b845260208401935050602081019050611a50565b5050509392505050565b5f82601f830112611a9557611a9461196e565b5b8135611aa5848260208601611a19565b91505092915050565b5f67ffffffffffffffff821115611ac857611ac7611972565b5b602082029050602081019050919050565b5f611aeb611ae684611aae565b6119d0565b90508083825260208201905060208402830185811115611b0e57611b0d611a15565b5b835b81811015611b375780611b238882611843565b845260208401935050602081019050611b10565b5050509392505050565b5f82601f830112611b5557611b5461196e565b5b8135611b65848260208601611ad9565b91505092915050565b5f5f60408385031215611b8457611b836117cb565b5b5f83013567ffffffffffffffff811115611ba157611ba06117cf565b5b611bad85828601611a81565b925050602083013567ffffffffffffffff811115611bce57611bcd6117cf565b5b611bda85828601611b41565b9150509250929050565b611bed816117f2565b82525050565b5f602082019050611c065f830184611be4565b92915050565b5f5f60408385031215611c2257611c216117cb565b5b5f611c2f85828601611819565b9250506020611c4085828601611819565b9150509250929050565b7f4e487b71000000000000000000000000000000000000000000000000000000005f52602260045260245ffd5b5f6002820490506001821680611c8e57607f821691505b602082108103611ca157611ca0611c4a565b5b50919050565b7f5472616e736665722070617573656400000000000000000000000000000000005f82015250565b5f611cdb600f8361170b565b9150611ce682611ca7565b602082019050919050565b5f6020820190508181035f830152611d0881611ccf565b9050919050565b7f46726f6d206973207a65726f20616464726573730000000000000000000000005f82015250565b5f611d4360148361170b565b9150611d4e82611d0f565b602082019050919050565b5f6020820190508181035f830152611d7081611d37565b9050919050565b7f546f206973207a65726f206164647265737300000000000000000000000000005f82015250565b5f611dab60128361170b565b9150611db682611d77565b602082019050919050565b5f6020820190508181035f830152611dd881611d9f565b9050919050565b7f496e73756666696369656e742062616c616e63650000000000000000000000005f82015250565b5f611e1360148361170b565b9150611e1e82611ddf565b602082019050919050565b5f6020820190508181035f830152611e4081611e07565b9050919050565b7f496e73756666696369656e7420616d6f756e74000000000000000000000000005f82015250565b5f611e7b60138361170b565b9150611e8682611e47565b602082019050919050565b5f6020820190508181035f830152611ea881611e6f565b9050919050565b7f4e487b71000000000000000000000000000000000000000000000000000000005f52601160045260245ffd5b5f611ee682611791565b9150611ef183611791565b9250828203905081811115611f0957611f08611eaf565b5b92915050565b5f611f1982611791565b9150611f2483611791565b9250828201905080821115611f3c57611f3b611eaf565b5b92915050565b7f4f6e6c79204f776e6572000000000000000000000000000000000000000000005f82015250565b5f611f76600a8361170b565b9150611f8182611f42565b602082019050919050565b5f6020820190508181035f830152611fa381611f6a565b9050919050565b7f546865207374617465206973206e6f74207061757365640000000000000000005f82015250565b5f611fde60178361170b565b9150611fe982611faa565b602082019050919050565b5f6020820190508181035f83015261200b81611fd2565b9050919050565b7f5a65726f206164647265737300000000000000000000000000000000000000005f82015250565b5f612046600c8361170b565b915061205182612012565b602082019050919050565b5f6020820190508181035f8301526120738161203a565b9050919050565b7f54686520737461746520697320706175736564000000000000000000000000005f82015250565b5f6120ae60138361170b565b91506120b98261207a565b602082019050919050565b5f6020820190508181035f8301526120db816120a2565b9050919050565b7f556e657175616c206c656e6774687300000000000000000000000000000000005f82015250565b5f612116600f8361170b565b9150612121826120e2565b602082019050919050565b5f6020820190508181035f8301526121438161210a565b9050919050565b7f4c656e677468206973206c696d697465640000000000000000000000000000005f82015250565b5f61217e60118361170b565b91506121898261214a565b602082019050919050565b5f6020820190508181035f8301526121ab81612172565b9050919050565b7f4e487b71000000000000000000000000000000000000000000000000000000005f52603260045260245ffd5b7f496e73756666696369656e7420616f756d7400000000000000000000000000005f82015250565b5f61221360128361170b565b915061221e826121df565b602082019050919050565b5f6020820190508181035f83015261224081612207565b9050919050565b7f496e76616c696420616d6f756e740000000000000000000000000000000000005f82015250565b5f61227b600e8361170b565b915061228682612247565b602082019050919050565b5f6020820190508181035f8301526122a88161226f565b9050919050565b7f496e73756666696369656e74732062616c616e636500000000000000000000005f82015250565b5f6122e360158361170b565b91506122ee826122af565b602082019050919050565b5f6020820190508181035f830152612310816122d7565b905091905056fea26469706673582212205c72ba83597d73dda05ad34b89126d53679d28e82f2e76f7fb31f4727e28605b64736f6c634300081e0033",
					"opcodes": "PUSH1 0x80 PUSH1 0x40 MSTORE PUSH1 0x40 MLOAD DUP1 PUSH1 0x40 ADD PUSH1 0x40 MSTORE DUP1 PUSH1 0xB DUP2 MSTORE PUSH1 0x20 ADD PUSH32 0x596F756E6720546F6B656E000000000000000000000000000000000000000000 DUP2 MSTORE POP PUSH0 SWAP1 DUP2 PUSH2 0x47 SWAP2 SWAP1 PUSH2 0x469 JUMP JUMPDEST POP PUSH1 0x40 MLOAD DUP1 PUSH1 0x40 ADD PUSH1 0x40 MSTORE DUP1 PUSH1 0x3 DUP2 MSTORE PUSH1 0x20 ADD PUSH32 0x59544B0000000000000000000000000000000000000000000000000000000000 DUP2 MSTORE POP PUSH1 0x1 SWAP1 DUP2 PUSH2 0x8C SWAP2 SWAP1 PUSH2 0x469 JUMP JUMPDEST POP PUSH1 0x12 PUSH1 0x2 SSTORE PUSH0 PUSH1 0x4 PUSH1 0x14 PUSH2 0x100 EXP DUP2 SLOAD DUP2 PUSH1 0xFF MUL NOT AND SWAP1 DUP4 ISZERO ISZERO MUL OR SWAP1 SSTORE POP CALLVALUE DUP1 ISZERO PUSH2 0xB7 JUMPI PUSH0 PUSH0 REVERT JUMPDEST POP PUSH1 0x40 MLOAD PUSH2 0x2AFA CODESIZE SUB DUP1 PUSH2 0x2AFA DUP4 CODECOPY DUP2 DUP2 ADD PUSH1 0x40 MSTORE DUP2 ADD SWAP1 PUSH2 0xD9 SWAP2 SWAP1 PUSH2 0x566 JUMP JUMPDEST CALLER PUSH1 0x4 PUSH0 PUSH2 0x100 EXP DUP2 SLOAD DUP2 PUSH20 0xFFFFFFFFFFFFFFFFFFFFFFFFFFFFFFFFFFFFFFFF MUL NOT AND SWAP1 DUP4 PUSH20 0xFFFFFFFFFFFFFFFFFFFFFFFFFFFFFFFFFFFFFFFF AND MUL OR SWAP1 SSTORE POP PUSH1 0x2 SLOAD PUSH1 0xA PUSH2 0x128 SWAP2 SWAP1 PUSH2 0x6ED JUMP JUMPDEST DUP2 PUSH2 0x133 SWAP2 SWAP1 PUSH2 0x737 JUMP JUMPDEST PUSH1 0x3 DUP2 SWAP1 SSTORE POP PUSH1 0x3 SLOAD PUSH1 0x5 PUSH0 PUSH1 0x4 PUSH0 SWAP1 SLOAD SWAP1 PUSH2 0x100 EXP SWAP1 DIV PUSH20 0xFFFFFFFFFFFFFFFFFFFFFFFFFFFFFFFFFFFFFFFF AND PUSH20 0xFFFFFFFFFFFFFFFFFFFFFFFFFFFFFFFFFFFFFFFF AND PUSH20 0xFFFFFFFFFFFFFFFFFFFFFFFFFFFFFFFFFFFFFFFF AND DUP2 MSTORE PUSH1 0x20 ADD SWAP1 DUP2 MSTORE PUSH1 0x20 ADD PUSH0 KECCAK256 DUP2 SWAP1 SSTORE POP PUSH1 0x4 PUSH0 SWAP1 SLOAD SWAP1 PUSH2 0x100 EXP SWAP1 DIV PUSH20 0xFFFFFFFFFFFFFFFFFFFFFFFFFFFFFFFFFFFFFFFF AND PUSH20 0xFFFFFFFFFFFFFFFFFFFFFFFFFFFFFFFFFFFFFFFF AND PUSH0 PUSH20 0xFFFFFFFFFFFFFFFFFFFFFFFFFFFFFFFFFFFFFFFF AND PUSH32 0xDDF252AD1BE2C89B69C2B068FC378DAA952BA7F163C4A11628F55A4DF523B3EF PUSH1 0x3 SLOAD PUSH1 0x40 MLOAD PUSH2 0x21E SWAP2 SWAP1 PUSH2 0x787 JUMP JUMPDEST PUSH1 0x40 MLOAD DUP1 SWAP2 SUB SWAP1 LOG3 POP PUSH2 0x7A0 JUMP JUMPDEST PUSH0 DUP2 MLOAD SWAP1 POP SWAP2 SWAP1 POP JUMP JUMPDEST PUSH32 0x4E487B7100000000000000000000000000000000000000000000000000000000 PUSH0 MSTORE PUSH1 0x41 PUSH1 0x4 MSTORE PUSH1 0x24 PUSH0 REVERT JUMPDEST PUSH32 0x4E487B7100000000000000000000000000000000000000000000000000000000 PUSH0 MSTORE PUSH1 0x22 PUSH1 0x4 MSTORE PUSH1 0x24 PUSH0 REVERT JUMPDEST PUSH0 PUSH1 0x2 DUP3 DIV SWAP1 POP PUSH1 0x1 DUP3 AND DUP1 PUSH2 0x2A7 JUMPI PUSH1 0x7F DUP3 AND SWAP2 POP JUMPDEST PUSH1 0x20 DUP3 LT DUP2 SUB PUSH2 0x2BA JUMPI PUSH2 0x2B9 PUSH2 0x263 JUMP JUMPDEST JUMPDEST POP SWAP2 SWAP1 POP JUMP JUMPDEST PUSH0 DUP2 SWAP1 POP DUP2 PUSH0 MSTORE PUSH1 0x20 PUSH0 KECCAK256 SWAP1 POP SWAP2 SWAP1 POP JUMP JUMPDEST PUSH0 PUSH1 0x20 PUSH1 0x1F DUP4 ADD DIV SWAP1 POP SWAP2 SWAP1 POP JUMP JUMPDEST PUSH0 DUP3 DUP3 SHL SWAP1 POP SWAP3 SWAP2 POP POP JUMP JUMPDEST PUSH0 PUSH1 0x8 DUP4 MUL PUSH2 0x31C PUSH32 0xFFFFFFFFFFFFFFFFFFFFFFFFFFFFFFFFFFFFFFFFFFFFFFFFFFFFFFFFFFFFFFFF DUP3 PUSH2 0x2E1 JUMP JUMPDEST PUSH2 0x326 DUP7 DUP4 PUSH2 0x2E1 JUMP JUMPDEST SWAP6 POP DUP1 NOT DUP5 AND SWAP4 POP DUP1 DUP7 AND DUP5 OR SWAP3 POP POP POP SWAP4 SWAP3 POP POP POP JUMP JUMPDEST PUSH0 DUP2 SWAP1 POP SWAP2 SWAP1 POP JUMP JUMPDEST PUSH0 DUP2 SWAP1 POP SWAP2 SWAP1 POP JUMP JUMPDEST PUSH0 PUSH2 0x36A PUSH2 0x365 PUSH2 0x360 DUP5 PUSH2 0x33E JUMP JUMPDEST PUSH2 0x347 JUMP JUMPDEST PUSH2 0x33E JUMP JUMPDEST SWAP1 POP SWAP2 SWAP1 POP JUMP JUMPDEST PUSH0 DUP2 SWAP1 POP SWAP2 SWAP1 POP JUMP JUMPDEST PUSH2 0x383 DUP4 PUSH2 0x350 JUMP JUMPDEST PUSH2 0x397 PUSH2 0x38F DUP3 PUSH2 0x371 JUMP JUMPDEST DUP5 DUP5 SLOAD PUSH2 0x2ED JUMP JUMPDEST DUP3 SSTORE POP POP POP POP JUMP JUMPDEST PUSH0 PUSH0 SWAP1 POP SWAP1 JUMP JUMPDEST PUSH2 0x3AE PUSH2 0x39F JUMP JUMPDEST PUSH2 0x3B9 DUP2 DUP5 DUP5 PUSH2 0x37A JUMP JUMPDEST POP POP POP JUMP JUMPDEST JUMPDEST DUP2 DUP2 LT ISZERO PUSH2 0x3DC JUMPI PUSH2 0x3D1 PUSH0 DUP3 PUSH2 0x3A6 JUMP JUMPDEST PUSH1 0x1 DUP2 ADD SWAP1 POP PUSH2 0x3BF JUMP JUMPDEST POP POP JUMP JUMPDEST PUSH1 0x1F DUP3 GT ISZERO PUSH2 0x421 JUMPI PUSH2 0x3F2 DUP2 PUSH2 0x2C0 JUMP JUMPDEST PUSH2 0x3FB DUP5 PUSH2 0x2D2 JUMP JUMPDEST DUP2 ADD PUSH1 0x20 DUP6 LT ISZERO PUSH2 0x40A JUMPI DUP2 SWAP1 POP JUMPDEST PUSH2 0x41E PUSH2 0x416 DUP6 PUSH2 0x2D2 JUMP JUMPDEST DUP4 ADD DUP3 PUSH2 0x3BE JUMP JUMPDEST POP POP JUMPDEST POP POP POP JUMP JUMPDEST PUSH0 DUP3 DUP3 SHR SWAP1 POP SWAP3 SWAP2 POP POP JUMP JUMPDEST PUSH0 PUSH2 0x441 PUSH0 NOT DUP5 PUSH1 0x8 MUL PUSH2 0x426 JUMP JUMPDEST NOT DUP1 DUP4 AND SWAP2 POP POP SWAP3 SWAP2 POP POP JUMP JUMPDEST PUSH0 PUSH2 0x459 DUP4 DUP4 PUSH2 0x432 JUMP JUMPDEST SWAP2 POP DUP3 PUSH1 0x2 MUL DUP3 OR SWAP1 POP SWAP3 SWAP2 POP POP JUMP JUMPDEST PUSH2 0x472 DUP3 PUSH2 0x22C JUMP JUMPDEST PUSH8 0xFFFFFFFFFFFFFFFF DUP2 GT ISZERO PUSH2 0x48B JUMPI PUSH2 0x48A PUSH2 0x236 JUMP JUMPDEST JUMPDEST PUSH2 0x495 DUP3 SLOAD PUSH2 0x290 JUMP JUMPDEST PUSH2 0x4A0 DUP3 DUP3 DUP6 PUSH2 0x3E0 JUMP JUMPDEST PUSH0 PUSH1 0x20 SWAP1 POP PUSH1 0x1F DUP4 GT PUSH1 0x1 DUP2 EQ PUSH2 0x4D1 JUMPI PUSH0 DUP5 ISZERO PUSH2 0x4BF JUMPI DUP3 DUP8 ADD MLOAD SWAP1 POP JUMPDEST PUSH2 0x4C9 DUP6 DUP3 PUSH2 0x44E JUMP JUMPDEST DUP7 SSTORE POP PUSH2 0x530 JUMP JUMPDEST PUSH1 0x1F NOT DUP5 AND PUSH2 0x4DF DUP7 PUSH2 0x2C0 JUMP JUMPDEST PUSH0 JUMPDEST DUP3 DUP2 LT ISZERO PUSH2 0x506 JUMPI DUP5 DUP10 ADD MLOAD DUP3 SSTORE PUSH1 0x1 DUP3 ADD SWAP2 POP PUSH1 0x20 DUP6 ADD SWAP5 POP PUSH1 0x20 DUP2 ADD SWAP1 POP PUSH2 0x4E1 JUMP JUMPDEST DUP7 DUP4 LT ISZERO PUSH2 0x523 JUMPI DUP5 DUP10 ADD MLOAD PUSH2 0x51F PUSH1 0x1F DUP10 AND DUP3 PUSH2 0x432 JUMP JUMPDEST DUP4 SSTORE POP JUMPDEST PUSH1 0x1 PUSH1 0x2 DUP9 MUL ADD DUP9 SSTORE POP POP POP JUMPDEST POP POP POP POP POP POP JUMP JUMPDEST PUSH0 PUSH0 REVERT JUMPDEST PUSH2 0x545 DUP2 PUSH2 0x33E JUMP JUMPDEST DUP2 EQ PUSH2 0x54F JUMPI PUSH0 PUSH0 REVERT JUMPDEST POP JUMP JUMPDEST PUSH0 DUP2 MLOAD SWAP1 POP PUSH2 0x560 DUP2 PUSH2 0x53C JUMP JUMPDEST SWAP3 SWAP2 POP POP JUMP JUMPDEST PUSH0 PUSH1 0x20 DUP3 DUP5 SUB SLT ISZERO PUSH2 0x57B JUMPI PUSH2 0x57A PUSH2 0x538 JUMP JUMPDEST JUMPDEST PUSH0 PUSH2 0x588 DUP5 DUP3 DUP6 ADD PUSH2 0x552 JUMP JUMPDEST SWAP2 POP POP SWAP3 SWAP2 POP POP JUMP JUMPDEST PUSH32 0x4E487B7100000000000000000000000000000000000000000000000000000000 PUSH0 MSTORE PUSH1 0x11 PUSH1 0x4 MSTORE PUSH1 0x24 PUSH0 REVERT JUMPDEST PUSH0 DUP2 PUSH1 0x1 SHR SWAP1 POP SWAP2 SWAP1 POP JUMP JUMPDEST PUSH0 PUSH0 DUP3 SWAP2 POP DUP4 SWAP1 POP JUMPDEST PUSH1 0x1 DUP6 GT ISZERO PUSH2 0x613 JUMPI DUP1 DUP7 DIV DUP2 GT ISZERO PUSH2 0x5EF JUMPI PUSH2 0x5EE PUSH2 0x591 JUMP JUMPDEST JUMPDEST PUSH1 0x1 DUP6 AND ISZERO PUSH2 0x5FE JUMPI DUP1 DUP3 MUL SWAP2 POP JUMPDEST DUP1 DUP2 MUL SWAP1 POP PUSH2 0x60C DUP6 PUSH2 0x5BE JUMP JUMPDEST SWAP5 POP PUSH2 0x5D3 JUMP JUMPDEST SWAP5 POP SWAP5 SWAP3 POP POP POP JUMP JUMPDEST PUSH0 DUP3 PUSH2 0x62B JUMPI PUSH1 0x1 SWAP1 POP PUSH2 0x6E6 JUMP JUMPDEST DUP2 PUSH2 0x638 JUMPI PUSH0 SWAP1 POP PUSH2 0x6E6 JUMP JUMPDEST DUP2 PUSH1 0x1 DUP2 EQ PUSH2 0x64E JUMPI PUSH1 0x2 DUP2 EQ PUSH2 0x658 JUMPI PUSH2 0x687 JUMP JUMPDEST PUSH1 0x1 SWAP2 POP POP PUSH2 0x6E6 JUMP JUMPDEST PUSH1 0xFF DUP5 GT ISZERO PUSH2 0x66A JUMPI PUSH2 0x669 PUSH2 0x591 JUMP JUMPDEST JUMPDEST DUP4 PUSH1 0x2 EXP SWAP2 POP DUP5 DUP3 GT ISZERO PUSH2 0x681 JUMPI PUSH2 0x680 PUSH2 0x591 JUMP JUMPDEST JUMPDEST POP PUSH2 0x6E6 JUMP JUMPDEST POP PUSH1 0x20 DUP4 LT PUSH2 0x133 DUP4 LT AND PUSH1 0x4E DUP5 LT PUSH1 0xB DUP5 LT AND OR ISZERO PUSH2 0x6BC JUMPI DUP3 DUP3 EXP SWAP1 POP DUP4 DUP2 GT ISZERO PUSH2 0x6B7 JUMPI PUSH2 0x6B6 PUSH2 0x591 JUMP JUMPDEST JUMPDEST PUSH2 0x6E6 JUMP JUMPDEST PUSH2 0x6C9 DUP5 DUP5 DUP5 PUSH1 0x1 PUSH2 0x5CA JUMP JUMPDEST SWAP3 POP SWAP1 POP DUP2 DUP5 DIV DUP2 GT ISZERO PUSH2 0x6E0 JUMPI PUSH2 0x6DF PUSH2 0x591 JUMP JUMPDEST JUMPDEST DUP2 DUP2 MUL SWAP1 POP JUMPDEST SWAP4 SWAP3 POP POP POP JUMP JUMPDEST PUSH0 PUSH2 0x6F7 DUP3 PUSH2 0x33E JUMP JUMPDEST SWAP2 POP PUSH2 0x702 DUP4 PUSH2 0x33E JUMP JUMPDEST SWAP3 POP PUSH2 0x72F PUSH32 0xFFFFFFFFFFFFFFFFFFFFFFFFFFFFFFFFFFFFFFFFFFFFFFFFFFFFFFFFFFFFFFFF DUP5 DUP5 PUSH2 0x61C JUMP JUMPDEST SWAP1 POP SWAP3 SWAP2 POP POP JUMP JUMPDEST PUSH0 PUSH2 0x741 DUP3 PUSH2 0x33E JUMP JUMPDEST SWAP2 POP PUSH2 0x74C DUP4 PUSH2 0x33E JUMP JUMPDEST SWAP3 POP DUP3 DUP3 MUL PUSH2 0x75A DUP2 PUSH2 0x33E JUMP JUMPDEST SWAP2 POP DUP3 DUP3 DIV DUP5 EQ DUP4 ISZERO OR PUSH2 0x771 JUMPI PUSH2 0x770 PUSH2 0x591 JUMP JUMPDEST JUMPDEST POP SWAP3 SWAP2 POP POP JUMP JUMPDEST PUSH2 0x781 DUP2 PUSH2 0x33E JUMP JUMPDEST DUP3 MSTORE POP POP JUMP JUMPDEST PUSH0 PUSH1 0x20 DUP3 ADD SWAP1 POP PUSH2 0x79A PUSH0 DUP4 ADD DUP5 PUSH2 0x778 JUMP JUMPDEST SWAP3 SWAP2 POP POP JUMP JUMPDEST PUSH2 0x234D DUP1 PUSH2 0x7AD PUSH0 CODECOPY PUSH0 RETURN INVALID PUSH1 0x80 PUSH1 0x40 MSTORE CALLVALUE DUP1 ISZERO PUSH2 0xF JUMPI PUSH0 PUSH0 REVERT JUMPDEST POP PUSH1 0x4 CALLDATASIZE LT PUSH2 0xFE JUMPI PUSH0 CALLDATALOAD PUSH1 0xE0 SHR DUP1 PUSH4 0x76809CE3 GT PUSH2 0x95 JUMPI DUP1 PUSH4 0x95D89B41 GT PUSH2 0x64 JUMPI DUP1 PUSH4 0x95D89B41 EQ PUSH2 0x2AE JUMPI DUP1 PUSH4 0xA9059CBB EQ PUSH2 0x2CC JUMPI DUP1 PUSH4 0xD7118351 EQ PUSH2 0x2FC JUMPI DUP1 PUSH4 0xDD62ED3E EQ PUSH2 0x31A JUMPI PUSH2 0xFE JUMP JUMPDEST DUP1 PUSH4 0x76809CE3 EQ PUSH2 0x224 JUMPI DUP1 PUSH4 0x8456CB59 EQ PUSH2 0x242 JUMPI DUP1 PUSH4 0x88D695B2 EQ PUSH2 0x260 JUMPI DUP1 PUSH4 0x8DA5CB5B EQ PUSH2 0x290 JUMPI PUSH2 0xFE JUMP JUMPDEST DUP1 PUSH4 0x40C10F19 GT PUSH2 0xD1 JUMPI DUP1 PUSH4 0x40C10F19 EQ PUSH2 0x18C JUMPI DUP1 PUSH4 0x42966C68 EQ PUSH2 0x1A8 JUMPI DUP1 PUSH4 0x70A08231 EQ PUSH2 0x1C4 JUMPI DUP1 PUSH4 0x75247A58 EQ PUSH2 0x1F4 JUMPI PUSH2 0xFE JUMP JUMPDEST DUP1 PUSH4 0x6FDDE03 EQ PUSH2 0x102 JUMPI DUP1 PUSH4 0x18160DDD EQ PUSH2 0x120 JUMPI DUP1 PUSH4 0x3112AE5B EQ PUSH2 0x13E JUMPI DUP1 PUSH4 0x3F4BA83A EQ PUSH2 0x16E JUMPI JUMPDEST PUSH0 PUSH0 REVERT JUMPDEST PUSH2 0x10A PUSH2 0x34A JUMP JUMPDEST PUSH1 0x40 MLOAD PUSH2 0x117 SWAP2 SWAP1 PUSH2 0x1771 JUMP JUMPDEST PUSH1 0x40 MLOAD DUP1 SWAP2 SUB SWAP1 RETURN JUMPDEST PUSH2 0x128 PUSH2 0x3D5 JUMP JUMPDEST PUSH1 0x40 MLOAD PUSH2 0x135 SWAP2 SWAP1 PUSH2 0x17A9 JUMP JUMPDEST PUSH1 0x40 MLOAD DUP1 SWAP2 SUB SWAP1 RETURN JUMPDEST PUSH2 0x158 PUSH1 0x4 DUP1 CALLDATASIZE SUB DUP2 ADD SWAP1 PUSH2 0x153 SWAP2 SWAP1 PUSH2 0x1857 JUMP JUMPDEST PUSH2 0x3DB JUMP JUMPDEST PUSH1 0x40 MLOAD PUSH2 0x165 SWAP2 SWAP1 PUSH2 0x18C1 JUMP JUMPDEST PUSH1 0x40 MLOAD DUP1 SWAP2 SUB SWAP1 RETURN JUMPDEST PUSH2 0x176 PUSH2 0x7E7 JUMP JUMPDEST PUSH1 0x40 MLOAD PUSH2 0x183 SWAP2 SWAP1 PUSH2 0x18C1 JUMP JUMPDEST PUSH1 0x40 MLOAD DUP1 SWAP2 SUB SWAP1 RETURN JUMPDEST PUSH2 0x1A6 PUSH1 0x4 DUP1 CALLDATASIZE SUB DUP2 ADD SWAP1 PUSH2 0x1A1 SWAP2 SWAP1 PUSH2 0x18DA JUMP JUMPDEST PUSH2 0x8F5 JUMP JUMPDEST STOP JUMPDEST PUSH2 0x1C2 PUSH1 0x4 DUP1 CALLDATASIZE SUB DUP2 ADD SWAP1 PUSH2 0x1BD SWAP2 SWAP1 PUSH2 0x1918 JUMP JUMPDEST PUSH2 0xB16 JUMP JUMPDEST STOP JUMPDEST PUSH2 0x1DE PUSH1 0x4 DUP1 CALLDATASIZE SUB DUP2 ADD SWAP1 PUSH2 0x1D9 SWAP2 SWAP1 PUSH2 0x1943 JUMP JUMPDEST PUSH2 0xCB9 JUMP JUMPDEST PUSH1 0x40 MLOAD PUSH2 0x1EB SWAP2 SWAP1 PUSH2 0x17A9 JUMP JUMPDEST PUSH1 0x40 MLOAD DUP1 SWAP2 SUB SWAP1 RETURN JUMPDEST PUSH2 0x20E PUSH1 0x4 DUP1 CALLDATASIZE SUB DUP2 ADD SWAP1 PUSH2 0x209 SWAP2 SWAP1 PUSH2 0x18DA JUMP JUMPDEST PUSH2 0xCCE JUMP JUMPDEST PUSH1 0x40 MLOAD PUSH2 0x21B SWAP2 SWAP1 PUSH2 0x18C1 JUMP JUMPDEST PUSH1 0x40 MLOAD DUP1 SWAP2 SUB SWAP1 RETURN JUMPDEST PUSH2 0x22C PUSH2 0xE79 JUMP JUMPDEST PUSH1 0x40 MLOAD PUSH2 0x239 SWAP2 SWAP1 PUSH2 0x17A9 JUMP JUMPDEST PUSH1 0x40 MLOAD DUP1 SWAP2 SUB SWAP1 RETURN JUMPDEST PUSH2 0x24A PUSH2 0xE7F JUMP JUMPDEST PUSH1 0x40 MLOAD PUSH2 0x257 SWAP2 SWAP1 PUSH2 0x18C1 JUMP JUMPDEST PUSH1 0x40 MLOAD DUP1 SWAP2 SUB SWAP1 RETURN JUMPDEST PUSH2 0x27A PUSH1 0x4 DUP1 CALLDATASIZE SUB DUP2 ADD SWAP1 PUSH2 0x275 SWAP2 SWAP1 PUSH2 0x1B6E JUMP JUMPDEST PUSH2 0xF8F JUMP JUMPDEST PUSH1 0x40 MLOAD PUSH2 0x287 SWAP2 SWAP1 PUSH2 0x18C1 JUMP JUMPDEST PUSH1 0x40 MLOAD DUP1 SWAP2 SUB SWAP1 RETURN JUMPDEST PUSH2 0x298 PUSH2 0x13C9 JUMP JUMPDEST PUSH1 0x40 MLOAD PUSH2 0x2A5 SWAP2 SWAP1 PUSH2 0x1BF3 JUMP JUMPDEST PUSH1 0x40 MLOAD DUP1 SWAP2 SUB SWAP1 RETURN JUMPDEST PUSH2 0x2B6 PUSH2 0x13EE JUMP JUMPDEST PUSH1 0x40 MLOAD PUSH2 0x2C3 SWAP2 SWAP1 PUSH2 0x1771 JUMP JUMPDEST PUSH1 0x40 MLOAD DUP1 SWAP2 SUB SWAP1 RETURN JUMPDEST PUSH2 0x2E6 PUSH1 0x4 DUP1 CALLDATASIZE SUB DUP2 ADD SWAP1 PUSH2 0x2E1 SWAP2 SWAP1 PUSH2 0x18DA JUMP JUMPDEST PUSH2 0x147A JUMP JUMPDEST PUSH1 0x40 MLOAD PUSH2 0x2F3 SWAP2 SWAP1 PUSH2 0x18C1 JUMP JUMPDEST PUSH1 0x40 MLOAD DUP1 SWAP2 SUB SWAP1 RETURN JUMPDEST PUSH2 0x304 PUSH2 0x16CE JUMP JUMPDEST PUSH1 0x40 MLOAD PUSH2 0x311 SWAP2 SWAP1 PUSH2 0x18C1 JUMP JUMPDEST PUSH1 0x40 MLOAD DUP1 SWAP2 SUB SWAP1 RETURN JUMPDEST PUSH2 0x334 PUSH1 0x4 DUP1 CALLDATASIZE SUB DUP2 ADD SWAP1 PUSH2 0x32F SWAP2 SWAP1 PUSH2 0x1C0C JUMP JUMPDEST PUSH2 0x16E1 JUMP JUMPDEST PUSH1 0x40 MLOAD PUSH2 0x341 SWAP2 SWAP1 PUSH2 0x17A9 JUMP JUMPDEST PUSH1 0x40 MLOAD DUP1 SWAP2 SUB SWAP1 RETURN JUMPDEST PUSH0 DUP1 SLOAD PUSH2 0x356 SWAP1 PUSH2 0x1C77 JUMP JUMPDEST DUP1 PUSH1 0x1F ADD PUSH1 0x20 DUP1 SWAP2 DIV MUL PUSH1 0x20 ADD PUSH1 0x40 MLOAD SWAP1 DUP2 ADD PUSH1 0x40 MSTORE DUP1 SWAP3 SWAP2 SWAP1 DUP2 DUP2 MSTORE PUSH1 0x20 ADD DUP3 DUP1 SLOAD PUSH2 0x382 SWAP1 PUSH2 0x1C77 JUMP JUMPDEST DUP1 ISZERO PUSH2 0x3CD JUMPI DUP1 PUSH1 0x1F LT PUSH2 0x3A4 JUMPI PUSH2 0x100 DUP1 DUP4 SLOAD DIV MUL DUP4 MSTORE SWAP2 PUSH1 0x20 ADD SWAP2 PUSH2 0x3CD JUMP JUMPDEST DUP3 ADD SWAP2 SWAP1 PUSH0 MSTORE PUSH1 0x20 PUSH0 KECCAK256 SWAP1 JUMPDEST DUP2 SLOAD DUP2 MSTORE SWAP1 PUSH1 0x1 ADD SWAP1 PUSH1 0x20 ADD DUP1 DUP4 GT PUSH2 0x3B0 JUMPI DUP3 SWAP1 SUB PUSH1 0x1F AND DUP3 ADD SWAP2 JUMPDEST POP POP POP POP POP DUP2 JUMP JUMPDEST PUSH1 0x3 SLOAD DUP2 JUMP JUMPDEST PUSH0 PUSH1 0x4 PUSH1 0x14 SWAP1 SLOAD SWAP1 PUSH2 0x100 EXP SWAP1 DIV PUSH1 0xFF AND ISZERO PUSH2 0x42C JUMPI PUSH1 0x40 MLOAD PUSH32 0x8C379A000000000000000000000000000000000000000000000000000000000 DUP2 MSTORE PUSH1 0x4 ADD PUSH2 0x423 SWAP1 PUSH2 0x1CF1 JUMP JUMPDEST PUSH1 0x40 MLOAD DUP1 SWAP2 SUB SWAP1 REVERT JUMPDEST PUSH0 PUSH20 0xFFFFFFFFFFFFFFFFFFFFFFFFFFFFFFFFFFFFFFFF AND DUP5 PUSH20 0xFFFFFFFFFFFFFFFFFFFFFFFFFFFFFFFFFFFFFFFF AND SUB PUSH2 0x49A JUMPI PUSH1 0x40 MLOAD PUSH32 0x8C379A000000000000000000000000000000000000000000000000000000000 DUP2 MSTORE PUSH1 0x4 ADD PUSH2 0x491 SWAP1 PUSH2 0x1D59 JUMP JUMPDEST PUSH1 0x40 MLOAD DUP1 SWAP2 SUB SWAP1 REVERT JUMPDEST PUSH0 PUSH20 0xFFFFFFFFFFFFFFFFFFFFFFFFFFFFFFFFFFFFFFFF AND DUP4 PUSH20 0xFFFFFFFFFFFFFFFFFFFFFFFFFFFFFFFFFFFFFFFF AND SUB PUSH2 0x508 JUMPI PUSH1 0x40 MLOAD PUSH32 0x8C379A000000000000000000000000000000000000000000000000000000000 DUP2 MSTORE PUSH1 0x4 ADD PUSH2 0x4FF SWAP1 PUSH2 0x1DC1 JUMP JUMPDEST PUSH1 0x40 MLOAD DUP1 SWAP2 SUB SWAP1 REVERT JUMPDEST DUP2 PUSH1 0x5 PUSH0 DUP7 PUSH20 0xFFFFFFFFFFFFFFFFFFFFFFFFFFFFFFFFFFFFFFFF AND PUSH20 0xFFFFFFFFFFFFFFFFFFFFFFFFFFFFFFFFFFFFFFFF AND DUP2 MSTORE PUSH1 0x20 ADD SWAP1 DUP2 MSTORE PUSH1 0x20 ADD PUSH0 KECCAK256 SLOAD LT ISZERO PUSH2 0x588 JUMPI PUSH1 0x40 MLOAD PUSH32 0x8C379A000000000000000000000000000000000000000000000000000000000 DUP2 MSTORE PUSH1 0x4 ADD PUSH2 0x57F SWAP1 PUSH2 0x1E29 JUMP JUMPDEST PUSH1 0x40 MLOAD DUP1 SWAP2 SUB SWAP1 REVERT JUMPDEST DUP2 PUSH1 0x6 PUSH0 DUP7 PUSH20 0xFFFFFFFFFFFFFFFFFFFFFFFFFFFFFFFFFFFFFFFF AND PUSH20 0xFFFFFFFFFFFFFFFFFFFFFFFFFFFFFFFFFFFFFFFF AND DUP2 MSTORE PUSH1 0x20 ADD SWAP1 DUP2 MSTORE PUSH1 0x20 ADD PUSH0 KECCAK256 PUSH0 CALLER PUSH20 0xFFFFFFFFFFFFFFFFFFFFFFFFFFFFFFFFFFFFFFFF AND PUSH20 0xFFFFFFFFFFFFFFFFFFFFFFFFFFFFFFFFFFFFFFFF AND DUP2 MSTORE PUSH1 0x20 ADD SWAP1 DUP2 MSTORE PUSH1 0x20 ADD PUSH0 KECCAK256 SLOAD LT ISZERO PUSH2 0x643 JUMPI PUSH1 0x40 MLOAD PUSH32 0x8C379A000000000000000000000000000000000000000000000000000000000 DUP2 MSTORE PUSH1 0x4 ADD PUSH2 0x63A SWAP1 PUSH2 0x1E91 JUMP JUMPDEST PUSH1 0x40 MLOAD DUP1 SWAP2 SUB SWAP1 REVERT JUMPDEST DUP2 PUSH1 0x6 PUSH0 DUP7 PUSH20 0xFFFFFFFFFFFFFFFFFFFFFFFFFFFFFFFFFFFFFFFF AND PUSH20 0xFFFFFFFFFFFFFFFFFFFFFFFFFFFFFFFFFFFFFFFF AND DUP2 MSTORE PUSH1 0x20 ADD SWAP1 DUP2 MSTORE PUSH1 0x20 ADD PUSH0 KECCAK256 PUSH0 CALLER PUSH20 0xFFFFFFFFFFFFFFFFFFFFFFFFFFFFFFFFFFFFFFFF AND PUSH20 0xFFFFFFFFFFFFFFFFFFFFFFFFFFFFFFFFFFFFFFFF AND DUP2 MSTORE PUSH1 0x20 ADD SWAP1 DUP2 MSTORE PUSH1 0x20 ADD PUSH0 KECCAK256 PUSH0 DUP3 DUP3 SLOAD PUSH2 0x6CA SWAP2 SWAP1 PUSH2 0x1EDC JUMP JUMPDEST SWAP3 POP POP DUP2 SWAP1 SSTORE POP DUP2 PUSH1 0x5 PUSH0 DUP7 PUSH20 0xFFFFFFFFFFFFFFFFFFFFFFFFFFFFFFFFFFFFFFFF AND PUSH20 0xFFFFFFFFFFFFFFFFFFFFFFFFFFFFFFFFFFFFFFFF AND DUP2 MSTORE PUSH1 0x20 ADD SWAP1 DUP2 MSTORE PUSH1 0x20 ADD PUSH0 KECCAK256 PUSH0 DUP3 DUP3 SLOAD PUSH2 0x71D SWAP2 SWAP1 PUSH2 0x1EDC JUMP JUMPDEST SWAP3 POP POP DUP2 SWAP1 SSTORE POP DUP2 PUSH1 0x5 PUSH0 DUP6 PUSH20 0xFFFFFFFFFFFFFFFFFFFFFFFFFFFFFFFFFFFFFFFF AND PUSH20 0xFFFFFFFFFFFFFFFFFFFFFFFFFFFFFFFFFFFFFFFF AND DUP2 MSTORE PUSH1 0x20 ADD SWAP1 DUP2 MSTORE PUSH1 0x20 ADD PUSH0 KECCAK256 PUSH0 DUP3 DUP3 SLOAD PUSH2 0x770 SWAP2 SWAP1 PUSH2 0x1F0F JUMP JUMPDEST SWAP3 POP POP DUP2 SWAP1 SSTORE POP DUP3 PUSH20 0xFFFFFFFFFFFFFFFFFFFFFFFFFFFFFFFFFFFFFFFF AND DUP5 PUSH20 0xFFFFFFFFFFFFFFFFFFFFFFFFFFFFFFFFFFFFFFFF AND PUSH32 0x8C5BE1E5EBEC7D5BD14F71427D1E84F3DD0314C0F7B2291E5B200AC8C7C3B925 DUP5 PUSH1 0x40 MLOAD PUSH2 0x7D4 SWAP2 SWAP1 PUSH2 0x17A9 JUMP JUMPDEST PUSH1 0x40 MLOAD DUP1 SWAP2 SUB SWAP1 LOG3 PUSH1 0x1 SWAP1 POP SWAP4 SWAP3 POP POP POP JUMP JUMPDEST PUSH0 PUSH1 0x4 PUSH0 SWAP1 SLOAD SWAP1 PUSH2 0x100 EXP SWAP1 DIV PUSH20 0xFFFFFFFFFFFFFFFFFFFFFFFFFFFFFFFFFFFFFFFF AND PUSH20 0xFFFFFFFFFFFFFFFFFFFFFFFFFFFFFFFFFFFFFFFF AND CALLER PUSH20 0xFFFFFFFFFFFFFFFFFFFFFFFFFFFFFFFFFFFFFFFF AND EQ PUSH2 0x877 JUMPI PUSH1 0x40 MLOAD PUSH32 0x8C379A000000000000000000000000000000000000000000000000000000000 DUP2 MSTORE PUSH1 0x4 ADD PUSH2 0x86E SWAP1 PUSH2 0x1F8C JUMP JUMPDEST PUSH1 0x40 MLOAD DUP1 SWAP2 SUB SWAP1 REVERT JUMPDEST PUSH1 0x4 PUSH1 0x14 SWAP1 SLOAD SWAP1 PUSH2 0x100 EXP SWAP1 DIV PUSH1 0xFF AND PUSH2 0x8C6 JUMPI PUSH1 0x40 MLOAD PUSH32 0x8C379A000000000000000000000000000000000000000000000000000000000 DUP2 MSTORE PUSH1 0x4 ADD PUSH2 0x8BD SWAP1 PUSH2 0x1FF4 JUMP JUMPDEST PUSH1 0x40 MLOAD DUP1 SWAP2 SUB SWAP1 REVERT JUMPDEST PUSH0 PUSH1 0x4 PUSH1 0x14 PUSH2 0x100 EXP DUP2 SLOAD DUP2 PUSH1 0xFF MUL NOT AND SWAP1 DUP4 ISZERO ISZERO MUL OR SWAP1 SSTORE POP PUSH1 0x4 PUSH1 0x14 SWAP1 SLOAD SWAP1 PUSH2 0x100 EXP SWAP1 DIV PUSH1 0xFF AND SWAP1 POP SWAP1 JUMP JUMPDEST PUSH1 0x4 PUSH1 0x14 SWAP1 SLOAD SWAP1 PUSH2 0x100 EXP SWAP1 DIV PUSH1 0xFF AND ISZERO PUSH2 0x945 JUMPI PUSH1 0x40 MLOAD PUSH32 0x8C379A000000000000000000000000000000000000000000000000000000000 DUP2 MSTORE PUSH1 0x4 ADD PUSH2 0x93C SWAP1 PUSH2 0x1CF1 JUMP JUMPDEST PUSH1 0x40 MLOAD DUP1 SWAP2 SUB SWAP1 REVERT JUMPDEST PUSH1 0x4 PUSH0 SWAP1 SLOAD SWAP1 PUSH2 0x100 EXP SWAP1 DIV PUSH20 0xFFFFFFFFFFFFFFFFFFFFFFFFFFFFFFFFFFFFFFFF AND PUSH20 0xFFFFFFFFFFFFFFFFFFFFFFFFFFFFFFFFFFFFFFFF AND CALLER PUSH20 0xFFFFFFFFFFFFFFFFFFFFFFFFFFFFFFFFFFFFFFFF AND EQ PUSH2 0x9D4 JUMPI PUSH1 0x40 MLOAD PUSH32 0x8C379A000000000000000000000000000000000000000000000000000000000 DUP2 MSTORE PUSH1 0x4 ADD PUSH2 0x9CB SWAP1 PUSH2 0x1F8C JUMP JUMPDEST PUSH1 0x40 MLOAD DUP1 SWAP2 SUB SWAP1 REVERT JUMPDEST PUSH0 PUSH20 0xFFFFFFFFFFFFFFFFFFFFFFFFFFFFFFFFFFFFFFFF AND DUP3 PUSH20 0xFFFFFFFFFFFFFFFFFFFFFFFFFFFFFFFFFFFFFFFF AND SUB PUSH2 0xA42 JUMPI PUSH1 0x40 MLOAD PUSH32 0x8C379A000000000000000000000000000000000000000000000000000000000 DUP2 MSTORE PUSH1 0x4 ADD PUSH2 0xA39 SWAP1 PUSH2 0x205C JUMP JUMPDEST PUSH1 0x40 MLOAD DUP1 SWAP2 SUB SWAP1 REVERT JUMPDEST DUP1 PUSH1 0x3 PUSH0 DUP3 DUP3 SLOAD PUSH2 0xA53 SWAP2 SWAP1 PUSH2 0x1F0F JUMP JUMPDEST SWAP3 POP POP DUP2 SWAP1 SSTORE POP DUP1 PUSH1 0x5 PUSH0 DUP5 PUSH20 0xFFFFFFFFFFFFFFFFFFFFFFFFFFFFFFFFFFFFFFFF AND PUSH20 0xFFFFFFFFFFFFFFFFFFFFFFFFFFFFFFFFFFFFFFFF AND DUP2 MSTORE PUSH1 0x20 ADD SWAP1 DUP2 MSTORE PUSH1 0x20 ADD PUSH0 KECCAK256 PUSH0 DUP3 DUP3 SLOAD PUSH2 0xAA6 SWAP2 SWAP1 PUSH2 0x1F0F JUMP JUMPDEST SWAP3 POP POP DUP2 SWAP1 SSTORE POP DUP2 PUSH20 0xFFFFFFFFFFFFFFFFFFFFFFFFFFFFFFFFFFFFFFFF AND PUSH0 PUSH20 0xFFFFFFFFFFFFFFFFFFFFFFFFFFFFFFFFFFFFFFFF AND PUSH32 0xDDF252AD1BE2C89B69C2B068FC378DAA952BA7F163C4A11628F55A4DF523B3EF DUP4 PUSH1 0x40 MLOAD PUSH2 0xB0A SWAP2 SWAP1 PUSH2 0x17A9 JUMP JUMPDEST PUSH1 0x40 MLOAD DUP1 SWAP2 SUB SWAP1 LOG3 POP POP JUMP JUMPDEST PUSH1 0x4 PUSH1 0x14 SWAP1 SLOAD SWAP1 PUSH2 0x100 EXP SWAP1 DIV PUSH1 0xFF AND ISZERO PUSH2 0xB66 JUMPI PUSH1 0x40 MLOAD PUSH32 0x8C379A000000000000000000000000000000000000000000000000000000000 DUP2 MSTORE PUSH1 0x4 ADD PUSH2 0xB5D SWAP1 PUSH2 0x1CF1 JUMP JUMPDEST PUSH1 0x40 MLOAD DUP1 SWAP2 SUB SWAP1 REVERT JUMPDEST DUP1 PUSH1 0x5 PUSH0 CALLER PUSH20 0xFFFFFFFFFFFFFFFFFFFFFFFFFFFFFFFFFFFFFFFF AND PUSH20 0xFFFFFFFFFFFFFFFFFFFFFFFFFFFFFFFFFFFFFFFF AND DUP2 MSTORE PUSH1 0x20 ADD SWAP1 DUP2 MSTORE PUSH1 0x20 ADD PUSH0 KECCAK256 SLOAD LT ISZERO PUSH2 0xBE6 JUMPI PUSH1 0x40 MLOAD PUSH32 0x8C379A000000000000000000000000000000000000000000000000000000000 DUP2 MSTORE PUSH1 0x4 ADD PUSH2 0xBDD SWAP1 PUSH2 0x1E29 JUMP JUMPDEST PUSH1 0x40 MLOAD DUP1 SWAP2 SUB SWAP1 REVERT JUMPDEST DUP1 PUSH1 0x3 PUSH0 DUP3 DUP3 SLOAD PUSH2 0xBF7 SWAP2 SWAP1 PUSH2 0x1EDC JUMP JUMPDEST SWAP3 POP POP DUP2 SWAP1 SSTORE POP DUP1 PUSH1 0x5 PUSH0 CALLER PUSH20 0xFFFFFFFFFFFFFFFFFFFFFFFFFFFFFFFFFFFFFFFF AND PUSH20 0xFFFFFFFFFFFFFFFFFFFFFFFFFFFFFFFFFFFFFFFF AND DUP2 MSTORE PUSH1 0x20 ADD SWAP1 DUP2 MSTORE PUSH1 0x20 ADD PUSH0 KECCAK256 PUSH0 DUP3 DUP3 SLOAD PUSH2 0xC4A SWAP2 SWAP1 PUSH2 0x1EDC JUMP JUMPDEST SWAP3 POP POP DUP2 SWAP1 SSTORE POP PUSH0 PUSH20 0xFFFFFFFFFFFFFFFFFFFFFFFFFFFFFFFFFFFFFFFF AND CALLER PUSH20 0xFFFFFFFFFFFFFFFFFFFFFFFFFFFFFFFFFFFFFFFF AND PUSH32 0xDDF252AD1BE2C89B69C2B068FC378DAA952BA7F163C4A11628F55A4DF523B3EF DUP4 PUSH1 0x40 MLOAD PUSH2 0xCAE SWAP2 SWAP1 PUSH2 0x17A9 JUMP JUMPDEST PUSH1 0x40 MLOAD DUP1 SWAP2 SUB SWAP1 LOG3 POP JUMP JUMPDEST PUSH1 0x5 PUSH1 0x20 MSTORE DUP1 PUSH0 MSTORE PUSH1 0x40 PUSH0 KECCAK256 PUSH0 SWAP2 POP SWAP1 POP SLOAD DUP2 JUMP JUMPDEST PUSH0 PUSH1 0x4 PUSH1 0x14 SWAP1 SLOAD SWAP1 PUSH2 0x100 EXP SWAP1 DIV PUSH1 0xFF AND ISZERO PUSH2 0xD1F JUMPI PUSH1 0x40 MLOAD PUSH32 0x8C379A000000000000000000000000000000000000000000000000000000000 DUP2 MSTORE PUSH1 0x4 ADD PUSH2 0xD16 SWAP1 PUSH2 0x1CF1 JUMP JUMPDEST PUSH1 0x40 MLOAD DUP1 SWAP2 SUB SWAP1 REVERT JUMPDEST PUSH0 PUSH20 0xFFFFFFFFFFFFFFFFFFFFFFFFFFFFFFFFFFFFFFFF AND DUP4 PUSH20 0xFFFFFFFFFFFFFFFFFFFFFFFFFFFFFFFFFFFFFFFF AND SUB PUSH2 0xD8D JUMPI PUSH1 0x40 MLOAD PUSH32 0x8C379A000000000000000000000000000000000000000000000000000000000 DUP2 MSTORE PUSH1 0x4 ADD PUSH2 0xD84 SWAP1 PUSH2 0x205C JUMP JUMPDEST PUSH1 0x40 MLOAD DUP1 SWAP2 SUB SWAP1 REVERT JUMPDEST DUP2 PUSH1 0x6 PUSH0 CALLER PUSH20 0xFFFFFFFFFFFFFFFFFFFFFFFFFFFFFFFFFFFFFFFF AND PUSH20 0xFFFFFFFFFFFFFFFFFFFFFFFFFFFFFFFFFFFFFFFF AND DUP2 MSTORE PUSH1 0x20 ADD SWAP1 DUP2 MSTORE PUSH1 0x20 ADD PUSH0 KECCAK256 PUSH0 DUP6 PUSH20 0xFFFFFFFFFFFFFFFFFFFFFFFFFFFFFFFFFFFFFFFF AND PUSH20 0xFFFFFFFFFFFFFFFFFFFFFFFFFFFFFFFFFFFFFFFF AND DUP2 MSTORE PUSH1 0x20 ADD SWAP1 DUP2 MSTORE PUSH1 0x20 ADD PUSH0 KECCAK256 DUP2 SWAP1 SSTORE POP DUP3 PUSH20 0xFFFFFFFFFFFFFFFFFFFFFFFFFFFFFFFFFFFFFFFF AND CALLER PUSH20 0xFFFFFFFFFFFFFFFFFFFFFFFFFFFFFFFFFFFFFFFF AND PUSH32 0x8C5BE1E5EBEC7D5BD14F71427D1E84F3DD0314C0F7B2291E5B200AC8C7C3B925 DUP5 PUSH1 0x40 MLOAD PUSH2 0xE67 SWAP2 SWAP1 PUSH2 0x17A9 JUMP JUMPDEST PUSH1 0x40 MLOAD DUP1 SWAP2 SUB SWAP1 LOG3 PUSH1 0x1 SWAP1 POP SWAP3 SWAP2 POP POP JUMP JUMPDEST PUSH1 0x2 SLOAD DUP2 JUMP JUMPDEST PUSH0 PUSH1 0x4 PUSH0 SWAP1 SLOAD SWAP1 PUSH2 0x100 EXP SWAP1 DIV PUSH20 0xFFFFFFFFFFFFFFFFFFFFFFFFFFFFFFFFFFFFFFFF AND PUSH20 0xFFFFFFFFFFFFFFFFFFFFFFFFFFFFFFFFFFFFFFFF AND CALLER PUSH20 0xFFFFFFFFFFFFFFFFFFFFFFFFFFFFFFFFFFFFFFFF AND EQ PUSH2 0xF0F JUMPI PUSH1 0x40 MLOAD PUSH32 0x8C379A000000000000000000000000000000000000000000000000000000000 DUP2 MSTORE PUSH1 0x4 ADD PUSH2 0xF06 SWAP1 PUSH2 0x1F8C JUMP JUMPDEST PUSH1 0x40 MLOAD DUP1 SWAP2 SUB SWAP1 REVERT JUMPDEST PUSH1 0x4 PUSH1 0x14 SWAP1 SLOAD SWAP1 PUSH2 0x100 EXP SWAP1 DIV PUSH1 0xFF AND ISZERO PUSH2 0xF5F JUMPI PUSH1 0x40 MLOAD PUSH32 0x8C379A000000000000000000000000000000000000000000000000000000000 DUP2 MSTORE PUSH1 0x4 ADD PUSH2 0xF56 SWAP1 PUSH2 0x20C4 JUMP JUMPDEST PUSH1 0x40 MLOAD DUP1 SWAP2 SUB SWAP1 REVERT JUMPDEST PUSH1 0x1 PUSH1 0x4 PUSH1 0x14 PUSH2 0x100 EXP DUP2 SLOAD DUP2 PUSH1 0xFF MUL NOT AND SWAP1 DUP4 ISZERO ISZERO MUL OR SWAP1 SSTORE POP PUSH1 0x4 PUSH1 0x14 SWAP1 SLOAD SWAP1 PUSH2 0x100 EXP SWAP1 DIV PUSH1 0xFF AND SWAP1 POP SWAP1 JUMP JUMPDEST PUSH0 PUSH1 0x4 PUSH1 0x14 SWAP1 SLOAD SWAP1 PUSH2 0x100 EXP SWAP1 DIV PUSH1 0xFF AND ISZERO PUSH2 0xFE0 JUMPI PUSH1 0x40 MLOAD PUSH32 0x8C379A000000000000000000000000000000000000000000000000000000000 DUP2 MSTORE PUSH1 0x4 ADD PUSH2 0xFD7 SWAP1 PUSH2 0x1CF1 JUMP JUMPDEST PUSH1 0x40 MLOAD DUP1 SWAP2 SUB SWAP1 REVERT JUMPDEST DUP2 MLOAD DUP4 MLOAD EQ PUSH2 0x1024 JUMPI PUSH1 0x40 MLOAD PUSH32 0x8C379A000000000000000000000000000000000000000000000000000000000 DUP2 MSTORE PUSH1 0x4 ADD PUSH2 0x101B SWAP1 PUSH2 0x212C JUMP JUMPDEST PUSH1 0x40 MLOAD DUP1 SWAP2 SUB SWAP1 REVERT JUMPDEST PUSH1 0x3 DUP4 MLOAD GT ISZERO PUSH2 0x1069 JUMPI PUSH1 0x40 MLOAD PUSH32 0x8C379A000000000000000000000000000000000000000000000000000000000 DUP2 MSTORE PUSH1 0x4 ADD PUSH2 0x1060 SWAP1 PUSH2 0x2194 JUMP JUMPDEST PUSH1 0x40 MLOAD DUP1 SWAP2 SUB SWAP1 REVERT JUMPDEST PUSH0 PUSH0 SWAP1 POP PUSH0 PUSH0 SWAP1 POP JUMPDEST DUP4 MLOAD DUP2 LT ISZERO PUSH2 0x10B0 JUMPI DUP4 DUP2 DUP2 MLOAD DUP2 LT PUSH2 0x108E JUMPI PUSH2 0x108D PUSH2 0x21B2 JUMP JUMPDEST JUMPDEST PUSH1 0x20 MUL PUSH1 0x20 ADD ADD MLOAD DUP3 PUSH2 0x10A1 SWAP2 SWAP1 PUSH2 0x1F0F JUMP JUMPDEST SWAP2 POP DUP1 DUP1 PUSH1 0x1 ADD SWAP2 POP POP PUSH2 0x1072 JUMP JUMPDEST POP DUP1 PUSH1 0x5 PUSH0 CALLER PUSH20 0xFFFFFFFFFFFFFFFFFFFFFFFFFFFFFFFFFFFFFFFF AND PUSH20 0xFFFFFFFFFFFFFFFFFFFFFFFFFFFFFFFFFFFFFFFF AND DUP2 MSTORE PUSH1 0x20 ADD SWAP1 DUP2 MSTORE PUSH1 0x20 ADD PUSH0 KECCAK256 SLOAD LT ISZERO PUSH2 0x1131 JUMPI PUSH1 0x40 MLOAD PUSH32 0x8C379A000000000000000000000000000000000000000000000000000000000 DUP2 MSTORE PUSH1 0x4 ADD PUSH2 0x1128 SWAP1 PUSH2 0x2229 JUMP JUMPDEST PUSH1 0x40 MLOAD DUP1 SWAP2 SUB SWAP1 REVERT JUMPDEST PUSH0 PUSH0 SWAP1 POP JUMPDEST DUP5 MLOAD DUP2 LT ISZERO PUSH2 0x13BD JUMPI PUSH0 PUSH20 0xFFFFFFFFFFFFFFFFFFFFFFFFFFFFFFFFFFFFFFFF AND DUP6 DUP3 DUP2 MLOAD DUP2 LT PUSH2 0x1169 JUMPI PUSH2 0x1168 PUSH2 0x21B2 JUMP JUMPDEST JUMPDEST PUSH1 0x20 MUL PUSH1 0x20 ADD ADD MLOAD PUSH20 0xFFFFFFFFFFFFFFFFFFFFFFFFFFFFFFFFFFFFFFFF AND SUB PUSH2 0x11C7 JUMPI PUSH1 0x40 MLOAD PUSH32 0x8C379A000000000000000000000000000000000000000000000000000000000 DUP2 MSTORE PUSH1 0x4 ADD PUSH2 0x11BE SWAP1 PUSH2 0x205C JUMP JUMPDEST PUSH1 0x40 MLOAD DUP1 SWAP2 SUB SWAP1 REVERT JUMPDEST PUSH0 DUP5 DUP3 DUP2 MLOAD DUP2 LT PUSH2 0x11DB JUMPI PUSH2 0x11DA PUSH2 0x21B2 JUMP JUMPDEST JUMPDEST PUSH1 0x20 MUL PUSH1 0x20 ADD ADD MLOAD GT PUSH2 0x1223 JUMPI PUSH1 0x40 MLOAD PUSH32 0x8C379A000000000000000000000000000000000000000000000000000000000 DUP2 MSTORE PUSH1 0x4 ADD PUSH2 0x121A SWAP1 PUSH2 0x2291 JUMP JUMPDEST PUSH1 0x40 MLOAD DUP1 SWAP2 SUB SWAP1 REVERT JUMPDEST DUP4 DUP2 DUP2 MLOAD DUP2 LT PUSH2 0x1236 JUMPI PUSH2 0x1235 PUSH2 0x21B2 JUMP JUMPDEST JUMPDEST PUSH1 0x20 MUL PUSH1 0x20 ADD ADD MLOAD PUSH1 0x5 PUSH0 CALLER PUSH20 0xFFFFFFFFFFFFFFFFFFFFFFFFFFFFFFFFFFFFFFFF AND PUSH20 0xFFFFFFFFFFFFFFFFFFFFFFFFFFFFFFFFFFFFFFFF AND DUP2 MSTORE PUSH1 0x20 ADD SWAP1 DUP2 MSTORE PUSH1 0x20 ADD PUSH0 KECCAK256 PUSH0 DUP3 DUP3 SLOAD PUSH2 0x1289 SWAP2 SWAP1 PUSH2 0x1EDC JUMP JUMPDEST SWAP3 POP POP DUP2 SWAP1 SSTORE POP DUP4 DUP2 DUP2 MLOAD DUP2 LT PUSH2 0x12A3 JUMPI PUSH2 0x12A2 PUSH2 0x21B2 JUMP JUMPDEST JUMPDEST PUSH1 0x20 MUL PUSH1 0x20 ADD ADD MLOAD PUSH1 0x5 PUSH0 DUP8 DUP5 DUP2 MLOAD DUP2 LT PUSH2 0x12C1 JUMPI PUSH2 0x12C0 PUSH2 0x21B2 JUMP JUMPDEST JUMPDEST PUSH1 0x20 MUL PUSH1 0x20 ADD ADD MLOAD PUSH20 0xFFFFFFFFFFFFFFFFFFFFFFFFFFFFFFFFFFFFFFFF AND PUSH20 0xFFFFFFFFFFFFFFFFFFFFFFFFFFFFFFFFFFFFFFFF AND DUP2 MSTORE PUSH1 0x20 ADD SWAP1 DUP2 MSTORE PUSH1 0x20 ADD PUSH0 KECCAK256 PUSH0 DUP3 DUP3 SLOAD PUSH2 0x1310 SWAP2 SWAP1 PUSH2 0x1F0F JUMP JUMPDEST SWAP3 POP POP DUP2 SWAP1 SSTORE POP DUP5 DUP2 DUP2 MLOAD DUP2 LT PUSH2 0x132A JUMPI PUSH2 0x1329 PUSH2 0x21B2 JUMP JUMPDEST JUMPDEST PUSH1 0x20 MUL PUSH1 0x20 ADD ADD MLOAD PUSH20 0xFFFFFFFFFFFFFFFFFFFFFFFFFFFFFFFFFFFFFFFF AND CALLER PUSH20 0xFFFFFFFFFFFFFFFFFFFFFFFFFFFFFFFFFFFFFFFF AND PUSH32 0xDDF252AD1BE2C89B69C2B068FC378DAA952BA7F163C4A11628F55A4DF523B3EF DUP7 DUP5 DUP2 MLOAD DUP2 LT PUSH2 0x1393 JUMPI PUSH2 0x1392 PUSH2 0x21B2 JUMP JUMPDEST JUMPDEST PUSH1 0x20 MUL PUSH1 0x20 ADD ADD MLOAD PUSH1 0x40 MLOAD PUSH2 0x13A8 SWAP2 SWAP1 PUSH2 0x17A9 JUMP JUMPDEST PUSH1 0x40 MLOAD DUP1 SWAP2 SUB SWAP1 LOG3 DUP1 DUP1 PUSH1 0x1 ADD SWAP2 POP POP PUSH2 0x1136 JUMP JUMPDEST POP PUSH1 0x1 SWAP2 POP POP SWAP3 SWAP2 POP POP JUMP JUMPDEST PUSH1 0x4 PUSH0 SWAP1 SLOAD SWAP1 PUSH2 0x100 EXP SWAP1 DIV PUSH20 0xFFFFFFFFFFFFFFFFFFFFFFFFFFFFFFFFFFFFFFFF AND DUP2 JUMP JUMPDEST PUSH1 0x1 DUP1 SLOAD PUSH2 0x13FB SWAP1 PUSH2 0x1C77 JUMP JUMPDEST DUP1 PUSH1 0x1F ADD PUSH1 0x20 DUP1 SWAP2 DIV MUL PUSH1 0x20 ADD PUSH1 0x40 MLOAD SWAP1 DUP2 ADD PUSH1 0x40 MSTORE DUP1 SWAP3 SWAP2 SWAP1 DUP2 DUP2 MSTORE PUSH1 0x20 ADD DUP3 DUP1 SLOAD PUSH2 0x1427 SWAP1 PUSH2 0x1C77 JUMP JUMPDEST DUP1 ISZERO PUSH2 0x1472 JUMPI DUP1 PUSH1 0x1F LT PUSH2 0x1449 JUMPI PUSH2 0x100 DUP1 DUP4 SLOAD DIV MUL DUP4 MSTORE SWAP2 PUSH1 0x20 ADD SWAP2 PUSH2 0x1472 JUMP JUMPDEST DUP3 ADD SWAP2 SWAP1 PUSH0 MSTORE PUSH1 0x20 PUSH0 KECCAK256 SWAP1 JUMPDEST DUP2 SLOAD DUP2 MSTORE SWAP1 PUSH1 0x1 ADD SWAP1 PUSH1 0x20 ADD DUP1 DUP4 GT PUSH2 0x1455 JUMPI DUP3 SWAP1 SUB PUSH1 0x1F AND DUP3 ADD SWAP2 JUMPDEST POP POP POP POP POP DUP2 JUMP JUMPDEST PUSH0 PUSH1 0x4 PUSH1 0x14 SWAP1 SLOAD SWAP1 PUSH2 0x100 EXP SWAP1 DIV PUSH1 0xFF AND ISZERO PUSH2 0x14CB JUMPI PUSH1 0x40 MLOAD PUSH32 0x8C379A000000000000000000000000000000000000000000000000000000000 DUP2 MSTORE PUSH1 0x4 ADD PUSH2 0x14C2 SWAP1 PUSH2 0x1CF1 JUMP JUMPDEST PUSH1 0x40 MLOAD DUP1 SWAP2 SUB SWAP1 REVERT JUMPDEST PUSH0 PUSH20 0xFFFFFFFFFFFFFFFFFFFFFFFFFFFFFFFFFFFFFFFF AND DUP4 PUSH20 0xFFFFFFFFFFFFFFFFFFFFFFFFFFFFFFFFFFFFFFFF AND SUB PUSH2 0x1539 JUMPI PUSH1 0x40 MLOAD PUSH32 0x8C379A000000000000000000000000000000000000000000000000000000000 DUP2 MSTORE PUSH1 0x4 ADD PUSH2 0x1530 SWAP1 PUSH2 0x205C JUMP JUMPDEST PUSH1 0x40 MLOAD DUP1 SWAP2 SUB SWAP1 REVERT JUMPDEST DUP2 PUSH1 0x5 PUSH0 CALLER PUSH20 0xFFFFFFFFFFFFFFFFFFFFFFFFFFFFFFFFFFFFFFFF AND PUSH20 0xFFFFFFFFFFFFFFFFFFFFFFFFFFFFFFFFFFFFFFFF AND DUP2 MSTORE PUSH1 0x20 ADD SWAP1 DUP2 MSTORE PUSH1 0x20 ADD PUSH0 KECCAK256 SLOAD LT ISZERO PUSH2 0x15B9 JUMPI PUSH1 0x40 MLOAD PUSH32 0x8C379A000000000000000000000000000000000000000000000000000000000 DUP2 MSTORE PUSH1 0x4 ADD PUSH2 0x15B0 SWAP1 PUSH2 0x22F9 JUMP JUMPDEST PUSH1 0x40 MLOAD DUP1 SWAP2 SUB SWAP1 REVERT JUMPDEST DUP2 PUSH1 0x5 PUSH0 CALLER PUSH20 0xFFFFFFFFFFFFFFFFFFFFFFFFFFFFFFFFFFFFFFFF AND PUSH20 0xFFFFFFFFFFFFFFFFFFFFFFFFFFFFFFFFFFFFFFFF AND DUP2 MSTORE PUSH1 0x20 ADD SWAP1 DUP2 MSTORE PUSH1 0x20 ADD PUSH0 KECCAK256 PUSH0 DUP3 DUP3 SLOAD PUSH2 0x1605 SWAP2 SWAP1 PUSH2 0x1EDC JUMP JUMPDEST SWAP3 POP POP DUP2 SWAP1 SSTORE POP DUP2 PUSH1 0x5 PUSH0 DUP6 PUSH20 0xFFFFFFFFFFFFFFFFFFFFFFFFFFFFFFFFFFFFFFFF AND PUSH20 0xFFFFFFFFFFFFFFFFFFFFFFFFFFFFFFFFFFFFFFFF AND DUP2 MSTORE PUSH1 0x20 ADD SWAP1 DUP2 MSTORE PUSH1 0x20 ADD PUSH0 KECCAK256 PUSH0 DUP3 DUP3 SLOAD PUSH2 0x1658 SWAP2 SWAP1 PUSH2 0x1F0F JUMP JUMPDEST SWAP3 POP POP DUP2 SWAP1 SSTORE POP DUP3 PUSH20 0xFFFFFFFFFFFFFFFFFFFFFFFFFFFFFFFFFFFFFFFF AND CALLER PUSH20 0xFFFFFFFFFFFFFFFFFFFFFFFFFFFFFFFFFFFFFFFF AND PUSH32 0xDDF252AD1BE2C89B69C2B068FC378DAA952BA7F163C4A11628F55A4DF523B3EF DUP5 PUSH1 0x40 MLOAD PUSH2 0x16BC SWAP2 SWAP1 PUSH2 0x17A9 JUMP JUMPDEST PUSH1 0x40 MLOAD DUP1 SWAP2 SUB SWAP1 LOG3 PUSH1 0x1 SWAP1 POP SWAP3 SWAP2 POP POP JUMP JUMPDEST PUSH1 0x4 PUSH1 0x14 SWAP1 SLOAD SWAP1 PUSH2 0x100 EXP SWAP1 DIV PUSH1 0xFF AND DUP2 JUMP JUMPDEST PUSH1 0x6 PUSH1 0x20 MSTORE DUP2 PUSH0 MSTORE PUSH1 0x40 PUSH0 KECCAK256 PUSH1 0x20 MSTORE DUP1 PUSH0 MSTORE PUSH1 0x40 PUSH0 KECCAK256 PUSH0 SWAP2 POP SWAP2 POP POP SLOAD DUP2 JUMP JUMPDEST PUSH0 DUP2 MLOAD SWAP1 POP SWAP2 SWAP1 POP JUMP JUMPDEST PUSH0 DUP3 DUP3 MSTORE PUSH1 0x20 DUP3 ADD SWAP1 POP SWAP3 SWAP2 POP POP JUMP JUMPDEST DUP3 DUP2 DUP4 MCOPY PUSH0 DUP4 DUP4 ADD MSTORE POP POP POP JUMP JUMPDEST PUSH0 PUSH1 0x1F NOT PUSH1 0x1F DUP4 ADD AND SWAP1 POP SWAP2 SWAP1 POP JUMP JUMPDEST PUSH0 PUSH2 0x1743 DUP3 PUSH2 0x1701 JUMP JUMPDEST PUSH2 0x174D DUP2 DUP6 PUSH2 0x170B JUMP JUMPDEST SWAP4 POP PUSH2 0x175D DUP2 DUP6 PUSH1 0x20 DUP7 ADD PUSH2 0x171B JUMP JUMPDEST PUSH2 0x1766 DUP2 PUSH2 0x1729 JUMP JUMPDEST DUP5 ADD SWAP2 POP POP SWAP3 SWAP2 POP POP JUMP JUMPDEST PUSH0 PUSH1 0x20 DUP3 ADD SWAP1 POP DUP2 DUP2 SUB PUSH0 DUP4 ADD MSTORE PUSH2 0x1789 DUP2 DUP5 PUSH2 0x1739 JUMP JUMPDEST SWAP1 POP SWAP3 SWAP2 POP POP JUMP JUMPDEST PUSH0 DUP2 SWAP1 POP SWAP2 SWAP1 POP JUMP JUMPDEST PUSH2 0x17A3 DUP2 PUSH2 0x1791 JUMP JUMPDEST DUP3 MSTORE POP POP JUMP JUMPDEST PUSH0 PUSH1 0x20 DUP3 ADD SWAP1 POP PUSH2 0x17BC PUSH0 DUP4 ADD DUP5 PUSH2 0x179A JUMP JUMPDEST SWAP3 SWAP2 POP POP JUMP JUMPDEST PUSH0 PUSH1 0x40 MLOAD SWAP1 POP SWAP1 JUMP JUMPDEST PUSH0 PUSH0 REVERT JUMPDEST PUSH0 PUSH0 REVERT JUMPDEST PUSH0 PUSH20 0xFFFFFFFFFFFFFFFFFFFFFFFFFFFFFFFFFFFFFFFF DUP3 AND SWAP1 POP SWAP2 SWAP1 POP JUMP JUMPDEST PUSH0 PUSH2 0x17FC DUP3 PUSH2 0x17D3 JUMP JUMPDEST SWAP1 POP SWAP2 SWAP1 POP JUMP JUMPDEST PUSH2 0x180C DUP2 PUSH2 0x17F2 JUMP JUMPDEST DUP2 EQ PUSH2 0x1816 JUMPI PUSH0 PUSH0 REVERT JUMPDEST POP JUMP JUMPDEST PUSH0 DUP2 CALLDATALOAD SWAP1 POP PUSH2 0x1827 DUP2 PUSH2 0x1803 JUMP JUMPDEST SWAP3 SWAP2 POP POP JUMP JUMPDEST PUSH2 0x1836 DUP2 PUSH2 0x1791 JUMP JUMPDEST DUP2 EQ PUSH2 0x1840 JUMPI PUSH0 PUSH0 REVERT JUMPDEST POP JUMP JUMPDEST PUSH0 DUP2 CALLDATALOAD SWAP1 POP PUSH2 0x1851 DUP2 PUSH2 0x182D JUMP JUMPDEST SWAP3 SWAP2 POP POP JUMP JUMPDEST PUSH0 PUSH0 PUSH0 PUSH1 0x60 DUP5 DUP7 SUB SLT ISZERO PUSH2 0x186E JUMPI PUSH2 0x186D PUSH2 0x17CB JUMP JUMPDEST JUMPDEST PUSH0 PUSH2 0x187B DUP7 DUP3 DUP8 ADD PUSH2 0x1819 JUMP JUMPDEST SWAP4 POP POP PUSH1 0x20 PUSH2 0x188C DUP7 DUP3 DUP8 ADD PUSH2 0x1819 JUMP JUMPDEST SWAP3 POP POP PUSH1 0x40 PUSH2 0x189D DUP7 DUP3 DUP8 ADD PUSH2 0x1843 JUMP JUMPDEST SWAP2 POP POP SWAP3 POP SWAP3 POP SWAP3 JUMP JUMPDEST PUSH0 DUP2 ISZERO ISZERO SWAP1 POP SWAP2 SWAP1 POP JUMP JUMPDEST PUSH2 0x18BB DUP2 PUSH2 0x18A7 JUMP JUMPDEST DUP3 MSTORE POP POP JUMP JUMPDEST PUSH0 PUSH1 0x20 DUP3 ADD SWAP1 POP PUSH2 0x18D4 PUSH0 DUP4 ADD DUP5 PUSH2 0x18B2 JUMP JUMPDEST SWAP3 SWAP2 POP POP JUMP JUMPDEST PUSH0 PUSH0 PUSH1 0x40 DUP4 DUP6 SUB SLT ISZERO PUSH2 0x18F0 JUMPI PUSH2 0x18EF PUSH2 0x17CB JUMP JUMPDEST JUMPDEST PUSH0 PUSH2 0x18FD DUP6 DUP3 DUP7 ADD PUSH2 0x1819 JUMP JUMPDEST SWAP3 POP POP PUSH1 0x20 PUSH2 0x190E DUP6 DUP3 DUP7 ADD PUSH2 0x1843 JUMP JUMPDEST SWAP2 POP POP SWAP3 POP SWAP3 SWAP1 POP JUMP JUMPDEST PUSH0 PUSH1 0x20 DUP3 DUP5 SUB SLT ISZERO PUSH2 0x192D JUMPI PUSH2 0x192C PUSH2 0x17CB JUMP JUMPDEST JUMPDEST PUSH0 PUSH2 0x193A DUP5 DUP3 DUP6 ADD PUSH2 0x1843 JUMP JUMPDEST SWAP2 POP POP SWAP3 SWAP2 POP POP JUMP JUMPDEST PUSH0 PUSH1 0x20 DUP3 DUP5 SUB SLT ISZERO PUSH2 0x1958 JUMPI PUSH2 0x1957 PUSH2 0x17CB JUMP JUMPDEST JUMPDEST PUSH0 PUSH2 0x1965 DUP5 DUP3 DUP6 ADD PUSH2 0x1819 JUMP JUMPDEST SWAP2 POP POP SWAP3 SWAP2 POP POP JUMP JUMPDEST PUSH0 PUSH0 REVERT JUMPDEST PUSH32 0x4E487B7100000000000000000000000000000000000000000000000000000000 PUSH0 MSTORE PUSH1 0x41 PUSH1 0x4 MSTORE PUSH1 0x24 PUSH0 REVERT JUMPDEST PUSH2 0x19A8 DUP3 PUSH2 0x1729 JUMP JUMPDEST DUP2 ADD DUP2 DUP2 LT PUSH8 0xFFFFFFFFFFFFFFFF DUP3 GT OR ISZERO PUSH2 0x19C7 JUMPI PUSH2 0x19C6 PUSH2 0x1972 JUMP JUMPDEST JUMPDEST DUP1 PUSH1 0x40 MSTORE POP POP POP JUMP JUMPDEST PUSH0 PUSH2 0x19D9 PUSH2 0x17C2 JUMP JUMPDEST SWAP1 POP PUSH2 0x19E5 DUP3 DUP3 PUSH2 0x199F JUMP JUMPDEST SWAP2 SWAP1 POP JUMP JUMPDEST PUSH0 PUSH8 0xFFFFFFFFFFFFFFFF DUP3 GT ISZERO PUSH2 0x1A04 JUMPI PUSH2 0x1A03 PUSH2 0x1972 JUMP JUMPDEST JUMPDEST PUSH1 0x20 DUP3 MUL SWAP1 POP PUSH1 0x20 DUP2 ADD SWAP1 POP SWAP2 SWAP1 POP JUMP JUMPDEST PUSH0 PUSH0 REVERT JUMPDEST PUSH0 PUSH2 0x1A2B PUSH2 0x1A26 DUP5 PUSH2 0x19EA JUMP JUMPDEST PUSH2 0x19D0 JUMP JUMPDEST SWAP1 POP DUP1 DUP4 DUP3 MSTORE PUSH1 0x20 DUP3 ADD SWAP1 POP PUSH1 0x20 DUP5 MUL DUP4 ADD DUP6 DUP2 GT ISZERO PUSH2 0x1A4E JUMPI PUSH2 0x1A4D PUSH2 0x1A15 JUMP JUMPDEST JUMPDEST DUP4 JUMPDEST DUP2 DUP2 LT ISZERO PUSH2 0x1A77 JUMPI DUP1 PUSH2 0x1A63 DUP9 DUP3 PUSH2 0x1819 JUMP JUMPDEST DUP5 MSTORE PUSH1 0x20 DUP5 ADD SWAP4 POP POP PUSH1 0x20 DUP2 ADD SWAP1 POP PUSH2 0x1A50 JUMP JUMPDEST POP POP POP SWAP4 SWAP3 POP POP POP JUMP JUMPDEST PUSH0 DUP3 PUSH1 0x1F DUP4 ADD SLT PUSH2 0x1A95 JUMPI PUSH2 0x1A94 PUSH2 0x196E JUMP JUMPDEST JUMPDEST DUP2 CALLDATALOAD PUSH2 0x1AA5 DUP5 DUP3 PUSH1 0x20 DUP7 ADD PUSH2 0x1A19 JUMP JUMPDEST SWAP2 POP POP SWAP3 SWAP2 POP POP JUMP JUMPDEST PUSH0 PUSH8 0xFFFFFFFFFFFFFFFF DUP3 GT ISZERO PUSH2 0x1AC8 JUMPI PUSH2 0x1AC7 PUSH2 0x1972 JUMP JUMPDEST JUMPDEST PUSH1 0x20 DUP3 MUL SWAP1 POP PUSH1 0x20 DUP2 ADD SWAP1 POP SWAP2 SWAP1 POP JUMP JUMPDEST PUSH0 PUSH2 0x1AEB PUSH2 0x1AE6 DUP5 PUSH2 0x1AAE JUMP JUMPDEST PUSH2 0x19D0 JUMP JUMPDEST SWAP1 POP DUP1 DUP4 DUP3 MSTORE PUSH1 0x20 DUP3 ADD SWAP1 POP PUSH1 0x20 DUP5 MUL DUP4 ADD DUP6 DUP2 GT ISZERO PUSH2 0x1B0E JUMPI PUSH2 0x1B0D PUSH2 0x1A15 JUMP JUMPDEST JUMPDEST DUP4 JUMPDEST DUP2 DUP2 LT ISZERO PUSH2 0x1B37 JUMPI DUP1 PUSH2 0x1B23 DUP9 DUP3 PUSH2 0x1843 JUMP JUMPDEST DUP5 MSTORE PUSH1 0x20 DUP5 ADD SWAP4 POP POP PUSH1 0x20 DUP2 ADD SWAP1 POP PUSH2 0x1B10 JUMP JUMPDEST POP POP POP SWAP4 SWAP3 POP POP POP JUMP JUMPDEST PUSH0 DUP3 PUSH1 0x1F DUP4 ADD SLT PUSH2 0x1B55 JUMPI PUSH2 0x1B54 PUSH2 0x196E JUMP JUMPDEST JUMPDEST DUP2 CALLDATALOAD PUSH2 0x1B65 DUP5 DUP3 PUSH1 0x20 DUP7 ADD PUSH2 0x1AD9 JUMP JUMPDEST SWAP2 POP POP SWAP3 SWAP2 POP POP JUMP JUMPDEST PUSH0 PUSH0 PUSH1 0x40 DUP4 DUP6 SUB SLT ISZERO PUSH2 0x1B84 JUMPI PUSH2 0x1B83 PUSH2 0x17CB JUMP JUMPDEST JUMPDEST PUSH0 DUP4 ADD CALLDATALOAD PUSH8 0xFFFFFFFFFFFFFFFF DUP2 GT ISZERO PUSH2 0x1BA1 JUMPI PUSH2 0x1BA0 PUSH2 0x17CF JUMP JUMPDEST JUMPDEST PUSH2 0x1BAD DUP6 DUP3 DUP7 ADD PUSH2 0x1A81 JUMP JUMPDEST SWAP3 POP POP PUSH1 0x20 DUP4 ADD CALLDATALOAD PUSH8 0xFFFFFFFFFFFFFFFF DUP2 GT ISZERO PUSH2 0x1BCE JUMPI PUSH2 0x1BCD PUSH2 0x17CF JUMP JUMPDEST JUMPDEST PUSH2 0x1BDA DUP6 DUP3 DUP7 ADD PUSH2 0x1B41 JUMP JUMPDEST SWAP2 POP POP SWAP3 POP SWAP3 SWAP1 POP JUMP JUMPDEST PUSH2 0x1BED DUP2 PUSH2 0x17F2 JUMP JUMPDEST DUP3 MSTORE POP POP JUMP JUMPDEST PUSH0 PUSH1 0x20 DUP3 ADD SWAP1 POP PUSH2 0x1C06 PUSH0 DUP4 ADD DUP5 PUSH2 0x1BE4 JUMP JUMPDEST SWAP3 SWAP2 POP POP JUMP JUMPDEST PUSH0 PUSH0 PUSH1 0x40 DUP4 DUP6 SUB SLT ISZERO PUSH2 0x1C22 JUMPI PUSH2 0x1C21 PUSH2 0x17CB JUMP JUMPDEST JUMPDEST PUSH0 PUSH2 0x1C2F DUP6 DUP3 DUP7 ADD PUSH2 0x1819 JUMP JUMPDEST SWAP3 POP POP PUSH1 0x20 PUSH2 0x1C40 DUP6 DUP3 DUP7 ADD PUSH2 0x1819 JUMP JUMPDEST SWAP2 POP POP SWAP3 POP SWAP3 SWAP1 POP JUMP JUMPDEST PUSH32 0x4E487B7100000000000000000000000000000000000000000000000000000000 PUSH0 MSTORE PUSH1 0x22 PUSH1 0x4 MSTORE PUSH1 0x24 PUSH0 REVERT JUMPDEST PUSH0 PUSH1 0x2 DUP3 DIV SWAP1 POP PUSH1 0x1 DUP3 AND DUP1 PUSH2 0x1C8E JUMPI PUSH1 0x7F DUP3 AND SWAP2 POP JUMPDEST PUSH1 0x20 DUP3 LT DUP2 SUB PUSH2 0x1CA1 JUMPI PUSH2 0x1CA0 PUSH2 0x1C4A JUMP JUMPDEST JUMPDEST POP SWAP2 SWAP1 POP JUMP JUMPDEST PUSH32 0x5472616E73666572207061757365640000000000000000000000000000000000 PUSH0 DUP3 ADD MSTORE POP JUMP JUMPDEST PUSH0 PUSH2 0x1CDB PUSH1 0xF DUP4 PUSH2 0x170B JUMP JUMPDEST SWAP2 POP PUSH2 0x1CE6 DUP3 PUSH2 0x1CA7 JUMP JUMPDEST PUSH1 0x20 DUP3 ADD SWAP1 POP SWAP2 SWAP1 POP JUMP JUMPDEST PUSH0 PUSH1 0x20 DUP3 ADD SWAP1 POP DUP2 DUP2 SUB PUSH0 DUP4 ADD MSTORE PUSH2 0x1D08 DUP2 PUSH2 0x1CCF JUMP JUMPDEST SWAP1 POP SWAP2 SWAP1 POP JUMP JUMPDEST PUSH32 0x46726F6D206973207A65726F2061646472657373000000000000000000000000 PUSH0 DUP3 ADD MSTORE POP JUMP JUMPDEST PUSH0 PUSH2 0x1D43 PUSH1 0x14 DUP4 PUSH2 0x170B JUMP JUMPDEST SWAP2 POP PUSH2 0x1D4E DUP3 PUSH2 0x1D0F JUMP JUMPDEST PUSH1 0x20 DUP3 ADD SWAP1 POP SWAP2 SWAP1 POP JUMP JUMPDEST PUSH0 PUSH1 0x20 DUP3 ADD SWAP1 POP DUP2 DUP2 SUB PUSH0 DUP4 ADD MSTORE PUSH2 0x1D70 DUP2 PUSH2 0x1D37 JUMP JUMPDEST SWAP1 POP SWAP2 SWAP1 POP JUMP JUMPDEST PUSH32 0x546F206973207A65726F20616464726573730000000000000000000000000000 PUSH0 DUP3 ADD MSTORE POP JUMP JUMPDEST PUSH0 PUSH2 0x1DAB PUSH1 0x12 DUP4 PUSH2 0x170B JUMP JUMPDEST SWAP2 POP PUSH2 0x1DB6 DUP3 PUSH2 0x1D77 JUMP JUMPDEST PUSH1 0x20 DUP3 ADD SWAP1 POP SWAP2 SWAP1 POP JUMP JUMPDEST PUSH0 PUSH1 0x20 DUP3 ADD SWAP1 POP DUP2 DUP2 SUB PUSH0 DUP4 ADD MSTORE PUSH2 0x1DD8 DUP2 PUSH2 0x1D9F JUMP JUMPDEST SWAP1 POP SWAP2 SWAP1 POP JUMP JUMPDEST PUSH32 0x496E73756666696369656E742062616C616E6365000000000000000000000000 PUSH0 DUP3 ADD MSTORE POP JUMP JUMPDEST PUSH0 PUSH2 0x1E13 PUSH1 0x14 DUP4 PUSH2 0x170B JUMP JUMPDEST SWAP2 POP PUSH2 0x1E1E DUP3 PUSH2 0x1DDF JUMP JUMPDEST PUSH1 0x20 DUP3 ADD SWAP1 POP SWAP2 SWAP1 POP JUMP JUMPDEST PUSH0 PUSH1 0x20 DUP3 ADD SWAP1 POP DUP2 DUP2 SUB PUSH0 DUP4 ADD MSTORE PUSH2 0x1E40 DUP2 PUSH2 0x1E07 JUMP JUMPDEST SWAP1 POP SWAP2 SWAP1 POP JUMP JUMPDEST PUSH32 0x496E73756666696369656E7420616D6F756E7400000000000000000000000000 PUSH0 DUP3 ADD MSTORE POP JUMP JUMPDEST PUSH0 PUSH2 0x1E7B PUSH1 0x13 DUP4 PUSH2 0x170B JUMP JUMPDEST SWAP2 POP PUSH2 0x1E86 DUP3 PUSH2 0x1E47 JUMP JUMPDEST PUSH1 0x20 DUP3 ADD SWAP1 POP SWAP2 SWAP1 POP JUMP JUMPDEST PUSH0 PUSH1 0x20 DUP3 ADD SWAP1 POP DUP2 DUP2 SUB PUSH0 DUP4 ADD MSTORE PUSH2 0x1EA8 DUP2 PUSH2 0x1E6F JUMP JUMPDEST SWAP1 POP SWAP2 SWAP1 POP JUMP JUMPDEST PUSH32 0x4E487B7100000000000000000000000000000000000000000000000000000000 PUSH0 MSTORE PUSH1 0x11 PUSH1 0x4 MSTORE PUSH1 0x24 PUSH0 REVERT JUMPDEST PUSH0 PUSH2 0x1EE6 DUP3 PUSH2 0x1791 JUMP JUMPDEST SWAP2 POP PUSH2 0x1EF1 DUP4 PUSH2 0x1791 JUMP JUMPDEST SWAP3 POP DUP3 DUP3 SUB SWAP1 POP DUP2 DUP2 GT ISZERO PUSH2 0x1F09 JUMPI PUSH2 0x1F08 PUSH2 0x1EAF JUMP JUMPDEST JUMPDEST SWAP3 SWAP2 POP POP JUMP JUMPDEST PUSH0 PUSH2 0x1F19 DUP3 PUSH2 0x1791 JUMP JUMPDEST SWAP2 POP PUSH2 0x1F24 DUP4 PUSH2 0x1791 JUMP JUMPDEST SWAP3 POP DUP3 DUP3 ADD SWAP1 POP DUP1 DUP3 GT ISZERO PUSH2 0x1F3C JUMPI PUSH2 0x1F3B PUSH2 0x1EAF JUMP JUMPDEST JUMPDEST SWAP3 SWAP2 POP POP JUMP JUMPDEST PUSH32 0x4F6E6C79204F776E657200000000000000000000000000000000000000000000 PUSH0 DUP3 ADD MSTORE POP JUMP JUMPDEST PUSH0 PUSH2 0x1F76 PUSH1 0xA DUP4 PUSH2 0x170B JUMP JUMPDEST SWAP2 POP PUSH2 0x1F81 DUP3 PUSH2 0x1F42 JUMP JUMPDEST PUSH1 0x20 DUP3 ADD SWAP1 POP SWAP2 SWAP1 POP JUMP JUMPDEST PUSH0 PUSH1 0x20 DUP3 ADD SWAP1 POP DUP2 DUP2 SUB PUSH0 DUP4 ADD MSTORE PUSH2 0x1FA3 DUP2 PUSH2 0x1F6A JUMP JUMPDEST SWAP1 POP SWAP2 SWAP1 POP JUMP JUMPDEST PUSH32 0x546865207374617465206973206E6F7420706175736564000000000000000000 PUSH0 DUP3 ADD MSTORE POP JUMP JUMPDEST PUSH0 PUSH2 0x1FDE PUSH1 0x17 DUP4 PUSH2 0x170B JUMP JUMPDEST SWAP2 POP PUSH2 0x1FE9 DUP3 PUSH2 0x1FAA JUMP JUMPDEST PUSH1 0x20 DUP3 ADD SWAP1 POP SWAP2 SWAP1 POP JUMP JUMPDEST PUSH0 PUSH1 0x20 DUP3 ADD SWAP1 POP DUP2 DUP2 SUB PUSH0 DUP4 ADD MSTORE PUSH2 0x200B DUP2 PUSH2 0x1FD2 JUMP JUMPDEST SWAP1 POP SWAP2 SWAP1 POP JUMP JUMPDEST PUSH32 0x5A65726F20616464726573730000000000000000000000000000000000000000 PUSH0 DUP3 ADD MSTORE POP JUMP JUMPDEST PUSH0 PUSH2 0x2046 PUSH1 0xC DUP4 PUSH2 0x170B JUMP JUMPDEST SWAP2 POP PUSH2 0x2051 DUP3 PUSH2 0x2012 JUMP JUMPDEST PUSH1 0x20 DUP3 ADD SWAP1 POP SWAP2 SWAP1 POP JUMP JUMPDEST PUSH0 PUSH1 0x20 DUP3 ADD SWAP1 POP DUP2 DUP2 SUB PUSH0 DUP4 ADD MSTORE PUSH2 0x2073 DUP2 PUSH2 0x203A JUMP JUMPDEST SWAP1 POP SWAP2 SWAP1 POP JUMP JUMPDEST PUSH32 0x5468652073746174652069732070617573656400000000000000000000000000 PUSH0 DUP3 ADD MSTORE POP JUMP JUMPDEST PUSH0 PUSH2 0x20AE PUSH1 0x13 DUP4 PUSH2 0x170B JUMP JUMPDEST SWAP2 POP PUSH2 0x20B9 DUP3 PUSH2 0x207A JUMP JUMPDEST PUSH1 0x20 DUP3 ADD SWAP1 POP SWAP2 SWAP1 POP JUMP JUMPDEST PUSH0 PUSH1 0x20 DUP3 ADD SWAP1 POP DUP2 DUP2 SUB PUSH0 DUP4 ADD MSTORE PUSH2 0x20DB DUP2 PUSH2 0x20A2 JUMP JUMPDEST SWAP1 POP SWAP2 SWAP1 POP JUMP JUMPDEST PUSH32 0x556E657175616C206C656E677468730000000000000000000000000000000000 PUSH0 DUP3 ADD MSTORE POP JUMP JUMPDEST PUSH0 PUSH2 0x2116 PUSH1 0xF DUP4 PUSH2 0x170B JUMP JUMPDEST SWAP2 POP PUSH2 0x2121 DUP3 PUSH2 0x20E2 JUMP JUMPDEST PUSH1 0x20 DUP3 ADD SWAP1 POP SWAP2 SWAP1 POP JUMP JUMPDEST PUSH0 PUSH1 0x20 DUP3 ADD SWAP1 POP DUP2 DUP2 SUB PUSH0 DUP4 ADD MSTORE PUSH2 0x2143 DUP2 PUSH2 0x210A JUMP JUMPDEST SWAP1 POP SWAP2 SWAP1 POP JUMP JUMPDEST PUSH32 0x4C656E677468206973206C696D69746564000000000000000000000000000000 PUSH0 DUP3 ADD MSTORE POP JUMP JUMPDEST PUSH0 PUSH2 0x217E PUSH1 0x11 DUP4 PUSH2 0x170B JUMP JUMPDEST SWAP2 POP PUSH2 0x2189 DUP3 PUSH2 0x214A JUMP JUMPDEST PUSH1 0x20 DUP3 ADD SWAP1 POP SWAP2 SWAP1 POP JUMP JUMPDEST PUSH0 PUSH1 0x20 DUP3 ADD SWAP1 POP DUP2 DUP2 SUB PUSH0 DUP4 ADD MSTORE PUSH2 0x21AB DUP2 PUSH2 0x2172 JUMP JUMPDEST SWAP1 POP SWAP2 SWAP1 POP JUMP JUMPDEST PUSH32 0x4E487B7100000000000000000000000000000000000000000000000000000000 PUSH0 MSTORE PUSH1 0x32 PUSH1 0x4 MSTORE PUSH1 0x24 PUSH0 REVERT JUMPDEST PUSH32 0x496E73756666696369656E7420616F756D740000000000000000000000000000 PUSH0 DUP3 ADD MSTORE POP JUMP JUMPDEST PUSH0 PUSH2 0x2213 PUSH1 0x12 DUP4 PUSH2 0x170B JUMP JUMPDEST SWAP2 POP PUSH2 0x221E DUP3 PUSH2 0x21DF JUMP JUMPDEST PUSH1 0x20 DUP3 ADD SWAP1 POP SWAP2 SWAP1 POP JUMP JUMPDEST PUSH0 PUSH1 0x20 DUP3 ADD SWAP1 POP DUP2 DUP2 SUB PUSH0 DUP4 ADD MSTORE PUSH2 0x2240 DUP2 PUSH2 0x2207 JUMP JUMPDEST SWAP1 POP SWAP2 SWAP1 POP JUMP JUMPDEST PUSH32 0x496E76616C696420616D6F756E74000000000000000000000000000000000000 PUSH0 DUP3 ADD MSTORE POP JUMP JUMPDEST PUSH0 PUSH2 0x227B PUSH1 0xE DUP4 PUSH2 0x170B JUMP JUMPDEST SWAP2 POP PUSH2 0x2286 DUP3 PUSH2 0x2247 JUMP JUMPDEST PUSH1 0x20 DUP3 ADD SWAP1 POP SWAP2 SWAP1 POP JUMP JUMPDEST PUSH0 PUSH1 0x20 DUP3 ADD SWAP1 POP DUP2 DUP2 SUB PUSH0 DUP4 ADD MSTORE PUSH2 0x22A8 DUP2 PUSH2 0x226F JUMP JUMPDEST SWAP1 POP SWAP2 SWAP1 POP JUMP JUMPDEST PUSH32 0x496E73756666696369656E74732062616C616E63650000000000000000000000 PUSH0 DUP3 ADD MSTORE POP JUMP JUMPDEST PUSH0 PUSH2 0x22E3 PUSH1 0x15 DUP4 PUSH2 0x170B JUMP JUMPDEST SWAP2 POP PUSH2 0x22EE DUP3 PUSH2 0x22AF JUMP JUMPDEST PUSH1 0x20 DUP3 ADD SWAP1 POP SWAP2 SWAP1 POP JUMP JUMPDEST PUSH0 PUSH1 0x20 DUP3 ADD SWAP1 POP DUP2 DUP2 SUB PUSH0 DUP4 ADD MSTORE PUSH2 0x2310 DUP2 PUSH2 0x22D7 JUMP JUMPDEST SWAP1 POP SWAP2 SWAP1 POP JUMP INVALID LOG2 PUSH5 0x6970667358 0x22 SLT KECCAK256 TLOAD PUSH19 0xBA83597D73DDA05AD34B89126D53679D28E82F 0x2E PUSH23 0xF7FB31F4727E28605B64736F6C634300081E0033000000 "
				},
				"gasEstimates": {
					"creation": {
						"codeDepositCost": "1807400",
						"executionCost": "infinite",
						"totalCost": "infinite"
					},
					"external": {
						"allowance(address,address)": "infinite",
						"approval(address,uint256)": "infinite",
						"balanceOf(address)": "2869",
						"batchTransfer(address[],uint256[])": "infinite",
						"burn(uint256)": "infinite",
						"decimal()": "2448",
						"mint(address,uint256)": "infinite",
						"name()": "infinite",
						"owner()": "2597",
						"pause()": "31261",
						"pauseState()": "2583",
						"symbol()": "infinite",
						"totalSupply()": "2471",
						"transfer(address,uint256)": "infinite",
						"transferForm(address,address,uint256)": "infinite",
						"unpause()": "31302"
					}
				},
				"methodIdentifiers": {
					"allowance(address,address)": "dd62ed3e",
					"approval(address,uint256)": "75247a58",
					"balanceOf(address)": "70a08231",
					"batchTransfer(address[],uint256[])": "88d695b2",
					"burn(uint256)": "42966c68",
					"decimal()": "76809ce3",
					"mint(address,uint256)": "40c10f19",
					"name()": "06fdde03",
					"owner()": "8da5cb5b",
					"pause()": "8456cb59",
					"pauseState()": "d7118351",
					"symbol()": "95d89b41",
					"totalSupply()": "18160ddd",
					"transfer(address,uint256)": "a9059cbb",
					"transferForm(address,address,uint256)": "3112ae5b",
					"unpause()": "3f4ba83a"
				}
			},
			"storageLayout": {
				"storage": [
					{
						"astId": 4,
						"contract": "contracts/task2/01 job1.sol:MyERC20",
						"label": "name",
						"offset": 0,
						"slot": "0",
						"type": "t_string_storage"
					},
					{
						"astId": 7,
						"contract": "contracts/task2/01 job1.sol:MyERC20",
						"label": "symbol",
						"offset": 0,
						"slot": "1",
						"type": "t_string_storage"
					},
					{
						"astId": 10,
						"contract": "contracts/task2/01 job1.sol:MyERC20",
						"label": "decimal",
						"offset": 0,
						"slot": "2",
						"type": "t_uint256"
					},
					{
						"astId": 12,
						"contract": "contracts/task2/01 job1.sol:MyERC20",
						"label": "totalSupply",
						"offset": 0,
						"slot": "3",
						"type": "t_uint256"
					},
					{
						"astId": 14,
						"contract": "contracts/task2/01 job1.sol:MyERC20",
						"label": "owner",
						"offset": 0,
						"slot": "4",
						"type": "t_address"
					},
					{
						"astId": 17,
						"contract": "contracts/task2/01 job1.sol:MyERC20",
						"label": "pauseState",
						"offset": 20,
						"slot": "4",
						"type": "t_bool"
					},
					{
						"astId": 21,
						"contract": "contracts/task2/01 job1.sol:MyERC20",
						"label": "balanceOf",
						"offset": 0,
						"slot": "5",
						"type": "t_mapping(t_address,t_uint256)"
					},
					{
						"astId": 27,
						"contract": "contracts/task2/01 job1.sol:MyERC20",
						"label": "allowance",
						"offset": 0,
						"slot": "6",
						"type": "t_mapping(t_address,t_mapping(t_address,t_uint256))"
					}
				],
				"types": {
					"t_address": {
						"encoding": "inplace",
						"label": "address",
						"numberOfBytes": "20"
					},
					"t_bool": {
						"encoding": "inplace",
						"label": "bool",
						"numberOfBytes": "1"
					},
					"t_mapping(t_address,t_mapping(t_address,t_uint256))": {
						"encoding": "mapping",
						"key": "t_address",
						"label": "mapping(address => mapping(address => uint256))",
						"numberOfBytes": "32",
						"value": "t_mapping(t_address,t_uint256)"
					},
					"t_mapping(t_address,t_uint256)": {
						"encoding": "mapping",
						"key": "t_address",
						"label": "mapping(address => uint256)",
						"numberOfBytes": "32",
						"value": "t_uint256"
					},
					"t_string_storage": {
						"encoding": "bytes",
						"label": "string",
						"numberOfBytes": "32"
					},
					"t_uint256": {
						"encoding": "inplace",
						"label": "uint256",
						"numberOfBytes": "32"
					}
				}
			},
			"userdoc": {
				"kind": "user",
				"methods": {},
				"version": 1
			}
		}
	}
}