{
	"contracts/task1/04 RomanToInt.sol": {
		"RomanToInt": {
			"abi": [
				{
					"inputs": [
						{
							"internalType": "bytes1",
							"name": "",
							"type": "bytes1"
						}
					],
					"name": "romanList",
					"outputs": [
						{
							"internalType": "uint256",
							"name": "",
							"type": "uint256"
						}
					],
					"stateMutability": "view",
					"type": "function"
				},
				{
					"inputs": [
						{
							"internalType": "string",
							"name": "_str",
							"type": "string"
						}
					],
					"name": "romanToInt",
					"outputs": [
						{
							"internalType": "uint256",
							"name": "",
							"type": "uint256"
						}
					],
					"stateMutability": "nonpayable",
					"type": "function"
				}
			],
			"devdoc": {
				"kind": "dev",
				"methods": {},
				"version": 1
			},
			"evm": {
				"assembly": "    /* \"contracts/task1/04 RomanToInt.sol\":60:883  contract RomanToInt {... */\n  mstore(0x40, 0x80)\n  callvalue\n  dup1\n  iszero\n  tag_1\n  jumpi\n  revert(0x00, 0x00)\ntag_1:\n  pop\n  dataSize(sub_0)\n  dup1\n  dataOffset(sub_0)\n  0x00\n  codecopy\n  0x00\n  return\nstop\n\nsub_0: assembly {\n        /* \"contracts/task1/04 RomanToInt.sol\":60:883  contract RomanToInt {... */\n      mstore(0x40, 0x80)\n      callvalue\n      dup1\n      iszero\n      tag_1\n      jumpi\n      revert(0x00, 0x00)\n    tag_1:\n      pop\n      jumpi(tag_2, lt(calldatasize, 0x04))\n      shr(0xe0, calldataload(0x00))\n      dup1\n      0x8f07f780\n      eq\n      tag_3\n      jumpi\n      dup1\n      0xcb159dfe\n      eq\n      tag_4\n      jumpi\n    tag_2:\n      revert(0x00, 0x00)\n        /* \"contracts/task1/04 RomanToInt.sol\":87:126  mapping (bytes1=>uint) public romanList */\n    tag_3:\n      tag_5\n      0x04\n      dup1\n      calldatasize\n      sub\n      dup2\n      add\n      swap1\n      tag_6\n      swap2\n      swap1\n      tag_7\n      jump\t// in\n    tag_6:\n      tag_8\n      jump\t// in\n    tag_5:\n      mload(0x40)\n      tag_9\n      swap2\n      swap1\n      tag_10\n      jump\t// in\n    tag_9:\n      mload(0x40)\n      dup1\n      swap2\n      sub\n      swap1\n      return\n        /* \"contracts/task1/04 RomanToInt.sol\":135:878  function romanToInt(string memory _str) public returns (uint){... */\n    tag_4:\n      tag_11\n      0x04\n      dup1\n      calldatasize\n      sub\n      dup2\n      add\n      swap1\n      tag_12\n      swap2\n      swap1\n      tag_13\n      jump\t// in\n    tag_12:\n      tag_14\n      jump\t// in\n    tag_11:\n      mload(0x40)\n      tag_15\n      swap2\n      swap1\n      tag_10\n      jump\t// in\n    tag_15:\n      mload(0x40)\n      dup1\n      swap2\n      sub\n      swap1\n      return\n        /* \"contracts/task1/04 RomanToInt.sol\":87:126  mapping (bytes1=>uint) public romanList */\n    tag_8:\n      mstore(0x20, 0x00)\n      dup1\n      0x00\n      mstore\n      keccak256(0x00, 0x40)\n      0x00\n      swap2\n      pop\n      swap1\n      pop\n      sload\n      dup2\n      jump\t// out\n        /* \"contracts/task1/04 RomanToInt.sol\":135:878  function romanToInt(string memory _str) public returns (uint){... */\n    tag_14:\n        /* \"contracts/task1/04 RomanToInt.sol\":191:195  uint */\n      0x00\n        /* \"contracts/task1/04 RomanToInt.sol\":232:233  1 */\n      0x01\n        /* \"contracts/task1/04 RomanToInt.sol\":207:216  romanList */\n      0x00\n        /* \"contracts/task1/04 RomanToInt.sol\":207:229  romanList[bytes1(\"I\")] */\n      0x00\n        /* \"contracts/task1/04 RomanToInt.sol\":217:228  bytes1(\"I\") */\n      0x4900000000000000000000000000000000000000000000000000000000000000\n        /* \"contracts/task1/04 RomanToInt.sol\":207:229  romanList[bytes1(\"I\")] */\n      not(0xffffffffffffffffffffffffffffffffffffffffffffffffffffffffffffff)\n      and\n      not(0xffffffffffffffffffffffffffffffffffffffffffffffffffffffffffffff)\n      and\n      dup2\n      mstore\n      0x20\n      add\n      swap1\n      dup2\n      mstore\n      0x20\n      add\n      0x00\n      keccak256\n        /* \"contracts/task1/04 RomanToInt.sol\":207:233  romanList[bytes1(\"I\")] = 1 */\n      dup2\n      swap1\n      sstore\n      pop\n        /* \"contracts/task1/04 RomanToInt.sol\":269:270  5 */\n      0x05\n        /* \"contracts/task1/04 RomanToInt.sol\":244:253  romanList */\n      0x00\n        /* \"contracts/task1/04 RomanToInt.sol\":244:266  romanList[bytes1(\"V\")] */\n      0x00\n        /* \"contracts/task1/04 RomanToInt.sol\":254:265  bytes1(\"V\") */\n      0x5600000000000000000000000000000000000000000000000000000000000000\n        /* \"contracts/task1/04 RomanToInt.sol\":244:266  romanList[bytes1(\"V\")] */\n      not(0xffffffffffffffffffffffffffffffffffffffffffffffffffffffffffffff)\n      and\n      not(0xffffffffffffffffffffffffffffffffffffffffffffffffffffffffffffff)\n      and\n      dup2\n      mstore\n      0x20\n      add\n      swap1\n      dup2\n      mstore\n      0x20\n      add\n      0x00\n      keccak256\n        /* \"contracts/task1/04 RomanToInt.sol\":244:270  romanList[bytes1(\"V\")] = 5 */\n      dup2\n      swap1\n      sstore\n      pop\n        /* \"contracts/task1/04 RomanToInt.sol\":306:308  10 */\n      0x0a\n        /* \"contracts/task1/04 RomanToInt.sol\":281:290  romanList */\n      0x00\n        /* \"contracts/task1/04 RomanToInt.sol\":281:303  romanList[bytes1(\"X\")] */\n      0x00\n        /* \"contracts/task1/04 RomanToInt.sol\":291:302  bytes1(\"X\") */\n      0x5800000000000000000000000000000000000000000000000000000000000000\n        /* \"contracts/task1/04 RomanToInt.sol\":281:303  romanList[bytes1(\"X\")] */\n      not(0xffffffffffffffffffffffffffffffffffffffffffffffffffffffffffffff)\n      and\n      not(0xffffffffffffffffffffffffffffffffffffffffffffffffffffffffffffff)\n      and\n      dup2\n      mstore\n      0x20\n      add\n      swap1\n      dup2\n      mstore\n      0x20\n      add\n      0x00\n      keccak256\n        /* \"contracts/task1/04 RomanToInt.sol\":281:308  romanList[bytes1(\"X\")] = 10 */\n      dup2\n      swap1\n      sstore\n      pop\n        /* \"contracts/task1/04 RomanToInt.sol\":344:346  50 */\n      0x32\n        /* \"contracts/task1/04 RomanToInt.sol\":319:328  romanList */\n      0x00\n        /* \"contracts/task1/04 RomanToInt.sol\":319:341  romanList[bytes1(\"L\")] */\n      0x00\n        /* \"contracts/task1/04 RomanToInt.sol\":329:340  bytes1(\"L\") */\n      0x4c00000000000000000000000000000000000000000000000000000000000000\n        /* \"contracts/task1/04 RomanToInt.sol\":319:341  romanList[bytes1(\"L\")] */\n      not(0xffffffffffffffffffffffffffffffffffffffffffffffffffffffffffffff)\n      and\n      not(0xffffffffffffffffffffffffffffffffffffffffffffffffffffffffffffff)\n      and\n      dup2\n      mstore\n      0x20\n      add\n      swap1\n      dup2\n      mstore\n      0x20\n      add\n      0x00\n      keccak256\n        /* \"contracts/task1/04 RomanToInt.sol\":319:346  romanList[bytes1(\"L\")] = 50 */\n      dup2\n      swap1\n      sstore\n      pop\n        /* \"contracts/task1/04 RomanToInt.sol\":382:385  100 */\n      0x64\n        /* \"contracts/task1/04 RomanToInt.sol\":357:366  romanList */\n      0x00\n        /* \"contracts/task1/04 RomanToInt.sol\":357:379  romanList[bytes1(\"C\")] */\n      0x00\n        /* \"contracts/task1/04 RomanToInt.sol\":367:378  bytes1(\"C\") */\n      0x4300000000000000000000000000000000000000000000000000000000000000\n        /* \"contracts/task1/04 RomanToInt.sol\":357:379  romanList[bytes1(\"C\")] */\n      not(0xffffffffffffffffffffffffffffffffffffffffffffffffffffffffffffff)\n      and\n      not(0xffffffffffffffffffffffffffffffffffffffffffffffffffffffffffffff)\n      and\n      dup2\n      mstore\n      0x20\n      add\n      swap1\n      dup2\n      mstore\n      0x20\n      add\n      0x00\n      keccak256\n        /* \"contracts/task1/04 RomanToInt.sol\":357:385  romanList[bytes1(\"C\")] = 100 */\n      dup2\n      swap1\n      sstore\n      pop\n        /* \"contracts/task1/04 RomanToInt.sol\":421:424  500 */\n      0x01f4\n        /* \"contracts/task1/04 RomanToInt.sol\":396:405  romanList */\n      0x00\n        /* \"contracts/task1/04 RomanToInt.sol\":396:418  romanList[bytes1(\"D\")] */\n      0x00\n        /* \"contracts/task1/04 RomanToInt.sol\":406:417  bytes1(\"D\") */\n      0x4400000000000000000000000000000000000000000000000000000000000000\n        /* \"contracts/task1/04 RomanToInt.sol\":396:418  romanList[bytes1(\"D\")] */\n      not(0xffffffffffffffffffffffffffffffffffffffffffffffffffffffffffffff)\n      and\n      not(0xffffffffffffffffffffffffffffffffffffffffffffffffffffffffffffff)\n      and\n      dup2\n      mstore\n      0x20\n      add\n      swap1\n      dup2\n      mstore\n      0x20\n      add\n      0x00\n      keccak256\n        /* \"contracts/task1/04 RomanToInt.sol\":396:424  romanList[bytes1(\"D\")] = 500 */\n      dup2\n      swap1\n      sstore\n      pop\n        /* \"contracts/task1/04 RomanToInt.sol\":460:464  1000 */\n      0x03e8\n        /* \"contracts/task1/04 RomanToInt.sol\":435:444  romanList */\n      0x00\n        /* \"contracts/task1/04 RomanToInt.sol\":435:457  romanList[bytes1(\"M\")] */\n      0x00\n        /* \"contracts/task1/04 RomanToInt.sol\":445:456  bytes1(\"M\") */\n      0x4d00000000000000000000000000000000000000000000000000000000000000\n        /* \"contracts/task1/04 RomanToInt.sol\":435:457  romanList[bytes1(\"M\")] */\n      not(0xffffffffffffffffffffffffffffffffffffffffffffffffffffffffffffff)\n      and\n      not(0xffffffffffffffffffffffffffffffffffffffffffffffffffffffffffffff)\n      and\n      dup2\n      mstore\n      0x20\n      add\n      swap1\n      dup2\n      mstore\n      0x20\n      add\n      0x00\n      keccak256\n        /* \"contracts/task1/04 RomanToInt.sol\":435:464  romanList[bytes1(\"M\")] = 1000 */\n      dup2\n      swap1\n      sstore\n      pop\n        /* \"contracts/task1/04 RomanToInt.sol\":475:483  uint num */\n      0x00\n        /* \"contracts/task1/04 RomanToInt.sol\":494:512  bytes memory strBy */\n      0x00\n        /* \"contracts/task1/04 RomanToInt.sol\":521:525  _str */\n      dup4\n        /* \"contracts/task1/04 RomanToInt.sol\":494:526  bytes memory strBy = bytes(_str) */\n      swap1\n      pop\n        /* \"contracts/task1/04 RomanToInt.sol\":542:548  uint i */\n      0x00\n        /* \"contracts/task1/04 RomanToInt.sol\":551:552  0 */\n      0x00\n        /* \"contracts/task1/04 RomanToInt.sol\":542:552  uint i = 0 */\n      swap1\n      pop\n        /* \"contracts/task1/04 RomanToInt.sol\":537:850  for (uint i = 0; i < strBy.length; i++){... */\n    tag_17:\n        /* \"contracts/task1/04 RomanToInt.sol\":558:563  strBy */\n      dup2\n        /* \"contracts/task1/04 RomanToInt.sol\":558:570  strBy.length */\n      mload\n        /* \"contracts/task1/04 RomanToInt.sol\":554:555  i */\n      dup2\n        /* \"contracts/task1/04 RomanToInt.sol\":554:570  i < strBy.length */\n      lt\n        /* \"contracts/task1/04 RomanToInt.sol\":537:850  for (uint i = 0; i < strBy.length; i++){... */\n      iszero\n      tag_18\n      jumpi\n        /* \"contracts/task1/04 RomanToInt.sol\":612:613  1 */\n      0x01\n        /* \"contracts/task1/04 RomanToInt.sol\":599:604  strBy */\n      dup3\n        /* \"contracts/task1/04 RomanToInt.sol\":599:611  strBy.length */\n      mload\n        /* \"contracts/task1/04 RomanToInt.sol\":599:613  strBy.length-1 */\n      tag_20\n      swap2\n      swap1\n      tag_21\n      jump\t// in\n    tag_20:\n        /* \"contracts/task1/04 RomanToInt.sol\":595:596  i */\n      dup2\n        /* \"contracts/task1/04 RomanToInt.sol\":595:613  i < strBy.length-1 */\n      lt\n        /* \"contracts/task1/04 RomanToInt.sol\":595:658  i < strBy.length-1 && romanList[strBy[i]]<romanList[strBy[i+1]] */\n      dup1\n      iszero\n      tag_22\n      jumpi\n      pop\n        /* \"contracts/task1/04 RomanToInt.sol\":637:646  romanList */\n      0x00\n        /* \"contracts/task1/04 RomanToInt.sol\":637:658  romanList[strBy[i+1]] */\n      0x00\n        /* \"contracts/task1/04 RomanToInt.sol\":647:652  strBy */\n      dup4\n        /* \"contracts/task1/04 RomanToInt.sol\":655:656  1 */\n      0x01\n        /* \"contracts/task1/04 RomanToInt.sol\":653:654  i */\n      dup5\n        /* \"contracts/task1/04 RomanToInt.sol\":653:656  i+1 */\n      tag_23\n      swap2\n      swap1\n      tag_24\n      jump\t// in\n    tag_23:\n        /* \"contracts/task1/04 RomanToInt.sol\":647:657  strBy[i+1] */\n      dup2\n      mload\n      dup2\n      lt\n      tag_25\n      jumpi\n      tag_26\n      tag_27\n      jump\t// in\n    tag_26:\n    tag_25:\n      0x20\n      add\n      add\n      mload\n      0xf8\n      shr\n      0xf8\n      shl\n        /* \"contracts/task1/04 RomanToInt.sol\":637:658  romanList[strBy[i+1]] */\n      not(0xffffffffffffffffffffffffffffffffffffffffffffffffffffffffffffff)\n      and\n      not(0xffffffffffffffffffffffffffffffffffffffffffffffffffffffffffffff)\n      and\n      dup2\n      mstore\n      0x20\n      add\n      swap1\n      dup2\n      mstore\n      0x20\n      add\n      0x00\n      keccak256\n      sload\n        /* \"contracts/task1/04 RomanToInt.sol\":617:626  romanList */\n      0x00\n        /* \"contracts/task1/04 RomanToInt.sol\":617:636  romanList[strBy[i]] */\n      0x00\n        /* \"contracts/task1/04 RomanToInt.sol\":627:632  strBy */\n      dup5\n        /* \"contracts/task1/04 RomanToInt.sol\":633:634  i */\n      dup5\n        /* \"contracts/task1/04 RomanToInt.sol\":627:635  strBy[i] */\n      dup2\n      mload\n      dup2\n      lt\n      tag_28\n      jumpi\n      tag_29\n      tag_27\n      jump\t// in\n    tag_29:\n    tag_28:\n      0x20\n      add\n      add\n      mload\n      0xf8\n      shr\n      0xf8\n      shl\n        /* \"contracts/task1/04 RomanToInt.sol\":617:636  romanList[strBy[i]] */\n      not(0xffffffffffffffffffffffffffffffffffffffffffffffffffffffffffffff)\n      and\n      not(0xffffffffffffffffffffffffffffffffffffffffffffffffffffffffffffff)\n      and\n      dup2\n      mstore\n      0x20\n      add\n      swap1\n      dup2\n      mstore\n      0x20\n      add\n      0x00\n      keccak256\n      sload\n        /* \"contracts/task1/04 RomanToInt.sol\":617:658  romanList[strBy[i]]<romanList[strBy[i+1]] */\n      lt\n        /* \"contracts/task1/04 RomanToInt.sol\":595:658  i < strBy.length-1 && romanList[strBy[i]]<romanList[strBy[i+1]] */\n    tag_22:\n        /* \"contracts/task1/04 RomanToInt.sol\":591:839  if (i < strBy.length-1 && romanList[strBy[i]]<romanList[strBy[i+1]]){... */\n      iszero\n      tag_30\n      jumpi\n        /* \"contracts/task1/04 RomanToInt.sol\":714:723  romanList */\n      0x00\n        /* \"contracts/task1/04 RomanToInt.sol\":714:733  romanList[strBy[i]] */\n      0x00\n        /* \"contracts/task1/04 RomanToInt.sol\":724:729  strBy */\n      dup4\n        /* \"contracts/task1/04 RomanToInt.sol\":730:731  i */\n      dup4\n        /* \"contracts/task1/04 RomanToInt.sol\":724:732  strBy[i] */\n      dup2\n      mload\n      dup2\n      lt\n      tag_31\n      jumpi\n      tag_32\n      tag_27\n      jump\t// in\n    tag_32:\n    tag_31:\n      0x20\n      add\n      add\n      mload\n      0xf8\n      shr\n      0xf8\n      shl\n        /* \"contracts/task1/04 RomanToInt.sol\":714:733  romanList[strBy[i]] */\n      not(0xffffffffffffffffffffffffffffffffffffffffffffffffffffffffffffff)\n      and\n      not(0xffffffffffffffffffffffffffffffffffffffffffffffffffffffffffffff)\n      and\n      dup2\n      mstore\n      0x20\n      add\n      swap1\n      dup2\n      mstore\n      0x20\n      add\n      0x00\n      keccak256\n      sload\n        /* \"contracts/task1/04 RomanToInt.sol\":690:699  romanList */\n      0x00\n        /* \"contracts/task1/04 RomanToInt.sol\":690:711  romanList[strBy[i+1]] */\n      0x00\n        /* \"contracts/task1/04 RomanToInt.sol\":700:705  strBy */\n      dup5\n        /* \"contracts/task1/04 RomanToInt.sol\":708:709  1 */\n      0x01\n        /* \"contracts/task1/04 RomanToInt.sol\":706:707  i */\n      dup6\n        /* \"contracts/task1/04 RomanToInt.sol\":706:709  i+1 */\n      tag_33\n      swap2\n      swap1\n      tag_24\n      jump\t// in\n    tag_33:\n        /* \"contracts/task1/04 RomanToInt.sol\":700:710  strBy[i+1] */\n      dup2\n      mload\n      dup2\n      lt\n      tag_34\n      jumpi\n      tag_35\n      tag_27\n      jump\t// in\n    tag_35:\n    tag_34:\n      0x20\n      add\n      add\n      mload\n      0xf8\n      shr\n      0xf8\n      shl\n        /* \"contracts/task1/04 RomanToInt.sol\":690:711  romanList[strBy[i+1]] */\n      not(0xffffffffffffffffffffffffffffffffffffffffffffffffffffffffffffff)\n      and\n      not(0xffffffffffffffffffffffffffffffffffffffffffffffffffffffffffffff)\n      and\n      dup2\n      mstore\n      0x20\n      add\n      swap1\n      dup2\n      mstore\n      0x20\n      add\n      0x00\n      keccak256\n      sload\n        /* \"contracts/task1/04 RomanToInt.sol\":684:687  num */\n      dup5\n        /* \"contracts/task1/04 RomanToInt.sol\":684:711  num + romanList[strBy[i+1]] */\n      tag_36\n      swap2\n      swap1\n      tag_24\n      jump\t// in\n    tag_36:\n        /* \"contracts/task1/04 RomanToInt.sol\":684:733  num + romanList[strBy[i+1]] - romanList[strBy[i]] */\n      tag_37\n      swap2\n      swap1\n      tag_21\n      jump\t// in\n    tag_37:\n        /* \"contracts/task1/04 RomanToInt.sol\":678:733  num = num + romanList[strBy[i+1]] - romanList[strBy[i]] */\n      swap3\n      pop\n        /* \"contracts/task1/04 RomanToInt.sol\":752:755  i++ */\n      dup1\n      dup1\n      tag_38\n      swap1\n      tag_39\n      jump\t// in\n    tag_38:\n      swap2\n      pop\n      pop\n        /* \"contracts/task1/04 RomanToInt.sol\":591:839  if (i < strBy.length-1 && romanList[strBy[i]]<romanList[strBy[i+1]]){... */\n      jump(tag_40)\n    tag_30:\n        /* \"contracts/task1/04 RomanToInt.sol\":804:813  romanList */\n      0x00\n        /* \"contracts/task1/04 RomanToInt.sol\":804:823  romanList[strBy[i]] */\n      0x00\n        /* \"contracts/task1/04 RomanToInt.sol\":814:819  strBy */\n      dup4\n        /* \"contracts/task1/04 RomanToInt.sol\":820:821  i */\n      dup4\n        /* \"contracts/task1/04 RomanToInt.sol\":814:822  strBy[i] */\n      dup2\n      mload\n      dup2\n      lt\n      tag_41\n      jumpi\n      tag_42\n      tag_27\n      jump\t// in\n    tag_42:\n    tag_41:\n      0x20\n      add\n      add\n      mload\n      0xf8\n      shr\n      0xf8\n      shl\n        /* \"contracts/task1/04 RomanToInt.sol\":804:823  romanList[strBy[i]] */\n      not(0xffffffffffffffffffffffffffffffffffffffffffffffffffffffffffffff)\n      and\n      not(0xffffffffffffffffffffffffffffffffffffffffffffffffffffffffffffff)\n      and\n      dup2\n      mstore\n      0x20\n      add\n      swap1\n      dup2\n      mstore\n      0x20\n      add\n      0x00\n      keccak256\n      sload\n        /* \"contracts/task1/04 RomanToInt.sol\":797:823  num += romanList[strBy[i]] */\n      dup4\n      tag_43\n      swap2\n      swap1\n      tag_24\n      jump\t// in\n    tag_43:\n      swap3\n      pop\n        /* \"contracts/task1/04 RomanToInt.sol\":591:839  if (i < strBy.length-1 && romanList[strBy[i]]<romanList[strBy[i+1]]){... */\n    tag_40:\n        /* \"contracts/task1/04 RomanToInt.sol\":572:575  i++ */\n      dup1\n      dup1\n      tag_44\n      swap1\n      tag_39\n      jump\t// in\n    tag_44:\n      swap2\n      pop\n      pop\n        /* \"contracts/task1/04 RomanToInt.sol\":537:850  for (uint i = 0; i < strBy.length; i++){... */\n      jump(tag_17)\n    tag_18:\n      pop\n        /* \"contracts/task1/04 RomanToInt.sol\":867:870  num */\n      dup2\n        /* \"contracts/task1/04 RomanToInt.sol\":860:870  return num */\n      swap3\n      pop\n      pop\n      pop\n        /* \"contracts/task1/04 RomanToInt.sol\":135:878  function romanToInt(string memory _str) public returns (uint){... */\n      swap2\n      swap1\n      pop\n      jump\t// out\n        /* \"#utility.yul\":7:82   */\n    tag_45:\n        /* \"#utility.yul\":40:46   */\n      0x00\n        /* \"#utility.yul\":73:75   */\n      0x40\n        /* \"#utility.yul\":67:76   */\n      mload\n        /* \"#utility.yul\":57:76   */\n      swap1\n      pop\n        /* \"#utility.yul\":7:82   */\n      swap1\n      jump\t// out\n        /* \"#utility.yul\":88:205   */\n    tag_46:\n        /* \"#utility.yul\":197:198   */\n      0x00\n        /* \"#utility.yul\":194:195   */\n      0x00\n        /* \"#utility.yul\":187:199   */\n      revert\n        /* \"#utility.yul\":211:328   */\n    tag_47:\n        /* \"#utility.yul\":320:321   */\n      0x00\n        /* \"#utility.yul\":317:318   */\n      0x00\n        /* \"#utility.yul\":310:322   */\n      revert\n        /* \"#utility.yul\":334:483   */\n    tag_48:\n        /* \"#utility.yul\":370:377   */\n      0x00\n        /* \"#utility.yul\":410:476   */\n      0xff00000000000000000000000000000000000000000000000000000000000000\n        /* \"#utility.yul\":403:408   */\n      dup3\n        /* \"#utility.yul\":399:477   */\n      and\n        /* \"#utility.yul\":388:477   */\n      swap1\n      pop\n        /* \"#utility.yul\":334:483   */\n      swap2\n      swap1\n      pop\n      jump\t// out\n        /* \"#utility.yul\":489:609   */\n    tag_49:\n        /* \"#utility.yul\":561:584   */\n      tag_70\n        /* \"#utility.yul\":578:583   */\n      dup2\n        /* \"#utility.yul\":561:584   */\n      tag_48\n      jump\t// in\n    tag_70:\n        /* \"#utility.yul\":554:559   */\n      dup2\n        /* \"#utility.yul\":551:585   */\n      eq\n        /* \"#utility.yul\":541:603   */\n      tag_71\n      jumpi\n        /* \"#utility.yul\":599:600   */\n      0x00\n        /* \"#utility.yul\":596:597   */\n      0x00\n        /* \"#utility.yul\":589:601   */\n      revert\n        /* \"#utility.yul\":541:603   */\n    tag_71:\n        /* \"#utility.yul\":489:609   */\n      pop\n      jump\t// out\n        /* \"#utility.yul\":615:752   */\n    tag_50:\n        /* \"#utility.yul\":660:665   */\n      0x00\n        /* \"#utility.yul\":698:704   */\n      dup2\n        /* \"#utility.yul\":685:705   */\n      calldataload\n        /* \"#utility.yul\":676:705   */\n      swap1\n      pop\n        /* \"#utility.yul\":714:746   */\n      tag_73\n        /* \"#utility.yul\":740:745   */\n      dup2\n        /* \"#utility.yul\":714:746   */\n      tag_49\n      jump\t// in\n    tag_73:\n        /* \"#utility.yul\":615:752   */\n      swap3\n      swap2\n      pop\n      pop\n      jump\t// out\n        /* \"#utility.yul\":758:1085   */\n    tag_7:\n        /* \"#utility.yul\":816:822   */\n      0x00\n        /* \"#utility.yul\":865:867   */\n      0x20\n        /* \"#utility.yul\":853:862   */\n      dup3\n        /* \"#utility.yul\":844:851   */\n      dup5\n        /* \"#utility.yul\":840:863   */\n      sub\n        /* \"#utility.yul\":836:868   */\n      slt\n        /* \"#utility.yul\":833:952   */\n      iszero\n      tag_75\n      jumpi\n        /* \"#utility.yul\":871:950   */\n      tag_76\n      tag_46\n      jump\t// in\n    tag_76:\n        /* \"#utility.yul\":833:952   */\n    tag_75:\n        /* \"#utility.yul\":991:992   */\n      0x00\n        /* \"#utility.yul\":1016:1068   */\n      tag_77\n        /* \"#utility.yul\":1060:1067   */\n      dup5\n        /* \"#utility.yul\":1051:1057   */\n      dup3\n        /* \"#utility.yul\":1040:1049   */\n      dup6\n        /* \"#utility.yul\":1036:1058   */\n      add\n        /* \"#utility.yul\":1016:1068   */\n      tag_50\n      jump\t// in\n    tag_77:\n        /* \"#utility.yul\":1006:1068   */\n      swap2\n      pop\n        /* \"#utility.yul\":962:1078   */\n      pop\n        /* \"#utility.yul\":758:1085   */\n      swap3\n      swap2\n      pop\n      pop\n      jump\t// out\n        /* \"#utility.yul\":1091:1168   */\n    tag_51:\n        /* \"#utility.yul\":1128:1135   */\n      0x00\n        /* \"#utility.yul\":1157:1162   */\n      dup2\n        /* \"#utility.yul\":1146:1162   */\n      swap1\n      pop\n        /* \"#utility.yul\":1091:1168   */\n      swap2\n      swap1\n      pop\n      jump\t// out\n        /* \"#utility.yul\":1174:1292   */\n    tag_52:\n        /* \"#utility.yul\":1261:1285   */\n      tag_80\n        /* \"#utility.yul\":1279:1284   */\n      dup2\n        /* \"#utility.yul\":1261:1285   */\n      tag_51\n      jump\t// in\n    tag_80:\n        /* \"#utility.yul\":1256:1259   */\n      dup3\n        /* \"#utility.yul\":1249:1286   */\n      mstore\n        /* \"#utility.yul\":1174:1292   */\n      pop\n      pop\n      jump\t// out\n        /* \"#utility.yul\":1298:1520   */\n    tag_10:\n        /* \"#utility.yul\":1391:1395   */\n      0x00\n        /* \"#utility.yul\":1429:1431   */\n      0x20\n        /* \"#utility.yul\":1418:1427   */\n      dup3\n        /* \"#utility.yul\":1414:1432   */\n      add\n        /* \"#utility.yul\":1406:1432   */\n      swap1\n      pop\n        /* \"#utility.yul\":1442:1513   */\n      tag_82\n        /* \"#utility.yul\":1510:1511   */\n      0x00\n        /* \"#utility.yul\":1499:1508   */\n      dup4\n        /* \"#utility.yul\":1495:1512   */\n      add\n        /* \"#utility.yul\":1486:1492   */\n      dup5\n        /* \"#utility.yul\":1442:1513   */\n      tag_52\n      jump\t// in\n    tag_82:\n        /* \"#utility.yul\":1298:1520   */\n      swap3\n      swap2\n      pop\n      pop\n      jump\t// out\n        /* \"#utility.yul\":1526:1643   */\n    tag_53:\n        /* \"#utility.yul\":1635:1636   */\n      0x00\n        /* \"#utility.yul\":1632:1633   */\n      0x00\n        /* \"#utility.yul\":1625:1637   */\n      revert\n        /* \"#utility.yul\":1649:1766   */\n    tag_54:\n        /* \"#utility.yul\":1758:1759   */\n      0x00\n        /* \"#utility.yul\":1755:1756   */\n      0x00\n        /* \"#utility.yul\":1748:1760   */\n      revert\n        /* \"#utility.yul\":1772:1874   */\n    tag_55:\n        /* \"#utility.yul\":1813:1819   */\n      0x00\n        /* \"#utility.yul\":1864:1866   */\n      0x1f\n        /* \"#utility.yul\":1860:1867   */\n      not\n        /* \"#utility.yul\":1855:1857   */\n      0x1f\n        /* \"#utility.yul\":1848:1853   */\n      dup4\n        /* \"#utility.yul\":1844:1858   */\n      add\n        /* \"#utility.yul\":1840:1868   */\n      and\n        /* \"#utility.yul\":1830:1868   */\n      swap1\n      pop\n        /* \"#utility.yul\":1772:1874   */\n      swap2\n      swap1\n      pop\n      jump\t// out\n        /* \"#utility.yul\":1880:2060   */\n    tag_56:\n        /* \"#utility.yul\":1928:2005   */\n      0x4e487b7100000000000000000000000000000000000000000000000000000000\n        /* \"#utility.yul\":1925:1926   */\n      0x00\n        /* \"#utility.yul\":1918:2006   */\n      mstore\n        /* \"#utility.yul\":2025:2029   */\n      0x41\n        /* \"#utility.yul\":2022:2023   */\n      0x04\n        /* \"#utility.yul\":2015:2030   */\n      mstore\n        /* \"#utility.yul\":2049:2053   */\n      0x24\n        /* \"#utility.yul\":2046:2047   */\n      0x00\n        /* \"#utility.yul\":2039:2054   */\n      revert\n        /* \"#utility.yul\":2066:2347   */\n    tag_57:\n        /* \"#utility.yul\":2149:2176   */\n      tag_88\n        /* \"#utility.yul\":2171:2175   */\n      dup3\n        /* \"#utility.yul\":2149:2176   */\n      tag_55\n      jump\t// in\n    tag_88:\n        /* \"#utility.yul\":2141:2147   */\n      dup2\n        /* \"#utility.yul\":2137:2177   */\n      add\n        /* \"#utility.yul\":2279:2285   */\n      dup2\n        /* \"#utility.yul\":2267:2277   */\n      dup2\n        /* \"#utility.yul\":2264:2286   */\n      lt\n        /* \"#utility.yul\":2243:2261   */\n      0xffffffffffffffff\n        /* \"#utility.yul\":2231:2241   */\n      dup3\n        /* \"#utility.yul\":2228:2262   */\n      gt\n        /* \"#utility.yul\":2225:2287   */\n      or\n        /* \"#utility.yul\":2222:2310   */\n      iszero\n      tag_89\n      jumpi\n        /* \"#utility.yul\":2290:2308   */\n      tag_90\n      tag_56\n      jump\t// in\n    tag_90:\n        /* \"#utility.yul\":2222:2310   */\n    tag_89:\n        /* \"#utility.yul\":2330:2340   */\n      dup1\n        /* \"#utility.yul\":2326:2328   */\n      0x40\n        /* \"#utility.yul\":2319:2341   */\n      mstore\n        /* \"#utility.yul\":2109:2347   */\n      pop\n        /* \"#utility.yul\":2066:2347   */\n      pop\n      pop\n      jump\t// out\n        /* \"#utility.yul\":2353:2482   */\n    tag_58:\n        /* \"#utility.yul\":2387:2393   */\n      0x00\n        /* \"#utility.yul\":2414:2434   */\n      tag_92\n      tag_45\n      jump\t// in\n    tag_92:\n        /* \"#utility.yul\":2404:2434   */\n      swap1\n      pop\n        /* \"#utility.yul\":2443:2476   */\n      tag_93\n        /* \"#utility.yul\":2471:2475   */\n      dup3\n        /* \"#utility.yul\":2463:2469   */\n      dup3\n        /* \"#utility.yul\":2443:2476   */\n      tag_57\n      jump\t// in\n    tag_93:\n        /* \"#utility.yul\":2353:2482   */\n      swap2\n      swap1\n      pop\n      jump\t// out\n        /* \"#utility.yul\":2488:2796   */\n    tag_59:\n        /* \"#utility.yul\":2550:2554   */\n      0x00\n        /* \"#utility.yul\":2640:2658   */\n      0xffffffffffffffff\n        /* \"#utility.yul\":2632:2638   */\n      dup3\n        /* \"#utility.yul\":2629:2659   */\n      gt\n        /* \"#utility.yul\":2626:2682   */\n      iszero\n      tag_95\n      jumpi\n        /* \"#utility.yul\":2662:2680   */\n      tag_96\n      tag_56\n      jump\t// in\n    tag_96:\n        /* \"#utility.yul\":2626:2682   */\n    tag_95:\n        /* \"#utility.yul\":2700:2729   */\n      tag_97\n        /* \"#utility.yul\":2722:2728   */\n      dup3\n        /* \"#utility.yul\":2700:2729   */\n      tag_55\n      jump\t// in\n    tag_97:\n        /* \"#utility.yul\":2692:2729   */\n      swap1\n      pop\n        /* \"#utility.yul\":2784:2788   */\n      0x20\n        /* \"#utility.yul\":2778:2782   */\n      dup2\n        /* \"#utility.yul\":2774:2789   */\n      add\n        /* \"#utility.yul\":2766:2789   */\n      swap1\n      pop\n        /* \"#utility.yul\":2488:2796   */\n      swap2\n      swap1\n      pop\n      jump\t// out\n        /* \"#utility.yul\":2802:2950   */\n    tag_60:\n        /* \"#utility.yul\":2900:2906   */\n      dup3\n        /* \"#utility.yul\":2895:2898   */\n      dup2\n        /* \"#utility.yul\":2890:2893   */\n      dup4\n        /* \"#utility.yul\":2877:2907   */\n      calldatacopy\n        /* \"#utility.yul\":2941:2942   */\n      0x00\n        /* \"#utility.yul\":2932:2938   */\n      dup4\n        /* \"#utility.yul\":2927:2930   */\n      dup4\n        /* \"#utility.yul\":2923:2939   */\n      add\n        /* \"#utility.yul\":2916:2943   */\n      mstore\n        /* \"#utility.yul\":2802:2950   */\n      pop\n      pop\n      pop\n      jump\t// out\n        /* \"#utility.yul\":2956:3381   */\n    tag_61:\n        /* \"#utility.yul\":3034:3039   */\n      0x00\n        /* \"#utility.yul\":3059:3125   */\n      tag_100\n        /* \"#utility.yul\":3075:3124   */\n      tag_101\n        /* \"#utility.yul\":3117:3123   */\n      dup5\n        /* \"#utility.yul\":3075:3124   */\n      tag_59\n      jump\t// in\n    tag_101:\n        /* \"#utility.yul\":3059:3125   */\n      tag_58\n      jump\t// in\n    tag_100:\n        /* \"#utility.yul\":3050:3125   */\n      swap1\n      pop\n        /* \"#utility.yul\":3148:3154   */\n      dup3\n        /* \"#utility.yul\":3141:3146   */\n      dup2\n        /* \"#utility.yul\":3134:3155   */\n      mstore\n        /* \"#utility.yul\":3186:3190   */\n      0x20\n        /* \"#utility.yul\":3179:3184   */\n      dup2\n        /* \"#utility.yul\":3175:3191   */\n      add\n        /* \"#utility.yul\":3224:3227   */\n      dup5\n        /* \"#utility.yul\":3215:3221   */\n      dup5\n        /* \"#utility.yul\":3210:3213   */\n      dup5\n        /* \"#utility.yul\":3206:3222   */\n      add\n        /* \"#utility.yul\":3203:3228   */\n      gt\n        /* \"#utility.yul\":3200:3312   */\n      iszero\n      tag_102\n      jumpi\n        /* \"#utility.yul\":3231:3310   */\n      tag_103\n      tag_54\n      jump\t// in\n    tag_103:\n        /* \"#utility.yul\":3200:3312   */\n    tag_102:\n        /* \"#utility.yul\":3321:3375   */\n      tag_104\n        /* \"#utility.yul\":3368:3374   */\n      dup5\n        /* \"#utility.yul\":3363:3366   */\n      dup3\n        /* \"#utility.yul\":3358:3361   */\n      dup6\n        /* \"#utility.yul\":3321:3375   */\n      tag_60\n      jump\t// in\n    tag_104:\n        /* \"#utility.yul\":3040:3381   */\n      pop\n        /* \"#utility.yul\":2956:3381   */\n      swap4\n      swap3\n      pop\n      pop\n      pop\n      jump\t// out\n        /* \"#utility.yul\":3401:3741   */\n    tag_62:\n        /* \"#utility.yul\":3457:3462   */\n      0x00\n        /* \"#utility.yul\":3506:3509   */\n      dup3\n        /* \"#utility.yul\":3499:3503   */\n      0x1f\n        /* \"#utility.yul\":3491:3497   */\n      dup4\n        /* \"#utility.yul\":3487:3504   */\n      add\n        /* \"#utility.yul\":3483:3510   */\n      slt\n        /* \"#utility.yul\":3473:3595   */\n      tag_106\n      jumpi\n        /* \"#utility.yul\":3514:3593   */\n      tag_107\n      tag_53\n      jump\t// in\n    tag_107:\n        /* \"#utility.yul\":3473:3595   */\n    tag_106:\n        /* \"#utility.yul\":3631:3637   */\n      dup2\n        /* \"#utility.yul\":3618:3638   */\n      calldataload\n        /* \"#utility.yul\":3656:3735   */\n      tag_108\n        /* \"#utility.yul\":3731:3734   */\n      dup5\n        /* \"#utility.yul\":3723:3729   */\n      dup3\n        /* \"#utility.yul\":3716:3720   */\n      0x20\n        /* \"#utility.yul\":3708:3714   */\n      dup7\n        /* \"#utility.yul\":3704:3721   */\n      add\n        /* \"#utility.yul\":3656:3735   */\n      tag_61\n      jump\t// in\n    tag_108:\n        /* \"#utility.yul\":3647:3735   */\n      swap2\n      pop\n        /* \"#utility.yul\":3463:3741   */\n      pop\n        /* \"#utility.yul\":3401:3741   */\n      swap3\n      swap2\n      pop\n      pop\n      jump\t// out\n        /* \"#utility.yul\":3747:4256   */\n    tag_13:\n        /* \"#utility.yul\":3816:3822   */\n      0x00\n        /* \"#utility.yul\":3865:3867   */\n      0x20\n        /* \"#utility.yul\":3853:3862   */\n      dup3\n        /* \"#utility.yul\":3844:3851   */\n      dup5\n        /* \"#utility.yul\":3840:3863   */\n      sub\n        /* \"#utility.yul\":3836:3868   */\n      slt\n        /* \"#utility.yul\":3833:3952   */\n      iszero\n      tag_110\n      jumpi\n        /* \"#utility.yul\":3871:3950   */\n      tag_111\n      tag_46\n      jump\t// in\n    tag_111:\n        /* \"#utility.yul\":3833:3952   */\n    tag_110:\n        /* \"#utility.yul\":4019:4020   */\n      0x00\n        /* \"#utility.yul\":4008:4017   */\n      dup3\n        /* \"#utility.yul\":4004:4021   */\n      add\n        /* \"#utility.yul\":3991:4022   */\n      calldataload\n        /* \"#utility.yul\":4049:4067   */\n      0xffffffffffffffff\n        /* \"#utility.yul\":4041:4047   */\n      dup2\n        /* \"#utility.yul\":4038:4068   */\n      gt\n        /* \"#utility.yul\":4035:4152   */\n      iszero\n      tag_112\n      jumpi\n        /* \"#utility.yul\":4071:4150   */\n      tag_113\n      tag_47\n      jump\t// in\n    tag_113:\n        /* \"#utility.yul\":4035:4152   */\n    tag_112:\n        /* \"#utility.yul\":4176:4239   */\n      tag_114\n        /* \"#utility.yul\":4231:4238   */\n      dup5\n        /* \"#utility.yul\":4222:4228   */\n      dup3\n        /* \"#utility.yul\":4211:4220   */\n      dup6\n        /* \"#utility.yul\":4207:4229   */\n      add\n        /* \"#utility.yul\":4176:4239   */\n      tag_62\n      jump\t// in\n    tag_114:\n        /* \"#utility.yul\":4166:4239   */\n      swap2\n      pop\n        /* \"#utility.yul\":3962:4249   */\n      pop\n        /* \"#utility.yul\":3747:4256   */\n      swap3\n      swap2\n      pop\n      pop\n      jump\t// out\n        /* \"#utility.yul\":4262:4442   */\n    tag_63:\n        /* \"#utility.yul\":4310:4387   */\n      0x4e487b7100000000000000000000000000000000000000000000000000000000\n        /* \"#utility.yul\":4307:4308   */\n      0x00\n        /* \"#utility.yul\":4300:4388   */\n      mstore\n        /* \"#utility.yul\":4407:4411   */\n      0x11\n        /* \"#utility.yul\":4404:4405   */\n      0x04\n        /* \"#utility.yul\":4397:4412   */\n      mstore\n        /* \"#utility.yul\":4431:4435   */\n      0x24\n        /* \"#utility.yul\":4428:4429   */\n      0x00\n        /* \"#utility.yul\":4421:4436   */\n      revert\n        /* \"#utility.yul\":4448:4642   */\n    tag_21:\n        /* \"#utility.yul\":4488:4492   */\n      0x00\n        /* \"#utility.yul\":4508:4528   */\n      tag_117\n        /* \"#utility.yul\":4526:4527   */\n      dup3\n        /* \"#utility.yul\":4508:4528   */\n      tag_51\n      jump\t// in\n    tag_117:\n        /* \"#utility.yul\":4503:4528   */\n      swap2\n      pop\n        /* \"#utility.yul\":4542:4562   */\n      tag_118\n        /* \"#utility.yul\":4560:4561   */\n      dup4\n        /* \"#utility.yul\":4542:4562   */\n      tag_51\n      jump\t// in\n    tag_118:\n        /* \"#utility.yul\":4537:4562   */\n      swap3\n      pop\n        /* \"#utility.yul\":4586:4587   */\n      dup3\n        /* \"#utility.yul\":4583:4584   */\n      dup3\n        /* \"#utility.yul\":4579:4588   */\n      sub\n        /* \"#utility.yul\":4571:4588   */\n      swap1\n      pop\n        /* \"#utility.yul\":4610:4611   */\n      dup2\n        /* \"#utility.yul\":4604:4608   */\n      dup2\n        /* \"#utility.yul\":4601:4612   */\n      gt\n        /* \"#utility.yul\":4598:4635   */\n      iszero\n      tag_119\n      jumpi\n        /* \"#utility.yul\":4615:4633   */\n      tag_120\n      tag_63\n      jump\t// in\n    tag_120:\n        /* \"#utility.yul\":4598:4635   */\n    tag_119:\n        /* \"#utility.yul\":4448:4642   */\n      swap3\n      swap2\n      pop\n      pop\n      jump\t// out\n        /* \"#utility.yul\":4648:4839   */\n    tag_24:\n        /* \"#utility.yul\":4688:4691   */\n      0x00\n        /* \"#utility.yul\":4707:4727   */\n      tag_122\n        /* \"#utility.yul\":4725:4726   */\n      dup3\n        /* \"#utility.yul\":4707:4727   */\n      tag_51\n      jump\t// in\n    tag_122:\n        /* \"#utility.yul\":4702:4727   */\n      swap2\n      pop\n        /* \"#utility.yul\":4741:4761   */\n      tag_123\n        /* \"#utility.yul\":4759:4760   */\n      dup4\n        /* \"#utility.yul\":4741:4761   */\n      tag_51\n      jump\t// in\n    tag_123:\n        /* \"#utility.yul\":4736:4761   */\n      swap3\n      pop\n        /* \"#utility.yul\":4784:4785   */\n      dup3\n        /* \"#utility.yul\":4781:4782   */\n      dup3\n        /* \"#utility.yul\":4777:4786   */\n      add\n        /* \"#utility.yul\":4770:4786   */\n      swap1\n      pop\n        /* \"#utility.yul\":4805:4808   */\n      dup1\n        /* \"#utility.yul\":4802:4803   */\n      dup3\n        /* \"#utility.yul\":4799:4809   */\n      gt\n        /* \"#utility.yul\":4796:4832   */\n      iszero\n      tag_124\n      jumpi\n        /* \"#utility.yul\":4812:4830   */\n      tag_125\n      tag_63\n      jump\t// in\n    tag_125:\n        /* \"#utility.yul\":4796:4832   */\n    tag_124:\n        /* \"#utility.yul\":4648:4839   */\n      swap3\n      swap2\n      pop\n      pop\n      jump\t// out\n        /* \"#utility.yul\":4845:5025   */\n    tag_27:\n        /* \"#utility.yul\":4893:4970   */\n      0x4e487b7100000000000000000000000000000000000000000000000000000000\n        /* \"#utility.yul\":4890:4891   */\n      0x00\n        /* \"#utility.yul\":4883:4971   */\n      mstore\n        /* \"#utility.yul\":4990:4994   */\n      0x32\n        /* \"#utility.yul\":4987:4988   */\n      0x04\n        /* \"#utility.yul\":4980:4995   */\n      mstore\n        /* \"#utility.yul\":5014:5018   */\n      0x24\n        /* \"#utility.yul\":5011:5012   */\n      0x00\n        /* \"#utility.yul\":5004:5019   */\n      revert\n        /* \"#utility.yul\":5031:5264   */\n    tag_39:\n        /* \"#utility.yul\":5070:5073   */\n      0x00\n        /* \"#utility.yul\":5093:5117   */\n      tag_128\n        /* \"#utility.yul\":5111:5116   */\n      dup3\n        /* \"#utility.yul\":5093:5117   */\n      tag_51\n      jump\t// in\n    tag_128:\n        /* \"#utility.yul\":5084:5117   */\n      swap2\n      pop\n        /* \"#utility.yul\":5139:5205   */\n      0xffffffffffffffffffffffffffffffffffffffffffffffffffffffffffffffff\n        /* \"#utility.yul\":5132:5137   */\n      dup3\n        /* \"#utility.yul\":5129:5206   */\n      sub\n        /* \"#utility.yul\":5126:5229   */\n      tag_129\n      jumpi\n        /* \"#utility.yul\":5209:5227   */\n      tag_130\n      tag_63\n      jump\t// in\n    tag_130:\n        /* \"#utility.yul\":5126:5229   */\n    tag_129:\n        /* \"#utility.yul\":5256:5257   */\n      0x01\n        /* \"#utility.yul\":5249:5254   */\n      dup3\n        /* \"#utility.yul\":5245:5258   */\n      add\n        /* \"#utility.yul\":5238:5258   */\n      swap1\n      pop\n        /* \"#utility.yul\":5031:5264   */\n      swap2\n      swap1\n      pop\n      jump\t// out\n\n    auxdata: 0xa264697066735822122041f0225e589f65cf8c5f5ca12de8bc6e08350da755c784f1cad1f3163393d3c464736f6c634300081e0033\n}\n",
				"bytecode": {
					"linkReferences": {},
					"object": "6080604052348015600e575f5ffd5b50610a608061001c5f395ff3fe608060405234801561000f575f5ffd5b5060043610610034575f3560e01c80638f07f78014610038578063cb159dfe14610068575b5f5ffd5b610052600480360381019061004d9190610744565b610098565b60405161005f9190610787565b60405180910390f35b610082600480360381019061007d91906108dc565b6100ac565b60405161008f9190610787565b60405180910390f35b5f602052805f5260405f205f915090505481565b5f60015f5f7f49000000000000000000000000000000000000000000000000000000000000007effffffffffffffffffffffffffffffffffffffffffffffffffffffffffffff19167effffffffffffffffffffffffffffffffffffffffffffffffffffffffffffff191681526020019081526020015f208190555060055f5f7f56000000000000000000000000000000000000000000000000000000000000007effffffffffffffffffffffffffffffffffffffffffffffffffffffffffffff19167effffffffffffffffffffffffffffffffffffffffffffffffffffffffffffff191681526020019081526020015f2081905550600a5f5f7f58000000000000000000000000000000000000000000000000000000000000007effffffffffffffffffffffffffffffffffffffffffffffffffffffffffffff19167effffffffffffffffffffffffffffffffffffffffffffffffffffffffffffff191681526020019081526020015f208190555060325f5f7f4c000000000000000000000000000000000000000000000000000000000000007effffffffffffffffffffffffffffffffffffffffffffffffffffffffffffff19167effffffffffffffffffffffffffffffffffffffffffffffffffffffffffffff191681526020019081526020015f208190555060645f5f7f43000000000000000000000000000000000000000000000000000000000000007effffffffffffffffffffffffffffffffffffffffffffffffffffffffffffff19167effffffffffffffffffffffffffffffffffffffffffffffffffffffffffffff191681526020019081526020015f20819055506101f45f5f7f44000000000000000000000000000000000000000000000000000000000000007effffffffffffffffffffffffffffffffffffffffffffffffffffffffffffff19167effffffffffffffffffffffffffffffffffffffffffffffffffffffffffffff191681526020019081526020015f20819055506103e85f5f7f4d000000000000000000000000000000000000000000000000000000000000007effffffffffffffffffffffffffffffffffffffffffffffffffffffffffffff19167effffffffffffffffffffffffffffffffffffffffffffffffffffffffffffff191681526020019081526020015f20819055505f5f8390505f5f90505b81518110156106d357600182516104269190610950565b8110801561052157505f5f8360018461043f9190610983565b815181106104505761044f6109b6565b5b602001015160f81c60f81b7effffffffffffffffffffffffffffffffffffffffffffffffffffffffffffff19167effffffffffffffffffffffffffffffffffffffffffffffffffffffffffffff191681526020019081526020015f20545f5f8484815181106104c2576104c16109b6565b5b602001015160f81c60f81b7effffffffffffffffffffffffffffffffffffffffffffffffffffffffffffff19167effffffffffffffffffffffffffffffffffffffffffffffffffffffffffffff191681526020019081526020015f2054105b15610640575f5f83838151811061053b5761053a6109b6565b5b602001015160f81c60f81b7effffffffffffffffffffffffffffffffffffffffffffffffffffffffffffff19167effffffffffffffffffffffffffffffffffffffffffffffffffffffffffffff191681526020019081526020015f20545f5f846001856105a89190610983565b815181106105b9576105b86109b6565b5b602001015160f81c60f81b7effffffffffffffffffffffffffffffffffffffffffffffffffffffffffffff19167effffffffffffffffffffffffffffffffffffffffffffffffffffffffffffff191681526020019081526020015f2054846106219190610983565b61062b9190610950565b92508080610638906109e3565b9150506106c0565b5f5f838381518110610655576106546109b6565b5b602001015160f81c60f81b7effffffffffffffffffffffffffffffffffffffffffffffffffffffffffffff19167effffffffffffffffffffffffffffffffffffffffffffffffffffffffffffff191681526020019081526020015f2054836106bd9190610983565b92505b80806106cb906109e3565b91505061040f565b508192505050919050565b5f604051905090565b5f5ffd5b5f5ffd5b5f7fff0000000000000000000000000000000000000000000000000000000000000082169050919050565b610723816106ef565b811461072d575f5ffd5b50565b5f8135905061073e8161071a565b92915050565b5f60208284031215610759576107586106e7565b5b5f61076684828501610730565b91505092915050565b5f819050919050565b6107818161076f565b82525050565b5f60208201905061079a5f830184610778565b92915050565b5f5ffd5b5f5ffd5b5f601f19601f8301169050919050565b7f4e487b71000000000000000000000000000000000000000000000000000000005f52604160045260245ffd5b6107ee826107a8565b810181811067ffffffffffffffff8211171561080d5761080c6107b8565b5b80604052505050565b5f61081f6106de565b905061082b82826107e5565b919050565b5f67ffffffffffffffff82111561084a576108496107b8565b5b610853826107a8565b9050602081019050919050565b828183375f83830152505050565b5f61088061087b84610830565b610816565b90508281526020810184848401111561089c5761089b6107a4565b5b6108a7848285610860565b509392505050565b5f82601f8301126108c3576108c26107a0565b5b81356108d384826020860161086e565b91505092915050565b5f602082840312156108f1576108f06106e7565b5b5f82013567ffffffffffffffff81111561090e5761090d6106eb565b5b61091a848285016108af565b91505092915050565b7f4e487b71000000000000000000000000000000000000000000000000000000005f52601160045260245ffd5b5f61095a8261076f565b91506109658361076f565b925082820390508181111561097d5761097c610923565b5b92915050565b5f61098d8261076f565b91506109988361076f565b92508282019050808211156109b0576109af610923565b5b92915050565b7f4e487b71000000000000000000000000000000000000000000000000000000005f52603260045260245ffd5b5f6109ed8261076f565b91507fffffffffffffffffffffffffffffffffffffffffffffffffffffffffffffffff8203610a1f57610a1e610923565b5b60018201905091905056fea264697066735822122041f0225e589f65cf8c5f5ca12de8bc6e08350da755c784f1cad1f3163393d3c464736f6c634300081e0033",
					"opcodes": "PUSH1 0x80 PUSH1 0x40 MSTORE CALLVALUE DUP1 ISZERO PUSH1 0xE JUMPI PUSH0 PUSH0 REVERT JUMPDEST POP PUSH2 0xA60 DUP1 PUSH2 0x1C PUSH0 CODECOPY PUSH0 RETURN INVALID PUSH1 0x80 PUSH1 0x40 MSTORE CALLVALUE DUP1 ISZERO PUSH2 0xF JUMPI PUSH0 PUSH0 REVERT JUMPDEST POP PUSH1 0x4 CALLDATASIZE LT PUSH2 0x34 JUMPI PUSH0 CALLDATALOAD PUSH1 0xE0 SHR DUP1 PUSH4 0x8F07F780 EQ PUSH2 0x38 JUMPI DUP1 PUSH4 0xCB159DFE EQ PUSH2 0x68 JUMPI JUMPDEST PUSH0 PUSH0 REVERT JUMPDEST PUSH2 0x52 PUSH1 0x4 DUP1 CALLDATASIZE SUB DUP2 ADD SWAP1 PUSH2 0x4D SWAP2 SWAP1 PUSH2 0x744 JUMP JUMPDEST PUSH2 0x98 JUMP JUMPDEST PUSH1 0x40 MLOAD PUSH2 0x5F SWAP2 SWAP1 PUSH2 0x787 JUMP JUMPDEST PUSH1 0x40 MLOAD DUP1 SWAP2 SUB SWAP1 RETURN JUMPDEST PUSH2 0x82 PUSH1 0x4 DUP1 CALLDATASIZE SUB DUP2 ADD SWAP1 PUSH2 0x7D SWAP2 SWAP1 PUSH2 0x8DC JUMP JUMPDEST PUSH2 0xAC JUMP JUMPDEST PUSH1 0x40 MLOAD PUSH2 0x8F SWAP2 SWAP1 PUSH2 0x787 JUMP JUMPDEST PUSH1 0x40 MLOAD DUP1 SWAP2 SUB SWAP1 RETURN JUMPDEST PUSH0 PUSH1 0x20 MSTORE DUP1 PUSH0 MSTORE PUSH1 0x40 PUSH0 KECCAK256 PUSH0 SWAP2 POP SWAP1 POP SLOAD DUP2 JUMP JUMPDEST PUSH0 PUSH1 0x1 PUSH0 PUSH0 PUSH32 0x4900000000000000000000000000000000000000000000000000000000000000 PUSH31 0xFFFFFFFFFFFFFFFFFFFFFFFFFFFFFFFFFFFFFFFFFFFFFFFFFFFFFFFFFFFFFF NOT AND PUSH31 0xFFFFFFFFFFFFFFFFFFFFFFFFFFFFFFFFFFFFFFFFFFFFFFFFFFFFFFFFFFFFFF NOT AND DUP2 MSTORE PUSH1 0x20 ADD SWAP1 DUP2 MSTORE PUSH1 0x20 ADD PUSH0 KECCAK256 DUP2 SWAP1 SSTORE POP PUSH1 0x5 PUSH0 PUSH0 PUSH32 0x5600000000000000000000000000000000000000000000000000000000000000 PUSH31 0xFFFFFFFFFFFFFFFFFFFFFFFFFFFFFFFFFFFFFFFFFFFFFFFFFFFFFFFFFFFFFF NOT AND PUSH31 0xFFFFFFFFFFFFFFFFFFFFFFFFFFFFFFFFFFFFFFFFFFFFFFFFFFFFFFFFFFFFFF NOT AND DUP2 MSTORE PUSH1 0x20 ADD SWAP1 DUP2 MSTORE PUSH1 0x20 ADD PUSH0 KECCAK256 DUP2 SWAP1 SSTORE POP PUSH1 0xA PUSH0 PUSH0 PUSH32 0x5800000000000000000000000000000000000000000000000000000000000000 PUSH31 0xFFFFFFFFFFFFFFFFFFFFFFFFFFFFFFFFFFFFFFFFFFFFFFFFFFFFFFFFFFFFFF NOT AND PUSH31 0xFFFFFFFFFFFFFFFFFFFFFFFFFFFFFFFFFFFFFFFFFFFFFFFFFFFFFFFFFFFFFF NOT AND DUP2 MSTORE PUSH1 0x20 ADD SWAP1 DUP2 MSTORE PUSH1 0x20 ADD PUSH0 KECCAK256 DUP2 SWAP1 SSTORE POP PUSH1 0x32 PUSH0 PUSH0 PUSH32 0x4C00000000000000000000000000000000000000000000000000000000000000 PUSH31 0xFFFFFFFFFFFFFFFFFFFFFFFFFFFFFFFFFFFFFFFFFFFFFFFFFFFFFFFFFFFFFF NOT AND PUSH31 0xFFFFFFFFFFFFFFFFFFFFFFFFFFFFFFFFFFFFFFFFFFFFFFFFFFFFFFFFFFFFFF NOT AND DUP2 MSTORE PUSH1 0x20 ADD SWAP1 DUP2 MSTORE PUSH1 0x20 ADD PUSH0 KECCAK256 DUP2 SWAP1 SSTORE POP PUSH1 0x64 PUSH0 PUSH0 PUSH32 0x4300000000000000000000000000000000000000000000000000000000000000 PUSH31 0xFFFFFFFFFFFFFFFFFFFFFFFFFFFFFFFFFFFFFFFFFFFFFFFFFFFFFFFFFFFFFF NOT AND PUSH31 0xFFFFFFFFFFFFFFFFFFFFFFFFFFFFFFFFFFFFFFFFFFFFFFFFFFFFFFFFFFFFFF NOT AND DUP2 MSTORE PUSH1 0x20 ADD SWAP1 DUP2 MSTORE PUSH1 0x20 ADD PUSH0 KECCAK256 DUP2 SWAP1 SSTORE POP PUSH2 0x1F4 PUSH0 PUSH0 PUSH32 0x4400000000000000000000000000000000000000000000000000000000000000 PUSH31 0xFFFFFFFFFFFFFFFFFFFFFFFFFFFFFFFFFFFFFFFFFFFFFFFFFFFFFFFFFFFFFF NOT AND PUSH31 0xFFFFFFFFFFFFFFFFFFFFFFFFFFFFFFFFFFFFFFFFFFFFFFFFFFFFFFFFFFFFFF NOT AND DUP2 MSTORE PUSH1 0x20 ADD SWAP1 DUP2 MSTORE PUSH1 0x20 ADD PUSH0 KECCAK256 DUP2 SWAP1 SSTORE POP PUSH2 0x3E8 PUSH0 PUSH0 PUSH32 0x4D00000000000000000000000000000000000000000000000000000000000000 PUSH31 0xFFFFFFFFFFFFFFFFFFFFFFFFFFFFFFFFFFFFFFFFFFFFFFFFFFFFFFFFFFFFFF NOT AND PUSH31 0xFFFFFFFFFFFFFFFFFFFFFFFFFFFFFFFFFFFFFFFFFFFFFFFFFFFFFFFFFFFFFF NOT AND DUP2 MSTORE PUSH1 0x20 ADD SWAP1 DUP2 MSTORE PUSH1 0x20 ADD PUSH0 KECCAK256 DUP2 SWAP1 SSTORE POP PUSH0 PUSH0 DUP4 SWAP1 POP PUSH0 PUSH0 SWAP1 POP JUMPDEST DUP2 MLOAD DUP2 LT ISZERO PUSH2 0x6D3 JUMPI PUSH1 0x1 DUP3 MLOAD PUSH2 0x426 SWAP2 SWAP1 PUSH2 0x950 JUMP JUMPDEST DUP2 LT DUP1 ISZERO PUSH2 0x521 JUMPI POP PUSH0 PUSH0 DUP4 PUSH1 0x1 DUP5 PUSH2 0x43F SWAP2 SWAP1 PUSH2 0x983 JUMP JUMPDEST DUP2 MLOAD DUP2 LT PUSH2 0x450 JUMPI PUSH2 0x44F PUSH2 0x9B6 JUMP JUMPDEST JUMPDEST PUSH1 0x20 ADD ADD MLOAD PUSH1 0xF8 SHR PUSH1 0xF8 SHL PUSH31 0xFFFFFFFFFFFFFFFFFFFFFFFFFFFFFFFFFFFFFFFFFFFFFFFFFFFFFFFFFFFFFF NOT AND PUSH31 0xFFFFFFFFFFFFFFFFFFFFFFFFFFFFFFFFFFFFFFFFFFFFFFFFFFFFFFFFFFFFFF NOT AND DUP2 MSTORE PUSH1 0x20 ADD SWAP1 DUP2 MSTORE PUSH1 0x20 ADD PUSH0 KECCAK256 SLOAD PUSH0 PUSH0 DUP5 DUP5 DUP2 MLOAD DUP2 LT PUSH2 0x4C2 JUMPI PUSH2 0x4C1 PUSH2 0x9B6 JUMP JUMPDEST JUMPDEST PUSH1 0x20 ADD ADD MLOAD PUSH1 0xF8 SHR PUSH1 0xF8 SHL PUSH31 0xFFFFFFFFFFFFFFFFFFFFFFFFFFFFFFFFFFFFFFFFFFFFFFFFFFFFFFFFFFFFFF NOT AND PUSH31 0xFFFFFFFFFFFFFFFFFFFFFFFFFFFFFFFFFFFFFFFFFFFFFFFFFFFFFFFFFFFFFF NOT AND DUP2 MSTORE PUSH1 0x20 ADD SWAP1 DUP2 MSTORE PUSH1 0x20 ADD PUSH0 KECCAK256 SLOAD LT JUMPDEST ISZERO PUSH2 0x640 JUMPI PUSH0 PUSH0 DUP4 DUP4 DUP2 MLOAD DUP2 LT PUSH2 0x53B JUMPI PUSH2 0x53A PUSH2 0x9B6 JUMP JUMPDEST JUMPDEST PUSH1 0x20 ADD ADD MLOAD PUSH1 0xF8 SHR PUSH1 0xF8 SHL PUSH31 0xFFFFFFFFFFFFFFFFFFFFFFFFFFFFFFFFFFFFFFFFFFFFFFFFFFFFFFFFFFFFFF NOT AND PUSH31 0xFFFFFFFFFFFFFFFFFFFFFFFFFFFFFFFFFFFFFFFFFFFFFFFFFFFFFFFFFFFFFF NOT AND DUP2 MSTORE PUSH1 0x20 ADD SWAP1 DUP2 MSTORE PUSH1 0x20 ADD PUSH0 KECCAK256 SLOAD PUSH0 PUSH0 DUP5 PUSH1 0x1 DUP6 PUSH2 0x5A8 SWAP2 SWAP1 PUSH2 0x983 JUMP JUMPDEST DUP2 MLOAD DUP2 LT PUSH2 0x5B9 JUMPI PUSH2 0x5B8 PUSH2 0x9B6 JUMP JUMPDEST JUMPDEST PUSH1 0x20 ADD ADD MLOAD PUSH1 0xF8 SHR PUSH1 0xF8 SHL PUSH31 0xFFFFFFFFFFFFFFFFFFFFFFFFFFFFFFFFFFFFFFFFFFFFFFFFFFFFFFFFFFFFFF NOT AND PUSH31 0xFFFFFFFFFFFFFFFFFFFFFFFFFFFFFFFFFFFFFFFFFFFFFFFFFFFFFFFFFFFFFF NOT AND DUP2 MSTORE PUSH1 0x20 ADD SWAP1 DUP2 MSTORE PUSH1 0x20 ADD PUSH0 KECCAK256 SLOAD DUP5 PUSH2 0x621 SWAP2 SWAP1 PUSH2 0x983 JUMP JUMPDEST PUSH2 0x62B SWAP2 SWAP1 PUSH2 0x950 JUMP JUMPDEST SWAP3 POP DUP1 DUP1 PUSH2 0x638 SWAP1 PUSH2 0x9E3 JUMP JUMPDEST SWAP2 POP POP PUSH2 0x6C0 JUMP JUMPDEST PUSH0 PUSH0 DUP4 DUP4 DUP2 MLOAD DUP2 LT PUSH2 0x655 JUMPI PUSH2 0x654 PUSH2 0x9B6 JUMP JUMPDEST JUMPDEST PUSH1 0x20 ADD ADD MLOAD PUSH1 0xF8 SHR PUSH1 0xF8 SHL PUSH31 0xFFFFFFFFFFFFFFFFFFFFFFFFFFFFFFFFFFFFFFFFFFFFFFFFFFFFFFFFFFFFFF NOT AND PUSH31 0xFFFFFFFFFFFFFFFFFFFFFFFFFFFFFFFFFFFFFFFFFFFFFFFFFFFFFFFFFFFFFF NOT AND DUP2 MSTORE PUSH1 0x20 ADD SWAP1 DUP2 MSTORE PUSH1 0x20 ADD PUSH0 KECCAK256 SLOAD DUP4 PUSH2 0x6BD SWAP2 SWAP1 PUSH2 0x983 JUMP JUMPDEST SWAP3 POP JUMPDEST DUP1 DUP1 PUSH2 0x6CB SWAP1 PUSH2 0x9E3 JUMP JUMPDEST SWAP2 POP POP PUSH2 0x40F JUMP JUMPDEST POP DUP2 SWAP3 POP POP POP SWAP2 SWAP1 POP JUMP JUMPDEST PUSH0 PUSH1 0x40 MLOAD SWAP1 POP SWAP1 JUMP JUMPDEST PUSH0 PUSH0 REVERT JUMPDEST PUSH0 PUSH0 REVERT JUMPDEST PUSH0 PUSH32 0xFF00000000000000000000000000000000000000000000000000000000000000 DUP3 AND SWAP1 POP SWAP2 SWAP1 POP JUMP JUMPDEST PUSH2 0x723 DUP2 PUSH2 0x6EF JUMP JUMPDEST DUP2 EQ PUSH2 0x72D JUMPI PUSH0 PUSH0 REVERT JUMPDEST POP JUMP JUMPDEST PUSH0 DUP2 CALLDATALOAD SWAP1 POP PUSH2 0x73E DUP2 PUSH2 0x71A JUMP JUMPDEST SWAP3 SWAP2 POP POP JUMP JUMPDEST PUSH0 PUSH1 0x20 DUP3 DUP5 SUB SLT ISZERO PUSH2 0x759 JUMPI PUSH2 0x758 PUSH2 0x6E7 JUMP JUMPDEST JUMPDEST PUSH0 PUSH2 0x766 DUP5 DUP3 DUP6 ADD PUSH2 0x730 JUMP JUMPDEST SWAP2 POP POP SWAP3 SWAP2 POP POP JUMP JUMPDEST PUSH0 DUP2 SWAP1 POP SWAP2 SWAP1 POP JUMP JUMPDEST PUSH2 0x781 DUP2 PUSH2 0x76F JUMP JUMPDEST DUP3 MSTORE POP POP JUMP JUMPDEST PUSH0 PUSH1 0x20 DUP3 ADD SWAP1 POP PUSH2 0x79A PUSH0 DUP4 ADD DUP5 PUSH2 0x778 JUMP JUMPDEST SWAP3 SWAP2 POP POP JUMP JUMPDEST PUSH0 PUSH0 REVERT JUMPDEST PUSH0 PUSH0 REVERT JUMPDEST PUSH0 PUSH1 0x1F NOT PUSH1 0x1F DUP4 ADD AND SWAP1 POP SWAP2 SWAP1 POP JUMP JUMPDEST PUSH32 0x4E487B7100000000000000000000000000000000000000000000000000000000 PUSH0 MSTORE PUSH1 0x41 PUSH1 0x4 MSTORE PUSH1 0x24 PUSH0 REVERT JUMPDEST PUSH2 0x7EE DUP3 PUSH2 0x7A8 JUMP JUMPDEST DUP2 ADD DUP2 DUP2 LT PUSH8 0xFFFFFFFFFFFFFFFF DUP3 GT OR ISZERO PUSH2 0x80D JUMPI PUSH2 0x80C PUSH2 0x7B8 JUMP JUMPDEST JUMPDEST DUP1 PUSH1 0x40 MSTORE POP POP POP JUMP JUMPDEST PUSH0 PUSH2 0x81F PUSH2 0x6DE JUMP JUMPDEST SWAP1 POP PUSH2 0x82B DUP3 DUP3 PUSH2 0x7E5 JUMP JUMPDEST SWAP2 SWAP1 POP JUMP JUMPDEST PUSH0 PUSH8 0xFFFFFFFFFFFFFFFF DUP3 GT ISZERO PUSH2 0x84A JUMPI PUSH2 0x849 PUSH2 0x7B8 JUMP JUMPDEST JUMPDEST PUSH2 0x853 DUP3 PUSH2 0x7A8 JUMP JUMPDEST SWAP1 POP PUSH1 0x20 DUP2 ADD SWAP1 POP SWAP2 SWAP1 POP JUMP JUMPDEST DUP3 DUP2 DUP4 CALLDATACOPY PUSH0 DUP4 DUP4 ADD MSTORE POP POP POP JUMP JUMPDEST PUSH0 PUSH2 0x880 PUSH2 0x87B DUP5 PUSH2 0x830 JUMP JUMPDEST PUSH2 0x816 JUMP JUMPDEST SWAP1 POP DUP3 DUP2 MSTORE PUSH1 0x20 DUP2 ADD DUP5 DUP5 DUP5 ADD GT ISZERO PUSH2 0x89C JUMPI PUSH2 0x89B PUSH2 0x7A4 JUMP JUMPDEST JUMPDEST PUSH2 0x8A7 DUP5 DUP3 DUP6 PUSH2 0x860 JUMP JUMPDEST POP SWAP4 SWAP3 POP POP POP JUMP JUMPDEST PUSH0 DUP3 PUSH1 0x1F DUP4 ADD SLT PUSH2 0x8C3 JUMPI PUSH2 0x8C2 PUSH2 0x7A0 JUMP JUMPDEST JUMPDEST DUP2 CALLDATALOAD PUSH2 0x8D3 DUP5 DUP3 PUSH1 0x20 DUP7 ADD PUSH2 0x86E JUMP JUMPDEST SWAP2 POP POP SWAP3 SWAP2 POP POP JUMP JUMPDEST PUSH0 PUSH1 0x20 DUP3 DUP5 SUB SLT ISZERO PUSH2 0x8F1 JUMPI PUSH2 0x8F0 PUSH2 0x6E7 JUMP JUMPDEST JUMPDEST PUSH0 DUP3 ADD CALLDATALOAD PUSH8 0xFFFFFFFFFFFFFFFF DUP2 GT ISZERO PUSH2 0x90E JUMPI PUSH2 0x90D PUSH2 0x6EB JUMP JUMPDEST JUMPDEST PUSH2 0x91A DUP5 DUP3 DUP6 ADD PUSH2 0x8AF JUMP JUMPDEST SWAP2 POP POP SWAP3 SWAP2 POP POP JUMP JUMPDEST PUSH32 0x4E487B7100000000000000000000000000000000000000000000000000000000 PUSH0 MSTORE PUSH1 0x11 PUSH1 0x4 MSTORE PUSH1 0x24 PUSH0 REVERT JUMPDEST PUSH0 PUSH2 0x95A DUP3 PUSH2 0x76F JUMP JUMPDEST SWAP2 POP PUSH2 0x965 DUP4 PUSH2 0x76F JUMP JUMPDEST SWAP3 POP DUP3 DUP3 SUB SWAP1 POP DUP2 DUP2 GT ISZERO PUSH2 0x97D JUMPI PUSH2 0x97C PUSH2 0x923 JUMP JUMPDEST JUMPDEST SWAP3 SWAP2 POP POP JUMP JUMPDEST PUSH0 PUSH2 0x98D DUP3 PUSH2 0x76F JUMP JUMPDEST SWAP2 POP PUSH2 0x998 DUP4 PUSH2 0x76F JUMP JUMPDEST SWAP3 POP DUP3 DUP3 ADD SWAP1 POP DUP1 DUP3 GT ISZERO PUSH2 0x9B0 JUMPI PUSH2 0x9AF PUSH2 0x923 JUMP JUMPDEST JUMPDEST SWAP3 SWAP2 POP POP JUMP JUMPDEST PUSH32 0x4E487B7100000000000000000000000000000000000000000000000000000000 PUSH0 MSTORE PUSH1 0x32 PUSH1 0x4 MSTORE PUSH1 0x24 PUSH0 REVERT JUMPDEST PUSH0 PUSH2 0x9ED DUP3 PUSH2 0x76F JUMP JUMPDEST SWAP2 POP PUSH32 0xFFFFFFFFFFFFFFFFFFFFFFFFFFFFFFFFFFFFFFFFFFFFFFFFFFFFFFFFFFFFFFFF DUP3 SUB PUSH2 0xA1F JUMPI PUSH2 0xA1E PUSH2 0x923 JUMP JUMPDEST JUMPDEST PUSH1 0x1 DUP3 ADD SWAP1 POP SWAP2 SWAP1 POP JUMP INVALID LOG2 PUSH5 0x6970667358 0x22 SLT KECCAK256 COINBASE CREATE 0x22 MCOPY PC SWAP16 PUSH6 0xCF8C5F5CA12D 0xE8 0xBC PUSH15 0x8350DA755C784F1CAD1F3163393D3 0xC4 PUSH5 0x736F6C6343 STOP ADDMOD 0x1E STOP CALLER "
				},
				"gasEstimates": {
					"creation": {
						"codeDepositCost": "531200",
						"executionCost": "560",
						"totalCost": "531760"
					},
					"external": {
						"romanList(bytes1)": "2737",
						"romanToInt(string)": "infinite"
					}
				},
				"methodIdentifiers": {
					"romanList(bytes1)": "8f07f780",
					"romanToInt(string)": "cb159dfe"
				}
			},
			"storageLayout": {
				"storage": [
					{
						"astId": 5,
						"contract": "contracts/task1/04 RomanToInt.sol:RomanToInt",
						"label": "romanList",
						"offset": 0,
						"slot": "0",
						"type": "t_mapping(t_bytes1,t_uint256)"
					}
				],
				"types": {
					"t_bytes1": {
						"encoding": "inplace",
						"label": "bytes1",
						"numberOfBytes": "1"
					},
					"t_mapping(t_bytes1,t_uint256)": {
						"encoding": "mapping",
						"key": "t_bytes1",
						"label": "mapping(bytes1 => uint256)",
						"numberOfBytes": "32",
						"value": "t_uint256"
					},
					"t_uint256": {
						"encoding": "inplace",
						"label": "uint256",
						"numberOfBytes": "32"
					}
				}
			},
			"userdoc": {
				"kind": "user",
				"methods": {},
				"version": 1
			}
		}
	}
}