{
	"data": {
		"bytecode": {
			"linkReferences": {},
			"object": "60806040525f5f5f6101000a81548160ff02191690836003811115610027576100266100b9565b5b0217905550348015610037575f5ffd5b50604051610e35380380610e358339818101604052810190610059919061011d565b335f60016101000a81548173ffffffffffffffffffffffffffffffffffffffff021916908373ffffffffffffffffffffffffffffffffffffffff1602179055508160018190555080426100ac9190610188565b60028190555050506101bb565b7f4e487b71000000000000000000000000000000000000000000000000000000005f52602160045260245ffd5b5f5ffd5b5f819050919050565b6100fc816100ea565b8114610106575f5ffd5b50565b5f81519050610117816100f3565b92915050565b5f5f60408385031215610133576101326100e6565b5b5f61014085828601610109565b925050602061015185828601610109565b9150509250929050565b7f4e487b71000000000000000000000000000000000000000000000000000000005f52601160045260245ffd5b5f610192826100ea565b915061019d836100ea565b92508282019050808211156101b5576101b461015b565b5b92915050565b610c6d806101c85f395ff3fe608060405260043610610090575f3560e01c806342e94c901161005857806342e94c9014610152578063590e1ae31461018e57806363bd1d4a146101a4578063ad044f49146101ba578063d7bb99ba146101e457610090565b806301cb3b201461009457806302d05d3f146100aa5780630c3f6acf146100d457806329dcb0cf146100fe5780634019388314610128575b5f5ffd5b34801561009f575f5ffd5b506100a86101ee565b005b3480156100b5575f5ffd5b506100be61030d565b6040516100cb9190610828565b60405180910390f35b3480156100df575f5ffd5b506100e8610332565b6040516100f591906108b4565b60405180910390f35b348015610109575f5ffd5b50610112610343565b60405161011f91906108e5565b60405180910390f35b348015610133575f5ffd5b5061013c610349565b60405161014991906108e5565b60405180910390f35b34801561015d575f5ffd5b506101786004803603810190610173919061092c565b61034f565b60405161018591906108e5565b60405180910390f35b348015610199575f5ffd5b506101a2610364565b005b3480156101af575f5ffd5b506101b86104e6565b005b3480156101c5575f5ffd5b506101ce61067b565b6040516101db91906108e5565b60405180910390f35b6101ec610681565b005b5f80600381111561020257610201610841565b5b5f5f9054906101000a900460ff16600381111561022257610221610841565b5b14610262576040517f08c379a0000000000000000000000000000000000000000000000000000000008152600401610259906109b1565b60405180910390fd5b6002544210156102a7576040517f08c379a000000000000000000000000000000000000000000000000000000000815260040161029e90610a19565b60405180910390fd5b600154600354106102e05760015f5f6101000a81548160ff021916908360038111156102d6576102d5610841565b5b021790555061030a565b60025f5f6101000a81548160ff0219169083600381111561030457610303610841565b5b02179055505b50565b5f60019054906101000a900473ffffffffffffffffffffffffffffffffffffffff1681565b5f5f9054906101000a900460ff1681565b60025481565b60015481565b6004602052805f5260405f205f915090505481565b600280600381111561037957610378610841565b5b5f5f9054906101000a900460ff16600381111561039957610398610841565b5b146103d9576040517f08c379a00000000000000000000000000000000000000000000000000000000081526004016103d0906109b1565b60405180910390fd5b5f60045f3373ffffffffffffffffffffffffffffffffffffffff1673ffffffffffffffffffffffffffffffffffffffff1681526020019081526020015f205490505f811161045c576040517f08c379a000000000000000000000000000000000000000000000000000000000815260040161045390610a81565b60405180910390fd5b5f60045f3373ffffffffffffffffffffffffffffffffffffffff1673ffffffffffffffffffffffffffffffffffffffff1681526020019081526020015f20819055503373ffffffffffffffffffffffffffffffffffffffff166108fc8290811502906040515f60405180830381858888f193505050501580156104e1573d5f5f3e3d5ffd5b505050565b60018060038111156104fb576104fa610841565b5b5f5f9054906101000a900460ff16600381111561051b5761051a610841565b5b1461055b576040517f08c379a0000000000000000000000000000000000000000000000000000000008152600401610552906109b1565b60405180910390fd5b5f60019054906101000a900473ffffffffffffffffffffffffffffffffffffffff1673ffffffffffffffffffffffffffffffffffffffff163373ffffffffffffffffffffffffffffffffffffffff16146105ea576040517f08c379a00000000000000000000000000000000000000000000000000000000081526004016105e190610ae9565b60405180910390fd5b60035f5f6101000a81548160ff0219169083600381111561060e5761060d610841565b5b02179055505f60019054906101000a900473ffffffffffffffffffffffffffffffffffffffff1673ffffffffffffffffffffffffffffffffffffffff166108fc4790811502906040515f60405180830381858888f19350505050158015610677573d5f5f3e3d5ffd5b5050565b60035481565b5f80600381111561069557610694610841565b5b5f5f9054906101000a900460ff1660038111156106b5576106b4610841565b5b146106f5576040517f08c379a00000000000000000000000000000000000000000000000000000000081526004016106ec906109b1565b60405180910390fd5b6002544210610739576040517f08c379a000000000000000000000000000000000000000000000000000000000815260040161073090610b51565b60405180910390fd5b5f341161077b576040517f08c379a000000000000000000000000000000000000000000000000000000000815260040161077290610bb9565b60405180910390fd5b3460045f3373ffffffffffffffffffffffffffffffffffffffff1673ffffffffffffffffffffffffffffffffffffffff1681526020019081526020015f205f8282546107c79190610c04565b925050819055503460035f8282546107df9190610c04565b9250508190555050565b5f73ffffffffffffffffffffffffffffffffffffffff82169050919050565b5f610812826107e9565b9050919050565b61082281610808565b82525050565b5f60208201905061083b5f830184610819565b92915050565b7f4e487b71000000000000000000000000000000000000000000000000000000005f52602160045260245ffd5b6004811061087f5761087e610841565b5b50565b5f81905061088f8261086e565b919050565b5f61089e82610882565b9050919050565b6108ae81610894565b82525050565b5f6020820190506108c75f8301846108a5565b92915050565b5f819050919050565b6108df816108cd565b82525050565b5f6020820190506108f85f8301846108d6565b92915050565b5f5ffd5b61090b81610808565b8114610915575f5ffd5b50565b5f8135905061092681610902565b92915050565b5f60208284031215610941576109406108fe565b5b5f61094e84828501610918565b91505092915050565b5f82825260208201905092915050565b7f496e76616c6964207374617465000000000000000000000000000000000000005f82015250565b5f61099b600d83610957565b91506109a682610967565b602082019050919050565b5f6020820190508181035f8301526109c88161098f565b9050919050565b7f43616d706169676e206e6f7420656e64656420796574000000000000000000005f82015250565b5f610a03601683610957565b9150610a0e826109cf565b602082019050919050565b5f6020820190508181035f830152610a30816109f7565b9050919050565b7f4e6f20636f6e747269627574696f6e20746f20726566756e64000000000000005f82015250565b5f610a6b601983610957565b9150610a7682610a37565b602082019050919050565b5f6020820190508181035f830152610a9881610a5f565b9050919050565b7f4f6e6c792063726561746f722063616e207061796f75740000000000000000005f82015250565b5f610ad3601783610957565b9150610ade82610a9f565b602082019050919050565b5f6020820190508181035f830152610b0081610ac7565b9050919050565b7f43616d706169676e20656e6465640000000000000000000000000000000000005f82015250565b5f610b3b600e83610957565b9150610b4682610b07565b602082019050919050565b5f6020820190508181035f830152610b6881610b2f565b9050919050565b7f4d7573742073656e6420455448000000000000000000000000000000000000005f82015250565b5f610ba3600d83610957565b9150610bae82610b6f565b602082019050919050565b5f6020820190508181035f830152610bd081610b97565b9050919050565b7f4e487b71000000000000000000000000000000000000000000000000000000005f52601160045260245ffd5b5f610c0e826108cd565b9150610c19836108cd565b9250828201905080821115610c3157610c30610bd7565b5b9291505056fea2646970667358221220e8bcb183aa1f654825ea396dda8f3c5b0609985b06ec4885ec647e2cec51de0364736f6c634300081e0033",
			"opcodes": "PUSH1 0x80 PUSH1 0x40 MSTORE PUSH0 PUSH0 PUSH0 PUSH2 0x100 EXP DUP2 SLOAD DUP2 PUSH1 0xFF MUL NOT AND SWAP1 DUP4 PUSH1 0x3 DUP2 GT ISZERO PUSH2 0x27 JUMPI PUSH2 0x26 PUSH2 0xB9 JUMP JUMPDEST JUMPDEST MUL OR SWAP1 SSTORE POP CALLVALUE DUP1 ISZERO PUSH2 0x37 JUMPI PUSH0 PUSH0 REVERT JUMPDEST POP PUSH1 0x40 MLOAD PUSH2 0xE35 CODESIZE SUB DUP1 PUSH2 0xE35 DUP4 CODECOPY DUP2 DUP2 ADD PUSH1 0x40 MSTORE DUP2 ADD SWAP1 PUSH2 0x59 SWAP2 SWAP1 PUSH2 0x11D JUMP JUMPDEST CALLER PUSH0 PUSH1 0x1 PUSH2 0x100 EXP DUP2 SLOAD DUP2 PUSH20 0xFFFFFFFFFFFFFFFFFFFFFFFFFFFFFFFFFFFFFFFF MUL NOT AND SWAP1 DUP4 PUSH20 0xFFFFFFFFFFFFFFFFFFFFFFFFFFFFFFFFFFFFFFFF AND MUL OR SWAP1 SSTORE POP DUP2 PUSH1 0x1 DUP2 SWAP1 SSTORE POP DUP1 TIMESTAMP PUSH2 0xAC SWAP2 SWAP1 PUSH2 0x188 JUMP JUMPDEST PUSH1 0x2 DUP2 SWAP1 SSTORE POP POP POP PUSH2 0x1BB JUMP JUMPDEST PUSH32 0x4E487B7100000000000000000000000000000000000000000000000000000000 PUSH0 MSTORE PUSH1 0x21 PUSH1 0x4 MSTORE PUSH1 0x24 PUSH0 REVERT JUMPDEST PUSH0 PUSH0 REVERT JUMPDEST PUSH0 DUP2 SWAP1 POP SWAP2 SWAP1 POP JUMP JUMPDEST PUSH2 0xFC DUP2 PUSH2 0xEA JUMP JUMPDEST DUP2 EQ PUSH2 0x106 JUMPI PUSH0 PUSH0 REVERT JUMPDEST POP JUMP JUMPDEST PUSH0 DUP2 MLOAD SWAP1 POP PUSH2 0x117 DUP2 PUSH2 0xF3 JUMP JUMPDEST SWAP3 SWAP2 POP POP JUMP JUMPDEST PUSH0 PUSH0 PUSH1 0x40 DUP4 DUP6 SUB SLT ISZERO PUSH2 0x133 JUMPI PUSH2 0x132 PUSH2 0xE6 JUMP JUMPDEST JUMPDEST PUSH0 PUSH2 0x140 DUP6 DUP3 DUP7 ADD PUSH2 0x109 JUMP JUMPDEST SWAP3 POP POP PUSH1 0x20 PUSH2 0x151 DUP6 DUP3 DUP7 ADD PUSH2 0x109 JUMP JUMPDEST SWAP2 POP POP SWAP3 POP SWAP3 SWAP1 POP JUMP JUMPDEST PUSH32 0x4E487B7100000000000000000000000000000000000000000000000000000000 PUSH0 MSTORE PUSH1 0x11 PUSH1 0x4 MSTORE PUSH1 0x24 PUSH0 REVERT JUMPDEST PUSH0 PUSH2 0x192 DUP3 PUSH2 0xEA JUMP JUMPDEST SWAP2 POP PUSH2 0x19D DUP4 PUSH2 0xEA JUMP JUMPDEST SWAP3 POP DUP3 DUP3 ADD SWAP1 POP DUP1 DUP3 GT ISZERO PUSH2 0x1B5 JUMPI PUSH2 0x1B4 PUSH2 0x15B JUMP JUMPDEST JUMPDEST SWAP3 SWAP2 POP POP JUMP JUMPDEST PUSH2 0xC6D DUP1 PUSH2 0x1C8 PUSH0 CODECOPY PUSH0 RETURN INVALID PUSH1 0x80 PUSH1 0x40 MSTORE PUSH1 0x4 CALLDATASIZE LT PUSH2 0x90 JUMPI PUSH0 CALLDATALOAD PUSH1 0xE0 SHR DUP1 PUSH4 0x42E94C90 GT PUSH2 0x58 JUMPI DUP1 PUSH4 0x42E94C90 EQ PUSH2 0x152 JUMPI DUP1 PUSH4 0x590E1AE3 EQ PUSH2 0x18E JUMPI DUP1 PUSH4 0x63BD1D4A EQ PUSH2 0x1A4 JUMPI DUP1 PUSH4 0xAD044F49 EQ PUSH2 0x1BA JUMPI DUP1 PUSH4 0xD7BB99BA EQ PUSH2 0x1E4 JUMPI PUSH2 0x90 JUMP JUMPDEST DUP1 PUSH4 0x1CB3B20 EQ PUSH2 0x94 JUMPI DUP1 PUSH4 0x2D05D3F EQ PUSH2 0xAA JUMPI DUP1 PUSH4 0xC3F6ACF EQ PUSH2 0xD4 JUMPI DUP1 PUSH4 0x29DCB0CF EQ PUSH2 0xFE JUMPI DUP1 PUSH4 0x40193883 EQ PUSH2 0x128 JUMPI JUMPDEST PUSH0 PUSH0 REVERT JUMPDEST CALLVALUE DUP1 ISZERO PUSH2 0x9F JUMPI PUSH0 PUSH0 REVERT JUMPDEST POP PUSH2 0xA8 PUSH2 0x1EE JUMP JUMPDEST STOP JUMPDEST CALLVALUE DUP1 ISZERO PUSH2 0xB5 JUMPI PUSH0 PUSH0 REVERT JUMPDEST POP PUSH2 0xBE PUSH2 0x30D JUMP JUMPDEST PUSH1 0x40 MLOAD PUSH2 0xCB SWAP2 SWAP1 PUSH2 0x828 JUMP JUMPDEST PUSH1 0x40 MLOAD DUP1 SWAP2 SUB SWAP1 RETURN JUMPDEST CALLVALUE DUP1 ISZERO PUSH2 0xDF JUMPI PUSH0 PUSH0 REVERT JUMPDEST POP PUSH2 0xE8 PUSH2 0x332 JUMP JUMPDEST PUSH1 0x40 MLOAD PUSH2 0xF5 SWAP2 SWAP1 PUSH2 0x8B4 JUMP JUMPDEST PUSH1 0x40 MLOAD DUP1 SWAP2 SUB SWAP1 RETURN JUMPDEST CALLVALUE DUP1 ISZERO PUSH2 0x109 JUMPI PUSH0 PUSH0 REVERT JUMPDEST POP PUSH2 0x112 PUSH2 0x343 JUMP JUMPDEST PUSH1 0x40 MLOAD PUSH2 0x11F SWAP2 SWAP1 PUSH2 0x8E5 JUMP JUMPDEST PUSH1 0x40 MLOAD DUP1 SWAP2 SUB SWAP1 RETURN JUMPDEST CALLVALUE DUP1 ISZERO PUSH2 0x133 JUMPI PUSH0 PUSH0 REVERT JUMPDEST POP PUSH2 0x13C PUSH2 0x349 JUMP JUMPDEST PUSH1 0x40 MLOAD PUSH2 0x149 SWAP2 SWAP1 PUSH2 0x8E5 JUMP JUMPDEST PUSH1 0x40 MLOAD DUP1 SWAP2 SUB SWAP1 RETURN JUMPDEST CALLVALUE DUP1 ISZERO PUSH2 0x15D JUMPI PUSH0 PUSH0 REVERT JUMPDEST POP PUSH2 0x178 PUSH1 0x4 DUP1 CALLDATASIZE SUB DUP2 ADD SWAP1 PUSH2 0x173 SWAP2 SWAP1 PUSH2 0x92C JUMP JUMPDEST PUSH2 0x34F JUMP JUMPDEST PUSH1 0x40 MLOAD PUSH2 0x185 SWAP2 SWAP1 PUSH2 0x8E5 JUMP JUMPDEST PUSH1 0x40 MLOAD DUP1 SWAP2 SUB SWAP1 RETURN JUMPDEST CALLVALUE DUP1 ISZERO PUSH2 0x199 JUMPI PUSH0 PUSH0 REVERT JUMPDEST POP PUSH2 0x1A2 PUSH2 0x364 JUMP JUMPDEST STOP JUMPDEST CALLVALUE DUP1 ISZERO PUSH2 0x1AF JUMPI PUSH0 PUSH0 REVERT JUMPDEST POP PUSH2 0x1B8 PUSH2 0x4E6 JUMP JUMPDEST STOP JUMPDEST CALLVALUE DUP1 ISZERO PUSH2 0x1C5 JUMPI PUSH0 PUSH0 REVERT JUMPDEST POP PUSH2 0x1CE PUSH2 0x67B JUMP JUMPDEST PUSH1 0x40 MLOAD PUSH2 0x1DB SWAP2 SWAP1 PUSH2 0x8E5 JUMP JUMPDEST PUSH1 0x40 MLOAD DUP1 SWAP2 SUB SWAP1 RETURN JUMPDEST PUSH2 0x1EC PUSH2 0x681 JUMP JUMPDEST STOP JUMPDEST PUSH0 DUP1 PUSH1 0x3 DUP2 GT ISZERO PUSH2 0x202 JUMPI PUSH2 0x201 PUSH2 0x841 JUMP JUMPDEST JUMPDEST PUSH0 PUSH0 SWAP1 SLOAD SWAP1 PUSH2 0x100 EXP SWAP1 DIV PUSH1 0xFF AND PUSH1 0x3 DUP2 GT ISZERO PUSH2 0x222 JUMPI PUSH2 0x221 PUSH2 0x841 JUMP JUMPDEST JUMPDEST EQ PUSH2 0x262 JUMPI PUSH1 0x40 MLOAD PUSH32 0x8C379A000000000000000000000000000000000000000000000000000000000 DUP2 MSTORE PUSH1 0x4 ADD PUSH2 0x259 SWAP1 PUSH2 0x9B1 JUMP JUMPDEST PUSH1 0x40 MLOAD DUP1 SWAP2 SUB SWAP1 REVERT JUMPDEST PUSH1 0x2 SLOAD TIMESTAMP LT ISZERO PUSH2 0x2A7 JUMPI PUSH1 0x40 MLOAD PUSH32 0x8C379A000000000000000000000000000000000000000000000000000000000 DUP2 MSTORE PUSH1 0x4 ADD PUSH2 0x29E SWAP1 PUSH2 0xA19 JUMP JUMPDEST PUSH1 0x40 MLOAD DUP1 SWAP2 SUB SWAP1 REVERT JUMPDEST PUSH1 0x1 SLOAD PUSH1 0x3 SLOAD LT PUSH2 0x2E0 JUMPI PUSH1 0x1 PUSH0 PUSH0 PUSH2 0x100 EXP DUP2 SLOAD DUP2 PUSH1 0xFF MUL NOT AND SWAP1 DUP4 PUSH1 0x3 DUP2 GT ISZERO PUSH2 0x2D6 JUMPI PUSH2 0x2D5 PUSH2 0x841 JUMP JUMPDEST JUMPDEST MUL OR SWAP1 SSTORE POP PUSH2 0x30A JUMP JUMPDEST PUSH1 0x2 PUSH0 PUSH0 PUSH2 0x100 EXP DUP2 SLOAD DUP2 PUSH1 0xFF MUL NOT AND SWAP1 DUP4 PUSH1 0x3 DUP2 GT ISZERO PUSH2 0x304 JUMPI PUSH2 0x303 PUSH2 0x841 JUMP JUMPDEST JUMPDEST MUL OR SWAP1 SSTORE POP JUMPDEST POP JUMP JUMPDEST PUSH0 PUSH1 0x1 SWAP1 SLOAD SWAP1 PUSH2 0x100 EXP SWAP1 DIV PUSH20 0xFFFFFFFFFFFFFFFFFFFFFFFFFFFFFFFFFFFFFFFF AND DUP2 JUMP JUMPDEST PUSH0 PUSH0 SWAP1 SLOAD SWAP1 PUSH2 0x100 EXP SWAP1 DIV PUSH1 0xFF AND DUP2 JUMP JUMPDEST PUSH1 0x2 SLOAD DUP2 JUMP JUMPDEST PUSH1 0x1 SLOAD DUP2 JUMP JUMPDEST PUSH1 0x4 PUSH1 0x20 MSTORE DUP1 PUSH0 MSTORE PUSH1 0x40 PUSH0 KECCAK256 PUSH0 SWAP2 POP SWAP1 POP SLOAD DUP2 JUMP JUMPDEST PUSH1 0x2 DUP1 PUSH1 0x3 DUP2 GT ISZERO PUSH2 0x379 JUMPI PUSH2 0x378 PUSH2 0x841 JUMP JUMPDEST JUMPDEST PUSH0 PUSH0 SWAP1 SLOAD SWAP1 PUSH2 0x100 EXP SWAP1 DIV PUSH1 0xFF AND PUSH1 0x3 DUP2 GT ISZERO PUSH2 0x399 JUMPI PUSH2 0x398 PUSH2 0x841 JUMP JUMPDEST JUMPDEST EQ PUSH2 0x3D9 JUMPI PUSH1 0x40 MLOAD PUSH32 0x8C379A000000000000000000000000000000000000000000000000000000000 DUP2 MSTORE PUSH1 0x4 ADD PUSH2 0x3D0 SWAP1 PUSH2 0x9B1 JUMP JUMPDEST PUSH1 0x40 MLOAD DUP1 SWAP2 SUB SWAP1 REVERT JUMPDEST PUSH0 PUSH1 0x4 PUSH0 CALLER PUSH20 0xFFFFFFFFFFFFFFFFFFFFFFFFFFFFFFFFFFFFFFFF AND PUSH20 0xFFFFFFFFFFFFFFFFFFFFFFFFFFFFFFFFFFFFFFFF AND DUP2 MSTORE PUSH1 0x20 ADD SWAP1 DUP2 MSTORE PUSH1 0x20 ADD PUSH0 KECCAK256 SLOAD SWAP1 POP PUSH0 DUP2 GT PUSH2 0x45C JUMPI PUSH1 0x40 MLOAD PUSH32 0x8C379A000000000000000000000000000000000000000000000000000000000 DUP2 MSTORE PUSH1 0x4 ADD PUSH2 0x453 SWAP1 PUSH2 0xA81 JUMP JUMPDEST PUSH1 0x40 MLOAD DUP1 SWAP2 SUB SWAP1 REVERT JUMPDEST PUSH0 PUSH1 0x4 PUSH0 CALLER PUSH20 0xFFFFFFFFFFFFFFFFFFFFFFFFFFFFFFFFFFFFFFFF AND PUSH20 0xFFFFFFFFFFFFFFFFFFFFFFFFFFFFFFFFFFFFFFFF AND DUP2 MSTORE PUSH1 0x20 ADD SWAP1 DUP2 MSTORE PUSH1 0x20 ADD PUSH0 KECCAK256 DUP2 SWAP1 SSTORE POP CALLER PUSH20 0xFFFFFFFFFFFFFFFFFFFFFFFFFFFFFFFFFFFFFFFF AND PUSH2 0x8FC DUP3 SWAP1 DUP2 ISZERO MUL SWAP1 PUSH1 0x40 MLOAD PUSH0 PUSH1 0x40 MLOAD DUP1 DUP4 SUB DUP2 DUP6 DUP9 DUP9 CALL SWAP4 POP POP POP POP ISZERO DUP1 ISZERO PUSH2 0x4E1 JUMPI RETURNDATASIZE PUSH0 PUSH0 RETURNDATACOPY RETURNDATASIZE PUSH0 REVERT JUMPDEST POP POP POP JUMP JUMPDEST PUSH1 0x1 DUP1 PUSH1 0x3 DUP2 GT ISZERO PUSH2 0x4FB JUMPI PUSH2 0x4FA PUSH2 0x841 JUMP JUMPDEST JUMPDEST PUSH0 PUSH0 SWAP1 SLOAD SWAP1 PUSH2 0x100 EXP SWAP1 DIV PUSH1 0xFF AND PUSH1 0x3 DUP2 GT ISZERO PUSH2 0x51B JUMPI PUSH2 0x51A PUSH2 0x841 JUMP JUMPDEST JUMPDEST EQ PUSH2 0x55B JUMPI PUSH1 0x40 MLOAD PUSH32 0x8C379A000000000000000000000000000000000000000000000000000000000 DUP2 MSTORE PUSH1 0x4 ADD PUSH2 0x552 SWAP1 PUSH2 0x9B1 JUMP JUMPDEST PUSH1 0x40 MLOAD DUP1 SWAP2 SUB SWAP1 REVERT JUMPDEST PUSH0 PUSH1 0x1 SWAP1 SLOAD SWAP1 PUSH2 0x100 EXP SWAP1 DIV PUSH20 0xFFFFFFFFFFFFFFFFFFFFFFFFFFFFFFFFFFFFFFFF AND PUSH20 0xFFFFFFFFFFFFFFFFFFFFFFFFFFFFFFFFFFFFFFFF AND CALLER PUSH20 0xFFFFFFFFFFFFFFFFFFFFFFFFFFFFFFFFFFFFFFFF AND EQ PUSH2 0x5EA JUMPI PUSH1 0x40 MLOAD PUSH32 0x8C379A000000000000000000000000000000000000000000000000000000000 DUP2 MSTORE PUSH1 0x4 ADD PUSH2 0x5E1 SWAP1 PUSH2 0xAE9 JUMP JUMPDEST PUSH1 0x40 MLOAD DUP1 SWAP2 SUB SWAP1 REVERT JUMPDEST PUSH1 0x3 PUSH0 PUSH0 PUSH2 0x100 EXP DUP2 SLOAD DUP2 PUSH1 0xFF MUL NOT AND SWAP1 DUP4 PUSH1 0x3 DUP2 GT ISZERO PUSH2 0x60E JUMPI PUSH2 0x60D PUSH2 0x841 JUMP JUMPDEST JUMPDEST MUL OR SWAP1 SSTORE POP PUSH0 PUSH1 0x1 SWAP1 SLOAD SWAP1 PUSH2 0x100 EXP SWAP1 DIV PUSH20 0xFFFFFFFFFFFFFFFFFFFFFFFFFFFFFFFFFFFFFFFF AND PUSH20 0xFFFFFFFFFFFFFFFFFFFFFFFFFFFFFFFFFFFFFFFF AND PUSH2 0x8FC SELFBALANCE SWAP1 DUP2 ISZERO MUL SWAP1 PUSH1 0x40 MLOAD PUSH0 PUSH1 0x40 MLOAD DUP1 DUP4 SUB DUP2 DUP6 DUP9 DUP9 CALL SWAP4 POP POP POP POP ISZERO DUP1 ISZERO PUSH2 0x677 JUMPI RETURNDATASIZE PUSH0 PUSH0 RETURNDATACOPY RETURNDATASIZE PUSH0 REVERT JUMPDEST POP POP JUMP JUMPDEST PUSH1 0x3 SLOAD DUP2 JUMP JUMPDEST PUSH0 DUP1 PUSH1 0x3 DUP2 GT ISZERO PUSH2 0x695 JUMPI PUSH2 0x694 PUSH2 0x841 JUMP JUMPDEST JUMPDEST PUSH0 PUSH0 SWAP1 SLOAD SWAP1 PUSH2 0x100 EXP SWAP1 DIV PUSH1 0xFF AND PUSH1 0x3 DUP2 GT ISZERO PUSH2 0x6B5 JUMPI PUSH2 0x6B4 PUSH2 0x841 JUMP JUMPDEST JUMPDEST EQ PUSH2 0x6F5 JUMPI PUSH1 0x40 MLOAD PUSH32 0x8C379A000000000000000000000000000000000000000000000000000000000 DUP2 MSTORE PUSH1 0x4 ADD PUSH2 0x6EC SWAP1 PUSH2 0x9B1 JUMP JUMPDEST PUSH1 0x40 MLOAD DUP1 SWAP2 SUB SWAP1 REVERT JUMPDEST PUSH1 0x2 SLOAD TIMESTAMP LT PUSH2 0x739 JUMPI PUSH1 0x40 MLOAD PUSH32 0x8C379A000000000000000000000000000000000000000000000000000000000 DUP2 MSTORE PUSH1 0x4 ADD PUSH2 0x730 SWAP1 PUSH2 0xB51 JUMP JUMPDEST PUSH1 0x40 MLOAD DUP1 SWAP2 SUB SWAP1 REVERT JUMPDEST PUSH0 CALLVALUE GT PUSH2 0x77B JUMPI PUSH1 0x40 MLOAD PUSH32 0x8C379A000000000000000000000000000000000000000000000000000000000 DUP2 MSTORE PUSH1 0x4 ADD PUSH2 0x772 SWAP1 PUSH2 0xBB9 JUMP JUMPDEST PUSH1 0x40 MLOAD DUP1 SWAP2 SUB SWAP1 REVERT JUMPDEST CALLVALUE PUSH1 0x4 PUSH0 CALLER PUSH20 0xFFFFFFFFFFFFFFFFFFFFFFFFFFFFFFFFFFFFFFFF AND PUSH20 0xFFFFFFFFFFFFFFFFFFFFFFFFFFFFFFFFFFFFFFFF AND DUP2 MSTORE PUSH1 0x20 ADD SWAP1 DUP2 MSTORE PUSH1 0x20 ADD PUSH0 KECCAK256 PUSH0 DUP3 DUP3 SLOAD PUSH2 0x7C7 SWAP2 SWAP1 PUSH2 0xC04 JUMP JUMPDEST SWAP3 POP POP DUP2 SWAP1 SSTORE POP CALLVALUE PUSH1 0x3 PUSH0 DUP3 DUP3 SLOAD PUSH2 0x7DF SWAP2 SWAP1 PUSH2 0xC04 JUMP JUMPDEST SWAP3 POP POP DUP2 SWAP1 SSTORE POP POP JUMP JUMPDEST PUSH0 PUSH20 0xFFFFFFFFFFFFFFFFFFFFFFFFFFFFFFFFFFFFFFFF DUP3 AND SWAP1 POP SWAP2 SWAP1 POP JUMP JUMPDEST PUSH0 PUSH2 0x812 DUP3 PUSH2 0x7E9 JUMP JUMPDEST SWAP1 POP SWAP2 SWAP1 POP JUMP JUMPDEST PUSH2 0x822 DUP2 PUSH2 0x808 JUMP JUMPDEST DUP3 MSTORE POP POP JUMP JUMPDEST PUSH0 PUSH1 0x20 DUP3 ADD SWAP1 POP PUSH2 0x83B PUSH0 DUP4 ADD DUP5 PUSH2 0x819 JUMP JUMPDEST SWAP3 SWAP2 POP POP JUMP JUMPDEST PUSH32 0x4E487B7100000000000000000000000000000000000000000000000000000000 PUSH0 MSTORE PUSH1 0x21 PUSH1 0x4 MSTORE PUSH1 0x24 PUSH0 REVERT JUMPDEST PUSH1 0x4 DUP2 LT PUSH2 0x87F JUMPI PUSH2 0x87E PUSH2 0x841 JUMP JUMPDEST JUMPDEST POP JUMP JUMPDEST PUSH0 DUP2 SWAP1 POP PUSH2 0x88F DUP3 PUSH2 0x86E JUMP JUMPDEST SWAP2 SWAP1 POP JUMP JUMPDEST PUSH0 PUSH2 0x89E DUP3 PUSH2 0x882 JUMP JUMPDEST SWAP1 POP SWAP2 SWAP1 POP JUMP JUMPDEST PUSH2 0x8AE DUP2 PUSH2 0x894 JUMP JUMPDEST DUP3 MSTORE POP POP JUMP JUMPDEST PUSH0 PUSH1 0x20 DUP3 ADD SWAP1 POP PUSH2 0x8C7 PUSH0 DUP4 ADD DUP5 PUSH2 0x8A5 JUMP JUMPDEST SWAP3 SWAP2 POP POP JUMP JUMPDEST PUSH0 DUP2 SWAP1 POP SWAP2 SWAP1 POP JUMP JUMPDEST PUSH2 0x8DF DUP2 PUSH2 0x8CD JUMP JUMPDEST DUP3 MSTORE POP POP JUMP JUMPDEST PUSH0 PUSH1 0x20 DUP3 ADD SWAP1 POP PUSH2 0x8F8 PUSH0 DUP4 ADD DUP5 PUSH2 0x8D6 JUMP JUMPDEST SWAP3 SWAP2 POP POP JUMP JUMPDEST PUSH0 PUSH0 REVERT JUMPDEST PUSH2 0x90B DUP2 PUSH2 0x808 JUMP JUMPDEST DUP2 EQ PUSH2 0x915 JUMPI PUSH0 PUSH0 REVERT JUMPDEST POP JUMP JUMPDEST PUSH0 DUP2 CALLDATALOAD SWAP1 POP PUSH2 0x926 DUP2 PUSH2 0x902 JUMP JUMPDEST SWAP3 SWAP2 POP POP JUMP JUMPDEST PUSH0 PUSH1 0x20 DUP3 DUP5 SUB SLT ISZERO PUSH2 0x941 JUMPI PUSH2 0x940 PUSH2 0x8FE JUMP JUMPDEST JUMPDEST PUSH0 PUSH2 0x94E DUP5 DUP3 DUP6 ADD PUSH2 0x918 JUMP JUMPDEST SWAP2 POP POP SWAP3 SWAP2 POP POP JUMP JUMPDEST PUSH0 DUP3 DUP3 MSTORE PUSH1 0x20 DUP3 ADD SWAP1 POP SWAP3 SWAP2 POP POP JUMP JUMPDEST PUSH32 0x496E76616C696420737461746500000000000000000000000000000000000000 PUSH0 DUP3 ADD MSTORE POP JUMP JUMPDEST PUSH0 PUSH2 0x99B PUSH1 0xD DUP4 PUSH2 0x957 JUMP JUMPDEST SWAP2 POP PUSH2 0x9A6 DUP3 PUSH2 0x967 JUMP JUMPDEST PUSH1 0x20 DUP3 ADD SWAP1 POP SWAP2 SWAP1 POP JUMP JUMPDEST PUSH0 PUSH1 0x20 DUP3 ADD SWAP1 POP DUP2 DUP2 SUB PUSH0 DUP4 ADD MSTORE PUSH2 0x9C8 DUP2 PUSH2 0x98F JUMP JUMPDEST SWAP1 POP SWAP2 SWAP1 POP JUMP JUMPDEST PUSH32 0x43616D706169676E206E6F7420656E6465642079657400000000000000000000 PUSH0 DUP3 ADD MSTORE POP JUMP JUMPDEST PUSH0 PUSH2 0xA03 PUSH1 0x16 DUP4 PUSH2 0x957 JUMP JUMPDEST SWAP2 POP PUSH2 0xA0E DUP3 PUSH2 0x9CF JUMP JUMPDEST PUSH1 0x20 DUP3 ADD SWAP1 POP SWAP2 SWAP1 POP JUMP JUMPDEST PUSH0 PUSH1 0x20 DUP3 ADD SWAP1 POP DUP2 DUP2 SUB PUSH0 DUP4 ADD MSTORE PUSH2 0xA30 DUP2 PUSH2 0x9F7 JUMP JUMPDEST SWAP1 POP SWAP2 SWAP1 POP JUMP JUMPDEST PUSH32 0x4E6F20636F6E747269627574696F6E20746F20726566756E6400000000000000 PUSH0 DUP3 ADD MSTORE POP JUMP JUMPDEST PUSH0 PUSH2 0xA6B PUSH1 0x19 DUP4 PUSH2 0x957 JUMP JUMPDEST SWAP2 POP PUSH2 0xA76 DUP3 PUSH2 0xA37 JUMP JUMPDEST PUSH1 0x20 DUP3 ADD SWAP1 POP SWAP2 SWAP1 POP JUMP JUMPDEST PUSH0 PUSH1 0x20 DUP3 ADD SWAP1 POP DUP2 DUP2 SUB PUSH0 DUP4 ADD MSTORE PUSH2 0xA98 DUP2 PUSH2 0xA5F JUMP JUMPDEST SWAP1 POP SWAP2 SWAP1 POP JUMP JUMPDEST PUSH32 0x4F6E6C792063726561746F722063616E207061796F7574000000000000000000 PUSH0 DUP3 ADD MSTORE POP JUMP JUMPDEST PUSH0 PUSH2 0xAD3 PUSH1 0x17 DUP4 PUSH2 0x957 JUMP JUMPDEST SWAP2 POP PUSH2 0xADE DUP3 PUSH2 0xA9F JUMP JUMPDEST PUSH1 0x20 DUP3 ADD SWAP1 POP SWAP2 SWAP1 POP JUMP JUMPDEST PUSH0 PUSH1 0x20 DUP3 ADD SWAP1 POP DUP2 DUP2 SUB PUSH0 DUP4 ADD MSTORE PUSH2 0xB00 DUP2 PUSH2 0xAC7 JUMP JUMPDEST SWAP1 POP SWAP2 SWAP1 POP JUMP JUMPDEST PUSH32 0x43616D706169676E20656E646564000000000000000000000000000000000000 PUSH0 DUP3 ADD MSTORE POP JUMP JUMPDEST PUSH0 PUSH2 0xB3B PUSH1 0xE DUP4 PUSH2 0x957 JUMP JUMPDEST SWAP2 POP PUSH2 0xB46 DUP3 PUSH2 0xB07 JUMP JUMPDEST PUSH1 0x20 DUP3 ADD SWAP1 POP SWAP2 SWAP1 POP JUMP JUMPDEST PUSH0 PUSH1 0x20 DUP3 ADD SWAP1 POP DUP2 DUP2 SUB PUSH0 DUP4 ADD MSTORE PUSH2 0xB68 DUP2 PUSH2 0xB2F JUMP JUMPDEST SWAP1 POP SWAP2 SWAP1 POP JUMP JUMPDEST PUSH32 0x4D7573742073656E642045544800000000000000000000000000000000000000 PUSH0 DUP3 ADD MSTORE POP JUMP JUMPDEST PUSH0 PUSH2 0xBA3 PUSH1 0xD DUP4 PUSH2 0x957 JUMP JUMPDEST SWAP2 POP PUSH2 0xBAE DUP3 PUSH2 0xB6F JUMP JUMPDEST PUSH1 0x20 DUP3 ADD SWAP1 POP SWAP2 SWAP1 POP JUMP JUMPDEST PUSH0 PUSH1 0x20 DUP3 ADD SWAP1 POP DUP2 DUP2 SUB PUSH0 DUP4 ADD MSTORE PUSH2 0xBD0 DUP2 PUSH2 0xB97 JUMP JUMPDEST SWAP1 POP SWAP2 SWAP1 POP JUMP JUMPDEST PUSH32 0x4E487B7100000000000000000000000000000000000000000000000000000000 PUSH0 MSTORE PUSH1 0x11 PUSH1 0x4 MSTORE PUSH1 0x24 PUSH0 REVERT JUMPDEST PUSH0 PUSH2 0xC0E DUP3 PUSH2 0x8CD JUMP JUMPDEST SWAP2 POP PUSH2 0xC19 DUP4 PUSH2 0x8CD JUMP JUMPDEST SWAP3 POP DUP3 DUP3 ADD SWAP1 POP DUP1 DUP3 GT ISZERO PUSH2 0xC31 JUMPI PUSH2 0xC30 PUSH2 0xBD7 JUMP JUMPDEST JUMPDEST SWAP3 SWAP2 POP POP JUMP INVALID LOG2 PUSH5 0x6970667358 0x22 SLT KECCAK256 0xE8 0xBC 0xB1 DUP4 0xAA 0x1F PUSH6 0x4825EA396DDA DUP16 EXTCODECOPY JUMPDEST MOD MULMOD SWAP9 JUMPDEST MOD EOFCREATE 0x48 DUP6 EOFCREATE 0x64 PUSH31 0x2CEC51DE0364736F6C634300081E0033000000000000000000000000000000 "
		},
		"gasEstimates": {
			"creation": {
				"codeDepositCost": "636200",
				"executionCost": "infinite",
				"totalCost": "infinite"
			},
			"external": {
				"checkGoalReached()": "33001",
				"contribute()": "infinite",
				"contributions(address)": "2802",
				"creator()": "2581",
				"currentState()": "2598",
				"deadline()": "2492",
				"goal()": "2514",
				"payout()": "infinite",
				"refund()": "infinite",
				"totalFunded()": "2491"
			}
		},
		"methodIdentifiers": {
			"checkGoalReached()": "01cb3b20",
			"contribute()": "d7bb99ba",
			"contributions(address)": "42e94c90",
			"creator()": "02d05d3f",
			"currentState()": "0c3f6acf",
			"deadline()": "29dcb0cf",
			"goal()": "40193883",
			"payout()": "63bd1d4a",
			"refund()": "590e1ae3",
			"totalFunded()": "ad044f49"
		}
	},
	"abi": [
		{
			"inputs": [
				{
					"internalType": "uint256",
					"name": "_goal",
					"type": "uint256"
				},
				{
					"internalType": "uint256",
					"name": "_duration",
					"type": "uint256"
				}
			],
			"stateMutability": "nonpayable",
			"type": "constructor"
		},
		{
			"inputs": [],
			"name": "checkGoalReached",
			"outputs": [],
			"stateMutability": "nonpayable",
			"type": "function"
		},
		{
			"inputs": [],
			"name": "contribute",
			"outputs": [],
			"stateMutability": "payable",
			"type": "function"
		},
		{
			"inputs": [
				{
					"internalType": "address",
					"name": "",
					"type": "address"
				}
			],
			"name": "contributions",
			"outputs": [
				{
					"internalType": "uint256",
					"name": "",
					"type": "uint256"
				}
			],
			"stateMutability": "view",
			"type": "function"
		},
		{
			"inputs": [],
			"name": "creator",
			"outputs": [
				{
					"internalType": "address",
					"name": "",
					"type": "address"
				}
			],
			"stateMutability": "view",
			"type": "function"
		},
		{
			"inputs": [],
			"name": "currentState",
			"outputs": [
				{
					"internalType": "enum Crowdfunding.State",
					"name": "",
					"type": "uint8"
				}
			],
			"stateMutability": "view",
			"type": "function"
		},
		{
			"inputs": [],
			"name": "deadline",
			"outputs": [
				{
					"internalType": "uint256",
					"name": "",
					"type": "uint256"
				}
			],
			"stateMutability": "view",
			"type": "function"
		},
		{
			"inputs": [],
			"name": "goal",
			"outputs": [
				{
					"internalType": "uint256",
					"name": "",
					"type": "uint256"
				}
			],
			"stateMutability": "view",
			"type": "function"
		},
		{
			"inputs": [],
			"name": "payout",
			"outputs": [],
			"stateMutability": "nonpayable",
			"type": "function"
		},
		{
			"inputs": [],
			"name": "refund",
			"outputs": [],
			"stateMutability": "nonpayable",
			"type": "function"
		},
		{
			"inputs": [],
			"name": "totalFunded",
			"outputs": [
				{
					"internalType": "uint256",
					"name": "",
					"type": "uint256"
				}
			],
			"stateMutability": "view",
			"type": "function"
		}
	]
}